{
  "contractName": "DoBuyToken",
  "abi": [
    {
      "inputs": [],
      "stateMutability": "nonpayable",
      "type": "constructor"
    },
    {
      "anonymous": false,
      "inputs": [
        {
          "indexed": true,
          "internalType": "address",
          "name": "owner",
          "type": "address"
        },
        {
          "indexed": true,
          "internalType": "address",
          "name": "spender",
          "type": "address"
        },
        {
          "indexed": false,
          "internalType": "uint256",
          "name": "value",
          "type": "uint256"
        }
      ],
      "name": "Approval",
      "type": "event"
    },
    {
      "anonymous": false,
      "inputs": [
        {
          "indexed": true,
          "internalType": "address",
          "name": "from",
          "type": "address"
        },
        {
          "indexed": true,
          "internalType": "address",
          "name": "to",
          "type": "address"
        },
        {
          "indexed": false,
          "internalType": "uint256",
          "name": "value",
          "type": "uint256"
        }
      ],
      "name": "Transfer",
      "type": "event"
    },
    {
      "inputs": [],
      "name": "INITIAL_SUPPLY",
      "outputs": [
        {
          "internalType": "uint256",
          "name": "",
          "type": "uint256"
        }
      ],
      "stateMutability": "view",
      "type": "function",
      "constant": true
    },
    {
      "inputs": [],
      "name": "_decimals",
      "outputs": [
        {
          "internalType": "uint8",
          "name": "",
          "type": "uint8"
        }
      ],
      "stateMutability": "view",
      "type": "function",
      "constant": true
    },
    {
      "inputs": [],
      "name": "_symbol",
      "outputs": [
        {
          "internalType": "string",
          "name": "",
          "type": "string"
        }
      ],
      "stateMutability": "view",
      "type": "function",
      "constant": true
    },
    {
      "inputs": [],
      "name": "_token",
      "outputs": [
        {
          "internalType": "string",
          "name": "",
          "type": "string"
        }
      ],
      "stateMutability": "view",
      "type": "function",
      "constant": true
    },
    {
      "inputs": [],
      "name": "_trackingIds",
      "outputs": [
        {
          "internalType": "uint256",
          "name": "_value",
          "type": "uint256"
        }
      ],
      "stateMutability": "view",
      "type": "function",
      "constant": true
    },
    {
      "inputs": [
        {
          "internalType": "address",
          "name": "owner",
          "type": "address"
        },
        {
          "internalType": "address",
          "name": "spender",
          "type": "address"
        }
      ],
      "name": "allowance",
      "outputs": [
        {
          "internalType": "uint256",
          "name": "",
          "type": "uint256"
        }
      ],
      "stateMutability": "view",
      "type": "function",
      "constant": true
    },
    {
      "inputs": [
        {
          "internalType": "address",
          "name": "spender",
          "type": "address"
        },
        {
          "internalType": "uint256",
          "name": "amount",
          "type": "uint256"
        }
      ],
      "name": "approve",
      "outputs": [
        {
          "internalType": "bool",
          "name": "",
          "type": "bool"
        }
      ],
      "stateMutability": "nonpayable",
      "type": "function"
    },
    {
      "inputs": [
        {
          "internalType": "address",
          "name": "account",
          "type": "address"
        }
      ],
      "name": "balanceOf",
      "outputs": [
        {
          "internalType": "uint256",
          "name": "",
          "type": "uint256"
        }
      ],
      "stateMutability": "view",
      "type": "function",
      "constant": true
    },
    {
      "inputs": [
        {
          "internalType": "uint256",
          "name": "",
          "type": "uint256"
        }
      ],
      "name": "billArray",
      "outputs": [
        {
          "internalType": "uint256",
          "name": "_Ids",
          "type": "uint256"
        },
        {
          "internalType": "uint16",
          "name": "amount",
          "type": "uint16"
        },
        {
          "internalType": "string",
          "name": "name",
          "type": "string"
        },
        {
          "internalType": "string",
          "name": "sender",
          "type": "string"
        },
        {
          "internalType": "string",
          "name": "receiver",
          "type": "string"
        }
      ],
      "stateMutability": "view",
      "type": "function",
      "constant": true
    },
    {
      "inputs": [],
      "name": "decimals",
      "outputs": [
        {
          "internalType": "uint8",
          "name": "",
          "type": "uint8"
        }
      ],
      "stateMutability": "view",
      "type": "function",
      "constant": true
    },
    {
      "inputs": [
        {
          "internalType": "address",
          "name": "spender",
          "type": "address"
        },
        {
          "internalType": "uint256",
          "name": "subtractedValue",
          "type": "uint256"
        }
      ],
      "name": "decreaseAllowance",
      "outputs": [
        {
          "internalType": "bool",
          "name": "",
          "type": "bool"
        }
      ],
      "stateMutability": "nonpayable",
      "type": "function"
    },
    {
      "inputs": [
        {
          "internalType": "address",
          "name": "spender",
          "type": "address"
        },
        {
          "internalType": "uint256",
          "name": "addedValue",
          "type": "uint256"
        }
      ],
      "name": "increaseAllowance",
      "outputs": [
        {
          "internalType": "bool",
          "name": "",
          "type": "bool"
        }
      ],
      "stateMutability": "nonpayable",
      "type": "function"
    },
    {
      "inputs": [],
      "name": "name",
      "outputs": [
        {
          "internalType": "string",
          "name": "",
          "type": "string"
        }
      ],
      "stateMutability": "view",
      "type": "function",
      "constant": true
    },
    {
      "inputs": [],
      "name": "symbol",
      "outputs": [
        {
          "internalType": "string",
          "name": "",
          "type": "string"
        }
      ],
      "stateMutability": "view",
      "type": "function",
      "constant": true
    },
    {
      "inputs": [],
      "name": "totalSupply",
      "outputs": [
        {
          "internalType": "uint256",
          "name": "",
          "type": "uint256"
        }
      ],
      "stateMutability": "view",
      "type": "function",
      "constant": true
    },
    {
      "inputs": [
        {
          "internalType": "uint256",
          "name": "",
          "type": "uint256"
        }
      ],
      "name": "trackingArray",
      "outputs": [
        {
          "internalType": "uint256",
          "name": "timestamp",
          "type": "uint256"
        },
        {
          "internalType": "string",
          "name": "location",
          "type": "string"
        },
        {
          "internalType": "string",
          "name": "status",
          "type": "string"
        }
      ],
      "stateMutability": "view",
      "type": "function",
      "constant": true
    },
    {
      "inputs": [
        {
          "internalType": "address",
          "name": "recipient",
          "type": "address"
        },
        {
          "internalType": "uint256",
          "name": "amount",
          "type": "uint256"
        }
      ],
      "name": "transfer",
      "outputs": [
        {
          "internalType": "bool",
          "name": "",
          "type": "bool"
        }
      ],
      "stateMutability": "nonpayable",
      "type": "function"
    },
    {
      "inputs": [
        {
          "internalType": "address",
          "name": "sender",
          "type": "address"
        },
        {
          "internalType": "address",
          "name": "recipient",
          "type": "address"
        },
        {
          "internalType": "uint256",
          "name": "amount",
          "type": "uint256"
        }
      ],
      "name": "transferFrom",
      "outputs": [
        {
          "internalType": "bool",
          "name": "",
          "type": "bool"
        }
      ],
      "stateMutability": "nonpayable",
      "type": "function"
    },
    {
      "inputs": [],
      "name": "user_wallet",
      "outputs": [
        {
          "internalType": "address",
          "name": "",
          "type": "address"
        }
      ],
      "stateMutability": "view",
      "type": "function",
      "constant": true
    },
    {
      "inputs": [
        {
          "internalType": "string",
          "name": "_name",
          "type": "string"
        },
        {
          "internalType": "string",
          "name": "_receiver",
          "type": "string"
        },
        {
          "internalType": "uint16",
          "name": "_amount",
          "type": "uint16"
        }
      ],
      "name": "deliveryStart",
      "outputs": [],
      "stateMutability": "nonpayable",
      "type": "function"
    }
  ],
  "bytecode": "0x608060405233600560006101000a81548173ffffffffffffffffffffffffffffffffffffffff021916908373ffffffffffffffffffffffffffffffffffffffff1602179055503480156200005257600080fd5b506040518060400160405280600a81526020017f446f427579546f6b656e000000000000000000000000000000000000000000008152506040518060400160405280600381526020017f44425400000000000000000000000000000000000000000000000000000000008152508160039080519060200190620000d7929190620002ce565b508060049080519060200190620000f0929190620002ce565b50505060003390506200013b816200010d6200014260201b60201c565b60ff16600a6200011e9190620004d9565b6305f5e1006200012f919062000616565b6200014b60201b60201c565b5062000722565b60006012905090565b600073ffffffffffffffffffffffffffffffffffffffff168273ffffffffffffffffffffffffffffffffffffffff161415620001be576040517f08c379a0000000000000000000000000000000000000000000000000000000008152600401620001b590620003d1565b60405180910390fd5b620001d260008383620002c460201b60201c565b8060026000828254620001e6919062000421565b92505081905550806000808473ffffffffffffffffffffffffffffffffffffffff1673ffffffffffffffffffffffffffffffffffffffff16815260200190815260200160002060008282546200023d919062000421565b925050819055508173ffffffffffffffffffffffffffffffffffffffff16600073ffffffffffffffffffffffffffffffffffffffff167fddf252ad1be2c89b69c2b068fc378daa952ba7f163c4a11628f55a4df523b3ef83604051620002a49190620003f3565b60405180910390a3620002c060008383620002c960201b60201c565b5050565b505050565b505050565b828054620002dc9062000681565b90600052602060002090601f0160209004810192826200030057600085556200034c565b82601f106200031b57805160ff19168380011785556200034c565b828001600101855582156200034c579182015b828111156200034b5782518255916020019190600101906200032e565b5b5090506200035b91906200035f565b5090565b5b808211156200037a57600081600090555060010162000360565b5090565b60006200038d601f8362000410565b91507f45524332303a206d696e7420746f20746865207a65726f2061646472657373006000830152602082019050919050565b620003cb8162000677565b82525050565b60006020820190508181036000830152620003ec816200037e565b9050919050565b60006020820190506200040a6000830184620003c0565b92915050565b600082825260208201905092915050565b60006200042e8262000677565b91506200043b8362000677565b9250827fffffffffffffffffffffffffffffffffffffffffffffffffffffffffffffffff03821115620004735762000472620006b7565b5b828201905092915050565b6000808291508390505b6001851115620004d057808604811115620004a857620004a7620006b7565b5b6001851615620004b85780820291505b8081029050620004c88562000715565b945062000488565b94509492505050565b6000620004e68262000677565b9150620004f38362000677565b9250620005227fffffffffffffffffffffffffffffffffffffffffffffffffffffffffffffffff84846200052a565b905092915050565b6000826200053c57600190506200060f565b816200054c57600090506200060f565b81600181146200056557600281146200057057620005a6565b60019150506200060f565b60ff841115620005855762000584620006b7565b5b8360020a9150848211156200059f576200059e620006b7565b5b506200060f565b5060208310610133831016604e8410600b8410161715620005e05782820a905083811115620005da57620005d9620006b7565b5b6200060f565b620005ef84848460016200047e565b92509050818404811115620006095762000608620006b7565b5b81810290505b9392505050565b6000620006238262000677565b9150620006308362000677565b9250817fffffffffffffffffffffffffffffffffffffffffffffffffffffffffffffffff04831182151516156200066c576200066b620006b7565b5b828202905092915050565b6000819050919050565b600060028204905060018216806200069a57607f821691505b60208210811415620006b157620006b0620006e6565b5b50919050565b7f4e487b7100000000000000000000000000000000000000000000000000000000600052601160045260246000fd5b7f4e487b7100000000000000000000000000000000000000000000000000000000600052602260045260246000fd5b60008160011c9050919050565b611e5a80620007326000396000f3fe608060405234801561001057600080fd5b506004361061012c5760003560e01c80636bb7abc4116100ad578063b09f126611610071578063b09f126614610389578063c0efbd2a146103a7578063dbcfc4a0146103c5578063dd62ed3e146103e1578063ecd0c0c3146104115761012c565b80636bb7abc4146102a757806370a08231146102db57806395d89b411461030b578063a457c2d714610329578063a9059cbb146103595761012c565b80632ff2e9dc116100f45780632ff2e9dc146101eb578063313ce5671461020957806332424aa31461022757806339509351146102455780633b01e452146102755761012c565b806306fdde0314610131578063095ea7b31461014f57806318160ddd1461017f57806323b872dd1461019d5780632dd9cecd146101cd575b600080fd5b61013961042f565b60405161014691906119b2565b60405180910390f35b6101696004803603810190610164919061154a565b6104c1565b6040516101769190611997565b60405180910390f35b6101876104df565b6040516101949190611ab4565b60405180910390f35b6101b760048036038101906101b291906114fb565b6104e9565b6040516101c49190611997565b60405180910390f35b6101d56105e1565b6040516101e29190611ab4565b60405180910390f35b6101f36105ed565b6040516102009190611ab4565b60405180910390f35b6102116105f5565b60405161021e9190611b7c565b60405180910390f35b61022f6105fe565b60405161023c9190611b7c565b60405180910390f35b61025f600480360381019061025a919061154a565b610603565b60405161026c9190611997565b60405180910390f35b61028f600480360381019061028a9190611605565b6106af565b60405161029e93929190611acf565b60405180910390f35b6102c160048036038101906102bc9190611605565b6107e9565b6040516102d2959493929190611b14565b60405180910390f35b6102f560048036038101906102f09190611496565b6109c5565b6040516103029190611ab4565b60405180910390f35b610313610a0d565b60405161032091906119b2565b60405180910390f35b610343600480360381019061033e919061154a565b610a9f565b6040516103509190611997565b60405180910390f35b610373600480360381019061036e919061154a565b610b8a565b6040516103809190611997565b60405180910390f35b610391610ba8565b60405161039e91906119b2565b60405180910390f35b6103af610be1565b6040516103bc919061197c565b60405180910390f35b6103df60048036038101906103da9190611586565b610c07565b005b6103fb60048036038101906103f691906114bf565b610e0a565b6040516104089190611ab4565b60405180910390f35b610419610e91565b60405161042691906119b2565b60405180910390f35b60606003805461043e90611d0f565b80601f016020809104026020016040519081016040528092919081815260200182805461046a90611d0f565b80156104b75780601f1061048c576101008083540402835291602001916104b7565b820191906000526020600020905b81548152906001019060200180831161049a57829003601f168201915b5050505050905090565b60006104d56104ce610eca565b8484610ed2565b6001905092915050565b6000600254905090565b60006104f684848461109d565b6000600160008673ffffffffffffffffffffffffffffffffffffffff1673ffffffffffffffffffffffffffffffffffffffff1681526020019081526020016000206000610541610eca565b73ffffffffffffffffffffffffffffffffffffffff1673ffffffffffffffffffffffffffffffffffffffff168152602001908152602001600020549050828110156105c1576040517f08c379a00000000000000000000000000000000000000000000000000000000081526004016105b890611a34565b60405180910390fd5b6105d5856105cd610eca565b858403610ed2565b60019150509392505050565b60068060000154905081565b6305f5e10081565b60006012905090565b601281565b60006106a5610610610eca565b84846001600061061e610eca565b73ffffffffffffffffffffffffffffffffffffffff1673ffffffffffffffffffffffffffffffffffffffff16815260200190815260200160002060008873ffffffffffffffffffffffffffffffffffffffff1673ffffffffffffffffffffffffffffffffffffffff168152602001908152602001600020546106a09190611c14565b610ed2565b6001905092915050565b60086020528060005260406000206000915090508060000154908060010180546106d890611d0f565b80601f016020809104026020016040519081016040528092919081815260200182805461070490611d0f565b80156107515780601f1061072657610100808354040283529160200191610751565b820191906000526020600020905b81548152906001019060200180831161073457829003601f168201915b50505050509080600201805461076690611d0f565b80601f016020809104026020016040519081016040528092919081815260200182805461079290611d0f565b80156107df5780601f106107b4576101008083540402835291602001916107df565b820191906000526020600020905b8154815290600101906020018083116107c257829003601f168201915b5050505050905083565b60076020528060005260406000206000915090508060000154908060010160009054906101000a900461ffff169080600201805461082690611d0f565b80601f016020809104026020016040519081016040528092919081815260200182805461085290611d0f565b801561089f5780601f106108745761010080835404028352916020019161089f565b820191906000526020600020905b81548152906001019060200180831161088257829003601f168201915b5050505050908060030180546108b490611d0f565b80601f01602080910402602001604051908101604052809291908181526020018280546108e090611d0f565b801561092d5780601f106109025761010080835404028352916020019161092d565b820191906000526020600020905b81548152906001019060200180831161091057829003601f168201915b50505050509080600401805461094290611d0f565b80601f016020809104026020016040519081016040528092919081815260200182805461096e90611d0f565b80156109bb5780601f10610990576101008083540402835291602001916109bb565b820191906000526020600020905b81548152906001019060200180831161099e57829003601f168201915b5050505050905085565b60008060008373ffffffffffffffffffffffffffffffffffffffff1673ffffffffffffffffffffffffffffffffffffffff168152602001908152602001600020549050919050565b606060048054610a1c90611d0f565b80601f0160208091040260200160405190810160405280929190818152602001828054610a4890611d0f565b8015610a955780601f10610a6a57610100808354040283529160200191610a95565b820191906000526020600020905b815481529060010190602001808311610a7857829003601f168201915b5050505050905090565b60008060016000610aae610eca565b73ffffffffffffffffffffffffffffffffffffffff1673ffffffffffffffffffffffffffffffffffffffff16815260200190815260200160002060008573ffffffffffffffffffffffffffffffffffffffff1673ffffffffffffffffffffffffffffffffffffffff16815260200190815260200160002054905082811015610b6b576040517f08c379a0000000000000000000000000000000000000000000000000000000008152600401610b6290611a94565b60405180910390fd5b610b7f610b76610eca565b85858403610ed2565b600191505092915050565b6000610b9e610b97610eca565b848461109d565b6001905092915050565b6040518060400160405280600381526020017f444254000000000000000000000000000000000000000000000000000000000081525081565b600560009054906101000a900473ffffffffffffffffffffffffffffffffffffffff1681565b610c11600661131e565b6040518060a00160405280610c266006611334565b81526020018261ffff1681526020018481526020016040518060400160405280600c81526020017f446f427579204d61726b6574000000000000000000000000000000000000000081525081526020018381525060076000610c886006611334565b81526020019081526020016000206000820151816000015560208201518160010160006101000a81548161ffff021916908361ffff1602179055506040820151816002019080519060200190610cdf92919061134c565b506060820151816003019080519060200190610cfc92919061134c565b506080820151816004019080519060200190610d1992919061134c565b5090505060405180606001604052804281526020016040518060400160405280601081526020017f6765756d626f6b206275696c64696e670000000000000000000000000000000081525081526020016040518060400160405280600e81526020017f53746172742044656c697665727900000000000000000000000000000000000081525081525060086000610db06006611334565b8152602001908152602001600020600082015181600001556020820151816001019080519060200190610de492919061134c565b506040820151816002019080519060200190610e0192919061134c565b50905050505050565b6000600160008473ffffffffffffffffffffffffffffffffffffffff1673ffffffffffffffffffffffffffffffffffffffff16815260200190815260200160002060008373ffffffffffffffffffffffffffffffffffffffff1673ffffffffffffffffffffffffffffffffffffffff16815260200190815260200160002054905092915050565b6040518060400160405280600a81526020017f446f427579546f6b656e0000000000000000000000000000000000000000000081525081565b600033905090565b600073ffffffffffffffffffffffffffffffffffffffff168373ffffffffffffffffffffffffffffffffffffffff161415610f42576040517f08c379a0000000000000000000000000000000000000000000000000000000008152600401610f3990611a74565b60405180910390fd5b600073ffffffffffffffffffffffffffffffffffffffff168273ffffffffffffffffffffffffffffffffffffffff161415610fb2576040517f08c379a0000000000000000000000000000000000000000000000000000000008152600401610fa9906119f4565b60405180910390fd5b80600160008573ffffffffffffffffffffffffffffffffffffffff1673ffffffffffffffffffffffffffffffffffffffff16815260200190815260200160002060008473ffffffffffffffffffffffffffffffffffffffff1673ffffffffffffffffffffffffffffffffffffffff168152602001908152602001600020819055508173ffffffffffffffffffffffffffffffffffffffff168373ffffffffffffffffffffffffffffffffffffffff167f8c5be1e5ebec7d5bd14f71427d1e84f3dd0314c0f7b2291e5b200ac8c7c3b925836040516110909190611ab4565b60405180910390a3505050565b600073ffffffffffffffffffffffffffffffffffffffff168373ffffffffffffffffffffffffffffffffffffffff16141561110d576040517f08c379a000000000000000000000000000000000000000000000000000000000815260040161110490611a54565b60405180910390fd5b600073ffffffffffffffffffffffffffffffffffffffff168273ffffffffffffffffffffffffffffffffffffffff16141561117d576040517f08c379a0000000000000000000000000000000000000000000000000000000008152600401611174906119d4565b60405180910390fd5b611188838383611342565b60008060008573ffffffffffffffffffffffffffffffffffffffff1673ffffffffffffffffffffffffffffffffffffffff1681526020019081526020016000205490508181101561120e576040517f08c379a000000000000000000000000000000000000000000000000000000000815260040161120590611a14565b60405180910390fd5b8181036000808673ffffffffffffffffffffffffffffffffffffffff1673ffffffffffffffffffffffffffffffffffffffff16815260200190815260200160002081905550816000808573ffffffffffffffffffffffffffffffffffffffff1673ffffffffffffffffffffffffffffffffffffffff16815260200190815260200160002060008282546112a19190611c14565b925050819055508273ffffffffffffffffffffffffffffffffffffffff168473ffffffffffffffffffffffffffffffffffffffff167fddf252ad1be2c89b69c2b068fc378daa952ba7f163c4a11628f55a4df523b3ef846040516113059190611ab4565b60405180910390a3611318848484611347565b50505050565b6001816000016000828254019250508190555050565b600081600001549050919050565b505050565b505050565b82805461135890611d0f565b90600052602060002090601f01602090048101928261137a57600085556113c1565b82601f1061139357805160ff19168380011785556113c1565b828001600101855582156113c1579182015b828111156113c05782518255916020019190600101906113a5565b5b5090506113ce91906113d2565b5090565b5b808211156113eb5760008160009055506001016113d3565b5090565b60006114026113fd84611bc8565b611b97565b90508281526020810184848401111561141a57600080fd5b611425848285611ccd565b509392505050565b60008135905061143c81611ddf565b92915050565b600082601f83011261145357600080fd5b81356114638482602086016113ef565b91505092915050565b60008135905061147b81611df6565b92915050565b60008135905061149081611e0d565b92915050565b6000602082840312156114a857600080fd5b60006114b68482850161142d565b91505092915050565b600080604083850312156114d257600080fd5b60006114e08582860161142d565b92505060206114f18582860161142d565b9150509250929050565b60008060006060848603121561151057600080fd5b600061151e8682870161142d565b935050602061152f8682870161142d565b925050604061154086828701611481565b9150509250925092565b6000806040838503121561155d57600080fd5b600061156b8582860161142d565b925050602061157c85828601611481565b9150509250929050565b60008060006060848603121561159b57600080fd5b600084013567ffffffffffffffff8111156115b557600080fd5b6115c186828701611442565b935050602084013567ffffffffffffffff8111156115de57600080fd5b6115ea86828701611442565b92505060406115fb8682870161146c565b9150509250925092565b60006020828403121561161757600080fd5b600061162584828501611481565b91505092915050565b61163781611c6a565b82525050565b61164681611c7c565b82525050565b600061165782611bf8565b6116618185611c03565b9350611671818560208601611cdc565b61167a81611dce565b840191505092915050565b6000611692602383611c03565b91507f45524332303a207472616e7366657220746f20746865207a65726f206164647260008301527f65737300000000000000000000000000000000000000000000000000000000006020830152604082019050919050565b60006116f8602283611c03565b91507f45524332303a20617070726f766520746f20746865207a65726f20616464726560008301527f73730000000000000000000000000000000000000000000000000000000000006020830152604082019050919050565b600061175e602683611c03565b91507f45524332303a207472616e7366657220616d6f756e742065786365656473206260008301527f616c616e636500000000000000000000000000000000000000000000000000006020830152604082019050919050565b60006117c4602883611c03565b91507f45524332303a207472616e7366657220616d6f756e742065786365656473206160008301527f6c6c6f77616e63650000000000000000000000000000000000000000000000006020830152604082019050919050565b600061182a602583611c03565b91507f45524332303a207472616e736665722066726f6d20746865207a65726f20616460008301527f64726573730000000000000000000000000000000000000000000000000000006020830152604082019050919050565b6000611890602483611c03565b91507f45524332303a20617070726f76652066726f6d20746865207a65726f2061646460008301527f72657373000000000000000000000000000000000000000000000000000000006020830152604082019050919050565b60006118f6602583611c03565b91507f45524332303a2064656372656173656420616c6c6f77616e63652062656c6f7760008301527f207a65726f0000000000000000000000000000000000000000000000000000006020830152604082019050919050565b61195881611c88565b82525050565b61196781611cb6565b82525050565b61197681611cc0565b82525050565b6000602082019050611991600083018461162e565b92915050565b60006020820190506119ac600083018461163d565b92915050565b600060208201905081810360008301526119cc818461164c565b905092915050565b600060208201905081810360008301526119ed81611685565b9050919050565b60006020820190508181036000830152611a0d816116eb565b9050919050565b60006020820190508181036000830152611a2d81611751565b9050919050565b60006020820190508181036000830152611a4d816117b7565b9050919050565b60006020820190508181036000830152611a6d8161181d565b9050919050565b60006020820190508181036000830152611a8d81611883565b9050919050565b60006020820190508181036000830152611aad816118e9565b9050919050565b6000602082019050611ac9600083018461195e565b92915050565b6000606082019050611ae4600083018661195e565b8181036020830152611af6818561164c565b90508181036040830152611b0a818461164c565b9050949350505050565b600060a082019050611b29600083018861195e565b611b36602083018761194f565b8181036040830152611b48818661164c565b90508181036060830152611b5c818561164c565b90508181036080830152611b70818461164c565b90509695505050505050565b6000602082019050611b91600083018461196d565b92915050565b6000604051905081810181811067ffffffffffffffff82111715611bbe57611bbd611d9f565b5b8060405250919050565b600067ffffffffffffffff821115611be357611be2611d9f565b5b601f19601f8301169050602081019050919050565b600081519050919050565b600082825260208201905092915050565b6000611c1f82611cb6565b9150611c2a83611cb6565b9250827fffffffffffffffffffffffffffffffffffffffffffffffffffffffffffffffff03821115611c5f57611c5e611d41565b5b828201905092915050565b6000611c7582611c96565b9050919050565b60008115159050919050565b600061ffff82169050919050565b600073ffffffffffffffffffffffffffffffffffffffff82169050919050565b6000819050919050565b600060ff82169050919050565b82818337600083830152505050565b60005b83811015611cfa578082015181840152602081019050611cdf565b83811115611d09576000848401525b50505050565b60006002820490506001821680611d2757607f821691505b60208210811415611d3b57611d3a611d70565b5b50919050565b7f4e487b7100000000000000000000000000000000000000000000000000000000600052601160045260246000fd5b7f4e487b7100000000000000000000000000000000000000000000000000000000600052602260045260246000fd5b7f4e487b7100000000000000000000000000000000000000000000000000000000600052604160045260246000fd5b6000601f19601f8301169050919050565b611de881611c6a565b8114611df357600080fd5b50565b611dff81611c88565b8114611e0a57600080fd5b50565b611e1681611cb6565b8114611e2157600080fd5b5056fea26469706673582212209a1a924cf77172f12020a1885239f2ce1e8f5f9abd49f4e3ddc11218f2fcc55564736f6c63430008000033",
  "immutableReferences": {},
  "source": "// SPDX-License-Identifier: MIT\r\npragma solidity >=0.4.22 <0.9.0;\r\n\r\nimport \"@openzeppelin/contracts/token/ERC20/ERC20.sol\";\r\nimport \"@openzeppelin/contracts/utils/Counters.sol\";\r\n\r\ncontract DoBuyToken is ERC20 {\r\n    using Counters for Counters.Counter;\r\n\r\n    /// @notice  \r\n    string public constant _token = \"DoBuyToken\";\r\n\r\n    /// @notice  \r\n    string public constant _symbol = \"DBT\";\r\n\r\n    /// @notice \r\n    uint8 public constant _decimals = 18;\r\n\r\n    /// @notice   \r\n    uint256 public constant INITIAL_SUPPLY = 100000000;\r\n    \r\n    /// @notice  \r\n    address public user_wallet = payable(msg.sender);\r\n\r\n    /// @notice \r\n    Counters.Counter public _trackingIds;\r\n\r\n    /// @dev  \r\n    struct deliveryBill {\r\n        uint256 _Ids;   //  - counter\r\n        uint16 amount;\r\n        string name;\r\n        string sender;\r\n        string receiver;\r\n    }\r\n\r\n    /// @dev  \r\n    /// :  / : , , , Hub   / :  \r\n    struct deliveryTracking {\r\n        uint256 timestamp;\r\n        string location;    \r\n        string status;  // , , \r\n    }\r\n\r\n    //  \r\n    mapping (uint256 => deliveryBill) public billArray;\r\n\r\n    //   : trackingId  \r\n    mapping (uint256 => deliveryTracking) public trackingArray;\r\n\r\n    constructor() ERC20(\"DoBuyToken\", \"DBT\") {\r\n        address owners = msg.sender;\r\n        _mint(owners, INITIAL_SUPPLY * 10 ** (uint(decimals())));\r\n    }\r\n    \r\n    /**\r\n    * @dev   .  ,  ,   .\r\n    * @param _name \r\n    * @param _receiver  \r\n    * @param _amount \r\n     */\r\n    function deliveryStart(string memory _name, string memory _receiver, uint16 _amount) public {\r\n        _trackingIds.increment();\r\n        billArray[_trackingIds.current()] = \r\n            deliveryBill(_trackingIds.current(), _amount, _name, \"DoBuy Market\", _receiver);\r\n        trackingArray[_trackingIds.current()] = \r\n            deliveryTracking(block.timestamp, \"geumbok building\", \"Start Delivery\");\r\n    }\r\n}",
  "sourcePath": "C:/Users/redqo/Desktop/DoBuy_project/contracts/DoBuyToken.sol",
  "compiler": {
    "name": "solc",
    "version": "0.8.0+commit.c7dfd78e.Emscripten.clang"
  },
  "schemaVersion": "3.4.1",
  "updatedAt": "2021-08-20T08:26:53.879Z",
  "networkType": "ethereum",
  "devdoc": {
    "kind": "dev",
    "methods": {
      "allowance(address,address)": {
        "details": "See {IERC20-allowance}."
      },
      "approve(address,uint256)": {
        "details": "See {IERC20-approve}. Requirements: - `spender` cannot be the zero address."
      },
      "balanceOf(address)": {
        "details": "See {IERC20-balanceOf}."
      },
      "decimals()": {
        "details": "Returns the number of decimals used to get its user representation. For example, if `decimals` equals `2`, a balance of `505` tokens should be displayed to a user as `5.05` (`505 / 10 ** 2`). Tokens usually opt for a value of 18, imitating the relationship between Ether and Wei. This is the value {ERC20} uses, unless this function is overridden; NOTE: This information is only used for _display_ purposes: it in no way affects any of the arithmetic of the contract, including {IERC20-balanceOf} and {IERC20-transfer}."
      },
      "decreaseAllowance(address,uint256)": {
        "details": "Atomically decreases the allowance granted to `spender` by the caller. This is an alternative to {approve} that can be used as a mitigation for problems described in {IERC20-approve}. Emits an {Approval} event indicating the updated allowance. Requirements: - `spender` cannot be the zero address. - `spender` must have allowance for the caller of at least `subtractedValue`."
      },
      "deliveryStart(string,string,uint16)": {
        "details": "  .  ,  ,   .",
        "params": {
          "_amount": "",
          "_name": "",
          "_receiver": " "
        }
      },
      "increaseAllowance(address,uint256)": {
        "details": "Atomically increases the allowance granted to `spender` by the caller. This is an alternative to {approve} that can be used as a mitigation for problems described in {IERC20-approve}. Emits an {Approval} event indicating the updated allowance. Requirements: - `spender` cannot be the zero address."
      },
      "name()": {
        "details": "Returns the name of the token."
      },
      "symbol()": {
        "details": "Returns the symbol of the token, usually a shorter version of the name."
      },
      "totalSupply()": {
        "details": "See {IERC20-totalSupply}."
      },
      "transfer(address,uint256)": {
        "details": "See {IERC20-transfer}. Requirements: - `recipient` cannot be the zero address. - the caller must have a balance of at least `amount`."
      },
      "transferFrom(address,address,uint256)": {
        "details": "See {IERC20-transferFrom}. Emits an {Approval} event indicating the updated allowance. This is not required by the EIP. See the note at the beginning of {ERC20}. Requirements: - `sender` and `recipient` cannot be the zero address. - `sender` must have a balance of at least `amount`. - the caller must have allowance for ``sender``'s tokens of at least `amount`."
      }
    },
    "version": 1
  },
  "userdoc": {
    "kind": "user",
    "methods": {
      "INITIAL_SUPPLY()": {
        "notice": "  "
      },
      "_decimals()": {
        "notice": ""
      },
      "_symbol()": {
        "notice": " "
      },
      "_token()": {
        "notice": " "
      },
      "_trackingIds()": {
        "notice": ""
      },
      "user_wallet()": {
        "notice": " "
      }
    },
    "version": 1
  }
}