{
  "contractName": "DoBuyToken",
  "abi": [
    {
      "inputs": [],
      "stateMutability": "nonpayable",
      "type": "constructor"
    },
    {
      "anonymous": false,
      "inputs": [
        {
          "indexed": true,
          "internalType": "address",
          "name": "owner",
          "type": "address"
        },
        {
          "indexed": true,
          "internalType": "address",
          "name": "spender",
          "type": "address"
        },
        {
          "indexed": false,
          "internalType": "uint256",
          "name": "value",
          "type": "uint256"
        }
      ],
      "name": "Approval",
      "type": "event"
    },
    {
      "anonymous": false,
      "inputs": [
        {
          "indexed": true,
          "internalType": "address",
          "name": "from",
          "type": "address"
        },
        {
          "indexed": true,
          "internalType": "address",
          "name": "to",
          "type": "address"
        },
        {
          "indexed": false,
          "internalType": "uint256",
          "name": "value",
          "type": "uint256"
        }
      ],
      "name": "Transfer",
      "type": "event"
    },
    {
      "inputs": [],
      "name": "INITIAL_SUPPLY",
      "outputs": [
        {
          "internalType": "uint256",
          "name": "",
          "type": "uint256"
        }
      ],
      "stateMutability": "view",
      "type": "function",
      "constant": true
    },
    {
      "inputs": [
        {
          "internalType": "uint256",
          "name": "",
          "type": "uint256"
        }
      ],
      "name": "_billArray",
      "outputs": [
        {
          "internalType": "uint256",
          "name": "_Ids",
          "type": "uint256"
        },
        {
          "internalType": "uint16",
          "name": "amount",
          "type": "uint16"
        },
        {
          "internalType": "string",
          "name": "name",
          "type": "string"
        },
        {
          "internalType": "string",
          "name": "sender",
          "type": "string"
        },
        {
          "internalType": "string",
          "name": "receiver",
          "type": "string"
        },
        {
          "internalType": "string",
          "name": "destination",
          "type": "string"
        }
      ],
      "stateMutability": "view",
      "type": "function",
      "constant": true
    },
    {
      "inputs": [
        {
          "internalType": "uint256",
          "name": "",
          "type": "uint256"
        }
      ],
      "name": "_billToOwner",
      "outputs": [
        {
          "internalType": "address",
          "name": "",
          "type": "address"
        }
      ],
      "stateMutability": "view",
      "type": "function",
      "constant": true
    },
    {
      "inputs": [],
      "name": "_decimals",
      "outputs": [
        {
          "internalType": "uint8",
          "name": "",
          "type": "uint8"
        }
      ],
      "stateMutability": "view",
      "type": "function",
      "constant": true
    },
    {
      "inputs": [],
      "name": "_symbol",
      "outputs": [
        {
          "internalType": "string",
          "name": "",
          "type": "string"
        }
      ],
      "stateMutability": "view",
      "type": "function",
      "constant": true
    },
    {
      "inputs": [],
      "name": "_token",
      "outputs": [
        {
          "internalType": "string",
          "name": "",
          "type": "string"
        }
      ],
      "stateMutability": "view",
      "type": "function",
      "constant": true
    },
    {
      "inputs": [
        {
          "internalType": "uint256",
          "name": "",
          "type": "uint256"
        },
        {
          "internalType": "uint256",
          "name": "",
          "type": "uint256"
        }
      ],
      "name": "_trackingArray",
      "outputs": [
        {
          "internalType": "uint256",
          "name": "timestamp",
          "type": "uint256"
        },
        {
          "internalType": "string",
          "name": "location",
          "type": "string"
        },
        {
          "internalType": "string",
          "name": "status",
          "type": "string"
        }
      ],
      "stateMutability": "view",
      "type": "function",
      "constant": true
    },
    {
      "inputs": [],
      "name": "_trackingIds",
      "outputs": [
        {
          "internalType": "uint256",
          "name": "",
          "type": "uint256"
        }
      ],
      "stateMutability": "view",
      "type": "function",
      "constant": true
    },
    {
      "inputs": [
        {
          "internalType": "address",
          "name": "owner",
          "type": "address"
        },
        {
          "internalType": "address",
          "name": "spender",
          "type": "address"
        }
      ],
      "name": "allowance",
      "outputs": [
        {
          "internalType": "uint256",
          "name": "",
          "type": "uint256"
        }
      ],
      "stateMutability": "view",
      "type": "function",
      "constant": true
    },
    {
      "inputs": [
        {
          "internalType": "address",
          "name": "spender",
          "type": "address"
        },
        {
          "internalType": "uint256",
          "name": "amount",
          "type": "uint256"
        }
      ],
      "name": "approve",
      "outputs": [
        {
          "internalType": "bool",
          "name": "",
          "type": "bool"
        }
      ],
      "stateMutability": "nonpayable",
      "type": "function"
    },
    {
      "inputs": [
        {
          "internalType": "address",
          "name": "account",
          "type": "address"
        }
      ],
      "name": "balanceOf",
      "outputs": [
        {
          "internalType": "uint256",
          "name": "",
          "type": "uint256"
        }
      ],
      "stateMutability": "view",
      "type": "function",
      "constant": true
    },
    {
      "inputs": [],
      "name": "decimals",
      "outputs": [
        {
          "internalType": "uint8",
          "name": "",
          "type": "uint8"
        }
      ],
      "stateMutability": "view",
      "type": "function",
      "constant": true
    },
    {
      "inputs": [
        {
          "internalType": "address",
          "name": "spender",
          "type": "address"
        },
        {
          "internalType": "uint256",
          "name": "subtractedValue",
          "type": "uint256"
        }
      ],
      "name": "decreaseAllowance",
      "outputs": [
        {
          "internalType": "bool",
          "name": "",
          "type": "bool"
        }
      ],
      "stateMutability": "nonpayable",
      "type": "function"
    },
    {
      "inputs": [
        {
          "internalType": "address",
          "name": "spender",
          "type": "address"
        },
        {
          "internalType": "uint256",
          "name": "addedValue",
          "type": "uint256"
        }
      ],
      "name": "increaseAllowance",
      "outputs": [
        {
          "internalType": "bool",
          "name": "",
          "type": "bool"
        }
      ],
      "stateMutability": "nonpayable",
      "type": "function"
    },
    {
      "inputs": [
        {
          "internalType": "uint256",
          "name": "",
          "type": "uint256"
        }
      ],
      "name": "location",
      "outputs": [
        {
          "internalType": "string",
          "name": "",
          "type": "string"
        }
      ],
      "stateMutability": "view",
      "type": "function",
      "constant": true
    },
    {
      "inputs": [],
      "name": "name",
      "outputs": [
        {
          "internalType": "string",
          "name": "",
          "type": "string"
        }
      ],
      "stateMutability": "view",
      "type": "function",
      "constant": true
    },
    {
      "inputs": [],
      "name": "now_wallet",
      "outputs": [
        {
          "internalType": "address",
          "name": "",
          "type": "address"
        }
      ],
      "stateMutability": "view",
      "type": "function",
      "constant": true
    },
    {
      "inputs": [],
      "name": "owners",
      "outputs": [
        {
          "internalType": "address",
          "name": "",
          "type": "address"
        }
      ],
      "stateMutability": "view",
      "type": "function",
      "constant": true
    },
    {
      "inputs": [],
      "name": "symbol",
      "outputs": [
        {
          "internalType": "string",
          "name": "",
          "type": "string"
        }
      ],
      "stateMutability": "view",
      "type": "function",
      "constant": true
    },
    {
      "inputs": [],
      "name": "totalSupply",
      "outputs": [
        {
          "internalType": "uint256",
          "name": "",
          "type": "uint256"
        }
      ],
      "stateMutability": "view",
      "type": "function",
      "constant": true
    },
    {
      "inputs": [
        {
          "internalType": "address",
          "name": "recipient",
          "type": "address"
        },
        {
          "internalType": "uint256",
          "name": "amount",
          "type": "uint256"
        }
      ],
      "name": "transfer",
      "outputs": [
        {
          "internalType": "bool",
          "name": "",
          "type": "bool"
        }
      ],
      "stateMutability": "nonpayable",
      "type": "function"
    },
    {
      "inputs": [
        {
          "internalType": "address",
          "name": "sender",
          "type": "address"
        },
        {
          "internalType": "address",
          "name": "recipient",
          "type": "address"
        },
        {
          "internalType": "uint256",
          "name": "amount",
          "type": "uint256"
        }
      ],
      "name": "transferFrom",
      "outputs": [
        {
          "internalType": "bool",
          "name": "",
          "type": "bool"
        }
      ],
      "stateMutability": "nonpayable",
      "type": "function"
    },
    {
      "inputs": [],
      "name": "user_wallet",
      "outputs": [
        {
          "internalType": "address",
          "name": "",
          "type": "address"
        }
      ],
      "stateMutability": "view",
      "type": "function",
      "constant": true
    },
    {
      "inputs": [
        {
          "internalType": "address",
          "name": "_buyer",
          "type": "address"
        },
        {
          "internalType": "uint256",
          "name": "_tokenAmount",
          "type": "uint256"
        }
      ],
      "name": "buyingToken",
      "outputs": [],
      "stateMutability": "nonpayable",
      "type": "function"
    },
    {
      "inputs": [
        {
          "internalType": "string",
          "name": "_name",
          "type": "string"
        },
        {
          "internalType": "string",
          "name": "_receiver",
          "type": "string"
        },
        {
          "internalType": "uint16",
          "name": "_amount",
          "type": "uint16"
        },
        {
          "internalType": "string",
          "name": "_dest",
          "type": "string"
        }
      ],
      "name": "deliveryStart",
      "outputs": [
        {
          "internalType": "uint256",
          "name": "",
          "type": "uint256"
        }
      ],
      "stateMutability": "nonpayable",
      "type": "function"
    },
    {
      "inputs": [
        {
          "internalType": "uint256",
          "name": "_amounts",
          "type": "uint256"
        }
      ],
      "name": "getOwnerToken",
      "outputs": [],
      "stateMutability": "payable",
      "type": "function",
      "payable": true
    }
  ],
  "bytecode": "0x608060405233600560006101000a81548173ffffffffffffffffffffffffffffffffffffffff021916908373ffffffffffffffffffffffffffffffffffffffff16021790555033600760006101000a81548173ffffffffffffffffffffffffffffffffffffffff021916908373ffffffffffffffffffffffffffffffffffffffff16021790555060405180608001604052806040518060400160405280600581526020017f47696d706f00000000000000000000000000000000000000000000000000000081525081526020016040518060400160405280600781526020017f476f6e6a69616d0000000000000000000000000000000000000000000000000081525081526020016040518060400160405280600681526020017f496368656f6e000000000000000000000000000000000000000000000000000081525081526020016040518060400160405280600781526020017f4777616e676a750000000000000000000000000000000000000000000000000081525081525060099060046200018d9291906200045a565b503480156200019b57600080fd5b506040518060400160405280600a81526020017f446f427579546f6b656e000000000000000000000000000000000000000000008152506040518060400160405280600381526020017f4442540000000000000000000000000000000000000000000000000000000000815250816003908051906020019062000220929190620004b4565b50806004908051906020019062000239929190620004b4565b50505033600660006101000a81548173ffffffffffffffffffffffffffffffffffffffff021916908373ffffffffffffffffffffffffffffffffffffffff160217905550620002d1600660009054906101000a900473ffffffffffffffffffffffffffffffffffffffff166012600a620002b491906200072d565b6305f5e100620002c591906200086a565b620002d760201b60201c565b62000983565b600073ffffffffffffffffffffffffffffffffffffffff168273ffffffffffffffffffffffffffffffffffffffff1614156200034a576040517f08c379a0000000000000000000000000000000000000000000000000000000008152600401620003419062000625565b60405180910390fd5b6200035e600083836200045060201b60201c565b806002600082825462000372919062000675565b92505081905550806000808473ffffffffffffffffffffffffffffffffffffffff1673ffffffffffffffffffffffffffffffffffffffff1681526020019081526020016000206000828254620003c9919062000675565b925050819055508173ffffffffffffffffffffffffffffffffffffffff16600073ffffffffffffffffffffffffffffffffffffffff167fddf252ad1be2c89b69c2b068fc378daa952ba7f163c4a11628f55a4df523b3ef8360405162000430919062000647565b60405180910390a36200044c600083836200045560201b60201c565b5050565b505050565b505050565b8260048101928215620004a1579160200282015b82811115620004a05782518290805190602001906200048f929190620004b4565b50916020019190600101906200046e565b5b509050620004b0919062000545565b5090565b828054620004c290620008e2565b90600052602060002090601f016020900481019282620004e6576000855562000532565b82601f106200050157805160ff191683800117855562000532565b8280016001018555821562000532579182015b828111156200053157825182559160200191906001019062000514565b5b5090506200054191906200056d565b5090565b5b808211156200056957600081816200055f91906200058c565b5060010162000546565b5090565b5b80821115620005885760008160009055506001016200056e565b5090565b5080546200059a90620008e2565b6000825580601f10620005ae5750620005cf565b601f016020900490600052602060002090810190620005ce91906200056d565b5b50565b6000620005e1601f8362000664565b91507f45524332303a206d696e7420746f20746865207a65726f2061646472657373006000830152602082019050919050565b6200061f81620008cb565b82525050565b600060208201905081810360008301526200064081620005d2565b9050919050565b60006020820190506200065e600083018462000614565b92915050565b600082825260208201905092915050565b60006200068282620008cb565b91506200068f83620008cb565b9250827fffffffffffffffffffffffffffffffffffffffffffffffffffffffffffffffff03821115620006c757620006c662000918565b5b828201905092915050565b6000808291508390505b60018511156200072457808604811115620006fc57620006fb62000918565b5b60018516156200070c5780820291505b80810290506200071c8562000976565b9450620006dc565b94509492505050565b60006200073a82620008cb565b91506200074783620008d5565b9250620007767fffffffffffffffffffffffffffffffffffffffffffffffffffffffffffffffff84846200077e565b905092915050565b60008262000790576001905062000863565b81620007a0576000905062000863565b8160018114620007b95760028114620007c457620007fa565b600191505062000863565b60ff841115620007d957620007d862000918565b5b8360020a915084821115620007f357620007f262000918565b5b5062000863565b5060208310610133831016604e8410600b8410161715620008345782820a9050838111156200082e576200082d62000918565b5b62000863565b620008438484846001620006d2565b925090508184048111156200085d576200085c62000918565b5b81810290505b9392505050565b60006200087782620008cb565b91506200088483620008cb565b9250817fffffffffffffffffffffffffffffffffffffffffffffffffffffffffffffffff0483118215151615620008c057620008bf62000918565b5b828202905092915050565b6000819050919050565b600060ff82169050919050565b60006002820490506001821680620008fb57607f821691505b6020821081141562000912576200091162000947565b5b50919050565b7f4e487b7100000000000000000000000000000000000000000000000000000000600052601160045260246000fd5b7f4e487b7100000000000000000000000000000000000000000000000000000000600052602260045260246000fd5b60008160011c9050919050565b612bc280620009936000396000f3fe6080604052600436106101815760003560e01c806395d89b41116100d1578063c0efbd2a1161008a578063dd62ed3e11610064578063dd62ed3e146105e0578063dd77bd8d1461061d578063ecd0c0c31461065c578063ef2059af1461068757610181565b8063c0efbd2a14610536578063c9990aa614610561578063cce6bcb71461059e57610181565b806395d89b411461041f578063a457c2d71461044a578063a543a71714610487578063a9059cbb146104a3578063affe39c1146104e0578063b09f12661461050b57610181565b8063313ce5671161013e5780633a4dd984116101185780633a4dd9841461033f57806370a082311461037c5780638128114d146103b957806390f8b7e3146103f657610181565b8063313ce567146102ac57806332424aa3146102d7578063395093511461030257610181565b806306fdde0314610186578063095ea7b3146101b157806318160ddd146101ee57806323b872dd146102195780632dd9cecd146102565780632ff2e9dc14610281575b600080fd5b34801561019257600080fd5b5061019b6106b2565b6040516101a89190612453565b60405180910390f35b3480156101bd57600080fd5b506101d860048036038101906101d39190611f51565b610744565b6040516101e59190612438565b60405180910390f35b3480156101fa57600080fd5b50610203610762565b6040516102109190612555565b60405180910390f35b34801561022557600080fd5b50610240600480360381019061023b9190611f02565b61076c565b60405161024d9190612438565b60405180910390f35b34801561026257600080fd5b5061026b610864565b6040516102789190612555565b60405180910390f35b34801561028d57600080fd5b5061029661086a565b6040516102a39190612555565b60405180910390f35b3480156102b857600080fd5b506102c1610872565b6040516102ce9190612632565b60405180910390f35b3480156102e357600080fd5b506102ec61087b565b6040516102f99190612632565b60405180910390f35b34801561030e57600080fd5b5061032960048036038101906103249190611f51565b610880565b6040516103369190612438565b60405180910390f35b34801561034b57600080fd5b5061036660048036038101906103619190612038565b61092c565b604051610373919061241d565b60405180910390f35b34801561038857600080fd5b506103a3600480360381019061039e9190611e9d565b61095f565b6040516103b09190612555565b60405180910390f35b3480156103c557600080fd5b506103e060048036038101906103db9190611f8d565b6109a7565b6040516103ed9190612555565b60405180910390f35b34801561040257600080fd5b5061041d60048036038101906104189190611f51565b6110c7565b005b34801561042b57600080fd5b5061043461111f565b6040516104419190612453565b60405180910390f35b34801561045657600080fd5b50610471600480360381019061046c9190611f51565b6111b1565b60405161047e9190612438565b60405180910390f35b6104a1600480360381019061049c9190612038565b61129c565b005b3480156104af57600080fd5b506104ca60048036038101906104c59190611f51565b611308565b6040516104d79190612438565b60405180910390f35b3480156104ec57600080fd5b506104f5611326565b604051610502919061241d565b60405180910390f35b34801561051757600080fd5b5061052061134c565b60405161052d9190612453565b60405180910390f35b34801561054257600080fd5b5061054b611385565b604051610558919061241d565b60405180910390f35b34801561056d57600080fd5b5061058860048036038101906105839190612038565b6113ab565b6040516105959190612453565b60405180910390f35b3480156105aa57600080fd5b506105c560048036038101906105c09190612038565b61144e565b6040516105d7969594939291906125b5565b60405180910390f35b3480156105ec57600080fd5b5061060760048036038101906106029190611ec6565b6116b8565b6040516106149190612555565b60405180910390f35b34801561062957600080fd5b50610644600480360381019061063f9190612061565b61173f565b60405161065393929190612570565b60405180910390f35b34801561066857600080fd5b50610671611896565b60405161067e9190612453565b60405180910390f35b34801561069357600080fd5b5061069c6118cf565b6040516106a9919061241d565b60405180910390f35b6060600380546106c190612990565b80601f01602080910402602001604051908101604052809291908181526020018280546106ed90612990565b801561073a5780601f1061070f5761010080835404028352916020019161073a565b820191906000526020600020905b81548152906001019060200180831161071d57829003601f168201915b5050505050905090565b60006107586107516118f5565b84846118fd565b6001905092915050565b6000600254905090565b6000610779848484611ac8565b6000600160008673ffffffffffffffffffffffffffffffffffffffff1673ffffffffffffffffffffffffffffffffffffffff16815260200190815260200160002060006107c46118f5565b73ffffffffffffffffffffffffffffffffffffffff1673ffffffffffffffffffffffffffffffffffffffff16815260200190815260200160002054905082811015610844576040517f08c379a000000000000000000000000000000000000000000000000000000000815260040161083b906124d5565b60405180910390fd5b610858856108506118f5565b8584036118fd565b60019150509392505050565b60085481565b6305f5e10081565b60006012905090565b601281565b600061092261088d6118f5565b84846001600061089b6118f5565b73ffffffffffffffffffffffffffffffffffffffff1673ffffffffffffffffffffffffffffffffffffffff16815260200190815260200160002060008873ffffffffffffffffffffffffffffffffffffffff1673ffffffffffffffffffffffffffffffffffffffff1681526020019081526020016000205461091d91906126ca565b6118fd565b6001905092915050565b600e6020528060005260406000206000915054906101000a900473ffffffffffffffffffffffffffffffffffffffff1681565b60008060008373ffffffffffffffffffffffffffffffffffffffff1673ffffffffffffffffffffffffffffffffffffffff168152602001908152602001600020549050919050565b6000806004336040516020016109bd9190612402565b6040516020818303038152906040528051906020012060001c6109e09190612a2f565b9050600860008154809291906109f5906129c2565b91905055506040518060c0016040528060085481526020018561ffff1681526020018781526020016040518060400160405280600c81526020017f446f427579204d61726b65740000000000000000000000000000000000000000815250815260200186815260200184815250600d600060085481526020019081526020016000206000820151816000015560208201518160010160006101000a81548161ffff021916908361ffff1602179055506040820151816002019080519060200190610ac0929190611d53565b506060820151816003019080519060200190610add929190611d53565b506080820151816004019080519060200190610afa929190611d53565b5060a0820151816005019080519060200190610b17929190611d53565b5090505033600e6000600854815260200190815260200160002060006101000a81548173ffffffffffffffffffffffffffffffffffffffff021916908373ffffffffffffffffffffffffffffffffffffffff160217905550600f6000600854815260200190815260200160002060405180606001604052804281526020016040518060400160405280601081526020017f6765756d626f6b206275696c64696e670000000000000000000000000000000081525081526020016040518060400160405280600e81526020017f53746172742044656c69766572790000000000000000000000000000000000008152508152509080600181540180825580915050600190039060005260206000209060030201600090919091909150600082015181600001556020820151816001019080519060200190610c58929190611d53565b506040820151816002019080519060200190610c75929190611d53565b505050600f60006008548152602001908152602001600020604051806060016040528061012c42610ca691906126ca565b815260200160098460048110610ce5577f4e487b7100000000000000000000000000000000000000000000000000000000600052603260045260246000fd5b018054610cf190612990565b80601f0160208091040260200160405190810160405280929190818152602001828054610d1d90612990565b8015610d6a5780601f10610d3f57610100808354040283529160200191610d6a565b820191906000526020600020905b815481529060010190602001808311610d4d57829003601f168201915b505050505081526020016040518060400160405280600a81526020017f44656c69766572696e67000000000000000000000000000000000000000000008152508152509080600181540180825580915050600190039060005260206000209060030201600090919091909150600082015181600001556020820151816001019080519060200190610dfc929190611d53565b506040820151816002019080519060200190610e19929190611d53565b505050600f60006008548152602001908152602001600020604051806060016040528061025842610e4a91906126ca565b815260200160096004600186610e6091906126ca565b610e6a9190612a2f565b60048110610ea1577f4e487b7100000000000000000000000000000000000000000000000000000000600052603260045260246000fd5b018054610ead90612990565b80601f0160208091040260200160405190810160405280929190818152602001828054610ed990612990565b8015610f265780601f10610efb57610100808354040283529160200191610f26565b820191906000526020600020905b815481529060010190602001808311610f0957829003601f168201915b505050505081526020016040518060400160405280600a81526020017f44656c69766572696e67000000000000000000000000000000000000000000008152508152509080600181540180825580915050600190039060005260206000209060030201600090919091909150600082015181600001556020820151816001019080519060200190610fb8929190611d53565b506040820151816002019080519060200190610fd5929190611d53565b505050600f6000600854815260200190815260200160002060405180606001604052806103844261100691906126ca565b81526020018581526020016040518060400160405280601281526020017f44656c697665727920436f6d706c6574656400000000000000000000000000008152508152509080600181540180825580915050600190039060005260206000209060030201600090919091909150600082015181600001556020820151816001019080519060200190611099929190611d53565b5060408201518160020190805190602001906110b6929190611d53565b505050600854915050949350505050565b60006110d1610872565b60ff16600a6110e09190612773565b826110eb9190612891565b905061111a600660009054906101000a900473ffffffffffffffffffffffffffffffffffffffff168483611ac8565b505050565b60606004805461112e90612990565b80601f016020809104026020016040519081016040528092919081815260200182805461115a90612990565b80156111a75780601f1061117c576101008083540402835291602001916111a7565b820191906000526020600020905b81548152906001019060200180831161118a57829003601f168201915b5050505050905090565b600080600160006111c06118f5565b73ffffffffffffffffffffffffffffffffffffffff1673ffffffffffffffffffffffffffffffffffffffff16815260200190815260200160002060008573ffffffffffffffffffffffffffffffffffffffff1673ffffffffffffffffffffffffffffffffffffffff1681526020019081526020016000205490508281101561127d576040517f08c379a000000000000000000000000000000000000000000000000000000000815260040161127490612535565b60405180910390fd5b6112916112886118f5565b858584036118fd565b600191505092915050565b60006112a6610872565b60ff16600a6112b59190612773565b826112c09190612891565b9050806112cc3361095f565b10156112d757600080fd5b611303600660009054906101000a900473ffffffffffffffffffffffffffffffffffffffff1682611308565b505050565b600061131c6113156118f5565b8484611ac8565b6001905092915050565b600660009054906101000a900473ffffffffffffffffffffffffffffffffffffffff1681565b6040518060400160405280600381526020017f444254000000000000000000000000000000000000000000000000000000000081525081565b600760009054906101000a900473ffffffffffffffffffffffffffffffffffffffff1681565b600981600481106113bb57600080fd5b0160009150905080546113cd90612990565b80601f01602080910402602001604051908101604052809291908181526020018280546113f990612990565b80156114465780601f1061141b57610100808354040283529160200191611446565b820191906000526020600020905b81548152906001019060200180831161142957829003601f168201915b505050505081565b600d6020528060005260406000206000915090508060000154908060010160009054906101000a900461ffff169080600201805461148b90612990565b80601f01602080910402602001604051908101604052809291908181526020018280546114b790612990565b80156115045780601f106114d957610100808354040283529160200191611504565b820191906000526020600020905b8154815290600101906020018083116114e757829003601f168201915b50505050509080600301805461151990612990565b80601f016020809104026020016040519081016040528092919081815260200182805461154590612990565b80156115925780601f1061156757610100808354040283529160200191611592565b820191906000526020600020905b81548152906001019060200180831161157557829003601f168201915b5050505050908060040180546115a790612990565b80601f01602080910402602001604051908101604052809291908181526020018280546115d390612990565b80156116205780601f106115f557610100808354040283529160200191611620565b820191906000526020600020905b81548152906001019060200180831161160357829003601f168201915b50505050509080600501805461163590612990565b80601f016020809104026020016040519081016040528092919081815260200182805461166190612990565b80156116ae5780601f10611683576101008083540402835291602001916116ae565b820191906000526020600020905b81548152906001019060200180831161169157829003601f168201915b5050505050905086565b6000600160008473ffffffffffffffffffffffffffffffffffffffff1673ffffffffffffffffffffffffffffffffffffffff16815260200190815260200160002060008373ffffffffffffffffffffffffffffffffffffffff1673ffffffffffffffffffffffffffffffffffffffff16815260200190815260200160002054905092915050565b600f602052816000526040600020818154811061175b57600080fd5b90600052602060002090600302016000915091505080600001549080600101805461178590612990565b80601f01602080910402602001604051908101604052809291908181526020018280546117b190612990565b80156117fe5780601f106117d3576101008083540402835291602001916117fe565b820191906000526020600020905b8154815290600101906020018083116117e157829003601f168201915b50505050509080600201805461181390612990565b80601f016020809104026020016040519081016040528092919081815260200182805461183f90612990565b801561188c5780601f106118615761010080835404028352916020019161188c565b820191906000526020600020905b81548152906001019060200180831161186f57829003601f168201915b5050505050905083565b6040518060400160405280600a81526020017f446f427579546f6b656e0000000000000000000000000000000000000000000081525081565b600560009054906101000a900473ffffffffffffffffffffffffffffffffffffffff1681565b600033905090565b600073ffffffffffffffffffffffffffffffffffffffff168373ffffffffffffffffffffffffffffffffffffffff16141561196d576040517f08c379a000000000000000000000000000000000000000000000000000000000815260040161196490612515565b60405180910390fd5b600073ffffffffffffffffffffffffffffffffffffffff168273ffffffffffffffffffffffffffffffffffffffff1614156119dd576040517f08c379a00000000000000000000000000000000000000000000000000000000081526004016119d490612495565b60405180910390fd5b80600160008573ffffffffffffffffffffffffffffffffffffffff1673ffffffffffffffffffffffffffffffffffffffff16815260200190815260200160002060008473ffffffffffffffffffffffffffffffffffffffff1673ffffffffffffffffffffffffffffffffffffffff168152602001908152602001600020819055508173ffffffffffffffffffffffffffffffffffffffff168373ffffffffffffffffffffffffffffffffffffffff167f8c5be1e5ebec7d5bd14f71427d1e84f3dd0314c0f7b2291e5b200ac8c7c3b92583604051611abb9190612555565b60405180910390a3505050565b600073ffffffffffffffffffffffffffffffffffffffff168373ffffffffffffffffffffffffffffffffffffffff161415611b38576040517f08c379a0000000000000000000000000000000000000000000000000000000008152600401611b2f906124f5565b60405180910390fd5b600073ffffffffffffffffffffffffffffffffffffffff168273ffffffffffffffffffffffffffffffffffffffff161415611ba8576040517f08c379a0000000000000000000000000000000000000000000000000000000008152600401611b9f90612475565b60405180910390fd5b611bb3838383611d49565b60008060008573ffffffffffffffffffffffffffffffffffffffff1673ffffffffffffffffffffffffffffffffffffffff16815260200190815260200160002054905081811015611c39576040517f08c379a0000000000000000000000000000000000000000000000000000000008152600401611c30906124b5565b60405180910390fd5b8181036000808673ffffffffffffffffffffffffffffffffffffffff1673ffffffffffffffffffffffffffffffffffffffff16815260200190815260200160002081905550816000808573ffffffffffffffffffffffffffffffffffffffff1673ffffffffffffffffffffffffffffffffffffffff1681526020019081526020016000206000828254611ccc91906126ca565b925050819055508273ffffffffffffffffffffffffffffffffffffffff168473ffffffffffffffffffffffffffffffffffffffff167fddf252ad1be2c89b69c2b068fc378daa952ba7f163c4a11628f55a4df523b3ef84604051611d309190612555565b60405180910390a3611d43848484611d4e565b50505050565b505050565b505050565b828054611d5f90612990565b90600052602060002090601f016020900481019282611d815760008555611dc8565b82601f10611d9a57805160ff1916838001178555611dc8565b82800160010185558215611dc8579182015b82811115611dc7578251825591602001919060010190611dac565b5b509050611dd59190611dd9565b5090565b5b80821115611df2576000816000905550600101611dda565b5090565b6000611e09611e048461267e565b61264d565b905082815260208101848484011115611e2157600080fd5b611e2c84828561294e565b509392505050565b600081359050611e4381612b47565b92915050565b600082601f830112611e5a57600080fd5b8135611e6a848260208601611df6565b91505092915050565b600081359050611e8281612b5e565b92915050565b600081359050611e9781612b75565b92915050565b600060208284031215611eaf57600080fd5b6000611ebd84828501611e34565b91505092915050565b60008060408385031215611ed957600080fd5b6000611ee785828601611e34565b9250506020611ef885828601611e34565b9150509250929050565b600080600060608486031215611f1757600080fd5b6000611f2586828701611e34565b9350506020611f3686828701611e34565b9250506040611f4786828701611e88565b9150509250925092565b60008060408385031215611f6457600080fd5b6000611f7285828601611e34565b9250506020611f8385828601611e88565b9150509250929050565b60008060008060808587031215611fa357600080fd5b600085013567ffffffffffffffff811115611fbd57600080fd5b611fc987828801611e49565b945050602085013567ffffffffffffffff811115611fe657600080fd5b611ff287828801611e49565b935050604061200387828801611e73565b925050606085013567ffffffffffffffff81111561202057600080fd5b61202c87828801611e49565b91505092959194509250565b60006020828403121561204a57600080fd5b600061205884828501611e88565b91505092915050565b6000806040838503121561207457600080fd5b600061208285828601611e88565b925050602061209385828601611e88565b9150509250929050565b6120a6816128eb565b82525050565b6120bd6120b8826128eb565b612a0b565b82525050565b6120cc816128fd565b82525050565b60006120dd826126ae565b6120e781856126b9565b93506120f781856020860161295d565b61210081612b1c565b840191505092915050565b60006121186023836126b9565b91507f45524332303a207472616e7366657220746f20746865207a65726f206164647260008301527f65737300000000000000000000000000000000000000000000000000000000006020830152604082019050919050565b600061217e6022836126b9565b91507f45524332303a20617070726f766520746f20746865207a65726f20616464726560008301527f73730000000000000000000000000000000000000000000000000000000000006020830152604082019050919050565b60006121e46026836126b9565b91507f45524332303a207472616e7366657220616d6f756e742065786365656473206260008301527f616c616e636500000000000000000000000000000000000000000000000000006020830152604082019050919050565b600061224a6028836126b9565b91507f45524332303a207472616e7366657220616d6f756e742065786365656473206160008301527f6c6c6f77616e63650000000000000000000000000000000000000000000000006020830152604082019050919050565b60006122b06025836126b9565b91507f45524332303a207472616e736665722066726f6d20746865207a65726f20616460008301527f64726573730000000000000000000000000000000000000000000000000000006020830152604082019050919050565b60006123166024836126b9565b91507f45524332303a20617070726f76652066726f6d20746865207a65726f2061646460008301527f72657373000000000000000000000000000000000000000000000000000000006020830152604082019050919050565b600061237c6025836126b9565b91507f45524332303a2064656372656173656420616c6c6f77616e63652062656c6f7760008301527f207a65726f0000000000000000000000000000000000000000000000000000006020830152604082019050919050565b6123de81612909565b82525050565b6123ed81612937565b82525050565b6123fc81612941565b82525050565b600061240e82846120ac565b60148201915081905092915050565b6000602082019050612432600083018461209d565b92915050565b600060208201905061244d60008301846120c3565b92915050565b6000602082019050818103600083015261246d81846120d2565b905092915050565b6000602082019050818103600083015261248e8161210b565b9050919050565b600060208201905081810360008301526124ae81612171565b9050919050565b600060208201905081810360008301526124ce816121d7565b9050919050565b600060208201905081810360008301526124ee8161223d565b9050919050565b6000602082019050818103600083015261250e816122a3565b9050919050565b6000602082019050818103600083015261252e81612309565b9050919050565b6000602082019050818103600083015261254e8161236f565b9050919050565b600060208201905061256a60008301846123e4565b92915050565b600060608201905061258560008301866123e4565b818103602083015261259781856120d2565b905081810360408301526125ab81846120d2565b9050949350505050565b600060c0820190506125ca60008301896123e4565b6125d760208301886123d5565b81810360408301526125e981876120d2565b905081810360608301526125fd81866120d2565b9050818103608083015261261181856120d2565b905081810360a083015261262581846120d2565b9050979650505050505050565b600060208201905061264760008301846123f3565b92915050565b6000604051905081810181811067ffffffffffffffff8211171561267457612673612aed565b5b8060405250919050565b600067ffffffffffffffff82111561269957612698612aed565b5b601f19601f8301169050602081019050919050565b600081519050919050565b600082825260208201905092915050565b60006126d582612937565b91506126e083612937565b9250827fffffffffffffffffffffffffffffffffffffffffffffffffffffffffffffffff0382111561271557612714612a60565b5b828201905092915050565b6000808291508390505b600185111561276a5780860481111561274657612745612a60565b5b60018516156127555780820291505b808102905061276385612b3a565b945061272a565b94509492505050565b600061277e82612937565b915061278983612937565b92506127b67fffffffffffffffffffffffffffffffffffffffffffffffffffffffffffffffff84846127be565b905092915050565b6000826127ce576001905061288a565b816127dc576000905061288a565b81600181146127f257600281146127fc5761282b565b600191505061288a565b60ff84111561280e5761280d612a60565b5b8360020a91508482111561282557612824612a60565b5b5061288a565b5060208310610133831016604e8410600b84101617156128605782820a90508381111561285b5761285a612a60565b5b61288a565b61286d8484846001612720565b9250905081840481111561288457612883612a60565b5b81810290505b9392505050565b600061289c82612937565b91506128a783612937565b9250817fffffffffffffffffffffffffffffffffffffffffffffffffffffffffffffffff04831182151516156128e0576128df612a60565b5b828202905092915050565b60006128f682612917565b9050919050565b60008115159050919050565b600061ffff82169050919050565b600073ffffffffffffffffffffffffffffffffffffffff82169050919050565b6000819050919050565b600060ff82169050919050565b82818337600083830152505050565b60005b8381101561297b578082015181840152602081019050612960565b8381111561298a576000848401525b50505050565b600060028204905060018216806129a857607f821691505b602082108114156129bc576129bb612abe565b5b50919050565b60006129cd82612937565b91507fffffffffffffffffffffffffffffffffffffffffffffffffffffffffffffffff821415612a00576129ff612a60565b5b600182019050919050565b6000612a1682612a1d565b9050919050565b6000612a2882612b2d565b9050919050565b6000612a3a82612937565b9150612a4583612937565b925082612a5557612a54612a8f565b5b828206905092915050565b7f4e487b7100000000000000000000000000000000000000000000000000000000600052601160045260246000fd5b7f4e487b7100000000000000000000000000000000000000000000000000000000600052601260045260246000fd5b7f4e487b7100000000000000000000000000000000000000000000000000000000600052602260045260246000fd5b7f4e487b7100000000000000000000000000000000000000000000000000000000600052604160045260246000fd5b6000601f19601f8301169050919050565b60008160601b9050919050565b60008160011c9050919050565b612b50816128eb565b8114612b5b57600080fd5b50565b612b6781612909565b8114612b7257600080fd5b50565b612b7e81612937565b8114612b8957600080fd5b5056fea264697066735822122084a6dcacb876d48fdf6cb936a694d2c0899726539511525d9cdcd0f71038b78064736f6c63430008000033",
  "immutableReferences": {},
  "source": "// SPDX-License-Identifier: MIT\r\npragma solidity >=0.4.22 <0.9.0;\r\n\r\nimport \"@openzeppelin/contracts/token/ERC20/ERC20.sol\";\r\nimport \"@openzeppelin/contracts/utils/Counters.sol\";\r\nimport \"./SafeMath.sol\";\r\n\r\ncontract DoBuyToken is ERC20 {\r\n    // using Counters for Counters.Counter;\r\n    // using SafeMath for uint256;\r\n\r\n    //   \r\n    address public now_wallet = payable(msg.sender);\r\n\r\n    address public owners;\r\n\r\n    /// @notice  \r\n    string public constant _token = \"DoBuyToken\";\r\n\r\n    /// @notice  \r\n    string public constant _symbol = \"DBT\";\r\n\r\n    /// @notice \r\n    uint8 public constant _decimals = 18;\r\n\r\n    /// @notice   \r\n    uint256 public constant INITIAL_SUPPLY = 100000000;\r\n    \r\n    /// @notice  \r\n    address public user_wallet = payable(msg.sender);\r\n\r\n    /// @notice \r\n    // Counters.Counter public _trackingIds;\r\n    uint256 public _trackingIds;\r\n\r\n    /// @dev  \r\n    struct deliveryBill {\r\n        uint256 _Ids;   //  - counter\r\n        uint16 amount;\r\n        string name;\r\n        string sender;\r\n        string receiver;\r\n        string destination;\r\n    }\r\n\r\n    /// @dev   ( )\r\n    /// :  / : , , , Hub   / :  \r\n    struct deliveryTracking {\r\n        uint256 timestamp;\r\n        string location;    \r\n        string status;  // , , \r\n    }\r\n\r\n    // /// @dev   ( )\r\n    // deliveryTracking[] public trackinglist;\r\n\r\n    string[4] public location = [\"Gimpo\", \"Gonjiam\", \"Icheon\", \"Gwangju\"];\r\n\r\n    //  \r\n    mapping (uint256 => deliveryBill) public _billArray;\r\n\r\n    //  - owner \r\n    mapping (uint256 => address) public _billToOwner;\r\n\r\n    //    : trackingId  . deliveryTracking     trackingArray value\r\n    mapping (uint256 => deliveryTracking[]) public _trackingArray;\r\n\r\n    constructor() ERC20(\"DoBuyToken\", \"DBT\") {\r\n        owners = payable(msg.sender);\r\n        _mint(owners, INITIAL_SUPPLY * 10 ** _decimals);\r\n    }\r\n    \r\n    // DoBuyToken  ETH  Swap\r\n    // TokenSwap.sol  \r\n    // @dev _buyer : token  \r\n    // @dev _tokenAmount : token  \r\n    // @rate :  1ETH = 2700DBT\r\n    function buyingToken(address _buyer, uint _tokenAmount) public{\r\n        uint256 dbtTokenA = _tokenAmount * 10 ** (uint(decimals()));\r\n        _transfer(owners, _buyer, dbtTokenA);\r\n    }\r\n    \r\n    /**\r\n    * @dev   .  ,  ,   .\r\n    * @param _name \r\n    * @param _receiver  \r\n    * @param _amount \r\n     */\r\n    function deliveryStart(string memory _name, string memory _receiver, uint16 _amount, string memory _dest) public returns (uint256){\r\n        uint256 userDeliveryNum = uint256(keccak256(abi.encodePacked(msg.sender))) % 4;\r\n        // _trackingIds.increment();\r\n        _trackingIds++;\r\n        _billArray[_trackingIds] = deliveryBill(_trackingIds, _amount, _name, \"DoBuy Market\", _receiver, _dest);\r\n        _billToOwner[_trackingIds] = msg.sender;\r\n        _trackingArray[_trackingIds].push(deliveryTracking(block.timestamp, \"geumbok building\", \"Start Delivery\"));\r\n        _trackingArray[_trackingIds].push(deliveryTracking(block.timestamp + 5 minutes, location[userDeliveryNum], \"Delivering\"));\r\n        _trackingArray[_trackingIds].push(deliveryTracking(block.timestamp + 10 minutes, location[(userDeliveryNum + 1) % 4], \"Delivering\"));\r\n        _trackingArray[_trackingIds].push(deliveryTracking(block.timestamp + 15 minutes, _dest, \"Delivery Completed\"));\r\n        return _trackingIds;\r\n    }\r\n    /**\r\n    * @dev   setInterval    .\r\n    *      setInterval    block.timestamp    \r\n    * @param _Ids (_trackingIds)\r\n    */\r\n    // function deliveryUpdate(uint256 _Ids, string memory _dest) public {\r\n    //     //  trackinglist timestamp\r\n    //     uint256 listlength = _trackingArray[_Ids].length;\r\n    //     uint256 lastTime = _trackingArray[_Ids][listlength-1].timestamp;\r\n    //     bool completed = false;\r\n\r\n    //     if (lastTime + 1 minutes <= block.timestamp && block.timestamp < lastTime + 2 minutes) {\r\n    //         // _trackingArray[_Ids].push(deliveryTracking(block.timestamp, location[userDeliveryNum], \"Delivering\"));\r\n    //     } else if (lastTime + 2 minutes <= block.timestamp && block.timestamp < lastTime + 3 minutes) {\r\n    //         // _trackingArray[_Ids].push(deliveryTracking(block.timestamp, location[(userDeliveryNum + 1) % 4], \"Delivering\"));\r\n    //     } else if (lastTime + 3 minutes <= block.timestamp) {\r\n    //         // _trackingArray[_Ids].push(deliveryTracking(block.timestamp, _dest, \"Delivery Completed\"));\r\n    //         completed = true;\r\n    //     }\r\n    // }\r\n\r\n    /**\r\n     * @dev Ma-rketNFT DoBuyToken  \r\n     * @param _amounts   \r\n     */\r\n    function getOwnerToken(uint256 _amounts) payable public {\r\n        uint256 prices = _amounts * 10 ** (uint(decimals()));\r\n        require(balanceOf(msg.sender) >= prices);\r\n        transfer(owners, prices);\r\n    }\r\n\r\n    // function viewUpdate(uint256 _Ids) public view returns(uint256) {\r\n    //     uint256 listlength = _trackingArray[_Ids].length;\r\n    //     return _trackingArray[_Ids][listlength-1].timestamp;\r\n    // }\r\n}",
  "sourcePath": "C:/Users/redqo/Desktop/DoBuyShopProject/contracts/DoBuyToken.sol",
  "compiler": {
    "name": "solc",
    "version": "0.8.0+commit.c7dfd78e.Emscripten.clang"
  },
  "schemaVersion": "3.4.1",
  "updatedAt": "2021-08-30T09:27:01.394Z",
  "networkType": "ethereum",
  "devdoc": {
    "kind": "dev",
    "methods": {
      "allowance(address,address)": {
        "details": "See {IERC20-allowance}."
      },
      "approve(address,uint256)": {
        "details": "See {IERC20-approve}. Requirements: - `spender` cannot be the zero address."
      },
      "balanceOf(address)": {
        "details": "See {IERC20-balanceOf}."
      },
      "decimals()": {
        "details": "Returns the number of decimals used to get its user representation. For example, if `decimals` equals `2`, a balance of `505` tokens should be displayed to a user as `5.05` (`505 / 10 ** 2`). Tokens usually opt for a value of 18, imitating the relationship between Ether and Wei. This is the value {ERC20} uses, unless this function is overridden; NOTE: This information is only used for _display_ purposes: it in no way affects any of the arithmetic of the contract, including {IERC20-balanceOf} and {IERC20-transfer}."
      },
      "decreaseAllowance(address,uint256)": {
        "details": "Atomically decreases the allowance granted to `spender` by the caller. This is an alternative to {approve} that can be used as a mitigation for problems described in {IERC20-approve}. Emits an {Approval} event indicating the updated allowance. Requirements: - `spender` cannot be the zero address. - `spender` must have allowance for the caller of at least `subtractedValue`."
      },
      "deliveryStart(string,string,uint16,string)": {
        "details": "  .  ,  ,   .",
        "params": {
          "_amount": "",
          "_name": "",
          "_receiver": " "
        }
      },
      "getOwnerToken(uint256)": {
        "details": "Ma-rketNFT DoBuyToken  ",
        "params": {
          "_amounts": "  "
        }
      },
      "increaseAllowance(address,uint256)": {
        "details": "Atomically increases the allowance granted to `spender` by the caller. This is an alternative to {approve} that can be used as a mitigation for problems described in {IERC20-approve}. Emits an {Approval} event indicating the updated allowance. Requirements: - `spender` cannot be the zero address."
      },
      "name()": {
        "details": "Returns the name of the token."
      },
      "symbol()": {
        "details": "Returns the symbol of the token, usually a shorter version of the name."
      },
      "totalSupply()": {
        "details": "See {IERC20-totalSupply}."
      },
      "transfer(address,uint256)": {
        "details": "See {IERC20-transfer}. Requirements: - `recipient` cannot be the zero address. - the caller must have a balance of at least `amount`."
      },
      "transferFrom(address,address,uint256)": {
        "details": "See {IERC20-transferFrom}. Emits an {Approval} event indicating the updated allowance. This is not required by the EIP. See the note at the beginning of {ERC20}. Requirements: - `sender` and `recipient` cannot be the zero address. - `sender` must have a balance of at least `amount`. - the caller must have allowance for ``sender``'s tokens of at least `amount`."
      }
    },
    "version": 1
  },
  "userdoc": {
    "kind": "user",
    "methods": {
      "INITIAL_SUPPLY()": {
        "notice": "  "
      },
      "_decimals()": {
        "notice": ""
      },
      "_symbol()": {
        "notice": " "
      },
      "_token()": {
        "notice": " "
      },
      "_trackingIds()": {
        "notice": ""
      },
      "user_wallet()": {
        "notice": " "
      }
    },
    "version": 1
  }
}