{
  "contractName": "DoBuyNFT",
  "abi": [
    {
      "inputs": [],
      "stateMutability": "nonpayable",
      "type": "constructor"
    },
    {
      "anonymous": false,
      "inputs": [
        {
          "indexed": true,
          "internalType": "address",
          "name": "owner",
          "type": "address"
        },
        {
          "indexed": true,
          "internalType": "address",
          "name": "approved",
          "type": "address"
        },
        {
          "indexed": true,
          "internalType": "uint256",
          "name": "tokenId",
          "type": "uint256"
        }
      ],
      "name": "Approval",
      "type": "event"
    },
    {
      "anonymous": false,
      "inputs": [
        {
          "indexed": true,
          "internalType": "address",
          "name": "owner",
          "type": "address"
        },
        {
          "indexed": true,
          "internalType": "address",
          "name": "operator",
          "type": "address"
        },
        {
          "indexed": false,
          "internalType": "bool",
          "name": "approved",
          "type": "bool"
        }
      ],
      "name": "ApprovalForAll",
      "type": "event"
    },
    {
      "anonymous": false,
      "inputs": [
        {
          "indexed": false,
          "internalType": "address",
          "name": "",
          "type": "address"
        },
        {
          "indexed": false,
          "internalType": "uint256",
          "name": "",
          "type": "uint256"
        }
      ],
      "name": "DoBuyCreated",
      "type": "event"
    },
    {
      "anonymous": false,
      "inputs": [
        {
          "indexed": true,
          "internalType": "address",
          "name": "from",
          "type": "address"
        },
        {
          "indexed": true,
          "internalType": "address",
          "name": "to",
          "type": "address"
        },
        {
          "indexed": true,
          "internalType": "uint256",
          "name": "tokenId",
          "type": "uint256"
        }
      ],
      "name": "Transfer",
      "type": "event"
    },
    {
      "inputs": [
        {
          "internalType": "uint256",
          "name": "",
          "type": "uint256"
        }
      ],
      "name": "_DoBuyToOwner",
      "outputs": [
        {
          "internalType": "address",
          "name": "",
          "type": "address"
        }
      ],
      "stateMutability": "view",
      "type": "function",
      "constant": true
    },
    {
      "inputs": [
        {
          "internalType": "uint256",
          "name": "",
          "type": "uint256"
        }
      ],
      "name": "_DoBuylist",
      "outputs": [
        {
          "internalType": "uint256",
          "name": "_Ids",
          "type": "uint256"
        },
        {
          "internalType": "uint256",
          "name": "timestamp",
          "type": "uint256"
        },
        {
          "internalType": "string",
          "name": "name",
          "type": "string"
        },
        {
          "internalType": "string",
          "name": "image_url",
          "type": "string"
        }
      ],
      "stateMutability": "view",
      "type": "function",
      "constant": true
    },
    {
      "inputs": [
        {
          "internalType": "uint256",
          "name": "",
          "type": "uint256"
        }
      ],
      "name": "_TradeTransaction",
      "outputs": [
        {
          "internalType": "address",
          "name": "_from",
          "type": "address"
        },
        {
          "internalType": "address",
          "name": "_to",
          "type": "address"
        },
        {
          "internalType": "string",
          "name": "name",
          "type": "string"
        }
      ],
      "stateMutability": "view",
      "type": "function",
      "constant": true
    },
    {
      "inputs": [],
      "name": "_tokenIds",
      "outputs": [
        {
          "internalType": "uint256",
          "name": "_value",
          "type": "uint256"
        }
      ],
      "stateMutability": "view",
      "type": "function",
      "constant": true
    },
    {
      "inputs": [],
      "name": "_tradeIds",
      "outputs": [
        {
          "internalType": "uint256",
          "name": "_value",
          "type": "uint256"
        }
      ],
      "stateMutability": "view",
      "type": "function",
      "constant": true
    },
    {
      "inputs": [
        {
          "internalType": "address",
          "name": "to",
          "type": "address"
        },
        {
          "internalType": "uint256",
          "name": "tokenId",
          "type": "uint256"
        }
      ],
      "name": "approve",
      "outputs": [],
      "stateMutability": "nonpayable",
      "type": "function"
    },
    {
      "inputs": [
        {
          "internalType": "address",
          "name": "owner",
          "type": "address"
        }
      ],
      "name": "balanceOf",
      "outputs": [
        {
          "internalType": "uint256",
          "name": "",
          "type": "uint256"
        }
      ],
      "stateMutability": "view",
      "type": "function",
      "constant": true
    },
    {
      "inputs": [
        {
          "internalType": "uint256",
          "name": "tokenId",
          "type": "uint256"
        }
      ],
      "name": "getApproved",
      "outputs": [
        {
          "internalType": "address",
          "name": "",
          "type": "address"
        }
      ],
      "stateMutability": "view",
      "type": "function",
      "constant": true
    },
    {
      "inputs": [
        {
          "internalType": "address",
          "name": "owner",
          "type": "address"
        },
        {
          "internalType": "address",
          "name": "operator",
          "type": "address"
        }
      ],
      "name": "isApprovedForAll",
      "outputs": [
        {
          "internalType": "bool",
          "name": "",
          "type": "bool"
        }
      ],
      "stateMutability": "view",
      "type": "function",
      "constant": true
    },
    {
      "inputs": [],
      "name": "name",
      "outputs": [
        {
          "internalType": "string",
          "name": "",
          "type": "string"
        }
      ],
      "stateMutability": "view",
      "type": "function",
      "constant": true
    },
    {
      "inputs": [
        {
          "internalType": "uint256",
          "name": "tokenId",
          "type": "uint256"
        }
      ],
      "name": "ownerOf",
      "outputs": [
        {
          "internalType": "address",
          "name": "",
          "type": "address"
        }
      ],
      "stateMutability": "view",
      "type": "function",
      "constant": true
    },
    {
      "inputs": [
        {
          "internalType": "address",
          "name": "from",
          "type": "address"
        },
        {
          "internalType": "address",
          "name": "to",
          "type": "address"
        },
        {
          "internalType": "uint256",
          "name": "tokenId",
          "type": "uint256"
        }
      ],
      "name": "safeTransferFrom",
      "outputs": [],
      "stateMutability": "nonpayable",
      "type": "function"
    },
    {
      "inputs": [
        {
          "internalType": "address",
          "name": "from",
          "type": "address"
        },
        {
          "internalType": "address",
          "name": "to",
          "type": "address"
        },
        {
          "internalType": "uint256",
          "name": "tokenId",
          "type": "uint256"
        },
        {
          "internalType": "bytes",
          "name": "_data",
          "type": "bytes"
        }
      ],
      "name": "safeTransferFrom",
      "outputs": [],
      "stateMutability": "nonpayable",
      "type": "function"
    },
    {
      "inputs": [
        {
          "internalType": "address",
          "name": "operator",
          "type": "address"
        },
        {
          "internalType": "bool",
          "name": "approved",
          "type": "bool"
        }
      ],
      "name": "setApprovalForAll",
      "outputs": [],
      "stateMutability": "nonpayable",
      "type": "function"
    },
    {
      "inputs": [
        {
          "internalType": "bytes4",
          "name": "interfaceId",
          "type": "bytes4"
        }
      ],
      "name": "supportsInterface",
      "outputs": [
        {
          "internalType": "bool",
          "name": "",
          "type": "bool"
        }
      ],
      "stateMutability": "view",
      "type": "function",
      "constant": true
    },
    {
      "inputs": [],
      "name": "symbol",
      "outputs": [
        {
          "internalType": "string",
          "name": "",
          "type": "string"
        }
      ],
      "stateMutability": "view",
      "type": "function",
      "constant": true
    },
    {
      "inputs": [
        {
          "internalType": "uint256",
          "name": "tokenId",
          "type": "uint256"
        }
      ],
      "name": "tokenURI",
      "outputs": [
        {
          "internalType": "string",
          "name": "",
          "type": "string"
        }
      ],
      "stateMutability": "view",
      "type": "function",
      "constant": true
    },
    {
      "inputs": [
        {
          "internalType": "address",
          "name": "from",
          "type": "address"
        },
        {
          "internalType": "address",
          "name": "to",
          "type": "address"
        },
        {
          "internalType": "uint256",
          "name": "tokenId",
          "type": "uint256"
        }
      ],
      "name": "transferFrom",
      "outputs": [],
      "stateMutability": "nonpayable",
      "type": "function"
    },
    {
      "inputs": [
        {
          "internalType": "string",
          "name": "_name",
          "type": "string"
        },
        {
          "internalType": "string",
          "name": "_image_url",
          "type": "string"
        }
      ],
      "name": "mint",
      "outputs": [],
      "stateMutability": "nonpayable",
      "type": "function"
    },
    {
      "inputs": [
        {
          "internalType": "uint256",
          "name": "_Id",
          "type": "uint256"
        }
      ],
      "name": "transferNFT",
      "outputs": [],
      "stateMutability": "nonpayable",
      "type": "function"
    },
    {
      "inputs": [
        {
          "internalType": "uint256",
          "name": "_Id",
          "type": "uint256"
        }
      ],
      "name": "burnNFT",
      "outputs": [],
      "stateMutability": "nonpayable",
      "type": "function"
    }
  ],
  "bytecode": "0x60806040523480156200001157600080fd5b506040518060400160405280600881526020017f446f4275794e46540000000000000000000000000000000000000000000000008152506040518060400160405280600581526020017f44424e4654000000000000000000000000000000000000000000000000000000815250816000908051906020019062000096929190620002df565b508060019080519060200190620000af929190620002df565b50505033600760006101000a81548173ffffffffffffffffffffffffffffffffffffffff021916908373ffffffffffffffffffffffffffffffffffffffff1602179055506040518060800160405280620001156008620002d160201b6200146d1760201c565b81526020014281526020016040518060400160405280600c81526020017f446f42757920537461727421000000000000000000000000000000000000000081525081526020016040518060400160405280600981526020017f446f4275792e706e67000000000000000000000000000000000000000000000081525081525060096000620001af6008620002d160201b6200146d1760201c565b815260200190815260200160002060008201518160000155602082015181600101556040820151816002019080519060200190620001ef929190620002df565b5060608201518160030190805190602001906200020e929190620002df565b5090505033600a60006200022e6008620002d160201b6200146d1760201c565b815260200190815260200160002060006101000a81548173ffffffffffffffffffffffffffffffffffffffff021916908373ffffffffffffffffffffffffffffffffffffffff1602179055507f4f2674a5f38c00ecf9e7a1ac775675d39c487ab7c82bcc4ec772cdee89c2598e33620002b36008620002d160201b6200146d1760201c565b604051620002c3929190620003b1565b60405180910390a162000481565b600081600001549050919050565b828054620002ed906200041c565b90600052602060002090601f0160209004810192826200031157600085556200035d565b82601f106200032c57805160ff19168380011785556200035d565b828001600101855582156200035d579182015b828111156200035c5782518255916020019190600101906200033f565b5b5090506200036c919062000370565b5090565b5b808211156200038b57600081600090555060010162000371565b5090565b6200039a81620003de565b82525050565b620003ab8162000412565b82525050565b6000604082019050620003c860008301856200038f565b620003d76020830184620003a0565b9392505050565b6000620003eb82620003f2565b9050919050565b600073ffffffffffffffffffffffffffffffffffffffff82169050919050565b6000819050919050565b600060028204905060018216806200043557607f821691505b602082108114156200044c576200044b62000452565b5b50919050565b7f4e487b7100000000000000000000000000000000000000000000000000000000600052602260045260246000fd5b6133d980620004916000396000f3fe608060405234801561001057600080fd5b50600436106101375760003560e01c806370a08231116100b8578063b88d4fde1161007c578063b88d4fde14610338578063c87b56dd14610354578063cf60e68114610384578063e985e9c5146103b7578063eeea7437146103e7578063f83b3c861461041957610137565b806370a08231146102945780638aa0fdad146102c457806395d89b41146102e0578063a22cb465146102fe578063aa46a4001461031a57610137565b8063249e10c5116100ff578063249e10c5146101f25780632890e0d71461020e57806342842e0e1461022a5780636352211e146102465780636eb75dad1461027657610137565b806301ffc9a71461013c57806306fdde031461016c578063081812fc1461018a578063095ea7b3146101ba57806323b872dd146101d6575b600080fd5b610156600480360381019061015191906124cd565b610449565b6040516101639190612cfe565b60405180910390f35b61017461052b565b6040516101819190612d19565b60405180910390f35b6101a4600480360381019061019f919061258b565b6105bd565b6040516101b19190612c30565b60405180910390f35b6101d460048036038101906101cf9190612491565b610642565b005b6101f060048036038101906101eb919061238b565b61075a565b005b61020c6004803603810190610207919061258b565b6107ba565b005b6102286004803603810190610223919061258b565b610a0c565b005b610244600480360381019061023f919061238b565b610ad4565b005b610260600480360381019061025b919061258b565b610af4565b60405161026d9190612c30565b60405180910390f35b61027e610ba6565b60405161028b9190612f1b565b60405180910390f35b6102ae60048036038101906102a99190612326565b610bb2565b6040516102bb9190612f1b565b60405180910390f35b6102de60048036038101906102d9919061251f565b610c6a565b005b6102e8610da1565b6040516102f59190612d19565b60405180910390f35b61031860048036038101906103139190612455565b610e33565b005b610322610fb4565b60405161032f9190612f1b565b60405180910390f35b610352600480360381019061034d91906123da565b610fc0565b005b61036e6004803603810190610369919061258b565b611022565b60405161037b9190612d19565b60405180910390f35b61039e6004803603810190610399919061258b565b611174565b6040516103ae9493929190612f36565b60405180910390f35b6103d160048036038101906103cc919061234f565b6112b4565b6040516103de9190612cfe565b60405180910390f35b61040160048036038101906103fc919061258b565b611348565b60405161041093929190612c4b565b60405180910390f35b610433600480360381019061042e919061258b565b61143a565b6040516104409190612c30565b60405180910390f35b60007f80ac58cd000000000000000000000000000000000000000000000000000000007bffffffffffffffffffffffffffffffffffffffffffffffffffffffff1916827bffffffffffffffffffffffffffffffffffffffffffffffffffffffff1916148061051457507f5b5e139f000000000000000000000000000000000000000000000000000000007bffffffffffffffffffffffffffffffffffffffffffffffffffffffff1916827bffffffffffffffffffffffffffffffffffffffffffffffffffffffff1916145b8061052457506105238261147b565b5b9050919050565b60606000805461053a906131ce565b80601f0160208091040260200160405190810160405280929190818152602001828054610566906131ce565b80156105b35780601f10610588576101008083540402835291602001916105b3565b820191906000526020600020905b81548152906001019060200180831161059657829003601f168201915b5050505050905090565b60006105c8826114e5565b610607576040517f08c379a00000000000000000000000000000000000000000000000000000000081526004016105fe90612e7b565b60405180910390fd5b6004600083815260200190815260200160002060009054906101000a900473ffffffffffffffffffffffffffffffffffffffff169050919050565b600061064d82610af4565b90508073ffffffffffffffffffffffffffffffffffffffff168373ffffffffffffffffffffffffffffffffffffffff1614156106be576040517f08c379a00000000000000000000000000000000000000000000000000000000081526004016106b590612edb565b60405180910390fd5b8073ffffffffffffffffffffffffffffffffffffffff166106dd611551565b73ffffffffffffffffffffffffffffffffffffffff16148061070c575061070b81610706611551565b6112b4565b5b61074b576040517f08c379a000000000000000000000000000000000000000000000000000000000815260040161074290612ddb565b60405180910390fd5b6107558383611559565b505050565b61076b610765611551565b82611612565b6107aa576040517f08c379a00000000000000000000000000000000000000000000000000000000081526004016107a190612efb565b60405180910390fd5b6107b58383836116f0565b505050565b6000600a600083815260200190815260200160002060009054906101000a900473ffffffffffffffffffffffffffffffffffffffff1690506107fc600c61194c565b6108078133846116f0565b33600a600084815260200190815260200160002060006101000a81548173ffffffffffffffffffffffffffffffffffffffff021916908373ffffffffffffffffffffffffffffffffffffffff16021790555060405180606001604052808273ffffffffffffffffffffffffffffffffffffffff1681526020013373ffffffffffffffffffffffffffffffffffffffff1681526020016009600085815260200190815260200160002060020180546108bd906131ce565b80601f01602080910402602001604051908101604052809291908181526020018280546108e9906131ce565b80156109365780601f1061090b57610100808354040283529160200191610936565b820191906000526020600020905b81548152906001019060200180831161091957829003601f168201915b5050505050815250600d600061094c600c61146d565b815260200190815260200160002060008201518160000160006101000a81548173ffffffffffffffffffffffffffffffffffffffff021916908373ffffffffffffffffffffffffffffffffffffffff16021790555060208201518160010160006101000a81548173ffffffffffffffffffffffffffffffffffffffff021916908373ffffffffffffffffffffffffffffffffffffffff1602179055506040820151816002019080519060200190610a0492919061210a565b509050505050565b3373ffffffffffffffffffffffffffffffffffffffff16610a2c82610af4565b73ffffffffffffffffffffffffffffffffffffffff1614610a4c57600080fd5b610a5581611962565b600a600082815260200190815260200160002060006101000a81549073ffffffffffffffffffffffffffffffffffffffff0219169055600960008281526020019081526020016000206000808201600090556001820160009055600282016000610abf9190612190565b600382016000610acf9190612190565b505050565b610aef83838360405180602001604052806000815250610fc0565b505050565b6000806002600084815260200190815260200160002060009054906101000a900473ffffffffffffffffffffffffffffffffffffffff169050600073ffffffffffffffffffffffffffffffffffffffff168173ffffffffffffffffffffffffffffffffffffffff161415610b9d576040517f08c379a0000000000000000000000000000000000000000000000000000000008152600401610b9490612e1b565b60405180910390fd5b80915050919050565b600c8060000154905081565b60008073ffffffffffffffffffffffffffffffffffffffff168273ffffffffffffffffffffffffffffffffffffffff161415610c23576040517f08c379a0000000000000000000000000000000000000000000000000000000008152600401610c1a90612dfb565b60405180910390fd5b600360008373ffffffffffffffffffffffffffffffffffffffff1673ffffffffffffffffffffffffffffffffffffffff168152602001908152602001600020549050919050565b610c74600861194c565b6000610c80600861146d565b90506040518060800160405280828152602001428152602001848152602001838152506009600083815260200190815260200160002060008201518160000155602082015181600101556040820151816002019080519060200190610ce692919061210a565b506060820151816003019080519060200190610d0392919061210a565b50905050610d1133826119b5565b33600a600083815260200190815260200160002060006101000a81548173ffffffffffffffffffffffffffffffffffffffff021916908373ffffffffffffffffffffffffffffffffffffffff1602179055507f4f2674a5f38c00ecf9e7a1ac775675d39c487ab7c82bcc4ec772cdee89c2598e3382604051610d94929190612cd5565b60405180910390a1505050565b606060018054610db0906131ce565b80601f0160208091040260200160405190810160405280929190818152602001828054610ddc906131ce565b8015610e295780601f10610dfe57610100808354040283529160200191610e29565b820191906000526020600020905b815481529060010190602001808311610e0c57829003601f168201915b5050505050905090565b610e3b611551565b73ffffffffffffffffffffffffffffffffffffffff168273ffffffffffffffffffffffffffffffffffffffff161415610ea9576040517f08c379a0000000000000000000000000000000000000000000000000000000008152600401610ea090612d9b565b60405180910390fd5b8060056000610eb6611551565b73ffffffffffffffffffffffffffffffffffffffff1673ffffffffffffffffffffffffffffffffffffffff16815260200190815260200160002060008473ffffffffffffffffffffffffffffffffffffffff1673ffffffffffffffffffffffffffffffffffffffff16815260200190815260200160002060006101000a81548160ff0219169083151502179055508173ffffffffffffffffffffffffffffffffffffffff16610f63611551565b73ffffffffffffffffffffffffffffffffffffffff167f17307eab39ab6107e8899845ad3d59bd9653f200f220920489ca2b5937696c3183604051610fa89190612cfe565b60405180910390a35050565b60088060000154905081565b610fd1610fcb611551565b83611612565b611010576040517f08c379a000000000000000000000000000000000000000000000000000000000815260040161100790612efb565b60405180910390fd5b61101c84848484611b83565b50505050565b606061102d826114e5565b61106c576040517f08c379a000000000000000000000000000000000000000000000000000000000815260040161106390612e5b565b60405180910390fd5b600060066000848152602001908152602001600020805461108c906131ce565b80601f01602080910402602001604051908101604052809291908181526020018280546110b8906131ce565b80156111055780601f106110da57610100808354040283529160200191611105565b820191906000526020600020905b8154815290600101906020018083116110e857829003601f168201915b505050505090506000611116611bdf565b905060008151141561112c57819250505061116f565b600082511115611161578082604051602001611149929190612c0c565b6040516020818303038152906040529250505061116f565b61116a84611bf6565b925050505b919050565b60096020528060005260406000206000915090508060000154908060010154908060020180546111a3906131ce565b80601f01602080910402602001604051908101604052809291908181526020018280546111cf906131ce565b801561121c5780601f106111f15761010080835404028352916020019161121c565b820191906000526020600020905b8154815290600101906020018083116111ff57829003601f168201915b505050505090806003018054611231906131ce565b80601f016020809104026020016040519081016040528092919081815260200182805461125d906131ce565b80156112aa5780601f1061127f576101008083540402835291602001916112aa565b820191906000526020600020905b81548152906001019060200180831161128d57829003601f168201915b5050505050905084565b6000600560008473ffffffffffffffffffffffffffffffffffffffff1673ffffffffffffffffffffffffffffffffffffffff16815260200190815260200160002060008373ffffffffffffffffffffffffffffffffffffffff1673ffffffffffffffffffffffffffffffffffffffff16815260200190815260200160002060009054906101000a900460ff16905092915050565b600d6020528060005260406000206000915090508060000160009054906101000a900473ffffffffffffffffffffffffffffffffffffffff16908060010160009054906101000a900473ffffffffffffffffffffffffffffffffffffffff16908060020180546113b7906131ce565b80601f01602080910402602001604051908101604052809291908181526020018280546113e3906131ce565b80156114305780601f1061140557610100808354040283529160200191611430565b820191906000526020600020905b81548152906001019060200180831161141357829003601f168201915b5050505050905083565b600a6020528060005260406000206000915054906101000a900473ffffffffffffffffffffffffffffffffffffffff1681565b600081600001549050919050565b60007f01ffc9a7000000000000000000000000000000000000000000000000000000007bffffffffffffffffffffffffffffffffffffffffffffffffffffffff1916827bffffffffffffffffffffffffffffffffffffffffffffffffffffffff1916149050919050565b60008073ffffffffffffffffffffffffffffffffffffffff166002600084815260200190815260200160002060009054906101000a900473ffffffffffffffffffffffffffffffffffffffff1673ffffffffffffffffffffffffffffffffffffffff1614159050919050565b600033905090565b816004600083815260200190815260200160002060006101000a81548173ffffffffffffffffffffffffffffffffffffffff021916908373ffffffffffffffffffffffffffffffffffffffff160217905550808273ffffffffffffffffffffffffffffffffffffffff166115cc83610af4565b73ffffffffffffffffffffffffffffffffffffffff167f8c5be1e5ebec7d5bd14f71427d1e84f3dd0314c0f7b2291e5b200ac8c7c3b92560405160405180910390a45050565b600061161d826114e5565b61165c576040517f08c379a000000000000000000000000000000000000000000000000000000000815260040161165390612dbb565b60405180910390fd5b600061166783610af4565b90508073ffffffffffffffffffffffffffffffffffffffff168473ffffffffffffffffffffffffffffffffffffffff1614806116d657508373ffffffffffffffffffffffffffffffffffffffff166116be846105bd565b73ffffffffffffffffffffffffffffffffffffffff16145b806116e757506116e681856112b4565b5b91505092915050565b8273ffffffffffffffffffffffffffffffffffffffff1661171082610af4565b73ffffffffffffffffffffffffffffffffffffffff1614611766576040517f08c379a000000000000000000000000000000000000000000000000000000000815260040161175d90612e9b565b60405180910390fd5b600073ffffffffffffffffffffffffffffffffffffffff168273ffffffffffffffffffffffffffffffffffffffff1614156117d6576040517f08c379a00000000000000000000000000000000000000000000000000000000081526004016117cd90612d7b565b60405180910390fd5b6117e1838383611c9d565b6117ec600082611559565b6001600360008573ffffffffffffffffffffffffffffffffffffffff1673ffffffffffffffffffffffffffffffffffffffff168152602001908152602001600020600082825461183c91906130e4565b925050819055506001600360008473ffffffffffffffffffffffffffffffffffffffff1673ffffffffffffffffffffffffffffffffffffffff1681526020019081526020016000206000828254611893919061305d565b92505081905550816002600083815260200190815260200160002060006101000a81548173ffffffffffffffffffffffffffffffffffffffff021916908373ffffffffffffffffffffffffffffffffffffffff160217905550808273ffffffffffffffffffffffffffffffffffffffff168473ffffffffffffffffffffffffffffffffffffffff167fddf252ad1be2c89b69c2b068fc378daa952ba7f163c4a11628f55a4df523b3ef60405160405180910390a4505050565b6001816000016000828254019250508190555050565b61196b81611ca2565b600060066000838152602001908152602001600020805461198b906131ce565b9050146119b2576006600082815260200190815260200160002060006119b19190612190565b5b50565b600073ffffffffffffffffffffffffffffffffffffffff168273ffffffffffffffffffffffffffffffffffffffff161415611a25576040517f08c379a0000000000000000000000000000000000000000000000000000000008152600401611a1c90612e3b565b60405180910390fd5b611a2e816114e5565b15611a6e576040517f08c379a0000000000000000000000000000000000000000000000000000000008152600401611a6590612d5b565b60405180910390fd5b611a7a60008383611c9d565b6001600360008473ffffffffffffffffffffffffffffffffffffffff1673ffffffffffffffffffffffffffffffffffffffff1681526020019081526020016000206000828254611aca919061305d565b92505081905550816002600083815260200190815260200160002060006101000a81548173ffffffffffffffffffffffffffffffffffffffff021916908373ffffffffffffffffffffffffffffffffffffffff160217905550808273ffffffffffffffffffffffffffffffffffffffff16600073ffffffffffffffffffffffffffffffffffffffff167fddf252ad1be2c89b69c2b068fc378daa952ba7f163c4a11628f55a4df523b3ef60405160405180910390a45050565b611b8e8484846116f0565b611b9a84848484611db3565b611bd9576040517f08c379a0000000000000000000000000000000000000000000000000000000008152600401611bd090612d3b565b60405180910390fd5b50505050565b606060405180602001604052806000815250905090565b6060611c01826114e5565b611c40576040517f08c379a0000000000000000000000000000000000000000000000000000000008152600401611c3790612ebb565b60405180910390fd5b6000611c4a611bdf565b90506000815111611c6a5760405180602001604052806000815250611c95565b80611c7484611f4a565b604051602001611c85929190612c0c565b6040516020818303038152906040525b915050919050565b505050565b6000611cad82610af4565b9050611cbb81600084611c9d565b611cc6600083611559565b6001600360008373ffffffffffffffffffffffffffffffffffffffff1673ffffffffffffffffffffffffffffffffffffffff1681526020019081526020016000206000828254611d1691906130e4565b925050819055506002600083815260200190815260200160002060006101000a81549073ffffffffffffffffffffffffffffffffffffffff021916905581600073ffffffffffffffffffffffffffffffffffffffff168273ffffffffffffffffffffffffffffffffffffffff167fddf252ad1be2c89b69c2b068fc378daa952ba7f163c4a11628f55a4df523b3ef60405160405180910390a45050565b6000611dd48473ffffffffffffffffffffffffffffffffffffffff166120f7565b15611f3d578373ffffffffffffffffffffffffffffffffffffffff1663150b7a02611dfd611551565b8786866040518563ffffffff1660e01b8152600401611e1f9493929190612c89565b602060405180830381600087803b158015611e3957600080fd5b505af1925050508015611e6a57506040513d601f19601f82011682018060405250810190611e6791906124f6565b60015b611eed573d8060008114611e9a576040519150601f19603f3d011682016040523d82523d6000602084013e611e9f565b606091505b50600081511415611ee5576040517f08c379a0000000000000000000000000000000000000000000000000000000008152600401611edc90612d3b565b60405180910390fd5b805181602001fd5b63150b7a0260e01b7bffffffffffffffffffffffffffffffffffffffffffffffffffffffff1916817bffffffffffffffffffffffffffffffffffffffffffffffffffffffff191614915050611f42565b600190505b949350505050565b60606000821415611f92576040518060400160405280600181526020017f300000000000000000000000000000000000000000000000000000000000000081525090506120f2565b600082905060005b60008214611fc4578080611fad90613200565b915050600a82611fbd91906130b3565b9150611f9a565b60008167ffffffffffffffff811115612006577f4e487b7100000000000000000000000000000000000000000000000000000000600052604160045260246000fd5b6040519080825280601f01601f1916602001820160405280156120385781602001600182028036833780820191505090505b5090505b600085146120eb5760018261205191906130e4565b9150600a856120609190613249565b603061206c919061305d565b60f81b8183815181106120a8577f4e487b7100000000000000000000000000000000000000000000000000000000600052603260045260246000fd5b60200101907effffffffffffffffffffffffffffffffffffffffffffffffffffffffffffff1916908160001a905350600a856120e491906130b3565b945061203c565b8093505050505b919050565b600080823b905060008111915050919050565b828054612116906131ce565b90600052602060002090601f016020900481019282612138576000855561217f565b82601f1061215157805160ff191683800117855561217f565b8280016001018555821561217f579182015b8281111561217e578251825591602001919060010190612163565b5b50905061218c91906121d0565b5090565b50805461219c906131ce565b6000825580601f106121ae57506121cd565b601f0160209004906000526020600020908101906121cc91906121d0565b5b50565b5b808211156121e95760008160009055506001016121d1565b5090565b60006122006121fb84612fba565b612f89565b90508281526020810184848401111561221857600080fd5b61222384828561318c565b509392505050565b600061223e61223984612fea565b612f89565b90508281526020810184848401111561225657600080fd5b61226184828561318c565b509392505050565b60008135905061227881613347565b92915050565b60008135905061228d8161335e565b92915050565b6000813590506122a281613375565b92915050565b6000815190506122b781613375565b92915050565b600082601f8301126122ce57600080fd5b81356122de8482602086016121ed565b91505092915050565b600082601f8301126122f857600080fd5b813561230884826020860161222b565b91505092915050565b6000813590506123208161338c565b92915050565b60006020828403121561233857600080fd5b600061234684828501612269565b91505092915050565b6000806040838503121561236257600080fd5b600061237085828601612269565b925050602061238185828601612269565b9150509250929050565b6000806000606084860312156123a057600080fd5b60006123ae86828701612269565b93505060206123bf86828701612269565b92505060406123d086828701612311565b9150509250925092565b600080600080608085870312156123f057600080fd5b60006123fe87828801612269565b945050602061240f87828801612269565b935050604061242087828801612311565b925050606085013567ffffffffffffffff81111561243d57600080fd5b612449878288016122bd565b91505092959194509250565b6000806040838503121561246857600080fd5b600061247685828601612269565b92505060206124878582860161227e565b9150509250929050565b600080604083850312156124a457600080fd5b60006124b285828601612269565b92505060206124c385828601612311565b9150509250929050565b6000602082840312156124df57600080fd5b60006124ed84828501612293565b91505092915050565b60006020828403121561250857600080fd5b6000612516848285016122a8565b91505092915050565b6000806040838503121561253257600080fd5b600083013567ffffffffffffffff81111561254c57600080fd5b612558858286016122e7565b925050602083013567ffffffffffffffff81111561257557600080fd5b612581858286016122e7565b9150509250929050565b60006020828403121561259d57600080fd5b60006125ab84828501612311565b91505092915050565b6125bd81613118565b82525050565b6125cc8161312a565b82525050565b60006125dd8261301a565b6125e78185613030565b93506125f781856020860161319b565b61260081613336565b840191505092915050565b600061261682613025565b6126208185613041565b935061263081856020860161319b565b61263981613336565b840191505092915050565b600061264f82613025565b6126598185613052565b935061266981856020860161319b565b80840191505092915050565b6000612682603283613041565b91507f4552433732313a207472616e7366657220746f206e6f6e20455243373231526560008301527f63656976657220696d706c656d656e74657200000000000000000000000000006020830152604082019050919050565b60006126e8601c83613041565b91507f4552433732313a20746f6b656e20616c7265616479206d696e746564000000006000830152602082019050919050565b6000612728602483613041565b91507f4552433732313a207472616e7366657220746f20746865207a65726f2061646460008301527f72657373000000000000000000000000000000000000000000000000000000006020830152604082019050919050565b600061278e601983613041565b91507f4552433732313a20617070726f766520746f2063616c6c6572000000000000006000830152602082019050919050565b60006127ce602c83613041565b91507f4552433732313a206f70657261746f7220717565727920666f72206e6f6e657860008301527f697374656e7420746f6b656e00000000000000000000000000000000000000006020830152604082019050919050565b6000612834603883613041565b91507f4552433732313a20617070726f76652063616c6c6572206973206e6f74206f7760008301527f6e6572206e6f7220617070726f76656420666f7220616c6c00000000000000006020830152604082019050919050565b600061289a602a83613041565b91507f4552433732313a2062616c616e636520717565727920666f7220746865207a6560008301527f726f2061646472657373000000000000000000000000000000000000000000006020830152604082019050919050565b6000612900602983613041565b91507f4552433732313a206f776e657220717565727920666f72206e6f6e657869737460008301527f656e7420746f6b656e00000000000000000000000000000000000000000000006020830152604082019050919050565b6000612966602083613041565b91507f4552433732313a206d696e7420746f20746865207a65726f20616464726573736000830152602082019050919050565b60006129a6603183613041565b91507f45524337323155524953746f726167653a2055524920717565727920666f722060008301527f6e6f6e6578697374656e7420746f6b656e0000000000000000000000000000006020830152604082019050919050565b6000612a0c602c83613041565b91507f4552433732313a20617070726f76656420717565727920666f72206e6f6e657860008301527f697374656e7420746f6b656e00000000000000000000000000000000000000006020830152604082019050919050565b6000612a72602983613041565b91507f4552433732313a207472616e73666572206f6620746f6b656e2074686174206960008301527f73206e6f74206f776e00000000000000000000000000000000000000000000006020830152604082019050919050565b6000612ad8602f83613041565b91507f4552433732314d657461646174613a2055524920717565727920666f72206e6f60008301527f6e6578697374656e7420746f6b656e00000000000000000000000000000000006020830152604082019050919050565b6000612b3e602183613041565b91507f4552433732313a20617070726f76616c20746f2063757272656e74206f776e6560008301527f72000000000000000000000000000000000000000000000000000000000000006020830152604082019050919050565b6000612ba4603183613041565b91507f4552433732313a207472616e736665722063616c6c6572206973206e6f74206f60008301527f776e6572206e6f7220617070726f7665640000000000000000000000000000006020830152604082019050919050565b612c0681613182565b82525050565b6000612c188285612644565b9150612c248284612644565b91508190509392505050565b6000602082019050612c4560008301846125b4565b92915050565b6000606082019050612c6060008301866125b4565b612c6d60208301856125b4565b8181036040830152612c7f818461260b565b9050949350505050565b6000608082019050612c9e60008301876125b4565b612cab60208301866125b4565b612cb86040830185612bfd565b8181036060830152612cca81846125d2565b905095945050505050565b6000604082019050612cea60008301856125b4565b612cf76020830184612bfd565b9392505050565b6000602082019050612d1360008301846125c3565b92915050565b60006020820190508181036000830152612d33818461260b565b905092915050565b60006020820190508181036000830152612d5481612675565b9050919050565b60006020820190508181036000830152612d74816126db565b9050919050565b60006020820190508181036000830152612d948161271b565b9050919050565b60006020820190508181036000830152612db481612781565b9050919050565b60006020820190508181036000830152612dd4816127c1565b9050919050565b60006020820190508181036000830152612df481612827565b9050919050565b60006020820190508181036000830152612e148161288d565b9050919050565b60006020820190508181036000830152612e34816128f3565b9050919050565b60006020820190508181036000830152612e5481612959565b9050919050565b60006020820190508181036000830152612e7481612999565b9050919050565b60006020820190508181036000830152612e94816129ff565b9050919050565b60006020820190508181036000830152612eb481612a65565b9050919050565b60006020820190508181036000830152612ed481612acb565b9050919050565b60006020820190508181036000830152612ef481612b31565b9050919050565b60006020820190508181036000830152612f1481612b97565b9050919050565b6000602082019050612f306000830184612bfd565b92915050565b6000608082019050612f4b6000830187612bfd565b612f586020830186612bfd565b8181036040830152612f6a818561260b565b90508181036060830152612f7e818461260b565b905095945050505050565b6000604051905081810181811067ffffffffffffffff82111715612fb057612faf613307565b5b8060405250919050565b600067ffffffffffffffff821115612fd557612fd4613307565b5b601f19601f8301169050602081019050919050565b600067ffffffffffffffff82111561300557613004613307565b5b601f19601f8301169050602081019050919050565b600081519050919050565b600081519050919050565b600082825260208201905092915050565b600082825260208201905092915050565b600081905092915050565b600061306882613182565b915061307383613182565b9250827fffffffffffffffffffffffffffffffffffffffffffffffffffffffffffffffff038211156130a8576130a761327a565b5b828201905092915050565b60006130be82613182565b91506130c983613182565b9250826130d9576130d86132a9565b5b828204905092915050565b60006130ef82613182565b91506130fa83613182565b92508282101561310d5761310c61327a565b5b828203905092915050565b600061312382613162565b9050919050565b60008115159050919050565b60007fffffffff0000000000000000000000000000000000000000000000000000000082169050919050565b600073ffffffffffffffffffffffffffffffffffffffff82169050919050565b6000819050919050565b82818337600083830152505050565b60005b838110156131b957808201518184015260208101905061319e565b838111156131c8576000848401525b50505050565b600060028204905060018216806131e657607f821691505b602082108114156131fa576131f96132d8565b5b50919050565b600061320b82613182565b91507fffffffffffffffffffffffffffffffffffffffffffffffffffffffffffffffff82141561323e5761323d61327a565b5b600182019050919050565b600061325482613182565b915061325f83613182565b92508261326f5761326e6132a9565b5b828206905092915050565b7f4e487b7100000000000000000000000000000000000000000000000000000000600052601160045260246000fd5b7f4e487b7100000000000000000000000000000000000000000000000000000000600052601260045260246000fd5b7f4e487b7100000000000000000000000000000000000000000000000000000000600052602260045260246000fd5b7f4e487b7100000000000000000000000000000000000000000000000000000000600052604160045260246000fd5b6000601f19601f8301169050919050565b61335081613118565b811461335b57600080fd5b50565b6133678161312a565b811461337257600080fd5b50565b61337e81613136565b811461338957600080fd5b50565b61339581613182565b81146133a057600080fd5b5056fea26469706673582212200779b32efebe959ca59a756fcf338eb53371f03bb690b4e6ecc0deee34ae204264736f6c63430008000033",
  "immutableReferences": {},
  "source": "// SPDX-License-Identifier: MIT\r\npragma solidity >=0.4.22 <0.9.0;\r\n\r\n\r\n// import \"@openzeppelin/contracts/token/ERC721/presets/ERC721PresetMinterPauserAutoId.sol\";\r\nimport \"@openzeppelin/contracts/token/ERC721/extensions/ERC721URIStorage.sol\";\r\nimport \"@openzeppelin/contracts/utils/Counters.sol\";\r\n\r\n\r\ncontract DoBuyNFT is ERC721URIStorage {\r\n  using Counters for Counters.Counter;\r\n  address private owner;\r\n  /// @dev NFT Ids\r\n  Counters.Counter public _tokenIds;\r\n\r\n  /// @dev NFT struct\r\n  struct NFTcard {\r\n    uint256 _Ids; // NFT serial number\r\n    uint256 timestamp; // Time Created\r\n    string name; // NFT names\r\n    string image_url; // IMAGE URL\r\n  }\r\n\r\n  //  \r\n  mapping (uint256 => NFTcard) public _DoBuylist;\r\n  mapping (uint256 => address) public _DoBuyToOwner;\r\n  event DoBuyCreated (address , uint256);\r\n\r\n  /// @dev NFT Have\r\n  struct Have {\r\n    string[] name; // product name\r\n    // uint16[] amounts; // product amount\r\n  }\r\n\r\n  /// @dev NFT  \r\n  mapping (address => Have) DoBuyCounts;\r\n\r\n  /// @dev Trade Ids\r\n  Counters.Counter public _tradeIds;\r\n\r\n  /// @dev Trade struct\r\n  struct tradeTrans {\r\n    address _from;\r\n    address _to;\r\n    string name;\r\n  }\r\n\r\n  // NFT \r\n  mapping (uint256 => tradeTrans) public _TradeTransaction;\r\n\r\n  constructor() ERC721(\"DoBuyNFT\", \"DBNFT\") {\r\n    owner = msg.sender;\r\n    _DoBuylist[_tokenIds.current()] = NFTcard(_tokenIds.current(), block.timestamp, \"DoBuy Start!\", \"DoBuy.png\");\r\n    _DoBuyToOwner[_tokenIds.current()] = msg.sender;\r\n    emit DoBuyCreated(msg.sender, _tokenIds.current());\r\n  }\r\n\r\n  /**\r\n   *  @dev NFT   NFT Token \r\n   *  @param _name NFT \r\n   *  @param _image_url NFT  \r\n   */\r\n  function mint(string memory _name, string memory _image_url) public {\r\n    _tokenIds.increment();\r\n    uint256 newItemId = _tokenIds.current();\r\n    _DoBuylist[newItemId] = NFTcard(newItemId, block.timestamp, _name, _image_url);\r\n    _mint(msg.sender, newItemId);\r\n    _DoBuyToOwner[newItemId] = msg.sender;\r\n    emit DoBuyCreated(msg.sender, newItemId);\r\n  }\r\n\r\n  /**\r\n   *  @dev NFT  \r\n   *  @param _Id NFT _Ids\r\n   */\r\n  function transferNFT(uint256 _Id) external {\r\n    address temp = _DoBuyToOwner[_Id];\r\n    _tradeIds.increment();\r\n    _transfer(temp, msg.sender, _Id);\r\n    _DoBuyToOwner[_Id] = msg.sender;\r\n    _TradeTransaction[_tradeIds.current()] = tradeTrans(temp, msg.sender, _DoBuylist[_Id].name);\r\n  }\r\n\r\n    //   /// @dev NFT \r\n    // /// 1.   NFT      (: )\r\n    // /// 2.      \r\n    // /// 3.    approve safeTransferFrom   (: )\r\n    // function buyNFTfromUser(uint newItemId) public {\r\n    //     //require(isPayed);\r\n    //     approve(msg.sender, newItemId);\r\n    //     safeTransferFrom(ownerOf(newItemId), msg.sender, newItemId);\r\n    // }\r\n\r\n\r\n  /// @dev delivery -    NFT \r\n  function burnNFT(uint256 _Id) external {\r\n    require(ownerOf(_Id) == msg.sender);    //  NFT burn .  burn  ...\r\n    _burn(_Id);   // NFT burn\r\n      \r\n    // 1 -  \r\n    delete _DoBuyToOwner[_Id];  //  NFT  (_DoBuyToOwner) \r\n    delete _DoBuylist[_Id];   //  NFT card  _DoBuylist   \r\n\r\n    // 2 -   \r\n    // _DoBuyToOwner[_Id] = address(0);    //  NFT  (_DoBuyToOwner) clear\r\n  }\r\n    \r\n\r\n  function _marketBuy(string memory _name, string memory _img_url) internal {\r\n    mint(_name, _img_url);\r\n  }\r\n}\r\n",
  "sourcePath": "C:/Users/redqo/Desktop/DoBuy_project/contracts/DoBuyNFT.sol",
  "compiler": {
    "name": "solc",
    "version": "0.8.0+commit.c7dfd78e.Emscripten.clang"
  },
  "schemaVersion": "3.4.1",
  "updatedAt": "2021-08-20T00:58:10.856Z",
  "networkType": "ethereum",
  "devdoc": {
    "kind": "dev",
    "methods": {
      "approve(address,uint256)": {
        "details": "See {IERC721-approve}."
      },
      "balanceOf(address)": {
        "details": "See {IERC721-balanceOf}."
      },
      "burnNFT(uint256)": {
        "details": "delivery -    NFT "
      },
      "getApproved(uint256)": {
        "details": "See {IERC721-getApproved}."
      },
      "isApprovedForAll(address,address)": {
        "details": "See {IERC721-isApprovedForAll}."
      },
      "mint(string,string)": {
        "details": "NFT   NFT Token ",
        "params": {
          "_image_url": "NFT  ",
          "_name": "NFT "
        }
      },
      "name()": {
        "details": "See {IERC721Metadata-name}."
      },
      "ownerOf(uint256)": {
        "details": "See {IERC721-ownerOf}."
      },
      "safeTransferFrom(address,address,uint256)": {
        "details": "See {IERC721-safeTransferFrom}."
      },
      "safeTransferFrom(address,address,uint256,bytes)": {
        "details": "See {IERC721-safeTransferFrom}."
      },
      "setApprovalForAll(address,bool)": {
        "details": "See {IERC721-setApprovalForAll}."
      },
      "supportsInterface(bytes4)": {
        "details": "See {IERC165-supportsInterface}."
      },
      "symbol()": {
        "details": "See {IERC721Metadata-symbol}."
      },
      "tokenURI(uint256)": {
        "details": "See {IERC721Metadata-tokenURI}."
      },
      "transferFrom(address,address,uint256)": {
        "details": "See {IERC721-transferFrom}."
      },
      "transferNFT(uint256)": {
        "details": "NFT  ",
        "params": {
          "_Id": "NFT _Ids"
        }
      }
    },
    "stateVariables": {
      "DoBuyCounts": {
        "details": "NFT  "
      },
      "_tokenIds": {
        "details": "NFT Ids"
      },
      "_tradeIds": {
        "details": "Trade Ids"
      }
    },
    "version": 1
  },
  "userdoc": {
    "kind": "user",
    "methods": {},
    "version": 1
  }
}