{
  "contractName": "DoBuyNFT",
  "abi": [
    {
      "inputs": [],
      "stateMutability": "nonpayable",
      "type": "constructor"
    },
    {
      "anonymous": false,
      "inputs": [
        {
          "indexed": true,
          "internalType": "address",
          "name": "owner",
          "type": "address"
        },
        {
          "indexed": true,
          "internalType": "address",
          "name": "approved",
          "type": "address"
        },
        {
          "indexed": true,
          "internalType": "uint256",
          "name": "tokenId",
          "type": "uint256"
        }
      ],
      "name": "Approval",
      "type": "event"
    },
    {
      "anonymous": false,
      "inputs": [
        {
          "indexed": true,
          "internalType": "address",
          "name": "owner",
          "type": "address"
        },
        {
          "indexed": true,
          "internalType": "address",
          "name": "operator",
          "type": "address"
        },
        {
          "indexed": false,
          "internalType": "bool",
          "name": "approved",
          "type": "bool"
        }
      ],
      "name": "ApprovalForAll",
      "type": "event"
    },
    {
      "anonymous": false,
      "inputs": [
        {
          "indexed": false,
          "internalType": "address",
          "name": "",
          "type": "address"
        },
        {
          "indexed": false,
          "internalType": "uint256",
          "name": "",
          "type": "uint256"
        }
      ],
      "name": "DoBuyCreated",
      "type": "event"
    },
    {
      "anonymous": false,
      "inputs": [
        {
          "indexed": true,
          "internalType": "address",
          "name": "from",
          "type": "address"
        },
        {
          "indexed": true,
          "internalType": "address",
          "name": "to",
          "type": "address"
        },
        {
          "indexed": true,
          "internalType": "uint256",
          "name": "tokenId",
          "type": "uint256"
        }
      ],
      "name": "Transfer",
      "type": "event"
    },
    {
      "inputs": [
        {
          "internalType": "uint256",
          "name": "",
          "type": "uint256"
        }
      ],
      "name": "_DoBuyToOwner",
      "outputs": [
        {
          "internalType": "address",
          "name": "",
          "type": "address"
        }
      ],
      "stateMutability": "view",
      "type": "function",
      "constant": true
    },
    {
      "inputs": [
        {
          "internalType": "uint256",
          "name": "",
          "type": "uint256"
        }
      ],
      "name": "_DoBuylist",
      "outputs": [
        {
          "internalType": "uint256",
          "name": "_Ids",
          "type": "uint256"
        },
        {
          "internalType": "uint256",
          "name": "timestamp",
          "type": "uint256"
        },
        {
          "internalType": "string",
          "name": "name",
          "type": "string"
        },
        {
          "internalType": "string",
          "name": "image_url",
          "type": "string"
        }
      ],
      "stateMutability": "view",
      "type": "function",
      "constant": true
    },
    {
      "inputs": [
        {
          "internalType": "uint256",
          "name": "",
          "type": "uint256"
        }
      ],
      "name": "_TradeTransaction",
      "outputs": [
        {
          "internalType": "address",
          "name": "_from",
          "type": "address"
        },
        {
          "internalType": "address",
          "name": "_to",
          "type": "address"
        },
        {
          "internalType": "string",
          "name": "name",
          "type": "string"
        }
      ],
      "stateMutability": "view",
      "type": "function",
      "constant": true
    },
    {
      "inputs": [],
      "name": "_tokenIds",
      "outputs": [
        {
          "internalType": "uint256",
          "name": "_value",
          "type": "uint256"
        }
      ],
      "stateMutability": "view",
      "type": "function",
      "constant": true
    },
    {
      "inputs": [],
      "name": "_tradeIds",
      "outputs": [
        {
          "internalType": "uint256",
          "name": "_value",
          "type": "uint256"
        }
      ],
      "stateMutability": "view",
      "type": "function",
      "constant": true
    },
    {
      "inputs": [
        {
          "internalType": "address",
          "name": "to",
          "type": "address"
        },
        {
          "internalType": "uint256",
          "name": "tokenId",
          "type": "uint256"
        }
      ],
      "name": "approve",
      "outputs": [],
      "stateMutability": "nonpayable",
      "type": "function"
    },
    {
      "inputs": [
        {
          "internalType": "address",
          "name": "owner",
          "type": "address"
        }
      ],
      "name": "balanceOf",
      "outputs": [
        {
          "internalType": "uint256",
          "name": "",
          "type": "uint256"
        }
      ],
      "stateMutability": "view",
      "type": "function",
      "constant": true
    },
    {
      "inputs": [
        {
          "internalType": "uint256",
          "name": "tokenId",
          "type": "uint256"
        }
      ],
      "name": "getApproved",
      "outputs": [
        {
          "internalType": "address",
          "name": "",
          "type": "address"
        }
      ],
      "stateMutability": "view",
      "type": "function",
      "constant": true
    },
    {
      "inputs": [
        {
          "internalType": "address",
          "name": "owner",
          "type": "address"
        },
        {
          "internalType": "address",
          "name": "operator",
          "type": "address"
        }
      ],
      "name": "isApprovedForAll",
      "outputs": [
        {
          "internalType": "bool",
          "name": "",
          "type": "bool"
        }
      ],
      "stateMutability": "view",
      "type": "function",
      "constant": true
    },
    {
      "inputs": [],
      "name": "name",
      "outputs": [
        {
          "internalType": "string",
          "name": "",
          "type": "string"
        }
      ],
      "stateMutability": "view",
      "type": "function",
      "constant": true
    },
    {
      "inputs": [
        {
          "internalType": "uint256",
          "name": "tokenId",
          "type": "uint256"
        }
      ],
      "name": "ownerOf",
      "outputs": [
        {
          "internalType": "address",
          "name": "",
          "type": "address"
        }
      ],
      "stateMutability": "view",
      "type": "function",
      "constant": true
    },
    {
      "inputs": [
        {
          "internalType": "address",
          "name": "from",
          "type": "address"
        },
        {
          "internalType": "address",
          "name": "to",
          "type": "address"
        },
        {
          "internalType": "uint256",
          "name": "tokenId",
          "type": "uint256"
        }
      ],
      "name": "safeTransferFrom",
      "outputs": [],
      "stateMutability": "nonpayable",
      "type": "function"
    },
    {
      "inputs": [
        {
          "internalType": "address",
          "name": "from",
          "type": "address"
        },
        {
          "internalType": "address",
          "name": "to",
          "type": "address"
        },
        {
          "internalType": "uint256",
          "name": "tokenId",
          "type": "uint256"
        },
        {
          "internalType": "bytes",
          "name": "_data",
          "type": "bytes"
        }
      ],
      "name": "safeTransferFrom",
      "outputs": [],
      "stateMutability": "nonpayable",
      "type": "function"
    },
    {
      "inputs": [
        {
          "internalType": "address",
          "name": "operator",
          "type": "address"
        },
        {
          "internalType": "bool",
          "name": "approved",
          "type": "bool"
        }
      ],
      "name": "setApprovalForAll",
      "outputs": [],
      "stateMutability": "nonpayable",
      "type": "function"
    },
    {
      "inputs": [
        {
          "internalType": "bytes4",
          "name": "interfaceId",
          "type": "bytes4"
        }
      ],
      "name": "supportsInterface",
      "outputs": [
        {
          "internalType": "bool",
          "name": "",
          "type": "bool"
        }
      ],
      "stateMutability": "view",
      "type": "function",
      "constant": true
    },
    {
      "inputs": [],
      "name": "symbol",
      "outputs": [
        {
          "internalType": "string",
          "name": "",
          "type": "string"
        }
      ],
      "stateMutability": "view",
      "type": "function",
      "constant": true
    },
    {
      "inputs": [
        {
          "internalType": "uint256",
          "name": "tokenId",
          "type": "uint256"
        }
      ],
      "name": "tokenURI",
      "outputs": [
        {
          "internalType": "string",
          "name": "",
          "type": "string"
        }
      ],
      "stateMutability": "view",
      "type": "function",
      "constant": true
    },
    {
      "inputs": [
        {
          "internalType": "address",
          "name": "from",
          "type": "address"
        },
        {
          "internalType": "address",
          "name": "to",
          "type": "address"
        },
        {
          "internalType": "uint256",
          "name": "tokenId",
          "type": "uint256"
        }
      ],
      "name": "transferFrom",
      "outputs": [],
      "stateMutability": "nonpayable",
      "type": "function"
    },
    {
      "inputs": [
        {
          "internalType": "string",
          "name": "_name",
          "type": "string"
        },
        {
          "internalType": "string",
          "name": "_image_url",
          "type": "string"
        }
      ],
      "name": "mint",
      "outputs": [],
      "stateMutability": "nonpayable",
      "type": "function"
    },
    {
      "inputs": [
        {
          "internalType": "uint256",
          "name": "_Id",
          "type": "uint256"
        }
      ],
      "name": "transferNFT",
      "outputs": [],
      "stateMutability": "nonpayable",
      "type": "function"
    },
    {
      "inputs": [],
      "name": "buyNFT",
      "outputs": [],
      "stateMutability": "nonpayable",
      "type": "function"
    }
  ],
  "bytecode": "0x60806040523480156200001157600080fd5b506040518060400160405280600881526020017f446f4275794e46540000000000000000000000000000000000000000000000008152506040518060400160405280600581526020017f44424e46540000000000000000000000000000000000000000000000000000008152508160009080519060200190620000969291906200029e565b508060019080519060200190620000af9291906200029e565b5050506040518060800160405280620000d460076200029060201b620013951760201c565b81526020014281526020016040518060400160405280600c81526020017f446f42757920537461727421000000000000000000000000000000000000000081525081526020016040518060400160405280600981526020017f446f4275792e706e670000000000000000000000000000000000000000000000815250815250600860006200016e60076200029060201b620013951760201c565b815260200190815260200160002060008201518160000155602082015181600101556040820151816002019080519060200190620001ae9291906200029e565b506060820151816003019080519060200190620001cd9291906200029e565b509050503360096000620001ed60076200029060201b620013951760201c565b815260200190815260200160002060006101000a81548173ffffffffffffffffffffffffffffffffffffffff021916908373ffffffffffffffffffffffffffffffffffffffff1602179055507f4f2674a5f38c00ecf9e7a1ac775675d39c487ab7c82bcc4ec772cdee89c2598e336200027260076200029060201b620013951760201c565b6040516200028292919062000370565b60405180910390a162000440565b600081600001549050919050565b828054620002ac90620003db565b90600052602060002090601f016020900481019282620002d057600085556200031c565b82601f10620002eb57805160ff19168380011785556200031c565b828001600101855582156200031c579182015b828111156200031b578251825591602001919060010190620002fe565b5b5090506200032b91906200032f565b5090565b5b808211156200034a57600081600090555060010162000330565b5090565b62000359816200039d565b82525050565b6200036a81620003d1565b82525050565b60006040820190506200038760008301856200034e565b6200039660208301846200035f565b9392505050565b6000620003aa82620003b1565b9050919050565b600073ffffffffffffffffffffffffffffffffffffffff82169050919050565b6000819050919050565b60006002820490506001821680620003f457607f821691505b602082108114156200040b576200040a62000411565b5b50919050565b7f4e487b7100000000000000000000000000000000000000000000000000000000600052602260045260246000fd5b61315d80620004506000396000f3fe608060405234801561001057600080fd5b50600436106101375760003560e01c80638aa0fdad116100b8578063bff29cee1161007c578063bff29cee14610338578063c87b56dd14610342578063cf60e68114610372578063e985e9c5146103a5578063eeea7437146103d5578063f83b3c861461040757610137565b80638aa0fdad146102a857806395d89b41146102c4578063a22cb465146102e2578063aa46a400146102fe578063b88d4fde1461031c57610137565b8063249e10c5116100ff578063249e10c5146101f257806342842e0e1461020e5780636352211e1461022a5780636eb75dad1461025a57806370a082311461027857610137565b806301ffc9a71461013c57806306fdde031461016c578063081812fc1461018a578063095ea7b3146101ba57806323b872dd146101d6575b600080fd5b61015660048036038101906101519190612251565b610437565b6040516101639190612a82565b60405180910390f35b610174610519565b6040516101819190612a9d565b60405180910390f35b6101a4600480360381019061019f919061230f565b6105ab565b6040516101b191906129b4565b60405180910390f35b6101d460048036038101906101cf9190612215565b610630565b005b6101f060048036038101906101eb919061210f565b610748565b005b61020c6004803603810190610207919061230f565b6107a8565b005b6102286004803603810190610223919061210f565b6109fa565b005b610244600480360381019061023f919061230f565b610a1a565b60405161025191906129b4565b60405180910390f35b610262610acc565b60405161026f9190612c9f565b60405180910390f35b610292600480360381019061028d91906120aa565b610ad8565b60405161029f9190612c9f565b60405180910390f35b6102c260048036038101906102bd91906122a3565b610b90565b005b6102cc610cc7565b6040516102d99190612a9d565b60405180910390f35b6102fc60048036038101906102f791906121d9565b610d59565b005b610306610eda565b6040516103139190612c9f565b60405180910390f35b6103366004803603810190610331919061215e565b610ee6565b005b610340610f48565b005b61035c6004803603810190610357919061230f565b610f4a565b6040516103699190612a9d565b60405180910390f35b61038c6004803603810190610387919061230f565b61109c565b60405161039c9493929190612cba565b60405180910390f35b6103bf60048036038101906103ba91906120d3565b6111dc565b6040516103cc9190612a82565b60405180910390f35b6103ef60048036038101906103ea919061230f565b611270565b6040516103fe939291906129cf565b60405180910390f35b610421600480360381019061041c919061230f565b611362565b60405161042e91906129b4565b60405180910390f35b60007f80ac58cd000000000000000000000000000000000000000000000000000000007bffffffffffffffffffffffffffffffffffffffffffffffffffffffff1916827bffffffffffffffffffffffffffffffffffffffffffffffffffffffff1916148061050257507f5b5e139f000000000000000000000000000000000000000000000000000000007bffffffffffffffffffffffffffffffffffffffffffffffffffffffff1916827bffffffffffffffffffffffffffffffffffffffffffffffffffffffff1916145b806105125750610511826113a3565b5b9050919050565b60606000805461052890612f52565b80601f016020809104026020016040519081016040528092919081815260200182805461055490612f52565b80156105a15780601f10610576576101008083540402835291602001916105a1565b820191906000526020600020905b81548152906001019060200180831161058457829003601f168201915b5050505050905090565b60006105b68261140d565b6105f5576040517f08c379a00000000000000000000000000000000000000000000000000000000081526004016105ec90612bff565b60405180910390fd5b6004600083815260200190815260200160002060009054906101000a900473ffffffffffffffffffffffffffffffffffffffff169050919050565b600061063b82610a1a565b90508073ffffffffffffffffffffffffffffffffffffffff168373ffffffffffffffffffffffffffffffffffffffff1614156106ac576040517f08c379a00000000000000000000000000000000000000000000000000000000081526004016106a390612c5f565b60405180910390fd5b8073ffffffffffffffffffffffffffffffffffffffff166106cb611479565b73ffffffffffffffffffffffffffffffffffffffff1614806106fa57506106f9816106f4611479565b6111dc565b5b610739576040517f08c379a000000000000000000000000000000000000000000000000000000000815260040161073090612b5f565b60405180910390fd5b6107438383611481565b505050565b610759610753611479565b8261153a565b610798576040517f08c379a000000000000000000000000000000000000000000000000000000000815260040161078f90612c7f565b60405180910390fd5b6107a3838383611618565b505050565b60006009600083815260200190815260200160002060009054906101000a900473ffffffffffffffffffffffffffffffffffffffff1690506107ea600a611874565b6107f5813384611618565b336009600084815260200190815260200160002060006101000a81548173ffffffffffffffffffffffffffffffffffffffff021916908373ffffffffffffffffffffffffffffffffffffffff16021790555060405180606001604052808273ffffffffffffffffffffffffffffffffffffffff1681526020013373ffffffffffffffffffffffffffffffffffffffff1681526020016008600085815260200190815260200160002060020180546108ab90612f52565b80601f01602080910402602001604051908101604052809291908181526020018280546108d790612f52565b80156109245780601f106108f957610100808354040283529160200191610924565b820191906000526020600020905b81548152906001019060200180831161090757829003601f168201915b5050505050815250600b600061093a600a611395565b815260200190815260200160002060008201518160000160006101000a81548173ffffffffffffffffffffffffffffffffffffffff021916908373ffffffffffffffffffffffffffffffffffffffff16021790555060208201518160010160006101000a81548173ffffffffffffffffffffffffffffffffffffffff021916908373ffffffffffffffffffffffffffffffffffffffff16021790555060408201518160020190805190602001906109f2929190611ece565b509050505050565b610a1583838360405180602001604052806000815250610ee6565b505050565b6000806002600084815260200190815260200160002060009054906101000a900473ffffffffffffffffffffffffffffffffffffffff169050600073ffffffffffffffffffffffffffffffffffffffff168173ffffffffffffffffffffffffffffffffffffffff161415610ac3576040517f08c379a0000000000000000000000000000000000000000000000000000000008152600401610aba90612b9f565b60405180910390fd5b80915050919050565b600a8060000154905081565b60008073ffffffffffffffffffffffffffffffffffffffff168273ffffffffffffffffffffffffffffffffffffffff161415610b49576040517f08c379a0000000000000000000000000000000000000000000000000000000008152600401610b4090612b7f565b60405180910390fd5b600360008373ffffffffffffffffffffffffffffffffffffffff1673ffffffffffffffffffffffffffffffffffffffff168152602001908152602001600020549050919050565b610b9a6007611874565b6000610ba66007611395565b90506040518060800160405280828152602001428152602001848152602001838152506008600083815260200190815260200160002060008201518160000155602082015181600101556040820151816002019080519060200190610c0c929190611ece565b506060820151816003019080519060200190610c29929190611ece565b50905050610c37338261188a565b336009600083815260200190815260200160002060006101000a81548173ffffffffffffffffffffffffffffffffffffffff021916908373ffffffffffffffffffffffffffffffffffffffff1602179055507f4f2674a5f38c00ecf9e7a1ac775675d39c487ab7c82bcc4ec772cdee89c2598e3382604051610cba929190612a59565b60405180910390a1505050565b606060018054610cd690612f52565b80601f0160208091040260200160405190810160405280929190818152602001828054610d0290612f52565b8015610d4f5780601f10610d2457610100808354040283529160200191610d4f565b820191906000526020600020905b815481529060010190602001808311610d3257829003601f168201915b5050505050905090565b610d61611479565b73ffffffffffffffffffffffffffffffffffffffff168273ffffffffffffffffffffffffffffffffffffffff161415610dcf576040517f08c379a0000000000000000000000000000000000000000000000000000000008152600401610dc690612b1f565b60405180910390fd5b8060056000610ddc611479565b73ffffffffffffffffffffffffffffffffffffffff1673ffffffffffffffffffffffffffffffffffffffff16815260200190815260200160002060008473ffffffffffffffffffffffffffffffffffffffff1673ffffffffffffffffffffffffffffffffffffffff16815260200190815260200160002060006101000a81548160ff0219169083151502179055508173ffffffffffffffffffffffffffffffffffffffff16610e89611479565b73ffffffffffffffffffffffffffffffffffffffff167f17307eab39ab6107e8899845ad3d59bd9653f200f220920489ca2b5937696c3183604051610ece9190612a82565b60405180910390a35050565b60078060000154905081565b610ef7610ef1611479565b8361153a565b610f36576040517f08c379a0000000000000000000000000000000000000000000000000000000008152600401610f2d90612c7f565b60405180910390fd5b610f4284848484611a58565b50505050565b565b6060610f558261140d565b610f94576040517f08c379a0000000000000000000000000000000000000000000000000000000008152600401610f8b90612bdf565b60405180910390fd5b6000600660008481526020019081526020016000208054610fb490612f52565b80601f0160208091040260200160405190810160405280929190818152602001828054610fe090612f52565b801561102d5780601f106110025761010080835404028352916020019161102d565b820191906000526020600020905b81548152906001019060200180831161101057829003601f168201915b50505050509050600061103e611ab4565b9050600081511415611054578192505050611097565b600082511115611089578082604051602001611071929190612990565b60405160208183030381529060405292505050611097565b61109284611acb565b925050505b919050565b60086020528060005260406000206000915090508060000154908060010154908060020180546110cb90612f52565b80601f01602080910402602001604051908101604052809291908181526020018280546110f790612f52565b80156111445780601f1061111957610100808354040283529160200191611144565b820191906000526020600020905b81548152906001019060200180831161112757829003601f168201915b50505050509080600301805461115990612f52565b80601f016020809104026020016040519081016040528092919081815260200182805461118590612f52565b80156111d25780601f106111a7576101008083540402835291602001916111d2565b820191906000526020600020905b8154815290600101906020018083116111b557829003601f168201915b5050505050905084565b6000600560008473ffffffffffffffffffffffffffffffffffffffff1673ffffffffffffffffffffffffffffffffffffffff16815260200190815260200160002060008373ffffffffffffffffffffffffffffffffffffffff1673ffffffffffffffffffffffffffffffffffffffff16815260200190815260200160002060009054906101000a900460ff16905092915050565b600b6020528060005260406000206000915090508060000160009054906101000a900473ffffffffffffffffffffffffffffffffffffffff16908060010160009054906101000a900473ffffffffffffffffffffffffffffffffffffffff16908060020180546112df90612f52565b80601f016020809104026020016040519081016040528092919081815260200182805461130b90612f52565b80156113585780601f1061132d57610100808354040283529160200191611358565b820191906000526020600020905b81548152906001019060200180831161133b57829003601f168201915b5050505050905083565b60096020528060005260406000206000915054906101000a900473ffffffffffffffffffffffffffffffffffffffff1681565b600081600001549050919050565b60007f01ffc9a7000000000000000000000000000000000000000000000000000000007bffffffffffffffffffffffffffffffffffffffffffffffffffffffff1916827bffffffffffffffffffffffffffffffffffffffffffffffffffffffff1916149050919050565b60008073ffffffffffffffffffffffffffffffffffffffff166002600084815260200190815260200160002060009054906101000a900473ffffffffffffffffffffffffffffffffffffffff1673ffffffffffffffffffffffffffffffffffffffff1614159050919050565b600033905090565b816004600083815260200190815260200160002060006101000a81548173ffffffffffffffffffffffffffffffffffffffff021916908373ffffffffffffffffffffffffffffffffffffffff160217905550808273ffffffffffffffffffffffffffffffffffffffff166114f483610a1a565b73ffffffffffffffffffffffffffffffffffffffff167f8c5be1e5ebec7d5bd14f71427d1e84f3dd0314c0f7b2291e5b200ac8c7c3b92560405160405180910390a45050565b60006115458261140d565b611584576040517f08c379a000000000000000000000000000000000000000000000000000000000815260040161157b90612b3f565b60405180910390fd5b600061158f83610a1a565b90508073ffffffffffffffffffffffffffffffffffffffff168473ffffffffffffffffffffffffffffffffffffffff1614806115fe57508373ffffffffffffffffffffffffffffffffffffffff166115e6846105ab565b73ffffffffffffffffffffffffffffffffffffffff16145b8061160f575061160e81856111dc565b5b91505092915050565b8273ffffffffffffffffffffffffffffffffffffffff1661163882610a1a565b73ffffffffffffffffffffffffffffffffffffffff161461168e576040517f08c379a000000000000000000000000000000000000000000000000000000000815260040161168590612c1f565b60405180910390fd5b600073ffffffffffffffffffffffffffffffffffffffff168273ffffffffffffffffffffffffffffffffffffffff1614156116fe576040517f08c379a00000000000000000000000000000000000000000000000000000000081526004016116f590612aff565b60405180910390fd5b611709838383611b72565b611714600082611481565b6001600360008573ffffffffffffffffffffffffffffffffffffffff1673ffffffffffffffffffffffffffffffffffffffff16815260200190815260200160002060008282546117649190612e68565b925050819055506001600360008473ffffffffffffffffffffffffffffffffffffffff1673ffffffffffffffffffffffffffffffffffffffff16815260200190815260200160002060008282546117bb9190612de1565b92505081905550816002600083815260200190815260200160002060006101000a81548173ffffffffffffffffffffffffffffffffffffffff021916908373ffffffffffffffffffffffffffffffffffffffff160217905550808273ffffffffffffffffffffffffffffffffffffffff168473ffffffffffffffffffffffffffffffffffffffff167fddf252ad1be2c89b69c2b068fc378daa952ba7f163c4a11628f55a4df523b3ef60405160405180910390a4505050565b6001816000016000828254019250508190555050565b600073ffffffffffffffffffffffffffffffffffffffff168273ffffffffffffffffffffffffffffffffffffffff1614156118fa576040517f08c379a00000000000000000000000000000000000000000000000000000000081526004016118f190612bbf565b60405180910390fd5b6119038161140d565b15611943576040517f08c379a000000000000000000000000000000000000000000000000000000000815260040161193a90612adf565b60405180910390fd5b61194f60008383611b72565b6001600360008473ffffffffffffffffffffffffffffffffffffffff1673ffffffffffffffffffffffffffffffffffffffff168152602001908152602001600020600082825461199f9190612de1565b92505081905550816002600083815260200190815260200160002060006101000a81548173ffffffffffffffffffffffffffffffffffffffff021916908373ffffffffffffffffffffffffffffffffffffffff160217905550808273ffffffffffffffffffffffffffffffffffffffff16600073ffffffffffffffffffffffffffffffffffffffff167fddf252ad1be2c89b69c2b068fc378daa952ba7f163c4a11628f55a4df523b3ef60405160405180910390a45050565b611a63848484611618565b611a6f84848484611b77565b611aae576040517f08c379a0000000000000000000000000000000000000000000000000000000008152600401611aa590612abf565b60405180910390fd5b50505050565b606060405180602001604052806000815250905090565b6060611ad68261140d565b611b15576040517f08c379a0000000000000000000000000000000000000000000000000000000008152600401611b0c90612c3f565b60405180910390fd5b6000611b1f611ab4565b90506000815111611b3f5760405180602001604052806000815250611b6a565b80611b4984611d0e565b604051602001611b5a929190612990565b6040516020818303038152906040525b915050919050565b505050565b6000611b988473ffffffffffffffffffffffffffffffffffffffff16611ebb565b15611d01578373ffffffffffffffffffffffffffffffffffffffff1663150b7a02611bc1611479565b8786866040518563ffffffff1660e01b8152600401611be39493929190612a0d565b602060405180830381600087803b158015611bfd57600080fd5b505af1925050508015611c2e57506040513d601f19601f82011682018060405250810190611c2b919061227a565b60015b611cb1573d8060008114611c5e576040519150601f19603f3d011682016040523d82523d6000602084013e611c63565b606091505b50600081511415611ca9576040517f08c379a0000000000000000000000000000000000000000000000000000000008152600401611ca090612abf565b60405180910390fd5b805181602001fd5b63150b7a0260e01b7bffffffffffffffffffffffffffffffffffffffffffffffffffffffff1916817bffffffffffffffffffffffffffffffffffffffffffffffffffffffff191614915050611d06565b600190505b949350505050565b60606000821415611d56576040518060400160405280600181526020017f30000000000000000000000000000000000000000000000000000000000000008152509050611eb6565b600082905060005b60008214611d88578080611d7190612f84565b915050600a82611d819190612e37565b9150611d5e565b60008167ffffffffffffffff811115611dca577f4e487b7100000000000000000000000000000000000000000000000000000000600052604160045260246000fd5b6040519080825280601f01601f191660200182016040528015611dfc5781602001600182028036833780820191505090505b5090505b60008514611eaf57600182611e159190612e68565b9150600a85611e249190612fcd565b6030611e309190612de1565b60f81b818381518110611e6c577f4e487b7100000000000000000000000000000000000000000000000000000000600052603260045260246000fd5b60200101907effffffffffffffffffffffffffffffffffffffffffffffffffffffffffffff1916908160001a905350600a85611ea89190612e37565b9450611e00565b8093505050505b919050565b600080823b905060008111915050919050565b828054611eda90612f52565b90600052602060002090601f016020900481019282611efc5760008555611f43565b82601f10611f1557805160ff1916838001178555611f43565b82800160010185558215611f43579182015b82811115611f42578251825591602001919060010190611f27565b5b509050611f509190611f54565b5090565b5b80821115611f6d576000816000905550600101611f55565b5090565b6000611f84611f7f84612d3e565b612d0d565b905082815260208101848484011115611f9c57600080fd5b611fa7848285612f10565b509392505050565b6000611fc2611fbd84612d6e565b612d0d565b905082815260208101848484011115611fda57600080fd5b611fe5848285612f10565b509392505050565b600081359050611ffc816130cb565b92915050565b600081359050612011816130e2565b92915050565b600081359050612026816130f9565b92915050565b60008151905061203b816130f9565b92915050565b600082601f83011261205257600080fd5b8135612062848260208601611f71565b91505092915050565b600082601f83011261207c57600080fd5b813561208c848260208601611faf565b91505092915050565b6000813590506120a481613110565b92915050565b6000602082840312156120bc57600080fd5b60006120ca84828501611fed565b91505092915050565b600080604083850312156120e657600080fd5b60006120f485828601611fed565b925050602061210585828601611fed565b9150509250929050565b60008060006060848603121561212457600080fd5b600061213286828701611fed565b935050602061214386828701611fed565b925050604061215486828701612095565b9150509250925092565b6000806000806080858703121561217457600080fd5b600061218287828801611fed565b945050602061219387828801611fed565b93505060406121a487828801612095565b925050606085013567ffffffffffffffff8111156121c157600080fd5b6121cd87828801612041565b91505092959194509250565b600080604083850312156121ec57600080fd5b60006121fa85828601611fed565b925050602061220b85828601612002565b9150509250929050565b6000806040838503121561222857600080fd5b600061223685828601611fed565b925050602061224785828601612095565b9150509250929050565b60006020828403121561226357600080fd5b600061227184828501612017565b91505092915050565b60006020828403121561228c57600080fd5b600061229a8482850161202c565b91505092915050565b600080604083850312156122b657600080fd5b600083013567ffffffffffffffff8111156122d057600080fd5b6122dc8582860161206b565b925050602083013567ffffffffffffffff8111156122f957600080fd5b6123058582860161206b565b9150509250929050565b60006020828403121561232157600080fd5b600061232f84828501612095565b91505092915050565b61234181612e9c565b82525050565b61235081612eae565b82525050565b600061236182612d9e565b61236b8185612db4565b935061237b818560208601612f1f565b612384816130ba565b840191505092915050565b600061239a82612da9565b6123a48185612dc5565b93506123b4818560208601612f1f565b6123bd816130ba565b840191505092915050565b60006123d382612da9565b6123dd8185612dd6565b93506123ed818560208601612f1f565b80840191505092915050565b6000612406603283612dc5565b91507f4552433732313a207472616e7366657220746f206e6f6e20455243373231526560008301527f63656976657220696d706c656d656e74657200000000000000000000000000006020830152604082019050919050565b600061246c601c83612dc5565b91507f4552433732313a20746f6b656e20616c7265616479206d696e746564000000006000830152602082019050919050565b60006124ac602483612dc5565b91507f4552433732313a207472616e7366657220746f20746865207a65726f2061646460008301527f72657373000000000000000000000000000000000000000000000000000000006020830152604082019050919050565b6000612512601983612dc5565b91507f4552433732313a20617070726f766520746f2063616c6c6572000000000000006000830152602082019050919050565b6000612552602c83612dc5565b91507f4552433732313a206f70657261746f7220717565727920666f72206e6f6e657860008301527f697374656e7420746f6b656e00000000000000000000000000000000000000006020830152604082019050919050565b60006125b8603883612dc5565b91507f4552433732313a20617070726f76652063616c6c6572206973206e6f74206f7760008301527f6e6572206e6f7220617070726f76656420666f7220616c6c00000000000000006020830152604082019050919050565b600061261e602a83612dc5565b91507f4552433732313a2062616c616e636520717565727920666f7220746865207a6560008301527f726f2061646472657373000000000000000000000000000000000000000000006020830152604082019050919050565b6000612684602983612dc5565b91507f4552433732313a206f776e657220717565727920666f72206e6f6e657869737460008301527f656e7420746f6b656e00000000000000000000000000000000000000000000006020830152604082019050919050565b60006126ea602083612dc5565b91507f4552433732313a206d696e7420746f20746865207a65726f20616464726573736000830152602082019050919050565b600061272a603183612dc5565b91507f45524337323155524953746f726167653a2055524920717565727920666f722060008301527f6e6f6e6578697374656e7420746f6b656e0000000000000000000000000000006020830152604082019050919050565b6000612790602c83612dc5565b91507f4552433732313a20617070726f76656420717565727920666f72206e6f6e657860008301527f697374656e7420746f6b656e00000000000000000000000000000000000000006020830152604082019050919050565b60006127f6602983612dc5565b91507f4552433732313a207472616e73666572206f6620746f6b656e2074686174206960008301527f73206e6f74206f776e00000000000000000000000000000000000000000000006020830152604082019050919050565b600061285c602f83612dc5565b91507f4552433732314d657461646174613a2055524920717565727920666f72206e6f60008301527f6e6578697374656e7420746f6b656e00000000000000000000000000000000006020830152604082019050919050565b60006128c2602183612dc5565b91507f4552433732313a20617070726f76616c20746f2063757272656e74206f776e6560008301527f72000000000000000000000000000000000000000000000000000000000000006020830152604082019050919050565b6000612928603183612dc5565b91507f4552433732313a207472616e736665722063616c6c6572206973206e6f74206f60008301527f776e6572206e6f7220617070726f7665640000000000000000000000000000006020830152604082019050919050565b61298a81612f06565b82525050565b600061299c82856123c8565b91506129a882846123c8565b91508190509392505050565b60006020820190506129c96000830184612338565b92915050565b60006060820190506129e46000830186612338565b6129f16020830185612338565b8181036040830152612a03818461238f565b9050949350505050565b6000608082019050612a226000830187612338565b612a2f6020830186612338565b612a3c6040830185612981565b8181036060830152612a4e8184612356565b905095945050505050565b6000604082019050612a6e6000830185612338565b612a7b6020830184612981565b9392505050565b6000602082019050612a976000830184612347565b92915050565b60006020820190508181036000830152612ab7818461238f565b905092915050565b60006020820190508181036000830152612ad8816123f9565b9050919050565b60006020820190508181036000830152612af88161245f565b9050919050565b60006020820190508181036000830152612b188161249f565b9050919050565b60006020820190508181036000830152612b3881612505565b9050919050565b60006020820190508181036000830152612b5881612545565b9050919050565b60006020820190508181036000830152612b78816125ab565b9050919050565b60006020820190508181036000830152612b9881612611565b9050919050565b60006020820190508181036000830152612bb881612677565b9050919050565b60006020820190508181036000830152612bd8816126dd565b9050919050565b60006020820190508181036000830152612bf88161271d565b9050919050565b60006020820190508181036000830152612c1881612783565b9050919050565b60006020820190508181036000830152612c38816127e9565b9050919050565b60006020820190508181036000830152612c588161284f565b9050919050565b60006020820190508181036000830152612c78816128b5565b9050919050565b60006020820190508181036000830152612c988161291b565b9050919050565b6000602082019050612cb46000830184612981565b92915050565b6000608082019050612ccf6000830187612981565b612cdc6020830186612981565b8181036040830152612cee818561238f565b90508181036060830152612d02818461238f565b905095945050505050565b6000604051905081810181811067ffffffffffffffff82111715612d3457612d3361308b565b5b8060405250919050565b600067ffffffffffffffff821115612d5957612d5861308b565b5b601f19601f8301169050602081019050919050565b600067ffffffffffffffff821115612d8957612d8861308b565b5b601f19601f8301169050602081019050919050565b600081519050919050565b600081519050919050565b600082825260208201905092915050565b600082825260208201905092915050565b600081905092915050565b6000612dec82612f06565b9150612df783612f06565b9250827fffffffffffffffffffffffffffffffffffffffffffffffffffffffffffffffff03821115612e2c57612e2b612ffe565b5b828201905092915050565b6000612e4282612f06565b9150612e4d83612f06565b925082612e5d57612e5c61302d565b5b828204905092915050565b6000612e7382612f06565b9150612e7e83612f06565b925082821015612e9157612e90612ffe565b5b828203905092915050565b6000612ea782612ee6565b9050919050565b60008115159050919050565b60007fffffffff0000000000000000000000000000000000000000000000000000000082169050919050565b600073ffffffffffffffffffffffffffffffffffffffff82169050919050565b6000819050919050565b82818337600083830152505050565b60005b83811015612f3d578082015181840152602081019050612f22565b83811115612f4c576000848401525b50505050565b60006002820490506001821680612f6a57607f821691505b60208210811415612f7e57612f7d61305c565b5b50919050565b6000612f8f82612f06565b91507fffffffffffffffffffffffffffffffffffffffffffffffffffffffffffffffff821415612fc257612fc1612ffe565b5b600182019050919050565b6000612fd882612f06565b9150612fe383612f06565b925082612ff357612ff261302d565b5b828206905092915050565b7f4e487b7100000000000000000000000000000000000000000000000000000000600052601160045260246000fd5b7f4e487b7100000000000000000000000000000000000000000000000000000000600052601260045260246000fd5b7f4e487b7100000000000000000000000000000000000000000000000000000000600052602260045260246000fd5b7f4e487b7100000000000000000000000000000000000000000000000000000000600052604160045260246000fd5b6000601f19601f8301169050919050565b6130d481612e9c565b81146130df57600080fd5b50565b6130eb81612eae565b81146130f657600080fd5b50565b61310281612eba565b811461310d57600080fd5b50565b61311981612f06565b811461312457600080fd5b5056fea264697066735822122054456b95569f9aec23bbe3ebca39772bfd563a8a49ff86f59ad147004bdbebd364736f6c63430008000033",
  "immutableReferences": {},
  "source": "// SPDX-License-Identifier: MIT\npragma solidity >=0.4.22 <0.9.0;\n\n\n// import \"@openzeppelin/contracts/token/ERC721/presets/ERC721PresetMinterPauserAutoId.sol\";\nimport \"@openzeppelin/contracts/token/ERC721/extensions/ERC721URIStorage.sol\";\nimport \"@openzeppelin/contracts/utils/Counters.sol\";\n\n\ncontract DoBuyNFT is ERC721URIStorage {\n  using Counters for Counters.Counter;\n\n  /// @dev NFT Ids\n  Counters.Counter public _tokenIds;\n\n  /// @dev NFT struct\n  struct NFTcard {\n    uint256 _Ids; // NFT serial number\n    uint256 timestamp; // Time Created\n    string name; // NFT names\n    string image_url; // IMAGE URL\n  }\n\n  //  \n  mapping (uint256 => NFTcard) public _DoBuylist;\n  mapping (uint256 => address) public _DoBuyToOwner;\n  event DoBuyCreated (address , uint256);\n\n  /// @dev Trade Ids\n  Counters.Counter public _tradeIds;\n\n  /// @dev Trade struct\n  struct tradeTrans {\n    address _from;\n    address _to;\n    string name;\n  }\n\n  // NFT \n  mapping (uint256 => tradeTrans) public _TradeTransaction;\n\n  constructor() ERC721(\"DoBuyNFT\", \"DBNFT\") {\n    _DoBuylist[_tokenIds.current()] = NFTcard(_tokenIds.current(), block.timestamp, \"DoBuy Start!\", \"DoBuy.png\");\n    _DoBuyToOwner[_tokenIds.current()] = msg.sender;\n    emit DoBuyCreated(msg.sender, _tokenIds.current());\n  }\n\n  /**\n   *  @dev NFT   NFT Token \n   *  @param _name NFT \n   *  @param _image_url NFT  \n   */\n  function mint(string memory _name, string memory _image_url) external {\n    _tokenIds.increment();\n    uint256 newItemId = _tokenIds.current();\n    _DoBuylist[newItemId] = NFTcard(newItemId, block.timestamp, _name, _image_url);\n    _mint(msg.sender, newItemId);\n    _DoBuyToOwner[newItemId] = msg.sender;\n    emit DoBuyCreated(msg.sender, newItemId);\n  }\n\n  /**\n   *  @dev NFT  \n   *  @param _Id NFT _Ids\n   */\n  function transferNFT(uint256 _Id) external {\n    address temp = _DoBuyToOwner[_Id];\n    _tradeIds.increment();\n    _transfer(temp, msg.sender, _Id);\n    _DoBuyToOwner[_Id] = msg.sender;\n    _TradeTransaction[_tradeIds.current()] = tradeTrans(temp, msg.sender, _DoBuylist[_Id].name);\n  }\n\n  /**\n   *\n   */\n  function buyNFT() external {\n    \n  }\n\n    //   /// @dev NFT \n    // /// 1.   NFT      (: )\n    // /// 2.      \n    // /// 3.    approve safeTransferFrom   (: )\n    // function buyNFTfromUser(uint newItemId) public {\n    //     //require(isPayed);\n    //     approve(msg.sender, newItemId);\n    //     safeTransferFrom(ownerOf(newItemId), msg.sender, newItemId);\n    // }\n}\n",
  "sourcePath": "C:/Users/redqo/Desktop/DoBuy_project/contracts/DoBuyNFT.sol",
  "compiler": {
    "name": "solc",
    "version": "0.8.0+commit.c7dfd78e.Emscripten.clang"
  },
  "schemaVersion": "3.4.1",
  "updatedAt": "2021-08-19T01:39:12.065Z",
  "networkType": "ethereum",
  "devdoc": {
    "kind": "dev",
    "methods": {
      "approve(address,uint256)": {
        "details": "See {IERC721-approve}."
      },
      "balanceOf(address)": {
        "details": "See {IERC721-balanceOf}."
      },
      "getApproved(uint256)": {
        "details": "See {IERC721-getApproved}."
      },
      "isApprovedForAll(address,address)": {
        "details": "See {IERC721-isApprovedForAll}."
      },
      "mint(string,string)": {
        "details": "NFT   NFT Token ",
        "params": {
          "_image_url": "NFT  ",
          "_name": "NFT "
        }
      },
      "name()": {
        "details": "See {IERC721Metadata-name}."
      },
      "ownerOf(uint256)": {
        "details": "See {IERC721-ownerOf}."
      },
      "safeTransferFrom(address,address,uint256)": {
        "details": "See {IERC721-safeTransferFrom}."
      },
      "safeTransferFrom(address,address,uint256,bytes)": {
        "details": "See {IERC721-safeTransferFrom}."
      },
      "setApprovalForAll(address,bool)": {
        "details": "See {IERC721-setApprovalForAll}."
      },
      "supportsInterface(bytes4)": {
        "details": "See {IERC165-supportsInterface}."
      },
      "symbol()": {
        "details": "See {IERC721Metadata-symbol}."
      },
      "tokenURI(uint256)": {
        "details": "See {IERC721Metadata-tokenURI}."
      },
      "transferFrom(address,address,uint256)": {
        "details": "See {IERC721-transferFrom}."
      },
      "transferNFT(uint256)": {
        "details": "NFT  ",
        "params": {
          "_Id": "NFT _Ids"
        }
      }
    },
    "stateVariables": {
      "_tokenIds": {
        "details": "NFT Ids"
      },
      "_tradeIds": {
        "details": "Trade Ids"
      }
    },
    "version": 1
  },
  "userdoc": {
    "kind": "user",
    "methods": {},
    "version": 1
  }
}