{
  "contractName": "DoBuyNFT",
  "abi": [
    {
      "inputs": [],
      "stateMutability": "nonpayable",
      "type": "constructor"
    },
    {
      "anonymous": false,
      "inputs": [
        {
          "indexed": true,
          "internalType": "address",
          "name": "owner",
          "type": "address"
        },
        {
          "indexed": true,
          "internalType": "address",
          "name": "approved",
          "type": "address"
        },
        {
          "indexed": true,
          "internalType": "uint256",
          "name": "tokenId",
          "type": "uint256"
        }
      ],
      "name": "Approval",
      "type": "event"
    },
    {
      "anonymous": false,
      "inputs": [
        {
          "indexed": true,
          "internalType": "address",
          "name": "owner",
          "type": "address"
        },
        {
          "indexed": true,
          "internalType": "address",
          "name": "operator",
          "type": "address"
        },
        {
          "indexed": false,
          "internalType": "bool",
          "name": "approved",
          "type": "bool"
        }
      ],
      "name": "ApprovalForAll",
      "type": "event"
    },
    {
      "anonymous": false,
      "inputs": [
        {
          "indexed": false,
          "internalType": "address",
          "name": "",
          "type": "address"
        },
        {
          "indexed": false,
          "internalType": "uint32",
          "name": "",
          "type": "uint32"
        }
      ],
      "name": "DoBuyCreated",
      "type": "event"
    },
    {
      "anonymous": false,
      "inputs": [
        {
          "indexed": true,
          "internalType": "address",
          "name": "from",
          "type": "address"
        },
        {
          "indexed": true,
          "internalType": "address",
          "name": "to",
          "type": "address"
        },
        {
          "indexed": true,
          "internalType": "uint256",
          "name": "tokenId",
          "type": "uint256"
        }
      ],
      "name": "Transfer",
      "type": "event"
    },
    {
      "inputs": [
        {
          "internalType": "uint32",
          "name": "",
          "type": "uint32"
        }
      ],
      "name": "_DoBuyToOwner",
      "outputs": [
        {
          "internalType": "address",
          "name": "",
          "type": "address"
        }
      ],
      "stateMutability": "view",
      "type": "function",
      "constant": true
    },
    {
      "inputs": [
        {
          "internalType": "uint32",
          "name": "",
          "type": "uint32"
        }
      ],
      "name": "_DoBuylist",
      "outputs": [
        {
          "internalType": "uint32",
          "name": "_Ids",
          "type": "uint32"
        },
        {
          "internalType": "uint256",
          "name": "timestamp",
          "type": "uint256"
        },
        {
          "internalType": "string",
          "name": "name",
          "type": "string"
        },
        {
          "internalType": "string",
          "name": "image_url",
          "type": "string"
        }
      ],
      "stateMutability": "view",
      "type": "function",
      "constant": true
    },
    {
      "inputs": [
        {
          "internalType": "uint256",
          "name": "",
          "type": "uint256"
        }
      ],
      "name": "_TradeTransaction",
      "outputs": [
        {
          "internalType": "address",
          "name": "_from",
          "type": "address"
        },
        {
          "internalType": "address",
          "name": "_to",
          "type": "address"
        },
        {
          "internalType": "string",
          "name": "name",
          "type": "string"
        }
      ],
      "stateMutability": "view",
      "type": "function",
      "constant": true
    },
    {
      "inputs": [],
      "name": "_tokenIds",
      "outputs": [
        {
          "internalType": "uint32",
          "name": "",
          "type": "uint32"
        }
      ],
      "stateMutability": "view",
      "type": "function",
      "constant": true
    },
    {
      "inputs": [],
      "name": "_tradeIds",
      "outputs": [
        {
          "internalType": "uint32",
          "name": "",
          "type": "uint32"
        }
      ],
      "stateMutability": "view",
      "type": "function",
      "constant": true
    },
    {
      "inputs": [
        {
          "internalType": "address",
          "name": "to",
          "type": "address"
        },
        {
          "internalType": "uint256",
          "name": "tokenId",
          "type": "uint256"
        }
      ],
      "name": "approve",
      "outputs": [],
      "stateMutability": "nonpayable",
      "type": "function"
    },
    {
      "inputs": [
        {
          "internalType": "address",
          "name": "owner",
          "type": "address"
        }
      ],
      "name": "balanceOf",
      "outputs": [
        {
          "internalType": "uint256",
          "name": "",
          "type": "uint256"
        }
      ],
      "stateMutability": "view",
      "type": "function",
      "constant": true
    },
    {
      "inputs": [
        {
          "internalType": "uint256",
          "name": "tokenId",
          "type": "uint256"
        }
      ],
      "name": "getApproved",
      "outputs": [
        {
          "internalType": "address",
          "name": "",
          "type": "address"
        }
      ],
      "stateMutability": "view",
      "type": "function",
      "constant": true
    },
    {
      "inputs": [
        {
          "internalType": "uint256",
          "name": "",
          "type": "uint256"
        }
      ],
      "name": "haveitem",
      "outputs": [
        {
          "internalType": "string",
          "name": "name",
          "type": "string"
        },
        {
          "internalType": "uint16",
          "name": "amount",
          "type": "uint16"
        },
        {
          "internalType": "address",
          "name": "user_wallet",
          "type": "address"
        }
      ],
      "stateMutability": "view",
      "type": "function",
      "constant": true
    },
    {
      "inputs": [
        {
          "internalType": "address",
          "name": "owner",
          "type": "address"
        },
        {
          "internalType": "address",
          "name": "operator",
          "type": "address"
        }
      ],
      "name": "isApprovedForAll",
      "outputs": [
        {
          "internalType": "bool",
          "name": "",
          "type": "bool"
        }
      ],
      "stateMutability": "view",
      "type": "function",
      "constant": true
    },
    {
      "inputs": [],
      "name": "name",
      "outputs": [
        {
          "internalType": "string",
          "name": "",
          "type": "string"
        }
      ],
      "stateMutability": "view",
      "type": "function",
      "constant": true
    },
    {
      "inputs": [
        {
          "internalType": "uint256",
          "name": "tokenId",
          "type": "uint256"
        }
      ],
      "name": "ownerOf",
      "outputs": [
        {
          "internalType": "address",
          "name": "",
          "type": "address"
        }
      ],
      "stateMutability": "view",
      "type": "function",
      "constant": true
    },
    {
      "inputs": [
        {
          "internalType": "address",
          "name": "from",
          "type": "address"
        },
        {
          "internalType": "address",
          "name": "to",
          "type": "address"
        },
        {
          "internalType": "uint256",
          "name": "tokenId",
          "type": "uint256"
        }
      ],
      "name": "safeTransferFrom",
      "outputs": [],
      "stateMutability": "nonpayable",
      "type": "function"
    },
    {
      "inputs": [
        {
          "internalType": "address",
          "name": "from",
          "type": "address"
        },
        {
          "internalType": "address",
          "name": "to",
          "type": "address"
        },
        {
          "internalType": "uint256",
          "name": "tokenId",
          "type": "uint256"
        },
        {
          "internalType": "bytes",
          "name": "_data",
          "type": "bytes"
        }
      ],
      "name": "safeTransferFrom",
      "outputs": [],
      "stateMutability": "nonpayable",
      "type": "function"
    },
    {
      "inputs": [
        {
          "internalType": "address",
          "name": "operator",
          "type": "address"
        },
        {
          "internalType": "bool",
          "name": "approved",
          "type": "bool"
        }
      ],
      "name": "setApprovalForAll",
      "outputs": [],
      "stateMutability": "nonpayable",
      "type": "function"
    },
    {
      "inputs": [
        {
          "internalType": "bytes4",
          "name": "interfaceId",
          "type": "bytes4"
        }
      ],
      "name": "supportsInterface",
      "outputs": [
        {
          "internalType": "bool",
          "name": "",
          "type": "bool"
        }
      ],
      "stateMutability": "view",
      "type": "function",
      "constant": true
    },
    {
      "inputs": [],
      "name": "symbol",
      "outputs": [
        {
          "internalType": "string",
          "name": "",
          "type": "string"
        }
      ],
      "stateMutability": "view",
      "type": "function",
      "constant": true
    },
    {
      "inputs": [
        {
          "internalType": "uint256",
          "name": "tokenId",
          "type": "uint256"
        }
      ],
      "name": "tokenURI",
      "outputs": [
        {
          "internalType": "string",
          "name": "",
          "type": "string"
        }
      ],
      "stateMutability": "view",
      "type": "function",
      "constant": true
    },
    {
      "inputs": [
        {
          "internalType": "address",
          "name": "from",
          "type": "address"
        },
        {
          "internalType": "address",
          "name": "to",
          "type": "address"
        },
        {
          "internalType": "uint256",
          "name": "tokenId",
          "type": "uint256"
        }
      ],
      "name": "transferFrom",
      "outputs": [],
      "stateMutability": "nonpayable",
      "type": "function"
    },
    {
      "inputs": [
        {
          "internalType": "string",
          "name": "_name",
          "type": "string"
        },
        {
          "internalType": "string",
          "name": "_image_url",
          "type": "string"
        }
      ],
      "name": "mint",
      "outputs": [],
      "stateMutability": "nonpayable",
      "type": "function"
    },
    {
      "inputs": [
        {
          "internalType": "uint32",
          "name": "_Id",
          "type": "uint32"
        }
      ],
      "name": "transferNFT",
      "outputs": [],
      "stateMutability": "nonpayable",
      "type": "function"
    },
    {
      "inputs": [
        {
          "internalType": "uint32",
          "name": "_Id",
          "type": "uint32"
        }
      ],
      "name": "burnNFT",
      "outputs": [],
      "stateMutability": "nonpayable",
      "type": "function"
    },
    {
      "inputs": [
        {
          "internalType": "string",
          "name": "_name",
          "type": "string"
        },
        {
          "internalType": "string",
          "name": "_img_url",
          "type": "string"
        }
      ],
      "name": "_marketBuy",
      "outputs": [],
      "stateMutability": "nonpayable",
      "type": "function"
    }
  ],
  "bytecode": "0x60806040523480156200001157600080fd5b506040518060400160405280600881526020017f446f4275794e46540000000000000000000000000000000000000000000000008152506040518060400160405280600581526020017f44424e4654000000000000000000000000000000000000000000000000000000815250816000908051906020019062000096929190620002fc565b508060019080519060200190620000af929190620002fc565b50505033600760006101000a81548173ffffffffffffffffffffffffffffffffffffffff021916908373ffffffffffffffffffffffffffffffffffffffff1602179055506040518060800160405280600760149054906101000a900463ffffffff1663ffffffff1681526020014281526020016040518060400160405280600c81526020017f446f42757920537461727421000000000000000000000000000000000000000081525081526020016040518060400160405280600981526020017f446f4275792e706e67000000000000000000000000000000000000000000000081525081525060086000600760149054906101000a900463ffffffff1663ffffffff1663ffffffff16815260200190815260200160002060008201518160000160006101000a81548163ffffffff021916908363ffffffff16021790555060208201518160010155604082015181600201908051906020019062000216929190620002fc565b50606082015181600301908051906020019062000235929190620002fc565b509050503360096000600760149054906101000a900463ffffffff1663ffffffff1663ffffffff16815260200190815260200160002060006101000a81548173ffffffffffffffffffffffffffffffffffffffff021916908373ffffffffffffffffffffffffffffffffffffffff1602179055507fd3541a7229e521bbd5f9dab3a283435fe8e2ba7a6ae962cafce8cadbec96dcb033600760149054906101000a900463ffffffff16604051620002ee929190620003ce565b60405180910390a1620004a4565b8280546200030a906200043f565b90600052602060002090601f0160209004810192826200032e57600085556200037a565b82601f106200034957805160ff19168380011785556200037a565b828001600101855582156200037a579182015b82811115620003795782518255916020019190600101906200035c565b5b5090506200038991906200038d565b5090565b5b80821115620003a85760008160009055506001016200038e565b5090565b620003b781620003fb565b82525050565b620003c8816200042f565b82525050565b6000604082019050620003e56000830185620003ac565b620003f46020830184620003bd565b9392505050565b600062000408826200040f565b9050919050565b600073ffffffffffffffffffffffffffffffffffffffff82169050919050565b600063ffffffff82169050919050565b600060028204905060018216806200045857607f821691505b602082108114156200046f576200046e62000475565b5b50919050565b7f4e487b7100000000000000000000000000000000000000000000000000000000600052602260045260246000fd5b613afa80620004b46000396000f3fe608060405234801561001057600080fd5b506004361061014d5760003560e01c80638aa0fdad116100c3578063cc86afbe1161007c578063cc86afbe146103c4578063e796a5f3146103e0578063e985e9c5146103fc578063eeea74371461042c578063f10846121461045e578063f25650f61461047a5761014d565b80638aa0fdad1461030457806395d89b4114610320578063a22cb4651461033e578063aa46a4001461035a578063b88d4fde14610378578063c87b56dd146103945761014d565b80632fb21c28116101155780632fb21c281461020857806342842e0e146102385780636352211e146102545780636eb75dad1461028457806370a08231146102a25780637f4c8873146102d25761014d565b806301ffc9a71461015257806306fdde0314610182578063081812fc146101a0578063095ea7b3146101d057806323b872dd146101ec575b600080fd5b61016c60048036038101906101679190612a0b565b6104ad565b6040516101799190613319565b60405180910390f35b61018a61058f565b6040516101979190613334565b60405180910390f35b6101ba60048036038101906101b59190612ac9565b610621565b6040516101c7919061324b565b60405180910390f35b6101ea60048036038101906101e591906129cf565b6106a6565b005b610206600480360381019061020191906128c9565b6107be565b005b610222600480360381019061021d9190612af2565b61081e565b60405161022f919061324b565b60405180910390f35b610252600480360381019061024d91906128c9565b610851565b005b61026e60048036038101906102699190612ac9565b610871565b60405161027b919061324b565b60405180910390f35b61028c610923565b604051610299919061358f565b60405180910390f35b6102bc60048036038101906102b79190612864565b610939565b6040516102c99190613574565b60405180910390f35b6102ec60048036038101906102e79190612ac9565b6109f1565b6040516102fb93929190613356565b60405180910390f35b61031e60048036038101906103199190612a5d565b610ae1565b005b610328610c99565b6040516103359190613334565b60405180910390f35b61035860048036038101906103539190612993565b610d2b565b005b610362610eac565b60405161036f919061358f565b60405180910390f35b610392600480360381019061038d9190612918565b610ec2565b005b6103ae60048036038101906103a99190612ac9565b610f24565b6040516103bb9190613334565b60405180910390f35b6103de60048036038101906103d99190612af2565b611076565b005b6103fa60048036038101906103f59190612a5d565b611171565b005b6104166004803603810190610411919061288d565b611422565b6040516104239190613319565b60405180910390f35b61044660048036038101906104419190612ac9565b6114b6565b60405161045593929190613266565b60405180910390f35b61047860048036038101906104739190612af2565b6115a8565b005b610494600480360381019061048f9190612af2565b61186a565b6040516104a494939291906135aa565b60405180910390f35b60007f80ac58cd000000000000000000000000000000000000000000000000000000007bffffffffffffffffffffffffffffffffffffffffffffffffffffffff1916827bffffffffffffffffffffffffffffffffffffffffffffffffffffffff1916148061057857507f5b5e139f000000000000000000000000000000000000000000000000000000007bffffffffffffffffffffffffffffffffffffffffffffffffffffffff1916827bffffffffffffffffffffffffffffffffffffffffffffffffffffffff1916145b806105885750610587826119ba565b5b9050919050565b60606000805461059e90613880565b80601f01602080910402602001604051908101604052809291908181526020018280546105ca90613880565b80156106175780601f106105ec57610100808354040283529160200191610617565b820191906000526020600020905b8154815290600101906020018083116105fa57829003601f168201915b5050505050905090565b600061062c82611a24565b61066b576040517f08c379a0000000000000000000000000000000000000000000000000000000008152600401610662906134d4565b60405180910390fd5b6004600083815260200190815260200160002060009054906101000a900473ffffffffffffffffffffffffffffffffffffffff169050919050565b60006106b182610871565b90508073ffffffffffffffffffffffffffffffffffffffff168373ffffffffffffffffffffffffffffffffffffffff161415610722576040517f08c379a000000000000000000000000000000000000000000000000000000000815260040161071990613534565b60405180910390fd5b8073ffffffffffffffffffffffffffffffffffffffff16610741611a90565b73ffffffffffffffffffffffffffffffffffffffff161480610770575061076f8161076a611a90565b611422565b5b6107af576040517f08c379a00000000000000000000000000000000000000000000000000000000081526004016107a690613434565b60405180910390fd5b6107b98383611a98565b505050565b6107cf6107c9611a90565b82611b51565b61080e576040517f08c379a000000000000000000000000000000000000000000000000000000000815260040161080590613554565b60405180910390fd5b610819838383611c2f565b505050565b60096020528060005260406000206000915054906101000a900473ffffffffffffffffffffffffffffffffffffffff1681565b61086c83838360405180602001604052806000815250610ec2565b505050565b6000806002600084815260200190815260200160002060009054906101000a900473ffffffffffffffffffffffffffffffffffffffff169050600073ffffffffffffffffffffffffffffffffffffffff168173ffffffffffffffffffffffffffffffffffffffff16141561091a576040517f08c379a000000000000000000000000000000000000000000000000000000000815260040161091190613474565b60405180910390fd5b80915050919050565b600b60009054906101000a900463ffffffff1681565b60008073ffffffffffffffffffffffffffffffffffffffff168273ffffffffffffffffffffffffffffffffffffffff1614156109aa576040517f08c379a00000000000000000000000000000000000000000000000000000000081526004016109a190613454565b60405180910390fd5b600360008373ffffffffffffffffffffffffffffffffffffffff1673ffffffffffffffffffffffffffffffffffffffff168152602001908152602001600020549050919050565b600a8181548110610a0157600080fd5b9060005260206000209060020201600091509050806000018054610a2490613880565b80601f0160208091040260200160405190810160405280929190818152602001828054610a5090613880565b8015610a9d5780601f10610a7257610100808354040283529160200191610a9d565b820191906000526020600020905b815481529060010190602001808311610a8057829003601f168201915b5050505050908060010160009054906101000a900461ffff16908060010160029054906101000a900473ffffffffffffffffffffffffffffffffffffffff16905083565b6007601481819054906101000a900463ffffffff1680929190610b0390613926565b91906101000a81548163ffffffff021916908363ffffffff160217905550506000600760149054906101000a900463ffffffff16905060405180608001604052808263ffffffff16815260200142815260200184815260200183815250600860008363ffffffff1663ffffffff16815260200190815260200160002060008201518160000160006101000a81548163ffffffff021916908363ffffffff160217905550602082015181600101556040820151816002019080519060200190610bcc929190612633565b506060820151816003019080519060200190610be9929190612633565b50905050610bfd338263ffffffff16611e8b565b33600960008363ffffffff1663ffffffff16815260200190815260200160002060006101000a81548173ffffffffffffffffffffffffffffffffffffffff021916908373ffffffffffffffffffffffffffffffffffffffff1602179055507fd3541a7229e521bbd5f9dab3a283435fe8e2ba7a6ae962cafce8cadbec96dcb03382604051610c8c9291906132f0565b60405180910390a1505050565b606060018054610ca890613880565b80601f0160208091040260200160405190810160405280929190818152602001828054610cd490613880565b8015610d215780601f10610cf657610100808354040283529160200191610d21565b820191906000526020600020905b815481529060010190602001808311610d0457829003601f168201915b5050505050905090565b610d33611a90565b73ffffffffffffffffffffffffffffffffffffffff168273ffffffffffffffffffffffffffffffffffffffff161415610da1576040517f08c379a0000000000000000000000000000000000000000000000000000000008152600401610d98906133f4565b60405180910390fd5b8060056000610dae611a90565b73ffffffffffffffffffffffffffffffffffffffff1673ffffffffffffffffffffffffffffffffffffffff16815260200190815260200160002060008473ffffffffffffffffffffffffffffffffffffffff1673ffffffffffffffffffffffffffffffffffffffff16815260200190815260200160002060006101000a81548160ff0219169083151502179055508173ffffffffffffffffffffffffffffffffffffffff16610e5b611a90565b73ffffffffffffffffffffffffffffffffffffffff167f17307eab39ab6107e8899845ad3d59bd9653f200f220920489ca2b5937696c3183604051610ea09190613319565b60405180910390a35050565b600760149054906101000a900463ffffffff1681565b610ed3610ecd611a90565b83611b51565b610f12576040517f08c379a0000000000000000000000000000000000000000000000000000000008152600401610f0990613554565b60405180910390fd5b610f1e84848484612059565b50505050565b6060610f2f82611a24565b610f6e576040517f08c379a0000000000000000000000000000000000000000000000000000000008152600401610f65906134b4565b60405180910390fd5b6000600660008481526020019081526020016000208054610f8e90613880565b80601f0160208091040260200160405190810160405280929190818152602001828054610fba90613880565b80156110075780601f10610fdc57610100808354040283529160200191611007565b820191906000526020600020905b815481529060010190602001808311610fea57829003601f168201915b5050505050905060006110186120b5565b905060008151141561102e578192505050611071565b60008251111561106357808260405160200161104b929190613227565b60405160208183030381529060405292505050611071565b61106c846120cc565b925050505b919050565b3373ffffffffffffffffffffffffffffffffffffffff1661109c8263ffffffff16610871565b73ffffffffffffffffffffffffffffffffffffffff16146110bc57600080fd5b6110cb8163ffffffff16612173565b600960008263ffffffff1663ffffffff16815260200190815260200160002060006101000a81549073ffffffffffffffffffffffffffffffffffffffff0219169055600860008263ffffffff1663ffffffff168152602001908152602001600020600080820160006101000a81549063ffffffff0219169055600182016000905560028201600061115c91906126b9565b60038201600061116c91906126b9565b505050565b61117b8282610ae1565b60005b600a80549050811015611333573373ffffffffffffffffffffffffffffffffffffffff16600a82815481106111dc577f4e487b7100000000000000000000000000000000000000000000000000000000600052603260045260246000fd5b906000526020600020906002020160010160029054906101000a900473ffffffffffffffffffffffffffffffffffffffff1673ffffffffffffffffffffffffffffffffffffffff1614801561129657508280519060200120600a828154811061126e577f4e487b7100000000000000000000000000000000000000000000000000000000600052603260045260246000fd5b906000526020600020906002020160000160405161128c9190613210565b6040518091039020145b1561132057600a81815481106112d5577f4e487b7100000000000000000000000000000000000000000000000000000000600052603260045260246000fd5b9060005260206000209060020201600101600081819054906101000a900461ffff1680929190611304906138b2565b91906101000a81548161ffff021916908361ffff160217905550505b808061132b906138dd565b91505061117e565b50600a6040518060600160405280848152602001600161ffff1681526020013373ffffffffffffffffffffffffffffffffffffffff16815250908060018154018082558091505060019003906000526020600020906002020160009091909190915060008201518160000190805190602001906113b1929190612633565b5060208201518160010160006101000a81548161ffff021916908361ffff16021790555060408201518160010160026101000a81548173ffffffffffffffffffffffffffffffffffffffff021916908373ffffffffffffffffffffffffffffffffffffffff16021790555050505050565b6000600560008473ffffffffffffffffffffffffffffffffffffffff1673ffffffffffffffffffffffffffffffffffffffff16815260200190815260200160002060008373ffffffffffffffffffffffffffffffffffffffff1673ffffffffffffffffffffffffffffffffffffffff16815260200190815260200160002060009054906101000a900460ff16905092915050565b600c6020528060005260406000206000915090508060000160009054906101000a900473ffffffffffffffffffffffffffffffffffffffff16908060010160009054906101000a900473ffffffffffffffffffffffffffffffffffffffff169080600201805461152590613880565b80601f016020809104026020016040519081016040528092919081815260200182805461155190613880565b801561159e5780601f106115735761010080835404028352916020019161159e565b820191906000526020600020905b81548152906001019060200180831161158157829003601f168201915b5050505050905083565b6000600960008363ffffffff1663ffffffff16815260200190815260200160002060009054906101000a900473ffffffffffffffffffffffffffffffffffffffff169050600b600081819054906101000a900463ffffffff168092919061160e90613926565b91906101000a81548163ffffffff021916908363ffffffff1602179055505061163e81338463ffffffff16611c2f565b33600960008463ffffffff1663ffffffff16815260200190815260200160002060006101000a81548173ffffffffffffffffffffffffffffffffffffffff021916908373ffffffffffffffffffffffffffffffffffffffff16021790555060405180606001604052808273ffffffffffffffffffffffffffffffffffffffff1681526020013373ffffffffffffffffffffffffffffffffffffffff168152602001600860008563ffffffff1663ffffffff168152602001908152602001600020600201805461170c90613880565b80601f016020809104026020016040519081016040528092919081815260200182805461173890613880565b80156117855780601f1061175a57610100808354040283529160200191611785565b820191906000526020600020905b81548152906001019060200180831161176857829003601f168201915b5050505050815250600c6000600b60009054906101000a900463ffffffff1663ffffffff16815260200190815260200160002060008201518160000160006101000a81548173ffffffffffffffffffffffffffffffffffffffff021916908373ffffffffffffffffffffffffffffffffffffffff16021790555060208201518160010160006101000a81548173ffffffffffffffffffffffffffffffffffffffff021916908373ffffffffffffffffffffffffffffffffffffffff1602179055506040820151816002019080519060200190611862929190612633565b509050505050565b60086020528060005260406000206000915090508060000160009054906101000a900463ffffffff16908060010154908060020180546118a990613880565b80601f01602080910402602001604051908101604052809291908181526020018280546118d590613880565b80156119225780601f106118f757610100808354040283529160200191611922565b820191906000526020600020905b81548152906001019060200180831161190557829003601f168201915b50505050509080600301805461193790613880565b80601f016020809104026020016040519081016040528092919081815260200182805461196390613880565b80156119b05780601f10611985576101008083540402835291602001916119b0565b820191906000526020600020905b81548152906001019060200180831161199357829003601f168201915b5050505050905084565b60007f01ffc9a7000000000000000000000000000000000000000000000000000000007bffffffffffffffffffffffffffffffffffffffffffffffffffffffff1916827bffffffffffffffffffffffffffffffffffffffffffffffffffffffff1916149050919050565b60008073ffffffffffffffffffffffffffffffffffffffff166002600084815260200190815260200160002060009054906101000a900473ffffffffffffffffffffffffffffffffffffffff1673ffffffffffffffffffffffffffffffffffffffff1614159050919050565b600033905090565b816004600083815260200190815260200160002060006101000a81548173ffffffffffffffffffffffffffffffffffffffff021916908373ffffffffffffffffffffffffffffffffffffffff160217905550808273ffffffffffffffffffffffffffffffffffffffff16611b0b83610871565b73ffffffffffffffffffffffffffffffffffffffff167f8c5be1e5ebec7d5bd14f71427d1e84f3dd0314c0f7b2291e5b200ac8c7c3b92560405160405180910390a45050565b6000611b5c82611a24565b611b9b576040517f08c379a0000000000000000000000000000000000000000000000000000000008152600401611b9290613414565b60405180910390fd5b6000611ba683610871565b90508073ffffffffffffffffffffffffffffffffffffffff168473ffffffffffffffffffffffffffffffffffffffff161480611c1557508373ffffffffffffffffffffffffffffffffffffffff16611bfd84610621565b73ffffffffffffffffffffffffffffffffffffffff16145b80611c265750611c258185611422565b5b91505092915050565b8273ffffffffffffffffffffffffffffffffffffffff16611c4f82610871565b73ffffffffffffffffffffffffffffffffffffffff1614611ca5576040517f08c379a0000000000000000000000000000000000000000000000000000000008152600401611c9c906134f4565b60405180910390fd5b600073ffffffffffffffffffffffffffffffffffffffff168273ffffffffffffffffffffffffffffffffffffffff161415611d15576040517f08c379a0000000000000000000000000000000000000000000000000000000008152600401611d0c906133d4565b60405180910390fd5b611d208383836121c6565b611d2b600082611a98565b6001600360008573ffffffffffffffffffffffffffffffffffffffff1673ffffffffffffffffffffffffffffffffffffffff1681526020019081526020016000206000828254611d7b9190613778565b925050819055506001600360008473ffffffffffffffffffffffffffffffffffffffff1673ffffffffffffffffffffffffffffffffffffffff1681526020019081526020016000206000828254611dd291906136f1565b92505081905550816002600083815260200190815260200160002060006101000a81548173ffffffffffffffffffffffffffffffffffffffff021916908373ffffffffffffffffffffffffffffffffffffffff160217905550808273ffffffffffffffffffffffffffffffffffffffff168473ffffffffffffffffffffffffffffffffffffffff167fddf252ad1be2c89b69c2b068fc378daa952ba7f163c4a11628f55a4df523b3ef60405160405180910390a4505050565b600073ffffffffffffffffffffffffffffffffffffffff168273ffffffffffffffffffffffffffffffffffffffff161415611efb576040517f08c379a0000000000000000000000000000000000000000000000000000000008152600401611ef290613494565b60405180910390fd5b611f0481611a24565b15611f44576040517f08c379a0000000000000000000000000000000000000000000000000000000008152600401611f3b906133b4565b60405180910390fd5b611f50600083836121c6565b6001600360008473ffffffffffffffffffffffffffffffffffffffff1673ffffffffffffffffffffffffffffffffffffffff1681526020019081526020016000206000828254611fa091906136f1565b92505081905550816002600083815260200190815260200160002060006101000a81548173ffffffffffffffffffffffffffffffffffffffff021916908373ffffffffffffffffffffffffffffffffffffffff160217905550808273ffffffffffffffffffffffffffffffffffffffff16600073ffffffffffffffffffffffffffffffffffffffff167fddf252ad1be2c89b69c2b068fc378daa952ba7f163c4a11628f55a4df523b3ef60405160405180910390a45050565b612064848484611c2f565b612070848484846121cb565b6120af576040517f08c379a00000000000000000000000000000000000000000000000000000000081526004016120a690613394565b60405180910390fd5b50505050565b606060405180602001604052806000815250905090565b60606120d782611a24565b612116576040517f08c379a000000000000000000000000000000000000000000000000000000000815260040161210d90613514565b60405180910390fd5b60006121206120b5565b90506000815111612140576040518060200160405280600081525061216b565b8061214a84612362565b60405160200161215b929190613227565b6040516020818303038152906040525b915050919050565b61217c8161250f565b600060066000838152602001908152602001600020805461219c90613880565b9050146121c3576006600082815260200190815260200160002060006121c291906126b9565b5b50565b505050565b60006121ec8473ffffffffffffffffffffffffffffffffffffffff16612620565b15612355578373ffffffffffffffffffffffffffffffffffffffff1663150b7a02612215611a90565b8786866040518563ffffffff1660e01b815260040161223794939291906132a4565b602060405180830381600087803b15801561225157600080fd5b505af192505050801561228257506040513d601f19601f8201168201806040525081019061227f9190612a34565b60015b612305573d80600081146122b2576040519150601f19603f3d011682016040523d82523d6000602084013e6122b7565b606091505b506000815114156122fd576040517f08c379a00000000000000000000000000000000000000000000000000000000081526004016122f490613394565b60405180910390fd5b805181602001fd5b63150b7a0260e01b7bffffffffffffffffffffffffffffffffffffffffffffffffffffffff1916817bffffffffffffffffffffffffffffffffffffffffffffffffffffffff19161491505061235a565b600190505b949350505050565b606060008214156123aa576040518060400160405280600181526020017f3000000000000000000000000000000000000000000000000000000000000000815250905061250a565b600082905060005b600082146123dc5780806123c5906138dd565b915050600a826123d59190613747565b91506123b2565b60008167ffffffffffffffff81111561241e577f4e487b7100000000000000000000000000000000000000000000000000000000600052604160045260246000fd5b6040519080825280601f01601f1916602001820160405280156124505781602001600182028036833780820191505090505b5090505b60008514612503576001826124699190613778565b9150600a856124789190613953565b603061248491906136f1565b60f81b8183815181106124c0577f4e487b7100000000000000000000000000000000000000000000000000000000600052603260045260246000fd5b60200101907effffffffffffffffffffffffffffffffffffffffffffffffffffffffffffff1916908160001a905350600a856124fc9190613747565b9450612454565b8093505050505b919050565b600061251a82610871565b9050612528816000846121c6565b612533600083611a98565b6001600360008373ffffffffffffffffffffffffffffffffffffffff1673ffffffffffffffffffffffffffffffffffffffff16815260200190815260200160002060008282546125839190613778565b925050819055506002600083815260200190815260200160002060006101000a81549073ffffffffffffffffffffffffffffffffffffffff021916905581600073ffffffffffffffffffffffffffffffffffffffff168273ffffffffffffffffffffffffffffffffffffffff167fddf252ad1be2c89b69c2b068fc378daa952ba7f163c4a11628f55a4df523b3ef60405160405180910390a45050565b600080823b905060008111915050919050565b82805461263f90613880565b90600052602060002090601f01602090048101928261266157600085556126a8565b82601f1061267a57805160ff19168380011785556126a8565b828001600101855582156126a8579182015b828111156126a757825182559160200191906001019061268c565b5b5090506126b591906126f9565b5090565b5080546126c590613880565b6000825580601f106126d757506126f6565b601f0160209004906000526020600020908101906126f591906126f9565b5b50565b5b808211156127125760008160009055506001016126fa565b5090565b60006127296127248461362e565b6135fd565b90508281526020810184848401111561274157600080fd5b61274c84828561383e565b509392505050565b60006127676127628461365e565b6135fd565b90508281526020810184848401111561277f57600080fd5b61278a84828561383e565b509392505050565b6000813590506127a181613a51565b92915050565b6000813590506127b681613a68565b92915050565b6000813590506127cb81613a7f565b92915050565b6000815190506127e081613a7f565b92915050565b600082601f8301126127f757600080fd5b8135612807848260208601612716565b91505092915050565b600082601f83011261282157600080fd5b8135612831848260208601612754565b91505092915050565b60008135905061284981613a96565b92915050565b60008135905061285e81613aad565b92915050565b60006020828403121561287657600080fd5b600061288484828501612792565b91505092915050565b600080604083850312156128a057600080fd5b60006128ae85828601612792565b92505060206128bf85828601612792565b9150509250929050565b6000806000606084860312156128de57600080fd5b60006128ec86828701612792565b93505060206128fd86828701612792565b925050604061290e8682870161283a565b9150509250925092565b6000806000806080858703121561292e57600080fd5b600061293c87828801612792565b945050602061294d87828801612792565b935050604061295e8782880161283a565b925050606085013567ffffffffffffffff81111561297b57600080fd5b612987878288016127e6565b91505092959194509250565b600080604083850312156129a657600080fd5b60006129b485828601612792565b92505060206129c5858286016127a7565b9150509250929050565b600080604083850312156129e257600080fd5b60006129f085828601612792565b9250506020612a018582860161283a565b9150509250929050565b600060208284031215612a1d57600080fd5b6000612a2b848285016127bc565b91505092915050565b600060208284031215612a4657600080fd5b6000612a54848285016127d1565b91505092915050565b60008060408385031215612a7057600080fd5b600083013567ffffffffffffffff811115612a8a57600080fd5b612a9685828601612810565b925050602083013567ffffffffffffffff811115612ab357600080fd5b612abf85828601612810565b9150509250929050565b600060208284031215612adb57600080fd5b6000612ae98482850161283a565b91505092915050565b600060208284031215612b0457600080fd5b6000612b128482850161284f565b91505092915050565b612b24816137ac565b82525050565b612b33816137be565b82525050565b6000612b44826136a3565b612b4e81856136b9565b9350612b5e81856020860161384d565b612b6781613a40565b840191505092915050565b60008154612b7f81613880565b612b8981866136ca565b94506001821660008114612ba45760018114612bb557612be8565b60ff19831686528186019350612be8565b612bbe8561368e565b60005b83811015612be057815481890152600182019150602081019050612bc1565b838801955050505b50505092915050565b6000612bfc826136ae565b612c0681856136d5565b9350612c1681856020860161384d565b612c1f81613a40565b840191505092915050565b6000612c35826136ae565b612c3f81856136e6565b9350612c4f81856020860161384d565b80840191505092915050565b6000612c686032836136d5565b91507f4552433732313a207472616e7366657220746f206e6f6e20455243373231526560008301527f63656976657220696d706c656d656e74657200000000000000000000000000006020830152604082019050919050565b6000612cce601c836136d5565b91507f4552433732313a20746f6b656e20616c7265616479206d696e746564000000006000830152602082019050919050565b6000612d0e6024836136d5565b91507f4552433732313a207472616e7366657220746f20746865207a65726f2061646460008301527f72657373000000000000000000000000000000000000000000000000000000006020830152604082019050919050565b6000612d746019836136d5565b91507f4552433732313a20617070726f766520746f2063616c6c6572000000000000006000830152602082019050919050565b6000612db4602c836136d5565b91507f4552433732313a206f70657261746f7220717565727920666f72206e6f6e657860008301527f697374656e7420746f6b656e00000000000000000000000000000000000000006020830152604082019050919050565b6000612e1a6038836136d5565b91507f4552433732313a20617070726f76652063616c6c6572206973206e6f74206f7760008301527f6e6572206e6f7220617070726f76656420666f7220616c6c00000000000000006020830152604082019050919050565b6000612e80602a836136d5565b91507f4552433732313a2062616c616e636520717565727920666f7220746865207a6560008301527f726f2061646472657373000000000000000000000000000000000000000000006020830152604082019050919050565b6000612ee66029836136d5565b91507f4552433732313a206f776e657220717565727920666f72206e6f6e657869737460008301527f656e7420746f6b656e00000000000000000000000000000000000000000000006020830152604082019050919050565b6000612f4c6020836136d5565b91507f4552433732313a206d696e7420746f20746865207a65726f20616464726573736000830152602082019050919050565b6000612f8c6031836136d5565b91507f45524337323155524953746f726167653a2055524920717565727920666f722060008301527f6e6f6e6578697374656e7420746f6b656e0000000000000000000000000000006020830152604082019050919050565b6000612ff2602c836136d5565b91507f4552433732313a20617070726f76656420717565727920666f72206e6f6e657860008301527f697374656e7420746f6b656e00000000000000000000000000000000000000006020830152604082019050919050565b60006130586029836136d5565b91507f4552433732313a207472616e73666572206f6620746f6b656e2074686174206960008301527f73206e6f74206f776e00000000000000000000000000000000000000000000006020830152604082019050919050565b60006130be602f836136d5565b91507f4552433732314d657461646174613a2055524920717565727920666f72206e6f60008301527f6e6578697374656e7420746f6b656e00000000000000000000000000000000006020830152604082019050919050565b60006131246021836136d5565b91507f4552433732313a20617070726f76616c20746f2063757272656e74206f776e6560008301527f72000000000000000000000000000000000000000000000000000000000000006020830152604082019050919050565b600061318a6031836136d5565b91507f4552433732313a207472616e736665722063616c6c6572206973206e6f74206f60008301527f776e6572206e6f7220617070726f7665640000000000000000000000000000006020830152604082019050919050565b6131ec816137f6565b82525050565b6131fb81613824565b82525050565b61320a8161382e565b82525050565b600061321c8284612b72565b915081905092915050565b60006132338285612c2a565b915061323f8284612c2a565b91508190509392505050565b60006020820190506132606000830184612b1b565b92915050565b600060608201905061327b6000830186612b1b565b6132886020830185612b1b565b818103604083015261329a8184612bf1565b9050949350505050565b60006080820190506132b96000830187612b1b565b6132c66020830186612b1b565b6132d360408301856131f2565b81810360608301526132e58184612b39565b905095945050505050565b60006040820190506133056000830185612b1b565b6133126020830184613201565b9392505050565b600060208201905061332e6000830184612b2a565b92915050565b6000602082019050818103600083015261334e8184612bf1565b905092915050565b600060608201905081810360008301526133708186612bf1565b905061337f60208301856131e3565b61338c6040830184612b1b565b949350505050565b600060208201905081810360008301526133ad81612c5b565b9050919050565b600060208201905081810360008301526133cd81612cc1565b9050919050565b600060208201905081810360008301526133ed81612d01565b9050919050565b6000602082019050818103600083015261340d81612d67565b9050919050565b6000602082019050818103600083015261342d81612da7565b9050919050565b6000602082019050818103600083015261344d81612e0d565b9050919050565b6000602082019050818103600083015261346d81612e73565b9050919050565b6000602082019050818103600083015261348d81612ed9565b9050919050565b600060208201905081810360008301526134ad81612f3f565b9050919050565b600060208201905081810360008301526134cd81612f7f565b9050919050565b600060208201905081810360008301526134ed81612fe5565b9050919050565b6000602082019050818103600083015261350d8161304b565b9050919050565b6000602082019050818103600083015261352d816130b1565b9050919050565b6000602082019050818103600083015261354d81613117565b9050919050565b6000602082019050818103600083015261356d8161317d565b9050919050565b600060208201905061358960008301846131f2565b92915050565b60006020820190506135a46000830184613201565b92915050565b60006080820190506135bf6000830187613201565b6135cc60208301866131f2565b81810360408301526135de8185612bf1565b905081810360608301526135f28184612bf1565b905095945050505050565b6000604051905081810181811067ffffffffffffffff8211171561362457613623613a11565b5b8060405250919050565b600067ffffffffffffffff82111561364957613648613a11565b5b601f19601f8301169050602081019050919050565b600067ffffffffffffffff82111561367957613678613a11565b5b601f19601f8301169050602081019050919050565b60008190508160005260206000209050919050565b600081519050919050565b600081519050919050565b600082825260208201905092915050565b600081905092915050565b600082825260208201905092915050565b600081905092915050565b60006136fc82613824565b915061370783613824565b9250827fffffffffffffffffffffffffffffffffffffffffffffffffffffffffffffffff0382111561373c5761373b613984565b5b828201905092915050565b600061375282613824565b915061375d83613824565b92508261376d5761376c6139b3565b5b828204905092915050565b600061378382613824565b915061378e83613824565b9250828210156137a1576137a0613984565b5b828203905092915050565b60006137b782613804565b9050919050565b60008115159050919050565b60007fffffffff0000000000000000000000000000000000000000000000000000000082169050919050565b600061ffff82169050919050565b600073ffffffffffffffffffffffffffffffffffffffff82169050919050565b6000819050919050565b600063ffffffff82169050919050565b82818337600083830152505050565b60005b8381101561386b578082015181840152602081019050613850565b8381111561387a576000848401525b50505050565b6000600282049050600182168061389857607f821691505b602082108114156138ac576138ab6139e2565b5b50919050565b60006138bd826137f6565b915061ffff8214156138d2576138d1613984565b5b600182019050919050565b60006138e882613824565b91507fffffffffffffffffffffffffffffffffffffffffffffffffffffffffffffffff82141561391b5761391a613984565b5b600182019050919050565b60006139318261382e565b915063ffffffff82141561394857613947613984565b5b600182019050919050565b600061395e82613824565b915061396983613824565b925082613979576139786139b3565b5b828206905092915050565b7f4e487b7100000000000000000000000000000000000000000000000000000000600052601160045260246000fd5b7f4e487b7100000000000000000000000000000000000000000000000000000000600052601260045260246000fd5b7f4e487b7100000000000000000000000000000000000000000000000000000000600052602260045260246000fd5b7f4e487b7100000000000000000000000000000000000000000000000000000000600052604160045260246000fd5b6000601f19601f8301169050919050565b613a5a816137ac565b8114613a6557600080fd5b50565b613a71816137be565b8114613a7c57600080fd5b50565b613a88816137ca565b8114613a9357600080fd5b50565b613a9f81613824565b8114613aaa57600080fd5b50565b613ab68161382e565b8114613ac157600080fd5b5056fea264697066735822122090867bae7094c3f3dda7bf2895a871065f48764da83ed2f3136646ad282fd6c064736f6c63430008000033",
  "immutableReferences": {},
  "source": "// SPDX-License-Identifier: MIT\r\npragma solidity >=0.4.22 <0.9.0;\r\n\r\nimport \"@openzeppelin/contracts/token/ERC721/extensions/ERC721URIStorage.sol\";\r\n\r\ncontract DoBuyNFT is ERC721URIStorage {\r\n  address private owner;\r\n  /// @dev NFT Ids\r\n  uint32 public _tokenIds;\r\n\r\n  /// @dev NFT struct\r\n  struct NFTcard {\r\n    uint32 _Ids; // NFT serial number\r\n    uint256 timestamp; // Time Created\r\n    string name; // NFT names\r\n    string image_url; // IMAGE URL\r\n  }\r\n\r\n  //  \r\n  mapping (uint32 => NFTcard) public _DoBuylist;\r\n  mapping (uint32 => address) public _DoBuyToOwner;\r\n  event DoBuyCreated (address , uint32);\r\n\r\n  /// @dev NFT Have\r\n  struct Have {\r\n    string name; // product name\r\n    uint16 amount;\r\n    address user_wallet;    \r\n  }\r\n\r\n  // /// @dev NFT  \r\n  // mapping (uint256 => address) DoBuyCounts;\r\n  Have[] public haveitem;\r\n\r\n  /// @dev Trade Ids\r\n  uint32 public _tradeIds;\r\n\r\n  /// @dev Trade struct\r\n  struct tradeTrans {\r\n    address _from;\r\n    address _to;\r\n    string name;\r\n  }\r\n\r\n  // NFT \r\n  mapping (uint256 => tradeTrans) public _TradeTransaction;\r\n\r\n  constructor() ERC721(\"DoBuyNFT\", \"DBNFT\") {\r\n    owner = msg.sender;\r\n    _DoBuylist[_tokenIds] = NFTcard(_tokenIds, block.timestamp, \"DoBuy Start!\", \"DoBuy.png\");\r\n    _DoBuyToOwner[_tokenIds] = msg.sender;\r\n    emit DoBuyCreated(msg.sender, _tokenIds);\r\n  }\r\n\r\n  /**\r\n   *  @dev NFT   NFT Token \r\n   *  @param _name NFT \r\n   *  @param _image_url NFT  \r\n   */\r\n  function mint(string memory _name, string memory _image_url) public {\r\n    _tokenIds++;\r\n    uint32 newItemId = _tokenIds;\r\n    _DoBuylist[newItemId] = NFTcard(newItemId, block.timestamp, _name, _image_url);\r\n    _mint(msg.sender, newItemId);\r\n    _DoBuyToOwner[newItemId] = msg.sender;\r\n    emit DoBuyCreated(msg.sender, newItemId);\r\n  }\r\n\r\n  /**\r\n   *  @dev NFT  \r\n   *  @param _Id NFT _Ids\r\n   */\r\n  function transferNFT(uint32 _Id) external {\r\n    address temp = _DoBuyToOwner[_Id];\r\n    _tradeIds++;\r\n    _transfer(temp, msg.sender, _Id);\r\n    _DoBuyToOwner[_Id] = msg.sender;\r\n    _TradeTransaction[_tradeIds] = tradeTrans(temp, msg.sender, _DoBuylist[_Id].name);\r\n  }\r\n\r\n    //   /// @dev NFT \r\n    // /// 1.   NFT      (: )\r\n    // /// 2.      \r\n    // /// 3.    approve safeTransferFrom   (: )\r\n    // function buyNFTfromUser(uint newItemId) public {\r\n    //     //require(isPayed);\r\n    //     approve(msg.sender, newItemId);\r\n    //     safeTransferFrom(ownerOf(newItemId), msg.sender, newItemId);\r\n    // }\r\n\r\n\r\n  /// @dev delivery -    NFT \r\n  function burnNFT(uint32 _Id) external {\r\n    require(ownerOf(_Id) == msg.sender);    //  NFT burn .  burn  ...\r\n    _burn(_Id);   // NFT burn\r\n      \r\n    // 1 -  \r\n    delete _DoBuyToOwner[_Id];  //  NFT  (_DoBuyToOwner) \r\n    delete _DoBuylist[_Id];   //  NFT card  _DoBuylist   \r\n\r\n    // 2 -   \r\n    // _DoBuyToOwner[_Id] = address(0);    //  NFT  (_DoBuyToOwner) clear\r\n  }\r\n    \r\n\r\n  function _marketBuy(string memory _name, string memory _img_url) public {\r\n    mint(_name, _img_url);\r\n    for(uint256 i = 0; i < haveitem.length; i++) {\r\n      if(haveitem[i].user_wallet == msg.sender && keccak256(bytes( haveitem[i].name)) == keccak256(bytes(_name))){\r\n          haveitem[i].amount++;\r\n      }\r\n    }\r\n    haveitem.push(Have(_name, 1, msg.sender));\r\n  }\r\n}\r\n",
  "sourcePath": "C:/Users/redqo/Desktop/DoBuy_project/contracts/DoBuyNFT.sol",
  "compiler": {
    "name": "solc",
    "version": "0.8.0+commit.c7dfd78e.Emscripten.clang"
  },
  "schemaVersion": "3.4.1",
  "updatedAt": "2021-08-21T11:58:28.006Z",
  "networkType": "ethereum",
  "devdoc": {
    "kind": "dev",
    "methods": {
      "approve(address,uint256)": {
        "details": "See {IERC721-approve}."
      },
      "balanceOf(address)": {
        "details": "See {IERC721-balanceOf}."
      },
      "burnNFT(uint32)": {
        "details": "delivery -    NFT "
      },
      "getApproved(uint256)": {
        "details": "See {IERC721-getApproved}."
      },
      "isApprovedForAll(address,address)": {
        "details": "See {IERC721-isApprovedForAll}."
      },
      "mint(string,string)": {
        "details": "NFT   NFT Token ",
        "params": {
          "_image_url": "NFT  ",
          "_name": "NFT "
        }
      },
      "name()": {
        "details": "See {IERC721Metadata-name}."
      },
      "ownerOf(uint256)": {
        "details": "See {IERC721-ownerOf}."
      },
      "safeTransferFrom(address,address,uint256)": {
        "details": "See {IERC721-safeTransferFrom}."
      },
      "safeTransferFrom(address,address,uint256,bytes)": {
        "details": "See {IERC721-safeTransferFrom}."
      },
      "setApprovalForAll(address,bool)": {
        "details": "See {IERC721-setApprovalForAll}."
      },
      "supportsInterface(bytes4)": {
        "details": "See {IERC165-supportsInterface}."
      },
      "symbol()": {
        "details": "See {IERC721Metadata-symbol}."
      },
      "tokenURI(uint256)": {
        "details": "See {IERC721Metadata-tokenURI}."
      },
      "transferFrom(address,address,uint256)": {
        "details": "See {IERC721-transferFrom}."
      },
      "transferNFT(uint32)": {
        "details": "NFT  ",
        "params": {
          "_Id": "NFT _Ids"
        }
      }
    },
    "stateVariables": {
      "_tokenIds": {
        "details": "NFT Ids"
      },
      "_tradeIds": {
        "details": "Trade Ids"
      }
    },
    "version": 1
  },
  "userdoc": {
    "kind": "user",
    "methods": {},
    "version": 1
  }
}