{
  "contractName": "DoBuyToken",
  "abi": [
    {
      "inputs": [],
      "stateMutability": "nonpayable",
      "type": "constructor"
    },
    {
      "anonymous": false,
      "inputs": [
        {
          "indexed": true,
          "internalType": "address",
          "name": "owner",
          "type": "address"
        },
        {
          "indexed": true,
          "internalType": "address",
          "name": "spender",
          "type": "address"
        },
        {
          "indexed": false,
          "internalType": "uint256",
          "name": "value",
          "type": "uint256"
        }
      ],
      "name": "Approval",
      "type": "event"
    },
    {
      "anonymous": false,
      "inputs": [
        {
          "indexed": true,
          "internalType": "address",
          "name": "from",
          "type": "address"
        },
        {
          "indexed": true,
          "internalType": "address",
          "name": "to",
          "type": "address"
        },
        {
          "indexed": false,
          "internalType": "uint256",
          "name": "value",
          "type": "uint256"
        }
      ],
      "name": "Transfer",
      "type": "event"
    },
    {
      "inputs": [],
      "name": "INITIAL_SUPPLY",
      "outputs": [
        {
          "internalType": "uint256",
          "name": "",
          "type": "uint256"
        }
      ],
      "stateMutability": "view",
      "type": "function",
      "constant": true
    },
    {
      "inputs": [],
      "name": "_decimals",
      "outputs": [
        {
          "internalType": "uint8",
          "name": "",
          "type": "uint8"
        }
      ],
      "stateMutability": "view",
      "type": "function",
      "constant": true
    },
    {
      "inputs": [],
      "name": "_symbol",
      "outputs": [
        {
          "internalType": "string",
          "name": "",
          "type": "string"
        }
      ],
      "stateMutability": "view",
      "type": "function",
      "constant": true
    },
    {
      "inputs": [],
      "name": "_token",
      "outputs": [
        {
          "internalType": "string",
          "name": "",
          "type": "string"
        }
      ],
      "stateMutability": "view",
      "type": "function",
      "constant": true
    },
    {
      "inputs": [],
      "name": "_trackingIds",
      "outputs": [
        {
          "internalType": "uint256",
          "name": "",
          "type": "uint256"
        }
      ],
      "stateMutability": "view",
      "type": "function",
      "constant": true
    },
    {
      "inputs": [
        {
          "internalType": "address",
          "name": "owner",
          "type": "address"
        },
        {
          "internalType": "address",
          "name": "spender",
          "type": "address"
        }
      ],
      "name": "allowance",
      "outputs": [
        {
          "internalType": "uint256",
          "name": "",
          "type": "uint256"
        }
      ],
      "stateMutability": "view",
      "type": "function",
      "constant": true
    },
    {
      "inputs": [
        {
          "internalType": "address",
          "name": "spender",
          "type": "address"
        },
        {
          "internalType": "uint256",
          "name": "amount",
          "type": "uint256"
        }
      ],
      "name": "approve",
      "outputs": [
        {
          "internalType": "bool",
          "name": "",
          "type": "bool"
        }
      ],
      "stateMutability": "nonpayable",
      "type": "function"
    },
    {
      "inputs": [
        {
          "internalType": "address",
          "name": "account",
          "type": "address"
        }
      ],
      "name": "balanceOf",
      "outputs": [
        {
          "internalType": "uint256",
          "name": "",
          "type": "uint256"
        }
      ],
      "stateMutability": "view",
      "type": "function",
      "constant": true
    },
    {
      "inputs": [
        {
          "internalType": "uint256",
          "name": "",
          "type": "uint256"
        }
      ],
      "name": "billArray",
      "outputs": [
        {
          "internalType": "uint256",
          "name": "_Ids",
          "type": "uint256"
        },
        {
          "internalType": "uint16",
          "name": "amount",
          "type": "uint16"
        },
        {
          "internalType": "string",
          "name": "name",
          "type": "string"
        },
        {
          "internalType": "string",
          "name": "sender",
          "type": "string"
        },
        {
          "internalType": "string",
          "name": "receiver",
          "type": "string"
        }
      ],
      "stateMutability": "view",
      "type": "function",
      "constant": true
    },
    {
      "inputs": [],
      "name": "dd",
      "outputs": [
        {
          "internalType": "uint256",
          "name": "",
          "type": "uint256"
        }
      ],
      "stateMutability": "view",
      "type": "function",
      "constant": true
    },
    {
      "inputs": [],
      "name": "decimals",
      "outputs": [
        {
          "internalType": "uint8",
          "name": "",
          "type": "uint8"
        }
      ],
      "stateMutability": "view",
      "type": "function",
      "constant": true
    },
    {
      "inputs": [
        {
          "internalType": "address",
          "name": "spender",
          "type": "address"
        },
        {
          "internalType": "uint256",
          "name": "subtractedValue",
          "type": "uint256"
        }
      ],
      "name": "decreaseAllowance",
      "outputs": [
        {
          "internalType": "bool",
          "name": "",
          "type": "bool"
        }
      ],
      "stateMutability": "nonpayable",
      "type": "function"
    },
    {
      "inputs": [
        {
          "internalType": "address",
          "name": "spender",
          "type": "address"
        },
        {
          "internalType": "uint256",
          "name": "addedValue",
          "type": "uint256"
        }
      ],
      "name": "increaseAllowance",
      "outputs": [
        {
          "internalType": "bool",
          "name": "",
          "type": "bool"
        }
      ],
      "stateMutability": "nonpayable",
      "type": "function"
    },
    {
      "inputs": [
        {
          "internalType": "uint256",
          "name": "",
          "type": "uint256"
        }
      ],
      "name": "location",
      "outputs": [
        {
          "internalType": "string",
          "name": "",
          "type": "string"
        }
      ],
      "stateMutability": "view",
      "type": "function",
      "constant": true
    },
    {
      "inputs": [],
      "name": "name",
      "outputs": [
        {
          "internalType": "string",
          "name": "",
          "type": "string"
        }
      ],
      "stateMutability": "view",
      "type": "function",
      "constant": true
    },
    {
      "inputs": [],
      "name": "now_wallet",
      "outputs": [
        {
          "internalType": "address",
          "name": "",
          "type": "address"
        }
      ],
      "stateMutability": "view",
      "type": "function",
      "constant": true
    },
    {
      "inputs": [],
      "name": "owners",
      "outputs": [
        {
          "internalType": "address",
          "name": "",
          "type": "address"
        }
      ],
      "stateMutability": "view",
      "type": "function",
      "constant": true
    },
    {
      "inputs": [],
      "name": "symbol",
      "outputs": [
        {
          "internalType": "string",
          "name": "",
          "type": "string"
        }
      ],
      "stateMutability": "view",
      "type": "function",
      "constant": true
    },
    {
      "inputs": [],
      "name": "totalSupply",
      "outputs": [
        {
          "internalType": "uint256",
          "name": "",
          "type": "uint256"
        }
      ],
      "stateMutability": "view",
      "type": "function",
      "constant": true
    },
    {
      "inputs": [
        {
          "internalType": "uint256",
          "name": "",
          "type": "uint256"
        },
        {
          "internalType": "uint256",
          "name": "",
          "type": "uint256"
        }
      ],
      "name": "trackingArray",
      "outputs": [
        {
          "internalType": "uint256",
          "name": "timestamp",
          "type": "uint256"
        },
        {
          "internalType": "string",
          "name": "location",
          "type": "string"
        },
        {
          "internalType": "string",
          "name": "status",
          "type": "string"
        }
      ],
      "stateMutability": "view",
      "type": "function",
      "constant": true
    },
    {
      "inputs": [
        {
          "internalType": "address",
          "name": "recipient",
          "type": "address"
        },
        {
          "internalType": "uint256",
          "name": "amount",
          "type": "uint256"
        }
      ],
      "name": "transfer",
      "outputs": [
        {
          "internalType": "bool",
          "name": "",
          "type": "bool"
        }
      ],
      "stateMutability": "nonpayable",
      "type": "function"
    },
    {
      "inputs": [
        {
          "internalType": "address",
          "name": "sender",
          "type": "address"
        },
        {
          "internalType": "address",
          "name": "recipient",
          "type": "address"
        },
        {
          "internalType": "uint256",
          "name": "amount",
          "type": "uint256"
        }
      ],
      "name": "transferFrom",
      "outputs": [
        {
          "internalType": "bool",
          "name": "",
          "type": "bool"
        }
      ],
      "stateMutability": "nonpayable",
      "type": "function"
    },
    {
      "inputs": [],
      "name": "user_wallet",
      "outputs": [
        {
          "internalType": "address",
          "name": "",
          "type": "address"
        }
      ],
      "stateMutability": "view",
      "type": "function",
      "constant": true
    },
    {
      "inputs": [
        {
          "internalType": "string",
          "name": "_name",
          "type": "string"
        },
        {
          "internalType": "string",
          "name": "_receiver",
          "type": "string"
        },
        {
          "internalType": "uint16",
          "name": "_amount",
          "type": "uint16"
        }
      ],
      "name": "deliveryStart",
      "outputs": [
        {
          "internalType": "uint256",
          "name": "",
          "type": "uint256"
        }
      ],
      "stateMutability": "nonpayable",
      "type": "function"
    },
    {
      "inputs": [
        {
          "internalType": "uint256",
          "name": "_Ids",
          "type": "uint256"
        },
        {
          "internalType": "string",
          "name": "_dest",
          "type": "string"
        }
      ],
      "name": "deliveryUpdate",
      "outputs": [],
      "stateMutability": "nonpayable",
      "type": "function"
    },
    {
      "inputs": [
        {
          "internalType": "uint256",
          "name": "_amounts",
          "type": "uint256"
        }
      ],
      "name": "getOwnerToken",
      "outputs": [],
      "stateMutability": "payable",
      "type": "function",
      "payable": true
    }
  ],
  "bytecode": "0x608060405233600560006101000a81548173ffffffffffffffffffffffffffffffffffffffff021916908373ffffffffffffffffffffffffffffffffffffffff16021790555033600760006101000a81548173ffffffffffffffffffffffffffffffffffffffff021916908373ffffffffffffffffffffffffffffffffffffffff16021790555060405180608001604052806040518060400160405280600581526020017f47696d706f00000000000000000000000000000000000000000000000000000081525081526020016040518060400160405280600781526020017f476f6e6a69616d0000000000000000000000000000000000000000000000000081525081526020016040518060400160405280600681526020017f496368656f6e000000000000000000000000000000000000000000000000000081525081526020016040518060400160405280600781526020017f4777616e676a7500000000000000000000000000000000000000000000000000815250815250600a9060046200018d9291906200045a565b503480156200019b57600080fd5b506040518060400160405280600a81526020017f446f427579546f6b656e000000000000000000000000000000000000000000008152506040518060400160405280600381526020017f4442540000000000000000000000000000000000000000000000000000000000815250816003908051906020019062000220929190620004b4565b50806004908051906020019062000239929190620004b4565b50505033600660006101000a81548173ffffffffffffffffffffffffffffffffffffffff021916908373ffffffffffffffffffffffffffffffffffffffff160217905550620002d1600660009054906101000a900473ffffffffffffffffffffffffffffffffffffffff166012600a620002b491906200072d565b6305f5e100620002c591906200086a565b620002d760201b60201c565b62000983565b600073ffffffffffffffffffffffffffffffffffffffff168273ffffffffffffffffffffffffffffffffffffffff1614156200034a576040517f08c379a0000000000000000000000000000000000000000000000000000000008152600401620003419062000625565b60405180910390fd5b6200035e600083836200045060201b60201c565b806002600082825462000372919062000675565b92505081905550806000808473ffffffffffffffffffffffffffffffffffffffff1673ffffffffffffffffffffffffffffffffffffffff1681526020019081526020016000206000828254620003c9919062000675565b925050819055508173ffffffffffffffffffffffffffffffffffffffff16600073ffffffffffffffffffffffffffffffffffffffff167fddf252ad1be2c89b69c2b068fc378daa952ba7f163c4a11628f55a4df523b3ef8360405162000430919062000647565b60405180910390a36200044c600083836200045560201b60201c565b5050565b505050565b505050565b8260048101928215620004a1579160200282015b82811115620004a05782518290805190602001906200048f929190620004b4565b50916020019190600101906200046e565b5b509050620004b0919062000545565b5090565b828054620004c290620008e2565b90600052602060002090601f016020900481019282620004e6576000855562000532565b82601f106200050157805160ff191683800117855562000532565b8280016001018555821562000532579182015b828111156200053157825182559160200191906001019062000514565b5b5090506200054191906200056d565b5090565b5b808211156200056957600081816200055f91906200058c565b5060010162000546565b5090565b5b80821115620005885760008160009055506001016200056e565b5090565b5080546200059a90620008e2565b6000825580601f10620005ae5750620005cf565b601f016020900490600052602060002090810190620005ce91906200056d565b5b50565b6000620005e1601f8362000664565b91507f45524332303a206d696e7420746f20746865207a65726f2061646472657373006000830152602082019050919050565b6200061f81620008cb565b82525050565b600060208201905081810360008301526200064081620005d2565b9050919050565b60006020820190506200065e600083018462000614565b92915050565b600082825260208201905092915050565b60006200068282620008cb565b91506200068f83620008cb565b9250827fffffffffffffffffffffffffffffffffffffffffffffffffffffffffffffffff03821115620006c757620006c662000918565b5b828201905092915050565b6000808291508390505b60018511156200072457808604811115620006fc57620006fb62000918565b5b60018516156200070c5780820291505b80810290506200071c8562000976565b9450620006dc565b94509492505050565b60006200073a82620008cb565b91506200074783620008d5565b9250620007767fffffffffffffffffffffffffffffffffffffffffffffffffffffffffffffffff84846200077e565b905092915050565b60008262000790576001905062000863565b81620007a0576000905062000863565b8160018114620007b95760028114620007c457620007fa565b600191505062000863565b60ff841115620007d957620007d862000918565b5b8360020a915084821115620007f357620007f262000918565b5b5062000863565b5060208310610133831016604e8410600b8410161715620008345782820a9050838111156200082e576200082d62000918565b5b62000863565b620008438484846001620006d2565b925090508184048111156200085d576200085c62000918565b5b81810290505b9392505050565b60006200087782620008cb565b91506200088483620008cb565b9250817fffffffffffffffffffffffffffffffffffffffffffffffffffffffffffffffff0483118215151615620008c057620008bf62000918565b5b828202905092915050565b6000819050919050565b600060ff82169050919050565b60006002820490506001821680620008fb57607f821691505b6020821081141562000912576200091162000947565b5b50919050565b7f4e487b7100000000000000000000000000000000000000000000000000000000600052601160045260246000fd5b7f4e487b7100000000000000000000000000000000000000000000000000000000600052602260045260246000fd5b60008160011c9050919050565b612b1080620009936000396000f3fe6080604052600436106101815760003560e01c8063a120c14f116100d1578063c0efbd2a1161008a578063dbcfc4a011610064578063dbcfc4a0146105cf578063dd62ed3e1461060c578063ecd0c0c314610649578063ef2059af1461067457610181565b8063c0efbd2a1461053e578063c39badfd14610569578063c9990aa61461059257610181565b8063a120c14f14610427578063a457c2d714610452578063a543a7171461048f578063a9059cbb146104ab578063affe39c1146104e8578063b09f12661461051357610181565b8063313ce5671161013e5780636bb7abc4116101185780636bb7abc41461033f57806370a08231146103805780637639c108146103bd57806395d89b41146103fc57610181565b8063313ce567146102ac57806332424aa3146102d7578063395093511461030257610181565b806306fdde0314610186578063095ea7b3146101b157806318160ddd146101ee57806323b872dd146102195780632dd9cecd146102565780632ff2e9dc14610281575b600080fd5b34801561019257600080fd5b5061019b61069f565b6040516101a891906123b6565b60405180910390f35b3480156101bd57600080fd5b506101d860048036038101906101d39190611e8c565b610731565b6040516101e5919061239b565b60405180910390f35b3480156101fa57600080fd5b5061020361074f565b60405161021091906124b8565b60405180910390f35b34801561022557600080fd5b50610240600480360381019061023b9190611e3d565b610759565b60405161024d919061239b565b60405180910390f35b34801561026257600080fd5b5061026b610851565b60405161027891906124b8565b60405180910390f35b34801561028d57600080fd5b50610296610857565b6040516102a391906124b8565b60405180910390f35b3480156102b857600080fd5b506102c161085f565b6040516102ce9190612580565b60405180910390f35b3480156102e357600080fd5b506102ec610868565b6040516102f99190612580565b60405180910390f35b34801561030e57600080fd5b5061032960048036038101906103249190611e8c565b61086d565b604051610336919061239b565b60405180910390f35b34801561034b57600080fd5b5061036660048036038101906103619190611f47565b610919565b604051610377959493929190612518565b60405180910390f35b34801561038c57600080fd5b506103a760048036038101906103a29190611dd8565b610af5565b6040516103b491906124b8565b60405180910390f35b3480156103c957600080fd5b506103e460048036038101906103df9190611fc4565b610b3d565b6040516103f3939291906124d3565b60405180910390f35b34801561040857600080fd5b50610411610c94565b60405161041e91906123b6565b60405180910390f35b34801561043357600080fd5b5061043c610d26565b60405161044991906124b8565b60405180910390f35b34801561045e57600080fd5b5061047960048036038101906104749190611e8c565b610d2c565b604051610486919061239b565b60405180910390f35b6104a960048036038101906104a49190611f47565b610e17565b005b3480156104b757600080fd5b506104d260048036038101906104cd9190611e8c565b610e83565b6040516104df919061239b565b60405180910390f35b3480156104f457600080fd5b506104fd610ea1565b60405161050a9190612380565b60405180910390f35b34801561051f57600080fd5b50610528610ec7565b60405161053591906123b6565b60405180910390f35b34801561054a57600080fd5b50610553610f00565b6040516105609190612380565b60405180910390f35b34801561057557600080fd5b50610590600480360381019061058b9190611f70565b610f26565b005b34801561059e57600080fd5b506105b960048036038101906105b49190611f47565b61147a565b6040516105c691906123b6565b60405180910390f35b3480156105db57600080fd5b506105f660048036038101906105f19190611ec8565b61151d565b60405161060391906124b8565b60405180910390f35b34801561061857600080fd5b50610633600480360381019061062e9190611e01565b61174a565b60405161064091906124b8565b60405180910390f35b34801561065557600080fd5b5061065e6117d1565b60405161066b91906123b6565b60405180910390f35b34801561068057600080fd5b5061068961180a565b6040516106969190612380565b60405180910390f35b6060600380546106ae906128de565b80601f01602080910402602001604051908101604052809291908181526020018280546106da906128de565b80156107275780601f106106fc57610100808354040283529160200191610727565b820191906000526020600020905b81548152906001019060200180831161070a57829003601f168201915b5050505050905090565b600061074561073e611830565b8484611838565b6001905092915050565b6000600254905090565b6000610766848484611a03565b6000600160008673ffffffffffffffffffffffffffffffffffffffff1673ffffffffffffffffffffffffffffffffffffffff16815260200190815260200160002060006107b1611830565b73ffffffffffffffffffffffffffffffffffffffff1673ffffffffffffffffffffffffffffffffffffffff16815260200190815260200160002054905082811015610831576040517f08c379a000000000000000000000000000000000000000000000000000000000815260040161082890612438565b60405180910390fd5b6108458561083d611830565b858403611838565b60019150509392505050565b60085481565b6305f5e10081565b60006012905090565b601281565b600061090f61087a611830565b848460016000610888611830565b73ffffffffffffffffffffffffffffffffffffffff1673ffffffffffffffffffffffffffffffffffffffff16815260200190815260200160002060008873ffffffffffffffffffffffffffffffffffffffff1673ffffffffffffffffffffffffffffffffffffffff1681526020019081526020016000205461090a9190612618565b611838565b6001905092915050565b600e6020528060005260406000206000915090508060000154908060010160009054906101000a900461ffff1690806002018054610956906128de565b80601f0160208091040260200160405190810160405280929190818152602001828054610982906128de565b80156109cf5780601f106109a4576101008083540402835291602001916109cf565b820191906000526020600020905b8154815290600101906020018083116109b257829003601f168201915b5050505050908060030180546109e4906128de565b80601f0160208091040260200160405190810160405280929190818152602001828054610a10906128de565b8015610a5d5780601f10610a3257610100808354040283529160200191610a5d565b820191906000526020600020905b815481529060010190602001808311610a4057829003601f168201915b505050505090806004018054610a72906128de565b80601f0160208091040260200160405190810160405280929190818152602001828054610a9e906128de565b8015610aeb5780601f10610ac057610100808354040283529160200191610aeb565b820191906000526020600020905b815481529060010190602001808311610ace57829003601f168201915b5050505050905085565b60008060008373ffffffffffffffffffffffffffffffffffffffff1673ffffffffffffffffffffffffffffffffffffffff168152602001908152602001600020549050919050565b600f6020528160005260406000208181548110610b5957600080fd5b906000526020600020906003020160009150915050806000015490806001018054610b83906128de565b80601f0160208091040260200160405190810160405280929190818152602001828054610baf906128de565b8015610bfc5780601f10610bd157610100808354040283529160200191610bfc565b820191906000526020600020905b815481529060010190602001808311610bdf57829003601f168201915b505050505090806002018054610c11906128de565b80601f0160208091040260200160405190810160405280929190818152602001828054610c3d906128de565b8015610c8a5780601f10610c5f57610100808354040283529160200191610c8a565b820191906000526020600020905b815481529060010190602001808311610c6d57829003601f168201915b5050505050905083565b606060048054610ca3906128de565b80601f0160208091040260200160405190810160405280929190818152602001828054610ccf906128de565b8015610d1c5780601f10610cf157610100808354040283529160200191610d1c565b820191906000526020600020905b815481529060010190602001808311610cff57829003601f168201915b5050505050905090565b60095481565b60008060016000610d3b611830565b73ffffffffffffffffffffffffffffffffffffffff1673ffffffffffffffffffffffffffffffffffffffff16815260200190815260200160002060008573ffffffffffffffffffffffffffffffffffffffff1673ffffffffffffffffffffffffffffffffffffffff16815260200190815260200160002054905082811015610df8576040517f08c379a0000000000000000000000000000000000000000000000000000000008152600401610def90612498565b60405180910390fd5b610e0c610e03611830565b85858403611838565b600191505092915050565b6000610e2161085f565b60ff16600a610e3091906126c1565b82610e3b91906127df565b905080610e4733610af5565b1015610e5257600080fd5b610e7e600660009054906101000a900473ffffffffffffffffffffffffffffffffffffffff1682610e83565b505050565b6000610e97610e90611830565b8484611a03565b6001905092915050565b600660009054906101000a900473ffffffffffffffffffffffffffffffffffffffff1681565b6040518060400160405280600381526020017f444254000000000000000000000000000000000000000000000000000000000081525081565b600760009054906101000a900473ffffffffffffffffffffffffffffffffffffffff1681565b6000600f60008481526020019081526020016000208054905090506000600f60008581526020019081526020016000208281548110610f8e577f4e487b7100000000000000000000000000000000000000000000000000000000600052603260045260246000fd5b9060005260206000209060030201600001549050600080600433604051602001610fb89190612365565b6040516020818303038152906040528051906020012060001c610fdb919061297d565b905042610e1084610fec9190612618565b111580156110065750611c20836110039190612618565b42105b156111a557600f60008781526020019081526020016000206040518060600160405280428152602001600a8460048110611069577f4e487b7100000000000000000000000000000000000000000000000000000000600052603260045260246000fd5b018054611075906128de565b80601f01602080910402602001604051908101604052809291908181526020018280546110a1906128de565b80156110ee5780601f106110c3576101008083540402835291602001916110ee565b820191906000526020600020905b8154815290600101906020018083116110d157829003601f168201915b505050505081526020016040518060400160405280600a81526020017f44656c69766572696e67000000000000000000000000000000000000000000008152508152509080600181540180825580915050600190039060005260206000209060030201600090919091909150600082015181600001556020820151816001019080519060200190611180929190611c8e565b50604082015181600201908051906020019061119d929190611c8e565b505050611472565b42611c20846111b49190612618565b111580156111ce5750612a30836111cb9190612618565b42105b1561138557600f60008781526020019081526020016000206040518060600160405280428152602001600a60046001866112089190612618565b611212919061297d565b60048110611249577f4e487b7100000000000000000000000000000000000000000000000000000000600052603260045260246000fd5b018054611255906128de565b80601f0160208091040260200160405190810160405280929190818152602001828054611281906128de565b80156112ce5780601f106112a3576101008083540402835291602001916112ce565b820191906000526020600020905b8154815290600101906020018083116112b157829003601f168201915b505050505081526020016040518060400160405280600a81526020017f44656c69766572696e67000000000000000000000000000000000000000000008152508152509080600181540180825580915050600190039060005260206000209060030201600090919091909150600082015181600001556020820151816001019080519060200190611360929190611c8e565b50604082015181600201908051906020019061137d929190611c8e565b505050611471565b42612a30846113949190612618565b1161147057600f600087815260200190815260200160002060405180606001604052804281526020018781526020016040518060400160405280601281526020017f44656c697665727920436f6d706c657465640000000000000000000000000000815250815250908060018154018082558091505060019003906000526020600020906003020160009091909190915060008201518160000155602082015181600101908051906020019061144b929190611c8e565b506040820151816002019080519060200190611468929190611c8e565b505050600191505b5b5b505050505050565b600a816004811061148a57600080fd5b01600091509050805461149c906128de565b80601f01602080910402602001604051908101604052809291908181526020018280546114c8906128de565b80156115155780601f106114ea57610100808354040283529160200191611515565b820191906000526020600020905b8154815290600101906020018083116114f857829003601f168201915b505050505081565b60006008600081548092919061153290612910565b91905055506040518060a0016040528060085481526020018361ffff1681526020018581526020016040518060400160405280600c81526020017f446f427579204d61726b65740000000000000000000000000000000000000000815250815260200184815250600e600060085481526020019081526020016000206000820151816000015560208201518160010160006101000a81548161ffff021916908361ffff16021790555060408201518160020190805190602001906115f7929190611c8e565b506060820151816003019080519060200190611614929190611c8e565b506080820151816004019080519060200190611631929190611c8e565b50905050600f6000600854815260200190815260200160002060405180606001604052804281526020016040518060400160405280601081526020017f6765756d626f6b206275696c64696e670000000000000000000000000000000081525081526020016040518060400160405280600e81526020017f53746172742044656c6976657279000000000000000000000000000000000000815250815250908060018154018082558091505060019003906000526020600020906003020160009091909190915060008201518160000155602082015181600101908051906020019061171e929190611c8e565b50604082015181600201908051906020019061173b929190611c8e565b50505060085490509392505050565b6000600160008473ffffffffffffffffffffffffffffffffffffffff1673ffffffffffffffffffffffffffffffffffffffff16815260200190815260200160002060008373ffffffffffffffffffffffffffffffffffffffff1673ffffffffffffffffffffffffffffffffffffffff16815260200190815260200160002054905092915050565b6040518060400160405280600a81526020017f446f427579546f6b656e0000000000000000000000000000000000000000000081525081565b600560009054906101000a900473ffffffffffffffffffffffffffffffffffffffff1681565b600033905090565b600073ffffffffffffffffffffffffffffffffffffffff168373ffffffffffffffffffffffffffffffffffffffff1614156118a8576040517f08c379a000000000000000000000000000000000000000000000000000000000815260040161189f90612478565b60405180910390fd5b600073ffffffffffffffffffffffffffffffffffffffff168273ffffffffffffffffffffffffffffffffffffffff161415611918576040517f08c379a000000000000000000000000000000000000000000000000000000000815260040161190f906123f8565b60405180910390fd5b80600160008573ffffffffffffffffffffffffffffffffffffffff1673ffffffffffffffffffffffffffffffffffffffff16815260200190815260200160002060008473ffffffffffffffffffffffffffffffffffffffff1673ffffffffffffffffffffffffffffffffffffffff168152602001908152602001600020819055508173ffffffffffffffffffffffffffffffffffffffff168373ffffffffffffffffffffffffffffffffffffffff167f8c5be1e5ebec7d5bd14f71427d1e84f3dd0314c0f7b2291e5b200ac8c7c3b925836040516119f691906124b8565b60405180910390a3505050565b600073ffffffffffffffffffffffffffffffffffffffff168373ffffffffffffffffffffffffffffffffffffffff161415611a73576040517f08c379a0000000000000000000000000000000000000000000000000000000008152600401611a6a90612458565b60405180910390fd5b600073ffffffffffffffffffffffffffffffffffffffff168273ffffffffffffffffffffffffffffffffffffffff161415611ae3576040517f08c379a0000000000000000000000000000000000000000000000000000000008152600401611ada906123d8565b60405180910390fd5b611aee838383611c84565b60008060008573ffffffffffffffffffffffffffffffffffffffff1673ffffffffffffffffffffffffffffffffffffffff16815260200190815260200160002054905081811015611b74576040517f08c379a0000000000000000000000000000000000000000000000000000000008152600401611b6b90612418565b60405180910390fd5b8181036000808673ffffffffffffffffffffffffffffffffffffffff1673ffffffffffffffffffffffffffffffffffffffff16815260200190815260200160002081905550816000808573ffffffffffffffffffffffffffffffffffffffff1673ffffffffffffffffffffffffffffffffffffffff1681526020019081526020016000206000828254611c079190612618565b925050819055508273ffffffffffffffffffffffffffffffffffffffff168473ffffffffffffffffffffffffffffffffffffffff167fddf252ad1be2c89b69c2b068fc378daa952ba7f163c4a11628f55a4df523b3ef84604051611c6b91906124b8565b60405180910390a3611c7e848484611c89565b50505050565b505050565b505050565b828054611c9a906128de565b90600052602060002090601f016020900481019282611cbc5760008555611d03565b82601f10611cd557805160ff1916838001178555611d03565b82800160010185558215611d03579182015b82811115611d02578251825591602001919060010190611ce7565b5b509050611d109190611d14565b5090565b5b80821115611d2d576000816000905550600101611d15565b5090565b6000611d44611d3f846125cc565b61259b565b905082815260208101848484011115611d5c57600080fd5b611d6784828561289c565b509392505050565b600081359050611d7e81612a95565b92915050565b600082601f830112611d9557600080fd5b8135611da5848260208601611d31565b91505092915050565b600081359050611dbd81612aac565b92915050565b600081359050611dd281612ac3565b92915050565b600060208284031215611dea57600080fd5b6000611df884828501611d6f565b91505092915050565b60008060408385031215611e1457600080fd5b6000611e2285828601611d6f565b9250506020611e3385828601611d6f565b9150509250929050565b600080600060608486031215611e5257600080fd5b6000611e6086828701611d6f565b9350506020611e7186828701611d6f565b9250506040611e8286828701611dc3565b9150509250925092565b60008060408385031215611e9f57600080fd5b6000611ead85828601611d6f565b9250506020611ebe85828601611dc3565b9150509250929050565b600080600060608486031215611edd57600080fd5b600084013567ffffffffffffffff811115611ef757600080fd5b611f0386828701611d84565b935050602084013567ffffffffffffffff811115611f2057600080fd5b611f2c86828701611d84565b9250506040611f3d86828701611dae565b9150509250925092565b600060208284031215611f5957600080fd5b6000611f6784828501611dc3565b91505092915050565b60008060408385031215611f8357600080fd5b6000611f9185828601611dc3565b925050602083013567ffffffffffffffff811115611fae57600080fd5b611fba85828601611d84565b9150509250929050565b60008060408385031215611fd757600080fd5b6000611fe585828601611dc3565b9250506020611ff685828601611dc3565b9150509250929050565b61200981612839565b82525050565b61202061201b82612839565b612959565b82525050565b61202f8161284b565b82525050565b6000612040826125fc565b61204a8185612607565b935061205a8185602086016128ab565b61206381612a6a565b840191505092915050565b600061207b602383612607565b91507f45524332303a207472616e7366657220746f20746865207a65726f206164647260008301527f65737300000000000000000000000000000000000000000000000000000000006020830152604082019050919050565b60006120e1602283612607565b91507f45524332303a20617070726f766520746f20746865207a65726f20616464726560008301527f73730000000000000000000000000000000000000000000000000000000000006020830152604082019050919050565b6000612147602683612607565b91507f45524332303a207472616e7366657220616d6f756e742065786365656473206260008301527f616c616e636500000000000000000000000000000000000000000000000000006020830152604082019050919050565b60006121ad602883612607565b91507f45524332303a207472616e7366657220616d6f756e742065786365656473206160008301527f6c6c6f77616e63650000000000000000000000000000000000000000000000006020830152604082019050919050565b6000612213602583612607565b91507f45524332303a207472616e736665722066726f6d20746865207a65726f20616460008301527f64726573730000000000000000000000000000000000000000000000000000006020830152604082019050919050565b6000612279602483612607565b91507f45524332303a20617070726f76652066726f6d20746865207a65726f2061646460008301527f72657373000000000000000000000000000000000000000000000000000000006020830152604082019050919050565b60006122df602583612607565b91507f45524332303a2064656372656173656420616c6c6f77616e63652062656c6f7760008301527f207a65726f0000000000000000000000000000000000000000000000000000006020830152604082019050919050565b61234181612857565b82525050565b61235081612885565b82525050565b61235f8161288f565b82525050565b6000612371828461200f565b60148201915081905092915050565b60006020820190506123956000830184612000565b92915050565b60006020820190506123b06000830184612026565b92915050565b600060208201905081810360008301526123d08184612035565b905092915050565b600060208201905081810360008301526123f18161206e565b9050919050565b60006020820190508181036000830152612411816120d4565b9050919050565b600060208201905081810360008301526124318161213a565b9050919050565b60006020820190508181036000830152612451816121a0565b9050919050565b6000602082019050818103600083015261247181612206565b9050919050565b600060208201905081810360008301526124918161226c565b9050919050565b600060208201905081810360008301526124b1816122d2565b9050919050565b60006020820190506124cd6000830184612347565b92915050565b60006060820190506124e86000830186612347565b81810360208301526124fa8185612035565b9050818103604083015261250e8184612035565b9050949350505050565b600060a08201905061252d6000830188612347565b61253a6020830187612338565b818103604083015261254c8186612035565b905081810360608301526125608185612035565b905081810360808301526125748184612035565b90509695505050505050565b60006020820190506125956000830184612356565b92915050565b6000604051905081810181811067ffffffffffffffff821117156125c2576125c1612a3b565b5b8060405250919050565b600067ffffffffffffffff8211156125e7576125e6612a3b565b5b601f19601f8301169050602081019050919050565b600081519050919050565b600082825260208201905092915050565b600061262382612885565b915061262e83612885565b9250827fffffffffffffffffffffffffffffffffffffffffffffffffffffffffffffffff03821115612663576126626129ae565b5b828201905092915050565b6000808291508390505b60018511156126b857808604811115612694576126936129ae565b5b60018516156126a35780820291505b80810290506126b185612a88565b9450612678565b94509492505050565b60006126cc82612885565b91506126d783612885565b92506127047fffffffffffffffffffffffffffffffffffffffffffffffffffffffffffffffff848461270c565b905092915050565b60008261271c57600190506127d8565b8161272a57600090506127d8565b8160018114612740576002811461274a57612779565b60019150506127d8565b60ff84111561275c5761275b6129ae565b5b8360020a915084821115612773576127726129ae565b5b506127d8565b5060208310610133831016604e8410600b84101617156127ae5782820a9050838111156127a9576127a86129ae565b5b6127d8565b6127bb848484600161266e565b925090508184048111156127d2576127d16129ae565b5b81810290505b9392505050565b60006127ea82612885565b91506127f583612885565b9250817fffffffffffffffffffffffffffffffffffffffffffffffffffffffffffffffff048311821515161561282e5761282d6129ae565b5b828202905092915050565b600061284482612865565b9050919050565b60008115159050919050565b600061ffff82169050919050565b600073ffffffffffffffffffffffffffffffffffffffff82169050919050565b6000819050919050565b600060ff82169050919050565b82818337600083830152505050565b60005b838110156128c95780820151818401526020810190506128ae565b838111156128d8576000848401525b50505050565b600060028204905060018216806128f657607f821691505b6020821081141561290a57612909612a0c565b5b50919050565b600061291b82612885565b91507fffffffffffffffffffffffffffffffffffffffffffffffffffffffffffffffff82141561294e5761294d6129ae565b5b600182019050919050565b60006129648261296b565b9050919050565b600061297682612a7b565b9050919050565b600061298882612885565b915061299383612885565b9250826129a3576129a26129dd565b5b828206905092915050565b7f4e487b7100000000000000000000000000000000000000000000000000000000600052601160045260246000fd5b7f4e487b7100000000000000000000000000000000000000000000000000000000600052601260045260246000fd5b7f4e487b7100000000000000000000000000000000000000000000000000000000600052602260045260246000fd5b7f4e487b7100000000000000000000000000000000000000000000000000000000600052604160045260246000fd5b6000601f19601f8301169050919050565b60008160601b9050919050565b60008160011c9050919050565b612a9e81612839565b8114612aa957600080fd5b50565b612ab581612857565b8114612ac057600080fd5b50565b612acc81612885565b8114612ad757600080fd5b5056fea2646970667358221220f683829f75ee054dd7aeaf6f0502f19ac705e870910b19626f6673c6c4a6d6ea64736f6c63430008000033",
  "immutableReferences": {},
  "source": "// SPDX-License-Identifier: MIT\r\npragma solidity >=0.4.22 <0.9.0;\r\n\r\nimport \"@openzeppelin/contracts/token/ERC20/ERC20.sol\";\r\nimport \"@openzeppelin/contracts/utils/Counters.sol\";\r\nimport \"./SafeMath.sol\";\r\n\r\ncontract DoBuyToken is ERC20 {\r\n    // using Counters for Counters.Counter;\r\n    // using SafeMath for uint256;\r\n\r\n    //   \r\n    address public now_wallet = payable(msg.sender);\r\n\r\n    address public owners;\r\n\r\n    /// @notice  \r\n    string public constant _token = \"DoBuyToken\";\r\n\r\n    /// @notice  \r\n    string public constant _symbol = \"DBT\";\r\n\r\n    /// @notice \r\n    uint8 public constant _decimals = 18;\r\n\r\n    /// @notice   \r\n    uint256 public constant INITIAL_SUPPLY = 100000000;\r\n    \r\n    /// @notice  \r\n    address public user_wallet = payable(msg.sender);\r\n\r\n    /// @notice \r\n    // Counters.Counter public _trackingIds;\r\n    uint256 public _trackingIds;\r\n    uint256 public dd;\r\n\r\n    /// @dev  \r\n    struct deliveryBill {\r\n        uint256 _Ids;   //  - counter\r\n        uint16 amount;\r\n        string name;\r\n        string sender;\r\n        string receiver;\r\n    }\r\n\r\n    /// @dev   ( )\r\n    /// :  / : , , , Hub   / :  \r\n    struct deliveryTracking {\r\n        uint256 timestamp;\r\n        string location;    \r\n        string status;  // , , \r\n    }\r\n\r\n    // /// @dev   ( )\r\n    // deliveryTracking[] public trackinglist;\r\n\r\n    string[4] public location = [\"Gimpo\", \"Gonjiam\", \"Icheon\", \"Gwangju\"];\r\n\r\n    //  \r\n    mapping (uint256 => deliveryBill) public billArray;\r\n\r\n    //    : trackingId  . deliveryTracking     trackingArray value\r\n    mapping (uint256 => deliveryTracking[]) public trackingArray;\r\n\r\n    constructor() ERC20(\"DoBuyToken\", \"DBT\") {\r\n        owners = payable(msg.sender);\r\n        _mint(owners, INITIAL_SUPPLY * 10 ** _decimals);\r\n    }\r\n    \r\n    /**\r\n    * @dev   .  ,  ,   .\r\n    * @param _name \r\n    * @param _receiver  \r\n    * @param _amount \r\n     */\r\n    function deliveryStart(string memory _name, string memory _receiver, uint16 _amount) public returns (uint256){\r\n        // _trackingIds.increment();\r\n        _trackingIds++;\r\n        billArray[_trackingIds] = deliveryBill(_trackingIds, _amount, _name, \"DoBuy Market\", _receiver);\r\n        trackingArray[_trackingIds].push(deliveryTracking(block.timestamp, \"geumbok building\", \"Start Delivery\"));\r\n        return _trackingIds;\r\n    }\r\n    /**\r\n    * @dev   setInterval    .\r\n    *      setInterval    block.timestamp    \r\n    * @param _Ids (_trackingIds)\r\n    */\r\n    function deliveryUpdate(uint256 _Ids, string memory _dest) public {\r\n        //  trackinglist timestamp\r\n        uint256 listlength = trackingArray[_Ids].length;\r\n        uint256 lastTime = trackingArray[_Ids][listlength].timestamp;\r\n        bool completed = false;\r\n        uint256 userDeliveryNum = uint256(keccak256(abi.encodePacked(msg.sender))) % 4;\r\n        if (lastTime + 1 hours <= block.timestamp && block.timestamp < lastTime + 2 hours) {\r\n            trackingArray[_Ids].push(deliveryTracking(block.timestamp, location[userDeliveryNum], \"Delivering\"));\r\n        } else if (lastTime + 2 hours <= block.timestamp && block.timestamp < lastTime + 3 hours) {\r\n            trackingArray[_Ids].push(deliveryTracking(block.timestamp, location[(userDeliveryNum + 1) % 4], \"Delivering\"));\r\n        } else if (lastTime + 3 hours <= block.timestamp) {\r\n            trackingArray[_Ids].push(deliveryTracking(block.timestamp, _dest, \"Delivery Completed\"));\r\n            completed = true;\r\n        }\r\n    }\r\n\r\n    /**\r\n     * @dev MarketNFT DoBuyToken  \r\n     * @param _amounts   \r\n     */\r\n    function getOwnerToken(uint256 _amounts) payable public {\r\n        uint256 prices = _amounts * 10 ** (uint(decimals()));\r\n        require(balanceOf(msg.sender) >= prices);\r\n        transfer(owners, prices);\r\n    }\r\n}",
  "sourcePath": "C:\\Users\\kga6_7\\Desktop\\yejin\\nft_3\\contracts\\DoBuyToken.sol",
  "compiler": {
    "name": "solc",
    "version": "0.8.0+commit.c7dfd78e.Emscripten.clang"
  },
  "schemaVersion": "3.4.2",
  "updatedAt": "2021-08-23T11:28:42.820Z",
  "networkType": "ethereum",
  "devdoc": {
    "kind": "dev",
    "methods": {
      "allowance(address,address)": {
        "details": "See {IERC20-allowance}."
      },
      "approve(address,uint256)": {
        "details": "See {IERC20-approve}. Requirements: - `spender` cannot be the zero address."
      },
      "balanceOf(address)": {
        "details": "See {IERC20-balanceOf}."
      },
      "decimals()": {
        "details": "Returns the number of decimals used to get its user representation. For example, if `decimals` equals `2`, a balance of `505` tokens should be displayed to a user as `5.05` (`505 / 10 ** 2`). Tokens usually opt for a value of 18, imitating the relationship between Ether and Wei. This is the value {ERC20} uses, unless this function is overridden; NOTE: This information is only used for _display_ purposes: it in no way affects any of the arithmetic of the contract, including {IERC20-balanceOf} and {IERC20-transfer}."
      },
      "decreaseAllowance(address,uint256)": {
        "details": "Atomically decreases the allowance granted to `spender` by the caller. This is an alternative to {approve} that can be used as a mitigation for problems described in {IERC20-approve}. Emits an {Approval} event indicating the updated allowance. Requirements: - `spender` cannot be the zero address. - `spender` must have allowance for the caller of at least `subtractedValue`."
      },
      "deliveryStart(string,string,uint16)": {
        "details": "  .  ,  ,   .",
        "params": {
          "_amount": "",
          "_name": "",
          "_receiver": " "
        }
      },
      "deliveryUpdate(uint256,string)": {
        "details": "  setInterval    .      setInterval    block.timestamp    ",
        "params": {
          "_Ids": "(_trackingIds)"
        }
      },
      "getOwnerToken(uint256)": {
        "details": "MarketNFT DoBuyToken  ",
        "params": {
          "_amounts": "  "
        }
      },
      "increaseAllowance(address,uint256)": {
        "details": "Atomically increases the allowance granted to `spender` by the caller. This is an alternative to {approve} that can be used as a mitigation for problems described in {IERC20-approve}. Emits an {Approval} event indicating the updated allowance. Requirements: - `spender` cannot be the zero address."
      },
      "name()": {
        "details": "Returns the name of the token."
      },
      "symbol()": {
        "details": "Returns the symbol of the token, usually a shorter version of the name."
      },
      "totalSupply()": {
        "details": "See {IERC20-totalSupply}."
      },
      "transfer(address,uint256)": {
        "details": "See {IERC20-transfer}. Requirements: - `recipient` cannot be the zero address. - the caller must have a balance of at least `amount`."
      },
      "transferFrom(address,address,uint256)": {
        "details": "See {IERC20-transferFrom}. Emits an {Approval} event indicating the updated allowance. This is not required by the EIP. See the note at the beginning of {ERC20}. Requirements: - `sender` and `recipient` cannot be the zero address. - `sender` must have a balance of at least `amount`. - the caller must have allowance for ``sender``'s tokens of at least `amount`."
      }
    },
    "version": 1
  },
  "userdoc": {
    "kind": "user",
    "methods": {
      "INITIAL_SUPPLY()": {
        "notice": "  "
      },
      "_decimals()": {
        "notice": ""
      },
      "_symbol()": {
        "notice": " "
      },
      "_token()": {
        "notice": " "
      },
      "_trackingIds()": {
        "notice": ""
      },
      "user_wallet()": {
        "notice": " "
      }
    },
    "version": 1
  }
}