{
  "contractName": "DoBuyNFT",
  "abi": [
    {
      "inputs": [],
      "stateMutability": "nonpayable",
      "type": "constructor"
    },
    {
      "anonymous": false,
      "inputs": [
        {
          "indexed": true,
          "internalType": "address",
          "name": "owner",
          "type": "address"
        },
        {
          "indexed": true,
          "internalType": "address",
          "name": "approved",
          "type": "address"
        },
        {
          "indexed": true,
          "internalType": "uint256",
          "name": "tokenId",
          "type": "uint256"
        }
      ],
      "name": "Approval",
      "type": "event"
    },
    {
      "anonymous": false,
      "inputs": [
        {
          "indexed": true,
          "internalType": "address",
          "name": "owner",
          "type": "address"
        },
        {
          "indexed": true,
          "internalType": "address",
          "name": "operator",
          "type": "address"
        },
        {
          "indexed": false,
          "internalType": "bool",
          "name": "approved",
          "type": "bool"
        }
      ],
      "name": "ApprovalForAll",
      "type": "event"
    },
    {
      "anonymous": false,
      "inputs": [
        {
          "indexed": false,
          "internalType": "address",
          "name": "",
          "type": "address"
        },
        {
          "indexed": false,
          "internalType": "uint256",
          "name": "",
          "type": "uint256"
        }
      ],
      "name": "DoBuyCreated",
      "type": "event"
    },
    {
      "anonymous": false,
      "inputs": [
        {
          "indexed": true,
          "internalType": "address",
          "name": "from",
          "type": "address"
        },
        {
          "indexed": true,
          "internalType": "address",
          "name": "to",
          "type": "address"
        },
        {
          "indexed": true,
          "internalType": "uint256",
          "name": "tokenId",
          "type": "uint256"
        }
      ],
      "name": "Transfer",
      "type": "event"
    },
    {
      "inputs": [
        {
          "internalType": "uint256",
          "name": "",
          "type": "uint256"
        }
      ],
      "name": "_DoBuyToOwner",
      "outputs": [
        {
          "internalType": "address",
          "name": "",
          "type": "address"
        }
      ],
      "stateMutability": "view",
      "type": "function",
      "constant": true
    },
    {
      "inputs": [
        {
          "internalType": "uint256",
          "name": "",
          "type": "uint256"
        }
      ],
      "name": "_DoBuylist",
      "outputs": [
        {
          "internalType": "uint256",
          "name": "_Ids",
          "type": "uint256"
        },
        {
          "internalType": "uint256",
          "name": "timestamp",
          "type": "uint256"
        },
        {
          "internalType": "string",
          "name": "name",
          "type": "string"
        },
        {
          "internalType": "string",
          "name": "image_url",
          "type": "string"
        }
      ],
      "stateMutability": "view",
      "type": "function",
      "constant": true
    },
    {
      "inputs": [
        {
          "internalType": "uint256",
          "name": "",
          "type": "uint256"
        }
      ],
      "name": "_TradeTransaction",
      "outputs": [
        {
          "internalType": "address",
          "name": "_from",
          "type": "address"
        },
        {
          "internalType": "address",
          "name": "_to",
          "type": "address"
        },
        {
          "internalType": "string",
          "name": "name",
          "type": "string"
        }
      ],
      "stateMutability": "view",
      "type": "function",
      "constant": true
    },
    {
      "inputs": [
        {
          "internalType": "address",
          "name": "to",
          "type": "address"
        },
        {
          "internalType": "uint256",
          "name": "tokenId",
          "type": "uint256"
        }
      ],
      "name": "approve",
      "outputs": [],
      "stateMutability": "nonpayable",
      "type": "function"
    },
    {
      "inputs": [
        {
          "internalType": "address",
          "name": "owner",
          "type": "address"
        }
      ],
      "name": "balanceOf",
      "outputs": [
        {
          "internalType": "uint256",
          "name": "",
          "type": "uint256"
        }
      ],
      "stateMutability": "view",
      "type": "function",
      "constant": true
    },
    {
      "inputs": [
        {
          "internalType": "uint256",
          "name": "tokenId",
          "type": "uint256"
        }
      ],
      "name": "getApproved",
      "outputs": [
        {
          "internalType": "address",
          "name": "",
          "type": "address"
        }
      ],
      "stateMutability": "view",
      "type": "function",
      "constant": true
    },
    {
      "inputs": [
        {
          "internalType": "address",
          "name": "owner",
          "type": "address"
        },
        {
          "internalType": "address",
          "name": "operator",
          "type": "address"
        }
      ],
      "name": "isApprovedForAll",
      "outputs": [
        {
          "internalType": "bool",
          "name": "",
          "type": "bool"
        }
      ],
      "stateMutability": "view",
      "type": "function",
      "constant": true
    },
    {
      "inputs": [],
      "name": "name",
      "outputs": [
        {
          "internalType": "string",
          "name": "",
          "type": "string"
        }
      ],
      "stateMutability": "view",
      "type": "function",
      "constant": true
    },
    {
      "inputs": [
        {
          "internalType": "uint256",
          "name": "tokenId",
          "type": "uint256"
        }
      ],
      "name": "ownerOf",
      "outputs": [
        {
          "internalType": "address",
          "name": "",
          "type": "address"
        }
      ],
      "stateMutability": "view",
      "type": "function",
      "constant": true
    },
    {
      "inputs": [
        {
          "internalType": "address",
          "name": "from",
          "type": "address"
        },
        {
          "internalType": "address",
          "name": "to",
          "type": "address"
        },
        {
          "internalType": "uint256",
          "name": "tokenId",
          "type": "uint256"
        }
      ],
      "name": "safeTransferFrom",
      "outputs": [],
      "stateMutability": "nonpayable",
      "type": "function"
    },
    {
      "inputs": [
        {
          "internalType": "address",
          "name": "from",
          "type": "address"
        },
        {
          "internalType": "address",
          "name": "to",
          "type": "address"
        },
        {
          "internalType": "uint256",
          "name": "tokenId",
          "type": "uint256"
        },
        {
          "internalType": "bytes",
          "name": "_data",
          "type": "bytes"
        }
      ],
      "name": "safeTransferFrom",
      "outputs": [],
      "stateMutability": "nonpayable",
      "type": "function"
    },
    {
      "inputs": [
        {
          "internalType": "address",
          "name": "operator",
          "type": "address"
        },
        {
          "internalType": "bool",
          "name": "approved",
          "type": "bool"
        }
      ],
      "name": "setApprovalForAll",
      "outputs": [],
      "stateMutability": "nonpayable",
      "type": "function"
    },
    {
      "inputs": [
        {
          "internalType": "bytes4",
          "name": "interfaceId",
          "type": "bytes4"
        }
      ],
      "name": "supportsInterface",
      "outputs": [
        {
          "internalType": "bool",
          "name": "",
          "type": "bool"
        }
      ],
      "stateMutability": "view",
      "type": "function",
      "constant": true
    },
    {
      "inputs": [],
      "name": "symbol",
      "outputs": [
        {
          "internalType": "string",
          "name": "",
          "type": "string"
        }
      ],
      "stateMutability": "view",
      "type": "function",
      "constant": true
    },
    {
      "inputs": [
        {
          "internalType": "uint256",
          "name": "tokenId",
          "type": "uint256"
        }
      ],
      "name": "tokenURI",
      "outputs": [
        {
          "internalType": "string",
          "name": "",
          "type": "string"
        }
      ],
      "stateMutability": "view",
      "type": "function",
      "constant": true
    },
    {
      "inputs": [
        {
          "internalType": "address",
          "name": "from",
          "type": "address"
        },
        {
          "internalType": "address",
          "name": "to",
          "type": "address"
        },
        {
          "internalType": "uint256",
          "name": "tokenId",
          "type": "uint256"
        }
      ],
      "name": "transferFrom",
      "outputs": [],
      "stateMutability": "nonpayable",
      "type": "function"
    },
    {
      "inputs": [
        {
          "internalType": "string",
          "name": "_name",
          "type": "string"
        },
        {
          "internalType": "string",
          "name": "_image_url",
          "type": "string"
        }
      ],
      "name": "mint",
      "outputs": [],
      "stateMutability": "nonpayable",
      "type": "function"
    },
    {
      "inputs": [
        {
          "internalType": "uint256",
          "name": "_Id",
          "type": "uint256"
        }
      ],
      "name": "transferNFT",
      "outputs": [],
      "stateMutability": "nonpayable",
      "type": "function"
    }
  ],
  "bytecode": "0x60806040523480156200001157600080fd5b506040518060400160405280600881526020017f446f4275794e46540000000000000000000000000000000000000000000000008152506040518060400160405280600581526020017f44424e465400000000000000000000000000000000000000000000000000000081525081600090805190602001906200009692919062000278565b508060019080519060200190620000af92919062000278565b5050506040518060800160405280620000d460076200026a60201b620013141760201c565b81526020014281526020016040518060400160405280600c81526020017f446f427579205374726174210000000000000000000000000000000000000000815250815260200160405180602001604052806000815250815250600860006200014860076200026a60201b620013141760201c565b8152602001908152602001600020600082015181600001556020820151816001015560408201518160020190805190602001906200018892919062000278565b506060820151816003019080519060200190620001a792919062000278565b509050503360096000620001c760076200026a60201b620013141760201c565b815260200190815260200160002060006101000a81548173ffffffffffffffffffffffffffffffffffffffff021916908373ffffffffffffffffffffffffffffffffffffffff1602179055507f4f2674a5f38c00ecf9e7a1ac775675d39c487ab7c82bcc4ec772cdee89c2598e336200024c60076200026a60201b620013141760201c565b6040516200025c9291906200034a565b60405180910390a16200041a565b600081600001549050919050565b8280546200028690620003b5565b90600052602060002090601f016020900481019282620002aa5760008555620002f6565b82601f10620002c557805160ff1916838001178555620002f6565b82800160010185558215620002f6579182015b82811115620002f5578251825591602001919060010190620002d8565b5b50905062000305919062000309565b5090565b5b80821115620003245760008160009055506001016200030a565b5090565b620003338162000377565b82525050565b6200034481620003ab565b82525050565b600060408201905062000361600083018562000328565b62000370602083018462000339565b9392505050565b600062000384826200038b565b9050919050565b600073ffffffffffffffffffffffffffffffffffffffff82169050919050565b6000819050919050565b60006002820490506001821680620003ce57607f821691505b60208210811415620003e557620003e4620003eb565b5b50919050565b7f4e487b7100000000000000000000000000000000000000000000000000000000600052602260045260246000fd5b6130dc806200042a6000396000f3fe608060405234801561001057600080fd5b50600436106101165760003560e01c80638aa0fdad116100a2578063c87b56dd11610071578063c87b56dd146102db578063cf60e6811461030b578063e985e9c51461033e578063eeea74371461036e578063f83b3c86146103a057610116565b80638aa0fdad1461026957806395d89b4114610285578063a22cb465146102a3578063b88d4fde146102bf57610116565b806323b872dd116100e957806323b872dd146101b5578063249e10c5146101d157806342842e0e146101ed5780636352211e1461020957806370a082311461023957610116565b806301ffc9a71461011b57806306fdde031461014b578063081812fc14610169578063095ea7b314610199575b600080fd5b610135600480360381019061013091906121d0565b6103d0565b6040516101429190612a01565b60405180910390f35b6101536104b2565b6040516101609190612a1c565b60405180910390f35b610183600480360381019061017e919061228e565b610544565b6040516101909190612933565b60405180910390f35b6101b360048036038101906101ae9190612194565b6105c9565b005b6101cf60048036038101906101ca919061208e565b6106e1565b005b6101eb60048036038101906101e6919061228e565b610741565b005b6102076004803603810190610202919061208e565b610993565b005b610223600480360381019061021e919061228e565b6109b3565b6040516102309190612933565b60405180910390f35b610253600480360381019061024e9190612029565b610a65565b6040516102609190612c1e565b60405180910390f35b610283600480360381019061027e9190612222565b610b1d565b005b61028d610c54565b60405161029a9190612a1c565b60405180910390f35b6102bd60048036038101906102b89190612158565b610ce6565b005b6102d960048036038101906102d491906120dd565b610e67565b005b6102f560048036038101906102f0919061228e565b610ec9565b6040516103029190612a1c565b60405180910390f35b6103256004803603810190610320919061228e565b61101b565b6040516103359493929190612c39565b60405180910390f35b61035860048036038101906103539190612052565b61115b565b6040516103659190612a01565b60405180910390f35b6103886004803603810190610383919061228e565b6111ef565b6040516103979392919061294e565b60405180910390f35b6103ba60048036038101906103b5919061228e565b6112e1565b6040516103c79190612933565b60405180910390f35b60007f80ac58cd000000000000000000000000000000000000000000000000000000007bffffffffffffffffffffffffffffffffffffffffffffffffffffffff1916827bffffffffffffffffffffffffffffffffffffffffffffffffffffffff1916148061049b57507f5b5e139f000000000000000000000000000000000000000000000000000000007bffffffffffffffffffffffffffffffffffffffffffffffffffffffff1916827bffffffffffffffffffffffffffffffffffffffffffffffffffffffff1916145b806104ab57506104aa82611322565b5b9050919050565b6060600080546104c190612ed1565b80601f01602080910402602001604051908101604052809291908181526020018280546104ed90612ed1565b801561053a5780601f1061050f5761010080835404028352916020019161053a565b820191906000526020600020905b81548152906001019060200180831161051d57829003601f168201915b5050505050905090565b600061054f8261138c565b61058e576040517f08c379a000000000000000000000000000000000000000000000000000000000815260040161058590612b7e565b60405180910390fd5b6004600083815260200190815260200160002060009054906101000a900473ffffffffffffffffffffffffffffffffffffffff169050919050565b60006105d4826109b3565b90508073ffffffffffffffffffffffffffffffffffffffff168373ffffffffffffffffffffffffffffffffffffffff161415610645576040517f08c379a000000000000000000000000000000000000000000000000000000000815260040161063c90612bde565b60405180910390fd5b8073ffffffffffffffffffffffffffffffffffffffff166106646113f8565b73ffffffffffffffffffffffffffffffffffffffff16148061069357506106928161068d6113f8565b61115b565b5b6106d2576040517f08c379a00000000000000000000000000000000000000000000000000000000081526004016106c990612ade565b60405180910390fd5b6106dc8383611400565b505050565b6106f26106ec6113f8565b826114b9565b610731576040517f08c379a000000000000000000000000000000000000000000000000000000000815260040161072890612bfe565b60405180910390fd5b61073c838383611597565b505050565b60006009600083815260200190815260200160002060009054906101000a900473ffffffffffffffffffffffffffffffffffffffff169050610783600a6117f3565b61078e813384610993565b336009600084815260200190815260200160002060006101000a81548173ffffffffffffffffffffffffffffffffffffffff021916908373ffffffffffffffffffffffffffffffffffffffff16021790555060405180606001604052808273ffffffffffffffffffffffffffffffffffffffff1681526020013373ffffffffffffffffffffffffffffffffffffffff16815260200160086000858152602001908152602001600020600201805461084490612ed1565b80601f016020809104026020016040519081016040528092919081815260200182805461087090612ed1565b80156108bd5780601f10610892576101008083540402835291602001916108bd565b820191906000526020600020905b8154815290600101906020018083116108a057829003601f168201915b5050505050815250600b60006108d3600a611314565b815260200190815260200160002060008201518160000160006101000a81548173ffffffffffffffffffffffffffffffffffffffff021916908373ffffffffffffffffffffffffffffffffffffffff16021790555060208201518160010160006101000a81548173ffffffffffffffffffffffffffffffffffffffff021916908373ffffffffffffffffffffffffffffffffffffffff160217905550604082015181600201908051906020019061098b929190611e4d565b509050505050565b6109ae83838360405180602001604052806000815250610e67565b505050565b6000806002600084815260200190815260200160002060009054906101000a900473ffffffffffffffffffffffffffffffffffffffff169050600073ffffffffffffffffffffffffffffffffffffffff168173ffffffffffffffffffffffffffffffffffffffff161415610a5c576040517f08c379a0000000000000000000000000000000000000000000000000000000008152600401610a5390612b1e565b60405180910390fd5b80915050919050565b60008073ffffffffffffffffffffffffffffffffffffffff168273ffffffffffffffffffffffffffffffffffffffff161415610ad6576040517f08c379a0000000000000000000000000000000000000000000000000000000008152600401610acd90612afe565b60405180910390fd5b600360008373ffffffffffffffffffffffffffffffffffffffff1673ffffffffffffffffffffffffffffffffffffffff168152602001908152602001600020549050919050565b610b2760076117f3565b6000610b336007611314565b90506040518060800160405280828152602001428152602001848152602001838152506008600083815260200190815260200160002060008201518160000155602082015181600101556040820151816002019080519060200190610b99929190611e4d565b506060820151816003019080519060200190610bb6929190611e4d565b50905050610bc43382611809565b336009600083815260200190815260200160002060006101000a81548173ffffffffffffffffffffffffffffffffffffffff021916908373ffffffffffffffffffffffffffffffffffffffff1602179055507f4f2674a5f38c00ecf9e7a1ac775675d39c487ab7c82bcc4ec772cdee89c2598e3382604051610c479291906129d8565b60405180910390a1505050565b606060018054610c6390612ed1565b80601f0160208091040260200160405190810160405280929190818152602001828054610c8f90612ed1565b8015610cdc5780601f10610cb157610100808354040283529160200191610cdc565b820191906000526020600020905b815481529060010190602001808311610cbf57829003601f168201915b5050505050905090565b610cee6113f8565b73ffffffffffffffffffffffffffffffffffffffff168273ffffffffffffffffffffffffffffffffffffffff161415610d5c576040517f08c379a0000000000000000000000000000000000000000000000000000000008152600401610d5390612a9e565b60405180910390fd5b8060056000610d696113f8565b73ffffffffffffffffffffffffffffffffffffffff1673ffffffffffffffffffffffffffffffffffffffff16815260200190815260200160002060008473ffffffffffffffffffffffffffffffffffffffff1673ffffffffffffffffffffffffffffffffffffffff16815260200190815260200160002060006101000a81548160ff0219169083151502179055508173ffffffffffffffffffffffffffffffffffffffff16610e166113f8565b73ffffffffffffffffffffffffffffffffffffffff167f17307eab39ab6107e8899845ad3d59bd9653f200f220920489ca2b5937696c3183604051610e5b9190612a01565b60405180910390a35050565b610e78610e726113f8565b836114b9565b610eb7576040517f08c379a0000000000000000000000000000000000000000000000000000000008152600401610eae90612bfe565b60405180910390fd5b610ec3848484846119d7565b50505050565b6060610ed48261138c565b610f13576040517f08c379a0000000000000000000000000000000000000000000000000000000008152600401610f0a90612b5e565b60405180910390fd5b6000600660008481526020019081526020016000208054610f3390612ed1565b80601f0160208091040260200160405190810160405280929190818152602001828054610f5f90612ed1565b8015610fac5780601f10610f8157610100808354040283529160200191610fac565b820191906000526020600020905b815481529060010190602001808311610f8f57829003601f168201915b505050505090506000610fbd611a33565b9050600081511415610fd3578192505050611016565b600082511115611008578082604051602001610ff092919061290f565b60405160208183030381529060405292505050611016565b61101184611a4a565b925050505b919050565b600860205280600052604060002060009150905080600001549080600101549080600201805461104a90612ed1565b80601f016020809104026020016040519081016040528092919081815260200182805461107690612ed1565b80156110c35780601f10611098576101008083540402835291602001916110c3565b820191906000526020600020905b8154815290600101906020018083116110a657829003601f168201915b5050505050908060030180546110d890612ed1565b80601f016020809104026020016040519081016040528092919081815260200182805461110490612ed1565b80156111515780601f1061112657610100808354040283529160200191611151565b820191906000526020600020905b81548152906001019060200180831161113457829003601f168201915b5050505050905084565b6000600560008473ffffffffffffffffffffffffffffffffffffffff1673ffffffffffffffffffffffffffffffffffffffff16815260200190815260200160002060008373ffffffffffffffffffffffffffffffffffffffff1673ffffffffffffffffffffffffffffffffffffffff16815260200190815260200160002060009054906101000a900460ff16905092915050565b600b6020528060005260406000206000915090508060000160009054906101000a900473ffffffffffffffffffffffffffffffffffffffff16908060010160009054906101000a900473ffffffffffffffffffffffffffffffffffffffff169080600201805461125e90612ed1565b80601f016020809104026020016040519081016040528092919081815260200182805461128a90612ed1565b80156112d75780601f106112ac576101008083540402835291602001916112d7565b820191906000526020600020905b8154815290600101906020018083116112ba57829003601f168201915b5050505050905083565b60096020528060005260406000206000915054906101000a900473ffffffffffffffffffffffffffffffffffffffff1681565b600081600001549050919050565b60007f01ffc9a7000000000000000000000000000000000000000000000000000000007bffffffffffffffffffffffffffffffffffffffffffffffffffffffff1916827bffffffffffffffffffffffffffffffffffffffffffffffffffffffff1916149050919050565b60008073ffffffffffffffffffffffffffffffffffffffff166002600084815260200190815260200160002060009054906101000a900473ffffffffffffffffffffffffffffffffffffffff1673ffffffffffffffffffffffffffffffffffffffff1614159050919050565b600033905090565b816004600083815260200190815260200160002060006101000a81548173ffffffffffffffffffffffffffffffffffffffff021916908373ffffffffffffffffffffffffffffffffffffffff160217905550808273ffffffffffffffffffffffffffffffffffffffff16611473836109b3565b73ffffffffffffffffffffffffffffffffffffffff167f8c5be1e5ebec7d5bd14f71427d1e84f3dd0314c0f7b2291e5b200ac8c7c3b92560405160405180910390a45050565b60006114c48261138c565b611503576040517f08c379a00000000000000000000000000000000000000000000000000000000081526004016114fa90612abe565b60405180910390fd5b600061150e836109b3565b90508073ffffffffffffffffffffffffffffffffffffffff168473ffffffffffffffffffffffffffffffffffffffff16148061157d57508373ffffffffffffffffffffffffffffffffffffffff1661156584610544565b73ffffffffffffffffffffffffffffffffffffffff16145b8061158e575061158d818561115b565b5b91505092915050565b8273ffffffffffffffffffffffffffffffffffffffff166115b7826109b3565b73ffffffffffffffffffffffffffffffffffffffff161461160d576040517f08c379a000000000000000000000000000000000000000000000000000000000815260040161160490612b9e565b60405180910390fd5b600073ffffffffffffffffffffffffffffffffffffffff168273ffffffffffffffffffffffffffffffffffffffff16141561167d576040517f08c379a000000000000000000000000000000000000000000000000000000000815260040161167490612a7e565b60405180910390fd5b611688838383611af1565b611693600082611400565b6001600360008573ffffffffffffffffffffffffffffffffffffffff1673ffffffffffffffffffffffffffffffffffffffff16815260200190815260200160002060008282546116e39190612de7565b925050819055506001600360008473ffffffffffffffffffffffffffffffffffffffff1673ffffffffffffffffffffffffffffffffffffffff168152602001908152602001600020600082825461173a9190612d60565b92505081905550816002600083815260200190815260200160002060006101000a81548173ffffffffffffffffffffffffffffffffffffffff021916908373ffffffffffffffffffffffffffffffffffffffff160217905550808273ffffffffffffffffffffffffffffffffffffffff168473ffffffffffffffffffffffffffffffffffffffff167fddf252ad1be2c89b69c2b068fc378daa952ba7f163c4a11628f55a4df523b3ef60405160405180910390a4505050565b6001816000016000828254019250508190555050565b600073ffffffffffffffffffffffffffffffffffffffff168273ffffffffffffffffffffffffffffffffffffffff161415611879576040517f08c379a000000000000000000000000000000000000000000000000000000000815260040161187090612b3e565b60405180910390fd5b6118828161138c565b156118c2576040517f08c379a00000000000000000000000000000000000000000000000000000000081526004016118b990612a5e565b60405180910390fd5b6118ce60008383611af1565b6001600360008473ffffffffffffffffffffffffffffffffffffffff1673ffffffffffffffffffffffffffffffffffffffff168152602001908152602001600020600082825461191e9190612d60565b92505081905550816002600083815260200190815260200160002060006101000a81548173ffffffffffffffffffffffffffffffffffffffff021916908373ffffffffffffffffffffffffffffffffffffffff160217905550808273ffffffffffffffffffffffffffffffffffffffff16600073ffffffffffffffffffffffffffffffffffffffff167fddf252ad1be2c89b69c2b068fc378daa952ba7f163c4a11628f55a4df523b3ef60405160405180910390a45050565b6119e2848484611597565b6119ee84848484611af6565b611a2d576040517f08c379a0000000000000000000000000000000000000000000000000000000008152600401611a2490612a3e565b60405180910390fd5b50505050565b606060405180602001604052806000815250905090565b6060611a558261138c565b611a94576040517f08c379a0000000000000000000000000000000000000000000000000000000008152600401611a8b90612bbe565b60405180910390fd5b6000611a9e611a33565b90506000815111611abe5760405180602001604052806000815250611ae9565b80611ac884611c8d565b604051602001611ad992919061290f565b6040516020818303038152906040525b915050919050565b505050565b6000611b178473ffffffffffffffffffffffffffffffffffffffff16611e3a565b15611c80578373ffffffffffffffffffffffffffffffffffffffff1663150b7a02611b406113f8565b8786866040518563ffffffff1660e01b8152600401611b62949392919061298c565b602060405180830381600087803b158015611b7c57600080fd5b505af1925050508015611bad57506040513d601f19601f82011682018060405250810190611baa91906121f9565b60015b611c30573d8060008114611bdd576040519150601f19603f3d011682016040523d82523d6000602084013e611be2565b606091505b50600081511415611c28576040517f08c379a0000000000000000000000000000000000000000000000000000000008152600401611c1f90612a3e565b60405180910390fd5b805181602001fd5b63150b7a0260e01b7bffffffffffffffffffffffffffffffffffffffffffffffffffffffff1916817bffffffffffffffffffffffffffffffffffffffffffffffffffffffff191614915050611c85565b600190505b949350505050565b60606000821415611cd5576040518060400160405280600181526020017f30000000000000000000000000000000000000000000000000000000000000008152509050611e35565b600082905060005b60008214611d07578080611cf090612f03565b915050600a82611d009190612db6565b9150611cdd565b60008167ffffffffffffffff811115611d49577f4e487b7100000000000000000000000000000000000000000000000000000000600052604160045260246000fd5b6040519080825280601f01601f191660200182016040528015611d7b5781602001600182028036833780820191505090505b5090505b60008514611e2e57600182611d949190612de7565b9150600a85611da39190612f4c565b6030611daf9190612d60565b60f81b818381518110611deb577f4e487b7100000000000000000000000000000000000000000000000000000000600052603260045260246000fd5b60200101907effffffffffffffffffffffffffffffffffffffffffffffffffffffffffffff1916908160001a905350600a85611e279190612db6565b9450611d7f565b8093505050505b919050565b600080823b905060008111915050919050565b828054611e5990612ed1565b90600052602060002090601f016020900481019282611e7b5760008555611ec2565b82601f10611e9457805160ff1916838001178555611ec2565b82800160010185558215611ec2579182015b82811115611ec1578251825591602001919060010190611ea6565b5b509050611ecf9190611ed3565b5090565b5b80821115611eec576000816000905550600101611ed4565b5090565b6000611f03611efe84612cbd565b612c8c565b905082815260208101848484011115611f1b57600080fd5b611f26848285612e8f565b509392505050565b6000611f41611f3c84612ced565b612c8c565b905082815260208101848484011115611f5957600080fd5b611f64848285612e8f565b509392505050565b600081359050611f7b8161304a565b92915050565b600081359050611f9081613061565b92915050565b600081359050611fa581613078565b92915050565b600081519050611fba81613078565b92915050565b600082601f830112611fd157600080fd5b8135611fe1848260208601611ef0565b91505092915050565b600082601f830112611ffb57600080fd5b813561200b848260208601611f2e565b91505092915050565b6000813590506120238161308f565b92915050565b60006020828403121561203b57600080fd5b600061204984828501611f6c565b91505092915050565b6000806040838503121561206557600080fd5b600061207385828601611f6c565b925050602061208485828601611f6c565b9150509250929050565b6000806000606084860312156120a357600080fd5b60006120b186828701611f6c565b93505060206120c286828701611f6c565b92505060406120d386828701612014565b9150509250925092565b600080600080608085870312156120f357600080fd5b600061210187828801611f6c565b945050602061211287828801611f6c565b935050604061212387828801612014565b925050606085013567ffffffffffffffff81111561214057600080fd5b61214c87828801611fc0565b91505092959194509250565b6000806040838503121561216b57600080fd5b600061217985828601611f6c565b925050602061218a85828601611f81565b9150509250929050565b600080604083850312156121a757600080fd5b60006121b585828601611f6c565b92505060206121c685828601612014565b9150509250929050565b6000602082840312156121e257600080fd5b60006121f084828501611f96565b91505092915050565b60006020828403121561220b57600080fd5b600061221984828501611fab565b91505092915050565b6000806040838503121561223557600080fd5b600083013567ffffffffffffffff81111561224f57600080fd5b61225b85828601611fea565b925050602083013567ffffffffffffffff81111561227857600080fd5b61228485828601611fea565b9150509250929050565b6000602082840312156122a057600080fd5b60006122ae84828501612014565b91505092915050565b6122c081612e1b565b82525050565b6122cf81612e2d565b82525050565b60006122e082612d1d565b6122ea8185612d33565b93506122fa818560208601612e9e565b61230381613039565b840191505092915050565b600061231982612d28565b6123238185612d44565b9350612333818560208601612e9e565b61233c81613039565b840191505092915050565b600061235282612d28565b61235c8185612d55565b935061236c818560208601612e9e565b80840191505092915050565b6000612385603283612d44565b91507f4552433732313a207472616e7366657220746f206e6f6e20455243373231526560008301527f63656976657220696d706c656d656e74657200000000000000000000000000006020830152604082019050919050565b60006123eb601c83612d44565b91507f4552433732313a20746f6b656e20616c7265616479206d696e746564000000006000830152602082019050919050565b600061242b602483612d44565b91507f4552433732313a207472616e7366657220746f20746865207a65726f2061646460008301527f72657373000000000000000000000000000000000000000000000000000000006020830152604082019050919050565b6000612491601983612d44565b91507f4552433732313a20617070726f766520746f2063616c6c6572000000000000006000830152602082019050919050565b60006124d1602c83612d44565b91507f4552433732313a206f70657261746f7220717565727920666f72206e6f6e657860008301527f697374656e7420746f6b656e00000000000000000000000000000000000000006020830152604082019050919050565b6000612537603883612d44565b91507f4552433732313a20617070726f76652063616c6c6572206973206e6f74206f7760008301527f6e6572206e6f7220617070726f76656420666f7220616c6c00000000000000006020830152604082019050919050565b600061259d602a83612d44565b91507f4552433732313a2062616c616e636520717565727920666f7220746865207a6560008301527f726f2061646472657373000000000000000000000000000000000000000000006020830152604082019050919050565b6000612603602983612d44565b91507f4552433732313a206f776e657220717565727920666f72206e6f6e657869737460008301527f656e7420746f6b656e00000000000000000000000000000000000000000000006020830152604082019050919050565b6000612669602083612d44565b91507f4552433732313a206d696e7420746f20746865207a65726f20616464726573736000830152602082019050919050565b60006126a9603183612d44565b91507f45524337323155524953746f726167653a2055524920717565727920666f722060008301527f6e6f6e6578697374656e7420746f6b656e0000000000000000000000000000006020830152604082019050919050565b600061270f602c83612d44565b91507f4552433732313a20617070726f76656420717565727920666f72206e6f6e657860008301527f697374656e7420746f6b656e00000000000000000000000000000000000000006020830152604082019050919050565b6000612775602983612d44565b91507f4552433732313a207472616e73666572206f6620746f6b656e2074686174206960008301527f73206e6f74206f776e00000000000000000000000000000000000000000000006020830152604082019050919050565b60006127db602f83612d44565b91507f4552433732314d657461646174613a2055524920717565727920666f72206e6f60008301527f6e6578697374656e7420746f6b656e00000000000000000000000000000000006020830152604082019050919050565b6000612841602183612d44565b91507f4552433732313a20617070726f76616c20746f2063757272656e74206f776e6560008301527f72000000000000000000000000000000000000000000000000000000000000006020830152604082019050919050565b60006128a7603183612d44565b91507f4552433732313a207472616e736665722063616c6c6572206973206e6f74206f60008301527f776e6572206e6f7220617070726f7665640000000000000000000000000000006020830152604082019050919050565b61290981612e85565b82525050565b600061291b8285612347565b91506129278284612347565b91508190509392505050565b600060208201905061294860008301846122b7565b92915050565b600060608201905061296360008301866122b7565b61297060208301856122b7565b8181036040830152612982818461230e565b9050949350505050565b60006080820190506129a160008301876122b7565b6129ae60208301866122b7565b6129bb6040830185612900565b81810360608301526129cd81846122d5565b905095945050505050565b60006040820190506129ed60008301856122b7565b6129fa6020830184612900565b9392505050565b6000602082019050612a1660008301846122c6565b92915050565b60006020820190508181036000830152612a36818461230e565b905092915050565b60006020820190508181036000830152612a5781612378565b9050919050565b60006020820190508181036000830152612a77816123de565b9050919050565b60006020820190508181036000830152612a978161241e565b9050919050565b60006020820190508181036000830152612ab781612484565b9050919050565b60006020820190508181036000830152612ad7816124c4565b9050919050565b60006020820190508181036000830152612af78161252a565b9050919050565b60006020820190508181036000830152612b1781612590565b9050919050565b60006020820190508181036000830152612b37816125f6565b9050919050565b60006020820190508181036000830152612b578161265c565b9050919050565b60006020820190508181036000830152612b778161269c565b9050919050565b60006020820190508181036000830152612b9781612702565b9050919050565b60006020820190508181036000830152612bb781612768565b9050919050565b60006020820190508181036000830152612bd7816127ce565b9050919050565b60006020820190508181036000830152612bf781612834565b9050919050565b60006020820190508181036000830152612c178161289a565b9050919050565b6000602082019050612c336000830184612900565b92915050565b6000608082019050612c4e6000830187612900565b612c5b6020830186612900565b8181036040830152612c6d818561230e565b90508181036060830152612c81818461230e565b905095945050505050565b6000604051905081810181811067ffffffffffffffff82111715612cb357612cb261300a565b5b8060405250919050565b600067ffffffffffffffff821115612cd857612cd761300a565b5b601f19601f8301169050602081019050919050565b600067ffffffffffffffff821115612d0857612d0761300a565b5b601f19601f8301169050602081019050919050565b600081519050919050565b600081519050919050565b600082825260208201905092915050565b600082825260208201905092915050565b600081905092915050565b6000612d6b82612e85565b9150612d7683612e85565b9250827fffffffffffffffffffffffffffffffffffffffffffffffffffffffffffffffff03821115612dab57612daa612f7d565b5b828201905092915050565b6000612dc182612e85565b9150612dcc83612e85565b925082612ddc57612ddb612fac565b5b828204905092915050565b6000612df282612e85565b9150612dfd83612e85565b925082821015612e1057612e0f612f7d565b5b828203905092915050565b6000612e2682612e65565b9050919050565b60008115159050919050565b60007fffffffff0000000000000000000000000000000000000000000000000000000082169050919050565b600073ffffffffffffffffffffffffffffffffffffffff82169050919050565b6000819050919050565b82818337600083830152505050565b60005b83811015612ebc578082015181840152602081019050612ea1565b83811115612ecb576000848401525b50505050565b60006002820490506001821680612ee957607f821691505b60208210811415612efd57612efc612fdb565b5b50919050565b6000612f0e82612e85565b91507fffffffffffffffffffffffffffffffffffffffffffffffffffffffffffffffff821415612f4157612f40612f7d565b5b600182019050919050565b6000612f5782612e85565b9150612f6283612e85565b925082612f7257612f71612fac565b5b828206905092915050565b7f4e487b7100000000000000000000000000000000000000000000000000000000600052601160045260246000fd5b7f4e487b7100000000000000000000000000000000000000000000000000000000600052601260045260246000fd5b7f4e487b7100000000000000000000000000000000000000000000000000000000600052602260045260246000fd5b7f4e487b7100000000000000000000000000000000000000000000000000000000600052604160045260246000fd5b6000601f19601f8301169050919050565b61305381612e1b565b811461305e57600080fd5b50565b61306a81612e2d565b811461307557600080fd5b50565b61308181612e39565b811461308c57600080fd5b50565b61309881612e85565b81146130a357600080fd5b5056fea26469706673582212201dc1657c8cacd763793131723117430833d14cf95a17e82ac3aec4b597be220064736f6c63430008000033",
  "immutableReferences": {},
  "source": "// SPDX-License-Identifier: MIT\npragma solidity >=0.4.22 <0.9.0;\n\n\n// import \"@openzeppelin/contracts/token/ERC721/presets/ERC721PresetMinterPauserAutoId.sol\";\nimport \"@openzeppelin/contracts/token/ERC721/extensions/ERC721URIStorage.sol\";\nimport \"@openzeppelin/contracts/utils/Counters.sol\";\n\n\ncontract DoBuyNFT is ERC721URIStorage {\n  using Counters for Counters.Counter;\n\n  Counters.Counter private _tokenIds;\n\n  struct NFTcard {\n    uint256 _Ids; // NFT serial number\n    uint256 timestamp; // Time Created\n    string name; // NFT names\n    string image_url; // IMAGE URL\n  }\n\n  //  \n  mapping (uint256 => NFTcard) public _DoBuylist;\n  mapping (uint256 => address) public _DoBuyToOwner;\n  event DoBuyCreated (address , uint256);\n\n  Counters.Counter private _tradeIds;\n\n  struct tradeTrans {\n    address _from;\n    address _to;\n    string name;\n  }\n\n  // NFT \n  mapping (uint256 => tradeTrans) public _TradeTransaction;\n\n  constructor() ERC721(\"DoBuyNFT\", \"DBNFT\") {\n    _DoBuylist[_tokenIds.current()] = NFTcard(_tokenIds.current(), block.timestamp, \"DoBuy Strat!\", \"\");\n    _DoBuyToOwner[_tokenIds.current()] = msg.sender;\n    emit DoBuyCreated(msg.sender, _tokenIds.current());\n  }\n\n  /**\n   *  @notice make NFT\n   *  @dev NFT   NFT Token \n   *  @param _name NFT \n   *  @param _image_url NFT  \n   */\n  function mint(string memory _name, string memory _image_url) public {\n    _tokenIds.increment();\n    uint256 newItemId = _tokenIds.current();\n    _DoBuylist[newItemId] = NFTcard(newItemId, block.timestamp, _name, _image_url);\n    _mint(msg.sender, newItemId);\n    _DoBuyToOwner[newItemId] = msg.sender;\n    emit DoBuyCreated(msg.sender, newItemId);\n  }\n\n  function transferNFT(uint256 _Id) public {\n    address temp = _DoBuyToOwner[_Id];\n    _tradeIds.increment();\n    safeTransferFrom(temp, msg.sender, _Id);\n    _DoBuyToOwner[_Id] = msg.sender;\n    _TradeTransaction[_tradeIds.current()] = tradeTrans(temp, msg.sender, _DoBuylist[_Id].name);\n\n  }\n\n    //   /// @dev NFT \n    // /// 1.   NFT      (: )\n    // /// 2.      \n    // /// 3.    approve safeTransferFrom   (: )\n    // function buyNFTfromUser(uint newItemId) public {\n    //     //require(isPayed);\n    //     approve(msg.sender, newItemId);\n    //     safeTransferFrom(ownerOf(newItemId), msg.sender, newItemId);\n    // }\n}\n",
  "sourcePath": "C:/Users/redqo/Desktop/DoBuy_project/contracts/DoBuyNFT.sol",
  "compiler": {
    "name": "solc",
    "version": "0.8.0+commit.c7dfd78e.Emscripten.clang"
  },
  "schemaVersion": "3.4.1",
  "updatedAt": "2021-08-18T06:33:07.977Z",
  "networkType": "ethereum",
  "devdoc": {
    "kind": "dev",
    "methods": {
      "approve(address,uint256)": {
        "details": "See {IERC721-approve}."
      },
      "balanceOf(address)": {
        "details": "See {IERC721-balanceOf}."
      },
      "getApproved(uint256)": {
        "details": "See {IERC721-getApproved}."
      },
      "isApprovedForAll(address,address)": {
        "details": "See {IERC721-isApprovedForAll}."
      },
      "mint(string,string)": {
        "details": "NFT   NFT Token ",
        "params": {
          "_image_url": "NFT  ",
          "_name": "NFT "
        }
      },
      "name()": {
        "details": "See {IERC721Metadata-name}."
      },
      "ownerOf(uint256)": {
        "details": "See {IERC721-ownerOf}."
      },
      "safeTransferFrom(address,address,uint256)": {
        "details": "See {IERC721-safeTransferFrom}."
      },
      "safeTransferFrom(address,address,uint256,bytes)": {
        "details": "See {IERC721-safeTransferFrom}."
      },
      "setApprovalForAll(address,bool)": {
        "details": "See {IERC721-setApprovalForAll}."
      },
      "supportsInterface(bytes4)": {
        "details": "See {IERC165-supportsInterface}."
      },
      "symbol()": {
        "details": "See {IERC721Metadata-symbol}."
      },
      "tokenURI(uint256)": {
        "details": "See {IERC721Metadata-tokenURI}."
      },
      "transferFrom(address,address,uint256)": {
        "details": "See {IERC721-transferFrom}."
      }
    },
    "version": 1
  },
  "userdoc": {
    "kind": "user",
    "methods": {
      "mint(string,string)": {
        "notice": "make NFT"
      }
    },
    "version": 1
  }
}