{
  "contractName": "DoBuyToken",
  "abi": [
    {
      "inputs": [],
      "stateMutability": "nonpayable",
      "type": "constructor"
    },
    {
      "anonymous": false,
      "inputs": [
        {
          "indexed": true,
          "internalType": "address",
          "name": "owner",
          "type": "address"
        },
        {
          "indexed": true,
          "internalType": "address",
          "name": "spender",
          "type": "address"
        },
        {
          "indexed": false,
          "internalType": "uint256",
          "name": "value",
          "type": "uint256"
        }
      ],
      "name": "Approval",
      "type": "event"
    },
    {
      "anonymous": false,
      "inputs": [
        {
          "indexed": true,
          "internalType": "address",
          "name": "from",
          "type": "address"
        },
        {
          "indexed": true,
          "internalType": "address",
          "name": "to",
          "type": "address"
        },
        {
          "indexed": false,
          "internalType": "uint256",
          "name": "value",
          "type": "uint256"
        }
      ],
      "name": "Transfer",
      "type": "event"
    },
    {
      "inputs": [],
      "name": "INITIAL_SUPPLY",
      "outputs": [
        {
          "internalType": "uint256",
          "name": "",
          "type": "uint256"
        }
      ],
      "stateMutability": "view",
      "type": "function",
      "constant": true
    },
    {
      "inputs": [],
      "name": "_decimals",
      "outputs": [
        {
          "internalType": "uint8",
          "name": "",
          "type": "uint8"
        }
      ],
      "stateMutability": "view",
      "type": "function",
      "constant": true
    },
    {
      "inputs": [],
      "name": "_symbol",
      "outputs": [
        {
          "internalType": "string",
          "name": "",
          "type": "string"
        }
      ],
      "stateMutability": "view",
      "type": "function",
      "constant": true
    },
    {
      "inputs": [],
      "name": "_token",
      "outputs": [
        {
          "internalType": "string",
          "name": "",
          "type": "string"
        }
      ],
      "stateMutability": "view",
      "type": "function",
      "constant": true
    },
    {
      "inputs": [
        {
          "internalType": "address",
          "name": "owner",
          "type": "address"
        },
        {
          "internalType": "address",
          "name": "spender",
          "type": "address"
        }
      ],
      "name": "allowance",
      "outputs": [
        {
          "internalType": "uint256",
          "name": "",
          "type": "uint256"
        }
      ],
      "stateMutability": "view",
      "type": "function",
      "constant": true
    },
    {
      "inputs": [
        {
          "internalType": "address",
          "name": "spender",
          "type": "address"
        },
        {
          "internalType": "uint256",
          "name": "amount",
          "type": "uint256"
        }
      ],
      "name": "approve",
      "outputs": [
        {
          "internalType": "bool",
          "name": "",
          "type": "bool"
        }
      ],
      "stateMutability": "nonpayable",
      "type": "function"
    },
    {
      "inputs": [
        {
          "internalType": "address",
          "name": "account",
          "type": "address"
        }
      ],
      "name": "balanceOf",
      "outputs": [
        {
          "internalType": "uint256",
          "name": "",
          "type": "uint256"
        }
      ],
      "stateMutability": "view",
      "type": "function",
      "constant": true
    },
    {
      "inputs": [],
      "name": "decimals",
      "outputs": [
        {
          "internalType": "uint8",
          "name": "",
          "type": "uint8"
        }
      ],
      "stateMutability": "view",
      "type": "function",
      "constant": true
    },
    {
      "inputs": [
        {
          "internalType": "address",
          "name": "spender",
          "type": "address"
        },
        {
          "internalType": "uint256",
          "name": "subtractedValue",
          "type": "uint256"
        }
      ],
      "name": "decreaseAllowance",
      "outputs": [
        {
          "internalType": "bool",
          "name": "",
          "type": "bool"
        }
      ],
      "stateMutability": "nonpayable",
      "type": "function"
    },
    {
      "inputs": [
        {
          "internalType": "address",
          "name": "spender",
          "type": "address"
        },
        {
          "internalType": "uint256",
          "name": "addedValue",
          "type": "uint256"
        }
      ],
      "name": "increaseAllowance",
      "outputs": [
        {
          "internalType": "bool",
          "name": "",
          "type": "bool"
        }
      ],
      "stateMutability": "nonpayable",
      "type": "function"
    },
    {
      "inputs": [],
      "name": "name",
      "outputs": [
        {
          "internalType": "string",
          "name": "",
          "type": "string"
        }
      ],
      "stateMutability": "view",
      "type": "function",
      "constant": true
    },
    {
      "inputs": [],
      "name": "symbol",
      "outputs": [
        {
          "internalType": "string",
          "name": "",
          "type": "string"
        }
      ],
      "stateMutability": "view",
      "type": "function",
      "constant": true
    },
    {
      "inputs": [],
      "name": "totalSupply",
      "outputs": [
        {
          "internalType": "uint256",
          "name": "",
          "type": "uint256"
        }
      ],
      "stateMutability": "view",
      "type": "function",
      "constant": true
    },
    {
      "inputs": [
        {
          "internalType": "address",
          "name": "recipient",
          "type": "address"
        },
        {
          "internalType": "uint256",
          "name": "amount",
          "type": "uint256"
        }
      ],
      "name": "transfer",
      "outputs": [
        {
          "internalType": "bool",
          "name": "",
          "type": "bool"
        }
      ],
      "stateMutability": "nonpayable",
      "type": "function"
    },
    {
      "inputs": [
        {
          "internalType": "address",
          "name": "sender",
          "type": "address"
        },
        {
          "internalType": "address",
          "name": "recipient",
          "type": "address"
        },
        {
          "internalType": "uint256",
          "name": "amount",
          "type": "uint256"
        }
      ],
      "name": "transferFrom",
      "outputs": [
        {
          "internalType": "bool",
          "name": "",
          "type": "bool"
        }
      ],
      "stateMutability": "nonpayable",
      "type": "function"
    },
    {
      "inputs": [],
      "name": "user_wallet",
      "outputs": [
        {
          "internalType": "address",
          "name": "",
          "type": "address"
        }
      ],
      "stateMutability": "view",
      "type": "function",
      "constant": true
    }
  ],
  "bytecode": "0x608060405233600560006101000a81548173ffffffffffffffffffffffffffffffffffffffff021916908373ffffffffffffffffffffffffffffffffffffffff1602179055503480156200005257600080fd5b506040518060400160405280600a81526020017f446f427579546f6b656e000000000000000000000000000000000000000000008152506040518060400160405280600381526020017f44425400000000000000000000000000000000000000000000000000000000008152508160039080519060200190620000d7929190620002ce565b508060049080519060200190620000f0929190620002ce565b50505060003390506200013b816200010d6200014260201b60201c565b60ff16600a6200011e9190620004d9565b6305f5e1006200012f919062000616565b6200014b60201b60201c565b5062000722565b60006012905090565b600073ffffffffffffffffffffffffffffffffffffffff168273ffffffffffffffffffffffffffffffffffffffff161415620001be576040517f08c379a0000000000000000000000000000000000000000000000000000000008152600401620001b590620003d1565b60405180910390fd5b620001d260008383620002c460201b60201c565b8060026000828254620001e6919062000421565b92505081905550806000808473ffffffffffffffffffffffffffffffffffffffff1673ffffffffffffffffffffffffffffffffffffffff16815260200190815260200160002060008282546200023d919062000421565b925050819055508173ffffffffffffffffffffffffffffffffffffffff16600073ffffffffffffffffffffffffffffffffffffffff167fddf252ad1be2c89b69c2b068fc378daa952ba7f163c4a11628f55a4df523b3ef83604051620002a49190620003f3565b60405180910390a3620002c060008383620002c960201b60201c565b5050565b505050565b505050565b828054620002dc9062000681565b90600052602060002090601f0160209004810192826200030057600085556200034c565b82601f106200031b57805160ff19168380011785556200034c565b828001600101855582156200034c579182015b828111156200034b5782518255916020019190600101906200032e565b5b5090506200035b91906200035f565b5090565b5b808211156200037a57600081600090555060010162000360565b5090565b60006200038d601f8362000410565b91507f45524332303a206d696e7420746f20746865207a65726f2061646472657373006000830152602082019050919050565b620003cb8162000677565b82525050565b60006020820190508181036000830152620003ec816200037e565b9050919050565b60006020820190506200040a6000830184620003c0565b92915050565b600082825260208201905092915050565b60006200042e8262000677565b91506200043b8362000677565b9250827fffffffffffffffffffffffffffffffffffffffffffffffffffffffffffffffff03821115620004735762000472620006b7565b5b828201905092915050565b6000808291508390505b6001851115620004d057808604811115620004a857620004a7620006b7565b5b6001851615620004b85780820291505b8081029050620004c88562000715565b945062000488565b94509492505050565b6000620004e68262000677565b9150620004f38362000677565b9250620005227fffffffffffffffffffffffffffffffffffffffffffffffffffffffffffffffff84846200052a565b905092915050565b6000826200053c57600190506200060f565b816200054c57600090506200060f565b81600181146200056557600281146200057057620005a6565b60019150506200060f565b60ff841115620005855762000584620006b7565b5b8360020a9150848211156200059f576200059e620006b7565b5b506200060f565b5060208310610133831016604e8410600b8410161715620005e05782820a905083811115620005da57620005d9620006b7565b5b6200060f565b620005ef84848460016200047e565b92509050818404811115620006095762000608620006b7565b5b81810290505b9392505050565b6000620006238262000677565b9150620006308362000677565b9250817fffffffffffffffffffffffffffffffffffffffffffffffffffffffffffffffff04831182151516156200066c576200066b620006b7565b5b828202905092915050565b6000819050919050565b600060028204905060018216806200069a57607f821691505b60208210811415620006b157620006b0620006e6565b5b50919050565b7f4e487b7100000000000000000000000000000000000000000000000000000000600052601160045260246000fd5b7f4e487b7100000000000000000000000000000000000000000000000000000000600052602260045260246000fd5b60008160011c9050919050565b6114fd80620007326000396000f3fe608060405234801561001057600080fd5b50600436106101005760003560e01c806370a0823111610097578063b09f126611610066578063b09f1266146102d9578063c0efbd2a146102f7578063dd62ed3e14610315578063ecd0c0c31461034557610100565b806370a082311461022b57806395d89b411461025b578063a457c2d714610279578063a9059cbb146102a957610100565b80632ff2e9dc116100d35780632ff2e9dc146101a1578063313ce567146101bf57806332424aa3146101dd57806339509351146101fb57610100565b806306fdde0314610105578063095ea7b31461012357806318160ddd1461015357806323b872dd14610171575b600080fd5b61010d610363565b60405161011a91906111c6565b60405180910390f35b61013d60048036038101906101389190610e15565b6103f5565b60405161014a91906111ab565b60405180910390f35b61015b610413565b60405161016891906112c8565b60405180910390f35b61018b60048036038101906101869190610dc6565b61041d565b60405161019891906111ab565b60405180910390f35b6101a9610515565b6040516101b691906112c8565b60405180910390f35b6101c761051d565b6040516101d491906112e3565b60405180910390f35b6101e5610526565b6040516101f291906112e3565b60405180910390f35b61021560048036038101906102109190610e15565b61052b565b60405161022291906111ab565b60405180910390f35b61024560048036038101906102409190610d61565b6105d7565b60405161025291906112c8565b60405180910390f35b61026361061f565b60405161027091906111c6565b60405180910390f35b610293600480360381019061028e9190610e15565b6106b1565b6040516102a091906111ab565b60405180910390f35b6102c360048036038101906102be9190610e15565b61079c565b6040516102d091906111ab565b60405180910390f35b6102e16107ba565b6040516102ee91906111c6565b60405180910390f35b6102ff6107f3565b60405161030c9190611190565b60405180910390f35b61032f600480360381019061032a9190610d8a565b610819565b60405161033c91906112c8565b60405180910390f35b61034d6108a0565b60405161035a91906111c6565b60405180910390f35b606060038054610372906113f8565b80601f016020809104026020016040519081016040528092919081815260200182805461039e906113f8565b80156103eb5780601f106103c0576101008083540402835291602001916103eb565b820191906000526020600020905b8154815290600101906020018083116103ce57829003601f168201915b5050505050905090565b60006104096104026108d9565b84846108e1565b6001905092915050565b6000600254905090565b600061042a848484610aac565b6000600160008673ffffffffffffffffffffffffffffffffffffffff1673ffffffffffffffffffffffffffffffffffffffff16815260200190815260200160002060006104756108d9565b73ffffffffffffffffffffffffffffffffffffffff1673ffffffffffffffffffffffffffffffffffffffff168152602001908152602001600020549050828110156104f5576040517f08c379a00000000000000000000000000000000000000000000000000000000081526004016104ec90611248565b60405180910390fd5b610509856105016108d9565b8584036108e1565b60019150509392505050565b6305f5e10081565b60006012905090565b601281565b60006105cd6105386108d9565b8484600160006105466108d9565b73ffffffffffffffffffffffffffffffffffffffff1673ffffffffffffffffffffffffffffffffffffffff16815260200190815260200160002060008873ffffffffffffffffffffffffffffffffffffffff1673ffffffffffffffffffffffffffffffffffffffff168152602001908152602001600020546105c8919061131a565b6108e1565b6001905092915050565b60008060008373ffffffffffffffffffffffffffffffffffffffff1673ffffffffffffffffffffffffffffffffffffffff168152602001908152602001600020549050919050565b60606004805461062e906113f8565b80601f016020809104026020016040519081016040528092919081815260200182805461065a906113f8565b80156106a75780601f1061067c576101008083540402835291602001916106a7565b820191906000526020600020905b81548152906001019060200180831161068a57829003601f168201915b5050505050905090565b600080600160006106c06108d9565b73ffffffffffffffffffffffffffffffffffffffff1673ffffffffffffffffffffffffffffffffffffffff16815260200190815260200160002060008573ffffffffffffffffffffffffffffffffffffffff1673ffffffffffffffffffffffffffffffffffffffff1681526020019081526020016000205490508281101561077d576040517f08c379a0000000000000000000000000000000000000000000000000000000008152600401610774906112a8565b60405180910390fd5b6107916107886108d9565b858584036108e1565b600191505092915050565b60006107b06107a96108d9565b8484610aac565b6001905092915050565b6040518060400160405280600381526020017f444254000000000000000000000000000000000000000000000000000000000081525081565b600560009054906101000a900473ffffffffffffffffffffffffffffffffffffffff1681565b6000600160008473ffffffffffffffffffffffffffffffffffffffff1673ffffffffffffffffffffffffffffffffffffffff16815260200190815260200160002060008373ffffffffffffffffffffffffffffffffffffffff1673ffffffffffffffffffffffffffffffffffffffff16815260200190815260200160002054905092915050565b6040518060400160405280600a81526020017f446f427579546f6b656e0000000000000000000000000000000000000000000081525081565b600033905090565b600073ffffffffffffffffffffffffffffffffffffffff168373ffffffffffffffffffffffffffffffffffffffff161415610951576040517f08c379a000000000000000000000000000000000000000000000000000000000815260040161094890611288565b60405180910390fd5b600073ffffffffffffffffffffffffffffffffffffffff168273ffffffffffffffffffffffffffffffffffffffff1614156109c1576040517f08c379a00000000000000000000000000000000000000000000000000000000081526004016109b890611208565b60405180910390fd5b80600160008573ffffffffffffffffffffffffffffffffffffffff1673ffffffffffffffffffffffffffffffffffffffff16815260200190815260200160002060008473ffffffffffffffffffffffffffffffffffffffff1673ffffffffffffffffffffffffffffffffffffffff168152602001908152602001600020819055508173ffffffffffffffffffffffffffffffffffffffff168373ffffffffffffffffffffffffffffffffffffffff167f8c5be1e5ebec7d5bd14f71427d1e84f3dd0314c0f7b2291e5b200ac8c7c3b92583604051610a9f91906112c8565b60405180910390a3505050565b600073ffffffffffffffffffffffffffffffffffffffff168373ffffffffffffffffffffffffffffffffffffffff161415610b1c576040517f08c379a0000000000000000000000000000000000000000000000000000000008152600401610b1390611268565b60405180910390fd5b600073ffffffffffffffffffffffffffffffffffffffff168273ffffffffffffffffffffffffffffffffffffffff161415610b8c576040517f08c379a0000000000000000000000000000000000000000000000000000000008152600401610b83906111e8565b60405180910390fd5b610b97838383610d2d565b60008060008573ffffffffffffffffffffffffffffffffffffffff1673ffffffffffffffffffffffffffffffffffffffff16815260200190815260200160002054905081811015610c1d576040517f08c379a0000000000000000000000000000000000000000000000000000000008152600401610c1490611228565b60405180910390fd5b8181036000808673ffffffffffffffffffffffffffffffffffffffff1673ffffffffffffffffffffffffffffffffffffffff16815260200190815260200160002081905550816000808573ffffffffffffffffffffffffffffffffffffffff1673ffffffffffffffffffffffffffffffffffffffff1681526020019081526020016000206000828254610cb0919061131a565b925050819055508273ffffffffffffffffffffffffffffffffffffffff168473ffffffffffffffffffffffffffffffffffffffff167fddf252ad1be2c89b69c2b068fc378daa952ba7f163c4a11628f55a4df523b3ef84604051610d1491906112c8565b60405180910390a3610d27848484610d32565b50505050565b505050565b505050565b600081359050610d4681611499565b92915050565b600081359050610d5b816114b0565b92915050565b600060208284031215610d7357600080fd5b6000610d8184828501610d37565b91505092915050565b60008060408385031215610d9d57600080fd5b6000610dab85828601610d37565b9250506020610dbc85828601610d37565b9150509250929050565b600080600060608486031215610ddb57600080fd5b6000610de986828701610d37565b9350506020610dfa86828701610d37565b9250506040610e0b86828701610d4c565b9150509250925092565b60008060408385031215610e2857600080fd5b6000610e3685828601610d37565b9250506020610e4785828601610d4c565b9150509250929050565b610e5a81611370565b82525050565b610e6981611382565b82525050565b6000610e7a826112fe565b610e848185611309565b9350610e948185602086016113c5565b610e9d81611488565b840191505092915050565b6000610eb5602383611309565b91507f45524332303a207472616e7366657220746f20746865207a65726f206164647260008301527f65737300000000000000000000000000000000000000000000000000000000006020830152604082019050919050565b6000610f1b602283611309565b91507f45524332303a20617070726f766520746f20746865207a65726f20616464726560008301527f73730000000000000000000000000000000000000000000000000000000000006020830152604082019050919050565b6000610f81602683611309565b91507f45524332303a207472616e7366657220616d6f756e742065786365656473206260008301527f616c616e636500000000000000000000000000000000000000000000000000006020830152604082019050919050565b6000610fe7602883611309565b91507f45524332303a207472616e7366657220616d6f756e742065786365656473206160008301527f6c6c6f77616e63650000000000000000000000000000000000000000000000006020830152604082019050919050565b600061104d602583611309565b91507f45524332303a207472616e736665722066726f6d20746865207a65726f20616460008301527f64726573730000000000000000000000000000000000000000000000000000006020830152604082019050919050565b60006110b3602483611309565b91507f45524332303a20617070726f76652066726f6d20746865207a65726f2061646460008301527f72657373000000000000000000000000000000000000000000000000000000006020830152604082019050919050565b6000611119602583611309565b91507f45524332303a2064656372656173656420616c6c6f77616e63652062656c6f7760008301527f207a65726f0000000000000000000000000000000000000000000000000000006020830152604082019050919050565b61117b816113ae565b82525050565b61118a816113b8565b82525050565b60006020820190506111a56000830184610e51565b92915050565b60006020820190506111c06000830184610e60565b92915050565b600060208201905081810360008301526111e08184610e6f565b905092915050565b6000602082019050818103600083015261120181610ea8565b9050919050565b6000602082019050818103600083015261122181610f0e565b9050919050565b6000602082019050818103600083015261124181610f74565b9050919050565b6000602082019050818103600083015261126181610fda565b9050919050565b6000602082019050818103600083015261128181611040565b9050919050565b600060208201905081810360008301526112a1816110a6565b9050919050565b600060208201905081810360008301526112c18161110c565b9050919050565b60006020820190506112dd6000830184611172565b92915050565b60006020820190506112f86000830184611181565b92915050565b600081519050919050565b600082825260208201905092915050565b6000611325826113ae565b9150611330836113ae565b9250827fffffffffffffffffffffffffffffffffffffffffffffffffffffffffffffffff038211156113655761136461142a565b5b828201905092915050565b600061137b8261138e565b9050919050565b60008115159050919050565b600073ffffffffffffffffffffffffffffffffffffffff82169050919050565b6000819050919050565b600060ff82169050919050565b60005b838110156113e35780820151818401526020810190506113c8565b838111156113f2576000848401525b50505050565b6000600282049050600182168061141057607f821691505b6020821081141561142457611423611459565b5b50919050565b7f4e487b7100000000000000000000000000000000000000000000000000000000600052601160045260246000fd5b7f4e487b7100000000000000000000000000000000000000000000000000000000600052602260045260246000fd5b6000601f19601f8301169050919050565b6114a281611370565b81146114ad57600080fd5b50565b6114b9816113ae565b81146114c457600080fd5b5056fea2646970667358221220a951b7a98d4ea92630113cc41d6969c088c34696b85655d60889268c3dd8617a64736f6c63430008000033",
  "immutableReferences": {},
  "source": "// SPDX-License-Identifier: MIT\npragma solidity >=0.4.22 <0.9.0;\n\nimport \"@openzeppelin/contracts/token/ERC20/ERC20.sol\";\n\ncontract DoBuyToken is ERC20 {\n\n    /// @notice  \n    string public constant _token = \"DoBuyToken\";\n\n    /// @notice  \n    string public constant _symbol = \"DBT\";\n\n    /// @notice \n    uint8 public constant _decimals = 18;\n\n    /// @notice   \n    uint256 public constant INITIAL_SUPPLY = 100000000;\n    \n    /// @notice  \n    address public user_wallet = payable(msg.sender);\n\n    constructor() ERC20(\"DoBuyToken\", \"DBT\") {\n        address owners = msg.sender;\n        _mint(owners, INITIAL_SUPPLY * 10 ** (uint(decimals())));\n    }\n}",
  "sourcePath": "C:/Users/redqo/Desktop/DoBuy_project/contracts/DoBuyToken.sol",
  "compiler": {
    "name": "solc",
    "version": "0.8.0+commit.c7dfd78e.Emscripten.clang"
  },
  "schemaVersion": "3.4.1",
  "updatedAt": "2021-08-18T06:33:07.963Z",
  "networkType": "ethereum",
  "devdoc": {
    "kind": "dev",
    "methods": {
      "allowance(address,address)": {
        "details": "See {IERC20-allowance}."
      },
      "approve(address,uint256)": {
        "details": "See {IERC20-approve}. Requirements: - `spender` cannot be the zero address."
      },
      "balanceOf(address)": {
        "details": "See {IERC20-balanceOf}."
      },
      "decimals()": {
        "details": "Returns the number of decimals used to get its user representation. For example, if `decimals` equals `2`, a balance of `505` tokens should be displayed to a user as `5.05` (`505 / 10 ** 2`). Tokens usually opt for a value of 18, imitating the relationship between Ether and Wei. This is the value {ERC20} uses, unless this function is overridden; NOTE: This information is only used for _display_ purposes: it in no way affects any of the arithmetic of the contract, including {IERC20-balanceOf} and {IERC20-transfer}."
      },
      "decreaseAllowance(address,uint256)": {
        "details": "Atomically decreases the allowance granted to `spender` by the caller. This is an alternative to {approve} that can be used as a mitigation for problems described in {IERC20-approve}. Emits an {Approval} event indicating the updated allowance. Requirements: - `spender` cannot be the zero address. - `spender` must have allowance for the caller of at least `subtractedValue`."
      },
      "increaseAllowance(address,uint256)": {
        "details": "Atomically increases the allowance granted to `spender` by the caller. This is an alternative to {approve} that can be used as a mitigation for problems described in {IERC20-approve}. Emits an {Approval} event indicating the updated allowance. Requirements: - `spender` cannot be the zero address."
      },
      "name()": {
        "details": "Returns the name of the token."
      },
      "symbol()": {
        "details": "Returns the symbol of the token, usually a shorter version of the name."
      },
      "totalSupply()": {
        "details": "See {IERC20-totalSupply}."
      },
      "transfer(address,uint256)": {
        "details": "See {IERC20-transfer}. Requirements: - `recipient` cannot be the zero address. - the caller must have a balance of at least `amount`."
      },
      "transferFrom(address,address,uint256)": {
        "details": "See {IERC20-transferFrom}. Emits an {Approval} event indicating the updated allowance. This is not required by the EIP. See the note at the beginning of {ERC20}. Requirements: - `sender` and `recipient` cannot be the zero address. - `sender` must have a balance of at least `amount`. - the caller must have allowance for ``sender``'s tokens of at least `amount`."
      }
    },
    "version": 1
  },
  "userdoc": {
    "kind": "user",
    "methods": {
      "INITIAL_SUPPLY()": {
        "notice": "  "
      },
      "_decimals()": {
        "notice": ""
      },
      "_symbol()": {
        "notice": " "
      },
      "_token()": {
        "notice": " "
      },
      "user_wallet()": {
        "notice": " "
      }
    },
    "version": 1
  }
}