{
  "contractName": "DoBuyToken",
  "abi": [
    {
      "inputs": [],
      "stateMutability": "nonpayable",
      "type": "constructor"
    },
    {
      "anonymous": false,
      "inputs": [
        {
          "indexed": true,
          "internalType": "address",
          "name": "owner",
          "type": "address"
        },
        {
          "indexed": true,
          "internalType": "address",
          "name": "spender",
          "type": "address"
        },
        {
          "indexed": false,
          "internalType": "uint256",
          "name": "value",
          "type": "uint256"
        }
      ],
      "name": "Approval",
      "type": "event"
    },
    {
      "anonymous": false,
      "inputs": [
        {
          "indexed": true,
          "internalType": "address",
          "name": "from",
          "type": "address"
        },
        {
          "indexed": true,
          "internalType": "address",
          "name": "to",
          "type": "address"
        },
        {
          "indexed": false,
          "internalType": "uint256",
          "name": "value",
          "type": "uint256"
        }
      ],
      "name": "Transfer",
      "type": "event"
    },
    {
      "inputs": [],
      "name": "INITIAL_SUPPLY",
      "outputs": [
        {
          "internalType": "uint256",
          "name": "",
          "type": "uint256"
        }
      ],
      "stateMutability": "view",
      "type": "function",
      "constant": true
    },
    {
      "inputs": [],
      "name": "_decimals",
      "outputs": [
        {
          "internalType": "uint8",
          "name": "",
          "type": "uint8"
        }
      ],
      "stateMutability": "view",
      "type": "function",
      "constant": true
    },
    {
      "inputs": [],
      "name": "_symbol",
      "outputs": [
        {
          "internalType": "string",
          "name": "",
          "type": "string"
        }
      ],
      "stateMutability": "view",
      "type": "function",
      "constant": true
    },
    {
      "inputs": [],
      "name": "_token",
      "outputs": [
        {
          "internalType": "string",
          "name": "",
          "type": "string"
        }
      ],
      "stateMutability": "view",
      "type": "function",
      "constant": true
    },
    {
      "inputs": [],
      "name": "_trackingIds",
      "outputs": [
        {
          "internalType": "uint256",
          "name": "_value",
          "type": "uint256"
        }
      ],
      "stateMutability": "view",
      "type": "function",
      "constant": true
    },
    {
      "inputs": [
        {
          "internalType": "address",
          "name": "owner",
          "type": "address"
        },
        {
          "internalType": "address",
          "name": "spender",
          "type": "address"
        }
      ],
      "name": "allowance",
      "outputs": [
        {
          "internalType": "uint256",
          "name": "",
          "type": "uint256"
        }
      ],
      "stateMutability": "view",
      "type": "function",
      "constant": true
    },
    {
      "inputs": [
        {
          "internalType": "address",
          "name": "spender",
          "type": "address"
        },
        {
          "internalType": "uint256",
          "name": "amount",
          "type": "uint256"
        }
      ],
      "name": "approve",
      "outputs": [
        {
          "internalType": "bool",
          "name": "",
          "type": "bool"
        }
      ],
      "stateMutability": "nonpayable",
      "type": "function"
    },
    {
      "inputs": [
        {
          "internalType": "address",
          "name": "account",
          "type": "address"
        }
      ],
      "name": "balanceOf",
      "outputs": [
        {
          "internalType": "uint256",
          "name": "",
          "type": "uint256"
        }
      ],
      "stateMutability": "view",
      "type": "function",
      "constant": true
    },
    {
      "inputs": [],
      "name": "decimals",
      "outputs": [
        {
          "internalType": "uint8",
          "name": "",
          "type": "uint8"
        }
      ],
      "stateMutability": "view",
      "type": "function",
      "constant": true
    },
    {
      "inputs": [
        {
          "internalType": "address",
          "name": "spender",
          "type": "address"
        },
        {
          "internalType": "uint256",
          "name": "subtractedValue",
          "type": "uint256"
        }
      ],
      "name": "decreaseAllowance",
      "outputs": [
        {
          "internalType": "bool",
          "name": "",
          "type": "bool"
        }
      ],
      "stateMutability": "nonpayable",
      "type": "function"
    },
    {
      "inputs": [
        {
          "internalType": "address",
          "name": "spender",
          "type": "address"
        },
        {
          "internalType": "uint256",
          "name": "addedValue",
          "type": "uint256"
        }
      ],
      "name": "increaseAllowance",
      "outputs": [
        {
          "internalType": "bool",
          "name": "",
          "type": "bool"
        }
      ],
      "stateMutability": "nonpayable",
      "type": "function"
    },
    {
      "inputs": [],
      "name": "name",
      "outputs": [
        {
          "internalType": "string",
          "name": "",
          "type": "string"
        }
      ],
      "stateMutability": "view",
      "type": "function",
      "constant": true
    },
    {
      "inputs": [],
      "name": "symbol",
      "outputs": [
        {
          "internalType": "string",
          "name": "",
          "type": "string"
        }
      ],
      "stateMutability": "view",
      "type": "function",
      "constant": true
    },
    {
      "inputs": [],
      "name": "totalSupply",
      "outputs": [
        {
          "internalType": "uint256",
          "name": "",
          "type": "uint256"
        }
      ],
      "stateMutability": "view",
      "type": "function",
      "constant": true
    },
    {
      "inputs": [
        {
          "internalType": "address",
          "name": "recipient",
          "type": "address"
        },
        {
          "internalType": "uint256",
          "name": "amount",
          "type": "uint256"
        }
      ],
      "name": "transfer",
      "outputs": [
        {
          "internalType": "bool",
          "name": "",
          "type": "bool"
        }
      ],
      "stateMutability": "nonpayable",
      "type": "function"
    },
    {
      "inputs": [
        {
          "internalType": "address",
          "name": "sender",
          "type": "address"
        },
        {
          "internalType": "address",
          "name": "recipient",
          "type": "address"
        },
        {
          "internalType": "uint256",
          "name": "amount",
          "type": "uint256"
        }
      ],
      "name": "transferFrom",
      "outputs": [
        {
          "internalType": "bool",
          "name": "",
          "type": "bool"
        }
      ],
      "stateMutability": "nonpayable",
      "type": "function"
    },
    {
      "inputs": [],
      "name": "user_wallet",
      "outputs": [
        {
          "internalType": "address",
          "name": "",
          "type": "address"
        }
      ],
      "stateMutability": "view",
      "type": "function",
      "constant": true
    },
    {
      "inputs": [
        {
          "internalType": "uint256",
          "name": "NFT",
          "type": "uint256"
        }
      ],
      "name": "deliveryStart",
      "outputs": [],
      "stateMutability": "nonpayable",
      "type": "function"
    }
  ],
  "bytecode": "0x608060405233600560006101000a81548173ffffffffffffffffffffffffffffffffffffffff021916908373ffffffffffffffffffffffffffffffffffffffff1602179055503480156200005257600080fd5b506040518060400160405280600a81526020017f446f427579546f6b656e000000000000000000000000000000000000000000008152506040518060400160405280600381526020017f44425400000000000000000000000000000000000000000000000000000000008152508160039080519060200190620000d7929190620002ce565b508060049080519060200190620000f0929190620002ce565b50505060003390506200013b816200010d6200014260201b60201c565b60ff16600a6200011e9190620004d9565b6305f5e1006200012f919062000616565b6200014b60201b60201c565b5062000722565b60006012905090565b600073ffffffffffffffffffffffffffffffffffffffff168273ffffffffffffffffffffffffffffffffffffffff161415620001be576040517f08c379a0000000000000000000000000000000000000000000000000000000008152600401620001b590620003d1565b60405180910390fd5b620001d260008383620002c460201b60201c565b8060026000828254620001e6919062000421565b92505081905550806000808473ffffffffffffffffffffffffffffffffffffffff1673ffffffffffffffffffffffffffffffffffffffff16815260200190815260200160002060008282546200023d919062000421565b925050819055508173ffffffffffffffffffffffffffffffffffffffff16600073ffffffffffffffffffffffffffffffffffffffff167fddf252ad1be2c89b69c2b068fc378daa952ba7f163c4a11628f55a4df523b3ef83604051620002a49190620003f3565b60405180910390a3620002c060008383620002c960201b60201c565b5050565b505050565b505050565b828054620002dc9062000681565b90600052602060002090601f0160209004810192826200030057600085556200034c565b82601f106200031b57805160ff19168380011785556200034c565b828001600101855582156200034c579182015b828111156200034b5782518255916020019190600101906200032e565b5b5090506200035b91906200035f565b5090565b5b808211156200037a57600081600090555060010162000360565b5090565b60006200038d601f8362000410565b91507f45524332303a206d696e7420746f20746865207a65726f2061646472657373006000830152602082019050919050565b620003cb8162000677565b82525050565b60006020820190508181036000830152620003ec816200037e565b9050919050565b60006020820190506200040a6000830184620003c0565b92915050565b600082825260208201905092915050565b60006200042e8262000677565b91506200043b8362000677565b9250827fffffffffffffffffffffffffffffffffffffffffffffffffffffffffffffffff03821115620004735762000472620006b7565b5b828201905092915050565b6000808291508390505b6001851115620004d057808604811115620004a857620004a7620006b7565b5b6001851615620004b85780820291505b8081029050620004c88562000715565b945062000488565b94509492505050565b6000620004e68262000677565b9150620004f38362000677565b9250620005227fffffffffffffffffffffffffffffffffffffffffffffffffffffffffffffffff84846200052a565b905092915050565b6000826200053c57600190506200060f565b816200054c57600090506200060f565b81600181146200056557600281146200057057620005a6565b60019150506200060f565b60ff841115620005855762000584620006b7565b5b8360020a9150848211156200059f576200059e620006b7565b5b506200060f565b5060208310610133831016604e8410600b8410161715620005e05782820a905083811115620005da57620005d9620006b7565b5b6200060f565b620005ef84848460016200047e565b92509050818404811115620006095762000608620006b7565b5b81810290505b9392505050565b6000620006238262000677565b9150620006308362000677565b9250817fffffffffffffffffffffffffffffffffffffffffffffffffffffffffffffffff04831182151516156200066c576200066b620006b7565b5b828202905092915050565b6000819050919050565b600060028204905060018216806200069a57607f821691505b60208210811415620006b157620006b0620006e6565b5b50919050565b7f4e487b7100000000000000000000000000000000000000000000000000000000600052601160045260246000fd5b7f4e487b7100000000000000000000000000000000000000000000000000000000600052602260045260246000fd5b60008160011c9050919050565b6115a580620007326000396000f3fe608060405234801561001057600080fd5b50600436106101165760003560e01c806370a08231116100a2578063b09f126611610071578063b09f12661461030d578063c0efbd2a1461032b578063dd62ed3e14610349578063ecd0c0c314610379578063fa6254381461039757610116565b806370a082311461025f57806395d89b411461028f578063a457c2d7146102ad578063a9059cbb146102dd57610116565b80632dd9cecd116100e95780632dd9cecd146101b75780632ff2e9dc146101d5578063313ce567146101f357806332424aa314610211578063395093511461022f57610116565b806306fdde031461011b578063095ea7b31461013957806318160ddd1461016957806323b872dd14610187575b600080fd5b6101236103b3565b604051610130919061126e565b60405180910390f35b610153600480360381019061014e9190610e94565b610445565b6040516101609190611253565b60405180910390f35b610171610463565b60405161017e9190611370565b60405180910390f35b6101a1600480360381019061019c9190610e45565b61046d565b6040516101ae9190611253565b60405180910390f35b6101bf610565565b6040516101cc9190611370565b60405180910390f35b6101dd610571565b6040516101ea9190611370565b60405180910390f35b6101fb610579565b604051610208919061138b565b60405180910390f35b610219610582565b604051610226919061138b565b60405180910390f35b61024960048036038101906102449190610e94565b610587565b6040516102569190611253565b60405180910390f35b61027960048036038101906102749190610de0565b610633565b6040516102869190611370565b60405180910390f35b61029761067b565b6040516102a4919061126e565b60405180910390f35b6102c760048036038101906102c29190610e94565b61070d565b6040516102d49190611253565b60405180910390f35b6102f760048036038101906102f29190610e94565b6107f8565b6040516103049190611253565b60405180910390f35b610315610816565b604051610322919061126e565b60405180910390f35b61033361084f565b6040516103409190611238565b60405180910390f35b610363600480360381019061035e9190610e09565b610875565b6040516103709190611370565b60405180910390f35b6103816108fc565b60405161038e919061126e565b60405180910390f35b6103b160048036038101906103ac9190610ed0565b610935565b005b6060600380546103c2906114a0565b80601f01602080910402602001604051908101604052809291908181526020018280546103ee906114a0565b801561043b5780601f106104105761010080835404028352916020019161043b565b820191906000526020600020905b81548152906001019060200180831161041e57829003601f168201915b5050505050905090565b6000610459610452610942565b848461094a565b6001905092915050565b6000600254905090565b600061047a848484610b15565b6000600160008673ffffffffffffffffffffffffffffffffffffffff1673ffffffffffffffffffffffffffffffffffffffff16815260200190815260200160002060006104c5610942565b73ffffffffffffffffffffffffffffffffffffffff1673ffffffffffffffffffffffffffffffffffffffff16815260200190815260200160002054905082811015610545576040517f08c379a000000000000000000000000000000000000000000000000000000000815260040161053c906112f0565b60405180910390fd5b61055985610551610942565b85840361094a565b60019150509392505050565b60068060000154905081565b6305f5e10081565b60006012905090565b601281565b6000610629610594610942565b8484600160006105a2610942565b73ffffffffffffffffffffffffffffffffffffffff1673ffffffffffffffffffffffffffffffffffffffff16815260200190815260200160002060008873ffffffffffffffffffffffffffffffffffffffff1673ffffffffffffffffffffffffffffffffffffffff1681526020019081526020016000205461062491906113c2565b61094a565b6001905092915050565b60008060008373ffffffffffffffffffffffffffffffffffffffff1673ffffffffffffffffffffffffffffffffffffffff168152602001908152602001600020549050919050565b60606004805461068a906114a0565b80601f01602080910402602001604051908101604052809291908181526020018280546106b6906114a0565b80156107035780601f106106d857610100808354040283529160200191610703565b820191906000526020600020905b8154815290600101906020018083116106e657829003601f168201915b5050505050905090565b6000806001600061071c610942565b73ffffffffffffffffffffffffffffffffffffffff1673ffffffffffffffffffffffffffffffffffffffff16815260200190815260200160002060008573ffffffffffffffffffffffffffffffffffffffff1673ffffffffffffffffffffffffffffffffffffffff168152602001908152602001600020549050828110156107d9576040517f08c379a00000000000000000000000000000000000000000000000000000000081526004016107d090611350565b60405180910390fd5b6107ed6107e4610942565b8585840361094a565b600191505092915050565b600061080c610805610942565b8484610b15565b6001905092915050565b6040518060400160405280600381526020017f444254000000000000000000000000000000000000000000000000000000000081525081565b600560009054906101000a900473ffffffffffffffffffffffffffffffffffffffff1681565b6000600160008473ffffffffffffffffffffffffffffffffffffffff1673ffffffffffffffffffffffffffffffffffffffff16815260200190815260200160002060008373ffffffffffffffffffffffffffffffffffffffff1673ffffffffffffffffffffffffffffffffffffffff16815260200190815260200160002054905092915050565b6040518060400160405280600a81526020017f446f427579546f6b656e0000000000000000000000000000000000000000000081525081565b61093f6006610d96565b50565b600033905090565b600073ffffffffffffffffffffffffffffffffffffffff168373ffffffffffffffffffffffffffffffffffffffff1614156109ba576040517f08c379a00000000000000000000000000000000000000000000000000000000081526004016109b190611330565b60405180910390fd5b600073ffffffffffffffffffffffffffffffffffffffff168273ffffffffffffffffffffffffffffffffffffffff161415610a2a576040517f08c379a0000000000000000000000000000000000000000000000000000000008152600401610a21906112b0565b60405180910390fd5b80600160008573ffffffffffffffffffffffffffffffffffffffff1673ffffffffffffffffffffffffffffffffffffffff16815260200190815260200160002060008473ffffffffffffffffffffffffffffffffffffffff1673ffffffffffffffffffffffffffffffffffffffff168152602001908152602001600020819055508173ffffffffffffffffffffffffffffffffffffffff168373ffffffffffffffffffffffffffffffffffffffff167f8c5be1e5ebec7d5bd14f71427d1e84f3dd0314c0f7b2291e5b200ac8c7c3b92583604051610b089190611370565b60405180910390a3505050565b600073ffffffffffffffffffffffffffffffffffffffff168373ffffffffffffffffffffffffffffffffffffffff161415610b85576040517f08c379a0000000000000000000000000000000000000000000000000000000008152600401610b7c90611310565b60405180910390fd5b600073ffffffffffffffffffffffffffffffffffffffff168273ffffffffffffffffffffffffffffffffffffffff161415610bf5576040517f08c379a0000000000000000000000000000000000000000000000000000000008152600401610bec90611290565b60405180910390fd5b610c00838383610dac565b60008060008573ffffffffffffffffffffffffffffffffffffffff1673ffffffffffffffffffffffffffffffffffffffff16815260200190815260200160002054905081811015610c86576040517f08c379a0000000000000000000000000000000000000000000000000000000008152600401610c7d906112d0565b60405180910390fd5b8181036000808673ffffffffffffffffffffffffffffffffffffffff1673ffffffffffffffffffffffffffffffffffffffff16815260200190815260200160002081905550816000808573ffffffffffffffffffffffffffffffffffffffff1673ffffffffffffffffffffffffffffffffffffffff1681526020019081526020016000206000828254610d1991906113c2565b925050819055508273ffffffffffffffffffffffffffffffffffffffff168473ffffffffffffffffffffffffffffffffffffffff167fddf252ad1be2c89b69c2b068fc378daa952ba7f163c4a11628f55a4df523b3ef84604051610d7d9190611370565b60405180910390a3610d90848484610db1565b50505050565b6001816000016000828254019250508190555050565b505050565b505050565b600081359050610dc581611541565b92915050565b600081359050610dda81611558565b92915050565b600060208284031215610df257600080fd5b6000610e0084828501610db6565b91505092915050565b60008060408385031215610e1c57600080fd5b6000610e2a85828601610db6565b9250506020610e3b85828601610db6565b9150509250929050565b600080600060608486031215610e5a57600080fd5b6000610e6886828701610db6565b9350506020610e7986828701610db6565b9250506040610e8a86828701610dcb565b9150509250925092565b60008060408385031215610ea757600080fd5b6000610eb585828601610db6565b9250506020610ec685828601610dcb565b9150509250929050565b600060208284031215610ee257600080fd5b6000610ef084828501610dcb565b91505092915050565b610f0281611418565b82525050565b610f118161142a565b82525050565b6000610f22826113a6565b610f2c81856113b1565b9350610f3c81856020860161146d565b610f4581611530565b840191505092915050565b6000610f5d6023836113b1565b91507f45524332303a207472616e7366657220746f20746865207a65726f206164647260008301527f65737300000000000000000000000000000000000000000000000000000000006020830152604082019050919050565b6000610fc36022836113b1565b91507f45524332303a20617070726f766520746f20746865207a65726f20616464726560008301527f73730000000000000000000000000000000000000000000000000000000000006020830152604082019050919050565b60006110296026836113b1565b91507f45524332303a207472616e7366657220616d6f756e742065786365656473206260008301527f616c616e636500000000000000000000000000000000000000000000000000006020830152604082019050919050565b600061108f6028836113b1565b91507f45524332303a207472616e7366657220616d6f756e742065786365656473206160008301527f6c6c6f77616e63650000000000000000000000000000000000000000000000006020830152604082019050919050565b60006110f56025836113b1565b91507f45524332303a207472616e736665722066726f6d20746865207a65726f20616460008301527f64726573730000000000000000000000000000000000000000000000000000006020830152604082019050919050565b600061115b6024836113b1565b91507f45524332303a20617070726f76652066726f6d20746865207a65726f2061646460008301527f72657373000000000000000000000000000000000000000000000000000000006020830152604082019050919050565b60006111c16025836113b1565b91507f45524332303a2064656372656173656420616c6c6f77616e63652062656c6f7760008301527f207a65726f0000000000000000000000000000000000000000000000000000006020830152604082019050919050565b61122381611456565b82525050565b61123281611460565b82525050565b600060208201905061124d6000830184610ef9565b92915050565b60006020820190506112686000830184610f08565b92915050565b600060208201905081810360008301526112888184610f17565b905092915050565b600060208201905081810360008301526112a981610f50565b9050919050565b600060208201905081810360008301526112c981610fb6565b9050919050565b600060208201905081810360008301526112e98161101c565b9050919050565b6000602082019050818103600083015261130981611082565b9050919050565b60006020820190508181036000830152611329816110e8565b9050919050565b600060208201905081810360008301526113498161114e565b9050919050565b60006020820190508181036000830152611369816111b4565b9050919050565b6000602082019050611385600083018461121a565b92915050565b60006020820190506113a06000830184611229565b92915050565b600081519050919050565b600082825260208201905092915050565b60006113cd82611456565b91506113d883611456565b9250827fffffffffffffffffffffffffffffffffffffffffffffffffffffffffffffffff0382111561140d5761140c6114d2565b5b828201905092915050565b600061142382611436565b9050919050565b60008115159050919050565b600073ffffffffffffffffffffffffffffffffffffffff82169050919050565b6000819050919050565b600060ff82169050919050565b60005b8381101561148b578082015181840152602081019050611470565b8381111561149a576000848401525b50505050565b600060028204905060018216806114b857607f821691505b602082108114156114cc576114cb611501565b5b50919050565b7f4e487b7100000000000000000000000000000000000000000000000000000000600052601160045260246000fd5b7f4e487b7100000000000000000000000000000000000000000000000000000000600052602260045260246000fd5b6000601f19601f8301169050919050565b61154a81611418565b811461155557600080fd5b50565b61156181611456565b811461156c57600080fd5b5056fea26469706673582212204c02b81ef935ee237b9418f638f488df64b394fe9e3f7a579f8c5c85c41f7c3564736f6c63430008000033",
  "immutableReferences": {},
  "source": "// SPDX-License-Identifier: MIT\r\npragma solidity >=0.4.22 <0.9.0;\r\n\r\nimport \"@openzeppelin/contracts/token/ERC20/ERC20.sol\";\r\nimport \"@openzeppelin/contracts/utils/Counters.sol\";\r\n\r\ncontract DoBuyToken is ERC20 {\r\n    using Counters for Counters.Counter;\r\n\r\n    /// @notice  \r\n    string public constant _token = \"DoBuyToken\";\r\n\r\n    /// @notice  \r\n    string public constant _symbol = \"DBT\";\r\n\r\n    /// @notice \r\n    uint8 public constant _decimals = 18;\r\n\r\n    /// @notice   \r\n    uint256 public constant INITIAL_SUPPLY = 100000000;\r\n    \r\n    /// @notice  \r\n    address public user_wallet = payable(msg.sender);\r\n\r\n    /// @notice \r\n    Counters.Counter public _trackingIds;\r\n\r\n    /// @dev  \r\n    struct deliveryBill {\r\n        uint256 _Ids;   //trackingId\r\n        uint16 amount;\r\n        string sender;\r\n        string receiver;\r\n        string name;\r\n    }\r\n\r\n    constructor() ERC20(\"DoBuyToken\", \"DBT\") {\r\n        address owners = msg.sender;\r\n        _mint(owners, INITIAL_SUPPLY * 10 ** (uint(decimals())));\r\n    }\r\n    \r\n    /// @dev delivery -  \r\n    function deliveryStart(uint256 NFT) public {\r\n        _trackingIds.increment();\r\n    }\r\n}",
  "sourcePath": "C:/Users/redqo/Desktop/DoBuy_project/contracts/DoBuyToken.sol",
  "compiler": {
    "name": "solc",
    "version": "0.8.0+commit.c7dfd78e.Emscripten.clang"
  },
  "schemaVersion": "3.4.1",
  "updatedAt": "2021-08-20T00:58:10.841Z",
  "networkType": "ethereum",
  "devdoc": {
    "kind": "dev",
    "methods": {
      "allowance(address,address)": {
        "details": "See {IERC20-allowance}."
      },
      "approve(address,uint256)": {
        "details": "See {IERC20-approve}. Requirements: - `spender` cannot be the zero address."
      },
      "balanceOf(address)": {
        "details": "See {IERC20-balanceOf}."
      },
      "decimals()": {
        "details": "Returns the number of decimals used to get its user representation. For example, if `decimals` equals `2`, a balance of `505` tokens should be displayed to a user as `5.05` (`505 / 10 ** 2`). Tokens usually opt for a value of 18, imitating the relationship between Ether and Wei. This is the value {ERC20} uses, unless this function is overridden; NOTE: This information is only used for _display_ purposes: it in no way affects any of the arithmetic of the contract, including {IERC20-balanceOf} and {IERC20-transfer}."
      },
      "decreaseAllowance(address,uint256)": {
        "details": "Atomically decreases the allowance granted to `spender` by the caller. This is an alternative to {approve} that can be used as a mitigation for problems described in {IERC20-approve}. Emits an {Approval} event indicating the updated allowance. Requirements: - `spender` cannot be the zero address. - `spender` must have allowance for the caller of at least `subtractedValue`."
      },
      "deliveryStart(uint256)": {
        "details": "delivery -  "
      },
      "increaseAllowance(address,uint256)": {
        "details": "Atomically increases the allowance granted to `spender` by the caller. This is an alternative to {approve} that can be used as a mitigation for problems described in {IERC20-approve}. Emits an {Approval} event indicating the updated allowance. Requirements: - `spender` cannot be the zero address."
      },
      "name()": {
        "details": "Returns the name of the token."
      },
      "symbol()": {
        "details": "Returns the symbol of the token, usually a shorter version of the name."
      },
      "totalSupply()": {
        "details": "See {IERC20-totalSupply}."
      },
      "transfer(address,uint256)": {
        "details": "See {IERC20-transfer}. Requirements: - `recipient` cannot be the zero address. - the caller must have a balance of at least `amount`."
      },
      "transferFrom(address,address,uint256)": {
        "details": "See {IERC20-transferFrom}. Emits an {Approval} event indicating the updated allowance. This is not required by the EIP. See the note at the beginning of {ERC20}. Requirements: - `sender` and `recipient` cannot be the zero address. - `sender` must have a balance of at least `amount`. - the caller must have allowance for ``sender``'s tokens of at least `amount`."
      }
    },
    "version": 1
  },
  "userdoc": {
    "kind": "user",
    "methods": {
      "INITIAL_SUPPLY()": {
        "notice": "  "
      },
      "_decimals()": {
        "notice": ""
      },
      "_symbol()": {
        "notice": " "
      },
      "_token()": {
        "notice": " "
      },
      "_trackingIds()": {
        "notice": ""
      },
      "user_wallet()": {
        "notice": " "
      }
    },
    "version": 1
  }
}