{
  "contractName": "DoBuyNFT",
  "abi": [
    {
      "inputs": [],
      "stateMutability": "nonpayable",
      "type": "constructor"
    },
    {
      "anonymous": false,
      "inputs": [
        {
          "indexed": true,
          "internalType": "address",
          "name": "owner",
          "type": "address"
        },
        {
          "indexed": true,
          "internalType": "address",
          "name": "approved",
          "type": "address"
        },
        {
          "indexed": true,
          "internalType": "uint256",
          "name": "tokenId",
          "type": "uint256"
        }
      ],
      "name": "Approval",
      "type": "event"
    },
    {
      "anonymous": false,
      "inputs": [
        {
          "indexed": true,
          "internalType": "address",
          "name": "owner",
          "type": "address"
        },
        {
          "indexed": true,
          "internalType": "address",
          "name": "operator",
          "type": "address"
        },
        {
          "indexed": false,
          "internalType": "bool",
          "name": "approved",
          "type": "bool"
        }
      ],
      "name": "ApprovalForAll",
      "type": "event"
    },
    {
      "anonymous": false,
      "inputs": [
        {
          "indexed": false,
          "internalType": "address",
          "name": "",
          "type": "address"
        },
        {
          "indexed": false,
          "internalType": "uint32",
          "name": "",
          "type": "uint32"
        }
      ],
      "name": "DoBuyCreated",
      "type": "event"
    },
    {
      "anonymous": false,
      "inputs": [
        {
          "indexed": true,
          "internalType": "address",
          "name": "from",
          "type": "address"
        },
        {
          "indexed": true,
          "internalType": "address",
          "name": "to",
          "type": "address"
        },
        {
          "indexed": true,
          "internalType": "uint256",
          "name": "tokenId",
          "type": "uint256"
        }
      ],
      "name": "Transfer",
      "type": "event"
    },
    {
      "inputs": [
        {
          "internalType": "uint32",
          "name": "",
          "type": "uint32"
        }
      ],
      "name": "_DoBuyToOwner",
      "outputs": [
        {
          "internalType": "address",
          "name": "",
          "type": "address"
        }
      ],
      "stateMutability": "view",
      "type": "function",
      "constant": true
    },
    {
      "inputs": [
        {
          "internalType": "uint32",
          "name": "",
          "type": "uint32"
        }
      ],
      "name": "_DoBuylist",
      "outputs": [
        {
          "internalType": "uint32",
          "name": "_Ids",
          "type": "uint32"
        },
        {
          "internalType": "uint256",
          "name": "timestamp",
          "type": "uint256"
        },
        {
          "internalType": "string",
          "name": "name",
          "type": "string"
        },
        {
          "internalType": "string",
          "name": "image_url",
          "type": "string"
        },
        {
          "internalType": "string",
          "name": "made_by",
          "type": "string"
        }
      ],
      "stateMutability": "view",
      "type": "function",
      "constant": true
    },
    {
      "inputs": [
        {
          "internalType": "uint256",
          "name": "",
          "type": "uint256"
        }
      ],
      "name": "_TradeTransaction",
      "outputs": [
        {
          "internalType": "address",
          "name": "_from",
          "type": "address"
        },
        {
          "internalType": "address",
          "name": "_to",
          "type": "address"
        },
        {
          "internalType": "string",
          "name": "name",
          "type": "string"
        }
      ],
      "stateMutability": "view",
      "type": "function",
      "constant": true
    },
    {
      "inputs": [],
      "name": "_tokenIds",
      "outputs": [
        {
          "internalType": "uint32",
          "name": "",
          "type": "uint32"
        }
      ],
      "stateMutability": "view",
      "type": "function",
      "constant": true
    },
    {
      "inputs": [],
      "name": "_tradeIds",
      "outputs": [
        {
          "internalType": "uint32",
          "name": "",
          "type": "uint32"
        }
      ],
      "stateMutability": "view",
      "type": "function",
      "constant": true
    },
    {
      "inputs": [
        {
          "internalType": "address",
          "name": "to",
          "type": "address"
        },
        {
          "internalType": "uint256",
          "name": "tokenId",
          "type": "uint256"
        }
      ],
      "name": "approve",
      "outputs": [],
      "stateMutability": "nonpayable",
      "type": "function"
    },
    {
      "inputs": [
        {
          "internalType": "address",
          "name": "owner",
          "type": "address"
        }
      ],
      "name": "balanceOf",
      "outputs": [
        {
          "internalType": "uint256",
          "name": "",
          "type": "uint256"
        }
      ],
      "stateMutability": "view",
      "type": "function",
      "constant": true
    },
    {
      "inputs": [
        {
          "internalType": "uint256",
          "name": "tokenId",
          "type": "uint256"
        }
      ],
      "name": "getApproved",
      "outputs": [
        {
          "internalType": "address",
          "name": "",
          "type": "address"
        }
      ],
      "stateMutability": "view",
      "type": "function",
      "constant": true
    },
    {
      "inputs": [
        {
          "internalType": "address",
          "name": "owner",
          "type": "address"
        },
        {
          "internalType": "address",
          "name": "operator",
          "type": "address"
        }
      ],
      "name": "isApprovedForAll",
      "outputs": [
        {
          "internalType": "bool",
          "name": "",
          "type": "bool"
        }
      ],
      "stateMutability": "view",
      "type": "function",
      "constant": true
    },
    {
      "inputs": [],
      "name": "name",
      "outputs": [
        {
          "internalType": "string",
          "name": "",
          "type": "string"
        }
      ],
      "stateMutability": "view",
      "type": "function",
      "constant": true
    },
    {
      "inputs": [
        {
          "internalType": "uint256",
          "name": "tokenId",
          "type": "uint256"
        }
      ],
      "name": "ownerOf",
      "outputs": [
        {
          "internalType": "address",
          "name": "",
          "type": "address"
        }
      ],
      "stateMutability": "view",
      "type": "function",
      "constant": true
    },
    {
      "inputs": [
        {
          "internalType": "address",
          "name": "from",
          "type": "address"
        },
        {
          "internalType": "address",
          "name": "to",
          "type": "address"
        },
        {
          "internalType": "uint256",
          "name": "tokenId",
          "type": "uint256"
        }
      ],
      "name": "safeTransferFrom",
      "outputs": [],
      "stateMutability": "nonpayable",
      "type": "function"
    },
    {
      "inputs": [
        {
          "internalType": "address",
          "name": "from",
          "type": "address"
        },
        {
          "internalType": "address",
          "name": "to",
          "type": "address"
        },
        {
          "internalType": "uint256",
          "name": "tokenId",
          "type": "uint256"
        },
        {
          "internalType": "bytes",
          "name": "_data",
          "type": "bytes"
        }
      ],
      "name": "safeTransferFrom",
      "outputs": [],
      "stateMutability": "nonpayable",
      "type": "function"
    },
    {
      "inputs": [
        {
          "internalType": "address",
          "name": "operator",
          "type": "address"
        },
        {
          "internalType": "bool",
          "name": "approved",
          "type": "bool"
        }
      ],
      "name": "setApprovalForAll",
      "outputs": [],
      "stateMutability": "nonpayable",
      "type": "function"
    },
    {
      "inputs": [
        {
          "internalType": "bytes4",
          "name": "interfaceId",
          "type": "bytes4"
        }
      ],
      "name": "supportsInterface",
      "outputs": [
        {
          "internalType": "bool",
          "name": "",
          "type": "bool"
        }
      ],
      "stateMutability": "view",
      "type": "function",
      "constant": true
    },
    {
      "inputs": [],
      "name": "symbol",
      "outputs": [
        {
          "internalType": "string",
          "name": "",
          "type": "string"
        }
      ],
      "stateMutability": "view",
      "type": "function",
      "constant": true
    },
    {
      "inputs": [
        {
          "internalType": "uint256",
          "name": "tokenId",
          "type": "uint256"
        }
      ],
      "name": "tokenURI",
      "outputs": [
        {
          "internalType": "string",
          "name": "",
          "type": "string"
        }
      ],
      "stateMutability": "view",
      "type": "function",
      "constant": true
    },
    {
      "inputs": [
        {
          "internalType": "address",
          "name": "from",
          "type": "address"
        },
        {
          "internalType": "address",
          "name": "to",
          "type": "address"
        },
        {
          "internalType": "uint256",
          "name": "tokenId",
          "type": "uint256"
        }
      ],
      "name": "transferFrom",
      "outputs": [],
      "stateMutability": "nonpayable",
      "type": "function"
    },
    {
      "inputs": [
        {
          "internalType": "string",
          "name": "_name",
          "type": "string"
        },
        {
          "internalType": "string",
          "name": "_image_url",
          "type": "string"
        },
        {
          "internalType": "string",
          "name": "_made_by",
          "type": "string"
        }
      ],
      "name": "mint",
      "outputs": [],
      "stateMutability": "nonpayable",
      "type": "function"
    },
    {
      "inputs": [
        {
          "internalType": "uint32",
          "name": "_Id",
          "type": "uint32"
        }
      ],
      "name": "transferNFT",
      "outputs": [],
      "stateMutability": "nonpayable",
      "type": "function"
    },
    {
      "inputs": [
        {
          "internalType": "uint32",
          "name": "_Id",
          "type": "uint32"
        }
      ],
      "name": "burnNFT",
      "outputs": [],
      "stateMutability": "nonpayable",
      "type": "function"
    },
    {
      "inputs": [
        {
          "internalType": "string",
          "name": "_name",
          "type": "string"
        },
        {
          "internalType": "string",
          "name": "_img_url",
          "type": "string"
        },
        {
          "internalType": "string",
          "name": "_made_by",
          "type": "string"
        }
      ],
      "name": "_marketBuy",
      "outputs": [],
      "stateMutability": "nonpayable",
      "type": "function"
    }
  ],
  "bytecode": "0x60806040523480156200001157600080fd5b506040518060400160405280600881526020017f446f4275794e46540000000000000000000000000000000000000000000000008152506040518060400160405280600581526020017f44424e465400000000000000000000000000000000000000000000000000000081525081600090805190602001906200009692919062000356565b508060019080519060200190620000af92919062000356565b50505033600760006101000a81548173ffffffffffffffffffffffffffffffffffffffff021916908373ffffffffffffffffffffffffffffffffffffffff1602179055506040518060a00160405280600760149054906101000a900463ffffffff1663ffffffff1681526020014281526020016040518060400160405280600c81526020017f446f42757920537461727421000000000000000000000000000000000000000081525081526020016040518060400160405280600981526020017f446f4275792e706e67000000000000000000000000000000000000000000000081525081526020016040518060400160405280600681526020017f6d61726b6574000000000000000000000000000000000000000000000000000081525081525060086000600760149054906101000a900463ffffffff1663ffffffff1663ffffffff16815260200190815260200160002060008201518160000160006101000a81548163ffffffff021916908363ffffffff1602179055506020820151816001015560408201518160020190805190602001906200025192919062000356565b5060608201518160030190805190602001906200027092919062000356565b5060808201518160040190805190602001906200028f92919062000356565b509050503360096000600760149054906101000a900463ffffffff1663ffffffff1663ffffffff16815260200190815260200160002060006101000a81548173ffffffffffffffffffffffffffffffffffffffff021916908373ffffffffffffffffffffffffffffffffffffffff1602179055507fd3541a7229e521bbd5f9dab3a283435fe8e2ba7a6ae962cafce8cadbec96dcb033600760149054906101000a900463ffffffff166040516200034892919062000428565b60405180910390a1620004fe565b828054620003649062000499565b90600052602060002090601f016020900481019282620003885760008555620003d4565b82601f10620003a357805160ff1916838001178555620003d4565b82800160010185558215620003d4579182015b82811115620003d3578251825591602001919060010190620003b6565b5b509050620003e39190620003e7565b5090565b5b8082111562000402576000816000905550600101620003e8565b5090565b620004118162000455565b82525050565b620004228162000489565b82525050565b60006040820190506200043f600083018562000406565b6200044e602083018462000417565b9392505050565b6000620004628262000469565b9050919050565b600073ffffffffffffffffffffffffffffffffffffffff82169050919050565b600063ffffffff82169050919050565b60006002820490506001821680620004b257607f821691505b60208210811415620004c957620004c8620004cf565b5b50919050565b7f4e487b7100000000000000000000000000000000000000000000000000000000600052602260045260246000fd5b6136f3806200050e6000396000f3fe608060405234801561001057600080fd5b50600436106101425760003560e01c8063a22cb465116100b8578063d645ddf61161007c578063d645ddf614610387578063dfef0990146103a3578063e985e9c5146103bf578063eeea7437146103ef578063f108461214610421578063f25650f61461043d57610142565b8063a22cb465146102e5578063aa46a40014610301578063b88d4fde1461031f578063c87b56dd1461033b578063cc86afbe1461036b57610142565b80632fb21c281161010a5780632fb21c28146101fd57806342842e0e1461022d5780636352211e146102495780636eb75dad1461027957806370a082311461029757806395d89b41146102c757610142565b806301ffc9a71461014757806306fdde0314610177578063081812fc14610195578063095ea7b3146101c557806323b872dd146101e1575b600080fd5b610161600480360381019061015c9190612700565b610471565b60405161016e9190612f94565b60405180910390f35b61017f610553565b60405161018c9190612faf565b60405180910390f35b6101af60048036038101906101aa91906127e9565b6105e5565b6040516101bc9190612ec6565b60405180910390f35b6101df60048036038101906101da91906126c4565b61066a565b005b6101fb60048036038101906101f691906125be565b610782565b005b61021760048036038101906102129190612812565b6107e2565b6040516102249190612ec6565b60405180910390f35b610247600480360381019061024291906125be565b610815565b005b610263600480360381019061025e91906127e9565b610835565b6040516102709190612ec6565b60405180910390f35b6102816108e7565b60405161028e91906131cc565b60405180910390f35b6102b160048036038101906102ac9190612559565b6108fd565b6040516102be91906131b1565b60405180910390f35b6102cf6109b5565b6040516102dc9190612faf565b60405180910390f35b6102ff60048036038101906102fa9190612688565b610a47565b005b610309610bc8565b60405161031691906131cc565b60405180910390f35b6103396004803603810190610334919061260d565b610bde565b005b610355600480360381019061035091906127e9565b610c40565b6040516103629190612faf565b60405180910390f35b61038560048036038101906103809190612812565b610d92565b005b6103a1600480360381019061039c9190612752565b610e9d565b005b6103bd60048036038101906103b89190612752565b611079565b005b6103d960048036038101906103d49190612582565b611089565b6040516103e69190612f94565b60405180910390f35b610409600480360381019061040491906127e9565b61111d565b60405161041893929190612ee1565b60405180910390f35b61043b60048036038101906104369190612812565b61120f565b005b61045760048036038101906104529190612812565b6114d1565b6040516104689594939291906131e7565b60405180910390f35b60007f80ac58cd000000000000000000000000000000000000000000000000000000007bffffffffffffffffffffffffffffffffffffffffffffffffffffffff1916827bffffffffffffffffffffffffffffffffffffffffffffffffffffffff1916148061053c57507f5b5e139f000000000000000000000000000000000000000000000000000000007bffffffffffffffffffffffffffffffffffffffffffffffffffffffff1916827bffffffffffffffffffffffffffffffffffffffffffffffffffffffff1916145b8061054c575061054b826116af565b5b9050919050565b606060008054610562906134a4565b80601f016020809104026020016040519081016040528092919081815260200182805461058e906134a4565b80156105db5780601f106105b0576101008083540402835291602001916105db565b820191906000526020600020905b8154815290600101906020018083116105be57829003601f168201915b5050505050905090565b60006105f082611719565b61062f576040517f08c379a000000000000000000000000000000000000000000000000000000000815260040161062690613111565b60405180910390fd5b6004600083815260200190815260200160002060009054906101000a900473ffffffffffffffffffffffffffffffffffffffff169050919050565b600061067582610835565b90508073ffffffffffffffffffffffffffffffffffffffff168373ffffffffffffffffffffffffffffffffffffffff1614156106e6576040517f08c379a00000000000000000000000000000000000000000000000000000000081526004016106dd90613171565b60405180910390fd5b8073ffffffffffffffffffffffffffffffffffffffff16610705611785565b73ffffffffffffffffffffffffffffffffffffffff16148061073457506107338161072e611785565b611089565b5b610773576040517f08c379a000000000000000000000000000000000000000000000000000000000815260040161076a90613071565b60405180910390fd5b61077d838361178d565b505050565b61079361078d611785565b82611846565b6107d2576040517f08c379a00000000000000000000000000000000000000000000000000000000081526004016107c990613191565b60405180910390fd5b6107dd838383611924565b505050565b60096020528060005260406000206000915054906101000a900473ffffffffffffffffffffffffffffffffffffffff1681565b61083083838360405180602001604052806000815250610bde565b505050565b6000806002600084815260200190815260200160002060009054906101000a900473ffffffffffffffffffffffffffffffffffffffff169050600073ffffffffffffffffffffffffffffffffffffffff168173ffffffffffffffffffffffffffffffffffffffff1614156108de576040517f08c379a00000000000000000000000000000000000000000000000000000000081526004016108d5906130b1565b60405180910390fd5b80915050919050565b600a60009054906101000a900463ffffffff1681565b60008073ffffffffffffffffffffffffffffffffffffffff168273ffffffffffffffffffffffffffffffffffffffff16141561096e576040517f08c379a000000000000000000000000000000000000000000000000000000000815260040161096590613091565b60405180910390fd5b600360008373ffffffffffffffffffffffffffffffffffffffff1673ffffffffffffffffffffffffffffffffffffffff168152602001908152602001600020549050919050565b6060600180546109c4906134a4565b80601f01602080910402602001604051908101604052809291908181526020018280546109f0906134a4565b8015610a3d5780601f10610a1257610100808354040283529160200191610a3d565b820191906000526020600020905b815481529060010190602001808311610a2057829003601f168201915b5050505050905090565b610a4f611785565b73ffffffffffffffffffffffffffffffffffffffff168273ffffffffffffffffffffffffffffffffffffffff161415610abd576040517f08c379a0000000000000000000000000000000000000000000000000000000008152600401610ab490613031565b60405180910390fd5b8060056000610aca611785565b73ffffffffffffffffffffffffffffffffffffffff1673ffffffffffffffffffffffffffffffffffffffff16815260200190815260200160002060008473ffffffffffffffffffffffffffffffffffffffff1673ffffffffffffffffffffffffffffffffffffffff16815260200190815260200160002060006101000a81548160ff0219169083151502179055508173ffffffffffffffffffffffffffffffffffffffff16610b77611785565b73ffffffffffffffffffffffffffffffffffffffff167f17307eab39ab6107e8899845ad3d59bd9653f200f220920489ca2b5937696c3183604051610bbc9190612f94565b60405180910390a35050565b600760149054906101000a900463ffffffff1681565b610bef610be9611785565b83611846565b610c2e576040517f08c379a0000000000000000000000000000000000000000000000000000000008152600401610c2590613191565b60405180910390fd5b610c3a84848484611b80565b50505050565b6060610c4b82611719565b610c8a576040517f08c379a0000000000000000000000000000000000000000000000000000000008152600401610c81906130f1565b60405180910390fd5b6000600660008481526020019081526020016000208054610caa906134a4565b80601f0160208091040260200160405190810160405280929190818152602001828054610cd6906134a4565b8015610d235780601f10610cf857610100808354040283529160200191610d23565b820191906000526020600020905b815481529060010190602001808311610d0657829003601f168201915b505050505090506000610d34611bdc565b9050600081511415610d4a578192505050610d8d565b600082511115610d7f578082604051602001610d67929190612ea2565b60405160208183030381529060405292505050610d8d565b610d8884611bf3565b925050505b919050565b3373ffffffffffffffffffffffffffffffffffffffff16610db88263ffffffff16610835565b73ffffffffffffffffffffffffffffffffffffffff1614610dd857600080fd5b610de78163ffffffff16611c9a565b600960008263ffffffff1663ffffffff16815260200190815260200160002060006101000a81549073ffffffffffffffffffffffffffffffffffffffff0219169055600860008263ffffffff1663ffffffff168152602001908152602001600020600080820160006101000a81549063ffffffff02191690556001820160009055600282016000610e789190612328565b600382016000610e889190612328565b600482016000610e989190612328565b505050565b6007601481819054906101000a900463ffffffff1680929190610ebf9061351f565b91906101000a81548163ffffffff021916908363ffffffff160217905550506000600760149054906101000a900463ffffffff1690506040518060a001604052808263ffffffff16815260200142815260200185815260200184815260200183815250600860008363ffffffff1663ffffffff16815260200190815260200160002060008201518160000160006101000a81548163ffffffff021916908363ffffffff160217905550602082015181600101556040820151816002019080519060200190610f8e929190612368565b506060820151816003019080519060200190610fab929190612368565b506080820151816004019080519060200190610fc8929190612368565b50905050610fdc338263ffffffff16611ced565b33600960008363ffffffff1663ffffffff16815260200190815260200160002060006101000a81548173ffffffffffffffffffffffffffffffffffffffff021916908373ffffffffffffffffffffffffffffffffffffffff1602179055507fd3541a7229e521bbd5f9dab3a283435fe8e2ba7a6ae962cafce8cadbec96dcb0338260405161106b929190612f6b565b60405180910390a150505050565b611084838383610e9d565b505050565b6000600560008473ffffffffffffffffffffffffffffffffffffffff1673ffffffffffffffffffffffffffffffffffffffff16815260200190815260200160002060008373ffffffffffffffffffffffffffffffffffffffff1673ffffffffffffffffffffffffffffffffffffffff16815260200190815260200160002060009054906101000a900460ff16905092915050565b600b6020528060005260406000206000915090508060000160009054906101000a900473ffffffffffffffffffffffffffffffffffffffff16908060010160009054906101000a900473ffffffffffffffffffffffffffffffffffffffff169080600201805461118c906134a4565b80601f01602080910402602001604051908101604052809291908181526020018280546111b8906134a4565b80156112055780601f106111da57610100808354040283529160200191611205565b820191906000526020600020905b8154815290600101906020018083116111e857829003601f168201915b5050505050905083565b6000600960008363ffffffff1663ffffffff16815260200190815260200160002060009054906101000a900473ffffffffffffffffffffffffffffffffffffffff169050600a600081819054906101000a900463ffffffff16809291906112759061351f565b91906101000a81548163ffffffff021916908363ffffffff160217905550506112a581338463ffffffff16611924565b33600960008463ffffffff1663ffffffff16815260200190815260200160002060006101000a81548173ffffffffffffffffffffffffffffffffffffffff021916908373ffffffffffffffffffffffffffffffffffffffff16021790555060405180606001604052808273ffffffffffffffffffffffffffffffffffffffff1681526020013373ffffffffffffffffffffffffffffffffffffffff168152602001600860008563ffffffff1663ffffffff1681526020019081526020016000206002018054611373906134a4565b80601f016020809104026020016040519081016040528092919081815260200182805461139f906134a4565b80156113ec5780601f106113c1576101008083540402835291602001916113ec565b820191906000526020600020905b8154815290600101906020018083116113cf57829003601f168201915b5050505050815250600b6000600a60009054906101000a900463ffffffff1663ffffffff16815260200190815260200160002060008201518160000160006101000a81548173ffffffffffffffffffffffffffffffffffffffff021916908373ffffffffffffffffffffffffffffffffffffffff16021790555060208201518160010160006101000a81548173ffffffffffffffffffffffffffffffffffffffff021916908373ffffffffffffffffffffffffffffffffffffffff16021790555060408201518160020190805190602001906114c9929190612368565b509050505050565b60086020528060005260406000206000915090508060000160009054906101000a900463ffffffff1690806001015490806002018054611510906134a4565b80601f016020809104026020016040519081016040528092919081815260200182805461153c906134a4565b80156115895780601f1061155e57610100808354040283529160200191611589565b820191906000526020600020905b81548152906001019060200180831161156c57829003601f168201915b50505050509080600301805461159e906134a4565b80601f01602080910402602001604051908101604052809291908181526020018280546115ca906134a4565b80156116175780601f106115ec57610100808354040283529160200191611617565b820191906000526020600020905b8154815290600101906020018083116115fa57829003601f168201915b50505050509080600401805461162c906134a4565b80601f0160208091040260200160405190810160405280929190818152602001828054611658906134a4565b80156116a55780601f1061167a576101008083540402835291602001916116a5565b820191906000526020600020905b81548152906001019060200180831161168857829003601f168201915b5050505050905085565b60007f01ffc9a7000000000000000000000000000000000000000000000000000000007bffffffffffffffffffffffffffffffffffffffffffffffffffffffff1916827bffffffffffffffffffffffffffffffffffffffffffffffffffffffff1916149050919050565b60008073ffffffffffffffffffffffffffffffffffffffff166002600084815260200190815260200160002060009054906101000a900473ffffffffffffffffffffffffffffffffffffffff1673ffffffffffffffffffffffffffffffffffffffff1614159050919050565b600033905090565b816004600083815260200190815260200160002060006101000a81548173ffffffffffffffffffffffffffffffffffffffff021916908373ffffffffffffffffffffffffffffffffffffffff160217905550808273ffffffffffffffffffffffffffffffffffffffff1661180083610835565b73ffffffffffffffffffffffffffffffffffffffff167f8c5be1e5ebec7d5bd14f71427d1e84f3dd0314c0f7b2291e5b200ac8c7c3b92560405160405180910390a45050565b600061185182611719565b611890576040517f08c379a000000000000000000000000000000000000000000000000000000000815260040161188790613051565b60405180910390fd5b600061189b83610835565b90508073ffffffffffffffffffffffffffffffffffffffff168473ffffffffffffffffffffffffffffffffffffffff16148061190a57508373ffffffffffffffffffffffffffffffffffffffff166118f2846105e5565b73ffffffffffffffffffffffffffffffffffffffff16145b8061191b575061191a8185611089565b5b91505092915050565b8273ffffffffffffffffffffffffffffffffffffffff1661194482610835565b73ffffffffffffffffffffffffffffffffffffffff161461199a576040517f08c379a000000000000000000000000000000000000000000000000000000000815260040161199190613131565b60405180910390fd5b600073ffffffffffffffffffffffffffffffffffffffff168273ffffffffffffffffffffffffffffffffffffffff161415611a0a576040517f08c379a0000000000000000000000000000000000000000000000000000000008152600401611a0190613011565b60405180910390fd5b611a15838383611ebb565b611a2060008261178d565b6001600360008573ffffffffffffffffffffffffffffffffffffffff1673ffffffffffffffffffffffffffffffffffffffff1681526020019081526020016000206000828254611a7091906133aa565b925050819055506001600360008473ffffffffffffffffffffffffffffffffffffffff1673ffffffffffffffffffffffffffffffffffffffff1681526020019081526020016000206000828254611ac79190613323565b92505081905550816002600083815260200190815260200160002060006101000a81548173ffffffffffffffffffffffffffffffffffffffff021916908373ffffffffffffffffffffffffffffffffffffffff160217905550808273ffffffffffffffffffffffffffffffffffffffff168473ffffffffffffffffffffffffffffffffffffffff167fddf252ad1be2c89b69c2b068fc378daa952ba7f163c4a11628f55a4df523b3ef60405160405180910390a4505050565b611b8b848484611924565b611b9784848484611ec0565b611bd6576040517f08c379a0000000000000000000000000000000000000000000000000000000008152600401611bcd90612fd1565b60405180910390fd5b50505050565b606060405180602001604052806000815250905090565b6060611bfe82611719565b611c3d576040517f08c379a0000000000000000000000000000000000000000000000000000000008152600401611c3490613151565b60405180910390fd5b6000611c47611bdc565b90506000815111611c675760405180602001604052806000815250611c92565b80611c7184612057565b604051602001611c82929190612ea2565b6040516020818303038152906040525b915050919050565b611ca381612204565b6000600660008381526020019081526020016000208054611cc3906134a4565b905014611cea57600660008281526020019081526020016000206000611ce99190612328565b5b50565b600073ffffffffffffffffffffffffffffffffffffffff168273ffffffffffffffffffffffffffffffffffffffff161415611d5d576040517f08c379a0000000000000000000000000000000000000000000000000000000008152600401611d54906130d1565b60405180910390fd5b611d6681611719565b15611da6576040517f08c379a0000000000000000000000000000000000000000000000000000000008152600401611d9d90612ff1565b60405180910390fd5b611db260008383611ebb565b6001600360008473ffffffffffffffffffffffffffffffffffffffff1673ffffffffffffffffffffffffffffffffffffffff1681526020019081526020016000206000828254611e029190613323565b92505081905550816002600083815260200190815260200160002060006101000a81548173ffffffffffffffffffffffffffffffffffffffff021916908373ffffffffffffffffffffffffffffffffffffffff160217905550808273ffffffffffffffffffffffffffffffffffffffff16600073ffffffffffffffffffffffffffffffffffffffff167fddf252ad1be2c89b69c2b068fc378daa952ba7f163c4a11628f55a4df523b3ef60405160405180910390a45050565b505050565b6000611ee18473ffffffffffffffffffffffffffffffffffffffff16612315565b1561204a578373ffffffffffffffffffffffffffffffffffffffff1663150b7a02611f0a611785565b8786866040518563ffffffff1660e01b8152600401611f2c9493929190612f1f565b602060405180830381600087803b158015611f4657600080fd5b505af1925050508015611f7757506040513d601f19601f82011682018060405250810190611f749190612729565b60015b611ffa573d8060008114611fa7576040519150601f19603f3d011682016040523d82523d6000602084013e611fac565b606091505b50600081511415611ff2576040517f08c379a0000000000000000000000000000000000000000000000000000000008152600401611fe990612fd1565b60405180910390fd5b805181602001fd5b63150b7a0260e01b7bffffffffffffffffffffffffffffffffffffffffffffffffffffffff1916817bffffffffffffffffffffffffffffffffffffffffffffffffffffffff19161491505061204f565b600190505b949350505050565b6060600082141561209f576040518060400160405280600181526020017f300000000000000000000000000000000000000000000000000000000000000081525090506121ff565b600082905060005b600082146120d15780806120ba906134d6565b915050600a826120ca9190613379565b91506120a7565b60008167ffffffffffffffff811115612113577f4e487b7100000000000000000000000000000000000000000000000000000000600052604160045260246000fd5b6040519080825280601f01601f1916602001820160405280156121455781602001600182028036833780820191505090505b5090505b600085146121f85760018261215e91906133aa565b9150600a8561216d919061354c565b60306121799190613323565b60f81b8183815181106121b5577f4e487b7100000000000000000000000000000000000000000000000000000000600052603260045260246000fd5b60200101907effffffffffffffffffffffffffffffffffffffffffffffffffffffffffffff1916908160001a905350600a856121f19190613379565b9450612149565b8093505050505b919050565b600061220f82610835565b905061221d81600084611ebb565b61222860008361178d565b6001600360008373ffffffffffffffffffffffffffffffffffffffff1673ffffffffffffffffffffffffffffffffffffffff168152602001908152602001600020600082825461227891906133aa565b925050819055506002600083815260200190815260200160002060006101000a81549073ffffffffffffffffffffffffffffffffffffffff021916905581600073ffffffffffffffffffffffffffffffffffffffff168273ffffffffffffffffffffffffffffffffffffffff167fddf252ad1be2c89b69c2b068fc378daa952ba7f163c4a11628f55a4df523b3ef60405160405180910390a45050565b600080823b905060008111915050919050565b508054612334906134a4565b6000825580601f106123465750612365565b601f01602090049060005260206000209081019061236491906123ee565b5b50565b828054612374906134a4565b90600052602060002090601f01602090048101928261239657600085556123dd565b82601f106123af57805160ff19168380011785556123dd565b828001600101855582156123dd579182015b828111156123dc5782518255916020019190600101906123c1565b5b5090506123ea91906123ee565b5090565b5b808211156124075760008160009055506001016123ef565b5090565b600061241e61241984613280565b61324f565b90508281526020810184848401111561243657600080fd5b612441848285613462565b509392505050565b600061245c612457846132b0565b61324f565b90508281526020810184848401111561247457600080fd5b61247f848285613462565b509392505050565b6000813590506124968161364a565b92915050565b6000813590506124ab81613661565b92915050565b6000813590506124c081613678565b92915050565b6000815190506124d581613678565b92915050565b600082601f8301126124ec57600080fd5b81356124fc84826020860161240b565b91505092915050565b600082601f83011261251657600080fd5b8135612526848260208601612449565b91505092915050565b60008135905061253e8161368f565b92915050565b600081359050612553816136a6565b92915050565b60006020828403121561256b57600080fd5b600061257984828501612487565b91505092915050565b6000806040838503121561259557600080fd5b60006125a385828601612487565b92505060206125b485828601612487565b9150509250929050565b6000806000606084860312156125d357600080fd5b60006125e186828701612487565b93505060206125f286828701612487565b92505060406126038682870161252f565b9150509250925092565b6000806000806080858703121561262357600080fd5b600061263187828801612487565b945050602061264287828801612487565b93505060406126538782880161252f565b925050606085013567ffffffffffffffff81111561267057600080fd5b61267c878288016124db565b91505092959194509250565b6000806040838503121561269b57600080fd5b60006126a985828601612487565b92505060206126ba8582860161249c565b9150509250929050565b600080604083850312156126d757600080fd5b60006126e585828601612487565b92505060206126f68582860161252f565b9150509250929050565b60006020828403121561271257600080fd5b6000612720848285016124b1565b91505092915050565b60006020828403121561273b57600080fd5b6000612749848285016124c6565b91505092915050565b60008060006060848603121561276757600080fd5b600084013567ffffffffffffffff81111561278157600080fd5b61278d86828701612505565b935050602084013567ffffffffffffffff8111156127aa57600080fd5b6127b686828701612505565b925050604084013567ffffffffffffffff8111156127d357600080fd5b6127df86828701612505565b9150509250925092565b6000602082840312156127fb57600080fd5b60006128098482850161252f565b91505092915050565b60006020828403121561282457600080fd5b600061283284828501612544565b91505092915050565b612844816133de565b82525050565b612853816133f0565b82525050565b6000612864826132e0565b61286e81856132f6565b935061287e818560208601613471565b61288781613639565b840191505092915050565b600061289d826132eb565b6128a78185613307565b93506128b7818560208601613471565b6128c081613639565b840191505092915050565b60006128d6826132eb565b6128e08185613318565b93506128f0818560208601613471565b80840191505092915050565b6000612909603283613307565b91507f4552433732313a207472616e7366657220746f206e6f6e20455243373231526560008301527f63656976657220696d706c656d656e74657200000000000000000000000000006020830152604082019050919050565b600061296f601c83613307565b91507f4552433732313a20746f6b656e20616c7265616479206d696e746564000000006000830152602082019050919050565b60006129af602483613307565b91507f4552433732313a207472616e7366657220746f20746865207a65726f2061646460008301527f72657373000000000000000000000000000000000000000000000000000000006020830152604082019050919050565b6000612a15601983613307565b91507f4552433732313a20617070726f766520746f2063616c6c6572000000000000006000830152602082019050919050565b6000612a55602c83613307565b91507f4552433732313a206f70657261746f7220717565727920666f72206e6f6e657860008301527f697374656e7420746f6b656e00000000000000000000000000000000000000006020830152604082019050919050565b6000612abb603883613307565b91507f4552433732313a20617070726f76652063616c6c6572206973206e6f74206f7760008301527f6e6572206e6f7220617070726f76656420666f7220616c6c00000000000000006020830152604082019050919050565b6000612b21602a83613307565b91507f4552433732313a2062616c616e636520717565727920666f7220746865207a6560008301527f726f2061646472657373000000000000000000000000000000000000000000006020830152604082019050919050565b6000612b87602983613307565b91507f4552433732313a206f776e657220717565727920666f72206e6f6e657869737460008301527f656e7420746f6b656e00000000000000000000000000000000000000000000006020830152604082019050919050565b6000612bed602083613307565b91507f4552433732313a206d696e7420746f20746865207a65726f20616464726573736000830152602082019050919050565b6000612c2d603183613307565b91507f45524337323155524953746f726167653a2055524920717565727920666f722060008301527f6e6f6e6578697374656e7420746f6b656e0000000000000000000000000000006020830152604082019050919050565b6000612c93602c83613307565b91507f4552433732313a20617070726f76656420717565727920666f72206e6f6e657860008301527f697374656e7420746f6b656e00000000000000000000000000000000000000006020830152604082019050919050565b6000612cf9602983613307565b91507f4552433732313a207472616e73666572206f6620746f6b656e2074686174206960008301527f73206e6f74206f776e00000000000000000000000000000000000000000000006020830152604082019050919050565b6000612d5f602f83613307565b91507f4552433732314d657461646174613a2055524920717565727920666f72206e6f60008301527f6e6578697374656e7420746f6b656e00000000000000000000000000000000006020830152604082019050919050565b6000612dc5602183613307565b91507f4552433732313a20617070726f76616c20746f2063757272656e74206f776e6560008301527f72000000000000000000000000000000000000000000000000000000000000006020830152604082019050919050565b6000612e2b603183613307565b91507f4552433732313a207472616e736665722063616c6c6572206973206e6f74206f60008301527f776e6572206e6f7220617070726f7665640000000000000000000000000000006020830152604082019050919050565b612e8d81613448565b82525050565b612e9c81613452565b82525050565b6000612eae82856128cb565b9150612eba82846128cb565b91508190509392505050565b6000602082019050612edb600083018461283b565b92915050565b6000606082019050612ef6600083018661283b565b612f03602083018561283b565b8181036040830152612f158184612892565b9050949350505050565b6000608082019050612f34600083018761283b565b612f41602083018661283b565b612f4e6040830185612e84565b8181036060830152612f608184612859565b905095945050505050565b6000604082019050612f80600083018561283b565b612f8d6020830184612e93565b9392505050565b6000602082019050612fa9600083018461284a565b92915050565b60006020820190508181036000830152612fc98184612892565b905092915050565b60006020820190508181036000830152612fea816128fc565b9050919050565b6000602082019050818103600083015261300a81612962565b9050919050565b6000602082019050818103600083015261302a816129a2565b9050919050565b6000602082019050818103600083015261304a81612a08565b9050919050565b6000602082019050818103600083015261306a81612a48565b9050919050565b6000602082019050818103600083015261308a81612aae565b9050919050565b600060208201905081810360008301526130aa81612b14565b9050919050565b600060208201905081810360008301526130ca81612b7a565b9050919050565b600060208201905081810360008301526130ea81612be0565b9050919050565b6000602082019050818103600083015261310a81612c20565b9050919050565b6000602082019050818103600083015261312a81612c86565b9050919050565b6000602082019050818103600083015261314a81612cec565b9050919050565b6000602082019050818103600083015261316a81612d52565b9050919050565b6000602082019050818103600083015261318a81612db8565b9050919050565b600060208201905081810360008301526131aa81612e1e565b9050919050565b60006020820190506131c66000830184612e84565b92915050565b60006020820190506131e16000830184612e93565b92915050565b600060a0820190506131fc6000830188612e93565b6132096020830187612e84565b818103604083015261321b8186612892565b9050818103606083015261322f8185612892565b905081810360808301526132438184612892565b90509695505050505050565b6000604051905081810181811067ffffffffffffffff821117156132765761327561360a565b5b8060405250919050565b600067ffffffffffffffff82111561329b5761329a61360a565b5b601f19601f8301169050602081019050919050565b600067ffffffffffffffff8211156132cb576132ca61360a565b5b601f19601f8301169050602081019050919050565b600081519050919050565b600081519050919050565b600082825260208201905092915050565b600082825260208201905092915050565b600081905092915050565b600061332e82613448565b915061333983613448565b9250827fffffffffffffffffffffffffffffffffffffffffffffffffffffffffffffffff0382111561336e5761336d61357d565b5b828201905092915050565b600061338482613448565b915061338f83613448565b92508261339f5761339e6135ac565b5b828204905092915050565b60006133b582613448565b91506133c083613448565b9250828210156133d3576133d261357d565b5b828203905092915050565b60006133e982613428565b9050919050565b60008115159050919050565b60007fffffffff0000000000000000000000000000000000000000000000000000000082169050919050565b600073ffffffffffffffffffffffffffffffffffffffff82169050919050565b6000819050919050565b600063ffffffff82169050919050565b82818337600083830152505050565b60005b8381101561348f578082015181840152602081019050613474565b8381111561349e576000848401525b50505050565b600060028204905060018216806134bc57607f821691505b602082108114156134d0576134cf6135db565b5b50919050565b60006134e182613448565b91507fffffffffffffffffffffffffffffffffffffffffffffffffffffffffffffffff8214156135145761351361357d565b5b600182019050919050565b600061352a82613452565b915063ffffffff8214156135415761354061357d565b5b600182019050919050565b600061355782613448565b915061356283613448565b925082613572576135716135ac565b5b828206905092915050565b7f4e487b7100000000000000000000000000000000000000000000000000000000600052601160045260246000fd5b7f4e487b7100000000000000000000000000000000000000000000000000000000600052601260045260246000fd5b7f4e487b7100000000000000000000000000000000000000000000000000000000600052602260045260246000fd5b7f4e487b7100000000000000000000000000000000000000000000000000000000600052604160045260246000fd5b6000601f19601f8301169050919050565b613653816133de565b811461365e57600080fd5b50565b61366a816133f0565b811461367557600080fd5b50565b613681816133fc565b811461368c57600080fd5b50565b61369881613448565b81146136a357600080fd5b50565b6136af81613452565b81146136ba57600080fd5b5056fea2646970667358221220713998c7a5b3878ebdf6444378bb19d409c649e69b052b4021e6e1e64ec62e5d64736f6c63430008000033",
  "immutableReferences": {},
  "source": "// SPDX-License-Identifier: MIT\r\npragma solidity >=0.4.22 <0.9.0;\r\n\r\nimport \"@openzeppelin/contracts/token/ERC721/extensions/ERC721URIStorage.sol\";\r\n\r\ncontract DoBuyNFT is ERC721URIStorage {\r\n  address private owner;\r\n  /// @dev NFT Ids\r\n  uint32 public _tokenIds;\r\n\r\n  /// @dev NFT struct\r\n  struct NFTcard {\r\n    uint32 _Ids; // NFT serial number\r\n    uint256 timestamp; // Time Created\r\n    string name; // NFT names\r\n    string image_url; // IMAGE URL\r\n    string made_by; // Made By\r\n  }\r\n\r\n  //  \r\n  mapping (uint32 => NFTcard) public _DoBuylist;\r\n  mapping (uint32 => address) public _DoBuyToOwner;\r\n  event DoBuyCreated (address , uint32);\r\n\r\n  // /// @dev NFT Have\r\n  // struct Have {\r\n  //   string name; // product name\r\n  //   uint16 amount;\r\n  //   address user_wallet;    \r\n  // }\r\n\r\n  // // /// @dev NFT  \r\n  // // mapping (uint256 => address) DoBuyCounts;\r\n  // Have[] public haveitem;\r\n\r\n  /// @dev Trade Ids\r\n  uint32 public _tradeIds;\r\n\r\n  /// @dev Trade struct\r\n  struct tradeTrans {\r\n    address _from;\r\n    address _to;\r\n    string name;\r\n  }\r\n\r\n  // NFT \r\n  mapping (uint256 => tradeTrans) public _TradeTransaction;\r\n\r\n  constructor() ERC721(\"DoBuyNFT\", \"DBNFT\") {\r\n    owner = msg.sender;\r\n    _DoBuylist[_tokenIds] = NFTcard(_tokenIds, block.timestamp, \"DoBuy Start!\", \"DoBuy.png\", \"market\");\r\n    _DoBuyToOwner[_tokenIds] = msg.sender;\r\n    emit DoBuyCreated(msg.sender, _tokenIds);\r\n  }\r\n\r\n  /**\r\n   *  @dev NFT   NFT Token \r\n   *  @param _name NFT \r\n   *  @param _image_url NFT  \r\n   */\r\n  function mint(string memory _name, string memory _image_url, string memory _made_by) public {\r\n    _tokenIds++;\r\n    uint32 newItemId = _tokenIds;\r\n    _DoBuylist[newItemId] = NFTcard(newItemId, block.timestamp, _name, _image_url, _made_by);\r\n    _mint(msg.sender, newItemId);\r\n    _DoBuyToOwner[newItemId] = msg.sender;\r\n    emit DoBuyCreated(msg.sender, newItemId);\r\n  }\r\n\r\n  /**\r\n   *  @dev NFT  \r\n   *  @param _Id NFT _Ids\r\n   */\r\n  function transferNFT(uint32 _Id) external {\r\n    address temp = _DoBuyToOwner[_Id];\r\n    _tradeIds++;\r\n    _transfer(temp, msg.sender, _Id);\r\n    _DoBuyToOwner[_Id] = msg.sender;\r\n    _TradeTransaction[_tradeIds] = tradeTrans(temp, msg.sender, _DoBuylist[_Id].name);\r\n  }\r\n\r\n    //   /// @dev NFT \r\n    // /// 1.   NFT      (: )\r\n    // /// 2.      \r\n    // /// 3.    approve safeTransferFrom   (: )\r\n    // function buyNFTfromUser(uint newItemId) public {\r\n    //     //require(isPayed);\r\n    //     approve(msg.sender, newItemId);\r\n    //     safeTransferFrom(ownerOf(newItemId), msg.sender, newItemId);\r\n    // }\r\n\r\n\r\n  /// @dev delivery -    NFT \r\n  function burnNFT(uint32 _Id) external {\r\n    require(ownerOf(_Id) == msg.sender);    //  NFT burn .  burn  ...\r\n    _burn(_Id);   // NFT burn\r\n      \r\n    // 1 -  \r\n    delete _DoBuyToOwner[_Id];  //  NFT  (_DoBuyToOwner) \r\n    delete _DoBuylist[_Id];   //  NFT card  _DoBuylist   \r\n\r\n    // 2 -   \r\n    // _DoBuyToOwner[_Id] = address(0);    //  NFT  (_DoBuyToOwner) clear\r\n  }\r\n    \r\n\r\n  function _marketBuy(string memory _name, string memory _img_url, string memory _made_by) public {\r\n    mint(_name, _img_url, _made_by);\r\n    // for(uint256 i = 0; i < haveitem.length; i++) {\r\n    //   if(haveitem[i].user_wallet == msg.sender && keccak256(bytes( haveitem[i].name)) == keccak256(bytes(_name))){\r\n    //       haveitem[i].amount++;\r\n    //   }\r\n    // }\r\n    // haveitem.push(Have(_name, 1, msg.sender));\r\n  }\r\n}\r\n",
  "sourcePath": "C:/Users/redqo/Desktop/DoBuyShopProject/contracts/DoBuyNFT.sol",
  "compiler": {
    "name": "solc",
    "version": "0.8.0+commit.c7dfd78e.Emscripten.clang"
  },
  "schemaVersion": "3.4.1",
  "updatedAt": "2021-08-30T09:27:01.409Z",
  "networkType": "ethereum",
  "devdoc": {
    "kind": "dev",
    "methods": {
      "approve(address,uint256)": {
        "details": "See {IERC721-approve}."
      },
      "balanceOf(address)": {
        "details": "See {IERC721-balanceOf}."
      },
      "burnNFT(uint32)": {
        "details": "delivery -    NFT "
      },
      "getApproved(uint256)": {
        "details": "See {IERC721-getApproved}."
      },
      "isApprovedForAll(address,address)": {
        "details": "See {IERC721-isApprovedForAll}."
      },
      "mint(string,string,string)": {
        "details": "NFT   NFT Token ",
        "params": {
          "_image_url": "NFT  ",
          "_name": "NFT "
        }
      },
      "name()": {
        "details": "See {IERC721Metadata-name}."
      },
      "ownerOf(uint256)": {
        "details": "See {IERC721-ownerOf}."
      },
      "safeTransferFrom(address,address,uint256)": {
        "details": "See {IERC721-safeTransferFrom}."
      },
      "safeTransferFrom(address,address,uint256,bytes)": {
        "details": "See {IERC721-safeTransferFrom}."
      },
      "setApprovalForAll(address,bool)": {
        "details": "See {IERC721-setApprovalForAll}."
      },
      "supportsInterface(bytes4)": {
        "details": "See {IERC165-supportsInterface}."
      },
      "symbol()": {
        "details": "See {IERC721Metadata-symbol}."
      },
      "tokenURI(uint256)": {
        "details": "See {IERC721Metadata-tokenURI}."
      },
      "transferFrom(address,address,uint256)": {
        "details": "See {IERC721-transferFrom}."
      },
      "transferNFT(uint32)": {
        "details": "NFT  ",
        "params": {
          "_Id": "NFT _Ids"
        }
      }
    },
    "stateVariables": {
      "_tokenIds": {
        "details": "NFT Ids"
      },
      "_tradeIds": {
        "details": "Trade Ids"
      }
    },
    "version": 1
  },
  "userdoc": {
    "kind": "user",
    "methods": {},
    "version": 1
  }
}