{
  "contractName": "DoBuyToken",
  "abi": [
    {
      "inputs": [],
      "stateMutability": "nonpayable",
      "type": "constructor"
    },
    {
      "anonymous": false,
      "inputs": [
        {
          "indexed": true,
          "internalType": "address",
          "name": "owner",
          "type": "address"
        },
        {
          "indexed": true,
          "internalType": "address",
          "name": "spender",
          "type": "address"
        },
        {
          "indexed": false,
          "internalType": "uint256",
          "name": "value",
          "type": "uint256"
        }
      ],
      "name": "Approval",
      "type": "event"
    },
    {
      "anonymous": false,
      "inputs": [
        {
          "indexed": true,
          "internalType": "address",
          "name": "from",
          "type": "address"
        },
        {
          "indexed": true,
          "internalType": "address",
          "name": "to",
          "type": "address"
        },
        {
          "indexed": false,
          "internalType": "uint256",
          "name": "value",
          "type": "uint256"
        }
      ],
      "name": "Transfer",
      "type": "event"
    },
    {
      "inputs": [],
      "name": "INITIAL_SUPPLY",
      "outputs": [
        {
          "internalType": "uint256",
          "name": "",
          "type": "uint256"
        }
      ],
      "stateMutability": "view",
      "type": "function",
      "constant": true
    },
    {
      "inputs": [],
      "name": "_decimals",
      "outputs": [
        {
          "internalType": "uint8",
          "name": "",
          "type": "uint8"
        }
      ],
      "stateMutability": "view",
      "type": "function",
      "constant": true
    },
    {
      "inputs": [],
      "name": "_symbol",
      "outputs": [
        {
          "internalType": "string",
          "name": "",
          "type": "string"
        }
      ],
      "stateMutability": "view",
      "type": "function",
      "constant": true
    },
    {
      "inputs": [],
      "name": "_token",
      "outputs": [
        {
          "internalType": "string",
          "name": "",
          "type": "string"
        }
      ],
      "stateMutability": "view",
      "type": "function",
      "constant": true
    },
    {
      "inputs": [],
      "name": "_trackingIds",
      "outputs": [
        {
          "internalType": "uint256",
          "name": "_value",
          "type": "uint256"
        }
      ],
      "stateMutability": "view",
      "type": "function",
      "constant": true
    },
    {
      "inputs": [
        {
          "internalType": "address",
          "name": "owner",
          "type": "address"
        },
        {
          "internalType": "address",
          "name": "spender",
          "type": "address"
        }
      ],
      "name": "allowance",
      "outputs": [
        {
          "internalType": "uint256",
          "name": "",
          "type": "uint256"
        }
      ],
      "stateMutability": "view",
      "type": "function",
      "constant": true
    },
    {
      "inputs": [
        {
          "internalType": "address",
          "name": "spender",
          "type": "address"
        },
        {
          "internalType": "uint256",
          "name": "amount",
          "type": "uint256"
        }
      ],
      "name": "approve",
      "outputs": [
        {
          "internalType": "bool",
          "name": "",
          "type": "bool"
        }
      ],
      "stateMutability": "nonpayable",
      "type": "function"
    },
    {
      "inputs": [
        {
          "internalType": "address",
          "name": "account",
          "type": "address"
        }
      ],
      "name": "balanceOf",
      "outputs": [
        {
          "internalType": "uint256",
          "name": "",
          "type": "uint256"
        }
      ],
      "stateMutability": "view",
      "type": "function",
      "constant": true
    },
    {
      "inputs": [
        {
          "internalType": "uint256",
          "name": "",
          "type": "uint256"
        }
      ],
      "name": "billArray",
      "outputs": [
        {
          "internalType": "uint256",
          "name": "_Ids",
          "type": "uint256"
        },
        {
          "internalType": "uint16",
          "name": "amount",
          "type": "uint16"
        },
        {
          "internalType": "string",
          "name": "name",
          "type": "string"
        },
        {
          "internalType": "string",
          "name": "sender",
          "type": "string"
        },
        {
          "internalType": "string",
          "name": "receiver",
          "type": "string"
        }
      ],
      "stateMutability": "view",
      "type": "function",
      "constant": true
    },
    {
      "inputs": [],
      "name": "decimals",
      "outputs": [
        {
          "internalType": "uint8",
          "name": "",
          "type": "uint8"
        }
      ],
      "stateMutability": "view",
      "type": "function",
      "constant": true
    },
    {
      "inputs": [
        {
          "internalType": "address",
          "name": "spender",
          "type": "address"
        },
        {
          "internalType": "uint256",
          "name": "subtractedValue",
          "type": "uint256"
        }
      ],
      "name": "decreaseAllowance",
      "outputs": [
        {
          "internalType": "bool",
          "name": "",
          "type": "bool"
        }
      ],
      "stateMutability": "nonpayable",
      "type": "function"
    },
    {
      "inputs": [
        {
          "internalType": "address",
          "name": "spender",
          "type": "address"
        },
        {
          "internalType": "uint256",
          "name": "addedValue",
          "type": "uint256"
        }
      ],
      "name": "increaseAllowance",
      "outputs": [
        {
          "internalType": "bool",
          "name": "",
          "type": "bool"
        }
      ],
      "stateMutability": "nonpayable",
      "type": "function"
    },
    {
      "inputs": [
        {
          "internalType": "uint256",
          "name": "",
          "type": "uint256"
        }
      ],
      "name": "location",
      "outputs": [
        {
          "internalType": "string",
          "name": "",
          "type": "string"
        }
      ],
      "stateMutability": "view",
      "type": "function",
      "constant": true
    },
    {
      "inputs": [],
      "name": "name",
      "outputs": [
        {
          "internalType": "string",
          "name": "",
          "type": "string"
        }
      ],
      "stateMutability": "view",
      "type": "function",
      "constant": true
    },
    {
      "inputs": [],
      "name": "owners",
      "outputs": [
        {
          "internalType": "address",
          "name": "",
          "type": "address"
        }
      ],
      "stateMutability": "view",
      "type": "function",
      "constant": true
    },
    {
      "inputs": [],
      "name": "symbol",
      "outputs": [
        {
          "internalType": "string",
          "name": "",
          "type": "string"
        }
      ],
      "stateMutability": "view",
      "type": "function",
      "constant": true
    },
    {
      "inputs": [],
      "name": "totalSupply",
      "outputs": [
        {
          "internalType": "uint256",
          "name": "",
          "type": "uint256"
        }
      ],
      "stateMutability": "view",
      "type": "function",
      "constant": true
    },
    {
      "inputs": [
        {
          "internalType": "uint256",
          "name": "",
          "type": "uint256"
        },
        {
          "internalType": "uint256",
          "name": "",
          "type": "uint256"
        }
      ],
      "name": "trackingArray",
      "outputs": [
        {
          "internalType": "uint256",
          "name": "timestamp",
          "type": "uint256"
        },
        {
          "internalType": "string",
          "name": "location",
          "type": "string"
        },
        {
          "internalType": "string",
          "name": "status",
          "type": "string"
        }
      ],
      "stateMutability": "view",
      "type": "function",
      "constant": true
    },
    {
      "inputs": [
        {
          "internalType": "address",
          "name": "recipient",
          "type": "address"
        },
        {
          "internalType": "uint256",
          "name": "amount",
          "type": "uint256"
        }
      ],
      "name": "transfer",
      "outputs": [
        {
          "internalType": "bool",
          "name": "",
          "type": "bool"
        }
      ],
      "stateMutability": "nonpayable",
      "type": "function"
    },
    {
      "inputs": [
        {
          "internalType": "address",
          "name": "sender",
          "type": "address"
        },
        {
          "internalType": "address",
          "name": "recipient",
          "type": "address"
        },
        {
          "internalType": "uint256",
          "name": "amount",
          "type": "uint256"
        }
      ],
      "name": "transferFrom",
      "outputs": [
        {
          "internalType": "bool",
          "name": "",
          "type": "bool"
        }
      ],
      "stateMutability": "nonpayable",
      "type": "function"
    },
    {
      "inputs": [],
      "name": "user_wallet",
      "outputs": [
        {
          "internalType": "address",
          "name": "",
          "type": "address"
        }
      ],
      "stateMutability": "view",
      "type": "function",
      "constant": true
    },
    {
      "inputs": [
        {
          "internalType": "string",
          "name": "_name",
          "type": "string"
        },
        {
          "internalType": "string",
          "name": "_receiver",
          "type": "string"
        },
        {
          "internalType": "uint16",
          "name": "_amount",
          "type": "uint16"
        }
      ],
      "name": "deliveryStart",
      "outputs": [],
      "stateMutability": "nonpayable",
      "type": "function"
    },
    {
      "inputs": [
        {
          "internalType": "uint256",
          "name": "_Ids",
          "type": "uint256"
        },
        {
          "internalType": "string",
          "name": "_dest",
          "type": "string"
        }
      ],
      "name": "deliveryUpdate",
      "outputs": [],
      "stateMutability": "nonpayable",
      "type": "function"
    },
    {
      "inputs": [
        {
          "internalType": "uint256",
          "name": "_amounts",
          "type": "uint256"
        }
      ],
      "name": "getOwnerToken",
      "outputs": [
        {
          "internalType": "bool",
          "name": "",
          "type": "bool"
        }
      ],
      "stateMutability": "nonpayable",
      "type": "function"
    }
  ],
  "bytecode": "0x608060405233600660006101000a81548173ffffffffffffffffffffffffffffffffffffffff021916908373ffffffffffffffffffffffffffffffffffffffff16021790555060405180608001604052806040518060400160405280600581526020017f47696d706f00000000000000000000000000000000000000000000000000000081525081526020016040518060400160405280600781526020017f476f6e6a69616d0000000000000000000000000000000000000000000000000081525081526020016040518060400160405280600681526020017f496368656f6e000000000000000000000000000000000000000000000000000081525081526020016040518060400160405280600781526020017f4777616e676a750000000000000000000000000000000000000000000000000081525081525060089060046200014c92919062000433565b503480156200015a57600080fd5b506040518060400160405280600a81526020017f446f427579546f6b656e000000000000000000000000000000000000000000008152506040518060400160405280600381526020017f44425400000000000000000000000000000000000000000000000000000000008152508160039080519060200190620001df9291906200048d565b508060049080519060200190620001f89291906200048d565b50505033600560006101000a81548173ffffffffffffffffffffffffffffffffffffffff021916908373ffffffffffffffffffffffffffffffffffffffff160217905550620002a1600560009054906101000a900473ffffffffffffffffffffffffffffffffffffffff1662000273620002a760201b60201c565b60ff16600a62000284919062000706565b6305f5e10062000295919062000843565b620002b060201b60201c565b6200094f565b60006012905090565b600073ffffffffffffffffffffffffffffffffffffffff168273ffffffffffffffffffffffffffffffffffffffff16141562000323576040517f08c379a00000000000000000000000000000000000000000000000000000000081526004016200031a90620005fe565b60405180910390fd5b62000337600083836200042960201b60201c565b80600260008282546200034b91906200064e565b92505081905550806000808473ffffffffffffffffffffffffffffffffffffffff1673ffffffffffffffffffffffffffffffffffffffff1681526020019081526020016000206000828254620003a291906200064e565b925050819055508173ffffffffffffffffffffffffffffffffffffffff16600073ffffffffffffffffffffffffffffffffffffffff167fddf252ad1be2c89b69c2b068fc378daa952ba7f163c4a11628f55a4df523b3ef8360405162000409919062000620565b60405180910390a362000425600083836200042e60201b60201c565b5050565b505050565b505050565b82600481019282156200047a579160200282015b8281111562000479578251829080519060200190620004689291906200048d565b509160200191906001019062000447565b5b5090506200048991906200051e565b5090565b8280546200049b90620008ae565b90600052602060002090601f016020900481019282620004bf57600085556200050b565b82601f10620004da57805160ff19168380011785556200050b565b828001600101855582156200050b579182015b828111156200050a578251825591602001919060010190620004ed565b5b5090506200051a919062000546565b5090565b5b8082111562000542576000818162000538919062000565565b506001016200051f565b5090565b5b808211156200056157600081600090555060010162000547565b5090565b5080546200057390620008ae565b6000825580601f10620005875750620005a8565b601f016020900490600052602060002090810190620005a7919062000546565b5b50565b6000620005ba601f836200063d565b91507f45524332303a206d696e7420746f20746865207a65726f2061646472657373006000830152602082019050919050565b620005f881620008a4565b82525050565b600060208201905081810360008301526200061981620005ab565b9050919050565b6000602082019050620006376000830184620005ed565b92915050565b600082825260208201905092915050565b60006200065b82620008a4565b91506200066883620008a4565b9250827fffffffffffffffffffffffffffffffffffffffffffffffffffffffffffffffff03821115620006a0576200069f620008e4565b5b828201905092915050565b6000808291508390505b6001851115620006fd57808604811115620006d557620006d4620008e4565b5b6001851615620006e55780820291505b8081029050620006f58562000942565b9450620006b5565b94509492505050565b60006200071382620008a4565b91506200072083620008a4565b92506200074f7fffffffffffffffffffffffffffffffffffffffffffffffffffffffffffffffff848462000757565b905092915050565b6000826200076957600190506200083c565b816200077957600090506200083c565b81600181146200079257600281146200079d57620007d3565b60019150506200083c565b60ff841115620007b257620007b1620008e4565b5b8360020a915084821115620007cc57620007cb620008e4565b5b506200083c565b5060208310610133831016604e8410600b84101617156200080d5782820a905083811115620008075762000806620008e4565b5b6200083c565b6200081c8484846001620006ab565b92509050818404811115620008365762000835620008e4565b5b81810290505b9392505050565b60006200085082620008a4565b91506200085d83620008a4565b9250817fffffffffffffffffffffffffffffffffffffffffffffffffffffffffffffffff0483118215151615620008995762000898620008e4565b5b828202905092915050565b6000819050919050565b60006002820490506001821680620008c757607f821691505b60208210811415620008de57620008dd62000913565b5b50919050565b7f4e487b7100000000000000000000000000000000000000000000000000000000600052601160045260246000fd5b7f4e487b7100000000000000000000000000000000000000000000000000000000600052602260045260246000fd5b60008160011c9050919050565b612727806200095f6000396000f3fe608060405234801561001057600080fd5b50600436106101585760003560e01c806395d89b41116100c3578063c0efbd2a1161007c578063c0efbd2a14610421578063c39badfd1461043f578063c9990aa61461045b578063dbcfc4a01461048b578063dd62ed3e146104a7578063ecd0c0c3146104d757610158565b806395d89b4114610337578063a457c2d714610355578063a543a71714610385578063a9059cbb146103b5578063affe39c1146103e5578063b09f12661461040357610158565b8063313ce56711610115578063313ce5671461023557806332424aa31461025357806339509351146102715780636bb7abc4146102a157806370a08231146102d55780637639c1081461030557610158565b806306fdde031461015d578063095ea7b31461017b57806318160ddd146101ab57806323b872dd146101c95780632dd9cecd146101f95780632ff2e9dc14610217575b600080fd5b6101656104f5565b60405161017291906121ee565b60405180910390f35b61019560048036038101906101909190611cc4565b610587565b6040516101a291906121d3565b60405180910390f35b6101b36105a5565b6040516101c091906122f0565b60405180910390f35b6101e360048036038101906101de9190611c75565b6105af565b6040516101f091906121d3565b60405180910390f35b6102016106a7565b60405161020e91906122f0565b60405180910390f35b61021f6106b3565b60405161022c91906122f0565b60405180910390f35b61023d6106bb565b60405161024a91906123b8565b60405180910390f35b61025b6106c4565b60405161026891906123b8565b60405180910390f35b61028b60048036038101906102869190611cc4565b6106c9565b60405161029891906121d3565b60405180910390f35b6102bb60048036038101906102b69190611d7f565b610775565b6040516102cc959493929190612350565b60405180910390f35b6102ef60048036038101906102ea9190611c10565b610951565b6040516102fc91906122f0565b60405180910390f35b61031f600480360381019061031a9190611dfc565b610999565b60405161032e9392919061230b565b60405180910390f35b61033f610af0565b60405161034c91906121ee565b60405180910390f35b61036f600480360381019061036a9190611cc4565b610b82565b60405161037c91906121d3565b60405180910390f35b61039f600480360381019061039a9190611d7f565b610c6d565b6040516103ac91906121d3565b60405180910390f35b6103cf60048036038101906103ca9190611cc4565b610cbf565b6040516103dc91906121d3565b60405180910390f35b6103ed610cdd565b6040516103fa91906121b8565b60405180910390f35b61040b610d03565b60405161041891906121ee565b60405180910390f35b610429610d3c565b60405161043691906121b8565b60405180910390f35b61045960048036038101906104549190611da8565b610d62565b005b61047560048036038101906104709190611d7f565b6112b6565b60405161048291906121ee565b60405180910390f35b6104a560048036038101906104a09190611d00565b611359565b005b6104c160048036038101906104bc9190611c39565b611584565b6040516104ce91906122f0565b60405180910390f35b6104df61160b565b6040516104ec91906121ee565b60405180910390f35b6060600380546105049061254b565b80601f01602080910402602001604051908101604052809291908181526020018280546105309061254b565b801561057d5780601f106105525761010080835404028352916020019161057d565b820191906000526020600020905b81548152906001019060200180831161056057829003601f168201915b5050505050905090565b600061059b610594611644565b848461164c565b6001905092915050565b6000600254905090565b60006105bc848484611817565b6000600160008673ffffffffffffffffffffffffffffffffffffffff1673ffffffffffffffffffffffffffffffffffffffff1681526020019081526020016000206000610607611644565b73ffffffffffffffffffffffffffffffffffffffff1673ffffffffffffffffffffffffffffffffffffffff16815260200190815260200160002054905082811015610687576040517f08c379a000000000000000000000000000000000000000000000000000000000815260040161067e90612270565b60405180910390fd5b61069b85610693611644565b85840361164c565b60019150509392505050565b60078060000154905081565b6305f5e10081565b60006012905090565b601281565b600061076b6106d6611644565b8484600160006106e4611644565b73ffffffffffffffffffffffffffffffffffffffff1673ffffffffffffffffffffffffffffffffffffffff16815260200190815260200160002060008873ffffffffffffffffffffffffffffffffffffffff1673ffffffffffffffffffffffffffffffffffffffff168152602001908152602001600020546107669190612450565b61164c565b6001905092915050565b600c6020528060005260406000206000915090508060000154908060010160009054906101000a900461ffff16908060020180546107b29061254b565b80601f01602080910402602001604051908101604052809291908181526020018280546107de9061254b565b801561082b5780601f106108005761010080835404028352916020019161082b565b820191906000526020600020905b81548152906001019060200180831161080e57829003601f168201915b5050505050908060030180546108409061254b565b80601f016020809104026020016040519081016040528092919081815260200182805461086c9061254b565b80156108b95780601f1061088e576101008083540402835291602001916108b9565b820191906000526020600020905b81548152906001019060200180831161089c57829003601f168201915b5050505050908060040180546108ce9061254b565b80601f01602080910402602001604051908101604052809291908181526020018280546108fa9061254b565b80156109475780601f1061091c57610100808354040283529160200191610947565b820191906000526020600020905b81548152906001019060200180831161092a57829003601f168201915b5050505050905085565b60008060008373ffffffffffffffffffffffffffffffffffffffff1673ffffffffffffffffffffffffffffffffffffffff168152602001908152602001600020549050919050565b600d60205281600052604060002081815481106109b557600080fd5b9060005260206000209060030201600091509150508060000154908060010180546109df9061254b565b80601f0160208091040260200160405190810160405280929190818152602001828054610a0b9061254b565b8015610a585780601f10610a2d57610100808354040283529160200191610a58565b820191906000526020600020905b815481529060010190602001808311610a3b57829003601f168201915b505050505090806002018054610a6d9061254b565b80601f0160208091040260200160405190810160405280929190818152602001828054610a999061254b565b8015610ae65780601f10610abb57610100808354040283529160200191610ae6565b820191906000526020600020905b815481529060010190602001808311610ac957829003601f168201915b5050505050905083565b606060048054610aff9061254b565b80601f0160208091040260200160405190810160405280929190818152602001828054610b2b9061254b565b8015610b785780601f10610b4d57610100808354040283529160200191610b78565b820191906000526020600020905b815481529060010190602001808311610b5b57829003601f168201915b5050505050905090565b60008060016000610b91611644565b73ffffffffffffffffffffffffffffffffffffffff1673ffffffffffffffffffffffffffffffffffffffff16815260200190815260200160002060008573ffffffffffffffffffffffffffffffffffffffff1673ffffffffffffffffffffffffffffffffffffffff16815260200190815260200160002054905082811015610c4e576040517f08c379a0000000000000000000000000000000000000000000000000000000008152600401610c45906122d0565b60405180910390fd5b610c62610c59611644565b8585840361164c565b600191505092915050565b600081610c7933610951565b10610cb557610cab33600560009054906101000a900473ffffffffffffffffffffffffffffffffffffffff16846105af565b5060019050610cba565b600090505b919050565b6000610cd3610ccc611644565b8484611817565b6001905092915050565b600560009054906101000a900473ffffffffffffffffffffffffffffffffffffffff1681565b6040518060400160405280600381526020017f444254000000000000000000000000000000000000000000000000000000000081525081565b600660009054906101000a900473ffffffffffffffffffffffffffffffffffffffff1681565b6000600d60008481526020019081526020016000208054905090506000600d60008581526020019081526020016000208281548110610dca577f4e487b7100000000000000000000000000000000000000000000000000000000600052603260045260246000fd5b9060005260206000209060030201600001549050600080600433604051602001610df4919061219d565b6040516020818303038152906040528051906020012060001c610e1791906125a1565b905042610e1084610e289190612450565b11158015610e425750611c2083610e3f9190612450565b42105b15610fe157600d6000878152602001908152602001600020604051806060016040528042815260200160088460048110610ea5577f4e487b7100000000000000000000000000000000000000000000000000000000600052603260045260246000fd5b018054610eb19061254b565b80601f0160208091040260200160405190810160405280929190818152602001828054610edd9061254b565b8015610f2a5780601f10610eff57610100808354040283529160200191610f2a565b820191906000526020600020905b815481529060010190602001808311610f0d57829003601f168201915b505050505081526020016040518060400160405280600a81526020017f44656c69766572696e67000000000000000000000000000000000000000000008152508152509080600181540180825580915050600190039060005260206000209060030201600090919091909150600082015181600001556020820151816001019080519060200190610fbc929190611ac6565b506040820151816002019080519060200190610fd9929190611ac6565b5050506112ae565b42611c2084610ff09190612450565b1115801561100a5750612a30836110079190612450565b42105b156111c157600d60008781526020019081526020016000206040518060600160405280428152602001600860046001866110449190612450565b61104e91906125a1565b60048110611085577f4e487b7100000000000000000000000000000000000000000000000000000000600052603260045260246000fd5b0180546110919061254b565b80601f01602080910402602001604051908101604052809291908181526020018280546110bd9061254b565b801561110a5780601f106110df5761010080835404028352916020019161110a565b820191906000526020600020905b8154815290600101906020018083116110ed57829003601f168201915b505050505081526020016040518060400160405280600a81526020017f44656c69766572696e6700000000000000000000000000000000000000000000815250815250908060018154018082558091505060019003906000526020600020906003020160009091909190915060008201518160000155602082015181600101908051906020019061119c929190611ac6565b5060408201518160020190805190602001906111b9929190611ac6565b5050506112ad565b42612a30846111d09190612450565b116112ac57600d600087815260200190815260200160002060405180606001604052804281526020018781526020016040518060400160405280601281526020017f44656c697665727920436f6d706c6574656400000000000000000000000000008152508152509080600181540180825580915050600190039060005260206000209060030201600090919091909150600082015181600001556020820151816001019080519060200190611287929190611ac6565b5060408201518160020190805190602001906112a4929190611ac6565b505050600191505b5b5b505050505050565b600881600481106112c657600080fd5b0160009150905080546112d89061254b565b80601f01602080910402602001604051908101604052809291908181526020018280546113049061254b565b80156113515780601f1061132657610100808354040283529160200191611351565b820191906000526020600020905b81548152906001019060200180831161133457829003601f168201915b505050505081565b6113636007611a98565b6040518060a001604052806113786007611aae565b81526020018261ffff1681526020018481526020016040518060400160405280600c81526020017f446f427579204d61726b65740000000000000000000000000000000000000000815250815260200183815250600c60006113da6007611aae565b81526020019081526020016000206000820151816000015560208201518160010160006101000a81548161ffff021916908361ffff1602179055506040820151816002019080519060200190611431929190611ac6565b50606082015181600301908051906020019061144e929190611ac6565b50608082015181600401908051906020019061146b929190611ac6565b50905050600d600061147d6007611aae565b815260200190815260200160002060405180606001604052804281526020016040518060400160405280601081526020017f6765756d626f6b206275696c64696e670000000000000000000000000000000081525081526020016040518060400160405280600e81526020017f53746172742044656c6976657279000000000000000000000000000000000000815250815250908060018154018082558091505060019003906000526020600020906003020160009091909190915060008201518160000155602082015181600101908051906020019061155f929190611ac6565b50604082015181600201908051906020019061157c929190611ac6565b505050505050565b6000600160008473ffffffffffffffffffffffffffffffffffffffff1673ffffffffffffffffffffffffffffffffffffffff16815260200190815260200160002060008373ffffffffffffffffffffffffffffffffffffffff1673ffffffffffffffffffffffffffffffffffffffff16815260200190815260200160002054905092915050565b6040518060400160405280600a81526020017f446f427579546f6b656e0000000000000000000000000000000000000000000081525081565b600033905090565b600073ffffffffffffffffffffffffffffffffffffffff168373ffffffffffffffffffffffffffffffffffffffff1614156116bc576040517f08c379a00000000000000000000000000000000000000000000000000000000081526004016116b3906122b0565b60405180910390fd5b600073ffffffffffffffffffffffffffffffffffffffff168273ffffffffffffffffffffffffffffffffffffffff16141561172c576040517f08c379a000000000000000000000000000000000000000000000000000000000815260040161172390612230565b60405180910390fd5b80600160008573ffffffffffffffffffffffffffffffffffffffff1673ffffffffffffffffffffffffffffffffffffffff16815260200190815260200160002060008473ffffffffffffffffffffffffffffffffffffffff1673ffffffffffffffffffffffffffffffffffffffff168152602001908152602001600020819055508173ffffffffffffffffffffffffffffffffffffffff168373ffffffffffffffffffffffffffffffffffffffff167f8c5be1e5ebec7d5bd14f71427d1e84f3dd0314c0f7b2291e5b200ac8c7c3b9258360405161180a91906122f0565b60405180910390a3505050565b600073ffffffffffffffffffffffffffffffffffffffff168373ffffffffffffffffffffffffffffffffffffffff161415611887576040517f08c379a000000000000000000000000000000000000000000000000000000000815260040161187e90612290565b60405180910390fd5b600073ffffffffffffffffffffffffffffffffffffffff168273ffffffffffffffffffffffffffffffffffffffff1614156118f7576040517f08c379a00000000000000000000000000000000000000000000000000000000081526004016118ee90612210565b60405180910390fd5b611902838383611abc565b60008060008573ffffffffffffffffffffffffffffffffffffffff1673ffffffffffffffffffffffffffffffffffffffff16815260200190815260200160002054905081811015611988576040517f08c379a000000000000000000000000000000000000000000000000000000000815260040161197f90612250565b60405180910390fd5b8181036000808673ffffffffffffffffffffffffffffffffffffffff1673ffffffffffffffffffffffffffffffffffffffff16815260200190815260200160002081905550816000808573ffffffffffffffffffffffffffffffffffffffff1673ffffffffffffffffffffffffffffffffffffffff1681526020019081526020016000206000828254611a1b9190612450565b925050819055508273ffffffffffffffffffffffffffffffffffffffff168473ffffffffffffffffffffffffffffffffffffffff167fddf252ad1be2c89b69c2b068fc378daa952ba7f163c4a11628f55a4df523b3ef84604051611a7f91906122f0565b60405180910390a3611a92848484611ac1565b50505050565b6001816000016000828254019250508190555050565b600081600001549050919050565b505050565b505050565b828054611ad29061254b565b90600052602060002090601f016020900481019282611af45760008555611b3b565b82601f10611b0d57805160ff1916838001178555611b3b565b82800160010185558215611b3b579182015b82811115611b3a578251825591602001919060010190611b1f565b5b509050611b489190611b4c565b5090565b5b80821115611b65576000816000905550600101611b4d565b5090565b6000611b7c611b7784612404565b6123d3565b905082815260208101848484011115611b9457600080fd5b611b9f848285612509565b509392505050565b600081359050611bb6816126ac565b92915050565b600082601f830112611bcd57600080fd5b8135611bdd848260208601611b69565b91505092915050565b600081359050611bf5816126c3565b92915050565b600081359050611c0a816126da565b92915050565b600060208284031215611c2257600080fd5b6000611c3084828501611ba7565b91505092915050565b60008060408385031215611c4c57600080fd5b6000611c5a85828601611ba7565b9250506020611c6b85828601611ba7565b9150509250929050565b600080600060608486031215611c8a57600080fd5b6000611c9886828701611ba7565b9350506020611ca986828701611ba7565b9250506040611cba86828701611bfb565b9150509250925092565b60008060408385031215611cd757600080fd5b6000611ce585828601611ba7565b9250506020611cf685828601611bfb565b9150509250929050565b600080600060608486031215611d1557600080fd5b600084013567ffffffffffffffff811115611d2f57600080fd5b611d3b86828701611bbc565b935050602084013567ffffffffffffffff811115611d5857600080fd5b611d6486828701611bbc565b9250506040611d7586828701611be6565b9150509250925092565b600060208284031215611d9157600080fd5b6000611d9f84828501611bfb565b91505092915050565b60008060408385031215611dbb57600080fd5b6000611dc985828601611bfb565b925050602083013567ffffffffffffffff811115611de657600080fd5b611df285828601611bbc565b9150509250929050565b60008060408385031215611e0f57600080fd5b6000611e1d85828601611bfb565b9250506020611e2e85828601611bfb565b9150509250929050565b611e41816124a6565b82525050565b611e58611e53826124a6565b61257d565b82525050565b611e67816124b8565b82525050565b6000611e7882612434565b611e82818561243f565b9350611e92818560208601612518565b611e9b8161268e565b840191505092915050565b6000611eb360238361243f565b91507f45524332303a207472616e7366657220746f20746865207a65726f206164647260008301527f65737300000000000000000000000000000000000000000000000000000000006020830152604082019050919050565b6000611f1960228361243f565b91507f45524332303a20617070726f766520746f20746865207a65726f20616464726560008301527f73730000000000000000000000000000000000000000000000000000000000006020830152604082019050919050565b6000611f7f60268361243f565b91507f45524332303a207472616e7366657220616d6f756e742065786365656473206260008301527f616c616e636500000000000000000000000000000000000000000000000000006020830152604082019050919050565b6000611fe560288361243f565b91507f45524332303a207472616e7366657220616d6f756e742065786365656473206160008301527f6c6c6f77616e63650000000000000000000000000000000000000000000000006020830152604082019050919050565b600061204b60258361243f565b91507f45524332303a207472616e736665722066726f6d20746865207a65726f20616460008301527f64726573730000000000000000000000000000000000000000000000000000006020830152604082019050919050565b60006120b160248361243f565b91507f45524332303a20617070726f76652066726f6d20746865207a65726f2061646460008301527f72657373000000000000000000000000000000000000000000000000000000006020830152604082019050919050565b600061211760258361243f565b91507f45524332303a2064656372656173656420616c6c6f77616e63652062656c6f7760008301527f207a65726f0000000000000000000000000000000000000000000000000000006020830152604082019050919050565b612179816124c4565b82525050565b612188816124f2565b82525050565b612197816124fc565b82525050565b60006121a98284611e47565b60148201915081905092915050565b60006020820190506121cd6000830184611e38565b92915050565b60006020820190506121e86000830184611e5e565b92915050565b600060208201905081810360008301526122088184611e6d565b905092915050565b6000602082019050818103600083015261222981611ea6565b9050919050565b6000602082019050818103600083015261224981611f0c565b9050919050565b6000602082019050818103600083015261226981611f72565b9050919050565b6000602082019050818103600083015261228981611fd8565b9050919050565b600060208201905081810360008301526122a98161203e565b9050919050565b600060208201905081810360008301526122c9816120a4565b9050919050565b600060208201905081810360008301526122e98161210a565b9050919050565b6000602082019050612305600083018461217f565b92915050565b6000606082019050612320600083018661217f565b81810360208301526123328185611e6d565b905081810360408301526123468184611e6d565b9050949350505050565b600060a082019050612365600083018861217f565b6123726020830187612170565b81810360408301526123848186611e6d565b905081810360608301526123988185611e6d565b905081810360808301526123ac8184611e6d565b90509695505050505050565b60006020820190506123cd600083018461218e565b92915050565b6000604051905081810181811067ffffffffffffffff821117156123fa576123f961265f565b5b8060405250919050565b600067ffffffffffffffff82111561241f5761241e61265f565b5b601f19601f8301169050602081019050919050565b600081519050919050565b600082825260208201905092915050565b600061245b826124f2565b9150612466836124f2565b9250827fffffffffffffffffffffffffffffffffffffffffffffffffffffffffffffffff0382111561249b5761249a6125d2565b5b828201905092915050565b60006124b1826124d2565b9050919050565b60008115159050919050565b600061ffff82169050919050565b600073ffffffffffffffffffffffffffffffffffffffff82169050919050565b6000819050919050565b600060ff82169050919050565b82818337600083830152505050565b60005b8381101561253657808201518184015260208101905061251b565b83811115612545576000848401525b50505050565b6000600282049050600182168061256357607f821691505b6020821081141561257757612576612630565b5b50919050565b60006125888261258f565b9050919050565b600061259a8261269f565b9050919050565b60006125ac826124f2565b91506125b7836124f2565b9250826125c7576125c6612601565b5b828206905092915050565b7f4e487b7100000000000000000000000000000000000000000000000000000000600052601160045260246000fd5b7f4e487b7100000000000000000000000000000000000000000000000000000000600052601260045260246000fd5b7f4e487b7100000000000000000000000000000000000000000000000000000000600052602260045260246000fd5b7f4e487b7100000000000000000000000000000000000000000000000000000000600052604160045260246000fd5b6000601f19601f8301169050919050565b60008160601b9050919050565b6126b5816124a6565b81146126c057600080fd5b50565b6126cc816124c4565b81146126d757600080fd5b50565b6126e3816124f2565b81146126ee57600080fd5b5056fea2646970667358221220065902de3eae94d0f8d7e6f16dcfc6829e6d11cf8faa93cb982d58635a2fc80864736f6c63430008000033",
  "immutableReferences": {},
  "source": "// SPDX-License-Identifier: MIT\r\npragma solidity >=0.4.22 <0.9.0;\r\n\r\nimport \"@openzeppelin/contracts/token/ERC20/ERC20.sol\";\r\nimport \"@openzeppelin/contracts/utils/Counters.sol\";\r\n\r\ncontract DoBuyToken is ERC20 {\r\n    using Counters for Counters.Counter;\r\n\r\n    address public owners;\r\n\r\n    /// @notice  \r\n    string public constant _token = \"DoBuyToken\";\r\n\r\n    /// @notice  \r\n    string public constant _symbol = \"DBT\";\r\n\r\n    /// @notice \r\n    uint8 public constant _decimals = 18;\r\n\r\n    /// @notice   \r\n    uint256 public constant INITIAL_SUPPLY = 100000000;\r\n    \r\n    /// @notice  \r\n    address public user_wallet = payable(msg.sender);\r\n\r\n    /// @notice \r\n    Counters.Counter public _trackingIds;\r\n\r\n    /// @dev  \r\n    struct deliveryBill {\r\n        uint256 _Ids;   //  - counter\r\n        uint16 amount;\r\n        string name;\r\n        string sender;\r\n        string receiver;\r\n    }\r\n\r\n    /// @dev   ( )\r\n    /// :  / : , , , Hub   / :  \r\n    struct deliveryTracking {\r\n        uint256 timestamp;\r\n        string location;    \r\n        string status;  // , , \r\n    }\r\n\r\n    // /// @dev   ( )\r\n    // deliveryTracking[] public trackinglist;\r\n\r\n    string[4] public location = [\"Gimpo\", \"Gonjiam\", \"Icheon\", \"Gwangju\"];\r\n\r\n    //  \r\n    mapping (uint256 => deliveryBill) public billArray;\r\n\r\n    //    : trackingId  . deliveryTracking     trackingArray value\r\n    mapping (uint256 => deliveryTracking[]) public trackingArray;\r\n\r\n    constructor() ERC20(\"DoBuyToken\", \"DBT\") {\r\n        owners = msg.sender;\r\n        _mint(owners, INITIAL_SUPPLY * 10 ** (uint(decimals())));\r\n    }\r\n    \r\n    /**\r\n    * @dev   .  ,  ,   .\r\n    * @param _name \r\n    * @param _receiver  \r\n    * @param _amount \r\n     */\r\n    function deliveryStart(string memory _name, string memory _receiver, uint16 _amount) public {\r\n        _trackingIds.increment();\r\n        billArray[_trackingIds.current()] = \r\n            deliveryBill(_trackingIds.current(), _amount, _name, \"DoBuy Market\", _receiver);\r\n        trackingArray[_trackingIds.current()].push(deliveryTracking(block.timestamp, \"geumbok building\", \"Start Delivery\"));\r\n    }\r\n    /**\r\n    * @dev   setInterval    .\r\n    *      setInterval    block.timestamp    \r\n    * @param _Ids (_trackingIds)\r\n    */\r\n    function deliveryUpdate(uint256 _Ids, string memory _dest) public {\r\n        //  trackinglist timestamp\r\n        uint256 listlength = trackingArray[_Ids].length;\r\n        uint256 lastTime = trackingArray[_Ids][listlength].timestamp;\r\n        bool completed = false;\r\n        uint256 userDeliveryNum = uint256(keccak256(abi.encodePacked(msg.sender))) % 4;\r\n        if (lastTime + 1 hours <= block.timestamp && block.timestamp < lastTime + 2 hours) {\r\n            trackingArray[_Ids].push(deliveryTracking(block.timestamp, location[userDeliveryNum], \"Delivering\"));\r\n        } else if (lastTime + 2 hours <= block.timestamp && block.timestamp < lastTime + 3 hours) {\r\n            trackingArray[_Ids].push(deliveryTracking(block.timestamp, location[(userDeliveryNum + 1) % 4], \"Delivering\"));\r\n        } else if (lastTime + 3 hours <= block.timestamp) {\r\n            trackingArray[_Ids].push(deliveryTracking(block.timestamp, _dest, \"Delivery Completed\"));\r\n            completed = true;\r\n        }\r\n    }\r\n\r\n    /**\r\n     * @dev MarketNFT DoBuyToken  \r\n     * @param _amounts   \r\n     * @return      \r\n     */\r\n    function getOwnerToken(uint256 _amounts) public returns(bool){\r\n        if(balanceOf(msg.sender) >= _amounts){\r\n            transferFrom(msg.sender, owners, _amounts);\r\n            return true;\r\n        } else {\r\n            return false;\r\n        }\r\n        \r\n    }\r\n}",
  "sourcePath": "C:/Users/redqo/Desktop/DoBuy_project/contracts/DoBuyToken.sol",
  "compiler": {
    "name": "solc",
    "version": "0.8.0+commit.c7dfd78e.Emscripten.clang"
  },
  "schemaVersion": "3.4.1",
  "updatedAt": "2021-08-21T02:52:57.083Z",
  "networkType": "ethereum",
  "devdoc": {
    "kind": "dev",
    "methods": {
      "allowance(address,address)": {
        "details": "See {IERC20-allowance}."
      },
      "approve(address,uint256)": {
        "details": "See {IERC20-approve}. Requirements: - `spender` cannot be the zero address."
      },
      "balanceOf(address)": {
        "details": "See {IERC20-balanceOf}."
      },
      "decimals()": {
        "details": "Returns the number of decimals used to get its user representation. For example, if `decimals` equals `2`, a balance of `505` tokens should be displayed to a user as `5.05` (`505 / 10 ** 2`). Tokens usually opt for a value of 18, imitating the relationship between Ether and Wei. This is the value {ERC20} uses, unless this function is overridden; NOTE: This information is only used for _display_ purposes: it in no way affects any of the arithmetic of the contract, including {IERC20-balanceOf} and {IERC20-transfer}."
      },
      "decreaseAllowance(address,uint256)": {
        "details": "Atomically decreases the allowance granted to `spender` by the caller. This is an alternative to {approve} that can be used as a mitigation for problems described in {IERC20-approve}. Emits an {Approval} event indicating the updated allowance. Requirements: - `spender` cannot be the zero address. - `spender` must have allowance for the caller of at least `subtractedValue`."
      },
      "deliveryStart(string,string,uint16)": {
        "details": "  .  ,  ,   .",
        "params": {
          "_amount": "",
          "_name": "",
          "_receiver": " "
        }
      },
      "deliveryUpdate(uint256,string)": {
        "details": "  setInterval    .      setInterval    block.timestamp    ",
        "params": {
          "_Ids": "(_trackingIds)"
        }
      },
      "getOwnerToken(uint256)": {
        "details": "MarketNFT DoBuyToken  ",
        "params": {
          "_amounts": "  "
        },
        "returns": {
          "_0": "     "
        }
      },
      "increaseAllowance(address,uint256)": {
        "details": "Atomically increases the allowance granted to `spender` by the caller. This is an alternative to {approve} that can be used as a mitigation for problems described in {IERC20-approve}. Emits an {Approval} event indicating the updated allowance. Requirements: - `spender` cannot be the zero address."
      },
      "name()": {
        "details": "Returns the name of the token."
      },
      "symbol()": {
        "details": "Returns the symbol of the token, usually a shorter version of the name."
      },
      "totalSupply()": {
        "details": "See {IERC20-totalSupply}."
      },
      "transfer(address,uint256)": {
        "details": "See {IERC20-transfer}. Requirements: - `recipient` cannot be the zero address. - the caller must have a balance of at least `amount`."
      },
      "transferFrom(address,address,uint256)": {
        "details": "See {IERC20-transferFrom}. Emits an {Approval} event indicating the updated allowance. This is not required by the EIP. See the note at the beginning of {ERC20}. Requirements: - `sender` and `recipient` cannot be the zero address. - `sender` must have a balance of at least `amount`. - the caller must have allowance for ``sender``'s tokens of at least `amount`."
      }
    },
    "version": 1
  },
  "userdoc": {
    "kind": "user",
    "methods": {
      "INITIAL_SUPPLY()": {
        "notice": "  "
      },
      "_decimals()": {
        "notice": ""
      },
      "_symbol()": {
        "notice": " "
      },
      "_token()": {
        "notice": " "
      },
      "_trackingIds()": {
        "notice": ""
      },
      "user_wallet()": {
        "notice": " "
      }
    },
    "version": 1
  }
}