{
  "contractName": "DoBuyToken",
  "abi": [
    {
      "inputs": [],
      "stateMutability": "nonpayable",
      "type": "constructor"
    },
    {
      "anonymous": false,
      "inputs": [
        {
          "indexed": true,
          "internalType": "address",
          "name": "owner",
          "type": "address"
        },
        {
          "indexed": true,
          "internalType": "address",
          "name": "spender",
          "type": "address"
        },
        {
          "indexed": false,
          "internalType": "uint256",
          "name": "value",
          "type": "uint256"
        }
      ],
      "name": "Approval",
      "type": "event"
    },
    {
      "anonymous": false,
      "inputs": [
        {
          "indexed": true,
          "internalType": "address",
          "name": "from",
          "type": "address"
        },
        {
          "indexed": true,
          "internalType": "address",
          "name": "to",
          "type": "address"
        },
        {
          "indexed": false,
          "internalType": "uint256",
          "name": "value",
          "type": "uint256"
        }
      ],
      "name": "Transfer",
      "type": "event"
    },
    {
      "inputs": [],
      "name": "INITIAL_SUPPLY",
      "outputs": [
        {
          "internalType": "uint256",
          "name": "",
          "type": "uint256"
        }
      ],
      "stateMutability": "view",
      "type": "function",
      "constant": true
    },
    {
      "inputs": [],
      "name": "_decimals",
      "outputs": [
        {
          "internalType": "uint8",
          "name": "",
          "type": "uint8"
        }
      ],
      "stateMutability": "view",
      "type": "function",
      "constant": true
    },
    {
      "inputs": [],
      "name": "_symbol",
      "outputs": [
        {
          "internalType": "string",
          "name": "",
          "type": "string"
        }
      ],
      "stateMutability": "view",
      "type": "function",
      "constant": true
    },
    {
      "inputs": [],
      "name": "_token",
      "outputs": [
        {
          "internalType": "string",
          "name": "",
          "type": "string"
        }
      ],
      "stateMutability": "view",
      "type": "function",
      "constant": true
    },
    {
      "inputs": [],
      "name": "_trackingIds",
      "outputs": [
        {
          "internalType": "uint256",
          "name": "_value",
          "type": "uint256"
        }
      ],
      "stateMutability": "view",
      "type": "function",
      "constant": true
    },
    {
      "inputs": [
        {
          "internalType": "address",
          "name": "owner",
          "type": "address"
        },
        {
          "internalType": "address",
          "name": "spender",
          "type": "address"
        }
      ],
      "name": "allowance",
      "outputs": [
        {
          "internalType": "uint256",
          "name": "",
          "type": "uint256"
        }
      ],
      "stateMutability": "view",
      "type": "function",
      "constant": true
    },
    {
      "inputs": [
        {
          "internalType": "address",
          "name": "spender",
          "type": "address"
        },
        {
          "internalType": "uint256",
          "name": "amount",
          "type": "uint256"
        }
      ],
      "name": "approve",
      "outputs": [
        {
          "internalType": "bool",
          "name": "",
          "type": "bool"
        }
      ],
      "stateMutability": "nonpayable",
      "type": "function"
    },
    {
      "inputs": [
        {
          "internalType": "address",
          "name": "account",
          "type": "address"
        }
      ],
      "name": "balanceOf",
      "outputs": [
        {
          "internalType": "uint256",
          "name": "",
          "type": "uint256"
        }
      ],
      "stateMutability": "view",
      "type": "function",
      "constant": true
    },
    {
      "inputs": [
        {
          "internalType": "uint256",
          "name": "",
          "type": "uint256"
        }
      ],
      "name": "billArray",
      "outputs": [
        {
          "internalType": "uint256",
          "name": "_Ids",
          "type": "uint256"
        },
        {
          "internalType": "uint16",
          "name": "amount",
          "type": "uint16"
        },
        {
          "internalType": "string",
          "name": "name",
          "type": "string"
        },
        {
          "internalType": "string",
          "name": "sender",
          "type": "string"
        },
        {
          "internalType": "string",
          "name": "receiver",
          "type": "string"
        }
      ],
      "stateMutability": "view",
      "type": "function",
      "constant": true
    },
    {
      "inputs": [],
      "name": "decimals",
      "outputs": [
        {
          "internalType": "uint8",
          "name": "",
          "type": "uint8"
        }
      ],
      "stateMutability": "view",
      "type": "function",
      "constant": true
    },
    {
      "inputs": [
        {
          "internalType": "address",
          "name": "spender",
          "type": "address"
        },
        {
          "internalType": "uint256",
          "name": "subtractedValue",
          "type": "uint256"
        }
      ],
      "name": "decreaseAllowance",
      "outputs": [
        {
          "internalType": "bool",
          "name": "",
          "type": "bool"
        }
      ],
      "stateMutability": "nonpayable",
      "type": "function"
    },
    {
      "inputs": [
        {
          "internalType": "address",
          "name": "spender",
          "type": "address"
        },
        {
          "internalType": "uint256",
          "name": "addedValue",
          "type": "uint256"
        }
      ],
      "name": "increaseAllowance",
      "outputs": [
        {
          "internalType": "bool",
          "name": "",
          "type": "bool"
        }
      ],
      "stateMutability": "nonpayable",
      "type": "function"
    },
    {
      "inputs": [
        {
          "internalType": "uint256",
          "name": "",
          "type": "uint256"
        }
      ],
      "name": "location",
      "outputs": [
        {
          "internalType": "string",
          "name": "",
          "type": "string"
        }
      ],
      "stateMutability": "view",
      "type": "function",
      "constant": true
    },
    {
      "inputs": [],
      "name": "name",
      "outputs": [
        {
          "internalType": "string",
          "name": "",
          "type": "string"
        }
      ],
      "stateMutability": "view",
      "type": "function",
      "constant": true
    },
    {
      "inputs": [],
      "name": "now_wallet",
      "outputs": [
        {
          "internalType": "address",
          "name": "",
          "type": "address"
        }
      ],
      "stateMutability": "view",
      "type": "function",
      "constant": true
    },
    {
      "inputs": [],
      "name": "owners",
      "outputs": [
        {
          "internalType": "address",
          "name": "",
          "type": "address"
        }
      ],
      "stateMutability": "view",
      "type": "function",
      "constant": true
    },
    {
      "inputs": [],
      "name": "symbol",
      "outputs": [
        {
          "internalType": "string",
          "name": "",
          "type": "string"
        }
      ],
      "stateMutability": "view",
      "type": "function",
      "constant": true
    },
    {
      "inputs": [],
      "name": "totalSupply",
      "outputs": [
        {
          "internalType": "uint256",
          "name": "",
          "type": "uint256"
        }
      ],
      "stateMutability": "view",
      "type": "function",
      "constant": true
    },
    {
      "inputs": [
        {
          "internalType": "uint256",
          "name": "",
          "type": "uint256"
        },
        {
          "internalType": "uint256",
          "name": "",
          "type": "uint256"
        }
      ],
      "name": "trackingArray",
      "outputs": [
        {
          "internalType": "uint256",
          "name": "timestamp",
          "type": "uint256"
        },
        {
          "internalType": "string",
          "name": "location",
          "type": "string"
        },
        {
          "internalType": "string",
          "name": "status",
          "type": "string"
        }
      ],
      "stateMutability": "view",
      "type": "function",
      "constant": true
    },
    {
      "inputs": [
        {
          "internalType": "address",
          "name": "recipient",
          "type": "address"
        },
        {
          "internalType": "uint256",
          "name": "amount",
          "type": "uint256"
        }
      ],
      "name": "transfer",
      "outputs": [
        {
          "internalType": "bool",
          "name": "",
          "type": "bool"
        }
      ],
      "stateMutability": "nonpayable",
      "type": "function"
    },
    {
      "inputs": [
        {
          "internalType": "address",
          "name": "sender",
          "type": "address"
        },
        {
          "internalType": "address",
          "name": "recipient",
          "type": "address"
        },
        {
          "internalType": "uint256",
          "name": "amount",
          "type": "uint256"
        }
      ],
      "name": "transferFrom",
      "outputs": [
        {
          "internalType": "bool",
          "name": "",
          "type": "bool"
        }
      ],
      "stateMutability": "nonpayable",
      "type": "function"
    },
    {
      "inputs": [],
      "name": "user_wallet",
      "outputs": [
        {
          "internalType": "address",
          "name": "",
          "type": "address"
        }
      ],
      "stateMutability": "view",
      "type": "function",
      "constant": true
    },
    {
      "inputs": [
        {
          "internalType": "string",
          "name": "_name",
          "type": "string"
        },
        {
          "internalType": "string",
          "name": "_receiver",
          "type": "string"
        },
        {
          "internalType": "uint16",
          "name": "_amount",
          "type": "uint16"
        }
      ],
      "name": "deliveryStart",
      "outputs": [],
      "stateMutability": "nonpayable",
      "type": "function"
    },
    {
      "inputs": [
        {
          "internalType": "uint256",
          "name": "_Ids",
          "type": "uint256"
        },
        {
          "internalType": "string",
          "name": "_dest",
          "type": "string"
        }
      ],
      "name": "deliveryUpdate",
      "outputs": [],
      "stateMutability": "nonpayable",
      "type": "function"
    },
    {
      "inputs": [
        {
          "internalType": "uint256",
          "name": "_amounts",
          "type": "uint256"
        }
      ],
      "name": "getOwnerToken",
      "outputs": [],
      "stateMutability": "payable",
      "type": "function",
      "payable": true
    }
  ],
  "bytecode": "0x608060405233600560006101000a81548173ffffffffffffffffffffffffffffffffffffffff021916908373ffffffffffffffffffffffffffffffffffffffff16021790555033600760006101000a81548173ffffffffffffffffffffffffffffffffffffffff021916908373ffffffffffffffffffffffffffffffffffffffff16021790555060405180608001604052806040518060400160405280600581526020017f47696d706f00000000000000000000000000000000000000000000000000000081525081526020016040518060400160405280600781526020017f476f6e6a69616d0000000000000000000000000000000000000000000000000081525081526020016040518060400160405280600681526020017f496368656f6e000000000000000000000000000000000000000000000000000081525081526020016040518060400160405280600781526020017f4777616e676a750000000000000000000000000000000000000000000000000081525081525060099060046200018d9291906200045a565b503480156200019b57600080fd5b506040518060400160405280600a81526020017f446f427579546f6b656e000000000000000000000000000000000000000000008152506040518060400160405280600381526020017f4442540000000000000000000000000000000000000000000000000000000000815250816003908051906020019062000220929190620004b4565b50806004908051906020019062000239929190620004b4565b50505033600660006101000a81548173ffffffffffffffffffffffffffffffffffffffff021916908373ffffffffffffffffffffffffffffffffffffffff160217905550620002d1600660009054906101000a900473ffffffffffffffffffffffffffffffffffffffff166012600a620002b491906200072d565b6305f5e100620002c591906200086a565b620002d760201b60201c565b62000983565b600073ffffffffffffffffffffffffffffffffffffffff168273ffffffffffffffffffffffffffffffffffffffff1614156200034a576040517f08c379a0000000000000000000000000000000000000000000000000000000008152600401620003419062000625565b60405180910390fd5b6200035e600083836200045060201b60201c565b806002600082825462000372919062000675565b92505081905550806000808473ffffffffffffffffffffffffffffffffffffffff1673ffffffffffffffffffffffffffffffffffffffff1681526020019081526020016000206000828254620003c9919062000675565b925050819055508173ffffffffffffffffffffffffffffffffffffffff16600073ffffffffffffffffffffffffffffffffffffffff167fddf252ad1be2c89b69c2b068fc378daa952ba7f163c4a11628f55a4df523b3ef8360405162000430919062000647565b60405180910390a36200044c600083836200045560201b60201c565b5050565b505050565b505050565b8260048101928215620004a1579160200282015b82811115620004a05782518290805190602001906200048f929190620004b4565b50916020019190600101906200046e565b5b509050620004b0919062000545565b5090565b828054620004c290620008e2565b90600052602060002090601f016020900481019282620004e6576000855562000532565b82601f106200050157805160ff191683800117855562000532565b8280016001018555821562000532579182015b828111156200053157825182559160200191906001019062000514565b5b5090506200054191906200056d565b5090565b5b808211156200056957600081816200055f91906200058c565b5060010162000546565b5090565b5b80821115620005885760008160009055506001016200056e565b5090565b5080546200059a90620008e2565b6000825580601f10620005ae5750620005cf565b601f016020900490600052602060002090810190620005ce91906200056d565b5b50565b6000620005e1601f8362000664565b91507f45524332303a206d696e7420746f20746865207a65726f2061646472657373006000830152602082019050919050565b6200061f81620008cb565b82525050565b600060208201905081810360008301526200064081620005d2565b9050919050565b60006020820190506200065e600083018462000614565b92915050565b600082825260208201905092915050565b60006200068282620008cb565b91506200068f83620008cb565b9250827fffffffffffffffffffffffffffffffffffffffffffffffffffffffffffffffff03821115620006c757620006c662000918565b5b828201905092915050565b6000808291508390505b60018511156200072457808604811115620006fc57620006fb62000918565b5b60018516156200070c5780820291505b80810290506200071c8562000976565b9450620006dc565b94509492505050565b60006200073a82620008cb565b91506200074783620008d5565b9250620007767fffffffffffffffffffffffffffffffffffffffffffffffffffffffffffffffff84846200077e565b905092915050565b60008262000790576001905062000863565b81620007a0576000905062000863565b8160018114620007b95760028114620007c457620007fa565b600191505062000863565b60ff841115620007d957620007d862000918565b5b8360020a915084821115620007f357620007f262000918565b5b5062000863565b5060208310610133831016604e8410600b8410161715620008345782820a9050838111156200082e576200082d62000918565b5b62000863565b620008438484846001620006d2565b925090508184048111156200085d576200085c62000918565b5b81810290505b9392505050565b60006200087782620008cb565b91506200088483620008cb565b9250817fffffffffffffffffffffffffffffffffffffffffffffffffffffffffffffffff0483118215151615620008c057620008bf62000918565b5b828202905092915050565b6000819050919050565b600060ff82169050919050565b60006002820490506001821680620008fb57607f821691505b6020821081141562000912576200091162000947565b5b50919050565b7f4e487b7100000000000000000000000000000000000000000000000000000000600052601160045260246000fd5b7f4e487b7100000000000000000000000000000000000000000000000000000000600052602260045260246000fd5b60008160011c9050919050565b612a8f80620009936000396000f3fe6080604052600436106101665760003560e01c806395d89b41116100d1578063c0efbd2a1161008a578063dbcfc4a011610064578063dbcfc4a014610589578063dd62ed3e146105b2578063ecd0c0c3146105ef578063ef2059af1461061a57610166565b8063c0efbd2a146104f8578063c39badfd14610523578063c9990aa61461054c57610166565b806395d89b41146103e1578063a457c2d71461040c578063a543a71714610449578063a9059cbb14610465578063affe39c1146104a2578063b09f1266146104cd57610166565b8063313ce56711610123578063313ce5671461029157806332424aa3146102bc57806339509351146102e75780636bb7abc41461032457806370a08231146103655780637639c108146103a257610166565b806306fdde031461016b578063095ea7b31461019657806318160ddd146101d357806323b872dd146101fe5780632dd9cecd1461023b5780632ff2e9dc14610266575b600080fd5b34801561017757600080fd5b50610180610645565b60405161018d919061237e565b60405180910390f35b3480156101a257600080fd5b506101bd60048036038101906101b89190611e54565b6106d7565b6040516101ca9190612363565b60405180910390f35b3480156101df57600080fd5b506101e86106f5565b6040516101f59190612480565b60405180910390f35b34801561020a57600080fd5b5061022560048036038101906102209190611e05565b6106ff565b6040516102329190612363565b60405180910390f35b34801561024757600080fd5b506102506107f7565b60405161025d9190612480565b60405180910390f35b34801561027257600080fd5b5061027b610803565b6040516102889190612480565b60405180910390f35b34801561029d57600080fd5b506102a661080b565b6040516102b39190612548565b60405180910390f35b3480156102c857600080fd5b506102d1610814565b6040516102de9190612548565b60405180910390f35b3480156102f357600080fd5b5061030e60048036038101906103099190611e54565b610819565b60405161031b9190612363565b60405180910390f35b34801561033057600080fd5b5061034b60048036038101906103469190611f0f565b6108c5565b60405161035c9594939291906124e0565b60405180910390f35b34801561037157600080fd5b5061038c60048036038101906103879190611da0565b610aa1565b6040516103999190612480565b60405180910390f35b3480156103ae57600080fd5b506103c960048036038101906103c49190611f8c565b610ae9565b6040516103d89392919061249b565b60405180910390f35b3480156103ed57600080fd5b506103f6610c40565b604051610403919061237e565b60405180910390f35b34801561041857600080fd5b50610433600480360381019061042e9190611e54565b610cd2565b6040516104409190612363565b60405180910390f35b610463600480360381019061045e9190611f0f565b610dbd565b005b34801561047157600080fd5b5061048c60048036038101906104879190611e54565b610e29565b6040516104999190612363565b60405180910390f35b3480156104ae57600080fd5b506104b7610e47565b6040516104c49190612348565b60405180910390f35b3480156104d957600080fd5b506104e2610e6d565b6040516104ef919061237e565b60405180910390f35b34801561050457600080fd5b5061050d610ea6565b60405161051a9190612348565b60405180910390f35b34801561052f57600080fd5b5061054a60048036038101906105459190611f38565b610ecc565b005b34801561055857600080fd5b50610573600480360381019061056e9190611f0f565b611420565b604051610580919061237e565b60405180910390f35b34801561059557600080fd5b506105b060048036038101906105ab9190611e90565b6114c3565b005b3480156105be57600080fd5b506105d960048036038101906105d49190611dc9565b6116ee565b6040516105e69190612480565b60405180910390f35b3480156105fb57600080fd5b50610604611775565b604051610611919061237e565b60405180910390f35b34801561062657600080fd5b5061062f6117ae565b60405161063c9190612348565b60405180910390f35b606060038054610654906128a6565b80601f0160208091040260200160405190810160405280929190818152602001828054610680906128a6565b80156106cd5780601f106106a2576101008083540402835291602001916106cd565b820191906000526020600020905b8154815290600101906020018083116106b057829003601f168201915b5050505050905090565b60006106eb6106e46117d4565b84846117dc565b6001905092915050565b6000600254905090565b600061070c8484846119a7565b6000600160008673ffffffffffffffffffffffffffffffffffffffff1673ffffffffffffffffffffffffffffffffffffffff16815260200190815260200160002060006107576117d4565b73ffffffffffffffffffffffffffffffffffffffff1673ffffffffffffffffffffffffffffffffffffffff168152602001908152602001600020549050828110156107d7576040517f08c379a00000000000000000000000000000000000000000000000000000000081526004016107ce90612400565b60405180910390fd5b6107eb856107e36117d4565b8584036117dc565b60019150509392505050565b60088060000154905081565b6305f5e10081565b60006012905090565b601281565b60006108bb6108266117d4565b8484600160006108346117d4565b73ffffffffffffffffffffffffffffffffffffffff1673ffffffffffffffffffffffffffffffffffffffff16815260200190815260200160002060008873ffffffffffffffffffffffffffffffffffffffff1673ffffffffffffffffffffffffffffffffffffffff168152602001908152602001600020546108b691906125e0565b6117dc565b6001905092915050565b600d6020528060005260406000206000915090508060000154908060010160009054906101000a900461ffff1690806002018054610902906128a6565b80601f016020809104026020016040519081016040528092919081815260200182805461092e906128a6565b801561097b5780601f106109505761010080835404028352916020019161097b565b820191906000526020600020905b81548152906001019060200180831161095e57829003601f168201915b505050505090806003018054610990906128a6565b80601f01602080910402602001604051908101604052809291908181526020018280546109bc906128a6565b8015610a095780601f106109de57610100808354040283529160200191610a09565b820191906000526020600020905b8154815290600101906020018083116109ec57829003601f168201915b505050505090806004018054610a1e906128a6565b80601f0160208091040260200160405190810160405280929190818152602001828054610a4a906128a6565b8015610a975780601f10610a6c57610100808354040283529160200191610a97565b820191906000526020600020905b815481529060010190602001808311610a7a57829003601f168201915b5050505050905085565b60008060008373ffffffffffffffffffffffffffffffffffffffff1673ffffffffffffffffffffffffffffffffffffffff168152602001908152602001600020549050919050565b600e6020528160005260406000208181548110610b0557600080fd5b906000526020600020906003020160009150915050806000015490806001018054610b2f906128a6565b80601f0160208091040260200160405190810160405280929190818152602001828054610b5b906128a6565b8015610ba85780601f10610b7d57610100808354040283529160200191610ba8565b820191906000526020600020905b815481529060010190602001808311610b8b57829003601f168201915b505050505090806002018054610bbd906128a6565b80601f0160208091040260200160405190810160405280929190818152602001828054610be9906128a6565b8015610c365780601f10610c0b57610100808354040283529160200191610c36565b820191906000526020600020905b815481529060010190602001808311610c1957829003601f168201915b5050505050905083565b606060048054610c4f906128a6565b80601f0160208091040260200160405190810160405280929190818152602001828054610c7b906128a6565b8015610cc85780601f10610c9d57610100808354040283529160200191610cc8565b820191906000526020600020905b815481529060010190602001808311610cab57829003601f168201915b5050505050905090565b60008060016000610ce16117d4565b73ffffffffffffffffffffffffffffffffffffffff1673ffffffffffffffffffffffffffffffffffffffff16815260200190815260200160002060008573ffffffffffffffffffffffffffffffffffffffff1673ffffffffffffffffffffffffffffffffffffffff16815260200190815260200160002054905082811015610d9e576040517f08c379a0000000000000000000000000000000000000000000000000000000008152600401610d9590612460565b60405180910390fd5b610db2610da96117d4565b858584036117dc565b600191505092915050565b6000610dc761080b565b60ff16600a610dd69190612689565b82610de191906127a7565b905080610ded33610aa1565b1015610df857600080fd5b610e24600660009054906101000a900473ffffffffffffffffffffffffffffffffffffffff1682610e29565b505050565b6000610e3d610e366117d4565b84846119a7565b6001905092915050565b600660009054906101000a900473ffffffffffffffffffffffffffffffffffffffff1681565b6040518060400160405280600381526020017f444254000000000000000000000000000000000000000000000000000000000081525081565b600760009054906101000a900473ffffffffffffffffffffffffffffffffffffffff1681565b6000600e60008481526020019081526020016000208054905090506000600e60008581526020019081526020016000208281548110610f34577f4e487b7100000000000000000000000000000000000000000000000000000000600052603260045260246000fd5b9060005260206000209060030201600001549050600080600433604051602001610f5e919061232d565b6040516020818303038152906040528051906020012060001c610f8191906128fc565b905042610e1084610f9291906125e0565b11158015610fac5750611c2083610fa991906125e0565b42105b1561114b57600e600087815260200190815260200160002060405180606001604052804281526020016009846004811061100f577f4e487b7100000000000000000000000000000000000000000000000000000000600052603260045260246000fd5b01805461101b906128a6565b80601f0160208091040260200160405190810160405280929190818152602001828054611047906128a6565b80156110945780601f1061106957610100808354040283529160200191611094565b820191906000526020600020905b81548152906001019060200180831161107757829003601f168201915b505050505081526020016040518060400160405280600a81526020017f44656c69766572696e67000000000000000000000000000000000000000000008152508152509080600181540180825580915050600190039060005260206000209060030201600090919091909150600082015181600001556020820151816001019080519060200190611126929190611c56565b506040820151816002019080519060200190611143929190611c56565b505050611418565b42611c208461115a91906125e0565b111580156111745750612a308361117191906125e0565b42105b1561132b57600e60008781526020019081526020016000206040518060600160405280428152602001600960046001866111ae91906125e0565b6111b891906128fc565b600481106111ef577f4e487b7100000000000000000000000000000000000000000000000000000000600052603260045260246000fd5b0180546111fb906128a6565b80601f0160208091040260200160405190810160405280929190818152602001828054611227906128a6565b80156112745780601f1061124957610100808354040283529160200191611274565b820191906000526020600020905b81548152906001019060200180831161125757829003601f168201915b505050505081526020016040518060400160405280600a81526020017f44656c69766572696e67000000000000000000000000000000000000000000008152508152509080600181540180825580915050600190039060005260206000209060030201600090919091909150600082015181600001556020820151816001019080519060200190611306929190611c56565b506040820151816002019080519060200190611323929190611c56565b505050611417565b42612a308461133a91906125e0565b1161141657600e600087815260200190815260200160002060405180606001604052804281526020018781526020016040518060400160405280601281526020017f44656c697665727920436f6d706c65746564000000000000000000000000000081525081525090806001815401808255809150506001900390600052602060002090600302016000909190919091506000820151816000015560208201518160010190805190602001906113f1929190611c56565b50604082015181600201908051906020019061140e929190611c56565b505050600191505b5b5b505050505050565b6009816004811061143057600080fd5b016000915090508054611442906128a6565b80601f016020809104026020016040519081016040528092919081815260200182805461146e906128a6565b80156114bb5780601f10611490576101008083540402835291602001916114bb565b820191906000526020600020905b81548152906001019060200180831161149e57829003601f168201915b505050505081565b6114cd6008611c28565b6040518060a001604052806114e26008611c3e565b81526020018261ffff1681526020018481526020016040518060400160405280600c81526020017f446f427579204d61726b65740000000000000000000000000000000000000000815250815260200183815250600d60006115446008611c3e565b81526020019081526020016000206000820151816000015560208201518160010160006101000a81548161ffff021916908361ffff160217905550604082015181600201908051906020019061159b929190611c56565b5060608201518160030190805190602001906115b8929190611c56565b5060808201518160040190805190602001906115d5929190611c56565b50905050600e60006115e76008611c3e565b815260200190815260200160002060405180606001604052804281526020016040518060400160405280601081526020017f6765756d626f6b206275696c64696e670000000000000000000000000000000081525081526020016040518060400160405280600e81526020017f53746172742044656c697665727900000000000000000000000000000000000081525081525090806001815401808255809150506001900390600052602060002090600302016000909190919091506000820151816000015560208201518160010190805190602001906116c9929190611c56565b5060408201518160020190805190602001906116e6929190611c56565b505050505050565b6000600160008473ffffffffffffffffffffffffffffffffffffffff1673ffffffffffffffffffffffffffffffffffffffff16815260200190815260200160002060008373ffffffffffffffffffffffffffffffffffffffff1673ffffffffffffffffffffffffffffffffffffffff16815260200190815260200160002054905092915050565b6040518060400160405280600a81526020017f446f427579546f6b656e0000000000000000000000000000000000000000000081525081565b600560009054906101000a900473ffffffffffffffffffffffffffffffffffffffff1681565b600033905090565b600073ffffffffffffffffffffffffffffffffffffffff168373ffffffffffffffffffffffffffffffffffffffff16141561184c576040517f08c379a000000000000000000000000000000000000000000000000000000000815260040161184390612440565b60405180910390fd5b600073ffffffffffffffffffffffffffffffffffffffff168273ffffffffffffffffffffffffffffffffffffffff1614156118bc576040517f08c379a00000000000000000000000000000000000000000000000000000000081526004016118b3906123c0565b60405180910390fd5b80600160008573ffffffffffffffffffffffffffffffffffffffff1673ffffffffffffffffffffffffffffffffffffffff16815260200190815260200160002060008473ffffffffffffffffffffffffffffffffffffffff1673ffffffffffffffffffffffffffffffffffffffff168152602001908152602001600020819055508173ffffffffffffffffffffffffffffffffffffffff168373ffffffffffffffffffffffffffffffffffffffff167f8c5be1e5ebec7d5bd14f71427d1e84f3dd0314c0f7b2291e5b200ac8c7c3b9258360405161199a9190612480565b60405180910390a3505050565b600073ffffffffffffffffffffffffffffffffffffffff168373ffffffffffffffffffffffffffffffffffffffff161415611a17576040517f08c379a0000000000000000000000000000000000000000000000000000000008152600401611a0e90612420565b60405180910390fd5b600073ffffffffffffffffffffffffffffffffffffffff168273ffffffffffffffffffffffffffffffffffffffff161415611a87576040517f08c379a0000000000000000000000000000000000000000000000000000000008152600401611a7e906123a0565b60405180910390fd5b611a92838383611c4c565b60008060008573ffffffffffffffffffffffffffffffffffffffff1673ffffffffffffffffffffffffffffffffffffffff16815260200190815260200160002054905081811015611b18576040517f08c379a0000000000000000000000000000000000000000000000000000000008152600401611b0f906123e0565b60405180910390fd5b8181036000808673ffffffffffffffffffffffffffffffffffffffff1673ffffffffffffffffffffffffffffffffffffffff16815260200190815260200160002081905550816000808573ffffffffffffffffffffffffffffffffffffffff1673ffffffffffffffffffffffffffffffffffffffff1681526020019081526020016000206000828254611bab91906125e0565b925050819055508273ffffffffffffffffffffffffffffffffffffffff168473ffffffffffffffffffffffffffffffffffffffff167fddf252ad1be2c89b69c2b068fc378daa952ba7f163c4a11628f55a4df523b3ef84604051611c0f9190612480565b60405180910390a3611c22848484611c51565b50505050565b6001816000016000828254019250508190555050565b600081600001549050919050565b505050565b505050565b828054611c62906128a6565b90600052602060002090601f016020900481019282611c845760008555611ccb565b82601f10611c9d57805160ff1916838001178555611ccb565b82800160010185558215611ccb579182015b82811115611cca578251825591602001919060010190611caf565b5b509050611cd89190611cdc565b5090565b5b80821115611cf5576000816000905550600101611cdd565b5090565b6000611d0c611d0784612594565b612563565b905082815260208101848484011115611d2457600080fd5b611d2f848285612864565b509392505050565b600081359050611d4681612a14565b92915050565b600082601f830112611d5d57600080fd5b8135611d6d848260208601611cf9565b91505092915050565b600081359050611d8581612a2b565b92915050565b600081359050611d9a81612a42565b92915050565b600060208284031215611db257600080fd5b6000611dc084828501611d37565b91505092915050565b60008060408385031215611ddc57600080fd5b6000611dea85828601611d37565b9250506020611dfb85828601611d37565b9150509250929050565b600080600060608486031215611e1a57600080fd5b6000611e2886828701611d37565b9350506020611e3986828701611d37565b9250506040611e4a86828701611d8b565b9150509250925092565b60008060408385031215611e6757600080fd5b6000611e7585828601611d37565b9250506020611e8685828601611d8b565b9150509250929050565b600080600060608486031215611ea557600080fd5b600084013567ffffffffffffffff811115611ebf57600080fd5b611ecb86828701611d4c565b935050602084013567ffffffffffffffff811115611ee857600080fd5b611ef486828701611d4c565b9250506040611f0586828701611d76565b9150509250925092565b600060208284031215611f2157600080fd5b6000611f2f84828501611d8b565b91505092915050565b60008060408385031215611f4b57600080fd5b6000611f5985828601611d8b565b925050602083013567ffffffffffffffff811115611f7657600080fd5b611f8285828601611d4c565b9150509250929050565b60008060408385031215611f9f57600080fd5b6000611fad85828601611d8b565b9250506020611fbe85828601611d8b565b9150509250929050565b611fd181612801565b82525050565b611fe8611fe382612801565b6128d8565b82525050565b611ff781612813565b82525050565b6000612008826125c4565b61201281856125cf565b9350612022818560208601612873565b61202b816129e9565b840191505092915050565b60006120436023836125cf565b91507f45524332303a207472616e7366657220746f20746865207a65726f206164647260008301527f65737300000000000000000000000000000000000000000000000000000000006020830152604082019050919050565b60006120a96022836125cf565b91507f45524332303a20617070726f766520746f20746865207a65726f20616464726560008301527f73730000000000000000000000000000000000000000000000000000000000006020830152604082019050919050565b600061210f6026836125cf565b91507f45524332303a207472616e7366657220616d6f756e742065786365656473206260008301527f616c616e636500000000000000000000000000000000000000000000000000006020830152604082019050919050565b60006121756028836125cf565b91507f45524332303a207472616e7366657220616d6f756e742065786365656473206160008301527f6c6c6f77616e63650000000000000000000000000000000000000000000000006020830152604082019050919050565b60006121db6025836125cf565b91507f45524332303a207472616e736665722066726f6d20746865207a65726f20616460008301527f64726573730000000000000000000000000000000000000000000000000000006020830152604082019050919050565b60006122416024836125cf565b91507f45524332303a20617070726f76652066726f6d20746865207a65726f2061646460008301527f72657373000000000000000000000000000000000000000000000000000000006020830152604082019050919050565b60006122a76025836125cf565b91507f45524332303a2064656372656173656420616c6c6f77616e63652062656c6f7760008301527f207a65726f0000000000000000000000000000000000000000000000000000006020830152604082019050919050565b6123098161281f565b82525050565b6123188161284d565b82525050565b61232781612857565b82525050565b60006123398284611fd7565b60148201915081905092915050565b600060208201905061235d6000830184611fc8565b92915050565b60006020820190506123786000830184611fee565b92915050565b600060208201905081810360008301526123988184611ffd565b905092915050565b600060208201905081810360008301526123b981612036565b9050919050565b600060208201905081810360008301526123d98161209c565b9050919050565b600060208201905081810360008301526123f981612102565b9050919050565b6000602082019050818103600083015261241981612168565b9050919050565b60006020820190508181036000830152612439816121ce565b9050919050565b6000602082019050818103600083015261245981612234565b9050919050565b600060208201905081810360008301526124798161229a565b9050919050565b6000602082019050612495600083018461230f565b92915050565b60006060820190506124b0600083018661230f565b81810360208301526124c28185611ffd565b905081810360408301526124d68184611ffd565b9050949350505050565b600060a0820190506124f5600083018861230f565b6125026020830187612300565b81810360408301526125148186611ffd565b905081810360608301526125288185611ffd565b9050818103608083015261253c8184611ffd565b90509695505050505050565b600060208201905061255d600083018461231e565b92915050565b6000604051905081810181811067ffffffffffffffff8211171561258a576125896129ba565b5b8060405250919050565b600067ffffffffffffffff8211156125af576125ae6129ba565b5b601f19601f8301169050602081019050919050565b600081519050919050565b600082825260208201905092915050565b60006125eb8261284d565b91506125f68361284d565b9250827fffffffffffffffffffffffffffffffffffffffffffffffffffffffffffffffff0382111561262b5761262a61292d565b5b828201905092915050565b6000808291508390505b60018511156126805780860481111561265c5761265b61292d565b5b600185161561266b5780820291505b808102905061267985612a07565b9450612640565b94509492505050565b60006126948261284d565b915061269f8361284d565b92506126cc7fffffffffffffffffffffffffffffffffffffffffffffffffffffffffffffffff84846126d4565b905092915050565b6000826126e457600190506127a0565b816126f257600090506127a0565b8160018114612708576002811461271257612741565b60019150506127a0565b60ff8411156127245761272361292d565b5b8360020a91508482111561273b5761273a61292d565b5b506127a0565b5060208310610133831016604e8410600b84101617156127765782820a9050838111156127715761277061292d565b5b6127a0565b6127838484846001612636565b9250905081840481111561279a5761279961292d565b5b81810290505b9392505050565b60006127b28261284d565b91506127bd8361284d565b9250817fffffffffffffffffffffffffffffffffffffffffffffffffffffffffffffffff04831182151516156127f6576127f561292d565b5b828202905092915050565b600061280c8261282d565b9050919050565b60008115159050919050565b600061ffff82169050919050565b600073ffffffffffffffffffffffffffffffffffffffff82169050919050565b6000819050919050565b600060ff82169050919050565b82818337600083830152505050565b60005b83811015612891578082015181840152602081019050612876565b838111156128a0576000848401525b50505050565b600060028204905060018216806128be57607f821691505b602082108114156128d2576128d161298b565b5b50919050565b60006128e3826128ea565b9050919050565b60006128f5826129fa565b9050919050565b60006129078261284d565b91506129128361284d565b9250826129225761292161295c565b5b828206905092915050565b7f4e487b7100000000000000000000000000000000000000000000000000000000600052601160045260246000fd5b7f4e487b7100000000000000000000000000000000000000000000000000000000600052601260045260246000fd5b7f4e487b7100000000000000000000000000000000000000000000000000000000600052602260045260246000fd5b7f4e487b7100000000000000000000000000000000000000000000000000000000600052604160045260246000fd5b6000601f19601f8301169050919050565b60008160601b9050919050565b60008160011c9050919050565b612a1d81612801565b8114612a2857600080fd5b50565b612a348161281f565b8114612a3f57600080fd5b50565b612a4b8161284d565b8114612a5657600080fd5b5056fea26469706673582212207791a2ca3083bd737522c1a63e195afda16948dd51230689d7e1d3be92879f8864736f6c63430008000033",
  "immutableReferences": {},
  "source": "// SPDX-License-Identifier: MIT\r\npragma solidity >=0.4.22 <0.9.0;\r\n\r\nimport \"@openzeppelin/contracts/token/ERC20/ERC20.sol\";\r\nimport \"@openzeppelin/contracts/utils/Counters.sol\";\r\n\r\ncontract DoBuyToken is ERC20 {\r\n    using Counters for Counters.Counter;\r\n\r\n    //   \r\n    address public now_wallet = payable(msg.sender);\r\n\r\n    address public owners;\r\n\r\n    /// @notice  \r\n    string public constant _token = \"DoBuyToken\";\r\n\r\n    /// @notice  \r\n    string public constant _symbol = \"DBT\";\r\n\r\n    /// @notice \r\n    uint8 public constant _decimals = 18;\r\n\r\n    /// @notice   \r\n    uint256 public constant INITIAL_SUPPLY = 100000000;\r\n    \r\n    /// @notice  \r\n    address public user_wallet = payable(msg.sender);\r\n\r\n    /// @notice \r\n    Counters.Counter public _trackingIds;\r\n\r\n    /// @dev  \r\n    struct deliveryBill {\r\n        uint256 _Ids;   //  - counter\r\n        uint16 amount;\r\n        string name;\r\n        string sender;\r\n        string receiver;\r\n    }\r\n\r\n    /// @dev   ( )\r\n    /// :  / : , , , Hub   / :  \r\n    struct deliveryTracking {\r\n        uint256 timestamp;\r\n        string location;    \r\n        string status;  // , , \r\n    }\r\n\r\n    // /// @dev   ( )\r\n    // deliveryTracking[] public trackinglist;\r\n\r\n    string[4] public location = [\"Gimpo\", \"Gonjiam\", \"Icheon\", \"Gwangju\"];\r\n\r\n    //  \r\n    mapping (uint256 => deliveryBill) public billArray;\r\n\r\n    //    : trackingId  . deliveryTracking     trackingArray value\r\n    mapping (uint256 => deliveryTracking[]) public trackingArray;\r\n\r\n    constructor() ERC20(\"DoBuyToken\", \"DBT\") {\r\n        owners = payable(msg.sender);\r\n        _mint(owners, INITIAL_SUPPLY * 10 ** _decimals);\r\n    }\r\n    \r\n    /**\r\n    * @dev   .  ,  ,   .\r\n    * @param _name \r\n    * @param _receiver  \r\n    * @param _amount \r\n     */\r\n    function deliveryStart(string memory _name, string memory _receiver, uint16 _amount) public {\r\n        _trackingIds.increment();\r\n        billArray[_trackingIds.current()] = \r\n            deliveryBill(_trackingIds.current(), _amount, _name, \"DoBuy Market\", _receiver);\r\n        trackingArray[_trackingIds.current()].push(deliveryTracking(block.timestamp, \"geumbok building\", \"Start Delivery\"));\r\n    }\r\n    /**\r\n    * @dev   setInterval    .\r\n    *      setInterval    block.timestamp    \r\n    * @param _Ids (_trackingIds)\r\n    */\r\n    function deliveryUpdate(uint256 _Ids, string memory _dest) public {\r\n        //  trackinglist timestamp\r\n        uint256 listlength = trackingArray[_Ids].length;\r\n        uint256 lastTime = trackingArray[_Ids][listlength].timestamp;\r\n        bool completed = false;\r\n        uint256 userDeliveryNum = uint256(keccak256(abi.encodePacked(msg.sender))) % 4;\r\n        if (lastTime + 1 hours <= block.timestamp && block.timestamp < lastTime + 2 hours) {\r\n            trackingArray[_Ids].push(deliveryTracking(block.timestamp, location[userDeliveryNum], \"Delivering\"));\r\n        } else if (lastTime + 2 hours <= block.timestamp && block.timestamp < lastTime + 3 hours) {\r\n            trackingArray[_Ids].push(deliveryTracking(block.timestamp, location[(userDeliveryNum + 1) % 4], \"Delivering\"));\r\n        } else if (lastTime + 3 hours <= block.timestamp) {\r\n            trackingArray[_Ids].push(deliveryTracking(block.timestamp, _dest, \"Delivery Completed\"));\r\n            completed = true;\r\n        }\r\n    }\r\n\r\n    /**\r\n     * @dev MarketNFT DoBuyToken  \r\n     * @param _amounts   \r\n     */\r\n    function getOwnerToken(uint256 _amounts) payable public {\r\n        uint256 prices = _amounts * 10 ** (uint(decimals()));\r\n        require(balanceOf(msg.sender) >= prices);\r\n        transfer(owners, prices);\r\n    }\r\n}",
  "sourcePath": "C:/Users/redqo/Desktop/DoBuy_project/contracts/DoBuyToken.sol",
  "compiler": {
    "name": "solc",
    "version": "0.8.0+commit.c7dfd78e.Emscripten.clang"
  },
  "schemaVersion": "3.4.1",
  "updatedAt": "2021-08-23T00:04:54.079Z",
  "networkType": "ethereum",
  "devdoc": {
    "kind": "dev",
    "methods": {
      "allowance(address,address)": {
        "details": "See {IERC20-allowance}."
      },
      "approve(address,uint256)": {
        "details": "See {IERC20-approve}. Requirements: - `spender` cannot be the zero address."
      },
      "balanceOf(address)": {
        "details": "See {IERC20-balanceOf}."
      },
      "decimals()": {
        "details": "Returns the number of decimals used to get its user representation. For example, if `decimals` equals `2`, a balance of `505` tokens should be displayed to a user as `5.05` (`505 / 10 ** 2`). Tokens usually opt for a value of 18, imitating the relationship between Ether and Wei. This is the value {ERC20} uses, unless this function is overridden; NOTE: This information is only used for _display_ purposes: it in no way affects any of the arithmetic of the contract, including {IERC20-balanceOf} and {IERC20-transfer}."
      },
      "decreaseAllowance(address,uint256)": {
        "details": "Atomically decreases the allowance granted to `spender` by the caller. This is an alternative to {approve} that can be used as a mitigation for problems described in {IERC20-approve}. Emits an {Approval} event indicating the updated allowance. Requirements: - `spender` cannot be the zero address. - `spender` must have allowance for the caller of at least `subtractedValue`."
      },
      "deliveryStart(string,string,uint16)": {
        "details": "  .  ,  ,   .",
        "params": {
          "_amount": "",
          "_name": "",
          "_receiver": " "
        }
      },
      "deliveryUpdate(uint256,string)": {
        "details": "  setInterval    .      setInterval    block.timestamp    ",
        "params": {
          "_Ids": "(_trackingIds)"
        }
      },
      "getOwnerToken(uint256)": {
        "details": "MarketNFT DoBuyToken  ",
        "params": {
          "_amounts": "  "
        }
      },
      "increaseAllowance(address,uint256)": {
        "details": "Atomically increases the allowance granted to `spender` by the caller. This is an alternative to {approve} that can be used as a mitigation for problems described in {IERC20-approve}. Emits an {Approval} event indicating the updated allowance. Requirements: - `spender` cannot be the zero address."
      },
      "name()": {
        "details": "Returns the name of the token."
      },
      "symbol()": {
        "details": "Returns the symbol of the token, usually a shorter version of the name."
      },
      "totalSupply()": {
        "details": "See {IERC20-totalSupply}."
      },
      "transfer(address,uint256)": {
        "details": "See {IERC20-transfer}. Requirements: - `recipient` cannot be the zero address. - the caller must have a balance of at least `amount`."
      },
      "transferFrom(address,address,uint256)": {
        "details": "See {IERC20-transferFrom}. Emits an {Approval} event indicating the updated allowance. This is not required by the EIP. See the note at the beginning of {ERC20}. Requirements: - `sender` and `recipient` cannot be the zero address. - `sender` must have a balance of at least `amount`. - the caller must have allowance for ``sender``'s tokens of at least `amount`."
      }
    },
    "version": 1
  },
  "userdoc": {
    "kind": "user",
    "methods": {
      "INITIAL_SUPPLY()": {
        "notice": "  "
      },
      "_decimals()": {
        "notice": ""
      },
      "_symbol()": {
        "notice": " "
      },
      "_token()": {
        "notice": " "
      },
      "_trackingIds()": {
        "notice": ""
      },
      "user_wallet()": {
        "notice": " "
      }
    },
    "version": 1
  }
}