{
  "contractName": "DoBuyNFT",
  "abi": [
    {
      "inputs": [],
      "stateMutability": "nonpayable",
      "type": "constructor"
    },
    {
      "anonymous": false,
      "inputs": [
        {
          "indexed": true,
          "internalType": "address",
          "name": "owner",
          "type": "address"
        },
        {
          "indexed": true,
          "internalType": "address",
          "name": "approved",
          "type": "address"
        },
        {
          "indexed": true,
          "internalType": "uint256",
          "name": "tokenId",
          "type": "uint256"
        }
      ],
      "name": "Approval",
      "type": "event"
    },
    {
      "anonymous": false,
      "inputs": [
        {
          "indexed": true,
          "internalType": "address",
          "name": "owner",
          "type": "address"
        },
        {
          "indexed": true,
          "internalType": "address",
          "name": "operator",
          "type": "address"
        },
        {
          "indexed": false,
          "internalType": "bool",
          "name": "approved",
          "type": "bool"
        }
      ],
      "name": "ApprovalForAll",
      "type": "event"
    },
    {
      "anonymous": false,
      "inputs": [
        {
          "indexed": false,
          "internalType": "address",
          "name": "",
          "type": "address"
        },
        {
          "indexed": false,
          "internalType": "uint32",
          "name": "",
          "type": "uint32"
        }
      ],
      "name": "DoBuyCreated",
      "type": "event"
    },
    {
      "anonymous": false,
      "inputs": [
        {
          "indexed": true,
          "internalType": "address",
          "name": "from",
          "type": "address"
        },
        {
          "indexed": true,
          "internalType": "address",
          "name": "to",
          "type": "address"
        },
        {
          "indexed": true,
          "internalType": "uint256",
          "name": "tokenId",
          "type": "uint256"
        }
      ],
      "name": "Transfer",
      "type": "event"
    },
    {
      "inputs": [
        {
          "internalType": "uint32",
          "name": "",
          "type": "uint32"
        }
      ],
      "name": "_DoBuyToOwner",
      "outputs": [
        {
          "internalType": "address",
          "name": "",
          "type": "address"
        }
      ],
      "stateMutability": "view",
      "type": "function",
      "constant": true
    },
    {
      "inputs": [
        {
          "internalType": "uint32",
          "name": "",
          "type": "uint32"
        }
      ],
      "name": "_DoBuylist",
      "outputs": [
        {
          "internalType": "uint32",
          "name": "_Ids",
          "type": "uint32"
        },
        {
          "internalType": "uint256",
          "name": "timestamp",
          "type": "uint256"
        },
        {
          "internalType": "string",
          "name": "name",
          "type": "string"
        },
        {
          "internalType": "string",
          "name": "image_url",
          "type": "string"
        }
      ],
      "stateMutability": "view",
      "type": "function",
      "constant": true
    },
    {
      "inputs": [
        {
          "internalType": "uint256",
          "name": "",
          "type": "uint256"
        }
      ],
      "name": "_TradeTransaction",
      "outputs": [
        {
          "internalType": "address",
          "name": "_from",
          "type": "address"
        },
        {
          "internalType": "address",
          "name": "_to",
          "type": "address"
        },
        {
          "internalType": "string",
          "name": "name",
          "type": "string"
        }
      ],
      "stateMutability": "view",
      "type": "function",
      "constant": true
    },
    {
      "inputs": [],
      "name": "_tokenIds",
      "outputs": [
        {
          "internalType": "uint32",
          "name": "",
          "type": "uint32"
        }
      ],
      "stateMutability": "view",
      "type": "function",
      "constant": true
    },
    {
      "inputs": [],
      "name": "_tradeIds",
      "outputs": [
        {
          "internalType": "uint32",
          "name": "",
          "type": "uint32"
        }
      ],
      "stateMutability": "view",
      "type": "function",
      "constant": true
    },
    {
      "inputs": [
        {
          "internalType": "address",
          "name": "to",
          "type": "address"
        },
        {
          "internalType": "uint256",
          "name": "tokenId",
          "type": "uint256"
        }
      ],
      "name": "approve",
      "outputs": [],
      "stateMutability": "nonpayable",
      "type": "function"
    },
    {
      "inputs": [
        {
          "internalType": "address",
          "name": "owner",
          "type": "address"
        }
      ],
      "name": "balanceOf",
      "outputs": [
        {
          "internalType": "uint256",
          "name": "",
          "type": "uint256"
        }
      ],
      "stateMutability": "view",
      "type": "function",
      "constant": true
    },
    {
      "inputs": [
        {
          "internalType": "uint256",
          "name": "tokenId",
          "type": "uint256"
        }
      ],
      "name": "getApproved",
      "outputs": [
        {
          "internalType": "address",
          "name": "",
          "type": "address"
        }
      ],
      "stateMutability": "view",
      "type": "function",
      "constant": true
    },
    {
      "inputs": [
        {
          "internalType": "uint256",
          "name": "",
          "type": "uint256"
        }
      ],
      "name": "haveitem",
      "outputs": [
        {
          "internalType": "string",
          "name": "name",
          "type": "string"
        },
        {
          "internalType": "uint16",
          "name": "amount",
          "type": "uint16"
        },
        {
          "internalType": "address",
          "name": "user_wallet",
          "type": "address"
        }
      ],
      "stateMutability": "view",
      "type": "function",
      "constant": true
    },
    {
      "inputs": [
        {
          "internalType": "address",
          "name": "owner",
          "type": "address"
        },
        {
          "internalType": "address",
          "name": "operator",
          "type": "address"
        }
      ],
      "name": "isApprovedForAll",
      "outputs": [
        {
          "internalType": "bool",
          "name": "",
          "type": "bool"
        }
      ],
      "stateMutability": "view",
      "type": "function",
      "constant": true
    },
    {
      "inputs": [],
      "name": "name",
      "outputs": [
        {
          "internalType": "string",
          "name": "",
          "type": "string"
        }
      ],
      "stateMutability": "view",
      "type": "function",
      "constant": true
    },
    {
      "inputs": [
        {
          "internalType": "uint256",
          "name": "tokenId",
          "type": "uint256"
        }
      ],
      "name": "ownerOf",
      "outputs": [
        {
          "internalType": "address",
          "name": "",
          "type": "address"
        }
      ],
      "stateMutability": "view",
      "type": "function",
      "constant": true
    },
    {
      "inputs": [
        {
          "internalType": "address",
          "name": "from",
          "type": "address"
        },
        {
          "internalType": "address",
          "name": "to",
          "type": "address"
        },
        {
          "internalType": "uint256",
          "name": "tokenId",
          "type": "uint256"
        }
      ],
      "name": "safeTransferFrom",
      "outputs": [],
      "stateMutability": "nonpayable",
      "type": "function"
    },
    {
      "inputs": [
        {
          "internalType": "address",
          "name": "from",
          "type": "address"
        },
        {
          "internalType": "address",
          "name": "to",
          "type": "address"
        },
        {
          "internalType": "uint256",
          "name": "tokenId",
          "type": "uint256"
        },
        {
          "internalType": "bytes",
          "name": "_data",
          "type": "bytes"
        }
      ],
      "name": "safeTransferFrom",
      "outputs": [],
      "stateMutability": "nonpayable",
      "type": "function"
    },
    {
      "inputs": [
        {
          "internalType": "address",
          "name": "operator",
          "type": "address"
        },
        {
          "internalType": "bool",
          "name": "approved",
          "type": "bool"
        }
      ],
      "name": "setApprovalForAll",
      "outputs": [],
      "stateMutability": "nonpayable",
      "type": "function"
    },
    {
      "inputs": [
        {
          "internalType": "bytes4",
          "name": "interfaceId",
          "type": "bytes4"
        }
      ],
      "name": "supportsInterface",
      "outputs": [
        {
          "internalType": "bool",
          "name": "",
          "type": "bool"
        }
      ],
      "stateMutability": "view",
      "type": "function",
      "constant": true
    },
    {
      "inputs": [],
      "name": "symbol",
      "outputs": [
        {
          "internalType": "string",
          "name": "",
          "type": "string"
        }
      ],
      "stateMutability": "view",
      "type": "function",
      "constant": true
    },
    {
      "inputs": [
        {
          "internalType": "uint256",
          "name": "tokenId",
          "type": "uint256"
        }
      ],
      "name": "tokenURI",
      "outputs": [
        {
          "internalType": "string",
          "name": "",
          "type": "string"
        }
      ],
      "stateMutability": "view",
      "type": "function",
      "constant": true
    },
    {
      "inputs": [
        {
          "internalType": "address",
          "name": "from",
          "type": "address"
        },
        {
          "internalType": "address",
          "name": "to",
          "type": "address"
        },
        {
          "internalType": "uint256",
          "name": "tokenId",
          "type": "uint256"
        }
      ],
      "name": "transferFrom",
      "outputs": [],
      "stateMutability": "nonpayable",
      "type": "function"
    },
    {
      "inputs": [
        {
          "internalType": "string",
          "name": "_name",
          "type": "string"
        },
        {
          "internalType": "string",
          "name": "_image_url",
          "type": "string"
        }
      ],
      "name": "mint",
      "outputs": [],
      "stateMutability": "nonpayable",
      "type": "function"
    },
    {
      "inputs": [
        {
          "internalType": "uint32",
          "name": "_Id",
          "type": "uint32"
        }
      ],
      "name": "transferNFT",
      "outputs": [],
      "stateMutability": "nonpayable",
      "type": "function"
    },
    {
      "inputs": [
        {
          "internalType": "uint32",
          "name": "_Id",
          "type": "uint32"
        }
      ],
      "name": "burnNFT",
      "outputs": [],
      "stateMutability": "nonpayable",
      "type": "function"
    }
  ],
  "bytecode": "0x60806040523480156200001157600080fd5b506040518060400160405280600881526020017f446f4275794e46540000000000000000000000000000000000000000000000008152506040518060400160405280600581526020017f44424e4654000000000000000000000000000000000000000000000000000000815250816000908051906020019062000096929190620002fc565b508060019080519060200190620000af929190620002fc565b50505033600760006101000a81548173ffffffffffffffffffffffffffffffffffffffff021916908373ffffffffffffffffffffffffffffffffffffffff1602179055506040518060800160405280600760149054906101000a900463ffffffff1663ffffffff1681526020014281526020016040518060400160405280600c81526020017f446f42757920537461727421000000000000000000000000000000000000000081525081526020016040518060400160405280600981526020017f446f4275792e706e67000000000000000000000000000000000000000000000081525081525060086000600760149054906101000a900463ffffffff1663ffffffff1663ffffffff16815260200190815260200160002060008201518160000160006101000a81548163ffffffff021916908363ffffffff16021790555060208201518160010155604082015181600201908051906020019062000216929190620002fc565b50606082015181600301908051906020019062000235929190620002fc565b509050503360096000600760149054906101000a900463ffffffff1663ffffffff1663ffffffff16815260200190815260200160002060006101000a81548173ffffffffffffffffffffffffffffffffffffffff021916908373ffffffffffffffffffffffffffffffffffffffff1602179055507fd3541a7229e521bbd5f9dab3a283435fe8e2ba7a6ae962cafce8cadbec96dcb033600760149054906101000a900463ffffffff16604051620002ee929190620003ce565b60405180910390a1620004a4565b8280546200030a906200043f565b90600052602060002090601f0160209004810192826200032e57600085556200037a565b82601f106200034957805160ff19168380011785556200037a565b828001600101855582156200037a579182015b82811115620003795782518255916020019190600101906200035c565b5b5090506200038991906200038d565b5090565b5b80821115620003a85760008160009055506001016200038e565b5090565b620003b781620003fb565b82525050565b620003c8816200042f565b82525050565b6000604082019050620003e56000830185620003ac565b620003f46020830184620003bd565b9392505050565b600062000408826200040f565b9050919050565b600073ffffffffffffffffffffffffffffffffffffffff82169050919050565b600063ffffffff82169050919050565b600060028204905060018216806200045857607f821691505b602082108114156200046f576200046e62000475565b5b50919050565b7f4e487b7100000000000000000000000000000000000000000000000000000000600052602260045260246000fd5b61374180620004b46000396000f3fe608060405234801561001057600080fd5b50600436106101425760003560e01c80638aa0fdad116100b8578063c87b56dd1161007c578063c87b56dd14610389578063cc86afbe146103b9578063e985e9c5146103d5578063eeea743714610405578063f108461214610437578063f25650f61461045357610142565b80638aa0fdad146102f957806395d89b4114610315578063a22cb46514610333578063aa46a4001461034f578063b88d4fde1461036d57610142565b80632fb21c281161010a5780632fb21c28146101fd57806342842e0e1461022d5780636352211e146102495780636eb75dad1461027957806370a08231146102975780637f4c8873146102c757610142565b806301ffc9a71461014757806306fdde0314610177578063081812fc14610195578063095ea7b3146101c557806323b872dd146101e1575b600080fd5b610161600480360381019061015c9190612733565b610486565b60405161016e9190612fab565b60405180910390f35b61017f610568565b60405161018c9190612fc6565b60405180910390f35b6101af60048036038101906101aa91906127f1565b6105fa565b6040516101bc9190612edd565b60405180910390f35b6101df60048036038101906101da91906126f7565b61067f565b005b6101fb60048036038101906101f691906125f1565b610797565b005b6102176004803603810190610212919061281a565b6107f7565b6040516102249190612edd565b60405180910390f35b610247600480360381019061024291906125f1565b61082a565b005b610263600480360381019061025e91906127f1565b61084a565b6040516102709190612edd565b60405180910390f35b6102816108fc565b60405161028e9190613221565b60405180910390f35b6102b160048036038101906102ac919061258c565b610912565b6040516102be9190613206565b60405180910390f35b6102e160048036038101906102dc91906127f1565b6109ca565b6040516102f093929190612fe8565b60405180910390f35b610313600480360381019061030e9190612785565b610aba565b005b61031d610c72565b60405161032a9190612fc6565b60405180910390f35b61034d600480360381019061034891906126bb565b610d04565b005b610357610e85565b6040516103649190613221565b60405180910390f35b61038760048036038101906103829190612640565b610e9b565b005b6103a3600480360381019061039e91906127f1565b610efd565b6040516103b09190612fc6565b60405180910390f35b6103d360048036038101906103ce919061281a565b61104f565b005b6103ef60048036038101906103ea91906125b5565b61114a565b6040516103fc9190612fab565b60405180910390f35b61041f600480360381019061041a91906127f1565b6111de565b60405161042e93929190612ef8565b60405180910390f35b610451600480360381019061044c919061281a565b6112d0565b005b61046d6004803603810190610468919061281a565b611592565b60405161047d949392919061323c565b60405180910390f35b60007f80ac58cd000000000000000000000000000000000000000000000000000000007bffffffffffffffffffffffffffffffffffffffffffffffffffffffff1916827bffffffffffffffffffffffffffffffffffffffffffffffffffffffff1916148061055157507f5b5e139f000000000000000000000000000000000000000000000000000000007bffffffffffffffffffffffffffffffffffffffffffffffffffffffff1916827bffffffffffffffffffffffffffffffffffffffffffffffffffffffff1916145b806105615750610560826116e2565b5b9050919050565b606060008054610577906134f2565b80601f01602080910402602001604051908101604052809291908181526020018280546105a3906134f2565b80156105f05780601f106105c5576101008083540402835291602001916105f0565b820191906000526020600020905b8154815290600101906020018083116105d357829003601f168201915b5050505050905090565b60006106058261174c565b610644576040517f08c379a000000000000000000000000000000000000000000000000000000000815260040161063b90613166565b60405180910390fd5b6004600083815260200190815260200160002060009054906101000a900473ffffffffffffffffffffffffffffffffffffffff169050919050565b600061068a8261084a565b90508073ffffffffffffffffffffffffffffffffffffffff168373ffffffffffffffffffffffffffffffffffffffff1614156106fb576040517f08c379a00000000000000000000000000000000000000000000000000000000081526004016106f2906131c6565b60405180910390fd5b8073ffffffffffffffffffffffffffffffffffffffff1661071a6117b8565b73ffffffffffffffffffffffffffffffffffffffff1614806107495750610748816107436117b8565b61114a565b5b610788576040517f08c379a000000000000000000000000000000000000000000000000000000000815260040161077f906130c6565b60405180910390fd5b61079283836117c0565b505050565b6107a86107a26117b8565b82611879565b6107e7576040517f08c379a00000000000000000000000000000000000000000000000000000000081526004016107de906131e6565b60405180910390fd5b6107f2838383611957565b505050565b60096020528060005260406000206000915054906101000a900473ffffffffffffffffffffffffffffffffffffffff1681565b61084583838360405180602001604052806000815250610e9b565b505050565b6000806002600084815260200190815260200160002060009054906101000a900473ffffffffffffffffffffffffffffffffffffffff169050600073ffffffffffffffffffffffffffffffffffffffff168173ffffffffffffffffffffffffffffffffffffffff1614156108f3576040517f08c379a00000000000000000000000000000000000000000000000000000000081526004016108ea90613106565b60405180910390fd5b80915050919050565b600b60009054906101000a900463ffffffff1681565b60008073ffffffffffffffffffffffffffffffffffffffff168273ffffffffffffffffffffffffffffffffffffffff161415610983576040517f08c379a000000000000000000000000000000000000000000000000000000000815260040161097a906130e6565b60405180910390fd5b600360008373ffffffffffffffffffffffffffffffffffffffff1673ffffffffffffffffffffffffffffffffffffffff168152602001908152602001600020549050919050565b600a81815481106109da57600080fd5b90600052602060002090600202016000915090508060000180546109fd906134f2565b80601f0160208091040260200160405190810160405280929190818152602001828054610a29906134f2565b8015610a765780601f10610a4b57610100808354040283529160200191610a76565b820191906000526020600020905b815481529060010190602001808311610a5957829003601f168201915b5050505050908060010160009054906101000a900461ffff16908060010160029054906101000a900473ffffffffffffffffffffffffffffffffffffffff16905083565b6007601481819054906101000a900463ffffffff1680929190610adc9061356d565b91906101000a81548163ffffffff021916908363ffffffff160217905550506000600760149054906101000a900463ffffffff16905060405180608001604052808263ffffffff16815260200142815260200184815260200183815250600860008363ffffffff1663ffffffff16815260200190815260200160002060008201518160000160006101000a81548163ffffffff021916908363ffffffff160217905550602082015181600101556040820151816002019080519060200190610ba592919061235b565b506060820151816003019080519060200190610bc292919061235b565b50905050610bd6338263ffffffff16611bb3565b33600960008363ffffffff1663ffffffff16815260200190815260200160002060006101000a81548173ffffffffffffffffffffffffffffffffffffffff021916908373ffffffffffffffffffffffffffffffffffffffff1602179055507fd3541a7229e521bbd5f9dab3a283435fe8e2ba7a6ae962cafce8cadbec96dcb03382604051610c65929190612f82565b60405180910390a1505050565b606060018054610c81906134f2565b80601f0160208091040260200160405190810160405280929190818152602001828054610cad906134f2565b8015610cfa5780601f10610ccf57610100808354040283529160200191610cfa565b820191906000526020600020905b815481529060010190602001808311610cdd57829003601f168201915b5050505050905090565b610d0c6117b8565b73ffffffffffffffffffffffffffffffffffffffff168273ffffffffffffffffffffffffffffffffffffffff161415610d7a576040517f08c379a0000000000000000000000000000000000000000000000000000000008152600401610d7190613086565b60405180910390fd5b8060056000610d876117b8565b73ffffffffffffffffffffffffffffffffffffffff1673ffffffffffffffffffffffffffffffffffffffff16815260200190815260200160002060008473ffffffffffffffffffffffffffffffffffffffff1673ffffffffffffffffffffffffffffffffffffffff16815260200190815260200160002060006101000a81548160ff0219169083151502179055508173ffffffffffffffffffffffffffffffffffffffff16610e346117b8565b73ffffffffffffffffffffffffffffffffffffffff167f17307eab39ab6107e8899845ad3d59bd9653f200f220920489ca2b5937696c3183604051610e799190612fab565b60405180910390a35050565b600760149054906101000a900463ffffffff1681565b610eac610ea66117b8565b83611879565b610eeb576040517f08c379a0000000000000000000000000000000000000000000000000000000008152600401610ee2906131e6565b60405180910390fd5b610ef784848484611d81565b50505050565b6060610f088261174c565b610f47576040517f08c379a0000000000000000000000000000000000000000000000000000000008152600401610f3e90613146565b60405180910390fd5b6000600660008481526020019081526020016000208054610f67906134f2565b80601f0160208091040260200160405190810160405280929190818152602001828054610f93906134f2565b8015610fe05780601f10610fb557610100808354040283529160200191610fe0565b820191906000526020600020905b815481529060010190602001808311610fc357829003601f168201915b505050505090506000610ff1611ddd565b905060008151141561100757819250505061104a565b60008251111561103c578082604051602001611024929190612eb9565b6040516020818303038152906040529250505061104a565b61104584611df4565b925050505b919050565b3373ffffffffffffffffffffffffffffffffffffffff166110758263ffffffff1661084a565b73ffffffffffffffffffffffffffffffffffffffff161461109557600080fd5b6110a48163ffffffff16611e9b565b600960008263ffffffff1663ffffffff16815260200190815260200160002060006101000a81549073ffffffffffffffffffffffffffffffffffffffff0219169055600860008263ffffffff1663ffffffff168152602001908152602001600020600080820160006101000a81549063ffffffff0219169055600182016000905560028201600061113591906123e1565b60038201600061114591906123e1565b505050565b6000600560008473ffffffffffffffffffffffffffffffffffffffff1673ffffffffffffffffffffffffffffffffffffffff16815260200190815260200160002060008373ffffffffffffffffffffffffffffffffffffffff1673ffffffffffffffffffffffffffffffffffffffff16815260200190815260200160002060009054906101000a900460ff16905092915050565b600c6020528060005260406000206000915090508060000160009054906101000a900473ffffffffffffffffffffffffffffffffffffffff16908060010160009054906101000a900473ffffffffffffffffffffffffffffffffffffffff169080600201805461124d906134f2565b80601f0160208091040260200160405190810160405280929190818152602001828054611279906134f2565b80156112c65780601f1061129b576101008083540402835291602001916112c6565b820191906000526020600020905b8154815290600101906020018083116112a957829003601f168201915b5050505050905083565b6000600960008363ffffffff1663ffffffff16815260200190815260200160002060009054906101000a900473ffffffffffffffffffffffffffffffffffffffff169050600b600081819054906101000a900463ffffffff16809291906113369061356d565b91906101000a81548163ffffffff021916908363ffffffff1602179055505061136681338463ffffffff16611957565b33600960008463ffffffff1663ffffffff16815260200190815260200160002060006101000a81548173ffffffffffffffffffffffffffffffffffffffff021916908373ffffffffffffffffffffffffffffffffffffffff16021790555060405180606001604052808273ffffffffffffffffffffffffffffffffffffffff1681526020013373ffffffffffffffffffffffffffffffffffffffff168152602001600860008563ffffffff1663ffffffff1681526020019081526020016000206002018054611434906134f2565b80601f0160208091040260200160405190810160405280929190818152602001828054611460906134f2565b80156114ad5780601f10611482576101008083540402835291602001916114ad565b820191906000526020600020905b81548152906001019060200180831161149057829003601f168201915b5050505050815250600c6000600b60009054906101000a900463ffffffff1663ffffffff16815260200190815260200160002060008201518160000160006101000a81548173ffffffffffffffffffffffffffffffffffffffff021916908373ffffffffffffffffffffffffffffffffffffffff16021790555060208201518160010160006101000a81548173ffffffffffffffffffffffffffffffffffffffff021916908373ffffffffffffffffffffffffffffffffffffffff160217905550604082015181600201908051906020019061158a92919061235b565b509050505050565b60086020528060005260406000206000915090508060000160009054906101000a900463ffffffff16908060010154908060020180546115d1906134f2565b80601f01602080910402602001604051908101604052809291908181526020018280546115fd906134f2565b801561164a5780601f1061161f5761010080835404028352916020019161164a565b820191906000526020600020905b81548152906001019060200180831161162d57829003601f168201915b50505050509080600301805461165f906134f2565b80601f016020809104026020016040519081016040528092919081815260200182805461168b906134f2565b80156116d85780601f106116ad576101008083540402835291602001916116d8565b820191906000526020600020905b8154815290600101906020018083116116bb57829003601f168201915b5050505050905084565b60007f01ffc9a7000000000000000000000000000000000000000000000000000000007bffffffffffffffffffffffffffffffffffffffffffffffffffffffff1916827bffffffffffffffffffffffffffffffffffffffffffffffffffffffff1916149050919050565b60008073ffffffffffffffffffffffffffffffffffffffff166002600084815260200190815260200160002060009054906101000a900473ffffffffffffffffffffffffffffffffffffffff1673ffffffffffffffffffffffffffffffffffffffff1614159050919050565b600033905090565b816004600083815260200190815260200160002060006101000a81548173ffffffffffffffffffffffffffffffffffffffff021916908373ffffffffffffffffffffffffffffffffffffffff160217905550808273ffffffffffffffffffffffffffffffffffffffff166118338361084a565b73ffffffffffffffffffffffffffffffffffffffff167f8c5be1e5ebec7d5bd14f71427d1e84f3dd0314c0f7b2291e5b200ac8c7c3b92560405160405180910390a45050565b60006118848261174c565b6118c3576040517f08c379a00000000000000000000000000000000000000000000000000000000081526004016118ba906130a6565b60405180910390fd5b60006118ce8361084a565b90508073ffffffffffffffffffffffffffffffffffffffff168473ffffffffffffffffffffffffffffffffffffffff16148061193d57508373ffffffffffffffffffffffffffffffffffffffff16611925846105fa565b73ffffffffffffffffffffffffffffffffffffffff16145b8061194e575061194d818561114a565b5b91505092915050565b8273ffffffffffffffffffffffffffffffffffffffff166119778261084a565b73ffffffffffffffffffffffffffffffffffffffff16146119cd576040517f08c379a00000000000000000000000000000000000000000000000000000000081526004016119c490613186565b60405180910390fd5b600073ffffffffffffffffffffffffffffffffffffffff168273ffffffffffffffffffffffffffffffffffffffff161415611a3d576040517f08c379a0000000000000000000000000000000000000000000000000000000008152600401611a3490613066565b60405180910390fd5b611a48838383611eee565b611a536000826117c0565b6001600360008573ffffffffffffffffffffffffffffffffffffffff1673ffffffffffffffffffffffffffffffffffffffff1681526020019081526020016000206000828254611aa391906133ea565b925050819055506001600360008473ffffffffffffffffffffffffffffffffffffffff1673ffffffffffffffffffffffffffffffffffffffff1681526020019081526020016000206000828254611afa9190613363565b92505081905550816002600083815260200190815260200160002060006101000a81548173ffffffffffffffffffffffffffffffffffffffff021916908373ffffffffffffffffffffffffffffffffffffffff160217905550808273ffffffffffffffffffffffffffffffffffffffff168473ffffffffffffffffffffffffffffffffffffffff167fddf252ad1be2c89b69c2b068fc378daa952ba7f163c4a11628f55a4df523b3ef60405160405180910390a4505050565b600073ffffffffffffffffffffffffffffffffffffffff168273ffffffffffffffffffffffffffffffffffffffff161415611c23576040517f08c379a0000000000000000000000000000000000000000000000000000000008152600401611c1a90613126565b60405180910390fd5b611c2c8161174c565b15611c6c576040517f08c379a0000000000000000000000000000000000000000000000000000000008152600401611c6390613046565b60405180910390fd5b611c7860008383611eee565b6001600360008473ffffffffffffffffffffffffffffffffffffffff1673ffffffffffffffffffffffffffffffffffffffff1681526020019081526020016000206000828254611cc89190613363565b92505081905550816002600083815260200190815260200160002060006101000a81548173ffffffffffffffffffffffffffffffffffffffff021916908373ffffffffffffffffffffffffffffffffffffffff160217905550808273ffffffffffffffffffffffffffffffffffffffff16600073ffffffffffffffffffffffffffffffffffffffff167fddf252ad1be2c89b69c2b068fc378daa952ba7f163c4a11628f55a4df523b3ef60405160405180910390a45050565b611d8c848484611957565b611d9884848484611ef3565b611dd7576040517f08c379a0000000000000000000000000000000000000000000000000000000008152600401611dce90613026565b60405180910390fd5b50505050565b606060405180602001604052806000815250905090565b6060611dff8261174c565b611e3e576040517f08c379a0000000000000000000000000000000000000000000000000000000008152600401611e35906131a6565b60405180910390fd5b6000611e48611ddd565b90506000815111611e685760405180602001604052806000815250611e93565b80611e728461208a565b604051602001611e83929190612eb9565b6040516020818303038152906040525b915050919050565b611ea481612237565b6000600660008381526020019081526020016000208054611ec4906134f2565b905014611eeb57600660008281526020019081526020016000206000611eea91906123e1565b5b50565b505050565b6000611f148473ffffffffffffffffffffffffffffffffffffffff16612348565b1561207d578373ffffffffffffffffffffffffffffffffffffffff1663150b7a02611f3d6117b8565b8786866040518563ffffffff1660e01b8152600401611f5f9493929190612f36565b602060405180830381600087803b158015611f7957600080fd5b505af1925050508015611faa57506040513d601f19601f82011682018060405250810190611fa7919061275c565b60015b61202d573d8060008114611fda576040519150601f19603f3d011682016040523d82523d6000602084013e611fdf565b606091505b50600081511415612025576040517f08c379a000000000000000000000000000000000000000000000000000000000815260040161201c90613026565b60405180910390fd5b805181602001fd5b63150b7a0260e01b7bffffffffffffffffffffffffffffffffffffffffffffffffffffffff1916817bffffffffffffffffffffffffffffffffffffffffffffffffffffffff191614915050612082565b600190505b949350505050565b606060008214156120d2576040518060400160405280600181526020017f30000000000000000000000000000000000000000000000000000000000000008152509050612232565b600082905060005b600082146121045780806120ed90613524565b915050600a826120fd91906133b9565b91506120da565b60008167ffffffffffffffff811115612146577f4e487b7100000000000000000000000000000000000000000000000000000000600052604160045260246000fd5b6040519080825280601f01601f1916602001820160405280156121785781602001600182028036833780820191505090505b5090505b6000851461222b5760018261219191906133ea565b9150600a856121a0919061359a565b60306121ac9190613363565b60f81b8183815181106121e8577f4e487b7100000000000000000000000000000000000000000000000000000000600052603260045260246000fd5b60200101907effffffffffffffffffffffffffffffffffffffffffffffffffffffffffffff1916908160001a905350600a8561222491906133b9565b945061217c565b8093505050505b919050565b60006122428261084a565b905061225081600084611eee565b61225b6000836117c0565b6001600360008373ffffffffffffffffffffffffffffffffffffffff1673ffffffffffffffffffffffffffffffffffffffff16815260200190815260200160002060008282546122ab91906133ea565b925050819055506002600083815260200190815260200160002060006101000a81549073ffffffffffffffffffffffffffffffffffffffff021916905581600073ffffffffffffffffffffffffffffffffffffffff168273ffffffffffffffffffffffffffffffffffffffff167fddf252ad1be2c89b69c2b068fc378daa952ba7f163c4a11628f55a4df523b3ef60405160405180910390a45050565b600080823b905060008111915050919050565b828054612367906134f2565b90600052602060002090601f01602090048101928261238957600085556123d0565b82601f106123a257805160ff19168380011785556123d0565b828001600101855582156123d0579182015b828111156123cf5782518255916020019190600101906123b4565b5b5090506123dd9190612421565b5090565b5080546123ed906134f2565b6000825580601f106123ff575061241e565b601f01602090049060005260206000209081019061241d9190612421565b5b50565b5b8082111561243a576000816000905550600101612422565b5090565b600061245161244c846132c0565b61328f565b90508281526020810184848401111561246957600080fd5b6124748482856134b0565b509392505050565b600061248f61248a846132f0565b61328f565b9050828152602081018484840111156124a757600080fd5b6124b28482856134b0565b509392505050565b6000813590506124c981613698565b92915050565b6000813590506124de816136af565b92915050565b6000813590506124f3816136c6565b92915050565b600081519050612508816136c6565b92915050565b600082601f83011261251f57600080fd5b813561252f84826020860161243e565b91505092915050565b600082601f83011261254957600080fd5b813561255984826020860161247c565b91505092915050565b600081359050612571816136dd565b92915050565b600081359050612586816136f4565b92915050565b60006020828403121561259e57600080fd5b60006125ac848285016124ba565b91505092915050565b600080604083850312156125c857600080fd5b60006125d6858286016124ba565b92505060206125e7858286016124ba565b9150509250929050565b60008060006060848603121561260657600080fd5b6000612614868287016124ba565b9350506020612625868287016124ba565b925050604061263686828701612562565b9150509250925092565b6000806000806080858703121561265657600080fd5b6000612664878288016124ba565b9450506020612675878288016124ba565b935050604061268687828801612562565b925050606085013567ffffffffffffffff8111156126a357600080fd5b6126af8782880161250e565b91505092959194509250565b600080604083850312156126ce57600080fd5b60006126dc858286016124ba565b92505060206126ed858286016124cf565b9150509250929050565b6000806040838503121561270a57600080fd5b6000612718858286016124ba565b925050602061272985828601612562565b9150509250929050565b60006020828403121561274557600080fd5b6000612753848285016124e4565b91505092915050565b60006020828403121561276e57600080fd5b600061277c848285016124f9565b91505092915050565b6000806040838503121561279857600080fd5b600083013567ffffffffffffffff8111156127b257600080fd5b6127be85828601612538565b925050602083013567ffffffffffffffff8111156127db57600080fd5b6127e785828601612538565b9150509250929050565b60006020828403121561280357600080fd5b600061281184828501612562565b91505092915050565b60006020828403121561282c57600080fd5b600061283a84828501612577565b91505092915050565b61284c8161341e565b82525050565b61285b81613430565b82525050565b600061286c82613320565b6128768185613336565b93506128868185602086016134bf565b61288f81613687565b840191505092915050565b60006128a58261332b565b6128af8185613347565b93506128bf8185602086016134bf565b6128c881613687565b840191505092915050565b60006128de8261332b565b6128e88185613358565b93506128f88185602086016134bf565b80840191505092915050565b6000612911603283613347565b91507f4552433732313a207472616e7366657220746f206e6f6e20455243373231526560008301527f63656976657220696d706c656d656e74657200000000000000000000000000006020830152604082019050919050565b6000612977601c83613347565b91507f4552433732313a20746f6b656e20616c7265616479206d696e746564000000006000830152602082019050919050565b60006129b7602483613347565b91507f4552433732313a207472616e7366657220746f20746865207a65726f2061646460008301527f72657373000000000000000000000000000000000000000000000000000000006020830152604082019050919050565b6000612a1d601983613347565b91507f4552433732313a20617070726f766520746f2063616c6c6572000000000000006000830152602082019050919050565b6000612a5d602c83613347565b91507f4552433732313a206f70657261746f7220717565727920666f72206e6f6e657860008301527f697374656e7420746f6b656e00000000000000000000000000000000000000006020830152604082019050919050565b6000612ac3603883613347565b91507f4552433732313a20617070726f76652063616c6c6572206973206e6f74206f7760008301527f6e6572206e6f7220617070726f76656420666f7220616c6c00000000000000006020830152604082019050919050565b6000612b29602a83613347565b91507f4552433732313a2062616c616e636520717565727920666f7220746865207a6560008301527f726f2061646472657373000000000000000000000000000000000000000000006020830152604082019050919050565b6000612b8f602983613347565b91507f4552433732313a206f776e657220717565727920666f72206e6f6e657869737460008301527f656e7420746f6b656e00000000000000000000000000000000000000000000006020830152604082019050919050565b6000612bf5602083613347565b91507f4552433732313a206d696e7420746f20746865207a65726f20616464726573736000830152602082019050919050565b6000612c35603183613347565b91507f45524337323155524953746f726167653a2055524920717565727920666f722060008301527f6e6f6e6578697374656e7420746f6b656e0000000000000000000000000000006020830152604082019050919050565b6000612c9b602c83613347565b91507f4552433732313a20617070726f76656420717565727920666f72206e6f6e657860008301527f697374656e7420746f6b656e00000000000000000000000000000000000000006020830152604082019050919050565b6000612d01602983613347565b91507f4552433732313a207472616e73666572206f6620746f6b656e2074686174206960008301527f73206e6f74206f776e00000000000000000000000000000000000000000000006020830152604082019050919050565b6000612d67602f83613347565b91507f4552433732314d657461646174613a2055524920717565727920666f72206e6f60008301527f6e6578697374656e7420746f6b656e00000000000000000000000000000000006020830152604082019050919050565b6000612dcd602183613347565b91507f4552433732313a20617070726f76616c20746f2063757272656e74206f776e6560008301527f72000000000000000000000000000000000000000000000000000000000000006020830152604082019050919050565b6000612e33603183613347565b91507f4552433732313a207472616e736665722063616c6c6572206973206e6f74206f60008301527f776e6572206e6f7220617070726f7665640000000000000000000000000000006020830152604082019050919050565b612e9581613468565b82525050565b612ea481613496565b82525050565b612eb3816134a0565b82525050565b6000612ec582856128d3565b9150612ed182846128d3565b91508190509392505050565b6000602082019050612ef26000830184612843565b92915050565b6000606082019050612f0d6000830186612843565b612f1a6020830185612843565b8181036040830152612f2c818461289a565b9050949350505050565b6000608082019050612f4b6000830187612843565b612f586020830186612843565b612f656040830185612e9b565b8181036060830152612f778184612861565b905095945050505050565b6000604082019050612f976000830185612843565b612fa46020830184612eaa565b9392505050565b6000602082019050612fc06000830184612852565b92915050565b60006020820190508181036000830152612fe0818461289a565b905092915050565b60006060820190508181036000830152613002818661289a565b90506130116020830185612e8c565b61301e6040830184612843565b949350505050565b6000602082019050818103600083015261303f81612904565b9050919050565b6000602082019050818103600083015261305f8161296a565b9050919050565b6000602082019050818103600083015261307f816129aa565b9050919050565b6000602082019050818103600083015261309f81612a10565b9050919050565b600060208201905081810360008301526130bf81612a50565b9050919050565b600060208201905081810360008301526130df81612ab6565b9050919050565b600060208201905081810360008301526130ff81612b1c565b9050919050565b6000602082019050818103600083015261311f81612b82565b9050919050565b6000602082019050818103600083015261313f81612be8565b9050919050565b6000602082019050818103600083015261315f81612c28565b9050919050565b6000602082019050818103600083015261317f81612c8e565b9050919050565b6000602082019050818103600083015261319f81612cf4565b9050919050565b600060208201905081810360008301526131bf81612d5a565b9050919050565b600060208201905081810360008301526131df81612dc0565b9050919050565b600060208201905081810360008301526131ff81612e26565b9050919050565b600060208201905061321b6000830184612e9b565b92915050565b60006020820190506132366000830184612eaa565b92915050565b60006080820190506132516000830187612eaa565b61325e6020830186612e9b565b8181036040830152613270818561289a565b90508181036060830152613284818461289a565b905095945050505050565b6000604051905081810181811067ffffffffffffffff821117156132b6576132b5613658565b5b8060405250919050565b600067ffffffffffffffff8211156132db576132da613658565b5b601f19601f8301169050602081019050919050565b600067ffffffffffffffff82111561330b5761330a613658565b5b601f19601f8301169050602081019050919050565b600081519050919050565b600081519050919050565b600082825260208201905092915050565b600082825260208201905092915050565b600081905092915050565b600061336e82613496565b915061337983613496565b9250827fffffffffffffffffffffffffffffffffffffffffffffffffffffffffffffffff038211156133ae576133ad6135cb565b5b828201905092915050565b60006133c482613496565b91506133cf83613496565b9250826133df576133de6135fa565b5b828204905092915050565b60006133f582613496565b915061340083613496565b925082821015613413576134126135cb565b5b828203905092915050565b600061342982613476565b9050919050565b60008115159050919050565b60007fffffffff0000000000000000000000000000000000000000000000000000000082169050919050565b600061ffff82169050919050565b600073ffffffffffffffffffffffffffffffffffffffff82169050919050565b6000819050919050565b600063ffffffff82169050919050565b82818337600083830152505050565b60005b838110156134dd5780820151818401526020810190506134c2565b838111156134ec576000848401525b50505050565b6000600282049050600182168061350a57607f821691505b6020821081141561351e5761351d613629565b5b50919050565b600061352f82613496565b91507fffffffffffffffffffffffffffffffffffffffffffffffffffffffffffffffff821415613562576135616135cb565b5b600182019050919050565b6000613578826134a0565b915063ffffffff82141561358f5761358e6135cb565b5b600182019050919050565b60006135a582613496565b91506135b083613496565b9250826135c0576135bf6135fa565b5b828206905092915050565b7f4e487b7100000000000000000000000000000000000000000000000000000000600052601160045260246000fd5b7f4e487b7100000000000000000000000000000000000000000000000000000000600052601260045260246000fd5b7f4e487b7100000000000000000000000000000000000000000000000000000000600052602260045260246000fd5b7f4e487b7100000000000000000000000000000000000000000000000000000000600052604160045260246000fd5b6000601f19601f8301169050919050565b6136a18161341e565b81146136ac57600080fd5b50565b6136b881613430565b81146136c357600080fd5b50565b6136cf8161343c565b81146136da57600080fd5b50565b6136e681613496565b81146136f157600080fd5b50565b6136fd816134a0565b811461370857600080fd5b5056fea26469706673582212203af9658ceeb812bb330b29cbe5495069992fc89169ab688a509ff7436ab72eda64736f6c63430008000033",
  "immutableReferences": {},
  "source": "// SPDX-License-Identifier: MIT\r\npragma solidity >=0.4.22 <0.9.0;\r\n\r\n\r\n// import \"@openzeppelin/contracts/token/ERC721/presets/ERC721PresetMinterPauserAutoId.sol\";\r\nimport \"@openzeppelin/contracts/token/ERC721/extensions/ERC721URIStorage.sol\";\r\nimport \"@openzeppelin/contracts/utils/Counters.sol\";\r\n\r\n\r\ncontract DoBuyNFT is ERC721URIStorage {\r\n  using Counters for Counters.Counter;\r\n  address private owner;\r\n  /// @dev NFT Ids\r\n  uint32 public _tokenIds;\r\n\r\n  /// @dev NFT struct\r\n  struct NFTcard {\r\n    uint32 _Ids; // NFT serial number\r\n    uint256 timestamp; // Time Created\r\n    string name; // NFT names\r\n    string image_url; // IMAGE URL\r\n  }\r\n\r\n  //  \r\n  mapping (uint32 => NFTcard) public _DoBuylist;\r\n  mapping (uint32 => address) public _DoBuyToOwner;\r\n  event DoBuyCreated (address , uint32);\r\n\r\n  /// @dev NFT Have\r\n  struct Have {\r\n    string name; // product name\r\n    uint16 amount;\r\n    address user_wallet;    \r\n  }\r\n\r\n  // /// @dev NFT  \r\n  // mapping (uint256 => address) DoBuyCounts;\r\n  Have[] public haveitem;\r\n\r\n  /// @dev Trade Ids\r\n  uint32 public _tradeIds;\r\n\r\n  /// @dev Trade struct\r\n  struct tradeTrans {\r\n    address _from;\r\n    address _to;\r\n    string name;\r\n  }\r\n\r\n  // NFT \r\n  mapping (uint256 => tradeTrans) public _TradeTransaction;\r\n\r\n  constructor() ERC721(\"DoBuyNFT\", \"DBNFT\") {\r\n    owner = msg.sender;\r\n    _DoBuylist[_tokenIds] = NFTcard(_tokenIds, block.timestamp, \"DoBuy Start!\", \"DoBuy.png\");\r\n    _DoBuyToOwner[_tokenIds] = msg.sender;\r\n    emit DoBuyCreated(msg.sender, _tokenIds);\r\n  }\r\n\r\n  /**\r\n   *  @dev NFT   NFT Token \r\n   *  @param _name NFT \r\n   *  @param _image_url NFT  \r\n   */\r\n  function mint(string memory _name, string memory _image_url) public {\r\n    _tokenIds++;\r\n    uint32 newItemId = _tokenIds;\r\n    _DoBuylist[newItemId] = NFTcard(newItemId, block.timestamp, _name, _image_url);\r\n    _mint(msg.sender, newItemId);\r\n    _DoBuyToOwner[newItemId] = msg.sender;\r\n    emit DoBuyCreated(msg.sender, newItemId);\r\n  }\r\n\r\n  /**\r\n   *  @dev NFT  \r\n   *  @param _Id NFT _Ids\r\n   */\r\n  function transferNFT(uint32 _Id) external {\r\n    address temp = _DoBuyToOwner[_Id];\r\n    _tradeIds++;\r\n    _transfer(temp, msg.sender, _Id);\r\n    _DoBuyToOwner[_Id] = msg.sender;\r\n    _TradeTransaction[_tradeIds] = tradeTrans(temp, msg.sender, _DoBuylist[_Id].name);\r\n  }\r\n\r\n    //   /// @dev NFT \r\n    // /// 1.   NFT      (: )\r\n    // /// 2.      \r\n    // /// 3.    approve safeTransferFrom   (: )\r\n    // function buyNFTfromUser(uint newItemId) public {\r\n    //     //require(isPayed);\r\n    //     approve(msg.sender, newItemId);\r\n    //     safeTransferFrom(ownerOf(newItemId), msg.sender, newItemId);\r\n    // }\r\n\r\n\r\n  /// @dev delivery -    NFT \r\n  function burnNFT(uint32 _Id) external {\r\n    require(ownerOf(_Id) == msg.sender);    //  NFT burn .  burn  ...\r\n    _burn(_Id);   // NFT burn\r\n      \r\n    // 1 -  \r\n    delete _DoBuyToOwner[_Id];  //  NFT  (_DoBuyToOwner) \r\n    delete _DoBuylist[_Id];   //  NFT card  _DoBuylist   \r\n\r\n    // 2 -   \r\n    // _DoBuyToOwner[_Id] = address(0);    //  NFT  (_DoBuyToOwner) clear\r\n  }\r\n    \r\n\r\n  function _marketBuy(string memory _name, string memory _img_url) internal returns(bool) {\r\n    mint(_name, _img_url);\r\n    for(uint256 i = 0; i < haveitem.length; i++) {\r\n      if(haveitem[i].user_wallet == msg.sender && keccak256(bytes( haveitem[i].name)) == keccak256(bytes(_name))){\r\n          haveitem[i].amount++;\r\n          return true;\r\n      }\r\n    }\r\n    haveitem.push(Have(_name, 1, msg.sender));\r\n    return false;\r\n  }\r\n}\r\n",
  "sourcePath": "C:/Users/redqo/Desktop/DoBuy_project/contracts/DoBuyNFT.sol",
  "compiler": {
    "name": "solc",
    "version": "0.8.0+commit.c7dfd78e.Emscripten.clang"
  },
  "schemaVersion": "3.4.1",
  "updatedAt": "2021-08-20T08:26:53.892Z",
  "networkType": "ethereum",
  "devdoc": {
    "kind": "dev",
    "methods": {
      "approve(address,uint256)": {
        "details": "See {IERC721-approve}."
      },
      "balanceOf(address)": {
        "details": "See {IERC721-balanceOf}."
      },
      "burnNFT(uint32)": {
        "details": "delivery -    NFT "
      },
      "getApproved(uint256)": {
        "details": "See {IERC721-getApproved}."
      },
      "isApprovedForAll(address,address)": {
        "details": "See {IERC721-isApprovedForAll}."
      },
      "mint(string,string)": {
        "details": "NFT   NFT Token ",
        "params": {
          "_image_url": "NFT  ",
          "_name": "NFT "
        }
      },
      "name()": {
        "details": "See {IERC721Metadata-name}."
      },
      "ownerOf(uint256)": {
        "details": "See {IERC721-ownerOf}."
      },
      "safeTransferFrom(address,address,uint256)": {
        "details": "See {IERC721-safeTransferFrom}."
      },
      "safeTransferFrom(address,address,uint256,bytes)": {
        "details": "See {IERC721-safeTransferFrom}."
      },
      "setApprovalForAll(address,bool)": {
        "details": "See {IERC721-setApprovalForAll}."
      },
      "supportsInterface(bytes4)": {
        "details": "See {IERC165-supportsInterface}."
      },
      "symbol()": {
        "details": "See {IERC721Metadata-symbol}."
      },
      "tokenURI(uint256)": {
        "details": "See {IERC721Metadata-tokenURI}."
      },
      "transferFrom(address,address,uint256)": {
        "details": "See {IERC721-transferFrom}."
      },
      "transferNFT(uint32)": {
        "details": "NFT  ",
        "params": {
          "_Id": "NFT _Ids"
        }
      }
    },
    "stateVariables": {
      "_tokenIds": {
        "details": "NFT Ids"
      },
      "_tradeIds": {
        "details": "Trade Ids"
      }
    },
    "version": 1
  },
  "userdoc": {
    "kind": "user",
    "methods": {},
    "version": 1
  }
}