{
  "contractName": "MarketNFT",
  "abi": [
    {
      "inputs": [],
      "stateMutability": "nonpayable",
      "type": "constructor"
    },
    {
      "anonymous": false,
      "inputs": [
        {
          "indexed": true,
          "internalType": "address",
          "name": "owner",
          "type": "address"
        },
        {
          "indexed": true,
          "internalType": "address",
          "name": "approved",
          "type": "address"
        },
        {
          "indexed": true,
          "internalType": "uint256",
          "name": "tokenId",
          "type": "uint256"
        }
      ],
      "name": "Approval",
      "type": "event"
    },
    {
      "anonymous": false,
      "inputs": [
        {
          "indexed": true,
          "internalType": "address",
          "name": "owner",
          "type": "address"
        },
        {
          "indexed": true,
          "internalType": "address",
          "name": "operator",
          "type": "address"
        },
        {
          "indexed": false,
          "internalType": "bool",
          "name": "approved",
          "type": "bool"
        }
      ],
      "name": "ApprovalForAll",
      "type": "event"
    },
    {
      "anonymous": false,
      "inputs": [
        {
          "indexed": false,
          "internalType": "address",
          "name": "",
          "type": "address"
        },
        {
          "indexed": false,
          "internalType": "uint32",
          "name": "",
          "type": "uint32"
        }
      ],
      "name": "DoBuyCreated",
      "type": "event"
    },
    {
      "anonymous": false,
      "inputs": [
        {
          "indexed": true,
          "internalType": "address",
          "name": "previousOwner",
          "type": "address"
        },
        {
          "indexed": true,
          "internalType": "address",
          "name": "newOwner",
          "type": "address"
        }
      ],
      "name": "OwnershipTransferred",
      "type": "event"
    },
    {
      "anonymous": false,
      "inputs": [
        {
          "indexed": true,
          "internalType": "address",
          "name": "from",
          "type": "address"
        },
        {
          "indexed": true,
          "internalType": "address",
          "name": "to",
          "type": "address"
        },
        {
          "indexed": true,
          "internalType": "uint256",
          "name": "tokenId",
          "type": "uint256"
        }
      ],
      "name": "Transfer",
      "type": "event"
    },
    {
      "inputs": [
        {
          "internalType": "uint32",
          "name": "",
          "type": "uint32"
        }
      ],
      "name": "_DoBuyToOwner",
      "outputs": [
        {
          "internalType": "address",
          "name": "",
          "type": "address"
        }
      ],
      "stateMutability": "view",
      "type": "function",
      "constant": true
    },
    {
      "inputs": [
        {
          "internalType": "uint32",
          "name": "",
          "type": "uint32"
        }
      ],
      "name": "_DoBuylist",
      "outputs": [
        {
          "internalType": "uint32",
          "name": "_Ids",
          "type": "uint32"
        },
        {
          "internalType": "uint256",
          "name": "timestamp",
          "type": "uint256"
        },
        {
          "internalType": "string",
          "name": "name",
          "type": "string"
        },
        {
          "internalType": "string",
          "name": "image_url",
          "type": "string"
        }
      ],
      "stateMutability": "view",
      "type": "function",
      "constant": true
    },
    {
      "inputs": [],
      "name": "_MarketIds",
      "outputs": [
        {
          "internalType": "uint32",
          "name": "",
          "type": "uint32"
        }
      ],
      "stateMutability": "view",
      "type": "function",
      "constant": true
    },
    {
      "inputs": [
        {
          "internalType": "uint256",
          "name": "",
          "type": "uint256"
        }
      ],
      "name": "_MarketList",
      "outputs": [
        {
          "internalType": "uint256",
          "name": "_ids",
          "type": "uint256"
        },
        {
          "internalType": "uint256",
          "name": "price_ETH",
          "type": "uint256"
        },
        {
          "internalType": "uint256",
          "name": "price_DoBuy",
          "type": "uint256"
        },
        {
          "internalType": "string",
          "name": "name",
          "type": "string"
        },
        {
          "internalType": "string",
          "name": "img_url",
          "type": "string"
        }
      ],
      "stateMutability": "view",
      "type": "function",
      "constant": true
    },
    {
      "inputs": [
        {
          "internalType": "uint256",
          "name": "",
          "type": "uint256"
        }
      ],
      "name": "_TradeTransaction",
      "outputs": [
        {
          "internalType": "address",
          "name": "_from",
          "type": "address"
        },
        {
          "internalType": "address",
          "name": "_to",
          "type": "address"
        },
        {
          "internalType": "string",
          "name": "name",
          "type": "string"
        }
      ],
      "stateMutability": "view",
      "type": "function",
      "constant": true
    },
    {
      "inputs": [],
      "name": "_tokenIds",
      "outputs": [
        {
          "internalType": "uint32",
          "name": "",
          "type": "uint32"
        }
      ],
      "stateMutability": "view",
      "type": "function",
      "constant": true
    },
    {
      "inputs": [],
      "name": "_tradeIds",
      "outputs": [
        {
          "internalType": "uint32",
          "name": "",
          "type": "uint32"
        }
      ],
      "stateMutability": "view",
      "type": "function",
      "constant": true
    },
    {
      "inputs": [
        {
          "internalType": "address",
          "name": "to",
          "type": "address"
        },
        {
          "internalType": "uint256",
          "name": "tokenId",
          "type": "uint256"
        }
      ],
      "name": "approve",
      "outputs": [],
      "stateMutability": "nonpayable",
      "type": "function"
    },
    {
      "inputs": [
        {
          "internalType": "address",
          "name": "owner",
          "type": "address"
        }
      ],
      "name": "balanceOf",
      "outputs": [
        {
          "internalType": "uint256",
          "name": "",
          "type": "uint256"
        }
      ],
      "stateMutability": "view",
      "type": "function",
      "constant": true
    },
    {
      "inputs": [
        {
          "internalType": "uint32",
          "name": "_Id",
          "type": "uint32"
        }
      ],
      "name": "burnNFT",
      "outputs": [],
      "stateMutability": "nonpayable",
      "type": "function"
    },
    {
      "inputs": [
        {
          "internalType": "uint256",
          "name": "tokenId",
          "type": "uint256"
        }
      ],
      "name": "getApproved",
      "outputs": [
        {
          "internalType": "address",
          "name": "",
          "type": "address"
        }
      ],
      "stateMutability": "view",
      "type": "function",
      "constant": true
    },
    {
      "inputs": [
        {
          "internalType": "uint256",
          "name": "",
          "type": "uint256"
        }
      ],
      "name": "haveitem",
      "outputs": [
        {
          "internalType": "string",
          "name": "name",
          "type": "string"
        },
        {
          "internalType": "uint16",
          "name": "amount",
          "type": "uint16"
        },
        {
          "internalType": "address",
          "name": "user_wallet",
          "type": "address"
        }
      ],
      "stateMutability": "view",
      "type": "function",
      "constant": true
    },
    {
      "inputs": [
        {
          "internalType": "address",
          "name": "owner",
          "type": "address"
        },
        {
          "internalType": "address",
          "name": "operator",
          "type": "address"
        }
      ],
      "name": "isApprovedForAll",
      "outputs": [
        {
          "internalType": "bool",
          "name": "",
          "type": "bool"
        }
      ],
      "stateMutability": "view",
      "type": "function",
      "constant": true
    },
    {
      "inputs": [
        {
          "internalType": "string",
          "name": "_name",
          "type": "string"
        },
        {
          "internalType": "string",
          "name": "_image_url",
          "type": "string"
        }
      ],
      "name": "mint",
      "outputs": [],
      "stateMutability": "nonpayable",
      "type": "function"
    },
    {
      "inputs": [],
      "name": "name",
      "outputs": [
        {
          "internalType": "string",
          "name": "",
          "type": "string"
        }
      ],
      "stateMutability": "view",
      "type": "function",
      "constant": true
    },
    {
      "inputs": [],
      "name": "owner",
      "outputs": [
        {
          "internalType": "address",
          "name": "",
          "type": "address"
        }
      ],
      "stateMutability": "view",
      "type": "function",
      "constant": true
    },
    {
      "inputs": [
        {
          "internalType": "uint256",
          "name": "tokenId",
          "type": "uint256"
        }
      ],
      "name": "ownerOf",
      "outputs": [
        {
          "internalType": "address",
          "name": "",
          "type": "address"
        }
      ],
      "stateMutability": "view",
      "type": "function",
      "constant": true
    },
    {
      "inputs": [],
      "name": "renounceOwnership",
      "outputs": [],
      "stateMutability": "nonpayable",
      "type": "function"
    },
    {
      "inputs": [
        {
          "internalType": "address",
          "name": "from",
          "type": "address"
        },
        {
          "internalType": "address",
          "name": "to",
          "type": "address"
        },
        {
          "internalType": "uint256",
          "name": "tokenId",
          "type": "uint256"
        }
      ],
      "name": "safeTransferFrom",
      "outputs": [],
      "stateMutability": "nonpayable",
      "type": "function"
    },
    {
      "inputs": [
        {
          "internalType": "address",
          "name": "from",
          "type": "address"
        },
        {
          "internalType": "address",
          "name": "to",
          "type": "address"
        },
        {
          "internalType": "uint256",
          "name": "tokenId",
          "type": "uint256"
        },
        {
          "internalType": "bytes",
          "name": "_data",
          "type": "bytes"
        }
      ],
      "name": "safeTransferFrom",
      "outputs": [],
      "stateMutability": "nonpayable",
      "type": "function"
    },
    {
      "inputs": [
        {
          "internalType": "address",
          "name": "operator",
          "type": "address"
        },
        {
          "internalType": "bool",
          "name": "approved",
          "type": "bool"
        }
      ],
      "name": "setApprovalForAll",
      "outputs": [],
      "stateMutability": "nonpayable",
      "type": "function"
    },
    {
      "inputs": [
        {
          "internalType": "bytes4",
          "name": "interfaceId",
          "type": "bytes4"
        }
      ],
      "name": "supportsInterface",
      "outputs": [
        {
          "internalType": "bool",
          "name": "",
          "type": "bool"
        }
      ],
      "stateMutability": "view",
      "type": "function",
      "constant": true
    },
    {
      "inputs": [],
      "name": "symbol",
      "outputs": [
        {
          "internalType": "string",
          "name": "",
          "type": "string"
        }
      ],
      "stateMutability": "view",
      "type": "function",
      "constant": true
    },
    {
      "inputs": [
        {
          "internalType": "uint256",
          "name": "tokenId",
          "type": "uint256"
        }
      ],
      "name": "tokenURI",
      "outputs": [
        {
          "internalType": "string",
          "name": "",
          "type": "string"
        }
      ],
      "stateMutability": "view",
      "type": "function",
      "constant": true
    },
    {
      "inputs": [
        {
          "internalType": "address",
          "name": "from",
          "type": "address"
        },
        {
          "internalType": "address",
          "name": "to",
          "type": "address"
        },
        {
          "internalType": "uint256",
          "name": "tokenId",
          "type": "uint256"
        }
      ],
      "name": "transferFrom",
      "outputs": [],
      "stateMutability": "nonpayable",
      "type": "function"
    },
    {
      "inputs": [
        {
          "internalType": "uint32",
          "name": "_Id",
          "type": "uint32"
        }
      ],
      "name": "transferNFT",
      "outputs": [],
      "stateMutability": "nonpayable",
      "type": "function"
    },
    {
      "inputs": [
        {
          "internalType": "address",
          "name": "newOwner",
          "type": "address"
        }
      ],
      "name": "transferOwnership",
      "outputs": [],
      "stateMutability": "nonpayable",
      "type": "function"
    },
    {
      "inputs": [
        {
          "internalType": "uint256",
          "name": "_ETH",
          "type": "uint256"
        },
        {
          "internalType": "uint256",
          "name": "_DoBuy",
          "type": "uint256"
        },
        {
          "internalType": "string",
          "name": "_name",
          "type": "string"
        },
        {
          "internalType": "string",
          "name": "_img_url",
          "type": "string"
        }
      ],
      "name": "setMarketList",
      "outputs": [],
      "stateMutability": "nonpayable",
      "type": "function"
    },
    {
      "inputs": [
        {
          "internalType": "uint256",
          "name": "_num_ids",
          "type": "uint256"
        }
      ],
      "name": "delMarketList",
      "outputs": [],
      "stateMutability": "nonpayable",
      "type": "function"
    },
    {
      "inputs": [
        {
          "internalType": "uint256",
          "name": "_num_ids",
          "type": "uint256"
        }
      ],
      "name": "buyMarket",
      "outputs": [],
      "stateMutability": "nonpayable",
      "type": "function"
    }
  ],
  "bytecode": "0x60806040523480156200001157600080fd5b506040518060400160405280600881526020017f446f4275794e46540000000000000000000000000000000000000000000000008152506040518060400160405280600581526020017f44424e46540000000000000000000000000000000000000000000000000000008152508160009080519060200190620000969291906200098e565b508060019080519060200190620000af9291906200098e565b50505033600760006101000a81548173ffffffffffffffffffffffffffffffffffffffff021916908373ffffffffffffffffffffffffffffffffffffffff1602179055506040518060800160405280600760149054906101000a900463ffffffff1663ffffffff1681526020014281526020016040518060400160405280600c81526020017f446f42757920537461727421000000000000000000000000000000000000000081525081526020016040518060400160405280600981526020017f446f4275792e706e67000000000000000000000000000000000000000000000081525081525060086000600760149054906101000a900463ffffffff1663ffffffff1663ffffffff16815260200190815260200160002060008201518160000160006101000a81548163ffffffff021916908363ffffffff160217905550602082015181600101556040820151816002019080519060200190620002169291906200098e565b506060820151816003019080519060200190620002359291906200098e565b509050503360096000600760149054906101000a900463ffffffff1663ffffffff1663ffffffff16815260200190815260200160002060006101000a81548173ffffffffffffffffffffffffffffffffffffffff021916908373ffffffffffffffffffffffffffffffffffffffff1602179055507fd3541a7229e521bbd5f9dab3a283435fe8e2ba7a6ae962cafce8cadbec96dcb033600760149054906101000a900463ffffffff16604051620002ee92919062000a60565b60405180910390a1620003166200030a620008c060201b60201c565b620008c860201b60201c565b6040518060a00160405280600d60149054906101000a900463ffffffff1663ffffffff16815260200160008152602001600081526020016040518060400160405280600881526020017f4e46542053484f5000000000000000000000000000000000000000000000000081525081526020016040518060400160405280600981526020017f446f4275792e706e670000000000000000000000000000000000000000000000815250815250600e6000600d60149054906101000a900463ffffffff1663ffffffff1681526020019081526020016000206000820151816000015560208201518160010155604082015181600201556060820151816003019080519060200190620004289291906200098e565b506080820151816004019080519060200190620004479291906200098e565b50905050600d601481819054906101000a900463ffffffff16809291906200046f9062000b07565b91906101000a81548163ffffffff021916908363ffffffff160217905550506040518060a00160405280600d60149054906101000a900463ffffffff1663ffffffff168152602001600c815260200162b71b0081526020016040518060400160405280600681526020017f506f7461746f000000000000000000000000000000000000000000000000000081525081526020016040518060400160405280600981526020017f446f4275792e706e670000000000000000000000000000000000000000000000815250815250600e6000600d60149054906101000a900463ffffffff1663ffffffff1681526020019081526020016000206000820151816000015560208201518160010155604082015181600201556060820151816003019080519060200190620005a29291906200098e565b506080820151816004019080519060200190620005c19291906200098e565b50905050600d601481819054906101000a900463ffffffff1680929190620005e99062000b07565b91906101000a81548163ffffffff021916908363ffffffff160217905550506040518060a00160405280600d60149054906101000a900463ffffffff1663ffffffff168152602001600f815260200163017d784081526020016040518060400160405280600681526020017f42616e616e61000000000000000000000000000000000000000000000000000081525081526020016040518060400160405280600981526020017f446f4275792e706e670000000000000000000000000000000000000000000000815250815250600e6000600d60149054906101000a900463ffffffff1663ffffffff16815260200190815260200160002060008201518160000155602082015181600101556040820151816002015560608201518160030190805190602001906200071d9291906200098e565b5060808201518160040190805190602001906200073c9291906200098e565b50905050600d601481819054906101000a900463ffffffff1680929190620007649062000b07565b91906101000a81548163ffffffff021916908363ffffffff160217905550506040518060a00160405280600d60149054906101000a900463ffffffff1663ffffffff168152602001600a81526020016298968081526020016040518060400160405280600581526020017f4170706c6500000000000000000000000000000000000000000000000000000081525081526020016040518060400160405280600981526020017f446f4275792e706e670000000000000000000000000000000000000000000000815250815250600e6000600d60149054906101000a900463ffffffff1663ffffffff1681526020019081526020016000206000820151816000015560208201518160010155604082015181600201556060820151816003019080519060200190620008979291906200098e565b506080820151816004019080519060200190620008b69291906200098e565b5090505062000b97565b600033905090565b6000600d60009054906101000a900473ffffffffffffffffffffffffffffffffffffffff16905081600d60006101000a81548173ffffffffffffffffffffffffffffffffffffffff021916908373ffffffffffffffffffffffffffffffffffffffff1602179055508173ffffffffffffffffffffffffffffffffffffffff168173ffffffffffffffffffffffffffffffffffffffff167f8be0079c531659141344cd1fd0a4f28419497f9722a3daafe3b4186f6b6457e060405160405180910390a35050565b8280546200099c9062000ad1565b90600052602060002090601f016020900481019282620009c0576000855562000a0c565b82601f10620009db57805160ff191683800117855562000a0c565b8280016001018555821562000a0c579182015b8281111562000a0b578251825591602001919060010190620009ee565b5b50905062000a1b919062000a1f565b5090565b5b8082111562000a3a57600081600090555060010162000a20565b5090565b62000a498162000a8d565b82525050565b62000a5a8162000ac1565b82525050565b600060408201905062000a77600083018562000a3e565b62000a86602083018462000a4f565b9392505050565b600062000a9a8262000aa1565b9050919050565b600073ffffffffffffffffffffffffffffffffffffffff82169050919050565b600063ffffffff82169050919050565b6000600282049050600182168062000aea57607f821691505b6020821081141562000b015762000b0062000b68565b5b50919050565b600062000b148262000ac1565b915063ffffffff82141562000b2e5762000b2d62000b39565b5b600182019050919050565b7f4e487b7100000000000000000000000000000000000000000000000000000000600052601160045260246000fd5b7f4e487b7100000000000000000000000000000000000000000000000000000000600052602260045260246000fd5b61459a8062000ba76000396000f3fe608060405234801561001057600080fd5b50600436106101da5760003560e01c806395d89b4111610104578063cc86afbe116100a2578063f25650f611610071578063f25650f614610581578063f2fde38b146105b4578063f5a11c3e146105d0578063f90852c7146105ec576101da565b8063cc86afbe146104e7578063e985e9c514610503578063eeea743714610533578063f108461214610565576101da565b8063b4487536116100de578063b448753614610461578063b88d4fde1461047f578063c80d35e01461049b578063c87b56dd146104b7576101da565b806395d89b4114610409578063a22cb46514610427578063aa46a40014610443576101da565b806342842e0e1161017c578063715018a61161014b578063715018a6146103935780637f4c88731461039d5780638aa0fdad146103cf5780638da5cb5b146103eb576101da565b806342842e0e146102f95780636352211e146103155780636eb75dad1461034557806370a0823114610363576101da565b8063095ea7b3116101b8578063095ea7b31461025d57806323b872dd146102795780632d72c84e146102955780632fb21c28146102c9576101da565b806301ffc9a7146101df57806306fdde031461020f578063081812fc1461022d575b600080fd5b6101f960048036038101906101f491906132d1565b610608565b6040516102069190613d18565b60405180910390f35b6102176106ea565b6040516102249190613d33565b60405180910390f35b6102476004803603810190610242919061338f565b61077c565b6040516102549190613c4a565b60405180910390f35b61027760048036038101906102729190613295565b610801565b005b610293600480360381019061028e919061318f565b610919565b005b6102af60048036038101906102aa919061338f565b610979565b6040516102c0959493929190613fce565b60405180910390f35b6102e360048036038101906102de919061344b565b610abf565b6040516102f09190613c4a565b60405180910390f35b610313600480360381019061030e919061318f565b610af2565b005b61032f600480360381019061032a919061338f565b610b12565b60405161033c9190613c4a565b60405180910390f35b61034d610bc4565b60405161035a919061402f565b60405180910390f35b61037d6004803603810190610378919061312a565b610bda565b60405161038a9190613fb3565b60405180910390f35b61039b610c92565b005b6103b760048036038101906103b2919061338f565b610d1a565b6040516103c693929190613d55565b60405180910390f35b6103e960048036038101906103e49190613323565b610e0a565b005b6103f3610fc2565b6040516104009190613c4a565b60405180910390f35b610411610fec565b60405161041e9190613d33565b60405180910390f35b610441600480360381019061043c9190613259565b61107e565b005b61044b6111ff565b604051610458919061402f565b60405180910390f35b610469611215565b604051610476919061402f565b60405180910390f35b610499600480360381019061049491906131de565b61122b565b005b6104b560048036038101906104b0919061338f565b61128d565b005b6104d160048036038101906104cc919061338f565b61135a565b6040516104de9190613d33565b60405180910390f35b61050160048036038101906104fc919061344b565b6114ac565b005b61051d60048036038101906105189190613153565b6115a7565b60405161052a9190613d18565b60405180910390f35b61054d6004803603810190610548919061338f565b61163b565b60405161055c93929190613c65565b60405180910390f35b61057f600480360381019061057a919061344b565b61172d565b005b61059b6004803603810190610596919061344b565b6119ef565b6040516105ab949392919061404a565b60405180910390f35b6105ce60048036038101906105c9919061312a565b611b3f565b005b6105ea60048036038101906105e591906133b8565b611c37565b005b6106066004803603810190610601919061338f565b611dad565b005b60007f80ac58cd000000000000000000000000000000000000000000000000000000007bffffffffffffffffffffffffffffffffffffffffffffffffffffffff1916827bffffffffffffffffffffffffffffffffffffffffffffffffffffffff191614806106d357507f5b5e139f000000000000000000000000000000000000000000000000000000007bffffffffffffffffffffffffffffffffffffffffffffffffffffffff1916827bffffffffffffffffffffffffffffffffffffffffffffffffffffffff1916145b806106e357506106e282611ef7565b5b9050919050565b6060600080546106f990614320565b80601f016020809104026020016040519081016040528092919081815260200182805461072590614320565b80156107725780601f1061074757610100808354040283529160200191610772565b820191906000526020600020905b81548152906001019060200180831161075557829003601f168201915b5050505050905090565b600061078782611f61565b6107c6576040517f08c379a00000000000000000000000000000000000000000000000000000000081526004016107bd90613ef3565b60405180910390fd5b6004600083815260200190815260200160002060009054906101000a900473ffffffffffffffffffffffffffffffffffffffff169050919050565b600061080c82610b12565b90508073ffffffffffffffffffffffffffffffffffffffff168373ffffffffffffffffffffffffffffffffffffffff16141561087d576040517f08c379a000000000000000000000000000000000000000000000000000000000815260040161087490613f73565b60405180910390fd5b8073ffffffffffffffffffffffffffffffffffffffff1661089c611fcd565b73ffffffffffffffffffffffffffffffffffffffff1614806108cb57506108ca816108c5611fcd565b6115a7565b5b61090a576040517f08c379a000000000000000000000000000000000000000000000000000000000815260040161090190613e53565b60405180910390fd5b6109148383611fd5565b505050565b61092a610924611fcd565b8261208e565b610969576040517f08c379a000000000000000000000000000000000000000000000000000000000815260040161096090613f93565b60405180910390fd5b61097483838361216c565b505050565b600e6020528060005260406000206000915090508060000154908060010154908060020154908060030180546109ae90614320565b80601f01602080910402602001604051908101604052809291908181526020018280546109da90614320565b8015610a275780601f106109fc57610100808354040283529160200191610a27565b820191906000526020600020905b815481529060010190602001808311610a0a57829003601f168201915b505050505090806004018054610a3c90614320565b80601f0160208091040260200160405190810160405280929190818152602001828054610a6890614320565b8015610ab55780601f10610a8a57610100808354040283529160200191610ab5565b820191906000526020600020905b815481529060010190602001808311610a9857829003601f168201915b5050505050905085565b60096020528060005260406000206000915054906101000a900473ffffffffffffffffffffffffffffffffffffffff1681565b610b0d8383836040518060200160405280600081525061122b565b505050565b6000806002600084815260200190815260200160002060009054906101000a900473ffffffffffffffffffffffffffffffffffffffff169050600073ffffffffffffffffffffffffffffffffffffffff168173ffffffffffffffffffffffffffffffffffffffff161415610bbb576040517f08c379a0000000000000000000000000000000000000000000000000000000008152600401610bb290613e93565b60405180910390fd5b80915050919050565b600b60009054906101000a900463ffffffff1681565b60008073ffffffffffffffffffffffffffffffffffffffff168273ffffffffffffffffffffffffffffffffffffffff161415610c4b576040517f08c379a0000000000000000000000000000000000000000000000000000000008152600401610c4290613e73565b60405180910390fd5b600360008373ffffffffffffffffffffffffffffffffffffffff1673ffffffffffffffffffffffffffffffffffffffff168152602001908152602001600020549050919050565b610c9a611fcd565b73ffffffffffffffffffffffffffffffffffffffff16610cb8610fc2565b73ffffffffffffffffffffffffffffffffffffffff1614610d0e576040517f08c379a0000000000000000000000000000000000000000000000000000000008152600401610d0590613f13565b60405180910390fd5b610d1860006123c8565b565b600a8181548110610d2a57600080fd5b9060005260206000209060020201600091509050806000018054610d4d90614320565b80601f0160208091040260200160405190810160405280929190818152602001828054610d7990614320565b8015610dc65780601f10610d9b57610100808354040283529160200191610dc6565b820191906000526020600020905b815481529060010190602001808311610da957829003601f168201915b5050505050908060010160009054906101000a900461ffff16908060010160029054906101000a900473ffffffffffffffffffffffffffffffffffffffff16905083565b6007601481819054906101000a900463ffffffff1680929190610e2c906143c6565b91906101000a81548163ffffffff021916908363ffffffff160217905550506000600760149054906101000a900463ffffffff16905060405180608001604052808263ffffffff16815260200142815260200184815260200183815250600860008363ffffffff1663ffffffff16815260200190815260200160002060008201518160000160006101000a81548163ffffffff021916908363ffffffff160217905550602082015181600101556040820151816002019080519060200190610ef5929190612ef9565b506060820151816003019080519060200190610f12929190612ef9565b50905050610f26338263ffffffff1661248e565b33600960008363ffffffff1663ffffffff16815260200190815260200160002060006101000a81548173ffffffffffffffffffffffffffffffffffffffff021916908373ffffffffffffffffffffffffffffffffffffffff1602179055507fd3541a7229e521bbd5f9dab3a283435fe8e2ba7a6ae962cafce8cadbec96dcb03382604051610fb5929190613cef565b60405180910390a1505050565b6000600d60009054906101000a900473ffffffffffffffffffffffffffffffffffffffff16905090565b606060018054610ffb90614320565b80601f016020809104026020016040519081016040528092919081815260200182805461102790614320565b80156110745780601f1061104957610100808354040283529160200191611074565b820191906000526020600020905b81548152906001019060200180831161105757829003601f168201915b5050505050905090565b611086611fcd565b73ffffffffffffffffffffffffffffffffffffffff168273ffffffffffffffffffffffffffffffffffffffff1614156110f4576040517f08c379a00000000000000000000000000000000000000000000000000000000081526004016110eb90613e13565b60405180910390fd5b8060056000611101611fcd565b73ffffffffffffffffffffffffffffffffffffffff1673ffffffffffffffffffffffffffffffffffffffff16815260200190815260200160002060008473ffffffffffffffffffffffffffffffffffffffff1673ffffffffffffffffffffffffffffffffffffffff16815260200190815260200160002060006101000a81548160ff0219169083151502179055508173ffffffffffffffffffffffffffffffffffffffff166111ae611fcd565b73ffffffffffffffffffffffffffffffffffffffff167f17307eab39ab6107e8899845ad3d59bd9653f200f220920489ca2b5937696c31836040516111f39190613d18565b60405180910390a35050565b600760149054906101000a900463ffffffff1681565b600d60149054906101000a900463ffffffff1681565b61123c611236611fcd565b8361208e565b61127b576040517f08c379a000000000000000000000000000000000000000000000000000000000815260040161127290613f93565b60405180910390fd5b6112878484848461265c565b50505050565b611295611fcd565b73ffffffffffffffffffffffffffffffffffffffff166112b3610fc2565b73ffffffffffffffffffffffffffffffffffffffff1614611309576040517f08c379a000000000000000000000000000000000000000000000000000000000815260040161130090613f13565b60405180910390fd5b600e6000828152602001908152602001600020600080820160009055600182016000905560028201600090556003820160006113459190612f7f565b6004820160006113559190612f7f565b505050565b606061136582611f61565b6113a4576040517f08c379a000000000000000000000000000000000000000000000000000000000815260040161139b90613ed3565b60405180910390fd5b60006006600084815260200190815260200160002080546113c490614320565b80601f01602080910402602001604051908101604052809291908181526020018280546113f090614320565b801561143d5780601f106114125761010080835404028352916020019161143d565b820191906000526020600020905b81548152906001019060200180831161142057829003601f168201915b50505050509050600061144e6126b8565b90506000815114156114645781925050506114a7565b600082511115611499578082604051602001611481929190613c26565b604051602081830303815290604052925050506114a7565b6114a2846126cf565b925050505b919050565b3373ffffffffffffffffffffffffffffffffffffffff166114d28263ffffffff16610b12565b73ffffffffffffffffffffffffffffffffffffffff16146114f257600080fd5b6115018163ffffffff16612776565b600960008263ffffffff1663ffffffff16815260200190815260200160002060006101000a81549073ffffffffffffffffffffffffffffffffffffffff0219169055600860008263ffffffff1663ffffffff168152602001908152602001600020600080820160006101000a81549063ffffffff021916905560018201600090556002820160006115929190612f7f565b6003820160006115a29190612f7f565b505050565b6000600560008473ffffffffffffffffffffffffffffffffffffffff1673ffffffffffffffffffffffffffffffffffffffff16815260200190815260200160002060008373ffffffffffffffffffffffffffffffffffffffff1673ffffffffffffffffffffffffffffffffffffffff16815260200190815260200160002060009054906101000a900460ff16905092915050565b600c6020528060005260406000206000915090508060000160009054906101000a900473ffffffffffffffffffffffffffffffffffffffff16908060010160009054906101000a900473ffffffffffffffffffffffffffffffffffffffff16908060020180546116aa90614320565b80601f01602080910402602001604051908101604052809291908181526020018280546116d690614320565b80156117235780601f106116f857610100808354040283529160200191611723565b820191906000526020600020905b81548152906001019060200180831161170657829003601f168201915b5050505050905083565b6000600960008363ffffffff1663ffffffff16815260200190815260200160002060009054906101000a900473ffffffffffffffffffffffffffffffffffffffff169050600b600081819054906101000a900463ffffffff1680929190611793906143c6565b91906101000a81548163ffffffff021916908363ffffffff160217905550506117c381338463ffffffff1661216c565b33600960008463ffffffff1663ffffffff16815260200190815260200160002060006101000a81548173ffffffffffffffffffffffffffffffffffffffff021916908373ffffffffffffffffffffffffffffffffffffffff16021790555060405180606001604052808273ffffffffffffffffffffffffffffffffffffffff1681526020013373ffffffffffffffffffffffffffffffffffffffff168152602001600860008563ffffffff1663ffffffff168152602001908152602001600020600201805461189190614320565b80601f01602080910402602001604051908101604052809291908181526020018280546118bd90614320565b801561190a5780601f106118df5761010080835404028352916020019161190a565b820191906000526020600020905b8154815290600101906020018083116118ed57829003601f168201915b5050505050815250600c6000600b60009054906101000a900463ffffffff1663ffffffff16815260200190815260200160002060008201518160000160006101000a81548173ffffffffffffffffffffffffffffffffffffffff021916908373ffffffffffffffffffffffffffffffffffffffff16021790555060208201518160010160006101000a81548173ffffffffffffffffffffffffffffffffffffffff021916908373ffffffffffffffffffffffffffffffffffffffff16021790555060408201518160020190805190602001906119e7929190612ef9565b509050505050565b60086020528060005260406000206000915090508060000160009054906101000a900463ffffffff1690806001015490806002018054611a2e90614320565b80601f0160208091040260200160405190810160405280929190818152602001828054611a5a90614320565b8015611aa75780601f10611a7c57610100808354040283529160200191611aa7565b820191906000526020600020905b815481529060010190602001808311611a8a57829003601f168201915b505050505090806003018054611abc90614320565b80601f0160208091040260200160405190810160405280929190818152602001828054611ae890614320565b8015611b355780601f10611b0a57610100808354040283529160200191611b35565b820191906000526020600020905b815481529060010190602001808311611b1857829003601f168201915b5050505050905084565b611b47611fcd565b73ffffffffffffffffffffffffffffffffffffffff16611b65610fc2565b73ffffffffffffffffffffffffffffffffffffffff1614611bbb576040517f08c379a0000000000000000000000000000000000000000000000000000000008152600401611bb290613f13565b60405180910390fd5b600073ffffffffffffffffffffffffffffffffffffffff168173ffffffffffffffffffffffffffffffffffffffff161415611c2b576040517f08c379a0000000000000000000000000000000000000000000000000000000008152600401611c2290613db3565b60405180910390fd5b611c34816123c8565b50565b611c3f611fcd565b73ffffffffffffffffffffffffffffffffffffffff16611c5d610fc2565b73ffffffffffffffffffffffffffffffffffffffff1614611cb3576040517f08c379a0000000000000000000000000000000000000000000000000000000008152600401611caa90613f13565b60405180910390fd5b600d601481819054906101000a900463ffffffff1680929190611cd5906143c6565b91906101000a81548163ffffffff021916908363ffffffff160217905550506000600d60149054906101000a900463ffffffff1663ffffffff1690506040518060a0016040528082815260200186815260200185815260200184815260200183815250600e60008381526020019081526020016000206000820151816000015560208201518160010155604082015181600201556060820151816003019080519060200190611d85929190612ef9565b506080820151816004019080519060200190611da2929190612ef9565b509050505050505050565b611ef3600e60008381526020019081526020016000206003018054611dd190614320565b80601f0160208091040260200160405190810160405280929190818152602001828054611dfd90614320565b8015611e4a5780601f10611e1f57610100808354040283529160200191611e4a565b820191906000526020600020905b815481529060010190602001808311611e2d57829003601f168201915b5050505050600e60008481526020019081526020016000206004018054611e7090614320565b80601f0160208091040260200160405190810160405280929190818152602001828054611e9c90614320565b8015611ee95780601f10611ebe57610100808354040283529160200191611ee9565b820191906000526020600020905b815481529060010190602001808311611ecc57829003601f168201915b50505050506127c9565b5050565b60007f01ffc9a7000000000000000000000000000000000000000000000000000000007bffffffffffffffffffffffffffffffffffffffffffffffffffffffff1916827bffffffffffffffffffffffffffffffffffffffffffffffffffffffff1916149050919050565b60008073ffffffffffffffffffffffffffffffffffffffff166002600084815260200190815260200160002060009054906101000a900473ffffffffffffffffffffffffffffffffffffffff1673ffffffffffffffffffffffffffffffffffffffff1614159050919050565b600033905090565b816004600083815260200190815260200160002060006101000a81548173ffffffffffffffffffffffffffffffffffffffff021916908373ffffffffffffffffffffffffffffffffffffffff160217905550808273ffffffffffffffffffffffffffffffffffffffff1661204883610b12565b73ffffffffffffffffffffffffffffffffffffffff167f8c5be1e5ebec7d5bd14f71427d1e84f3dd0314c0f7b2291e5b200ac8c7c3b92560405160405180910390a45050565b600061209982611f61565b6120d8576040517f08c379a00000000000000000000000000000000000000000000000000000000081526004016120cf90613e33565b60405180910390fd5b60006120e383610b12565b90508073ffffffffffffffffffffffffffffffffffffffff168473ffffffffffffffffffffffffffffffffffffffff16148061215257508373ffffffffffffffffffffffffffffffffffffffff1661213a8461077c565b73ffffffffffffffffffffffffffffffffffffffff16145b80612163575061216281856115a7565b5b91505092915050565b8273ffffffffffffffffffffffffffffffffffffffff1661218c82610b12565b73ffffffffffffffffffffffffffffffffffffffff16146121e2576040517f08c379a00000000000000000000000000000000000000000000000000000000081526004016121d990613f33565b60405180910390fd5b600073ffffffffffffffffffffffffffffffffffffffff168273ffffffffffffffffffffffffffffffffffffffff161415612252576040517f08c379a000000000000000000000000000000000000000000000000000000000815260040161224990613df3565b60405180910390fd5b61225d838383612a8c565b612268600082611fd5565b6001600360008573ffffffffffffffffffffffffffffffffffffffff1673ffffffffffffffffffffffffffffffffffffffff16815260200190815260200160002060008282546122b89190614218565b925050819055506001600360008473ffffffffffffffffffffffffffffffffffffffff1673ffffffffffffffffffffffffffffffffffffffff168152602001908152602001600020600082825461230f9190614191565b92505081905550816002600083815260200190815260200160002060006101000a81548173ffffffffffffffffffffffffffffffffffffffff021916908373ffffffffffffffffffffffffffffffffffffffff160217905550808273ffffffffffffffffffffffffffffffffffffffff168473ffffffffffffffffffffffffffffffffffffffff167fddf252ad1be2c89b69c2b068fc378daa952ba7f163c4a11628f55a4df523b3ef60405160405180910390a4505050565b6000600d60009054906101000a900473ffffffffffffffffffffffffffffffffffffffff16905081600d60006101000a81548173ffffffffffffffffffffffffffffffffffffffff021916908373ffffffffffffffffffffffffffffffffffffffff1602179055508173ffffffffffffffffffffffffffffffffffffffff168173ffffffffffffffffffffffffffffffffffffffff167f8be0079c531659141344cd1fd0a4f28419497f9722a3daafe3b4186f6b6457e060405160405180910390a35050565b600073ffffffffffffffffffffffffffffffffffffffff168273ffffffffffffffffffffffffffffffffffffffff1614156124fe576040517f08c379a00000000000000000000000000000000000000000000000000000000081526004016124f590613eb3565b60405180910390fd5b61250781611f61565b15612547576040517f08c379a000000000000000000000000000000000000000000000000000000000815260040161253e90613dd3565b60405180910390fd5b61255360008383612a8c565b6001600360008473ffffffffffffffffffffffffffffffffffffffff1673ffffffffffffffffffffffffffffffffffffffff16815260200190815260200160002060008282546125a39190614191565b92505081905550816002600083815260200190815260200160002060006101000a81548173ffffffffffffffffffffffffffffffffffffffff021916908373ffffffffffffffffffffffffffffffffffffffff160217905550808273ffffffffffffffffffffffffffffffffffffffff16600073ffffffffffffffffffffffffffffffffffffffff167fddf252ad1be2c89b69c2b068fc378daa952ba7f163c4a11628f55a4df523b3ef60405160405180910390a45050565b61266784848461216c565b61267384848484612a91565b6126b2576040517f08c379a00000000000000000000000000000000000000000000000000000000081526004016126a990613d93565b60405180910390fd5b50505050565b606060405180602001604052806000815250905090565b60606126da82611f61565b612719576040517f08c379a000000000000000000000000000000000000000000000000000000000815260040161271090613f53565b60405180910390fd5b60006127236126b8565b90506000815111612743576040518060200160405280600081525061276e565b8061274d84612c28565b60405160200161275e929190613c26565b6040516020818303038152906040525b915050919050565b61277f81612dd5565b600060066000838152602001908152602001600020805461279f90614320565b9050146127c6576006600082815260200190815260200160002060006127c59190612f7f565b5b50565b60006127d58383610e0a565b60005b600a80549050811015612996573373ffffffffffffffffffffffffffffffffffffffff16600a8281548110612836577f4e487b7100000000000000000000000000000000000000000000000000000000600052603260045260246000fd5b906000526020600020906002020160010160029054906101000a900473ffffffffffffffffffffffffffffffffffffffff1673ffffffffffffffffffffffffffffffffffffffff161480156128f057508380519060200120600a82815481106128c8577f4e487b7100000000000000000000000000000000000000000000000000000000600052603260045260246000fd5b90600052602060002090600202016000016040516128e69190613c0f565b6040518091039020145b1561298357600a818154811061292f577f4e487b7100000000000000000000000000000000000000000000000000000000600052603260045260246000fd5b9060005260206000209060020201600101600081819054906101000a900461ffff168092919061295e90614352565b91906101000a81548161ffff021916908361ffff160217905550506001915050612a86565b808061298e9061437d565b9150506127d8565b50600a6040518060600160405280858152602001600161ffff1681526020013373ffffffffffffffffffffffffffffffffffffffff1681525090806001815401808255809150506001900390600052602060002090600202016000909190919091506000820151816000019080519060200190612a14929190612ef9565b5060208201518160010160006101000a81548161ffff021916908361ffff16021790555060408201518160010160026101000a81548173ffffffffffffffffffffffffffffffffffffffff021916908373ffffffffffffffffffffffffffffffffffffffff1602179055505050600090505b92915050565b505050565b6000612ab28473ffffffffffffffffffffffffffffffffffffffff16612ee6565b15612c1b578373ffffffffffffffffffffffffffffffffffffffff1663150b7a02612adb611fcd565b8786866040518563ffffffff1660e01b8152600401612afd9493929190613ca3565b602060405180830381600087803b158015612b1757600080fd5b505af1925050508015612b4857506040513d601f19601f82011682018060405250810190612b4591906132fa565b60015b612bcb573d8060008114612b78576040519150601f19603f3d011682016040523d82523d6000602084013e612b7d565b606091505b50600081511415612bc3576040517f08c379a0000000000000000000000000000000000000000000000000000000008152600401612bba90613d93565b60405180910390fd5b805181602001fd5b63150b7a0260e01b7bffffffffffffffffffffffffffffffffffffffffffffffffffffffff1916817bffffffffffffffffffffffffffffffffffffffffffffffffffffffff191614915050612c20565b600190505b949350505050565b60606000821415612c70576040518060400160405280600181526020017f30000000000000000000000000000000000000000000000000000000000000008152509050612dd0565b600082905060005b60008214612ca2578080612c8b9061437d565b915050600a82612c9b91906141e7565b9150612c78565b60008167ffffffffffffffff811115612ce4577f4e487b7100000000000000000000000000000000000000000000000000000000600052604160045260246000fd5b6040519080825280601f01601f191660200182016040528015612d165781602001600182028036833780820191505090505b5090505b60008514612dc957600182612d2f9190614218565b9150600a85612d3e91906143f3565b6030612d4a9190614191565b60f81b818381518110612d86577f4e487b7100000000000000000000000000000000000000000000000000000000600052603260045260246000fd5b60200101907effffffffffffffffffffffffffffffffffffffffffffffffffffffffffffff1916908160001a905350600a85612dc291906141e7565b9450612d1a565b8093505050505b919050565b6000612de082610b12565b9050612dee81600084612a8c565b612df9600083611fd5565b6001600360008373ffffffffffffffffffffffffffffffffffffffff1673ffffffffffffffffffffffffffffffffffffffff1681526020019081526020016000206000828254612e499190614218565b925050819055506002600083815260200190815260200160002060006101000a81549073ffffffffffffffffffffffffffffffffffffffff021916905581600073ffffffffffffffffffffffffffffffffffffffff168273ffffffffffffffffffffffffffffffffffffffff167fddf252ad1be2c89b69c2b068fc378daa952ba7f163c4a11628f55a4df523b3ef60405160405180910390a45050565b600080823b905060008111915050919050565b828054612f0590614320565b90600052602060002090601f016020900481019282612f275760008555612f6e565b82601f10612f4057805160ff1916838001178555612f6e565b82800160010185558215612f6e579182015b82811115612f6d578251825591602001919060010190612f52565b5b509050612f7b9190612fbf565b5090565b508054612f8b90614320565b6000825580601f10612f9d5750612fbc565b601f016020900490600052602060002090810190612fbb9190612fbf565b5b50565b5b80821115612fd8576000816000905550600101612fc0565b5090565b6000612fef612fea846140ce565b61409d565b90508281526020810184848401111561300757600080fd5b6130128482856142de565b509392505050565b600061302d613028846140fe565b61409d565b90508281526020810184848401111561304557600080fd5b6130508482856142de565b509392505050565b600081359050613067816144f1565b92915050565b60008135905061307c81614508565b92915050565b6000813590506130918161451f565b92915050565b6000815190506130a68161451f565b92915050565b600082601f8301126130bd57600080fd5b81356130cd848260208601612fdc565b91505092915050565b600082601f8301126130e757600080fd5b81356130f784826020860161301a565b91505092915050565b60008135905061310f81614536565b92915050565b6000813590506131248161454d565b92915050565b60006020828403121561313c57600080fd5b600061314a84828501613058565b91505092915050565b6000806040838503121561316657600080fd5b600061317485828601613058565b925050602061318585828601613058565b9150509250929050565b6000806000606084860312156131a457600080fd5b60006131b286828701613058565b93505060206131c386828701613058565b92505060406131d486828701613100565b9150509250925092565b600080600080608085870312156131f457600080fd5b600061320287828801613058565b945050602061321387828801613058565b935050604061322487828801613100565b925050606085013567ffffffffffffffff81111561324157600080fd5b61324d878288016130ac565b91505092959194509250565b6000806040838503121561326c57600080fd5b600061327a85828601613058565b925050602061328b8582860161306d565b9150509250929050565b600080604083850312156132a857600080fd5b60006132b685828601613058565b92505060206132c785828601613100565b9150509250929050565b6000602082840312156132e357600080fd5b60006132f184828501613082565b91505092915050565b60006020828403121561330c57600080fd5b600061331a84828501613097565b91505092915050565b6000806040838503121561333657600080fd5b600083013567ffffffffffffffff81111561335057600080fd5b61335c858286016130d6565b925050602083013567ffffffffffffffff81111561337957600080fd5b613385858286016130d6565b9150509250929050565b6000602082840312156133a157600080fd5b60006133af84828501613100565b91505092915050565b600080600080608085870312156133ce57600080fd5b60006133dc87828801613100565b94505060206133ed87828801613100565b935050604085013567ffffffffffffffff81111561340a57600080fd5b613416878288016130d6565b925050606085013567ffffffffffffffff81111561343357600080fd5b61343f878288016130d6565b91505092959194509250565b60006020828403121561345d57600080fd5b600061346b84828501613115565b91505092915050565b61347d8161424c565b82525050565b61348c8161425e565b82525050565b600061349d82614143565b6134a78185614159565b93506134b78185602086016142ed565b6134c0816144e0565b840191505092915050565b600081546134d881614320565b6134e2818661416a565b945060018216600081146134fd576001811461350e57613541565b60ff19831686528186019350613541565b6135178561412e565b60005b838110156135395781548189015260018201915060208101905061351a565b838801955050505b50505092915050565b60006135558261414e565b61355f8185614175565b935061356f8185602086016142ed565b613578816144e0565b840191505092915050565b600061358e8261414e565b6135988185614186565b93506135a88185602086016142ed565b80840191505092915050565b60006135c1603283614175565b91507f4552433732313a207472616e7366657220746f206e6f6e20455243373231526560008301527f63656976657220696d706c656d656e74657200000000000000000000000000006020830152604082019050919050565b6000613627602683614175565b91507f4f776e61626c653a206e6577206f776e657220697320746865207a65726f206160008301527f64647265737300000000000000000000000000000000000000000000000000006020830152604082019050919050565b600061368d601c83614175565b91507f4552433732313a20746f6b656e20616c7265616479206d696e746564000000006000830152602082019050919050565b60006136cd602483614175565b91507f4552433732313a207472616e7366657220746f20746865207a65726f2061646460008301527f72657373000000000000000000000000000000000000000000000000000000006020830152604082019050919050565b6000613733601983614175565b91507f4552433732313a20617070726f766520746f2063616c6c6572000000000000006000830152602082019050919050565b6000613773602c83614175565b91507f4552433732313a206f70657261746f7220717565727920666f72206e6f6e657860008301527f697374656e7420746f6b656e00000000000000000000000000000000000000006020830152604082019050919050565b60006137d9603883614175565b91507f4552433732313a20617070726f76652063616c6c6572206973206e6f74206f7760008301527f6e6572206e6f7220617070726f76656420666f7220616c6c00000000000000006020830152604082019050919050565b600061383f602a83614175565b91507f4552433732313a2062616c616e636520717565727920666f7220746865207a6560008301527f726f2061646472657373000000000000000000000000000000000000000000006020830152604082019050919050565b60006138a5602983614175565b91507f4552433732313a206f776e657220717565727920666f72206e6f6e657869737460008301527f656e7420746f6b656e00000000000000000000000000000000000000000000006020830152604082019050919050565b600061390b602083614175565b91507f4552433732313a206d696e7420746f20746865207a65726f20616464726573736000830152602082019050919050565b600061394b603183614175565b91507f45524337323155524953746f726167653a2055524920717565727920666f722060008301527f6e6f6e6578697374656e7420746f6b656e0000000000000000000000000000006020830152604082019050919050565b60006139b1602c83614175565b91507f4552433732313a20617070726f76656420717565727920666f72206e6f6e657860008301527f697374656e7420746f6b656e00000000000000000000000000000000000000006020830152604082019050919050565b6000613a17602083614175565b91507f4f776e61626c653a2063616c6c6572206973206e6f7420746865206f776e65726000830152602082019050919050565b6000613a57602983614175565b91507f4552433732313a207472616e73666572206f6620746f6b656e2074686174206960008301527f73206e6f74206f776e00000000000000000000000000000000000000000000006020830152604082019050919050565b6000613abd602f83614175565b91507f4552433732314d657461646174613a2055524920717565727920666f72206e6f60008301527f6e6578697374656e7420746f6b656e00000000000000000000000000000000006020830152604082019050919050565b6000613b23602183614175565b91507f4552433732313a20617070726f76616c20746f2063757272656e74206f776e6560008301527f72000000000000000000000000000000000000000000000000000000000000006020830152604082019050919050565b6000613b89603183614175565b91507f4552433732313a207472616e736665722063616c6c6572206973206e6f74206f60008301527f776e6572206e6f7220617070726f7665640000000000000000000000000000006020830152604082019050919050565b613beb81614296565b82525050565b613bfa816142c4565b82525050565b613c09816142ce565b82525050565b6000613c1b82846134cb565b915081905092915050565b6000613c328285613583565b9150613c3e8284613583565b91508190509392505050565b6000602082019050613c5f6000830184613474565b92915050565b6000606082019050613c7a6000830186613474565b613c876020830185613474565b8181036040830152613c99818461354a565b9050949350505050565b6000608082019050613cb86000830187613474565b613cc56020830186613474565b613cd26040830185613bf1565b8181036060830152613ce48184613492565b905095945050505050565b6000604082019050613d046000830185613474565b613d116020830184613c00565b9392505050565b6000602082019050613d2d6000830184613483565b92915050565b60006020820190508181036000830152613d4d818461354a565b905092915050565b60006060820190508181036000830152613d6f818661354a565b9050613d7e6020830185613be2565b613d8b6040830184613474565b949350505050565b60006020820190508181036000830152613dac816135b4565b9050919050565b60006020820190508181036000830152613dcc8161361a565b9050919050565b60006020820190508181036000830152613dec81613680565b9050919050565b60006020820190508181036000830152613e0c816136c0565b9050919050565b60006020820190508181036000830152613e2c81613726565b9050919050565b60006020820190508181036000830152613e4c81613766565b9050919050565b60006020820190508181036000830152613e6c816137cc565b9050919050565b60006020820190508181036000830152613e8c81613832565b9050919050565b60006020820190508181036000830152613eac81613898565b9050919050565b60006020820190508181036000830152613ecc816138fe565b9050919050565b60006020820190508181036000830152613eec8161393e565b9050919050565b60006020820190508181036000830152613f0c816139a4565b9050919050565b60006020820190508181036000830152613f2c81613a0a565b9050919050565b60006020820190508181036000830152613f4c81613a4a565b9050919050565b60006020820190508181036000830152613f6c81613ab0565b9050919050565b60006020820190508181036000830152613f8c81613b16565b9050919050565b60006020820190508181036000830152613fac81613b7c565b9050919050565b6000602082019050613fc86000830184613bf1565b92915050565b600060a082019050613fe36000830188613bf1565b613ff06020830187613bf1565b613ffd6040830186613bf1565b818103606083015261400f818561354a565b90508181036080830152614023818461354a565b90509695505050505050565b60006020820190506140446000830184613c00565b92915050565b600060808201905061405f6000830187613c00565b61406c6020830186613bf1565b818103604083015261407e818561354a565b90508181036060830152614092818461354a565b905095945050505050565b6000604051905081810181811067ffffffffffffffff821117156140c4576140c36144b1565b5b8060405250919050565b600067ffffffffffffffff8211156140e9576140e86144b1565b5b601f19601f8301169050602081019050919050565b600067ffffffffffffffff821115614119576141186144b1565b5b601f19601f8301169050602081019050919050565b60008190508160005260206000209050919050565b600081519050919050565b600081519050919050565b600082825260208201905092915050565b600081905092915050565b600082825260208201905092915050565b600081905092915050565b600061419c826142c4565b91506141a7836142c4565b9250827fffffffffffffffffffffffffffffffffffffffffffffffffffffffffffffffff038211156141dc576141db614424565b5b828201905092915050565b60006141f2826142c4565b91506141fd836142c4565b92508261420d5761420c614453565b5b828204905092915050565b6000614223826142c4565b915061422e836142c4565b92508282101561424157614240614424565b5b828203905092915050565b6000614257826142a4565b9050919050565b60008115159050919050565b60007fffffffff0000000000000000000000000000000000000000000000000000000082169050919050565b600061ffff82169050919050565b600073ffffffffffffffffffffffffffffffffffffffff82169050919050565b6000819050919050565b600063ffffffff82169050919050565b82818337600083830152505050565b60005b8381101561430b5780820151818401526020810190506142f0565b8381111561431a576000848401525b50505050565b6000600282049050600182168061433857607f821691505b6020821081141561434c5761434b614482565b5b50919050565b600061435d82614296565b915061ffff82141561437257614371614424565b5b600182019050919050565b6000614388826142c4565b91507fffffffffffffffffffffffffffffffffffffffffffffffffffffffffffffffff8214156143bb576143ba614424565b5b600182019050919050565b60006143d1826142ce565b915063ffffffff8214156143e8576143e7614424565b5b600182019050919050565b60006143fe826142c4565b9150614409836142c4565b92508261441957614418614453565b5b828206905092915050565b7f4e487b7100000000000000000000000000000000000000000000000000000000600052601160045260246000fd5b7f4e487b7100000000000000000000000000000000000000000000000000000000600052601260045260246000fd5b7f4e487b7100000000000000000000000000000000000000000000000000000000600052602260045260246000fd5b7f4e487b7100000000000000000000000000000000000000000000000000000000600052604160045260246000fd5b6000601f19601f8301169050919050565b6144fa8161424c565b811461450557600080fd5b50565b6145118161425e565b811461451c57600080fd5b50565b6145288161426a565b811461453357600080fd5b50565b61453f816142c4565b811461454a57600080fd5b50565b614556816142ce565b811461456157600080fd5b5056fea264697066735822122088376888063c6d29d3113b201da1f8ce8a50d570bb4d7f1cc116f59304cbd8e664736f6c63430008000033",
  "immutableReferences": {},
  "source": "// SPDX-License-Identifier: MIT\r\npragma solidity >=0.4.22 <0.9.0;\r\n\r\nimport \"./DoBuyNFT.sol\";\r\nimport \"./SafeMath.sol\";\r\nimport \"@openzeppelin/contracts/access/Ownable.sol\";\r\n\r\ncontract MarketNFT is DoBuyNFT, Ownable {\r\n    using Counters for Counters.Counter;\r\n    using SafeMath for uint256;\r\n    using SafeMath32 for uint32;\r\n    using SafeMath16 for uint16;\r\n\r\n    /// @dev Market Ids\r\n    uint32 public _MarketIds;\r\n\r\n    //  \r\n    mapping (uint256 => MarketList) public _MarketList;\r\n    // mapping (uint256 => address) public _MarketToOwner;\r\n\r\n    /// @dev Market \r\n    struct MarketList {\r\n        uint256 _ids; // serial number\r\n        uint256 price_ETH; // Price of ETH\r\n        uint256 price_DoBuy; // Price of DoBuy\r\n        string name; // names\r\n        string img_url; // IMAGE URL\r\n    }\r\n\r\n    constructor() {\r\n        _MarketList[_MarketIds] = MarketList(_MarketIds, 0, 0, \"NFT SHOP\", \"DoBuy.png\");\r\n        _MarketIds++;\r\n        _MarketList[_MarketIds] = MarketList(_MarketIds, 12, 12000000, \"Potato\", \"DoBuy.png\");\r\n        _MarketIds++;\r\n        _MarketList[_MarketIds] = MarketList(_MarketIds, 15, 25000000, \"Banana\", \"DoBuy.png\");\r\n        _MarketIds++;\r\n        _MarketList[_MarketIds] = MarketList(_MarketIds, 10, 10000000, \"Apple\", \"DoBuy.png\");\r\n    }\r\n\r\n    /**\r\n    *  @dev MarketList  \r\n    *  @param _ETH ETH \r\n    *  @param _DoBuy DoBuy \r\n    *  @param _name  \r\n    *  @param _img_url  \r\n    */\r\n    function setMarketList(uint256 _ETH, uint256 _DoBuy, string memory _name, string memory _img_url) external onlyOwner {\r\n        _MarketIds++;\r\n        uint256 newMarketId = _MarketIds;\r\n        _MarketList[newMarketId] = MarketList(newMarketId, _ETH, _DoBuy, _name, _img_url);\r\n    }\r\n\r\n    /**\r\n    *  @dev MarketList  \r\n    *  @param _num_ids  \r\n    */\r\n    function delMarketList(uint256 _num_ids) external onlyOwner {\r\n        delete _MarketList[_num_ids];\r\n    }\r\n\r\n    function buyMarket(uint256 _num_ids) external {\r\n        _marketBuy(_MarketList[_num_ids].name, _MarketList[_num_ids].img_url);\r\n    }\r\n}",
  "sourcePath": "C:/Users/redqo/Desktop/DoBuy_project/contracts/MarketNFT.sol",
  "compiler": {
    "name": "solc",
    "version": "0.8.0+commit.c7dfd78e.Emscripten.clang"
  },
  "schemaVersion": "3.4.1",
  "updatedAt": "2021-08-20T08:26:53.906Z",
  "networkType": "ethereum",
  "devdoc": {
    "kind": "dev",
    "methods": {
      "approve(address,uint256)": {
        "details": "See {IERC721-approve}."
      },
      "balanceOf(address)": {
        "details": "See {IERC721-balanceOf}."
      },
      "burnNFT(uint32)": {
        "details": "delivery -    NFT "
      },
      "delMarketList(uint256)": {
        "details": "MarketList  ",
        "params": {
          "_num_ids": " "
        }
      },
      "getApproved(uint256)": {
        "details": "See {IERC721-getApproved}."
      },
      "isApprovedForAll(address,address)": {
        "details": "See {IERC721-isApprovedForAll}."
      },
      "mint(string,string)": {
        "details": "NFT   NFT Token ",
        "params": {
          "_image_url": "NFT  ",
          "_name": "NFT "
        }
      },
      "name()": {
        "details": "See {IERC721Metadata-name}."
      },
      "owner()": {
        "details": "Returns the address of the current owner."
      },
      "ownerOf(uint256)": {
        "details": "See {IERC721-ownerOf}."
      },
      "renounceOwnership()": {
        "details": "Leaves the contract without owner. It will not be possible to call `onlyOwner` functions anymore. Can only be called by the current owner. NOTE: Renouncing ownership will leave the contract without an owner, thereby removing any functionality that is only available to the owner."
      },
      "safeTransferFrom(address,address,uint256)": {
        "details": "See {IERC721-safeTransferFrom}."
      },
      "safeTransferFrom(address,address,uint256,bytes)": {
        "details": "See {IERC721-safeTransferFrom}."
      },
      "setApprovalForAll(address,bool)": {
        "details": "See {IERC721-setApprovalForAll}."
      },
      "setMarketList(uint256,uint256,string,string)": {
        "details": "MarketList  ",
        "params": {
          "_DoBuy": "DoBuy ",
          "_ETH": "ETH ",
          "_img_url": " ",
          "_name": " "
        }
      },
      "supportsInterface(bytes4)": {
        "details": "See {IERC165-supportsInterface}."
      },
      "symbol()": {
        "details": "See {IERC721Metadata-symbol}."
      },
      "tokenURI(uint256)": {
        "details": "See {IERC721Metadata-tokenURI}."
      },
      "transferFrom(address,address,uint256)": {
        "details": "See {IERC721-transferFrom}."
      },
      "transferNFT(uint32)": {
        "details": "NFT  ",
        "params": {
          "_Id": "NFT _Ids"
        }
      },
      "transferOwnership(address)": {
        "details": "Transfers ownership of the contract to a new account (`newOwner`). Can only be called by the current owner."
      }
    },
    "stateVariables": {
      "_MarketIds": {
        "details": "Market Ids"
      }
    },
    "version": 1
  },
  "userdoc": {
    "kind": "user",
    "methods": {},
    "version": 1
  }
}