{
  "contractName": "MarketNFT",
  "abi": [
    {
      "inputs": [],
      "stateMutability": "nonpayable",
      "type": "constructor"
    },
    {
      "anonymous": false,
      "inputs": [
        {
          "indexed": true,
          "internalType": "address",
          "name": "owner",
          "type": "address"
        },
        {
          "indexed": true,
          "internalType": "address",
          "name": "approved",
          "type": "address"
        },
        {
          "indexed": true,
          "internalType": "uint256",
          "name": "tokenId",
          "type": "uint256"
        }
      ],
      "name": "Approval",
      "type": "event"
    },
    {
      "anonymous": false,
      "inputs": [
        {
          "indexed": true,
          "internalType": "address",
          "name": "owner",
          "type": "address"
        },
        {
          "indexed": true,
          "internalType": "address",
          "name": "operator",
          "type": "address"
        },
        {
          "indexed": false,
          "internalType": "bool",
          "name": "approved",
          "type": "bool"
        }
      ],
      "name": "ApprovalForAll",
      "type": "event"
    },
    {
      "anonymous": false,
      "inputs": [
        {
          "indexed": false,
          "internalType": "address",
          "name": "",
          "type": "address"
        },
        {
          "indexed": false,
          "internalType": "uint256",
          "name": "",
          "type": "uint256"
        }
      ],
      "name": "DoBuyCreated",
      "type": "event"
    },
    {
      "anonymous": false,
      "inputs": [
        {
          "indexed": true,
          "internalType": "address",
          "name": "previousOwner",
          "type": "address"
        },
        {
          "indexed": true,
          "internalType": "address",
          "name": "newOwner",
          "type": "address"
        }
      ],
      "name": "OwnershipTransferred",
      "type": "event"
    },
    {
      "anonymous": false,
      "inputs": [
        {
          "indexed": true,
          "internalType": "address",
          "name": "from",
          "type": "address"
        },
        {
          "indexed": true,
          "internalType": "address",
          "name": "to",
          "type": "address"
        },
        {
          "indexed": true,
          "internalType": "uint256",
          "name": "tokenId",
          "type": "uint256"
        }
      ],
      "name": "Transfer",
      "type": "event"
    },
    {
      "inputs": [
        {
          "internalType": "uint256",
          "name": "",
          "type": "uint256"
        }
      ],
      "name": "_DoBuyToOwner",
      "outputs": [
        {
          "internalType": "address",
          "name": "",
          "type": "address"
        }
      ],
      "stateMutability": "view",
      "type": "function",
      "constant": true
    },
    {
      "inputs": [
        {
          "internalType": "uint256",
          "name": "",
          "type": "uint256"
        }
      ],
      "name": "_DoBuylist",
      "outputs": [
        {
          "internalType": "uint256",
          "name": "_Ids",
          "type": "uint256"
        },
        {
          "internalType": "uint256",
          "name": "timestamp",
          "type": "uint256"
        },
        {
          "internalType": "string",
          "name": "name",
          "type": "string"
        },
        {
          "internalType": "string",
          "name": "image_url",
          "type": "string"
        }
      ],
      "stateMutability": "view",
      "type": "function",
      "constant": true
    },
    {
      "inputs": [],
      "name": "_MarketIds",
      "outputs": [
        {
          "internalType": "uint256",
          "name": "_value",
          "type": "uint256"
        }
      ],
      "stateMutability": "view",
      "type": "function",
      "constant": true
    },
    {
      "inputs": [
        {
          "internalType": "uint256",
          "name": "",
          "type": "uint256"
        }
      ],
      "name": "_MarketList",
      "outputs": [
        {
          "internalType": "uint256",
          "name": "_ids",
          "type": "uint256"
        },
        {
          "internalType": "uint16",
          "name": "price_ETH",
          "type": "uint16"
        },
        {
          "internalType": "uint16",
          "name": "price_DoBuy",
          "type": "uint16"
        },
        {
          "internalType": "string",
          "name": "name",
          "type": "string"
        },
        {
          "internalType": "string",
          "name": "img_url",
          "type": "string"
        }
      ],
      "stateMutability": "view",
      "type": "function",
      "constant": true
    },
    {
      "inputs": [
        {
          "internalType": "uint256",
          "name": "",
          "type": "uint256"
        }
      ],
      "name": "_TradeTransaction",
      "outputs": [
        {
          "internalType": "address",
          "name": "_from",
          "type": "address"
        },
        {
          "internalType": "address",
          "name": "_to",
          "type": "address"
        },
        {
          "internalType": "string",
          "name": "name",
          "type": "string"
        }
      ],
      "stateMutability": "view",
      "type": "function",
      "constant": true
    },
    {
      "inputs": [],
      "name": "_tokenIds",
      "outputs": [
        {
          "internalType": "uint256",
          "name": "_value",
          "type": "uint256"
        }
      ],
      "stateMutability": "view",
      "type": "function",
      "constant": true
    },
    {
      "inputs": [],
      "name": "_tradeIds",
      "outputs": [
        {
          "internalType": "uint256",
          "name": "_value",
          "type": "uint256"
        }
      ],
      "stateMutability": "view",
      "type": "function",
      "constant": true
    },
    {
      "inputs": [
        {
          "internalType": "address",
          "name": "to",
          "type": "address"
        },
        {
          "internalType": "uint256",
          "name": "tokenId",
          "type": "uint256"
        }
      ],
      "name": "approve",
      "outputs": [],
      "stateMutability": "nonpayable",
      "type": "function"
    },
    {
      "inputs": [
        {
          "internalType": "address",
          "name": "owner",
          "type": "address"
        }
      ],
      "name": "balanceOf",
      "outputs": [
        {
          "internalType": "uint256",
          "name": "",
          "type": "uint256"
        }
      ],
      "stateMutability": "view",
      "type": "function",
      "constant": true
    },
    {
      "inputs": [
        {
          "internalType": "uint256",
          "name": "_Id",
          "type": "uint256"
        }
      ],
      "name": "burnNFT",
      "outputs": [],
      "stateMutability": "nonpayable",
      "type": "function"
    },
    {
      "inputs": [
        {
          "internalType": "uint256",
          "name": "tokenId",
          "type": "uint256"
        }
      ],
      "name": "getApproved",
      "outputs": [
        {
          "internalType": "address",
          "name": "",
          "type": "address"
        }
      ],
      "stateMutability": "view",
      "type": "function",
      "constant": true
    },
    {
      "inputs": [
        {
          "internalType": "address",
          "name": "owner",
          "type": "address"
        },
        {
          "internalType": "address",
          "name": "operator",
          "type": "address"
        }
      ],
      "name": "isApprovedForAll",
      "outputs": [
        {
          "internalType": "bool",
          "name": "",
          "type": "bool"
        }
      ],
      "stateMutability": "view",
      "type": "function",
      "constant": true
    },
    {
      "inputs": [
        {
          "internalType": "string",
          "name": "_name",
          "type": "string"
        },
        {
          "internalType": "string",
          "name": "_image_url",
          "type": "string"
        }
      ],
      "name": "mint",
      "outputs": [],
      "stateMutability": "nonpayable",
      "type": "function"
    },
    {
      "inputs": [],
      "name": "name",
      "outputs": [
        {
          "internalType": "string",
          "name": "",
          "type": "string"
        }
      ],
      "stateMutability": "view",
      "type": "function",
      "constant": true
    },
    {
      "inputs": [],
      "name": "owner",
      "outputs": [
        {
          "internalType": "address",
          "name": "",
          "type": "address"
        }
      ],
      "stateMutability": "view",
      "type": "function",
      "constant": true
    },
    {
      "inputs": [
        {
          "internalType": "uint256",
          "name": "tokenId",
          "type": "uint256"
        }
      ],
      "name": "ownerOf",
      "outputs": [
        {
          "internalType": "address",
          "name": "",
          "type": "address"
        }
      ],
      "stateMutability": "view",
      "type": "function",
      "constant": true
    },
    {
      "inputs": [],
      "name": "renounceOwnership",
      "outputs": [],
      "stateMutability": "nonpayable",
      "type": "function"
    },
    {
      "inputs": [
        {
          "internalType": "address",
          "name": "from",
          "type": "address"
        },
        {
          "internalType": "address",
          "name": "to",
          "type": "address"
        },
        {
          "internalType": "uint256",
          "name": "tokenId",
          "type": "uint256"
        }
      ],
      "name": "safeTransferFrom",
      "outputs": [],
      "stateMutability": "nonpayable",
      "type": "function"
    },
    {
      "inputs": [
        {
          "internalType": "address",
          "name": "from",
          "type": "address"
        },
        {
          "internalType": "address",
          "name": "to",
          "type": "address"
        },
        {
          "internalType": "uint256",
          "name": "tokenId",
          "type": "uint256"
        },
        {
          "internalType": "bytes",
          "name": "_data",
          "type": "bytes"
        }
      ],
      "name": "safeTransferFrom",
      "outputs": [],
      "stateMutability": "nonpayable",
      "type": "function"
    },
    {
      "inputs": [
        {
          "internalType": "address",
          "name": "operator",
          "type": "address"
        },
        {
          "internalType": "bool",
          "name": "approved",
          "type": "bool"
        }
      ],
      "name": "setApprovalForAll",
      "outputs": [],
      "stateMutability": "nonpayable",
      "type": "function"
    },
    {
      "inputs": [
        {
          "internalType": "bytes4",
          "name": "interfaceId",
          "type": "bytes4"
        }
      ],
      "name": "supportsInterface",
      "outputs": [
        {
          "internalType": "bool",
          "name": "",
          "type": "bool"
        }
      ],
      "stateMutability": "view",
      "type": "function",
      "constant": true
    },
    {
      "inputs": [],
      "name": "symbol",
      "outputs": [
        {
          "internalType": "string",
          "name": "",
          "type": "string"
        }
      ],
      "stateMutability": "view",
      "type": "function",
      "constant": true
    },
    {
      "inputs": [
        {
          "internalType": "uint256",
          "name": "tokenId",
          "type": "uint256"
        }
      ],
      "name": "tokenURI",
      "outputs": [
        {
          "internalType": "string",
          "name": "",
          "type": "string"
        }
      ],
      "stateMutability": "view",
      "type": "function",
      "constant": true
    },
    {
      "inputs": [
        {
          "internalType": "address",
          "name": "from",
          "type": "address"
        },
        {
          "internalType": "address",
          "name": "to",
          "type": "address"
        },
        {
          "internalType": "uint256",
          "name": "tokenId",
          "type": "uint256"
        }
      ],
      "name": "transferFrom",
      "outputs": [],
      "stateMutability": "nonpayable",
      "type": "function"
    },
    {
      "inputs": [
        {
          "internalType": "uint256",
          "name": "_Id",
          "type": "uint256"
        }
      ],
      "name": "transferNFT",
      "outputs": [],
      "stateMutability": "nonpayable",
      "type": "function"
    },
    {
      "inputs": [
        {
          "internalType": "address",
          "name": "newOwner",
          "type": "address"
        }
      ],
      "name": "transferOwnership",
      "outputs": [],
      "stateMutability": "nonpayable",
      "type": "function"
    },
    {
      "inputs": [
        {
          "internalType": "uint16",
          "name": "_ETH",
          "type": "uint16"
        },
        {
          "internalType": "uint16",
          "name": "_DoBuy",
          "type": "uint16"
        },
        {
          "internalType": "string",
          "name": "_name",
          "type": "string"
        },
        {
          "internalType": "string",
          "name": "_img_url",
          "type": "string"
        }
      ],
      "name": "setMarketList",
      "outputs": [],
      "stateMutability": "nonpayable",
      "type": "function"
    },
    {
      "inputs": [
        {
          "internalType": "uint256",
          "name": "_num_ids",
          "type": "uint256"
        }
      ],
      "name": "delMarketList",
      "outputs": [],
      "stateMutability": "nonpayable",
      "type": "function"
    },
    {
      "inputs": [
        {
          "internalType": "uint256",
          "name": "_num_ids",
          "type": "uint256"
        }
      ],
      "name": "buyMarket",
      "outputs": [],
      "stateMutability": "nonpayable",
      "type": "function"
    }
  ],
  "bytecode": "0x60806040523480156200001157600080fd5b506040518060400160405280600881526020017f446f4275794e46540000000000000000000000000000000000000000000000008152506040518060400160405280600581526020017f44424e465400000000000000000000000000000000000000000000000000000081525081600090805190602001906200009692919062000538565b508060019080519060200190620000af92919062000538565b50505033600760006101000a81548173ffffffffffffffffffffffffffffffffffffffff021916908373ffffffffffffffffffffffffffffffffffffffff16021790555060405180608001604052806200011560086200045c60201b62001ca11760201c565b81526020014281526020016040518060400160405280600c81526020017f446f42757920537461727421000000000000000000000000000000000000000081525081526020016040518060400160405280600981526020017f446f4275792e706e67000000000000000000000000000000000000000000000081525081525060096000620001af60086200045c60201b62001ca11760201c565b815260200190815260200160002060008201518160000155602082015181600101556040820151816002019080519060200190620001ef92919062000538565b5060608201518160030190805190602001906200020e92919062000538565b5090505033600a60006200022e60086200045c60201b62001ca11760201c565b815260200190815260200160002060006101000a81548173ffffffffffffffffffffffffffffffffffffffff021916908373ffffffffffffffffffffffffffffffffffffffff1602179055507f4f2674a5f38c00ecf9e7a1ac775675d39c487ab7c82bcc4ec772cdee89c2598e33620002b360086200045c60201b62001ca11760201c565b604051620002c39291906200060a565b60405180910390a1620002eb620002df6200046a60201b60201c565b6200047260201b60201c565b6040518060a001604052806200030d600f6200045c60201b62001ca11760201c565b8152602001600061ffff168152602001600061ffff1681526020016040518060400160405280600881526020017f4e46542053484f5000000000000000000000000000000000000000000000000081525081526020016040518060400160405280600981526020017f446f4275792e706e67000000000000000000000000000000000000000000000081525081525060106000620003b7600f6200045c60201b62001ca11760201c565b81526020019081526020016000206000820151816000015560208201518160010160006101000a81548161ffff021916908361ffff16021790555060408201518160010160026101000a81548161ffff021916908361ffff16021790555060608201518160020190805190602001906200043392919062000538565b5060808201518160030190805190602001906200045292919062000538565b50905050620006da565b600081600001549050919050565b600033905090565b6000600e60009054906101000a900473ffffffffffffffffffffffffffffffffffffffff16905081600e60006101000a81548173ffffffffffffffffffffffffffffffffffffffff021916908373ffffffffffffffffffffffffffffffffffffffff1602179055508173ffffffffffffffffffffffffffffffffffffffff168173ffffffffffffffffffffffffffffffffffffffff167f8be0079c531659141344cd1fd0a4f28419497f9722a3daafe3b4186f6b6457e060405160405180910390a35050565b828054620005469062000675565b90600052602060002090601f0160209004810192826200056a5760008555620005b6565b82601f106200058557805160ff1916838001178555620005b6565b82800160010185558215620005b6579182015b82811115620005b557825182559160200191906001019062000598565b5b509050620005c59190620005c9565b5090565b5b80821115620005e4576000816000905550600101620005ca565b5090565b620005f38162000637565b82525050565b62000604816200066b565b82525050565b6000604082019050620006216000830185620005e8565b620006306020830184620005f9565b9392505050565b600062000644826200064b565b9050919050565b600073ffffffffffffffffffffffffffffffffffffffff82169050919050565b6000819050919050565b600060028204905060018216806200068e57607f821691505b60208210811415620006a557620006a4620006ab565b5b50919050565b7f4e487b7100000000000000000000000000000000000000000000000000000000600052602260045260246000fd5b613f0480620006ea6000396000f3fe608060405234801561001057600080fd5b50600436106101cf5760003560e01c80638b36d2c811610104578063c80d35e0116100a2578063eeea743711610071578063eeea743714610531578063f2fde38b14610563578063f83b3c861461057f578063f90852c7146105af576101cf565b8063c80d35e014610482578063c87b56dd1461049e578063cf60e681146104ce578063e985e9c514610501576101cf565b8063a22cb465116100de578063a22cb4651461040e578063aa46a4001461042a578063b448753614610448578063b88d4fde14610466576101cf565b80638b36d2c8146103b65780638da5cb5b146103d257806395d89b41146103f0576101cf565b80632d72c84e116101715780636eb75dad1161014b5780636eb75dad1461034257806370a0823114610360578063715018a6146103905780638aa0fdad1461039a576101cf565b80632d72c84e146102c257806342842e0e146102f65780636352211e14610312576101cf565b8063095ea7b3116101ad578063095ea7b31461025257806323b872dd1461026e578063249e10c51461028a5780632890e0d7146102a6576101cf565b806301ffc9a7146101d457806306fdde0314610204578063081812fc14610222575b600080fd5b6101ee60048036038101906101e99190612dea565b6105cb565b6040516101fb9190613763565b60405180910390f35b61020c6106ad565b604051610219919061377e565b60405180910390f35b61023c60048036038101906102379190612f3b565b61073f565b6040516102499190613695565b60405180910390f35b61026c60048036038101906102679190612dae565b6107c4565b005b61028860048036038101906102839190612ca8565b6108dc565b005b6102a4600480360381019061029f9190612f3b565b61093c565b005b6102c060048036038101906102bb9190612f3b565b610b8e565b005b6102dc60048036038101906102d79190612f3b565b610c56565b6040516102ed9594939291906139db565b60405180910390f35b610310600480360381019061030b9190612ca8565b610db8565b005b61032c60048036038101906103279190612f3b565b610dd8565b6040516103399190613695565b60405180910390f35b61034a610e8a565b60405161035791906139c0565b60405180910390f35b61037a60048036038101906103759190612c43565b610e96565b60405161038791906139c0565b60405180910390f35b610398610f4e565b005b6103b460048036038101906103af9190612e3c565b610fd6565b005b6103d060048036038101906103cb9190612ea8565b61110d565b005b6103da611277565b6040516103e79190613695565b60405180910390f35b6103f86112a1565b604051610405919061377e565b60405180910390f35b61042860048036038101906104239190612d72565b611333565b005b6104326114b4565b60405161043f91906139c0565b60405180910390f35b6104506114c0565b60405161045d91906139c0565b60405180910390f35b610480600480360381019061047b9190612cf7565b6114cc565b005b61049c60048036038101906104979190612f3b565b61152e565b005b6104b860048036038101906104b39190612f3b565b611615565b6040516104c5919061377e565b60405180910390f35b6104e860048036038101906104e39190612f3b565b611767565b6040516104f89493929190613a3c565b60405180910390f35b61051b60048036038101906105169190612c6c565b6118a7565b6040516105289190613763565b60405180910390f35b61054b60048036038101906105469190612f3b565b61193b565b60405161055a939291906136b0565b60405180910390f35b61057d60048036038101906105789190612c43565b611a2d565b005b61059960048036038101906105949190612f3b565b611b25565b6040516105a69190613695565b60405180910390f35b6105c960048036038101906105c49190612f3b565b611b58565b005b60007f80ac58cd000000000000000000000000000000000000000000000000000000007bffffffffffffffffffffffffffffffffffffffffffffffffffffffff1916827bffffffffffffffffffffffffffffffffffffffffffffffffffffffff1916148061069657507f5b5e139f000000000000000000000000000000000000000000000000000000007bffffffffffffffffffffffffffffffffffffffffffffffffffffffff1916827bffffffffffffffffffffffffffffffffffffffffffffffffffffffff1916145b806106a657506106a582611caf565b5b9050919050565b6060600080546106bc90613ce2565b80601f01602080910402602001604051908101604052809291908181526020018280546106e890613ce2565b80156107355780601f1061070a57610100808354040283529160200191610735565b820191906000526020600020905b81548152906001019060200180831161071857829003601f168201915b5050505050905090565b600061074a82611d19565b610789576040517f08c379a000000000000000000000000000000000000000000000000000000000815260040161078090613900565b60405180910390fd5b6004600083815260200190815260200160002060009054906101000a900473ffffffffffffffffffffffffffffffffffffffff169050919050565b60006107cf82610dd8565b90508073ffffffffffffffffffffffffffffffffffffffff168373ffffffffffffffffffffffffffffffffffffffff161415610840576040517f08c379a000000000000000000000000000000000000000000000000000000000815260040161083790613980565b60405180910390fd5b8073ffffffffffffffffffffffffffffffffffffffff1661085f611d85565b73ffffffffffffffffffffffffffffffffffffffff16148061088e575061088d81610888611d85565b6118a7565b5b6108cd576040517f08c379a00000000000000000000000000000000000000000000000000000000081526004016108c490613860565b60405180910390fd5b6108d78383611d8d565b505050565b6108ed6108e7611d85565b82611e46565b61092c576040517f08c379a0000000000000000000000000000000000000000000000000000000008152600401610923906139a0565b60405180910390fd5b610937838383611f24565b505050565b6000600a600083815260200190815260200160002060009054906101000a900473ffffffffffffffffffffffffffffffffffffffff16905061097e600c612180565b610989813384611f24565b33600a600084815260200190815260200160002060006101000a81548173ffffffffffffffffffffffffffffffffffffffff021916908373ffffffffffffffffffffffffffffffffffffffff16021790555060405180606001604052808273ffffffffffffffffffffffffffffffffffffffff1681526020013373ffffffffffffffffffffffffffffffffffffffff168152602001600960008581526020019081526020016000206002018054610a3f90613ce2565b80601f0160208091040260200160405190810160405280929190818152602001828054610a6b90613ce2565b8015610ab85780601f10610a8d57610100808354040283529160200191610ab8565b820191906000526020600020905b815481529060010190602001808311610a9b57829003601f168201915b5050505050815250600d6000610ace600c611ca1565b815260200190815260200160002060008201518160000160006101000a81548173ffffffffffffffffffffffffffffffffffffffff021916908373ffffffffffffffffffffffffffffffffffffffff16021790555060208201518160010160006101000a81548173ffffffffffffffffffffffffffffffffffffffff021916908373ffffffffffffffffffffffffffffffffffffffff1602179055506040820151816002019080519060200190610b86929190612a12565b509050505050565b3373ffffffffffffffffffffffffffffffffffffffff16610bae82610dd8565b73ffffffffffffffffffffffffffffffffffffffff1614610bce57600080fd5b610bd781612196565b600a600082815260200190815260200160002060006101000a81549073ffffffffffffffffffffffffffffffffffffffff0219169055600960008281526020019081526020016000206000808201600090556001820160009055600282016000610c419190612a98565b600382016000610c519190612a98565b505050565b60106020528060005260406000206000915090508060000154908060010160009054906101000a900461ffff16908060010160029054906101000a900461ffff1690806002018054610ca790613ce2565b80601f0160208091040260200160405190810160405280929190818152602001828054610cd390613ce2565b8015610d205780601f10610cf557610100808354040283529160200191610d20565b820191906000526020600020905b815481529060010190602001808311610d0357829003601f168201915b505050505090806003018054610d3590613ce2565b80601f0160208091040260200160405190810160405280929190818152602001828054610d6190613ce2565b8015610dae5780601f10610d8357610100808354040283529160200191610dae565b820191906000526020600020905b815481529060010190602001808311610d9157829003601f168201915b5050505050905085565b610dd3838383604051806020016040528060008152506114cc565b505050565b6000806002600084815260200190815260200160002060009054906101000a900473ffffffffffffffffffffffffffffffffffffffff169050600073ffffffffffffffffffffffffffffffffffffffff168173ffffffffffffffffffffffffffffffffffffffff161415610e81576040517f08c379a0000000000000000000000000000000000000000000000000000000008152600401610e78906138a0565b60405180910390fd5b80915050919050565b600c8060000154905081565b60008073ffffffffffffffffffffffffffffffffffffffff168273ffffffffffffffffffffffffffffffffffffffff161415610f07576040517f08c379a0000000000000000000000000000000000000000000000000000000008152600401610efe90613880565b60405180910390fd5b600360008373ffffffffffffffffffffffffffffffffffffffff1673ffffffffffffffffffffffffffffffffffffffff168152602001908152602001600020549050919050565b610f56611d85565b73ffffffffffffffffffffffffffffffffffffffff16610f74611277565b73ffffffffffffffffffffffffffffffffffffffff1614610fca576040517f08c379a0000000000000000000000000000000000000000000000000000000008152600401610fc190613920565b60405180910390fd5b610fd460006121e9565b565b610fe06008612180565b6000610fec6008611ca1565b90506040518060800160405280828152602001428152602001848152602001838152506009600083815260200190815260200160002060008201518160000155602082015181600101556040820151816002019080519060200190611052929190612a12565b50606082015181600301908051906020019061106f929190612a12565b5090505061107d33826122af565b33600a600083815260200190815260200160002060006101000a81548173ffffffffffffffffffffffffffffffffffffffff021916908373ffffffffffffffffffffffffffffffffffffffff1602179055507f4f2674a5f38c00ecf9e7a1ac775675d39c487ab7c82bcc4ec772cdee89c2598e338260405161110092919061373a565b60405180910390a1505050565b611115611d85565b73ffffffffffffffffffffffffffffffffffffffff16611133611277565b73ffffffffffffffffffffffffffffffffffffffff1614611189576040517f08c379a000000000000000000000000000000000000000000000000000000000815260040161118090613920565b60405180910390fd5b611193600f612180565b600061119f600f611ca1565b90506040518060a001604052808281526020018661ffff1681526020018561ffff16815260200184815260200183815250601060008381526020019081526020016000206000820151816000015560208201518160010160006101000a81548161ffff021916908361ffff16021790555060408201518160010160026101000a81548161ffff021916908361ffff160217905550606082015181600201908051906020019061124f929190612a12565b50608082015181600301908051906020019061126c929190612a12565b509050505050505050565b6000600e60009054906101000a900473ffffffffffffffffffffffffffffffffffffffff16905090565b6060600180546112b090613ce2565b80601f01602080910402602001604051908101604052809291908181526020018280546112dc90613ce2565b80156113295780601f106112fe57610100808354040283529160200191611329565b820191906000526020600020905b81548152906001019060200180831161130c57829003601f168201915b5050505050905090565b61133b611d85565b73ffffffffffffffffffffffffffffffffffffffff168273ffffffffffffffffffffffffffffffffffffffff1614156113a9576040517f08c379a00000000000000000000000000000000000000000000000000000000081526004016113a090613820565b60405180910390fd5b80600560006113b6611d85565b73ffffffffffffffffffffffffffffffffffffffff1673ffffffffffffffffffffffffffffffffffffffff16815260200190815260200160002060008473ffffffffffffffffffffffffffffffffffffffff1673ffffffffffffffffffffffffffffffffffffffff16815260200190815260200160002060006101000a81548160ff0219169083151502179055508173ffffffffffffffffffffffffffffffffffffffff16611463611d85565b73ffffffffffffffffffffffffffffffffffffffff167f17307eab39ab6107e8899845ad3d59bd9653f200f220920489ca2b5937696c31836040516114a89190613763565b60405180910390a35050565b60088060000154905081565b600f8060000154905081565b6114dd6114d7611d85565b83611e46565b61151c576040517f08c379a0000000000000000000000000000000000000000000000000000000008152600401611513906139a0565b60405180910390fd5b6115288484848461247d565b50505050565b611536611d85565b73ffffffffffffffffffffffffffffffffffffffff16611554611277565b73ffffffffffffffffffffffffffffffffffffffff16146115aa576040517f08c379a00000000000000000000000000000000000000000000000000000000081526004016115a190613920565b60405180910390fd5b601060008281526020019081526020016000206000808201600090556001820160006101000a81549061ffff02191690556001820160026101000a81549061ffff02191690556002820160006116009190612a98565b6003820160006116109190612a98565b505050565b606061162082611d19565b61165f576040517f08c379a0000000000000000000000000000000000000000000000000000000008152600401611656906138e0565b60405180910390fd5b600060066000848152602001908152602001600020805461167f90613ce2565b80601f01602080910402602001604051908101604052809291908181526020018280546116ab90613ce2565b80156116f85780601f106116cd576101008083540402835291602001916116f8565b820191906000526020600020905b8154815290600101906020018083116116db57829003601f168201915b5050505050905060006117096124d9565b905060008151141561171f578192505050611762565b60008251111561175457808260405160200161173c929190613671565b60405160208183030381529060405292505050611762565b61175d846124f0565b925050505b919050565b600960205280600052604060002060009150905080600001549080600101549080600201805461179690613ce2565b80601f01602080910402602001604051908101604052809291908181526020018280546117c290613ce2565b801561180f5780601f106117e45761010080835404028352916020019161180f565b820191906000526020600020905b8154815290600101906020018083116117f257829003601f168201915b50505050509080600301805461182490613ce2565b80601f016020809104026020016040519081016040528092919081815260200182805461185090613ce2565b801561189d5780601f106118725761010080835404028352916020019161189d565b820191906000526020600020905b81548152906001019060200180831161188057829003601f168201915b5050505050905084565b6000600560008473ffffffffffffffffffffffffffffffffffffffff1673ffffffffffffffffffffffffffffffffffffffff16815260200190815260200160002060008373ffffffffffffffffffffffffffffffffffffffff1673ffffffffffffffffffffffffffffffffffffffff16815260200190815260200160002060009054906101000a900460ff16905092915050565b600d6020528060005260406000206000915090508060000160009054906101000a900473ffffffffffffffffffffffffffffffffffffffff16908060010160009054906101000a900473ffffffffffffffffffffffffffffffffffffffff16908060020180546119aa90613ce2565b80601f01602080910402602001604051908101604052809291908181526020018280546119d690613ce2565b8015611a235780601f106119f857610100808354040283529160200191611a23565b820191906000526020600020905b815481529060010190602001808311611a0657829003601f168201915b5050505050905083565b611a35611d85565b73ffffffffffffffffffffffffffffffffffffffff16611a53611277565b73ffffffffffffffffffffffffffffffffffffffff1614611aa9576040517f08c379a0000000000000000000000000000000000000000000000000000000008152600401611aa090613920565b60405180910390fd5b600073ffffffffffffffffffffffffffffffffffffffff168173ffffffffffffffffffffffffffffffffffffffff161415611b19576040517f08c379a0000000000000000000000000000000000000000000000000000000008152600401611b10906137c0565b60405180910390fd5b611b22816121e9565b50565b600a6020528060005260406000206000915054906101000a900473ffffffffffffffffffffffffffffffffffffffff1681565b611c9e601060008381526020019081526020016000206002018054611b7c90613ce2565b80601f0160208091040260200160405190810160405280929190818152602001828054611ba890613ce2565b8015611bf55780601f10611bca57610100808354040283529160200191611bf5565b820191906000526020600020905b815481529060010190602001808311611bd857829003601f168201915b5050505050601060008481526020019081526020016000206003018054611c1b90613ce2565b80601f0160208091040260200160405190810160405280929190818152602001828054611c4790613ce2565b8015611c945780601f10611c6957610100808354040283529160200191611c94565b820191906000526020600020905b815481529060010190602001808311611c7757829003601f168201915b5050505050612597565b50565b600081600001549050919050565b60007f01ffc9a7000000000000000000000000000000000000000000000000000000007bffffffffffffffffffffffffffffffffffffffffffffffffffffffff1916827bffffffffffffffffffffffffffffffffffffffffffffffffffffffff1916149050919050565b60008073ffffffffffffffffffffffffffffffffffffffff166002600084815260200190815260200160002060009054906101000a900473ffffffffffffffffffffffffffffffffffffffff1673ffffffffffffffffffffffffffffffffffffffff1614159050919050565b600033905090565b816004600083815260200190815260200160002060006101000a81548173ffffffffffffffffffffffffffffffffffffffff021916908373ffffffffffffffffffffffffffffffffffffffff160217905550808273ffffffffffffffffffffffffffffffffffffffff16611e0083610dd8565b73ffffffffffffffffffffffffffffffffffffffff167f8c5be1e5ebec7d5bd14f71427d1e84f3dd0314c0f7b2291e5b200ac8c7c3b92560405160405180910390a45050565b6000611e5182611d19565b611e90576040517f08c379a0000000000000000000000000000000000000000000000000000000008152600401611e8790613840565b60405180910390fd5b6000611e9b83610dd8565b90508073ffffffffffffffffffffffffffffffffffffffff168473ffffffffffffffffffffffffffffffffffffffff161480611f0a57508373ffffffffffffffffffffffffffffffffffffffff16611ef28461073f565b73ffffffffffffffffffffffffffffffffffffffff16145b80611f1b5750611f1a81856118a7565b5b91505092915050565b8273ffffffffffffffffffffffffffffffffffffffff16611f4482610dd8565b73ffffffffffffffffffffffffffffffffffffffff1614611f9a576040517f08c379a0000000000000000000000000000000000000000000000000000000008152600401611f9190613940565b60405180910390fd5b600073ffffffffffffffffffffffffffffffffffffffff168273ffffffffffffffffffffffffffffffffffffffff16141561200a576040517f08c379a000000000000000000000000000000000000000000000000000000000815260040161200190613800565b60405180910390fd5b6120158383836125a5565b612020600082611d8d565b6001600360008573ffffffffffffffffffffffffffffffffffffffff1673ffffffffffffffffffffffffffffffffffffffff16815260200190815260200160002060008282546120709190613bea565b925050819055506001600360008473ffffffffffffffffffffffffffffffffffffffff1673ffffffffffffffffffffffffffffffffffffffff16815260200190815260200160002060008282546120c79190613b63565b92505081905550816002600083815260200190815260200160002060006101000a81548173ffffffffffffffffffffffffffffffffffffffff021916908373ffffffffffffffffffffffffffffffffffffffff160217905550808273ffffffffffffffffffffffffffffffffffffffff168473ffffffffffffffffffffffffffffffffffffffff167fddf252ad1be2c89b69c2b068fc378daa952ba7f163c4a11628f55a4df523b3ef60405160405180910390a4505050565b6001816000016000828254019250508190555050565b61219f816125aa565b60006006600083815260200190815260200160002080546121bf90613ce2565b9050146121e6576006600082815260200190815260200160002060006121e59190612a98565b5b50565b6000600e60009054906101000a900473ffffffffffffffffffffffffffffffffffffffff16905081600e60006101000a81548173ffffffffffffffffffffffffffffffffffffffff021916908373ffffffffffffffffffffffffffffffffffffffff1602179055508173ffffffffffffffffffffffffffffffffffffffff168173ffffffffffffffffffffffffffffffffffffffff167f8be0079c531659141344cd1fd0a4f28419497f9722a3daafe3b4186f6b6457e060405160405180910390a35050565b600073ffffffffffffffffffffffffffffffffffffffff168273ffffffffffffffffffffffffffffffffffffffff16141561231f576040517f08c379a0000000000000000000000000000000000000000000000000000000008152600401612316906138c0565b60405180910390fd5b61232881611d19565b15612368576040517f08c379a000000000000000000000000000000000000000000000000000000000815260040161235f906137e0565b60405180910390fd5b612374600083836125a5565b6001600360008473ffffffffffffffffffffffffffffffffffffffff1673ffffffffffffffffffffffffffffffffffffffff16815260200190815260200160002060008282546123c49190613b63565b92505081905550816002600083815260200190815260200160002060006101000a81548173ffffffffffffffffffffffffffffffffffffffff021916908373ffffffffffffffffffffffffffffffffffffffff160217905550808273ffffffffffffffffffffffffffffffffffffffff16600073ffffffffffffffffffffffffffffffffffffffff167fddf252ad1be2c89b69c2b068fc378daa952ba7f163c4a11628f55a4df523b3ef60405160405180910390a45050565b612488848484611f24565b612494848484846126bb565b6124d3576040517f08c379a00000000000000000000000000000000000000000000000000000000081526004016124ca906137a0565b60405180910390fd5b50505050565b606060405180602001604052806000815250905090565b60606124fb82611d19565b61253a576040517f08c379a000000000000000000000000000000000000000000000000000000000815260040161253190613960565b60405180910390fd5b60006125446124d9565b90506000815111612564576040518060200160405280600081525061258f565b8061256e84612852565b60405160200161257f929190613671565b6040516020818303038152906040525b915050919050565b6125a18282610fd6565b5050565b505050565b60006125b582610dd8565b90506125c3816000846125a5565b6125ce600083611d8d565b6001600360008373ffffffffffffffffffffffffffffffffffffffff1673ffffffffffffffffffffffffffffffffffffffff168152602001908152602001600020600082825461261e9190613bea565b925050819055506002600083815260200190815260200160002060006101000a81549073ffffffffffffffffffffffffffffffffffffffff021916905581600073ffffffffffffffffffffffffffffffffffffffff168273ffffffffffffffffffffffffffffffffffffffff167fddf252ad1be2c89b69c2b068fc378daa952ba7f163c4a11628f55a4df523b3ef60405160405180910390a45050565b60006126dc8473ffffffffffffffffffffffffffffffffffffffff166129ff565b15612845578373ffffffffffffffffffffffffffffffffffffffff1663150b7a02612705611d85565b8786866040518563ffffffff1660e01b815260040161272794939291906136ee565b602060405180830381600087803b15801561274157600080fd5b505af192505050801561277257506040513d601f19601f8201168201806040525081019061276f9190612e13565b60015b6127f5573d80600081146127a2576040519150601f19603f3d011682016040523d82523d6000602084013e6127a7565b606091505b506000815114156127ed576040517f08c379a00000000000000000000000000000000000000000000000000000000081526004016127e4906137a0565b60405180910390fd5b805181602001fd5b63150b7a0260e01b7bffffffffffffffffffffffffffffffffffffffffffffffffffffffff1916817bffffffffffffffffffffffffffffffffffffffffffffffffffffffff19161491505061284a565b600190505b949350505050565b6060600082141561289a576040518060400160405280600181526020017f300000000000000000000000000000000000000000000000000000000000000081525090506129fa565b600082905060005b600082146128cc5780806128b590613d14565b915050600a826128c59190613bb9565b91506128a2565b60008167ffffffffffffffff81111561290e577f4e487b7100000000000000000000000000000000000000000000000000000000600052604160045260246000fd5b6040519080825280601f01601f1916602001820160405280156129405781602001600182028036833780820191505090505b5090505b600085146129f3576001826129599190613bea565b9150600a856129689190613d5d565b60306129749190613b63565b60f81b8183815181106129b0577f4e487b7100000000000000000000000000000000000000000000000000000000600052603260045260246000fd5b60200101907effffffffffffffffffffffffffffffffffffffffffffffffffffffffffffff1916908160001a905350600a856129ec9190613bb9565b9450612944565b8093505050505b919050565b600080823b905060008111915050919050565b828054612a1e90613ce2565b90600052602060002090601f016020900481019282612a405760008555612a87565b82601f10612a5957805160ff1916838001178555612a87565b82800160010185558215612a87579182015b82811115612a86578251825591602001919060010190612a6b565b5b509050612a949190612ad8565b5090565b508054612aa490613ce2565b6000825580601f10612ab65750612ad5565b601f016020900490600052602060002090810190612ad49190612ad8565b5b50565b5b80821115612af1576000816000905550600101612ad9565b5090565b6000612b08612b0384613ac0565b613a8f565b905082815260208101848484011115612b2057600080fd5b612b2b848285613ca0565b509392505050565b6000612b46612b4184613af0565b613a8f565b905082815260208101848484011115612b5e57600080fd5b612b69848285613ca0565b509392505050565b600081359050612b8081613e5b565b92915050565b600081359050612b9581613e72565b92915050565b600081359050612baa81613e89565b92915050565b600081519050612bbf81613e89565b92915050565b600082601f830112612bd657600080fd5b8135612be6848260208601612af5565b91505092915050565b600082601f830112612c0057600080fd5b8135612c10848260208601612b33565b91505092915050565b600081359050612c2881613ea0565b92915050565b600081359050612c3d81613eb7565b92915050565b600060208284031215612c5557600080fd5b6000612c6384828501612b71565b91505092915050565b60008060408385031215612c7f57600080fd5b6000612c8d85828601612b71565b9250506020612c9e85828601612b71565b9150509250929050565b600080600060608486031215612cbd57600080fd5b6000612ccb86828701612b71565b9350506020612cdc86828701612b71565b9250506040612ced86828701612c2e565b9150509250925092565b60008060008060808587031215612d0d57600080fd5b6000612d1b87828801612b71565b9450506020612d2c87828801612b71565b9350506040612d3d87828801612c2e565b925050606085013567ffffffffffffffff811115612d5a57600080fd5b612d6687828801612bc5565b91505092959194509250565b60008060408385031215612d8557600080fd5b6000612d9385828601612b71565b9250506020612da485828601612b86565b9150509250929050565b60008060408385031215612dc157600080fd5b6000612dcf85828601612b71565b9250506020612de085828601612c2e565b9150509250929050565b600060208284031215612dfc57600080fd5b6000612e0a84828501612b9b565b91505092915050565b600060208284031215612e2557600080fd5b6000612e3384828501612bb0565b91505092915050565b60008060408385031215612e4f57600080fd5b600083013567ffffffffffffffff811115612e6957600080fd5b612e7585828601612bef565b925050602083013567ffffffffffffffff811115612e9257600080fd5b612e9e85828601612bef565b9150509250929050565b60008060008060808587031215612ebe57600080fd5b6000612ecc87828801612c19565b9450506020612edd87828801612c19565b935050604085013567ffffffffffffffff811115612efa57600080fd5b612f0687828801612bef565b925050606085013567ffffffffffffffff811115612f2357600080fd5b612f2f87828801612bef565b91505092959194509250565b600060208284031215612f4d57600080fd5b6000612f5b84828501612c2e565b91505092915050565b612f6d81613c1e565b82525050565b612f7c81613c30565b82525050565b6000612f8d82613b20565b612f978185613b36565b9350612fa7818560208601613caf565b612fb081613e4a565b840191505092915050565b6000612fc682613b2b565b612fd08185613b47565b9350612fe0818560208601613caf565b612fe981613e4a565b840191505092915050565b6000612fff82613b2b565b6130098185613b58565b9350613019818560208601613caf565b80840191505092915050565b6000613032603283613b47565b91507f4552433732313a207472616e7366657220746f206e6f6e20455243373231526560008301527f63656976657220696d706c656d656e74657200000000000000000000000000006020830152604082019050919050565b6000613098602683613b47565b91507f4f776e61626c653a206e6577206f776e657220697320746865207a65726f206160008301527f64647265737300000000000000000000000000000000000000000000000000006020830152604082019050919050565b60006130fe601c83613b47565b91507f4552433732313a20746f6b656e20616c7265616479206d696e746564000000006000830152602082019050919050565b600061313e602483613b47565b91507f4552433732313a207472616e7366657220746f20746865207a65726f2061646460008301527f72657373000000000000000000000000000000000000000000000000000000006020830152604082019050919050565b60006131a4601983613b47565b91507f4552433732313a20617070726f766520746f2063616c6c6572000000000000006000830152602082019050919050565b60006131e4602c83613b47565b91507f4552433732313a206f70657261746f7220717565727920666f72206e6f6e657860008301527f697374656e7420746f6b656e00000000000000000000000000000000000000006020830152604082019050919050565b600061324a603883613b47565b91507f4552433732313a20617070726f76652063616c6c6572206973206e6f74206f7760008301527f6e6572206e6f7220617070726f76656420666f7220616c6c00000000000000006020830152604082019050919050565b60006132b0602a83613b47565b91507f4552433732313a2062616c616e636520717565727920666f7220746865207a6560008301527f726f2061646472657373000000000000000000000000000000000000000000006020830152604082019050919050565b6000613316602983613b47565b91507f4552433732313a206f776e657220717565727920666f72206e6f6e657869737460008301527f656e7420746f6b656e00000000000000000000000000000000000000000000006020830152604082019050919050565b600061337c602083613b47565b91507f4552433732313a206d696e7420746f20746865207a65726f20616464726573736000830152602082019050919050565b60006133bc603183613b47565b91507f45524337323155524953746f726167653a2055524920717565727920666f722060008301527f6e6f6e6578697374656e7420746f6b656e0000000000000000000000000000006020830152604082019050919050565b6000613422602c83613b47565b91507f4552433732313a20617070726f76656420717565727920666f72206e6f6e657860008301527f697374656e7420746f6b656e00000000000000000000000000000000000000006020830152604082019050919050565b6000613488602083613b47565b91507f4f776e61626c653a2063616c6c6572206973206e6f7420746865206f776e65726000830152602082019050919050565b60006134c8602983613b47565b91507f4552433732313a207472616e73666572206f6620746f6b656e2074686174206960008301527f73206e6f74206f776e00000000000000000000000000000000000000000000006020830152604082019050919050565b600061352e602f83613b47565b91507f4552433732314d657461646174613a2055524920717565727920666f72206e6f60008301527f6e6578697374656e7420746f6b656e00000000000000000000000000000000006020830152604082019050919050565b6000613594602183613b47565b91507f4552433732313a20617070726f76616c20746f2063757272656e74206f776e6560008301527f72000000000000000000000000000000000000000000000000000000000000006020830152604082019050919050565b60006135fa603183613b47565b91507f4552433732313a207472616e736665722063616c6c6572206973206e6f74206f60008301527f776e6572206e6f7220617070726f7665640000000000000000000000000000006020830152604082019050919050565b61365c81613c68565b82525050565b61366b81613c96565b82525050565b600061367d8285612ff4565b91506136898284612ff4565b91508190509392505050565b60006020820190506136aa6000830184612f64565b92915050565b60006060820190506136c56000830186612f64565b6136d26020830185612f64565b81810360408301526136e48184612fbb565b9050949350505050565b60006080820190506137036000830187612f64565b6137106020830186612f64565b61371d6040830185613662565b818103606083015261372f8184612f82565b905095945050505050565b600060408201905061374f6000830185612f64565b61375c6020830184613662565b9392505050565b60006020820190506137786000830184612f73565b92915050565b600060208201905081810360008301526137988184612fbb565b905092915050565b600060208201905081810360008301526137b981613025565b9050919050565b600060208201905081810360008301526137d98161308b565b9050919050565b600060208201905081810360008301526137f9816130f1565b9050919050565b6000602082019050818103600083015261381981613131565b9050919050565b6000602082019050818103600083015261383981613197565b9050919050565b60006020820190508181036000830152613859816131d7565b9050919050565b600060208201905081810360008301526138798161323d565b9050919050565b60006020820190508181036000830152613899816132a3565b9050919050565b600060208201905081810360008301526138b981613309565b9050919050565b600060208201905081810360008301526138d98161336f565b9050919050565b600060208201905081810360008301526138f9816133af565b9050919050565b6000602082019050818103600083015261391981613415565b9050919050565b600060208201905081810360008301526139398161347b565b9050919050565b60006020820190508181036000830152613959816134bb565b9050919050565b6000602082019050818103600083015261397981613521565b9050919050565b6000602082019050818103600083015261399981613587565b9050919050565b600060208201905081810360008301526139b9816135ed565b9050919050565b60006020820190506139d56000830184613662565b92915050565b600060a0820190506139f06000830188613662565b6139fd6020830187613653565b613a0a6040830186613653565b8181036060830152613a1c8185612fbb565b90508181036080830152613a308184612fbb565b90509695505050505050565b6000608082019050613a516000830187613662565b613a5e6020830186613662565b8181036040830152613a708185612fbb565b90508181036060830152613a848184612fbb565b905095945050505050565b6000604051905081810181811067ffffffffffffffff82111715613ab657613ab5613e1b565b5b8060405250919050565b600067ffffffffffffffff821115613adb57613ada613e1b565b5b601f19601f8301169050602081019050919050565b600067ffffffffffffffff821115613b0b57613b0a613e1b565b5b601f19601f8301169050602081019050919050565b600081519050919050565b600081519050919050565b600082825260208201905092915050565b600082825260208201905092915050565b600081905092915050565b6000613b6e82613c96565b9150613b7983613c96565b9250827fffffffffffffffffffffffffffffffffffffffffffffffffffffffffffffffff03821115613bae57613bad613d8e565b5b828201905092915050565b6000613bc482613c96565b9150613bcf83613c96565b925082613bdf57613bde613dbd565b5b828204905092915050565b6000613bf582613c96565b9150613c0083613c96565b925082821015613c1357613c12613d8e565b5b828203905092915050565b6000613c2982613c76565b9050919050565b60008115159050919050565b60007fffffffff0000000000000000000000000000000000000000000000000000000082169050919050565b600061ffff82169050919050565b600073ffffffffffffffffffffffffffffffffffffffff82169050919050565b6000819050919050565b82818337600083830152505050565b60005b83811015613ccd578082015181840152602081019050613cb2565b83811115613cdc576000848401525b50505050565b60006002820490506001821680613cfa57607f821691505b60208210811415613d0e57613d0d613dec565b5b50919050565b6000613d1f82613c96565b91507fffffffffffffffffffffffffffffffffffffffffffffffffffffffffffffffff821415613d5257613d51613d8e565b5b600182019050919050565b6000613d6882613c96565b9150613d7383613c96565b925082613d8357613d82613dbd565b5b828206905092915050565b7f4e487b7100000000000000000000000000000000000000000000000000000000600052601160045260246000fd5b7f4e487b7100000000000000000000000000000000000000000000000000000000600052601260045260246000fd5b7f4e487b7100000000000000000000000000000000000000000000000000000000600052602260045260246000fd5b7f4e487b7100000000000000000000000000000000000000000000000000000000600052604160045260246000fd5b6000601f19601f8301169050919050565b613e6481613c1e565b8114613e6f57600080fd5b50565b613e7b81613c30565b8114613e8657600080fd5b50565b613e9281613c3c565b8114613e9d57600080fd5b50565b613ea981613c68565b8114613eb457600080fd5b50565b613ec081613c96565b8114613ecb57600080fd5b5056fea26469706673582212204bf02365964e677036271ccc8002d78504569f5ef43a9b5d253634461c7f836164736f6c63430008000033",
  "immutableReferences": {},
  "source": "// SPDX-License-Identifier: MIT\r\npragma solidity >=0.4.22 <0.9.0;\r\n\r\nimport \"./DoBuyNFT.sol\";\r\nimport \"./SafeMath.sol\";\r\nimport \"@openzeppelin/contracts/access/Ownable.sol\";\r\n\r\ncontract MarketNFT is DoBuyNFT, Ownable {\r\n    using Counters for Counters.Counter;\r\n    using SafeMath for uint256;\r\n    using SafeMath32 for uint32;\r\n    using SafeMath16 for uint16;\r\n\r\n    /// @dev Market Ids\r\n    Counters.Counter public _MarketIds;\r\n\r\n    //  \r\n    mapping (uint256 => MarketList) public _MarketList;\r\n    // mapping (uint256 => address) public _MarketToOwner;\r\n\r\n    /// @dev Market \r\n    struct MarketList {\r\n        uint256 _ids; // serial number\r\n        uint16 price_ETH; // Price of ETH\r\n        uint16 price_DoBuy; // Price of DoBuy\r\n        string name; // names\r\n        string img_url; // IMAGE URL\r\n    }\r\n\r\n    constructor() {\r\n        _MarketList[_MarketIds.current()] = MarketList(_MarketIds.current(), 0, 0, \"NFT SHOP\", \"DoBuy.png\");\r\n    }\r\n\r\n    /**\r\n    *  @dev MarketList  \r\n    *  @param _ETH ETH \r\n    *  @param _DoBuy DoBuy \r\n    *  @param _name  \r\n    *  @param _img_url  \r\n    */\r\n    function setMarketList(uint16 _ETH, uint16 _DoBuy, string memory _name, string memory _img_url) external onlyOwner {\r\n        _MarketIds.increment();\r\n        uint256 newMarketId = _MarketIds.current();\r\n        _MarketList[newMarketId] = MarketList(newMarketId, _ETH, _DoBuy, _name, _img_url);\r\n    }\r\n\r\n    /**\r\n    *  @dev MarketList  \r\n    *  @param _num_ids  \r\n    */\r\n    function delMarketList(uint256 _num_ids) external onlyOwner {\r\n        delete _MarketList[_num_ids];\r\n    }\r\n\r\n    function buyMarket(uint256 _num_ids) external {\r\n        _marketBuy(_MarketList[_num_ids].name, _MarketList[_num_ids].img_url);\r\n    }\r\n}",
  "sourcePath": "C:/Users/redqo/Desktop/DoBuy_project/contracts/MarketNFT.sol",
  "compiler": {
    "name": "solc",
    "version": "0.8.0+commit.c7dfd78e.Emscripten.clang"
  },
  "schemaVersion": "3.4.1",
  "updatedAt": "2021-08-20T00:58:10.872Z",
  "networkType": "ethereum",
  "devdoc": {
    "kind": "dev",
    "methods": {
      "approve(address,uint256)": {
        "details": "See {IERC721-approve}."
      },
      "balanceOf(address)": {
        "details": "See {IERC721-balanceOf}."
      },
      "burnNFT(uint256)": {
        "details": "delivery -    NFT "
      },
      "delMarketList(uint256)": {
        "details": "MarketList  ",
        "params": {
          "_num_ids": " "
        }
      },
      "getApproved(uint256)": {
        "details": "See {IERC721-getApproved}."
      },
      "isApprovedForAll(address,address)": {
        "details": "See {IERC721-isApprovedForAll}."
      },
      "mint(string,string)": {
        "details": "NFT   NFT Token ",
        "params": {
          "_image_url": "NFT  ",
          "_name": "NFT "
        }
      },
      "name()": {
        "details": "See {IERC721Metadata-name}."
      },
      "owner()": {
        "details": "Returns the address of the current owner."
      },
      "ownerOf(uint256)": {
        "details": "See {IERC721-ownerOf}."
      },
      "renounceOwnership()": {
        "details": "Leaves the contract without owner. It will not be possible to call `onlyOwner` functions anymore. Can only be called by the current owner. NOTE: Renouncing ownership will leave the contract without an owner, thereby removing any functionality that is only available to the owner."
      },
      "safeTransferFrom(address,address,uint256)": {
        "details": "See {IERC721-safeTransferFrom}."
      },
      "safeTransferFrom(address,address,uint256,bytes)": {
        "details": "See {IERC721-safeTransferFrom}."
      },
      "setApprovalForAll(address,bool)": {
        "details": "See {IERC721-setApprovalForAll}."
      },
      "setMarketList(uint16,uint16,string,string)": {
        "details": "MarketList  ",
        "params": {
          "_DoBuy": "DoBuy ",
          "_ETH": "ETH ",
          "_img_url": " ",
          "_name": " "
        }
      },
      "supportsInterface(bytes4)": {
        "details": "See {IERC165-supportsInterface}."
      },
      "symbol()": {
        "details": "See {IERC721Metadata-symbol}."
      },
      "tokenURI(uint256)": {
        "details": "See {IERC721Metadata-tokenURI}."
      },
      "transferFrom(address,address,uint256)": {
        "details": "See {IERC721-transferFrom}."
      },
      "transferNFT(uint256)": {
        "details": "NFT  ",
        "params": {
          "_Id": "NFT _Ids"
        }
      },
      "transferOwnership(address)": {
        "details": "Transfers ownership of the contract to a new account (`newOwner`). Can only be called by the current owner."
      }
    },
    "stateVariables": {
      "_MarketIds": {
        "details": "Market Ids"
      }
    },
    "version": 1
  },
  "userdoc": {
    "kind": "user",
    "methods": {},
    "version": 1
  }
}