{
  "contractName": "MarketNFT",
  "abi": [
    {
      "inputs": [],
      "stateMutability": "nonpayable",
      "type": "constructor"
    },
    {
      "anonymous": false,
      "inputs": [
        {
          "indexed": true,
          "internalType": "address",
          "name": "owner",
          "type": "address"
        },
        {
          "indexed": true,
          "internalType": "address",
          "name": "approved",
          "type": "address"
        },
        {
          "indexed": true,
          "internalType": "uint256",
          "name": "tokenId",
          "type": "uint256"
        }
      ],
      "name": "Approval",
      "type": "event"
    },
    {
      "anonymous": false,
      "inputs": [
        {
          "indexed": true,
          "internalType": "address",
          "name": "owner",
          "type": "address"
        },
        {
          "indexed": true,
          "internalType": "address",
          "name": "operator",
          "type": "address"
        },
        {
          "indexed": false,
          "internalType": "bool",
          "name": "approved",
          "type": "bool"
        }
      ],
      "name": "ApprovalForAll",
      "type": "event"
    },
    {
      "anonymous": false,
      "inputs": [
        {
          "indexed": false,
          "internalType": "address",
          "name": "",
          "type": "address"
        },
        {
          "indexed": false,
          "internalType": "uint32",
          "name": "",
          "type": "uint32"
        }
      ],
      "name": "DoBuyCreated",
      "type": "event"
    },
    {
      "anonymous": false,
      "inputs": [
        {
          "indexed": true,
          "internalType": "address",
          "name": "previousOwner",
          "type": "address"
        },
        {
          "indexed": true,
          "internalType": "address",
          "name": "newOwner",
          "type": "address"
        }
      ],
      "name": "OwnershipTransferred",
      "type": "event"
    },
    {
      "anonymous": false,
      "inputs": [
        {
          "indexed": true,
          "internalType": "address",
          "name": "from",
          "type": "address"
        },
        {
          "indexed": true,
          "internalType": "address",
          "name": "to",
          "type": "address"
        },
        {
          "indexed": true,
          "internalType": "uint256",
          "name": "tokenId",
          "type": "uint256"
        }
      ],
      "name": "Transfer",
      "type": "event"
    },
    {
      "inputs": [
        {
          "internalType": "uint32",
          "name": "",
          "type": "uint32"
        }
      ],
      "name": "ProductBuy",
      "outputs": [
        {
          "internalType": "string",
          "name": "name_product",
          "type": "string"
        },
        {
          "internalType": "address",
          "name": "whobuy",
          "type": "address"
        }
      ],
      "stateMutability": "view",
      "type": "function",
      "constant": true
    },
    {
      "inputs": [],
      "name": "ProductCounts",
      "outputs": [
        {
          "internalType": "uint32",
          "name": "",
          "type": "uint32"
        }
      ],
      "stateMutability": "view",
      "type": "function",
      "constant": true
    },
    {
      "inputs": [
        {
          "internalType": "uint32",
          "name": "",
          "type": "uint32"
        }
      ],
      "name": "_DoBuyToOwner",
      "outputs": [
        {
          "internalType": "address",
          "name": "",
          "type": "address"
        }
      ],
      "stateMutability": "view",
      "type": "function",
      "constant": true
    },
    {
      "inputs": [
        {
          "internalType": "uint32",
          "name": "",
          "type": "uint32"
        }
      ],
      "name": "_DoBuylist",
      "outputs": [
        {
          "internalType": "uint32",
          "name": "_Ids",
          "type": "uint32"
        },
        {
          "internalType": "uint256",
          "name": "timestamp",
          "type": "uint256"
        },
        {
          "internalType": "string",
          "name": "name",
          "type": "string"
        },
        {
          "internalType": "string",
          "name": "image_url",
          "type": "string"
        }
      ],
      "stateMutability": "view",
      "type": "function",
      "constant": true
    },
    {
      "inputs": [],
      "name": "_MarketIds",
      "outputs": [
        {
          "internalType": "uint32",
          "name": "",
          "type": "uint32"
        }
      ],
      "stateMutability": "view",
      "type": "function",
      "constant": true
    },
    {
      "inputs": [
        {
          "internalType": "uint256",
          "name": "",
          "type": "uint256"
        }
      ],
      "name": "_MarketList",
      "outputs": [
        {
          "internalType": "uint256",
          "name": "_ids",
          "type": "uint256"
        },
        {
          "internalType": "string",
          "name": "price_ETH",
          "type": "string"
        },
        {
          "internalType": "uint256",
          "name": "price_DoBuy",
          "type": "uint256"
        },
        {
          "internalType": "string",
          "name": "name",
          "type": "string"
        },
        {
          "internalType": "string",
          "name": "img_url",
          "type": "string"
        }
      ],
      "stateMutability": "view",
      "type": "function",
      "constant": true
    },
    {
      "inputs": [
        {
          "internalType": "uint256",
          "name": "",
          "type": "uint256"
        }
      ],
      "name": "_TradeTransaction",
      "outputs": [
        {
          "internalType": "address",
          "name": "_from",
          "type": "address"
        },
        {
          "internalType": "address",
          "name": "_to",
          "type": "address"
        },
        {
          "internalType": "string",
          "name": "name",
          "type": "string"
        }
      ],
      "stateMutability": "view",
      "type": "function",
      "constant": true
    },
    {
      "inputs": [
        {
          "internalType": "string",
          "name": "_name",
          "type": "string"
        },
        {
          "internalType": "string",
          "name": "_img_url",
          "type": "string"
        }
      ],
      "name": "_marketBuy",
      "outputs": [],
      "stateMutability": "nonpayable",
      "type": "function"
    },
    {
      "inputs": [],
      "name": "_tokenIds",
      "outputs": [
        {
          "internalType": "uint32",
          "name": "",
          "type": "uint32"
        }
      ],
      "stateMutability": "view",
      "type": "function",
      "constant": true
    },
    {
      "inputs": [],
      "name": "_tradeIds",
      "outputs": [
        {
          "internalType": "uint32",
          "name": "",
          "type": "uint32"
        }
      ],
      "stateMutability": "view",
      "type": "function",
      "constant": true
    },
    {
      "inputs": [
        {
          "internalType": "address",
          "name": "to",
          "type": "address"
        },
        {
          "internalType": "uint256",
          "name": "tokenId",
          "type": "uint256"
        }
      ],
      "name": "approve",
      "outputs": [],
      "stateMutability": "nonpayable",
      "type": "function"
    },
    {
      "inputs": [
        {
          "internalType": "address",
          "name": "owner",
          "type": "address"
        }
      ],
      "name": "balanceOf",
      "outputs": [
        {
          "internalType": "uint256",
          "name": "",
          "type": "uint256"
        }
      ],
      "stateMutability": "view",
      "type": "function",
      "constant": true
    },
    {
      "inputs": [
        {
          "internalType": "uint32",
          "name": "_Id",
          "type": "uint32"
        }
      ],
      "name": "burnNFT",
      "outputs": [],
      "stateMutability": "nonpayable",
      "type": "function"
    },
    {
      "inputs": [
        {
          "internalType": "uint256",
          "name": "tokenId",
          "type": "uint256"
        }
      ],
      "name": "getApproved",
      "outputs": [
        {
          "internalType": "address",
          "name": "",
          "type": "address"
        }
      ],
      "stateMutability": "view",
      "type": "function",
      "constant": true
    },
    {
      "inputs": [
        {
          "internalType": "uint256",
          "name": "",
          "type": "uint256"
        }
      ],
      "name": "haveitem",
      "outputs": [
        {
          "internalType": "string",
          "name": "name",
          "type": "string"
        },
        {
          "internalType": "uint16",
          "name": "amount",
          "type": "uint16"
        },
        {
          "internalType": "address",
          "name": "user_wallet",
          "type": "address"
        }
      ],
      "stateMutability": "view",
      "type": "function",
      "constant": true
    },
    {
      "inputs": [
        {
          "internalType": "address",
          "name": "owner",
          "type": "address"
        },
        {
          "internalType": "address",
          "name": "operator",
          "type": "address"
        }
      ],
      "name": "isApprovedForAll",
      "outputs": [
        {
          "internalType": "bool",
          "name": "",
          "type": "bool"
        }
      ],
      "stateMutability": "view",
      "type": "function",
      "constant": true
    },
    {
      "inputs": [
        {
          "internalType": "string",
          "name": "_name",
          "type": "string"
        },
        {
          "internalType": "string",
          "name": "_image_url",
          "type": "string"
        }
      ],
      "name": "mint",
      "outputs": [],
      "stateMutability": "nonpayable",
      "type": "function"
    },
    {
      "inputs": [],
      "name": "name",
      "outputs": [
        {
          "internalType": "string",
          "name": "",
          "type": "string"
        }
      ],
      "stateMutability": "view",
      "type": "function",
      "constant": true
    },
    {
      "inputs": [],
      "name": "owner",
      "outputs": [
        {
          "internalType": "address",
          "name": "",
          "type": "address"
        }
      ],
      "stateMutability": "view",
      "type": "function",
      "constant": true
    },
    {
      "inputs": [
        {
          "internalType": "uint256",
          "name": "tokenId",
          "type": "uint256"
        }
      ],
      "name": "ownerOf",
      "outputs": [
        {
          "internalType": "address",
          "name": "",
          "type": "address"
        }
      ],
      "stateMutability": "view",
      "type": "function",
      "constant": true
    },
    {
      "inputs": [],
      "name": "renounceOwnership",
      "outputs": [],
      "stateMutability": "nonpayable",
      "type": "function"
    },
    {
      "inputs": [
        {
          "internalType": "address",
          "name": "from",
          "type": "address"
        },
        {
          "internalType": "address",
          "name": "to",
          "type": "address"
        },
        {
          "internalType": "uint256",
          "name": "tokenId",
          "type": "uint256"
        }
      ],
      "name": "safeTransferFrom",
      "outputs": [],
      "stateMutability": "nonpayable",
      "type": "function"
    },
    {
      "inputs": [
        {
          "internalType": "address",
          "name": "from",
          "type": "address"
        },
        {
          "internalType": "address",
          "name": "to",
          "type": "address"
        },
        {
          "internalType": "uint256",
          "name": "tokenId",
          "type": "uint256"
        },
        {
          "internalType": "bytes",
          "name": "_data",
          "type": "bytes"
        }
      ],
      "name": "safeTransferFrom",
      "outputs": [],
      "stateMutability": "nonpayable",
      "type": "function"
    },
    {
      "inputs": [
        {
          "internalType": "address",
          "name": "operator",
          "type": "address"
        },
        {
          "internalType": "bool",
          "name": "approved",
          "type": "bool"
        }
      ],
      "name": "setApprovalForAll",
      "outputs": [],
      "stateMutability": "nonpayable",
      "type": "function"
    },
    {
      "inputs": [
        {
          "internalType": "bytes4",
          "name": "interfaceId",
          "type": "bytes4"
        }
      ],
      "name": "supportsInterface",
      "outputs": [
        {
          "internalType": "bool",
          "name": "",
          "type": "bool"
        }
      ],
      "stateMutability": "view",
      "type": "function",
      "constant": true
    },
    {
      "inputs": [],
      "name": "symbol",
      "outputs": [
        {
          "internalType": "string",
          "name": "",
          "type": "string"
        }
      ],
      "stateMutability": "view",
      "type": "function",
      "constant": true
    },
    {
      "inputs": [
        {
          "internalType": "uint256",
          "name": "tokenId",
          "type": "uint256"
        }
      ],
      "name": "tokenURI",
      "outputs": [
        {
          "internalType": "string",
          "name": "",
          "type": "string"
        }
      ],
      "stateMutability": "view",
      "type": "function",
      "constant": true
    },
    {
      "inputs": [
        {
          "internalType": "address",
          "name": "from",
          "type": "address"
        },
        {
          "internalType": "address",
          "name": "to",
          "type": "address"
        },
        {
          "internalType": "uint256",
          "name": "tokenId",
          "type": "uint256"
        }
      ],
      "name": "transferFrom",
      "outputs": [],
      "stateMutability": "nonpayable",
      "type": "function"
    },
    {
      "inputs": [
        {
          "internalType": "uint32",
          "name": "_Id",
          "type": "uint32"
        }
      ],
      "name": "transferNFT",
      "outputs": [],
      "stateMutability": "nonpayable",
      "type": "function"
    },
    {
      "inputs": [
        {
          "internalType": "address",
          "name": "newOwner",
          "type": "address"
        }
      ],
      "name": "transferOwnership",
      "outputs": [],
      "stateMutability": "nonpayable",
      "type": "function"
    },
    {
      "inputs": [
        {
          "internalType": "string",
          "name": "_ETH",
          "type": "string"
        },
        {
          "internalType": "uint256",
          "name": "_DoBuy",
          "type": "uint256"
        },
        {
          "internalType": "string",
          "name": "_name",
          "type": "string"
        },
        {
          "internalType": "string",
          "name": "_img_url",
          "type": "string"
        }
      ],
      "name": "setMarketList",
      "outputs": [],
      "stateMutability": "nonpayable",
      "type": "function"
    },
    {
      "inputs": [
        {
          "internalType": "uint256",
          "name": "_num_ids",
          "type": "uint256"
        }
      ],
      "name": "delMarketList",
      "outputs": [],
      "stateMutability": "nonpayable",
      "type": "function"
    },
    {
      "inputs": [
        {
          "internalType": "uint256",
          "name": "_num_ids",
          "type": "uint256"
        }
      ],
      "name": "buyMarket",
      "outputs": [],
      "stateMutability": "nonpayable",
      "type": "function"
    }
  ],
  "bytecode": "0x60806040523480156200001157600080fd5b506040518060400160405280600881526020017f446f4275794e46540000000000000000000000000000000000000000000000008152506040518060400160405280600581526020017f44424e465400000000000000000000000000000000000000000000000000000081525081600090805190602001906200009692919062000aae565b508060019080519060200190620000af92919062000aae565b50505033600760006101000a81548173ffffffffffffffffffffffffffffffffffffffff021916908373ffffffffffffffffffffffffffffffffffffffff1602179055506040518060800160405280600760149054906101000a900463ffffffff1663ffffffff1681526020014281526020016040518060400160405280600c81526020017f446f42757920537461727421000000000000000000000000000000000000000081525081526020016040518060400160405280600981526020017f446f4275792e706e67000000000000000000000000000000000000000000000081525081525060086000600760149054906101000a900463ffffffff1663ffffffff1663ffffffff16815260200190815260200160002060008201518160000160006101000a81548163ffffffff021916908363ffffffff1602179055506020820151816001015560408201518160020190805190602001906200021692919062000aae565b5060608201518160030190805190602001906200023592919062000aae565b509050503360096000600760149054906101000a900463ffffffff1663ffffffff1663ffffffff16815260200190815260200160002060006101000a81548173ffffffffffffffffffffffffffffffffffffffff021916908373ffffffffffffffffffffffffffffffffffffffff1602179055507fd3541a7229e521bbd5f9dab3a283435fe8e2ba7a6ae962cafce8cadbec96dcb033600760149054906101000a900463ffffffff16604051620002ee92919062000b80565b60405180910390a1620003166200030a620009e060201b60201c565b620009e860201b60201c565b6040518060a00160405280600d60149054906101000a900463ffffffff1663ffffffff1681526020016040518060400160405280600181526020017f30000000000000000000000000000000000000000000000000000000000000008152508152602001600081526020016040518060400160405280600881526020017f4e46542053484f5000000000000000000000000000000000000000000000000081525081526020016040518060400160405280600981526020017f446f4275792e706e670000000000000000000000000000000000000000000000815250815250600e6000600d60149054906101000a900463ffffffff1663ffffffff1681526020019081526020016000206000820151816000015560208201518160010190805190602001906200044892919062000aae565b506040820151816002015560608201518160030190805190602001906200047192919062000aae565b5060808201518160040190805190602001906200049092919062000aae565b50905050600d601481819054906101000a900463ffffffff1680929190620004b89062000c27565b91906101000a81548163ffffffff021916908363ffffffff160217905550506040518060a00160405280600d60149054906101000a900463ffffffff1663ffffffff1681526020016040518060400160405280600581526020017f302e30313200000000000000000000000000000000000000000000000000000081525081526020016104b081526020016040518060400160405280600681526020017f506f7461746f000000000000000000000000000000000000000000000000000081525081526020016040518060400160405280600a81526020017f706f7461746f2e6a706700000000000000000000000000000000000000000000815250815250600e6000600d60149054906101000a900463ffffffff1663ffffffff1681526020019081526020016000206000820151816000015560208201518160010190805190602001906200060a92919062000aae565b506040820151816002015560608201518160030190805190602001906200063392919062000aae565b5060808201518160040190805190602001906200065292919062000aae565b50905050600d601481819054906101000a900463ffffffff16809291906200067a9062000c27565b91906101000a81548163ffffffff021916908363ffffffff160217905550506040518060a00160405280600d60149054906101000a900463ffffffff1663ffffffff1681526020016040518060400160405280600581526020017f302e30323500000000000000000000000000000000000000000000000000000081525081526020016109c481526020016040518060400160405280600681526020017f42616e616e61000000000000000000000000000000000000000000000000000081525081526020016040518060400160405280600a81526020017f62616e616e612e6a706700000000000000000000000000000000000000000000815250815250600e6000600d60149054906101000a900463ffffffff1663ffffffff168152602001908152602001600020600082015181600001556020820151816001019080519060200190620007cc92919062000aae565b50604082015181600201556060820151816003019080519060200190620007f592919062000aae565b5060808201518160040190805190602001906200081492919062000aae565b50905050600d601481819054906101000a900463ffffffff16809291906200083c9062000c27565b91906101000a81548163ffffffff021916908363ffffffff160217905550506040518060a00160405280600d60149054906101000a900463ffffffff1663ffffffff1681526020016040518060400160405280600481526020017f302e30310000000000000000000000000000000000000000000000000000000081525081526020016103e881526020016040518060400160405280600581526020017f4170706c6500000000000000000000000000000000000000000000000000000081525081526020016040518060400160405280600981526020017f6170706c652e6a70670000000000000000000000000000000000000000000000815250815250600e6000600d60149054906101000a900463ffffffff1663ffffffff1681526020019081526020016000206000820151816000015560208201518160010190805190602001906200098e92919062000aae565b50604082015181600201556060820151816003019080519060200190620009b792919062000aae565b506080820151816004019080519060200190620009d692919062000aae565b5090505062000cb7565b600033905090565b6000600d60009054906101000a900473ffffffffffffffffffffffffffffffffffffffff16905081600d60006101000a81548173ffffffffffffffffffffffffffffffffffffffff021916908373ffffffffffffffffffffffffffffffffffffffff1602179055508173ffffffffffffffffffffffffffffffffffffffff168173ffffffffffffffffffffffffffffffffffffffff167f8be0079c531659141344cd1fd0a4f28419497f9722a3daafe3b4186f6b6457e060405160405180910390a35050565b82805462000abc9062000bf1565b90600052602060002090601f01602090048101928262000ae0576000855562000b2c565b82601f1062000afb57805160ff191683800117855562000b2c565b8280016001018555821562000b2c579182015b8281111562000b2b57825182559160200191906001019062000b0e565b5b50905062000b3b919062000b3f565b5090565b5b8082111562000b5a57600081600090555060010162000b40565b5090565b62000b698162000bad565b82525050565b62000b7a8162000be1565b82525050565b600060408201905062000b97600083018562000b5e565b62000ba6602083018462000b6f565b9392505050565b600062000bba8262000bc1565b9050919050565b600073ffffffffffffffffffffffffffffffffffffffff82169050919050565b600063ffffffff82169050919050565b6000600282049050600182168062000c0a57607f821691505b6020821081141562000c215762000c2062000c88565b5b50919050565b600062000c348262000be1565b915063ffffffff82141562000c4e5762000c4d62000c59565b5b600182019050919050565b7f4e487b7100000000000000000000000000000000000000000000000000000000600052601160045260246000fd5b7f4e487b7100000000000000000000000000000000000000000000000000000000600052602260045260246000fd5b6149898062000cc76000396000f3fe608060405234801561001057600080fd5b50600436106101fb5760003560e01c806395d89b411161011a578063e796a5f3116100ad578063f1d861ec1161007c578063f1d861ec146105da578063f25650f6146105f8578063f2fde38b1461062b578063f90852c714610647578063f9ce1b9f14610663576101fb565b8063e796a5f314610540578063e985e9c51461055c578063eeea74371461058c578063f1084612146105be576101fb565b8063b88d4fde116100e9578063b88d4fde146104bc578063c80d35e0146104d8578063c87b56dd146104f4578063cc86afbe14610524576101fb565b806395d89b4114610446578063a22cb46514610464578063aa46a40014610480578063b44875361461049e576101fb565b806342842e0e11610192578063715018a611610161578063715018a6146103d05780637f4c8873146103da5780638aa0fdad1461040c5780638da5cb5b14610428576101fb565b806342842e0e146103365780636352211e146103525780636eb75dad1461038257806370a08231146103a0576101fb565b806322258681116101ce578063222586811461029a57806323b872dd146102b65780632d72c84e146102d25780632fb21c2814610306576101fb565b806301ffc9a71461020057806306fdde0314610230578063081812fc1461024e578063095ea7b31461027e575b600080fd5b61021a60048036038101906102159190613671565b610694565b60405161022791906140d0565b60405180910390f35b610238610776565b60405161024591906140eb565b60405180910390f35b610268600480360381019061026391906137da565b610808565b6040516102759190614002565b60405180910390f35b61029860048036038101906102939190613635565b61088d565b005b6102b460048036038101906102af919061372f565b6109a5565b005b6102d060048036038101906102cb919061352f565b610b2e565b005b6102ec60048036038101906102e791906137da565b610b8e565b6040516102fd9594939291906143b6565b60405180910390f35b610320600480360381019061031b9190613803565b610d5c565b60405161032d9190614002565b60405180910390f35b610350600480360381019061034b919061352f565b610d8f565b005b61036c600480360381019061036791906137da565b610daf565b6040516103799190614002565b60405180910390f35b61038a610e61565b604051610397919061441e565b60405180910390f35b6103ba60048036038101906103b591906134ca565b610e77565b6040516103c7919061439b565b60405180910390f35b6103d8610f2f565b005b6103f460048036038101906103ef91906137da565b610fb7565b6040516104039392919061413d565b60405180910390f35b610426600480360381019061042191906136c3565b6110a7565b005b61043061125f565b60405161043d9190614002565b60405180910390f35b61044e611289565b60405161045b91906140eb565b60405180910390f35b61047e600480360381019061047991906135f9565b61131b565b005b61048861149c565b604051610495919061441e565b60405180910390f35b6104a66114b2565b6040516104b3919061441e565b60405180910390f35b6104d660048036038101906104d1919061357e565b6114c8565b005b6104f260048036038101906104ed91906137da565b61152a565b005b61050e600480360381019061050991906137da565b6115ff565b60405161051b91906140eb565b60405180910390f35b61053e60048036038101906105399190613803565b611751565b005b61055a600480360381019061055591906136c3565b61184c565b005b610576600480360381019061057191906134f3565b611afd565b60405161058391906140d0565b60405180910390f35b6105a660048036038101906105a191906137da565b611b91565b6040516105b59392919061401d565b60405180910390f35b6105d860048036038101906105d39190613803565b611c83565b005b6105e2611f45565b6040516105ef919061441e565b60405180910390f35b610612600480360381019061060d9190613803565b611f5b565b6040516106229493929190614439565b60405180910390f35b610645600480360381019061064091906134ca565b6120ab565b005b610661600480360381019061065c91906137da565b6121a3565b005b61067d60048036038101906106789190613803565b61248e565b60405161068b92919061410d565b60405180910390f35b60007f80ac58cd000000000000000000000000000000000000000000000000000000007bffffffffffffffffffffffffffffffffffffffffffffffffffffffff1916827bffffffffffffffffffffffffffffffffffffffffffffffffffffffff1916148061075f57507f5b5e139f000000000000000000000000000000000000000000000000000000007bffffffffffffffffffffffffffffffffffffffffffffffffffffffff1916827bffffffffffffffffffffffffffffffffffffffffffffffffffffffff1916145b8061076f575061076e8261255a565b5b9050919050565b6060600080546107859061470f565b80601f01602080910402602001604051908101604052809291908181526020018280546107b19061470f565b80156107fe5780601f106107d3576101008083540402835291602001916107fe565b820191906000526020600020905b8154815290600101906020018083116107e157829003601f168201915b5050505050905090565b6000610813826125c4565b610852576040517f08c379a0000000000000000000000000000000000000000000000000000000008152600401610849906142db565b60405180910390fd5b6004600083815260200190815260200160002060009054906101000a900473ffffffffffffffffffffffffffffffffffffffff169050919050565b600061089882610daf565b90508073ffffffffffffffffffffffffffffffffffffffff168373ffffffffffffffffffffffffffffffffffffffff161415610909576040517f08c379a00000000000000000000000000000000000000000000000000000000081526004016109009061435b565b60405180910390fd5b8073ffffffffffffffffffffffffffffffffffffffff16610928612630565b73ffffffffffffffffffffffffffffffffffffffff161480610957575061095681610951612630565b611afd565b5b610996576040517f08c379a000000000000000000000000000000000000000000000000000000000815260040161098d9061423b565b60405180910390fd5b6109a08383612638565b505050565b6109ad612630565b73ffffffffffffffffffffffffffffffffffffffff166109cb61125f565b73ffffffffffffffffffffffffffffffffffffffff1614610a21576040517f08c379a0000000000000000000000000000000000000000000000000000000008152600401610a18906142fb565b60405180910390fd5b600d601481819054906101000a900463ffffffff1680929190610a43906147b5565b91906101000a81548163ffffffff021916908363ffffffff160217905550506000600d60149054906101000a900463ffffffff1663ffffffff1690506040518060a0016040528082815260200186815260200185815260200184815260200183815250600e6000838152602001908152602001600020600082015181600001556020820151816001019080519060200190610adf929190613299565b50604082015181600201556060820151816003019080519060200190610b06929190613299565b506080820151816004019080519060200190610b23929190613299565b509050505050505050565b610b3f610b39612630565b826126f1565b610b7e576040517f08c379a0000000000000000000000000000000000000000000000000000000008152600401610b759061437b565b60405180910390fd5b610b898383836127cf565b505050565b600e602052806000526040600020600091509050806000015490806001018054610bb79061470f565b80601f0160208091040260200160405190810160405280929190818152602001828054610be39061470f565b8015610c305780601f10610c0557610100808354040283529160200191610c30565b820191906000526020600020905b815481529060010190602001808311610c1357829003601f168201915b505050505090806002015490806003018054610c4b9061470f565b80601f0160208091040260200160405190810160405280929190818152602001828054610c779061470f565b8015610cc45780601f10610c9957610100808354040283529160200191610cc4565b820191906000526020600020905b815481529060010190602001808311610ca757829003601f168201915b505050505090806004018054610cd99061470f565b80601f0160208091040260200160405190810160405280929190818152602001828054610d059061470f565b8015610d525780601f10610d2757610100808354040283529160200191610d52565b820191906000526020600020905b815481529060010190602001808311610d3557829003601f168201915b5050505050905085565b60096020528060005260406000206000915054906101000a900473ffffffffffffffffffffffffffffffffffffffff1681565b610daa838383604051806020016040528060008152506114c8565b505050565b6000806002600084815260200190815260200160002060009054906101000a900473ffffffffffffffffffffffffffffffffffffffff169050600073ffffffffffffffffffffffffffffffffffffffff168173ffffffffffffffffffffffffffffffffffffffff161415610e58576040517f08c379a0000000000000000000000000000000000000000000000000000000008152600401610e4f9061427b565b60405180910390fd5b80915050919050565b600b60009054906101000a900463ffffffff1681565b60008073ffffffffffffffffffffffffffffffffffffffff168273ffffffffffffffffffffffffffffffffffffffff161415610ee8576040517f08c379a0000000000000000000000000000000000000000000000000000000008152600401610edf9061425b565b60405180910390fd5b600360008373ffffffffffffffffffffffffffffffffffffffff1673ffffffffffffffffffffffffffffffffffffffff168152602001908152602001600020549050919050565b610f37612630565b73ffffffffffffffffffffffffffffffffffffffff16610f5561125f565b73ffffffffffffffffffffffffffffffffffffffff1614610fab576040517f08c379a0000000000000000000000000000000000000000000000000000000008152600401610fa2906142fb565b60405180910390fd5b610fb56000612a2b565b565b600a8181548110610fc757600080fd5b9060005260206000209060020201600091509050806000018054610fea9061470f565b80601f01602080910402602001604051908101604052809291908181526020018280546110169061470f565b80156110635780601f1061103857610100808354040283529160200191611063565b820191906000526020600020905b81548152906001019060200180831161104657829003601f168201915b5050505050908060010160009054906101000a900461ffff16908060010160029054906101000a900473ffffffffffffffffffffffffffffffffffffffff16905083565b6007601481819054906101000a900463ffffffff16809291906110c9906147b5565b91906101000a81548163ffffffff021916908363ffffffff160217905550506000600760149054906101000a900463ffffffff16905060405180608001604052808263ffffffff16815260200142815260200184815260200183815250600860008363ffffffff1663ffffffff16815260200190815260200160002060008201518160000160006101000a81548163ffffffff021916908363ffffffff160217905550602082015181600101556040820151816002019080519060200190611192929190613299565b5060608201518160030190805190602001906111af929190613299565b509050506111c3338263ffffffff16612af1565b33600960008363ffffffff1663ffffffff16815260200190815260200160002060006101000a81548173ffffffffffffffffffffffffffffffffffffffff021916908373ffffffffffffffffffffffffffffffffffffffff1602179055507fd3541a7229e521bbd5f9dab3a283435fe8e2ba7a6ae962cafce8cadbec96dcb033826040516112529291906140a7565b60405180910390a1505050565b6000600d60009054906101000a900473ffffffffffffffffffffffffffffffffffffffff16905090565b6060600180546112989061470f565b80601f01602080910402602001604051908101604052809291908181526020018280546112c49061470f565b80156113115780601f106112e657610100808354040283529160200191611311565b820191906000526020600020905b8154815290600101906020018083116112f457829003601f168201915b5050505050905090565b611323612630565b73ffffffffffffffffffffffffffffffffffffffff168273ffffffffffffffffffffffffffffffffffffffff161415611391576040517f08c379a0000000000000000000000000000000000000000000000000000000008152600401611388906141fb565b60405180910390fd5b806005600061139e612630565b73ffffffffffffffffffffffffffffffffffffffff1673ffffffffffffffffffffffffffffffffffffffff16815260200190815260200160002060008473ffffffffffffffffffffffffffffffffffffffff1673ffffffffffffffffffffffffffffffffffffffff16815260200190815260200160002060006101000a81548160ff0219169083151502179055508173ffffffffffffffffffffffffffffffffffffffff1661144b612630565b73ffffffffffffffffffffffffffffffffffffffff167f17307eab39ab6107e8899845ad3d59bd9653f200f220920489ca2b5937696c318360405161149091906140d0565b60405180910390a35050565b600760149054906101000a900463ffffffff1681565b600d60149054906101000a900463ffffffff1681565b6114d96114d3612630565b836126f1565b611518576040517f08c379a000000000000000000000000000000000000000000000000000000000815260040161150f9061437b565b60405180910390fd5b61152484848484612cbf565b50505050565b611532612630565b73ffffffffffffffffffffffffffffffffffffffff1661155061125f565b73ffffffffffffffffffffffffffffffffffffffff16146115a6576040517f08c379a000000000000000000000000000000000000000000000000000000000815260040161159d906142fb565b60405180910390fd5b600e60008281526020019081526020016000206000808201600090556001820160006115d2919061331f565b60028201600090556003820160006115ea919061331f565b6004820160006115fa919061331f565b505050565b606061160a826125c4565b611649576040517f08c379a0000000000000000000000000000000000000000000000000000000008152600401611640906142bb565b60405180910390fd5b60006006600084815260200190815260200160002080546116699061470f565b80601f01602080910402602001604051908101604052809291908181526020018280546116959061470f565b80156116e25780601f106116b7576101008083540402835291602001916116e2565b820191906000526020600020905b8154815290600101906020018083116116c557829003601f168201915b5050505050905060006116f3612d1b565b905060008151141561170957819250505061174c565b60008251111561173e578082604051602001611726929190613fde565b6040516020818303038152906040529250505061174c565b61174784612d32565b925050505b919050565b3373ffffffffffffffffffffffffffffffffffffffff166117778263ffffffff16610daf565b73ffffffffffffffffffffffffffffffffffffffff161461179757600080fd5b6117a68163ffffffff16612dd9565b600960008263ffffffff1663ffffffff16815260200190815260200160002060006101000a81549073ffffffffffffffffffffffffffffffffffffffff0219169055600860008263ffffffff1663ffffffff168152602001908152602001600020600080820160006101000a81549063ffffffff02191690556001820160009055600282016000611837919061331f565b600382016000611847919061331f565b505050565b61185682826110a7565b60005b600a80549050811015611a0e573373ffffffffffffffffffffffffffffffffffffffff16600a82815481106118b7577f4e487b7100000000000000000000000000000000000000000000000000000000600052603260045260246000fd5b906000526020600020906002020160010160029054906101000a900473ffffffffffffffffffffffffffffffffffffffff1673ffffffffffffffffffffffffffffffffffffffff1614801561197157508280519060200120600a8281548110611949577f4e487b7100000000000000000000000000000000000000000000000000000000600052603260045260246000fd5b90600052602060002090600202016000016040516119679190613fc7565b6040518091039020145b156119fb57600a81815481106119b0577f4e487b7100000000000000000000000000000000000000000000000000000000600052603260045260246000fd5b9060005260206000209060020201600101600081819054906101000a900461ffff16809291906119df90614741565b91906101000a81548161ffff021916908361ffff160217905550505b8080611a069061476c565b915050611859565b50600a6040518060600160405280848152602001600161ffff1681526020013373ffffffffffffffffffffffffffffffffffffffff1681525090806001815401808255809150506001900390600052602060002090600202016000909190919091506000820151816000019080519060200190611a8c929190613299565b5060208201518160010160006101000a81548161ffff021916908361ffff16021790555060408201518160010160026101000a81548173ffffffffffffffffffffffffffffffffffffffff021916908373ffffffffffffffffffffffffffffffffffffffff16021790555050505050565b6000600560008473ffffffffffffffffffffffffffffffffffffffff1673ffffffffffffffffffffffffffffffffffffffff16815260200190815260200160002060008373ffffffffffffffffffffffffffffffffffffffff1673ffffffffffffffffffffffffffffffffffffffff16815260200190815260200160002060009054906101000a900460ff16905092915050565b600c6020528060005260406000206000915090508060000160009054906101000a900473ffffffffffffffffffffffffffffffffffffffff16908060010160009054906101000a900473ffffffffffffffffffffffffffffffffffffffff1690806002018054611c009061470f565b80601f0160208091040260200160405190810160405280929190818152602001828054611c2c9061470f565b8015611c795780601f10611c4e57610100808354040283529160200191611c79565b820191906000526020600020905b815481529060010190602001808311611c5c57829003601f168201915b5050505050905083565b6000600960008363ffffffff1663ffffffff16815260200190815260200160002060009054906101000a900473ffffffffffffffffffffffffffffffffffffffff169050600b600081819054906101000a900463ffffffff1680929190611ce9906147b5565b91906101000a81548163ffffffff021916908363ffffffff16021790555050611d1981338463ffffffff166127cf565b33600960008463ffffffff1663ffffffff16815260200190815260200160002060006101000a81548173ffffffffffffffffffffffffffffffffffffffff021916908373ffffffffffffffffffffffffffffffffffffffff16021790555060405180606001604052808273ffffffffffffffffffffffffffffffffffffffff1681526020013373ffffffffffffffffffffffffffffffffffffffff168152602001600860008563ffffffff1663ffffffff1681526020019081526020016000206002018054611de79061470f565b80601f0160208091040260200160405190810160405280929190818152602001828054611e139061470f565b8015611e605780601f10611e3557610100808354040283529160200191611e60565b820191906000526020600020905b815481529060010190602001808311611e4357829003601f168201915b5050505050815250600c6000600b60009054906101000a900463ffffffff1663ffffffff16815260200190815260200160002060008201518160000160006101000a81548173ffffffffffffffffffffffffffffffffffffffff021916908373ffffffffffffffffffffffffffffffffffffffff16021790555060208201518160010160006101000a81548173ffffffffffffffffffffffffffffffffffffffff021916908373ffffffffffffffffffffffffffffffffffffffff1602179055506040820151816002019080519060200190611f3d929190613299565b509050505050565b600f60009054906101000a900463ffffffff1681565b60086020528060005260406000206000915090508060000160009054906101000a900463ffffffff1690806001015490806002018054611f9a9061470f565b80601f0160208091040260200160405190810160405280929190818152602001828054611fc69061470f565b80156120135780601f10611fe857610100808354040283529160200191612013565b820191906000526020600020905b815481529060010190602001808311611ff657829003601f168201915b5050505050908060030180546120289061470f565b80601f01602080910402602001604051908101604052809291908181526020018280546120549061470f565b80156120a15780601f10612076576101008083540402835291602001916120a1565b820191906000526020600020905b81548152906001019060200180831161208457829003601f168201915b5050505050905084565b6120b3612630565b73ffffffffffffffffffffffffffffffffffffffff166120d161125f565b73ffffffffffffffffffffffffffffffffffffffff1614612127576040517f08c379a000000000000000000000000000000000000000000000000000000000815260040161211e906142fb565b60405180910390fd5b600073ffffffffffffffffffffffffffffffffffffffff168173ffffffffffffffffffffffffffffffffffffffff161415612197576040517f08c379a000000000000000000000000000000000000000000000000000000000815260040161218e9061419b565b60405180910390fd5b6121a081612a2b565b50565b6040518060400160405280600e600084815260200190815260200160002060030180546121cf9061470f565b80601f01602080910402602001604051908101604052809291908181526020018280546121fb9061470f565b80156122485780601f1061221d57610100808354040283529160200191612248565b820191906000526020600020905b81548152906001019060200180831161222b57829003601f168201915b505050505081526020013373ffffffffffffffffffffffffffffffffffffffff1681525060106000600f60009054906101000a900463ffffffff1663ffffffff1663ffffffff16815260200190815260200160002060008201518160000190805190602001906122b9929190613299565b5060208201518160010160006101000a81548173ffffffffffffffffffffffffffffffffffffffff021916908373ffffffffffffffffffffffffffffffffffffffff160217905550905050600f600081819054906101000a900463ffffffff1680929190612326906147b5565b91906101000a81548163ffffffff021916908363ffffffff1602179055505061248b600e600083815260200190815260200160002060030180546123699061470f565b80601f01602080910402602001604051908101604052809291908181526020018280546123959061470f565b80156123e25780601f106123b7576101008083540402835291602001916123e2565b820191906000526020600020905b8154815290600101906020018083116123c557829003601f168201915b5050505050600e600084815260200190815260200160002060040180546124089061470f565b80601f01602080910402602001604051908101604052809291908181526020018280546124349061470f565b80156124815780601f1061245657610100808354040283529160200191612481565b820191906000526020600020905b81548152906001019060200180831161246457829003601f168201915b505050505061184c565b50565b60106020528060005260406000206000915090508060000180546124b19061470f565b80601f01602080910402602001604051908101604052809291908181526020018280546124dd9061470f565b801561252a5780601f106124ff5761010080835404028352916020019161252a565b820191906000526020600020905b81548152906001019060200180831161250d57829003601f168201915b5050505050908060010160009054906101000a900473ffffffffffffffffffffffffffffffffffffffff16905082565b60007f01ffc9a7000000000000000000000000000000000000000000000000000000007bffffffffffffffffffffffffffffffffffffffffffffffffffffffff1916827bffffffffffffffffffffffffffffffffffffffffffffffffffffffff1916149050919050565b60008073ffffffffffffffffffffffffffffffffffffffff166002600084815260200190815260200160002060009054906101000a900473ffffffffffffffffffffffffffffffffffffffff1673ffffffffffffffffffffffffffffffffffffffff1614159050919050565b600033905090565b816004600083815260200190815260200160002060006101000a81548173ffffffffffffffffffffffffffffffffffffffff021916908373ffffffffffffffffffffffffffffffffffffffff160217905550808273ffffffffffffffffffffffffffffffffffffffff166126ab83610daf565b73ffffffffffffffffffffffffffffffffffffffff167f8c5be1e5ebec7d5bd14f71427d1e84f3dd0314c0f7b2291e5b200ac8c7c3b92560405160405180910390a45050565b60006126fc826125c4565b61273b576040517f08c379a00000000000000000000000000000000000000000000000000000000081526004016127329061421b565b60405180910390fd5b600061274683610daf565b90508073ffffffffffffffffffffffffffffffffffffffff168473ffffffffffffffffffffffffffffffffffffffff1614806127b557508373ffffffffffffffffffffffffffffffffffffffff1661279d84610808565b73ffffffffffffffffffffffffffffffffffffffff16145b806127c657506127c58185611afd565b5b91505092915050565b8273ffffffffffffffffffffffffffffffffffffffff166127ef82610daf565b73ffffffffffffffffffffffffffffffffffffffff1614612845576040517f08c379a000000000000000000000000000000000000000000000000000000000815260040161283c9061431b565b60405180910390fd5b600073ffffffffffffffffffffffffffffffffffffffff168273ffffffffffffffffffffffffffffffffffffffff1614156128b5576040517f08c379a00000000000000000000000000000000000000000000000000000000081526004016128ac906141db565b60405180910390fd5b6128c0838383612e2c565b6128cb600082612638565b6001600360008573ffffffffffffffffffffffffffffffffffffffff1673ffffffffffffffffffffffffffffffffffffffff168152602001908152602001600020600082825461291b9190614607565b925050819055506001600360008473ffffffffffffffffffffffffffffffffffffffff1673ffffffffffffffffffffffffffffffffffffffff16815260200190815260200160002060008282546129729190614580565b92505081905550816002600083815260200190815260200160002060006101000a81548173ffffffffffffffffffffffffffffffffffffffff021916908373ffffffffffffffffffffffffffffffffffffffff160217905550808273ffffffffffffffffffffffffffffffffffffffff168473ffffffffffffffffffffffffffffffffffffffff167fddf252ad1be2c89b69c2b068fc378daa952ba7f163c4a11628f55a4df523b3ef60405160405180910390a4505050565b6000600d60009054906101000a900473ffffffffffffffffffffffffffffffffffffffff16905081600d60006101000a81548173ffffffffffffffffffffffffffffffffffffffff021916908373ffffffffffffffffffffffffffffffffffffffff1602179055508173ffffffffffffffffffffffffffffffffffffffff168173ffffffffffffffffffffffffffffffffffffffff167f8be0079c531659141344cd1fd0a4f28419497f9722a3daafe3b4186f6b6457e060405160405180910390a35050565b600073ffffffffffffffffffffffffffffffffffffffff168273ffffffffffffffffffffffffffffffffffffffff161415612b61576040517f08c379a0000000000000000000000000000000000000000000000000000000008152600401612b589061429b565b60405180910390fd5b612b6a816125c4565b15612baa576040517f08c379a0000000000000000000000000000000000000000000000000000000008152600401612ba1906141bb565b60405180910390fd5b612bb660008383612e2c565b6001600360008473ffffffffffffffffffffffffffffffffffffffff1673ffffffffffffffffffffffffffffffffffffffff1681526020019081526020016000206000828254612c069190614580565b92505081905550816002600083815260200190815260200160002060006101000a81548173ffffffffffffffffffffffffffffffffffffffff021916908373ffffffffffffffffffffffffffffffffffffffff160217905550808273ffffffffffffffffffffffffffffffffffffffff16600073ffffffffffffffffffffffffffffffffffffffff167fddf252ad1be2c89b69c2b068fc378daa952ba7f163c4a11628f55a4df523b3ef60405160405180910390a45050565b612cca8484846127cf565b612cd684848484612e31565b612d15576040517f08c379a0000000000000000000000000000000000000000000000000000000008152600401612d0c9061417b565b60405180910390fd5b50505050565b606060405180602001604052806000815250905090565b6060612d3d826125c4565b612d7c576040517f08c379a0000000000000000000000000000000000000000000000000000000008152600401612d739061433b565b60405180910390fd5b6000612d86612d1b565b90506000815111612da65760405180602001604052806000815250612dd1565b80612db084612fc8565b604051602001612dc1929190613fde565b6040516020818303038152906040525b915050919050565b612de281613175565b6000600660008381526020019081526020016000208054612e029061470f565b905014612e2957600660008281526020019081526020016000206000612e28919061331f565b5b50565b505050565b6000612e528473ffffffffffffffffffffffffffffffffffffffff16613286565b15612fbb578373ffffffffffffffffffffffffffffffffffffffff1663150b7a02612e7b612630565b8786866040518563ffffffff1660e01b8152600401612e9d949392919061405b565b602060405180830381600087803b158015612eb757600080fd5b505af1925050508015612ee857506040513d601f19601f82011682018060405250810190612ee5919061369a565b60015b612f6b573d8060008114612f18576040519150601f19603f3d011682016040523d82523d6000602084013e612f1d565b606091505b50600081511415612f63576040517f08c379a0000000000000000000000000000000000000000000000000000000008152600401612f5a9061417b565b60405180910390fd5b805181602001fd5b63150b7a0260e01b7bffffffffffffffffffffffffffffffffffffffffffffffffffffffff1916817bffffffffffffffffffffffffffffffffffffffffffffffffffffffff191614915050612fc0565b600190505b949350505050565b60606000821415613010576040518060400160405280600181526020017f30000000000000000000000000000000000000000000000000000000000000008152509050613170565b600082905060005b6000821461304257808061302b9061476c565b915050600a8261303b91906145d6565b9150613018565b60008167ffffffffffffffff811115613084577f4e487b7100000000000000000000000000000000000000000000000000000000600052604160045260246000fd5b6040519080825280601f01601f1916602001820160405280156130b65781602001600182028036833780820191505090505b5090505b60008514613169576001826130cf9190614607565b9150600a856130de91906147e2565b60306130ea9190614580565b60f81b818381518110613126577f4e487b7100000000000000000000000000000000000000000000000000000000600052603260045260246000fd5b60200101907effffffffffffffffffffffffffffffffffffffffffffffffffffffffffffff1916908160001a905350600a8561316291906145d6565b94506130ba565b8093505050505b919050565b600061318082610daf565b905061318e81600084612e2c565b613199600083612638565b6001600360008373ffffffffffffffffffffffffffffffffffffffff1673ffffffffffffffffffffffffffffffffffffffff16815260200190815260200160002060008282546131e99190614607565b925050819055506002600083815260200190815260200160002060006101000a81549073ffffffffffffffffffffffffffffffffffffffff021916905581600073ffffffffffffffffffffffffffffffffffffffff168273ffffffffffffffffffffffffffffffffffffffff167fddf252ad1be2c89b69c2b068fc378daa952ba7f163c4a11628f55a4df523b3ef60405160405180910390a45050565b600080823b905060008111915050919050565b8280546132a59061470f565b90600052602060002090601f0160209004810192826132c7576000855561330e565b82601f106132e057805160ff191683800117855561330e565b8280016001018555821561330e579182015b8281111561330d5782518255916020019190600101906132f2565b5b50905061331b919061335f565b5090565b50805461332b9061470f565b6000825580601f1061333d575061335c565b601f01602090049060005260206000209081019061335b919061335f565b5b50565b5b80821115613378576000816000905550600101613360565b5090565b600061338f61338a846144bd565b61448c565b9050828152602081018484840111156133a757600080fd5b6133b28482856146cd565b509392505050565b60006133cd6133c8846144ed565b61448c565b9050828152602081018484840111156133e557600080fd5b6133f08482856146cd565b509392505050565b600081359050613407816148e0565b92915050565b60008135905061341c816148f7565b92915050565b6000813590506134318161490e565b92915050565b6000815190506134468161490e565b92915050565b600082601f83011261345d57600080fd5b813561346d84826020860161337c565b91505092915050565b600082601f83011261348757600080fd5b81356134978482602086016133ba565b91505092915050565b6000813590506134af81614925565b92915050565b6000813590506134c48161493c565b92915050565b6000602082840312156134dc57600080fd5b60006134ea848285016133f8565b91505092915050565b6000806040838503121561350657600080fd5b6000613514858286016133f8565b9250506020613525858286016133f8565b9150509250929050565b60008060006060848603121561354457600080fd5b6000613552868287016133f8565b9350506020613563868287016133f8565b9250506040613574868287016134a0565b9150509250925092565b6000806000806080858703121561359457600080fd5b60006135a2878288016133f8565b94505060206135b3878288016133f8565b93505060406135c4878288016134a0565b925050606085013567ffffffffffffffff8111156135e157600080fd5b6135ed8782880161344c565b91505092959194509250565b6000806040838503121561360c57600080fd5b600061361a858286016133f8565b925050602061362b8582860161340d565b9150509250929050565b6000806040838503121561364857600080fd5b6000613656858286016133f8565b9250506020613667858286016134a0565b9150509250929050565b60006020828403121561368357600080fd5b600061369184828501613422565b91505092915050565b6000602082840312156136ac57600080fd5b60006136ba84828501613437565b91505092915050565b600080604083850312156136d657600080fd5b600083013567ffffffffffffffff8111156136f057600080fd5b6136fc85828601613476565b925050602083013567ffffffffffffffff81111561371957600080fd5b61372585828601613476565b9150509250929050565b6000806000806080858703121561374557600080fd5b600085013567ffffffffffffffff81111561375f57600080fd5b61376b87828801613476565b945050602061377c878288016134a0565b935050604085013567ffffffffffffffff81111561379957600080fd5b6137a587828801613476565b925050606085013567ffffffffffffffff8111156137c257600080fd5b6137ce87828801613476565b91505092959194509250565b6000602082840312156137ec57600080fd5b60006137fa848285016134a0565b91505092915050565b60006020828403121561381557600080fd5b6000613823848285016134b5565b91505092915050565b6138358161463b565b82525050565b6138448161464d565b82525050565b600061385582614532565b61385f8185614548565b935061386f8185602086016146dc565b613878816148cf565b840191505092915050565b600081546138908161470f565b61389a8186614559565b945060018216600081146138b557600181146138c6576138f9565b60ff198316865281860193506138f9565b6138cf8561451d565b60005b838110156138f1578154818901526001820191506020810190506138d2565b838801955050505b50505092915050565b600061390d8261453d565b6139178185614564565b93506139278185602086016146dc565b613930816148cf565b840191505092915050565b60006139468261453d565b6139508185614575565b93506139608185602086016146dc565b80840191505092915050565b6000613979603283614564565b91507f4552433732313a207472616e7366657220746f206e6f6e20455243373231526560008301527f63656976657220696d706c656d656e74657200000000000000000000000000006020830152604082019050919050565b60006139df602683614564565b91507f4f776e61626c653a206e6577206f776e657220697320746865207a65726f206160008301527f64647265737300000000000000000000000000000000000000000000000000006020830152604082019050919050565b6000613a45601c83614564565b91507f4552433732313a20746f6b656e20616c7265616479206d696e746564000000006000830152602082019050919050565b6000613a85602483614564565b91507f4552433732313a207472616e7366657220746f20746865207a65726f2061646460008301527f72657373000000000000000000000000000000000000000000000000000000006020830152604082019050919050565b6000613aeb601983614564565b91507f4552433732313a20617070726f766520746f2063616c6c6572000000000000006000830152602082019050919050565b6000613b2b602c83614564565b91507f4552433732313a206f70657261746f7220717565727920666f72206e6f6e657860008301527f697374656e7420746f6b656e00000000000000000000000000000000000000006020830152604082019050919050565b6000613b91603883614564565b91507f4552433732313a20617070726f76652063616c6c6572206973206e6f74206f7760008301527f6e6572206e6f7220617070726f76656420666f7220616c6c00000000000000006020830152604082019050919050565b6000613bf7602a83614564565b91507f4552433732313a2062616c616e636520717565727920666f7220746865207a6560008301527f726f2061646472657373000000000000000000000000000000000000000000006020830152604082019050919050565b6000613c5d602983614564565b91507f4552433732313a206f776e657220717565727920666f72206e6f6e657869737460008301527f656e7420746f6b656e00000000000000000000000000000000000000000000006020830152604082019050919050565b6000613cc3602083614564565b91507f4552433732313a206d696e7420746f20746865207a65726f20616464726573736000830152602082019050919050565b6000613d03603183614564565b91507f45524337323155524953746f726167653a2055524920717565727920666f722060008301527f6e6f6e6578697374656e7420746f6b656e0000000000000000000000000000006020830152604082019050919050565b6000613d69602c83614564565b91507f4552433732313a20617070726f76656420717565727920666f72206e6f6e657860008301527f697374656e7420746f6b656e00000000000000000000000000000000000000006020830152604082019050919050565b6000613dcf602083614564565b91507f4f776e61626c653a2063616c6c6572206973206e6f7420746865206f776e65726000830152602082019050919050565b6000613e0f602983614564565b91507f4552433732313a207472616e73666572206f6620746f6b656e2074686174206960008301527f73206e6f74206f776e00000000000000000000000000000000000000000000006020830152604082019050919050565b6000613e75602f83614564565b91507f4552433732314d657461646174613a2055524920717565727920666f72206e6f60008301527f6e6578697374656e7420746f6b656e00000000000000000000000000000000006020830152604082019050919050565b6000613edb602183614564565b91507f4552433732313a20617070726f76616c20746f2063757272656e74206f776e6560008301527f72000000000000000000000000000000000000000000000000000000000000006020830152604082019050919050565b6000613f41603183614564565b91507f4552433732313a207472616e736665722063616c6c6572206973206e6f74206f60008301527f776e6572206e6f7220617070726f7665640000000000000000000000000000006020830152604082019050919050565b613fa381614685565b82525050565b613fb2816146b3565b82525050565b613fc1816146bd565b82525050565b6000613fd38284613883565b915081905092915050565b6000613fea828561393b565b9150613ff6828461393b565b91508190509392505050565b6000602082019050614017600083018461382c565b92915050565b6000606082019050614032600083018661382c565b61403f602083018561382c565b81810360408301526140518184613902565b9050949350505050565b6000608082019050614070600083018761382c565b61407d602083018661382c565b61408a6040830185613fa9565b818103606083015261409c818461384a565b905095945050505050565b60006040820190506140bc600083018561382c565b6140c96020830184613fb8565b9392505050565b60006020820190506140e5600083018461383b565b92915050565b600060208201905081810360008301526141058184613902565b905092915050565b600060408201905081810360008301526141278185613902565b9050614136602083018461382c565b9392505050565b600060608201905081810360008301526141578186613902565b90506141666020830185613f9a565b614173604083018461382c565b949350505050565b600060208201905081810360008301526141948161396c565b9050919050565b600060208201905081810360008301526141b4816139d2565b9050919050565b600060208201905081810360008301526141d481613a38565b9050919050565b600060208201905081810360008301526141f481613a78565b9050919050565b6000602082019050818103600083015261421481613ade565b9050919050565b6000602082019050818103600083015261423481613b1e565b9050919050565b6000602082019050818103600083015261425481613b84565b9050919050565b6000602082019050818103600083015261427481613bea565b9050919050565b6000602082019050818103600083015261429481613c50565b9050919050565b600060208201905081810360008301526142b481613cb6565b9050919050565b600060208201905081810360008301526142d481613cf6565b9050919050565b600060208201905081810360008301526142f481613d5c565b9050919050565b6000602082019050818103600083015261431481613dc2565b9050919050565b6000602082019050818103600083015261433481613e02565b9050919050565b6000602082019050818103600083015261435481613e68565b9050919050565b6000602082019050818103600083015261437481613ece565b9050919050565b6000602082019050818103600083015261439481613f34565b9050919050565b60006020820190506143b06000830184613fa9565b92915050565b600060a0820190506143cb6000830188613fa9565b81810360208301526143dd8187613902565b90506143ec6040830186613fa9565b81810360608301526143fe8185613902565b905081810360808301526144128184613902565b90509695505050505050565b60006020820190506144336000830184613fb8565b92915050565b600060808201905061444e6000830187613fb8565b61445b6020830186613fa9565b818103604083015261446d8185613902565b905081810360608301526144818184613902565b905095945050505050565b6000604051905081810181811067ffffffffffffffff821117156144b3576144b26148a0565b5b8060405250919050565b600067ffffffffffffffff8211156144d8576144d76148a0565b5b601f19601f8301169050602081019050919050565b600067ffffffffffffffff821115614508576145076148a0565b5b601f19601f8301169050602081019050919050565b60008190508160005260206000209050919050565b600081519050919050565b600081519050919050565b600082825260208201905092915050565b600081905092915050565b600082825260208201905092915050565b600081905092915050565b600061458b826146b3565b9150614596836146b3565b9250827fffffffffffffffffffffffffffffffffffffffffffffffffffffffffffffffff038211156145cb576145ca614813565b5b828201905092915050565b60006145e1826146b3565b91506145ec836146b3565b9250826145fc576145fb614842565b5b828204905092915050565b6000614612826146b3565b915061461d836146b3565b9250828210156146305761462f614813565b5b828203905092915050565b600061464682614693565b9050919050565b60008115159050919050565b60007fffffffff0000000000000000000000000000000000000000000000000000000082169050919050565b600061ffff82169050919050565b600073ffffffffffffffffffffffffffffffffffffffff82169050919050565b6000819050919050565b600063ffffffff82169050919050565b82818337600083830152505050565b60005b838110156146fa5780820151818401526020810190506146df565b83811115614709576000848401525b50505050565b6000600282049050600182168061472757607f821691505b6020821081141561473b5761473a614871565b5b50919050565b600061474c82614685565b915061ffff82141561476157614760614813565b5b600182019050919050565b6000614777826146b3565b91507fffffffffffffffffffffffffffffffffffffffffffffffffffffffffffffffff8214156147aa576147a9614813565b5b600182019050919050565b60006147c0826146bd565b915063ffffffff8214156147d7576147d6614813565b5b600182019050919050565b60006147ed826146b3565b91506147f8836146b3565b92508261480857614807614842565b5b828206905092915050565b7f4e487b7100000000000000000000000000000000000000000000000000000000600052601160045260246000fd5b7f4e487b7100000000000000000000000000000000000000000000000000000000600052601260045260246000fd5b7f4e487b7100000000000000000000000000000000000000000000000000000000600052602260045260246000fd5b7f4e487b7100000000000000000000000000000000000000000000000000000000600052604160045260246000fd5b6000601f19601f8301169050919050565b6148e98161463b565b81146148f457600080fd5b50565b6149008161464d565b811461490b57600080fd5b50565b61491781614659565b811461492257600080fd5b50565b61492e816146b3565b811461493957600080fd5b50565b614945816146bd565b811461495057600080fd5b5056fea2646970667358221220e220924335d270626237715248a649918b68cb1770182cc18b290b9a77335a2064736f6c63430008000033",
  "immutableReferences": {},
  "source": "// SPDX-License-Identifier: MIT\r\npragma solidity >=0.4.22 <0.9.0;\r\n\r\nimport \"./DoBuyNFT.sol\";\r\n// import \"./SafeMath.sol\";\r\nimport \"@openzeppelin/contracts/access/Ownable.sol\";\r\n\r\ncontract MarketNFT is DoBuyNFT, Ownable {\r\n    // using SafeMath for uint256;\r\n    // using SafeMath32 for uint32;\r\n    // using SafeMath16 for uint16;\r\n\r\n    /// @dev Market Ids\r\n    uint32 public _MarketIds;\r\n\r\n    //  \r\n    mapping (uint256 => MarketList) public _MarketList;\r\n    // mapping (uint256 => address) public _MarketToOwner;\r\n\r\n    /// @dev Product Counts\r\n    uint32 public ProductCounts;\r\n    \r\n    /// @dev Product Transaction\r\n    struct ProductTrans {\r\n        string name_product;\r\n        address whobuy;\r\n    }\r\n\r\n    //    \r\n    mapping (uint32 => ProductTrans) public ProductBuy;\r\n\r\n    /// @dev Market \r\n    struct MarketList {\r\n        uint256 _ids; // serial number\r\n        string price_ETH; // Price of ETH\r\n        uint256 price_DoBuy; // Price of DoBuy\r\n        string name; // names\r\n        string img_url; // IMAGE URL\r\n    }\r\n\r\n    constructor() {\r\n        _MarketList[_MarketIds] = MarketList(_MarketIds, \"0\", 0, \"NFT SHOP\", \"DoBuy.png\");\r\n        _MarketIds++;\r\n        _MarketList[_MarketIds] = MarketList(_MarketIds, \"0.012\", 1200, \"Potato\", \"potato.jpg\");\r\n        _MarketIds++;\r\n        _MarketList[_MarketIds] = MarketList(_MarketIds, \"0.025\", 2500, \"Banana\", \"banana.jpg\");\r\n        _MarketIds++;\r\n        _MarketList[_MarketIds] = MarketList(_MarketIds, \"0.01\", 1000, \"Apple\", \"apple.jpg\");\r\n    }\r\n\r\n    /**\r\n    *  @dev MarketList  \r\n    *  @param _ETH ETH \r\n    *  @param _DoBuy DoBuy \r\n    *  @param _name  \r\n    *  @param _img_url  \r\n    */\r\n    function setMarketList(string memory _ETH, uint256 _DoBuy, string memory _name, string memory _img_url) external onlyOwner {\r\n        _MarketIds++;\r\n        uint256 newMarketId = _MarketIds;\r\n        _MarketList[newMarketId] = MarketList(newMarketId, _ETH, _DoBuy, _name, _img_url);\r\n    }\r\n\r\n    /**\r\n    *  @dev MarketList  \r\n    *  @param _num_ids  \r\n    */\r\n    function delMarketList(uint256 _num_ids) external onlyOwner {\r\n        delete _MarketList[_num_ids];\r\n    }\r\n\r\n    function buyMarket(uint256 _num_ids) external {\r\n        ProductBuy[ProductCounts] = ProductTrans(_MarketList[_num_ids].name, msg.sender);\r\n        ProductCounts++;\r\n        _marketBuy(_MarketList[_num_ids].name, _MarketList[_num_ids].img_url);\r\n    }\r\n}",
  "sourcePath": "C:/Users/redqo/Desktop/DoBuy_project/contracts/MarketNFT.sol",
  "compiler": {
    "name": "solc",
    "version": "0.8.0+commit.c7dfd78e.Emscripten.clang"
  },
  "schemaVersion": "3.4.1",
  "updatedAt": "2021-08-23T00:04:54.113Z",
  "networkType": "ethereum",
  "devdoc": {
    "kind": "dev",
    "methods": {
      "approve(address,uint256)": {
        "details": "See {IERC721-approve}."
      },
      "balanceOf(address)": {
        "details": "See {IERC721-balanceOf}."
      },
      "burnNFT(uint32)": {
        "details": "delivery -    NFT "
      },
      "delMarketList(uint256)": {
        "details": "MarketList  ",
        "params": {
          "_num_ids": " "
        }
      },
      "getApproved(uint256)": {
        "details": "See {IERC721-getApproved}."
      },
      "isApprovedForAll(address,address)": {
        "details": "See {IERC721-isApprovedForAll}."
      },
      "mint(string,string)": {
        "details": "NFT   NFT Token ",
        "params": {
          "_image_url": "NFT  ",
          "_name": "NFT "
        }
      },
      "name()": {
        "details": "See {IERC721Metadata-name}."
      },
      "owner()": {
        "details": "Returns the address of the current owner."
      },
      "ownerOf(uint256)": {
        "details": "See {IERC721-ownerOf}."
      },
      "renounceOwnership()": {
        "details": "Leaves the contract without owner. It will not be possible to call `onlyOwner` functions anymore. Can only be called by the current owner. NOTE: Renouncing ownership will leave the contract without an owner, thereby removing any functionality that is only available to the owner."
      },
      "safeTransferFrom(address,address,uint256)": {
        "details": "See {IERC721-safeTransferFrom}."
      },
      "safeTransferFrom(address,address,uint256,bytes)": {
        "details": "See {IERC721-safeTransferFrom}."
      },
      "setApprovalForAll(address,bool)": {
        "details": "See {IERC721-setApprovalForAll}."
      },
      "setMarketList(string,uint256,string,string)": {
        "details": "MarketList  ",
        "params": {
          "_DoBuy": "DoBuy ",
          "_ETH": "ETH ",
          "_img_url": " ",
          "_name": " "
        }
      },
      "supportsInterface(bytes4)": {
        "details": "See {IERC165-supportsInterface}."
      },
      "symbol()": {
        "details": "See {IERC721Metadata-symbol}."
      },
      "tokenURI(uint256)": {
        "details": "See {IERC721Metadata-tokenURI}."
      },
      "transferFrom(address,address,uint256)": {
        "details": "See {IERC721-transferFrom}."
      },
      "transferNFT(uint32)": {
        "details": "NFT  ",
        "params": {
          "_Id": "NFT _Ids"
        }
      },
      "transferOwnership(address)": {
        "details": "Transfers ownership of the contract to a new account (`newOwner`). Can only be called by the current owner."
      }
    },
    "stateVariables": {
      "ProductCounts": {
        "details": "Product Counts"
      },
      "_MarketIds": {
        "details": "Market Ids"
      }
    },
    "version": 1
  },
  "userdoc": {
    "kind": "user",
    "methods": {},
    "version": 1
  }
}