{
  "contractName": "MarketNFT",
  "abi": [
    {
      "inputs": [],
      "stateMutability": "nonpayable",
      "type": "constructor"
    },
    {
      "anonymous": false,
      "inputs": [
        {
          "indexed": true,
          "internalType": "address",
          "name": "owner",
          "type": "address"
        },
        {
          "indexed": true,
          "internalType": "address",
          "name": "approved",
          "type": "address"
        },
        {
          "indexed": true,
          "internalType": "uint256",
          "name": "tokenId",
          "type": "uint256"
        }
      ],
      "name": "Approval",
      "type": "event"
    },
    {
      "anonymous": false,
      "inputs": [
        {
          "indexed": true,
          "internalType": "address",
          "name": "owner",
          "type": "address"
        },
        {
          "indexed": true,
          "internalType": "address",
          "name": "operator",
          "type": "address"
        },
        {
          "indexed": false,
          "internalType": "bool",
          "name": "approved",
          "type": "bool"
        }
      ],
      "name": "ApprovalForAll",
      "type": "event"
    },
    {
      "anonymous": false,
      "inputs": [
        {
          "indexed": false,
          "internalType": "address",
          "name": "",
          "type": "address"
        },
        {
          "indexed": false,
          "internalType": "uint32",
          "name": "",
          "type": "uint32"
        }
      ],
      "name": "DoBuyCreated",
      "type": "event"
    },
    {
      "anonymous": false,
      "inputs": [
        {
          "indexed": true,
          "internalType": "address",
          "name": "previousOwner",
          "type": "address"
        },
        {
          "indexed": true,
          "internalType": "address",
          "name": "newOwner",
          "type": "address"
        }
      ],
      "name": "OwnershipTransferred",
      "type": "event"
    },
    {
      "anonymous": false,
      "inputs": [
        {
          "indexed": true,
          "internalType": "address",
          "name": "from",
          "type": "address"
        },
        {
          "indexed": true,
          "internalType": "address",
          "name": "to",
          "type": "address"
        },
        {
          "indexed": true,
          "internalType": "uint256",
          "name": "tokenId",
          "type": "uint256"
        }
      ],
      "name": "Transfer",
      "type": "event"
    },
    {
      "inputs": [
        {
          "internalType": "uint32",
          "name": "",
          "type": "uint32"
        }
      ],
      "name": "ProductBuy",
      "outputs": [
        {
          "internalType": "string",
          "name": "name_product",
          "type": "string"
        },
        {
          "internalType": "address",
          "name": "whobuy",
          "type": "address"
        }
      ],
      "stateMutability": "view",
      "type": "function",
      "constant": true
    },
    {
      "inputs": [],
      "name": "ProductCounts",
      "outputs": [
        {
          "internalType": "uint32",
          "name": "",
          "type": "uint32"
        }
      ],
      "stateMutability": "view",
      "type": "function",
      "constant": true
    },
    {
      "inputs": [
        {
          "internalType": "uint32",
          "name": "",
          "type": "uint32"
        }
      ],
      "name": "_DoBuyToOwner",
      "outputs": [
        {
          "internalType": "address",
          "name": "",
          "type": "address"
        }
      ],
      "stateMutability": "view",
      "type": "function",
      "constant": true
    },
    {
      "inputs": [
        {
          "internalType": "uint32",
          "name": "",
          "type": "uint32"
        }
      ],
      "name": "_DoBuylist",
      "outputs": [
        {
          "internalType": "uint32",
          "name": "_Ids",
          "type": "uint32"
        },
        {
          "internalType": "uint256",
          "name": "timestamp",
          "type": "uint256"
        },
        {
          "internalType": "string",
          "name": "name",
          "type": "string"
        },
        {
          "internalType": "string",
          "name": "image_url",
          "type": "string"
        }
      ],
      "stateMutability": "view",
      "type": "function",
      "constant": true
    },
    {
      "inputs": [],
      "name": "_MarketIds",
      "outputs": [
        {
          "internalType": "uint32",
          "name": "",
          "type": "uint32"
        }
      ],
      "stateMutability": "view",
      "type": "function",
      "constant": true
    },
    {
      "inputs": [
        {
          "internalType": "uint256",
          "name": "",
          "type": "uint256"
        }
      ],
      "name": "_MarketList",
      "outputs": [
        {
          "internalType": "uint256",
          "name": "_ids",
          "type": "uint256"
        },
        {
          "internalType": "string",
          "name": "price_ETH",
          "type": "string"
        },
        {
          "internalType": "uint256",
          "name": "price_DoBuy",
          "type": "uint256"
        },
        {
          "internalType": "string",
          "name": "name",
          "type": "string"
        },
        {
          "internalType": "string",
          "name": "img_url",
          "type": "string"
        }
      ],
      "stateMutability": "view",
      "type": "function",
      "constant": true
    },
    {
      "inputs": [
        {
          "internalType": "uint256",
          "name": "",
          "type": "uint256"
        }
      ],
      "name": "_TradeTransaction",
      "outputs": [
        {
          "internalType": "address",
          "name": "_from",
          "type": "address"
        },
        {
          "internalType": "address",
          "name": "_to",
          "type": "address"
        },
        {
          "internalType": "string",
          "name": "name",
          "type": "string"
        }
      ],
      "stateMutability": "view",
      "type": "function",
      "constant": true
    },
    {
      "inputs": [],
      "name": "_tokenIds",
      "outputs": [
        {
          "internalType": "uint32",
          "name": "",
          "type": "uint32"
        }
      ],
      "stateMutability": "view",
      "type": "function",
      "constant": true
    },
    {
      "inputs": [],
      "name": "_tradeIds",
      "outputs": [
        {
          "internalType": "uint32",
          "name": "",
          "type": "uint32"
        }
      ],
      "stateMutability": "view",
      "type": "function",
      "constant": true
    },
    {
      "inputs": [
        {
          "internalType": "address",
          "name": "to",
          "type": "address"
        },
        {
          "internalType": "uint256",
          "name": "tokenId",
          "type": "uint256"
        }
      ],
      "name": "approve",
      "outputs": [],
      "stateMutability": "nonpayable",
      "type": "function"
    },
    {
      "inputs": [
        {
          "internalType": "address",
          "name": "owner",
          "type": "address"
        }
      ],
      "name": "balanceOf",
      "outputs": [
        {
          "internalType": "uint256",
          "name": "",
          "type": "uint256"
        }
      ],
      "stateMutability": "view",
      "type": "function",
      "constant": true
    },
    {
      "inputs": [
        {
          "internalType": "uint32",
          "name": "_Id",
          "type": "uint32"
        }
      ],
      "name": "burnNFT",
      "outputs": [],
      "stateMutability": "nonpayable",
      "type": "function"
    },
    {
      "inputs": [
        {
          "internalType": "uint256",
          "name": "tokenId",
          "type": "uint256"
        }
      ],
      "name": "getApproved",
      "outputs": [
        {
          "internalType": "address",
          "name": "",
          "type": "address"
        }
      ],
      "stateMutability": "view",
      "type": "function",
      "constant": true
    },
    {
      "inputs": [
        {
          "internalType": "uint256",
          "name": "",
          "type": "uint256"
        }
      ],
      "name": "haveitem",
      "outputs": [
        {
          "internalType": "string",
          "name": "name",
          "type": "string"
        },
        {
          "internalType": "uint16",
          "name": "amount",
          "type": "uint16"
        },
        {
          "internalType": "address",
          "name": "user_wallet",
          "type": "address"
        }
      ],
      "stateMutability": "view",
      "type": "function",
      "constant": true
    },
    {
      "inputs": [
        {
          "internalType": "address",
          "name": "owner",
          "type": "address"
        },
        {
          "internalType": "address",
          "name": "operator",
          "type": "address"
        }
      ],
      "name": "isApprovedForAll",
      "outputs": [
        {
          "internalType": "bool",
          "name": "",
          "type": "bool"
        }
      ],
      "stateMutability": "view",
      "type": "function",
      "constant": true
    },
    {
      "inputs": [
        {
          "internalType": "string",
          "name": "_name",
          "type": "string"
        },
        {
          "internalType": "string",
          "name": "_image_url",
          "type": "string"
        }
      ],
      "name": "mint",
      "outputs": [],
      "stateMutability": "nonpayable",
      "type": "function"
    },
    {
      "inputs": [],
      "name": "name",
      "outputs": [
        {
          "internalType": "string",
          "name": "",
          "type": "string"
        }
      ],
      "stateMutability": "view",
      "type": "function",
      "constant": true
    },
    {
      "inputs": [],
      "name": "owner",
      "outputs": [
        {
          "internalType": "address",
          "name": "",
          "type": "address"
        }
      ],
      "stateMutability": "view",
      "type": "function",
      "constant": true
    },
    {
      "inputs": [
        {
          "internalType": "uint256",
          "name": "tokenId",
          "type": "uint256"
        }
      ],
      "name": "ownerOf",
      "outputs": [
        {
          "internalType": "address",
          "name": "",
          "type": "address"
        }
      ],
      "stateMutability": "view",
      "type": "function",
      "constant": true
    },
    {
      "inputs": [],
      "name": "renounceOwnership",
      "outputs": [],
      "stateMutability": "nonpayable",
      "type": "function"
    },
    {
      "inputs": [
        {
          "internalType": "address",
          "name": "from",
          "type": "address"
        },
        {
          "internalType": "address",
          "name": "to",
          "type": "address"
        },
        {
          "internalType": "uint256",
          "name": "tokenId",
          "type": "uint256"
        }
      ],
      "name": "safeTransferFrom",
      "outputs": [],
      "stateMutability": "nonpayable",
      "type": "function"
    },
    {
      "inputs": [
        {
          "internalType": "address",
          "name": "from",
          "type": "address"
        },
        {
          "internalType": "address",
          "name": "to",
          "type": "address"
        },
        {
          "internalType": "uint256",
          "name": "tokenId",
          "type": "uint256"
        },
        {
          "internalType": "bytes",
          "name": "_data",
          "type": "bytes"
        }
      ],
      "name": "safeTransferFrom",
      "outputs": [],
      "stateMutability": "nonpayable",
      "type": "function"
    },
    {
      "inputs": [
        {
          "internalType": "address",
          "name": "operator",
          "type": "address"
        },
        {
          "internalType": "bool",
          "name": "approved",
          "type": "bool"
        }
      ],
      "name": "setApprovalForAll",
      "outputs": [],
      "stateMutability": "nonpayable",
      "type": "function"
    },
    {
      "inputs": [
        {
          "internalType": "bytes4",
          "name": "interfaceId",
          "type": "bytes4"
        }
      ],
      "name": "supportsInterface",
      "outputs": [
        {
          "internalType": "bool",
          "name": "",
          "type": "bool"
        }
      ],
      "stateMutability": "view",
      "type": "function",
      "constant": true
    },
    {
      "inputs": [],
      "name": "symbol",
      "outputs": [
        {
          "internalType": "string",
          "name": "",
          "type": "string"
        }
      ],
      "stateMutability": "view",
      "type": "function",
      "constant": true
    },
    {
      "inputs": [
        {
          "internalType": "uint256",
          "name": "tokenId",
          "type": "uint256"
        }
      ],
      "name": "tokenURI",
      "outputs": [
        {
          "internalType": "string",
          "name": "",
          "type": "string"
        }
      ],
      "stateMutability": "view",
      "type": "function",
      "constant": true
    },
    {
      "inputs": [
        {
          "internalType": "address",
          "name": "from",
          "type": "address"
        },
        {
          "internalType": "address",
          "name": "to",
          "type": "address"
        },
        {
          "internalType": "uint256",
          "name": "tokenId",
          "type": "uint256"
        }
      ],
      "name": "transferFrom",
      "outputs": [],
      "stateMutability": "nonpayable",
      "type": "function"
    },
    {
      "inputs": [
        {
          "internalType": "uint32",
          "name": "_Id",
          "type": "uint32"
        }
      ],
      "name": "transferNFT",
      "outputs": [],
      "stateMutability": "nonpayable",
      "type": "function"
    },
    {
      "inputs": [
        {
          "internalType": "address",
          "name": "newOwner",
          "type": "address"
        }
      ],
      "name": "transferOwnership",
      "outputs": [],
      "stateMutability": "nonpayable",
      "type": "function"
    },
    {
      "inputs": [
        {
          "internalType": "string",
          "name": "_ETH",
          "type": "string"
        },
        {
          "internalType": "uint256",
          "name": "_DoBuy",
          "type": "uint256"
        },
        {
          "internalType": "string",
          "name": "_name",
          "type": "string"
        },
        {
          "internalType": "string",
          "name": "_img_url",
          "type": "string"
        }
      ],
      "name": "setMarketList",
      "outputs": [],
      "stateMutability": "nonpayable",
      "type": "function"
    },
    {
      "inputs": [
        {
          "internalType": "uint256",
          "name": "_num_ids",
          "type": "uint256"
        }
      ],
      "name": "delMarketList",
      "outputs": [],
      "stateMutability": "nonpayable",
      "type": "function"
    },
    {
      "inputs": [
        {
          "internalType": "uint256",
          "name": "_num_ids",
          "type": "uint256"
        }
      ],
      "name": "buyMarket",
      "outputs": [],
      "stateMutability": "nonpayable",
      "type": "function"
    }
  ],
  "bytecode": "0x60806040523480156200001157600080fd5b506040518060400160405280600881526020017f446f4275794e46540000000000000000000000000000000000000000000000008152506040518060400160405280600581526020017f44424e465400000000000000000000000000000000000000000000000000000081525081600090805190602001906200009692919062000aae565b508060019080519060200190620000af92919062000aae565b50505033600760006101000a81548173ffffffffffffffffffffffffffffffffffffffff021916908373ffffffffffffffffffffffffffffffffffffffff1602179055506040518060800160405280600760149054906101000a900463ffffffff1663ffffffff1681526020014281526020016040518060400160405280600c81526020017f446f42757920537461727421000000000000000000000000000000000000000081525081526020016040518060400160405280600981526020017f446f4275792e706e67000000000000000000000000000000000000000000000081525081525060086000600760149054906101000a900463ffffffff1663ffffffff1663ffffffff16815260200190815260200160002060008201518160000160006101000a81548163ffffffff021916908363ffffffff1602179055506020820151816001015560408201518160020190805190602001906200021692919062000aae565b5060608201518160030190805190602001906200023592919062000aae565b509050503360096000600760149054906101000a900463ffffffff1663ffffffff1663ffffffff16815260200190815260200160002060006101000a81548173ffffffffffffffffffffffffffffffffffffffff021916908373ffffffffffffffffffffffffffffffffffffffff1602179055507fd3541a7229e521bbd5f9dab3a283435fe8e2ba7a6ae962cafce8cadbec96dcb033600760149054906101000a900463ffffffff16604051620002ee92919062000b80565b60405180910390a1620003166200030a620009e060201b60201c565b620009e860201b60201c565b6040518060a00160405280600d60149054906101000a900463ffffffff1663ffffffff1681526020016040518060400160405280600181526020017f30000000000000000000000000000000000000000000000000000000000000008152508152602001600081526020016040518060400160405280600881526020017f4e46542053484f5000000000000000000000000000000000000000000000000081525081526020016040518060400160405280600981526020017f446f4275792e706e670000000000000000000000000000000000000000000000815250815250600e6000600d60149054906101000a900463ffffffff1663ffffffff1681526020019081526020016000206000820151816000015560208201518160010190805190602001906200044892919062000aae565b506040820151816002015560608201518160030190805190602001906200047192919062000aae565b5060808201518160040190805190602001906200049092919062000aae565b50905050600d601481819054906101000a900463ffffffff1680929190620004b89062000c27565b91906101000a81548163ffffffff021916908363ffffffff160217905550506040518060a00160405280600d60149054906101000a900463ffffffff1663ffffffff1681526020016040518060400160405280600581526020017f302e30313200000000000000000000000000000000000000000000000000000081525081526020016104b081526020016040518060400160405280600681526020017f506f7461746f000000000000000000000000000000000000000000000000000081525081526020016040518060400160405280600a81526020017f706f7461746f2e6a706700000000000000000000000000000000000000000000815250815250600e6000600d60149054906101000a900463ffffffff1663ffffffff1681526020019081526020016000206000820151816000015560208201518160010190805190602001906200060a92919062000aae565b506040820151816002015560608201518160030190805190602001906200063392919062000aae565b5060808201518160040190805190602001906200065292919062000aae565b50905050600d601481819054906101000a900463ffffffff16809291906200067a9062000c27565b91906101000a81548163ffffffff021916908363ffffffff160217905550506040518060a00160405280600d60149054906101000a900463ffffffff1663ffffffff1681526020016040518060400160405280600581526020017f302e30313500000000000000000000000000000000000000000000000000000081525081526020016109c481526020016040518060400160405280600681526020017f42616e616e61000000000000000000000000000000000000000000000000000081525081526020016040518060400160405280600a81526020017f62616e616e612e6a706700000000000000000000000000000000000000000000815250815250600e6000600d60149054906101000a900463ffffffff1663ffffffff168152602001908152602001600020600082015181600001556020820151816001019080519060200190620007cc92919062000aae565b50604082015181600201556060820151816003019080519060200190620007f592919062000aae565b5060808201518160040190805190602001906200081492919062000aae565b50905050600d601481819054906101000a900463ffffffff16809291906200083c9062000c27565b91906101000a81548163ffffffff021916908363ffffffff160217905550506040518060a00160405280600d60149054906101000a900463ffffffff1663ffffffff1681526020016040518060400160405280600481526020017f302e30310000000000000000000000000000000000000000000000000000000081525081526020016103e881526020016040518060400160405280600581526020017f4170706c6500000000000000000000000000000000000000000000000000000081525081526020016040518060400160405280600981526020017f6170706c652e6a70670000000000000000000000000000000000000000000000815250815250600e6000600d60149054906101000a900463ffffffff1663ffffffff1681526020019081526020016000206000820151816000015560208201518160010190805190602001906200098e92919062000aae565b50604082015181600201556060820151816003019080519060200190620009b792919062000aae565b506080820151816004019080519060200190620009d692919062000aae565b5090505062000cb7565b600033905090565b6000600d60009054906101000a900473ffffffffffffffffffffffffffffffffffffffff16905081600d60006101000a81548173ffffffffffffffffffffffffffffffffffffffff021916908373ffffffffffffffffffffffffffffffffffffffff1602179055508173ffffffffffffffffffffffffffffffffffffffff168173ffffffffffffffffffffffffffffffffffffffff167f8be0079c531659141344cd1fd0a4f28419497f9722a3daafe3b4186f6b6457e060405160405180910390a35050565b82805462000abc9062000bf1565b90600052602060002090601f01602090048101928262000ae0576000855562000b2c565b82601f1062000afb57805160ff191683800117855562000b2c565b8280016001018555821562000b2c579182015b8281111562000b2b57825182559160200191906001019062000b0e565b5b50905062000b3b919062000b3f565b5090565b5b8082111562000b5a57600081600090555060010162000b40565b5090565b62000b698162000bad565b82525050565b62000b7a8162000be1565b82525050565b600060408201905062000b97600083018562000b5e565b62000ba6602083018462000b6f565b9392505050565b600062000bba8262000bc1565b9050919050565b600073ffffffffffffffffffffffffffffffffffffffff82169050919050565b600063ffffffff82169050919050565b6000600282049050600182168062000c0a57607f821691505b6020821081141562000c215762000c2062000c88565b5b50919050565b600062000c348262000be1565b915063ffffffff82141562000c4e5762000c4d62000c59565b5b600182019050919050565b7f4e487b7100000000000000000000000000000000000000000000000000000000600052601160045260246000fd5b7f4e487b7100000000000000000000000000000000000000000000000000000000600052602260045260246000fd5b6149758062000cc76000396000f3fe608060405234801561001057600080fd5b50600436106101f05760003560e01c806395d89b411161010f578063e985e9c5116100a2578063f25650f611610071578063f25650f6146105d1578063f2fde38b14610604578063f90852c714610620578063f9ce1b9f1461063c576101f0565b8063e985e9c514610535578063eeea743714610565578063f108461214610597578063f1d861ec146105b3576101f0565b8063b88d4fde116100de578063b88d4fde146104b1578063c80d35e0146104cd578063c87b56dd146104e9578063cc86afbe14610519576101f0565b806395d89b411461043b578063a22cb46514610459578063aa46a40014610475578063b448753614610493576101f0565b806342842e0e11610187578063715018a611610156578063715018a6146103c55780637f4c8873146103cf5780638aa0fdad146104015780638da5cb5b1461041d576101f0565b806342842e0e1461032b5780636352211e146103475780636eb75dad1461037757806370a0823114610395576101f0565b806322258681116101c3578063222586811461028f57806323b872dd146102ab5780632d72c84e146102c75780632fb21c28146102fb576101f0565b806301ffc9a7146101f557806306fdde0314610225578063081812fc14610243578063095ea7b314610273575b600080fd5b61020f600480360381019061020a919061365d565b61066d565b60405161021c91906140bc565b60405180910390f35b61022d61074f565b60405161023a91906140d7565b60405180910390f35b61025d600480360381019061025891906137c6565b6107e1565b60405161026a9190613fee565b60405180910390f35b61028d60048036038101906102889190613621565b610866565b005b6102a960048036038101906102a4919061371b565b61097e565b005b6102c560048036038101906102c0919061351b565b610b07565b005b6102e160048036038101906102dc91906137c6565b610b67565b6040516102f29594939291906143a2565b60405180910390f35b610315600480360381019061031091906137ef565b610d35565b6040516103229190613fee565b60405180910390f35b6103456004803603810190610340919061351b565b610d68565b005b610361600480360381019061035c91906137c6565b610d88565b60405161036e9190613fee565b60405180910390f35b61037f610e3a565b60405161038c919061440a565b60405180910390f35b6103af60048036038101906103aa91906134b6565b610e50565b6040516103bc9190614387565b60405180910390f35b6103cd610f08565b005b6103e960048036038101906103e491906137c6565b610f90565b6040516103f893929190614129565b60405180910390f35b61041b600480360381019061041691906136af565b611080565b005b610425611238565b6040516104329190613fee565b60405180910390f35b610443611262565b60405161045091906140d7565b60405180910390f35b610473600480360381019061046e91906135e5565b6112f4565b005b61047d611475565b60405161048a919061440a565b60405180910390f35b61049b61148b565b6040516104a8919061440a565b60405180910390f35b6104cb60048036038101906104c6919061356a565b6114a1565b005b6104e760048036038101906104e291906137c6565b611503565b005b61050360048036038101906104fe91906137c6565b6115d8565b60405161051091906140d7565b60405180910390f35b610533600480360381019061052e91906137ef565b61172a565b005b61054f600480360381019061054a91906134df565b611825565b60405161055c91906140bc565b60405180910390f35b61057f600480360381019061057a91906137c6565b6118b9565b60405161058e93929190614009565b60405180910390f35b6105b160048036038101906105ac91906137ef565b6119ab565b005b6105bb611c6d565b6040516105c8919061440a565b60405180910390f35b6105eb60048036038101906105e691906137ef565b611c83565b6040516105fb9493929190614425565b60405180910390f35b61061e600480360381019061061991906134b6565b611dd3565b005b61063a600480360381019061063591906137c6565b611ecb565b005b610656600480360381019061065191906137ef565b6121b7565b6040516106649291906140f9565b60405180910390f35b60007f80ac58cd000000000000000000000000000000000000000000000000000000007bffffffffffffffffffffffffffffffffffffffffffffffffffffffff1916827bffffffffffffffffffffffffffffffffffffffffffffffffffffffff1916148061073857507f5b5e139f000000000000000000000000000000000000000000000000000000007bffffffffffffffffffffffffffffffffffffffffffffffffffffffff1916827bffffffffffffffffffffffffffffffffffffffffffffffffffffffff1916145b80610748575061074782612283565b5b9050919050565b60606000805461075e906146fb565b80601f016020809104026020016040519081016040528092919081815260200182805461078a906146fb565b80156107d75780601f106107ac576101008083540402835291602001916107d7565b820191906000526020600020905b8154815290600101906020018083116107ba57829003601f168201915b5050505050905090565b60006107ec826122ed565b61082b576040517f08c379a0000000000000000000000000000000000000000000000000000000008152600401610822906142c7565b60405180910390fd5b6004600083815260200190815260200160002060009054906101000a900473ffffffffffffffffffffffffffffffffffffffff169050919050565b600061087182610d88565b90508073ffffffffffffffffffffffffffffffffffffffff168373ffffffffffffffffffffffffffffffffffffffff1614156108e2576040517f08c379a00000000000000000000000000000000000000000000000000000000081526004016108d990614347565b60405180910390fd5b8073ffffffffffffffffffffffffffffffffffffffff16610901612359565b73ffffffffffffffffffffffffffffffffffffffff161480610930575061092f8161092a612359565b611825565b5b61096f576040517f08c379a000000000000000000000000000000000000000000000000000000000815260040161096690614227565b60405180910390fd5b6109798383612361565b505050565b610986612359565b73ffffffffffffffffffffffffffffffffffffffff166109a4611238565b73ffffffffffffffffffffffffffffffffffffffff16146109fa576040517f08c379a00000000000000000000000000000000000000000000000000000000081526004016109f1906142e7565b60405180910390fd5b600d601481819054906101000a900463ffffffff1680929190610a1c906147a1565b91906101000a81548163ffffffff021916908363ffffffff160217905550506000600d60149054906101000a900463ffffffff1663ffffffff1690506040518060a0016040528082815260200186815260200185815260200184815260200183815250600e6000838152602001908152602001600020600082015181600001556020820151816001019080519060200190610ab8929190613285565b50604082015181600201556060820151816003019080519060200190610adf929190613285565b506080820151816004019080519060200190610afc929190613285565b509050505050505050565b610b18610b12612359565b8261241a565b610b57576040517f08c379a0000000000000000000000000000000000000000000000000000000008152600401610b4e90614367565b60405180910390fd5b610b628383836124f8565b505050565b600e602052806000526040600020600091509050806000015490806001018054610b90906146fb565b80601f0160208091040260200160405190810160405280929190818152602001828054610bbc906146fb565b8015610c095780601f10610bde57610100808354040283529160200191610c09565b820191906000526020600020905b815481529060010190602001808311610bec57829003601f168201915b505050505090806002015490806003018054610c24906146fb565b80601f0160208091040260200160405190810160405280929190818152602001828054610c50906146fb565b8015610c9d5780601f10610c7257610100808354040283529160200191610c9d565b820191906000526020600020905b815481529060010190602001808311610c8057829003601f168201915b505050505090806004018054610cb2906146fb565b80601f0160208091040260200160405190810160405280929190818152602001828054610cde906146fb565b8015610d2b5780601f10610d0057610100808354040283529160200191610d2b565b820191906000526020600020905b815481529060010190602001808311610d0e57829003601f168201915b5050505050905085565b60096020528060005260406000206000915054906101000a900473ffffffffffffffffffffffffffffffffffffffff1681565b610d83838383604051806020016040528060008152506114a1565b505050565b6000806002600084815260200190815260200160002060009054906101000a900473ffffffffffffffffffffffffffffffffffffffff169050600073ffffffffffffffffffffffffffffffffffffffff168173ffffffffffffffffffffffffffffffffffffffff161415610e31576040517f08c379a0000000000000000000000000000000000000000000000000000000008152600401610e2890614267565b60405180910390fd5b80915050919050565b600b60009054906101000a900463ffffffff1681565b60008073ffffffffffffffffffffffffffffffffffffffff168273ffffffffffffffffffffffffffffffffffffffff161415610ec1576040517f08c379a0000000000000000000000000000000000000000000000000000000008152600401610eb890614247565b60405180910390fd5b600360008373ffffffffffffffffffffffffffffffffffffffff1673ffffffffffffffffffffffffffffffffffffffff168152602001908152602001600020549050919050565b610f10612359565b73ffffffffffffffffffffffffffffffffffffffff16610f2e611238565b73ffffffffffffffffffffffffffffffffffffffff1614610f84576040517f08c379a0000000000000000000000000000000000000000000000000000000008152600401610f7b906142e7565b60405180910390fd5b610f8e6000612754565b565b600a8181548110610fa057600080fd5b9060005260206000209060020201600091509050806000018054610fc3906146fb565b80601f0160208091040260200160405190810160405280929190818152602001828054610fef906146fb565b801561103c5780601f106110115761010080835404028352916020019161103c565b820191906000526020600020905b81548152906001019060200180831161101f57829003601f168201915b5050505050908060010160009054906101000a900461ffff16908060010160029054906101000a900473ffffffffffffffffffffffffffffffffffffffff16905083565b6007601481819054906101000a900463ffffffff16809291906110a2906147a1565b91906101000a81548163ffffffff021916908363ffffffff160217905550506000600760149054906101000a900463ffffffff16905060405180608001604052808263ffffffff16815260200142815260200184815260200183815250600860008363ffffffff1663ffffffff16815260200190815260200160002060008201518160000160006101000a81548163ffffffff021916908363ffffffff16021790555060208201518160010155604082015181600201908051906020019061116b929190613285565b506060820151816003019080519060200190611188929190613285565b5090505061119c338263ffffffff1661281a565b33600960008363ffffffff1663ffffffff16815260200190815260200160002060006101000a81548173ffffffffffffffffffffffffffffffffffffffff021916908373ffffffffffffffffffffffffffffffffffffffff1602179055507fd3541a7229e521bbd5f9dab3a283435fe8e2ba7a6ae962cafce8cadbec96dcb0338260405161122b929190614093565b60405180910390a1505050565b6000600d60009054906101000a900473ffffffffffffffffffffffffffffffffffffffff16905090565b606060018054611271906146fb565b80601f016020809104026020016040519081016040528092919081815260200182805461129d906146fb565b80156112ea5780601f106112bf576101008083540402835291602001916112ea565b820191906000526020600020905b8154815290600101906020018083116112cd57829003601f168201915b5050505050905090565b6112fc612359565b73ffffffffffffffffffffffffffffffffffffffff168273ffffffffffffffffffffffffffffffffffffffff16141561136a576040517f08c379a0000000000000000000000000000000000000000000000000000000008152600401611361906141e7565b60405180910390fd5b8060056000611377612359565b73ffffffffffffffffffffffffffffffffffffffff1673ffffffffffffffffffffffffffffffffffffffff16815260200190815260200160002060008473ffffffffffffffffffffffffffffffffffffffff1673ffffffffffffffffffffffffffffffffffffffff16815260200190815260200160002060006101000a81548160ff0219169083151502179055508173ffffffffffffffffffffffffffffffffffffffff16611424612359565b73ffffffffffffffffffffffffffffffffffffffff167f17307eab39ab6107e8899845ad3d59bd9653f200f220920489ca2b5937696c318360405161146991906140bc565b60405180910390a35050565b600760149054906101000a900463ffffffff1681565b600d60149054906101000a900463ffffffff1681565b6114b26114ac612359565b8361241a565b6114f1576040517f08c379a00000000000000000000000000000000000000000000000000000000081526004016114e890614367565b60405180910390fd5b6114fd848484846129e8565b50505050565b61150b612359565b73ffffffffffffffffffffffffffffffffffffffff16611529611238565b73ffffffffffffffffffffffffffffffffffffffff161461157f576040517f08c379a0000000000000000000000000000000000000000000000000000000008152600401611576906142e7565b60405180910390fd5b600e60008281526020019081526020016000206000808201600090556001820160006115ab919061330b565b60028201600090556003820160006115c3919061330b565b6004820160006115d3919061330b565b505050565b60606115e3826122ed565b611622576040517f08c379a0000000000000000000000000000000000000000000000000000000008152600401611619906142a7565b60405180910390fd5b6000600660008481526020019081526020016000208054611642906146fb565b80601f016020809104026020016040519081016040528092919081815260200182805461166e906146fb565b80156116bb5780601f10611690576101008083540402835291602001916116bb565b820191906000526020600020905b81548152906001019060200180831161169e57829003601f168201915b5050505050905060006116cc612a44565b90506000815114156116e2578192505050611725565b6000825111156117175780826040516020016116ff929190613fca565b60405160208183030381529060405292505050611725565b61172084612a5b565b925050505b919050565b3373ffffffffffffffffffffffffffffffffffffffff166117508263ffffffff16610d88565b73ffffffffffffffffffffffffffffffffffffffff161461177057600080fd5b61177f8163ffffffff16612b02565b600960008263ffffffff1663ffffffff16815260200190815260200160002060006101000a81549073ffffffffffffffffffffffffffffffffffffffff0219169055600860008263ffffffff1663ffffffff168152602001908152602001600020600080820160006101000a81549063ffffffff02191690556001820160009055600282016000611810919061330b565b600382016000611820919061330b565b505050565b6000600560008473ffffffffffffffffffffffffffffffffffffffff1673ffffffffffffffffffffffffffffffffffffffff16815260200190815260200160002060008373ffffffffffffffffffffffffffffffffffffffff1673ffffffffffffffffffffffffffffffffffffffff16815260200190815260200160002060009054906101000a900460ff16905092915050565b600c6020528060005260406000206000915090508060000160009054906101000a900473ffffffffffffffffffffffffffffffffffffffff16908060010160009054906101000a900473ffffffffffffffffffffffffffffffffffffffff1690806002018054611928906146fb565b80601f0160208091040260200160405190810160405280929190818152602001828054611954906146fb565b80156119a15780601f10611976576101008083540402835291602001916119a1565b820191906000526020600020905b81548152906001019060200180831161198457829003601f168201915b5050505050905083565b6000600960008363ffffffff1663ffffffff16815260200190815260200160002060009054906101000a900473ffffffffffffffffffffffffffffffffffffffff169050600b600081819054906101000a900463ffffffff1680929190611a11906147a1565b91906101000a81548163ffffffff021916908363ffffffff16021790555050611a4181338463ffffffff166124f8565b33600960008463ffffffff1663ffffffff16815260200190815260200160002060006101000a81548173ffffffffffffffffffffffffffffffffffffffff021916908373ffffffffffffffffffffffffffffffffffffffff16021790555060405180606001604052808273ffffffffffffffffffffffffffffffffffffffff1681526020013373ffffffffffffffffffffffffffffffffffffffff168152602001600860008563ffffffff1663ffffffff1681526020019081526020016000206002018054611b0f906146fb565b80601f0160208091040260200160405190810160405280929190818152602001828054611b3b906146fb565b8015611b885780601f10611b5d57610100808354040283529160200191611b88565b820191906000526020600020905b815481529060010190602001808311611b6b57829003601f168201915b5050505050815250600c6000600b60009054906101000a900463ffffffff1663ffffffff16815260200190815260200160002060008201518160000160006101000a81548173ffffffffffffffffffffffffffffffffffffffff021916908373ffffffffffffffffffffffffffffffffffffffff16021790555060208201518160010160006101000a81548173ffffffffffffffffffffffffffffffffffffffff021916908373ffffffffffffffffffffffffffffffffffffffff1602179055506040820151816002019080519060200190611c65929190613285565b509050505050565b600f60009054906101000a900463ffffffff1681565b60086020528060005260406000206000915090508060000160009054906101000a900463ffffffff1690806001015490806002018054611cc2906146fb565b80601f0160208091040260200160405190810160405280929190818152602001828054611cee906146fb565b8015611d3b5780601f10611d1057610100808354040283529160200191611d3b565b820191906000526020600020905b815481529060010190602001808311611d1e57829003601f168201915b505050505090806003018054611d50906146fb565b80601f0160208091040260200160405190810160405280929190818152602001828054611d7c906146fb565b8015611dc95780601f10611d9e57610100808354040283529160200191611dc9565b820191906000526020600020905b815481529060010190602001808311611dac57829003601f168201915b5050505050905084565b611ddb612359565b73ffffffffffffffffffffffffffffffffffffffff16611df9611238565b73ffffffffffffffffffffffffffffffffffffffff1614611e4f576040517f08c379a0000000000000000000000000000000000000000000000000000000008152600401611e46906142e7565b60405180910390fd5b600073ffffffffffffffffffffffffffffffffffffffff168173ffffffffffffffffffffffffffffffffffffffff161415611ebf576040517f08c379a0000000000000000000000000000000000000000000000000000000008152600401611eb690614187565b60405180910390fd5b611ec881612754565b50565b612011600e60008381526020019081526020016000206003018054611eef906146fb565b80601f0160208091040260200160405190810160405280929190818152602001828054611f1b906146fb565b8015611f685780601f10611f3d57610100808354040283529160200191611f68565b820191906000526020600020905b815481529060010190602001808311611f4b57829003601f168201915b5050505050600e60008481526020019081526020016000206004018054611f8e906146fb565b80601f0160208091040260200160405190810160405280929190818152602001828054611fba906146fb565b80156120075780601f10611fdc57610100808354040283529160200191612007565b820191906000526020600020905b815481529060010190602001808311611fea57829003601f168201915b5050505050612b55565b506040518060400160405280600e6000848152602001908152602001600020600301805461203e906146fb565b80601f016020809104026020016040519081016040528092919081815260200182805461206a906146fb565b80156120b75780601f1061208c576101008083540402835291602001916120b7565b820191906000526020600020905b81548152906001019060200180831161209a57829003601f168201915b505050505081526020013373ffffffffffffffffffffffffffffffffffffffff1681525060106000600f60009054906101000a900463ffffffff1663ffffffff1663ffffffff1681526020019081526020016000206000820151816000019080519060200190612128929190613285565b5060208201518160010160006101000a81548173ffffffffffffffffffffffffffffffffffffffff021916908373ffffffffffffffffffffffffffffffffffffffff160217905550905050600f600081819054906101000a900463ffffffff1680929190612195906147a1565b91906101000a81548163ffffffff021916908363ffffffff1602179055505050565b60106020528060005260406000206000915090508060000180546121da906146fb565b80601f0160208091040260200160405190810160405280929190818152602001828054612206906146fb565b80156122535780601f1061222857610100808354040283529160200191612253565b820191906000526020600020905b81548152906001019060200180831161223657829003601f168201915b5050505050908060010160009054906101000a900473ffffffffffffffffffffffffffffffffffffffff16905082565b60007f01ffc9a7000000000000000000000000000000000000000000000000000000007bffffffffffffffffffffffffffffffffffffffffffffffffffffffff1916827bffffffffffffffffffffffffffffffffffffffffffffffffffffffff1916149050919050565b60008073ffffffffffffffffffffffffffffffffffffffff166002600084815260200190815260200160002060009054906101000a900473ffffffffffffffffffffffffffffffffffffffff1673ffffffffffffffffffffffffffffffffffffffff1614159050919050565b600033905090565b816004600083815260200190815260200160002060006101000a81548173ffffffffffffffffffffffffffffffffffffffff021916908373ffffffffffffffffffffffffffffffffffffffff160217905550808273ffffffffffffffffffffffffffffffffffffffff166123d483610d88565b73ffffffffffffffffffffffffffffffffffffffff167f8c5be1e5ebec7d5bd14f71427d1e84f3dd0314c0f7b2291e5b200ac8c7c3b92560405160405180910390a45050565b6000612425826122ed565b612464576040517f08c379a000000000000000000000000000000000000000000000000000000000815260040161245b90614207565b60405180910390fd5b600061246f83610d88565b90508073ffffffffffffffffffffffffffffffffffffffff168473ffffffffffffffffffffffffffffffffffffffff1614806124de57508373ffffffffffffffffffffffffffffffffffffffff166124c6846107e1565b73ffffffffffffffffffffffffffffffffffffffff16145b806124ef57506124ee8185611825565b5b91505092915050565b8273ffffffffffffffffffffffffffffffffffffffff1661251882610d88565b73ffffffffffffffffffffffffffffffffffffffff161461256e576040517f08c379a000000000000000000000000000000000000000000000000000000000815260040161256590614307565b60405180910390fd5b600073ffffffffffffffffffffffffffffffffffffffff168273ffffffffffffffffffffffffffffffffffffffff1614156125de576040517f08c379a00000000000000000000000000000000000000000000000000000000081526004016125d5906141c7565b60405180910390fd5b6125e9838383612e18565b6125f4600082612361565b6001600360008573ffffffffffffffffffffffffffffffffffffffff1673ffffffffffffffffffffffffffffffffffffffff168152602001908152602001600020600082825461264491906145f3565b925050819055506001600360008473ffffffffffffffffffffffffffffffffffffffff1673ffffffffffffffffffffffffffffffffffffffff168152602001908152602001600020600082825461269b919061456c565b92505081905550816002600083815260200190815260200160002060006101000a81548173ffffffffffffffffffffffffffffffffffffffff021916908373ffffffffffffffffffffffffffffffffffffffff160217905550808273ffffffffffffffffffffffffffffffffffffffff168473ffffffffffffffffffffffffffffffffffffffff167fddf252ad1be2c89b69c2b068fc378daa952ba7f163c4a11628f55a4df523b3ef60405160405180910390a4505050565b6000600d60009054906101000a900473ffffffffffffffffffffffffffffffffffffffff16905081600d60006101000a81548173ffffffffffffffffffffffffffffffffffffffff021916908373ffffffffffffffffffffffffffffffffffffffff1602179055508173ffffffffffffffffffffffffffffffffffffffff168173ffffffffffffffffffffffffffffffffffffffff167f8be0079c531659141344cd1fd0a4f28419497f9722a3daafe3b4186f6b6457e060405160405180910390a35050565b600073ffffffffffffffffffffffffffffffffffffffff168273ffffffffffffffffffffffffffffffffffffffff16141561288a576040517f08c379a000000000000000000000000000000000000000000000000000000000815260040161288190614287565b60405180910390fd5b612893816122ed565b156128d3576040517f08c379a00000000000000000000000000000000000000000000000000000000081526004016128ca906141a7565b60405180910390fd5b6128df60008383612e18565b6001600360008473ffffffffffffffffffffffffffffffffffffffff1673ffffffffffffffffffffffffffffffffffffffff168152602001908152602001600020600082825461292f919061456c565b92505081905550816002600083815260200190815260200160002060006101000a81548173ffffffffffffffffffffffffffffffffffffffff021916908373ffffffffffffffffffffffffffffffffffffffff160217905550808273ffffffffffffffffffffffffffffffffffffffff16600073ffffffffffffffffffffffffffffffffffffffff167fddf252ad1be2c89b69c2b068fc378daa952ba7f163c4a11628f55a4df523b3ef60405160405180910390a45050565b6129f38484846124f8565b6129ff84848484612e1d565b612a3e576040517f08c379a0000000000000000000000000000000000000000000000000000000008152600401612a3590614167565b60405180910390fd5b50505050565b606060405180602001604052806000815250905090565b6060612a66826122ed565b612aa5576040517f08c379a0000000000000000000000000000000000000000000000000000000008152600401612a9c90614327565b60405180910390fd5b6000612aaf612a44565b90506000815111612acf5760405180602001604052806000815250612afa565b80612ad984612fb4565b604051602001612aea929190613fca565b6040516020818303038152906040525b915050919050565b612b0b81613161565b6000600660008381526020019081526020016000208054612b2b906146fb565b905014612b5257600660008281526020019081526020016000206000612b51919061330b565b5b50565b6000612b618383611080565b60005b600a80549050811015612d22573373ffffffffffffffffffffffffffffffffffffffff16600a8281548110612bc2577f4e487b7100000000000000000000000000000000000000000000000000000000600052603260045260246000fd5b906000526020600020906002020160010160029054906101000a900473ffffffffffffffffffffffffffffffffffffffff1673ffffffffffffffffffffffffffffffffffffffff16148015612c7c57508380519060200120600a8281548110612c54577f4e487b7100000000000000000000000000000000000000000000000000000000600052603260045260246000fd5b9060005260206000209060020201600001604051612c729190613fb3565b6040518091039020145b15612d0f57600a8181548110612cbb577f4e487b7100000000000000000000000000000000000000000000000000000000600052603260045260246000fd5b9060005260206000209060020201600101600081819054906101000a900461ffff1680929190612cea9061472d565b91906101000a81548161ffff021916908361ffff160217905550506001915050612e12565b8080612d1a90614758565b915050612b64565b50600a6040518060600160405280858152602001600161ffff1681526020013373ffffffffffffffffffffffffffffffffffffffff1681525090806001815401808255809150506001900390600052602060002090600202016000909190919091506000820151816000019080519060200190612da0929190613285565b5060208201518160010160006101000a81548161ffff021916908361ffff16021790555060408201518160010160026101000a81548173ffffffffffffffffffffffffffffffffffffffff021916908373ffffffffffffffffffffffffffffffffffffffff1602179055505050600090505b92915050565b505050565b6000612e3e8473ffffffffffffffffffffffffffffffffffffffff16613272565b15612fa7578373ffffffffffffffffffffffffffffffffffffffff1663150b7a02612e67612359565b8786866040518563ffffffff1660e01b8152600401612e899493929190614047565b602060405180830381600087803b158015612ea357600080fd5b505af1925050508015612ed457506040513d601f19601f82011682018060405250810190612ed19190613686565b60015b612f57573d8060008114612f04576040519150601f19603f3d011682016040523d82523d6000602084013e612f09565b606091505b50600081511415612f4f576040517f08c379a0000000000000000000000000000000000000000000000000000000008152600401612f4690614167565b60405180910390fd5b805181602001fd5b63150b7a0260e01b7bffffffffffffffffffffffffffffffffffffffffffffffffffffffff1916817bffffffffffffffffffffffffffffffffffffffffffffffffffffffff191614915050612fac565b600190505b949350505050565b60606000821415612ffc576040518060400160405280600181526020017f3000000000000000000000000000000000000000000000000000000000000000815250905061315c565b600082905060005b6000821461302e57808061301790614758565b915050600a8261302791906145c2565b9150613004565b60008167ffffffffffffffff811115613070577f4e487b7100000000000000000000000000000000000000000000000000000000600052604160045260246000fd5b6040519080825280601f01601f1916602001820160405280156130a25781602001600182028036833780820191505090505b5090505b60008514613155576001826130bb91906145f3565b9150600a856130ca91906147ce565b60306130d6919061456c565b60f81b818381518110613112577f4e487b7100000000000000000000000000000000000000000000000000000000600052603260045260246000fd5b60200101907effffffffffffffffffffffffffffffffffffffffffffffffffffffffffffff1916908160001a905350600a8561314e91906145c2565b94506130a6565b8093505050505b919050565b600061316c82610d88565b905061317a81600084612e18565b613185600083612361565b6001600360008373ffffffffffffffffffffffffffffffffffffffff1673ffffffffffffffffffffffffffffffffffffffff16815260200190815260200160002060008282546131d591906145f3565b925050819055506002600083815260200190815260200160002060006101000a81549073ffffffffffffffffffffffffffffffffffffffff021916905581600073ffffffffffffffffffffffffffffffffffffffff168273ffffffffffffffffffffffffffffffffffffffff167fddf252ad1be2c89b69c2b068fc378daa952ba7f163c4a11628f55a4df523b3ef60405160405180910390a45050565b600080823b905060008111915050919050565b828054613291906146fb565b90600052602060002090601f0160209004810192826132b357600085556132fa565b82601f106132cc57805160ff19168380011785556132fa565b828001600101855582156132fa579182015b828111156132f95782518255916020019190600101906132de565b5b509050613307919061334b565b5090565b508054613317906146fb565b6000825580601f106133295750613348565b601f016020900490600052602060002090810190613347919061334b565b5b50565b5b8082111561336457600081600090555060010161334c565b5090565b600061337b613376846144a9565b614478565b90508281526020810184848401111561339357600080fd5b61339e8482856146b9565b509392505050565b60006133b96133b4846144d9565b614478565b9050828152602081018484840111156133d157600080fd5b6133dc8482856146b9565b509392505050565b6000813590506133f3816148cc565b92915050565b600081359050613408816148e3565b92915050565b60008135905061341d816148fa565b92915050565b600081519050613432816148fa565b92915050565b600082601f83011261344957600080fd5b8135613459848260208601613368565b91505092915050565b600082601f83011261347357600080fd5b81356134838482602086016133a6565b91505092915050565b60008135905061349b81614911565b92915050565b6000813590506134b081614928565b92915050565b6000602082840312156134c857600080fd5b60006134d6848285016133e4565b91505092915050565b600080604083850312156134f257600080fd5b6000613500858286016133e4565b9250506020613511858286016133e4565b9150509250929050565b60008060006060848603121561353057600080fd5b600061353e868287016133e4565b935050602061354f868287016133e4565b92505060406135608682870161348c565b9150509250925092565b6000806000806080858703121561358057600080fd5b600061358e878288016133e4565b945050602061359f878288016133e4565b93505060406135b08782880161348c565b925050606085013567ffffffffffffffff8111156135cd57600080fd5b6135d987828801613438565b91505092959194509250565b600080604083850312156135f857600080fd5b6000613606858286016133e4565b9250506020613617858286016133f9565b9150509250929050565b6000806040838503121561363457600080fd5b6000613642858286016133e4565b92505060206136538582860161348c565b9150509250929050565b60006020828403121561366f57600080fd5b600061367d8482850161340e565b91505092915050565b60006020828403121561369857600080fd5b60006136a684828501613423565b91505092915050565b600080604083850312156136c257600080fd5b600083013567ffffffffffffffff8111156136dc57600080fd5b6136e885828601613462565b925050602083013567ffffffffffffffff81111561370557600080fd5b61371185828601613462565b9150509250929050565b6000806000806080858703121561373157600080fd5b600085013567ffffffffffffffff81111561374b57600080fd5b61375787828801613462565b94505060206137688782880161348c565b935050604085013567ffffffffffffffff81111561378557600080fd5b61379187828801613462565b925050606085013567ffffffffffffffff8111156137ae57600080fd5b6137ba87828801613462565b91505092959194509250565b6000602082840312156137d857600080fd5b60006137e68482850161348c565b91505092915050565b60006020828403121561380157600080fd5b600061380f848285016134a1565b91505092915050565b61382181614627565b82525050565b61383081614639565b82525050565b60006138418261451e565b61384b8185614534565b935061385b8185602086016146c8565b613864816148bb565b840191505092915050565b6000815461387c816146fb565b6138868186614545565b945060018216600081146138a157600181146138b2576138e5565b60ff198316865281860193506138e5565b6138bb85614509565b60005b838110156138dd578154818901526001820191506020810190506138be565b838801955050505b50505092915050565b60006138f982614529565b6139038185614550565b93506139138185602086016146c8565b61391c816148bb565b840191505092915050565b600061393282614529565b61393c8185614561565b935061394c8185602086016146c8565b80840191505092915050565b6000613965603283614550565b91507f4552433732313a207472616e7366657220746f206e6f6e20455243373231526560008301527f63656976657220696d706c656d656e74657200000000000000000000000000006020830152604082019050919050565b60006139cb602683614550565b91507f4f776e61626c653a206e6577206f776e657220697320746865207a65726f206160008301527f64647265737300000000000000000000000000000000000000000000000000006020830152604082019050919050565b6000613a31601c83614550565b91507f4552433732313a20746f6b656e20616c7265616479206d696e746564000000006000830152602082019050919050565b6000613a71602483614550565b91507f4552433732313a207472616e7366657220746f20746865207a65726f2061646460008301527f72657373000000000000000000000000000000000000000000000000000000006020830152604082019050919050565b6000613ad7601983614550565b91507f4552433732313a20617070726f766520746f2063616c6c6572000000000000006000830152602082019050919050565b6000613b17602c83614550565b91507f4552433732313a206f70657261746f7220717565727920666f72206e6f6e657860008301527f697374656e7420746f6b656e00000000000000000000000000000000000000006020830152604082019050919050565b6000613b7d603883614550565b91507f4552433732313a20617070726f76652063616c6c6572206973206e6f74206f7760008301527f6e6572206e6f7220617070726f76656420666f7220616c6c00000000000000006020830152604082019050919050565b6000613be3602a83614550565b91507f4552433732313a2062616c616e636520717565727920666f7220746865207a6560008301527f726f2061646472657373000000000000000000000000000000000000000000006020830152604082019050919050565b6000613c49602983614550565b91507f4552433732313a206f776e657220717565727920666f72206e6f6e657869737460008301527f656e7420746f6b656e00000000000000000000000000000000000000000000006020830152604082019050919050565b6000613caf602083614550565b91507f4552433732313a206d696e7420746f20746865207a65726f20616464726573736000830152602082019050919050565b6000613cef603183614550565b91507f45524337323155524953746f726167653a2055524920717565727920666f722060008301527f6e6f6e6578697374656e7420746f6b656e0000000000000000000000000000006020830152604082019050919050565b6000613d55602c83614550565b91507f4552433732313a20617070726f76656420717565727920666f72206e6f6e657860008301527f697374656e7420746f6b656e00000000000000000000000000000000000000006020830152604082019050919050565b6000613dbb602083614550565b91507f4f776e61626c653a2063616c6c6572206973206e6f7420746865206f776e65726000830152602082019050919050565b6000613dfb602983614550565b91507f4552433732313a207472616e73666572206f6620746f6b656e2074686174206960008301527f73206e6f74206f776e00000000000000000000000000000000000000000000006020830152604082019050919050565b6000613e61602f83614550565b91507f4552433732314d657461646174613a2055524920717565727920666f72206e6f60008301527f6e6578697374656e7420746f6b656e00000000000000000000000000000000006020830152604082019050919050565b6000613ec7602183614550565b91507f4552433732313a20617070726f76616c20746f2063757272656e74206f776e6560008301527f72000000000000000000000000000000000000000000000000000000000000006020830152604082019050919050565b6000613f2d603183614550565b91507f4552433732313a207472616e736665722063616c6c6572206973206e6f74206f60008301527f776e6572206e6f7220617070726f7665640000000000000000000000000000006020830152604082019050919050565b613f8f81614671565b82525050565b613f9e8161469f565b82525050565b613fad816146a9565b82525050565b6000613fbf828461386f565b915081905092915050565b6000613fd68285613927565b9150613fe28284613927565b91508190509392505050565b60006020820190506140036000830184613818565b92915050565b600060608201905061401e6000830186613818565b61402b6020830185613818565b818103604083015261403d81846138ee565b9050949350505050565b600060808201905061405c6000830187613818565b6140696020830186613818565b6140766040830185613f95565b81810360608301526140888184613836565b905095945050505050565b60006040820190506140a86000830185613818565b6140b56020830184613fa4565b9392505050565b60006020820190506140d16000830184613827565b92915050565b600060208201905081810360008301526140f181846138ee565b905092915050565b6000604082019050818103600083015261411381856138ee565b90506141226020830184613818565b9392505050565b6000606082019050818103600083015261414381866138ee565b90506141526020830185613f86565b61415f6040830184613818565b949350505050565b6000602082019050818103600083015261418081613958565b9050919050565b600060208201905081810360008301526141a0816139be565b9050919050565b600060208201905081810360008301526141c081613a24565b9050919050565b600060208201905081810360008301526141e081613a64565b9050919050565b6000602082019050818103600083015261420081613aca565b9050919050565b6000602082019050818103600083015261422081613b0a565b9050919050565b6000602082019050818103600083015261424081613b70565b9050919050565b6000602082019050818103600083015261426081613bd6565b9050919050565b6000602082019050818103600083015261428081613c3c565b9050919050565b600060208201905081810360008301526142a081613ca2565b9050919050565b600060208201905081810360008301526142c081613ce2565b9050919050565b600060208201905081810360008301526142e081613d48565b9050919050565b6000602082019050818103600083015261430081613dae565b9050919050565b6000602082019050818103600083015261432081613dee565b9050919050565b6000602082019050818103600083015261434081613e54565b9050919050565b6000602082019050818103600083015261436081613eba565b9050919050565b6000602082019050818103600083015261438081613f20565b9050919050565b600060208201905061439c6000830184613f95565b92915050565b600060a0820190506143b76000830188613f95565b81810360208301526143c981876138ee565b90506143d86040830186613f95565b81810360608301526143ea81856138ee565b905081810360808301526143fe81846138ee565b90509695505050505050565b600060208201905061441f6000830184613fa4565b92915050565b600060808201905061443a6000830187613fa4565b6144476020830186613f95565b818103604083015261445981856138ee565b9050818103606083015261446d81846138ee565b905095945050505050565b6000604051905081810181811067ffffffffffffffff8211171561449f5761449e61488c565b5b8060405250919050565b600067ffffffffffffffff8211156144c4576144c361488c565b5b601f19601f8301169050602081019050919050565b600067ffffffffffffffff8211156144f4576144f361488c565b5b601f19601f8301169050602081019050919050565b60008190508160005260206000209050919050565b600081519050919050565b600081519050919050565b600082825260208201905092915050565b600081905092915050565b600082825260208201905092915050565b600081905092915050565b60006145778261469f565b91506145828361469f565b9250827fffffffffffffffffffffffffffffffffffffffffffffffffffffffffffffffff038211156145b7576145b66147ff565b5b828201905092915050565b60006145cd8261469f565b91506145d88361469f565b9250826145e8576145e761482e565b5b828204905092915050565b60006145fe8261469f565b91506146098361469f565b92508282101561461c5761461b6147ff565b5b828203905092915050565b60006146328261467f565b9050919050565b60008115159050919050565b60007fffffffff0000000000000000000000000000000000000000000000000000000082169050919050565b600061ffff82169050919050565b600073ffffffffffffffffffffffffffffffffffffffff82169050919050565b6000819050919050565b600063ffffffff82169050919050565b82818337600083830152505050565b60005b838110156146e65780820151818401526020810190506146cb565b838111156146f5576000848401525b50505050565b6000600282049050600182168061471357607f821691505b602082108114156147275761472661485d565b5b50919050565b600061473882614671565b915061ffff82141561474d5761474c6147ff565b5b600182019050919050565b60006147638261469f565b91507fffffffffffffffffffffffffffffffffffffffffffffffffffffffffffffffff821415614796576147956147ff565b5b600182019050919050565b60006147ac826146a9565b915063ffffffff8214156147c3576147c26147ff565b5b600182019050919050565b60006147d98261469f565b91506147e48361469f565b9250826147f4576147f361482e565b5b828206905092915050565b7f4e487b7100000000000000000000000000000000000000000000000000000000600052601160045260246000fd5b7f4e487b7100000000000000000000000000000000000000000000000000000000600052601260045260246000fd5b7f4e487b7100000000000000000000000000000000000000000000000000000000600052602260045260246000fd5b7f4e487b7100000000000000000000000000000000000000000000000000000000600052604160045260246000fd5b6000601f19601f8301169050919050565b6148d581614627565b81146148e057600080fd5b50565b6148ec81614639565b81146148f757600080fd5b50565b61490381614645565b811461490e57600080fd5b50565b61491a8161469f565b811461492557600080fd5b50565b614931816146a9565b811461493c57600080fd5b5056fea264697066735822122077e3fb55e7a87322dbd02c3459fe145af697ae3f633523a757ed77859d49ee7764736f6c63430008000033",
  "immutableReferences": {},
  "source": "// SPDX-License-Identifier: MIT\r\npragma solidity >=0.4.22 <0.9.0;\r\n\r\nimport \"./DoBuyNFT.sol\";\r\nimport \"./SafeMath.sol\";\r\nimport \"@openzeppelin/contracts/access/Ownable.sol\";\r\n\r\ncontract MarketNFT is DoBuyNFT, Ownable {\r\n    using Counters for Counters.Counter;\r\n    using SafeMath for uint256;\r\n    using SafeMath32 for uint32;\r\n    using SafeMath16 for uint16;\r\n\r\n    /// @dev Market Ids\r\n    uint32 public _MarketIds;\r\n\r\n    //  \r\n    mapping (uint256 => MarketList) public _MarketList;\r\n    // mapping (uint256 => address) public _MarketToOwner;\r\n\r\n    /// @dev Product Counts\r\n    uint32 public ProductCounts;\r\n    \r\n    /// @dev Product Transaction\r\n    struct ProductTrans {\r\n        string name_product;\r\n        address whobuy;\r\n    }\r\n\r\n    //    \r\n    mapping (uint32 => ProductTrans) public ProductBuy;\r\n\r\n    /// @dev Market \r\n    struct MarketList {\r\n        uint256 _ids; // serial number\r\n        string price_ETH; // Price of ETH\r\n        uint256 price_DoBuy; // Price of DoBuy\r\n        string name; // names\r\n        string img_url; // IMAGE URL\r\n    }\r\n\r\n    constructor() {\r\n        _MarketList[_MarketIds] = MarketList(_MarketIds, \"0\", 0, \"NFT SHOP\", \"DoBuy.png\");\r\n        _MarketIds++;\r\n        _MarketList[_MarketIds] = MarketList(_MarketIds, \"0.012\", 1200, \"Potato\", \"potato.jpg\");\r\n        _MarketIds++;\r\n        _MarketList[_MarketIds] = MarketList(_MarketIds, \"0.015\", 2500, \"Banana\", \"banana.jpg\");\r\n        _MarketIds++;\r\n        _MarketList[_MarketIds] = MarketList(_MarketIds, \"0.01\", 1000, \"Apple\", \"apple.jpg\");\r\n    }\r\n\r\n    /**\r\n    *  @dev MarketList  \r\n    *  @param _ETH ETH \r\n    *  @param _DoBuy DoBuy \r\n    *  @param _name  \r\n    *  @param _img_url  \r\n    */\r\n    function setMarketList(string memory _ETH, uint256 _DoBuy, string memory _name, string memory _img_url) external onlyOwner {\r\n        _MarketIds++;\r\n        uint256 newMarketId = _MarketIds;\r\n        _MarketList[newMarketId] = MarketList(newMarketId, _ETH, _DoBuy, _name, _img_url);\r\n    }\r\n\r\n    /**\r\n    *  @dev MarketList  \r\n    *  @param _num_ids  \r\n    */\r\n    function delMarketList(uint256 _num_ids) external onlyOwner {\r\n        delete _MarketList[_num_ids];\r\n    }\r\n\r\n    function buyMarket(uint256 _num_ids) external {\r\n        _marketBuy(_MarketList[_num_ids].name, _MarketList[_num_ids].img_url);\r\n        ProductBuy[ProductCounts] = ProductTrans(_MarketList[_num_ids].name, msg.sender);\r\n        ProductCounts++;\r\n    }\r\n}",
  "sourcePath": "C:/Users/redqo/Desktop/DoBuy_project/contracts/MarketNFT.sol",
  "compiler": {
    "name": "solc",
    "version": "0.8.0+commit.c7dfd78e.Emscripten.clang"
  },
  "schemaVersion": "3.4.1",
  "updatedAt": "2021-08-21T02:52:57.119Z",
  "networkType": "ethereum",
  "devdoc": {
    "kind": "dev",
    "methods": {
      "approve(address,uint256)": {
        "details": "See {IERC721-approve}."
      },
      "balanceOf(address)": {
        "details": "See {IERC721-balanceOf}."
      },
      "burnNFT(uint32)": {
        "details": "delivery -    NFT "
      },
      "delMarketList(uint256)": {
        "details": "MarketList  ",
        "params": {
          "_num_ids": " "
        }
      },
      "getApproved(uint256)": {
        "details": "See {IERC721-getApproved}."
      },
      "isApprovedForAll(address,address)": {
        "details": "See {IERC721-isApprovedForAll}."
      },
      "mint(string,string)": {
        "details": "NFT   NFT Token ",
        "params": {
          "_image_url": "NFT  ",
          "_name": "NFT "
        }
      },
      "name()": {
        "details": "See {IERC721Metadata-name}."
      },
      "owner()": {
        "details": "Returns the address of the current owner."
      },
      "ownerOf(uint256)": {
        "details": "See {IERC721-ownerOf}."
      },
      "renounceOwnership()": {
        "details": "Leaves the contract without owner. It will not be possible to call `onlyOwner` functions anymore. Can only be called by the current owner. NOTE: Renouncing ownership will leave the contract without an owner, thereby removing any functionality that is only available to the owner."
      },
      "safeTransferFrom(address,address,uint256)": {
        "details": "See {IERC721-safeTransferFrom}."
      },
      "safeTransferFrom(address,address,uint256,bytes)": {
        "details": "See {IERC721-safeTransferFrom}."
      },
      "setApprovalForAll(address,bool)": {
        "details": "See {IERC721-setApprovalForAll}."
      },
      "setMarketList(string,uint256,string,string)": {
        "details": "MarketList  ",
        "params": {
          "_DoBuy": "DoBuy ",
          "_ETH": "ETH ",
          "_img_url": " ",
          "_name": " "
        }
      },
      "supportsInterface(bytes4)": {
        "details": "See {IERC165-supportsInterface}."
      },
      "symbol()": {
        "details": "See {IERC721Metadata-symbol}."
      },
      "tokenURI(uint256)": {
        "details": "See {IERC721Metadata-tokenURI}."
      },
      "transferFrom(address,address,uint256)": {
        "details": "See {IERC721-transferFrom}."
      },
      "transferNFT(uint32)": {
        "details": "NFT  ",
        "params": {
          "_Id": "NFT _Ids"
        }
      },
      "transferOwnership(address)": {
        "details": "Transfers ownership of the contract to a new account (`newOwner`). Can only be called by the current owner."
      }
    },
    "stateVariables": {
      "ProductCounts": {
        "details": "Product Counts"
      },
      "_MarketIds": {
        "details": "Market Ids"
      }
    },
    "version": 1
  },
  "userdoc": {
    "kind": "user",
    "methods": {},
    "version": 1
  }
}