{
  "contractName": "MarketNFT",
  "abi": [
    {
      "inputs": [],
      "stateMutability": "nonpayable",
      "type": "constructor"
    },
    {
      "anonymous": false,
      "inputs": [
        {
          "indexed": true,
          "internalType": "address",
          "name": "owner",
          "type": "address"
        },
        {
          "indexed": true,
          "internalType": "address",
          "name": "approved",
          "type": "address"
        },
        {
          "indexed": true,
          "internalType": "uint256",
          "name": "tokenId",
          "type": "uint256"
        }
      ],
      "name": "Approval",
      "type": "event"
    },
    {
      "anonymous": false,
      "inputs": [
        {
          "indexed": true,
          "internalType": "address",
          "name": "owner",
          "type": "address"
        },
        {
          "indexed": true,
          "internalType": "address",
          "name": "operator",
          "type": "address"
        },
        {
          "indexed": false,
          "internalType": "bool",
          "name": "approved",
          "type": "bool"
        }
      ],
      "name": "ApprovalForAll",
      "type": "event"
    },
    {
      "anonymous": false,
      "inputs": [
        {
          "indexed": false,
          "internalType": "address",
          "name": "",
          "type": "address"
        },
        {
          "indexed": false,
          "internalType": "uint32",
          "name": "",
          "type": "uint32"
        }
      ],
      "name": "DoBuyCreated",
      "type": "event"
    },
    {
      "anonymous": false,
      "inputs": [
        {
          "indexed": true,
          "internalType": "address",
          "name": "previousOwner",
          "type": "address"
        },
        {
          "indexed": true,
          "internalType": "address",
          "name": "newOwner",
          "type": "address"
        }
      ],
      "name": "OwnershipTransferred",
      "type": "event"
    },
    {
      "anonymous": false,
      "inputs": [
        {
          "indexed": true,
          "internalType": "address",
          "name": "from",
          "type": "address"
        },
        {
          "indexed": true,
          "internalType": "address",
          "name": "to",
          "type": "address"
        },
        {
          "indexed": true,
          "internalType": "uint256",
          "name": "tokenId",
          "type": "uint256"
        }
      ],
      "name": "Transfer",
      "type": "event"
    },
    {
      "inputs": [
        {
          "internalType": "uint32",
          "name": "",
          "type": "uint32"
        }
      ],
      "name": "ProductBuy",
      "outputs": [
        {
          "internalType": "string",
          "name": "name_product",
          "type": "string"
        },
        {
          "internalType": "address",
          "name": "whobuy",
          "type": "address"
        }
      ],
      "stateMutability": "view",
      "type": "function",
      "constant": true
    },
    {
      "inputs": [],
      "name": "ProductCounts",
      "outputs": [
        {
          "internalType": "uint32",
          "name": "",
          "type": "uint32"
        }
      ],
      "stateMutability": "view",
      "type": "function",
      "constant": true
    },
    {
      "inputs": [
        {
          "internalType": "uint32",
          "name": "",
          "type": "uint32"
        }
      ],
      "name": "TradeSell",
      "outputs": [
        {
          "internalType": "string",
          "name": "price_ETH",
          "type": "string"
        },
        {
          "internalType": "uint256",
          "name": "price_DoBuy",
          "type": "uint256"
        }
      ],
      "stateMutability": "view",
      "type": "function",
      "constant": true
    },
    {
      "inputs": [
        {
          "internalType": "uint32",
          "name": "",
          "type": "uint32"
        }
      ],
      "name": "_DoBuyToOwner",
      "outputs": [
        {
          "internalType": "address",
          "name": "",
          "type": "address"
        }
      ],
      "stateMutability": "view",
      "type": "function",
      "constant": true
    },
    {
      "inputs": [
        {
          "internalType": "uint32",
          "name": "",
          "type": "uint32"
        }
      ],
      "name": "_DoBuylist",
      "outputs": [
        {
          "internalType": "uint32",
          "name": "_Ids",
          "type": "uint32"
        },
        {
          "internalType": "uint256",
          "name": "timestamp",
          "type": "uint256"
        },
        {
          "internalType": "string",
          "name": "name",
          "type": "string"
        },
        {
          "internalType": "string",
          "name": "image_url",
          "type": "string"
        },
        {
          "internalType": "string",
          "name": "made_by",
          "type": "string"
        }
      ],
      "stateMutability": "view",
      "type": "function",
      "constant": true
    },
    {
      "inputs": [],
      "name": "_MarketIds",
      "outputs": [
        {
          "internalType": "uint32",
          "name": "",
          "type": "uint32"
        }
      ],
      "stateMutability": "view",
      "type": "function",
      "constant": true
    },
    {
      "inputs": [
        {
          "internalType": "uint256",
          "name": "",
          "type": "uint256"
        }
      ],
      "name": "_MarketList",
      "outputs": [
        {
          "internalType": "uint256",
          "name": "_ids",
          "type": "uint256"
        },
        {
          "internalType": "string",
          "name": "price_ETH",
          "type": "string"
        },
        {
          "internalType": "uint256",
          "name": "price_DoBuy",
          "type": "uint256"
        },
        {
          "internalType": "string",
          "name": "name",
          "type": "string"
        },
        {
          "internalType": "string",
          "name": "img_url",
          "type": "string"
        }
      ],
      "stateMutability": "view",
      "type": "function",
      "constant": true
    },
    {
      "inputs": [
        {
          "internalType": "uint256",
          "name": "",
          "type": "uint256"
        }
      ],
      "name": "_TradeTransaction",
      "outputs": [
        {
          "internalType": "address",
          "name": "_from",
          "type": "address"
        },
        {
          "internalType": "address",
          "name": "_to",
          "type": "address"
        },
        {
          "internalType": "string",
          "name": "name",
          "type": "string"
        }
      ],
      "stateMutability": "view",
      "type": "function",
      "constant": true
    },
    {
      "inputs": [
        {
          "internalType": "string",
          "name": "_name",
          "type": "string"
        },
        {
          "internalType": "string",
          "name": "_img_url",
          "type": "string"
        },
        {
          "internalType": "string",
          "name": "_made_by",
          "type": "string"
        }
      ],
      "name": "_marketBuy",
      "outputs": [],
      "stateMutability": "nonpayable",
      "type": "function"
    },
    {
      "inputs": [
        {
          "internalType": "uint32",
          "name": "",
          "type": "uint32"
        }
      ],
      "name": "_selling",
      "outputs": [
        {
          "internalType": "bool",
          "name": "",
          "type": "bool"
        }
      ],
      "stateMutability": "view",
      "type": "function",
      "constant": true
    },
    {
      "inputs": [],
      "name": "_tokenIds",
      "outputs": [
        {
          "internalType": "uint32",
          "name": "",
          "type": "uint32"
        }
      ],
      "stateMutability": "view",
      "type": "function",
      "constant": true
    },
    {
      "inputs": [],
      "name": "_tradeIds",
      "outputs": [
        {
          "internalType": "uint32",
          "name": "",
          "type": "uint32"
        }
      ],
      "stateMutability": "view",
      "type": "function",
      "constant": true
    },
    {
      "inputs": [
        {
          "internalType": "address",
          "name": "to",
          "type": "address"
        },
        {
          "internalType": "uint256",
          "name": "tokenId",
          "type": "uint256"
        }
      ],
      "name": "approve",
      "outputs": [],
      "stateMutability": "nonpayable",
      "type": "function"
    },
    {
      "inputs": [
        {
          "internalType": "address",
          "name": "owner",
          "type": "address"
        }
      ],
      "name": "balanceOf",
      "outputs": [
        {
          "internalType": "uint256",
          "name": "",
          "type": "uint256"
        }
      ],
      "stateMutability": "view",
      "type": "function",
      "constant": true
    },
    {
      "inputs": [
        {
          "internalType": "uint32",
          "name": "_Id",
          "type": "uint32"
        }
      ],
      "name": "burnNFT",
      "outputs": [],
      "stateMutability": "nonpayable",
      "type": "function"
    },
    {
      "inputs": [
        {
          "internalType": "uint256",
          "name": "tokenId",
          "type": "uint256"
        }
      ],
      "name": "getApproved",
      "outputs": [
        {
          "internalType": "address",
          "name": "",
          "type": "address"
        }
      ],
      "stateMutability": "view",
      "type": "function",
      "constant": true
    },
    {
      "inputs": [
        {
          "internalType": "address",
          "name": "owner",
          "type": "address"
        },
        {
          "internalType": "address",
          "name": "operator",
          "type": "address"
        }
      ],
      "name": "isApprovedForAll",
      "outputs": [
        {
          "internalType": "bool",
          "name": "",
          "type": "bool"
        }
      ],
      "stateMutability": "view",
      "type": "function",
      "constant": true
    },
    {
      "inputs": [
        {
          "internalType": "string",
          "name": "_name",
          "type": "string"
        },
        {
          "internalType": "string",
          "name": "_image_url",
          "type": "string"
        },
        {
          "internalType": "string",
          "name": "_made_by",
          "type": "string"
        }
      ],
      "name": "mint",
      "outputs": [],
      "stateMutability": "nonpayable",
      "type": "function"
    },
    {
      "inputs": [],
      "name": "name",
      "outputs": [
        {
          "internalType": "string",
          "name": "",
          "type": "string"
        }
      ],
      "stateMutability": "view",
      "type": "function",
      "constant": true
    },
    {
      "inputs": [],
      "name": "owner",
      "outputs": [
        {
          "internalType": "address",
          "name": "",
          "type": "address"
        }
      ],
      "stateMutability": "view",
      "type": "function",
      "constant": true
    },
    {
      "inputs": [
        {
          "internalType": "uint256",
          "name": "tokenId",
          "type": "uint256"
        }
      ],
      "name": "ownerOf",
      "outputs": [
        {
          "internalType": "address",
          "name": "",
          "type": "address"
        }
      ],
      "stateMutability": "view",
      "type": "function",
      "constant": true
    },
    {
      "inputs": [],
      "name": "renounceOwnership",
      "outputs": [],
      "stateMutability": "nonpayable",
      "type": "function"
    },
    {
      "inputs": [
        {
          "internalType": "address",
          "name": "from",
          "type": "address"
        },
        {
          "internalType": "address",
          "name": "to",
          "type": "address"
        },
        {
          "internalType": "uint256",
          "name": "tokenId",
          "type": "uint256"
        }
      ],
      "name": "safeTransferFrom",
      "outputs": [],
      "stateMutability": "nonpayable",
      "type": "function"
    },
    {
      "inputs": [
        {
          "internalType": "address",
          "name": "from",
          "type": "address"
        },
        {
          "internalType": "address",
          "name": "to",
          "type": "address"
        },
        {
          "internalType": "uint256",
          "name": "tokenId",
          "type": "uint256"
        },
        {
          "internalType": "bytes",
          "name": "_data",
          "type": "bytes"
        }
      ],
      "name": "safeTransferFrom",
      "outputs": [],
      "stateMutability": "nonpayable",
      "type": "function"
    },
    {
      "inputs": [
        {
          "internalType": "address",
          "name": "operator",
          "type": "address"
        },
        {
          "internalType": "bool",
          "name": "approved",
          "type": "bool"
        }
      ],
      "name": "setApprovalForAll",
      "outputs": [],
      "stateMutability": "nonpayable",
      "type": "function"
    },
    {
      "inputs": [
        {
          "internalType": "bytes4",
          "name": "interfaceId",
          "type": "bytes4"
        }
      ],
      "name": "supportsInterface",
      "outputs": [
        {
          "internalType": "bool",
          "name": "",
          "type": "bool"
        }
      ],
      "stateMutability": "view",
      "type": "function",
      "constant": true
    },
    {
      "inputs": [],
      "name": "symbol",
      "outputs": [
        {
          "internalType": "string",
          "name": "",
          "type": "string"
        }
      ],
      "stateMutability": "view",
      "type": "function",
      "constant": true
    },
    {
      "inputs": [
        {
          "internalType": "uint256",
          "name": "tokenId",
          "type": "uint256"
        }
      ],
      "name": "tokenURI",
      "outputs": [
        {
          "internalType": "string",
          "name": "",
          "type": "string"
        }
      ],
      "stateMutability": "view",
      "type": "function",
      "constant": true
    },
    {
      "inputs": [
        {
          "internalType": "address",
          "name": "from",
          "type": "address"
        },
        {
          "internalType": "address",
          "name": "to",
          "type": "address"
        },
        {
          "internalType": "uint256",
          "name": "tokenId",
          "type": "uint256"
        }
      ],
      "name": "transferFrom",
      "outputs": [],
      "stateMutability": "nonpayable",
      "type": "function"
    },
    {
      "inputs": [
        {
          "internalType": "uint32",
          "name": "_Id",
          "type": "uint32"
        }
      ],
      "name": "transferNFT",
      "outputs": [],
      "stateMutability": "nonpayable",
      "type": "function"
    },
    {
      "inputs": [
        {
          "internalType": "address",
          "name": "newOwner",
          "type": "address"
        }
      ],
      "name": "transferOwnership",
      "outputs": [],
      "stateMutability": "nonpayable",
      "type": "function"
    },
    {
      "inputs": [
        {
          "internalType": "string",
          "name": "_ETH",
          "type": "string"
        },
        {
          "internalType": "uint256",
          "name": "_DoBuy",
          "type": "uint256"
        },
        {
          "internalType": "string",
          "name": "_name",
          "type": "string"
        },
        {
          "internalType": "string",
          "name": "_img_url",
          "type": "string"
        }
      ],
      "name": "setMarketList",
      "outputs": [],
      "stateMutability": "nonpayable",
      "type": "function"
    },
    {
      "inputs": [
        {
          "internalType": "uint256",
          "name": "_num_ids",
          "type": "uint256"
        }
      ],
      "name": "delMarketList",
      "outputs": [],
      "stateMutability": "nonpayable",
      "type": "function"
    },
    {
      "inputs": [
        {
          "internalType": "string",
          "name": "_names",
          "type": "string"
        }
      ],
      "name": "found",
      "outputs": [],
      "stateMutability": "nonpayable",
      "type": "function"
    },
    {
      "inputs": [
        {
          "internalType": "uint256",
          "name": "_num_ids",
          "type": "uint256"
        },
        {
          "internalType": "string",
          "name": "_made_by",
          "type": "string"
        }
      ],
      "name": "buyMarket",
      "outputs": [],
      "stateMutability": "nonpayable",
      "type": "function"
    },
    {
      "inputs": [
        {
          "internalType": "uint32",
          "name": "_num_ids",
          "type": "uint32"
        }
      ],
      "name": "buyUser",
      "outputs": [],
      "stateMutability": "nonpayable",
      "type": "function"
    },
    {
      "inputs": [
        {
          "internalType": "string",
          "name": "_name",
          "type": "string"
        },
        {
          "internalType": "string",
          "name": "_Eth_price",
          "type": "string"
        },
        {
          "internalType": "uint256",
          "name": "_dobuy_price",
          "type": "uint256"
        }
      ],
      "name": "changePrice",
      "outputs": [],
      "stateMutability": "nonpayable",
      "type": "function"
    },
    {
      "inputs": [
        {
          "internalType": "uint32",
          "name": "_num_ids",
          "type": "uint32"
        },
        {
          "internalType": "string",
          "name": "_eth_price",
          "type": "string"
        },
        {
          "internalType": "uint256",
          "name": "_dobuy_price",
          "type": "uint256"
        }
      ],
      "name": "sellTrade",
      "outputs": [],
      "stateMutability": "nonpayable",
      "type": "function"
    },
    {
      "inputs": [
        {
          "internalType": "uint32",
          "name": "_num_ids",
          "type": "uint32"
        }
      ],
      "name": "cancelTrade",
      "outputs": [],
      "stateMutability": "nonpayable",
      "type": "function"
    }
  ],
  "bytecode": "0x60806040523480156200001157600080fd5b506040518060400160405280600881526020017f446f4275794e46540000000000000000000000000000000000000000000000008152506040518060400160405280600581526020017f44424e465400000000000000000000000000000000000000000000000000000081525081600090805190602001906200009692919062000784565b508060019080519060200190620000af92919062000784565b50505033600760006101000a81548173ffffffffffffffffffffffffffffffffffffffff021916908373ffffffffffffffffffffffffffffffffffffffff1602179055506040518060a00160405280600760149054906101000a900463ffffffff1663ffffffff1681526020014281526020016040518060400160405280600c81526020017f446f42757920537461727421000000000000000000000000000000000000000081525081526020016040518060400160405280600981526020017f446f4275792e706e67000000000000000000000000000000000000000000000081525081526020016040518060400160405280600681526020017f6d61726b6574000000000000000000000000000000000000000000000000000081525081525060086000600760149054906101000a900463ffffffff1663ffffffff1663ffffffff16815260200190815260200160002060008201518160000160006101000a81548163ffffffff021916908363ffffffff1602179055506020820151816001015560408201518160020190805190602001906200025192919062000784565b5060608201518160030190805190602001906200027092919062000784565b5060808201518160040190805190602001906200028f92919062000784565b509050503360096000600760149054906101000a900463ffffffff1663ffffffff1663ffffffff16815260200190815260200160002060006101000a81548173ffffffffffffffffffffffffffffffffffffffff021916908373ffffffffffffffffffffffffffffffffffffffff1602179055507fd3541a7229e521bbd5f9dab3a283435fe8e2ba7a6ae962cafce8cadbec96dcb033600760149054906101000a900463ffffffff166040516200034892919062000856565b60405180910390a16200037062000364620006b660201b60201c565b620006be60201b60201c565b6040518060a00160405280600c60149054906101000a900463ffffffff1663ffffffff1681526020016040518060400160405280600181526020017f30000000000000000000000000000000000000000000000000000000000000008152508152602001600081526020016040518060400160405280600881526020017f4e46542053484f5000000000000000000000000000000000000000000000000081525081526020016040518060400160405280600981526020017f446f4275792e706e670000000000000000000000000000000000000000000000815250815250600d6000600c60149054906101000a900463ffffffff1663ffffffff168152602001908152602001600020600082015181600001556020820151816001019080519060200190620004a292919062000784565b50604082015181600201556060820151816003019080519060200190620004cb92919062000784565b506080820151816004019080519060200190620004ea92919062000784565b50905050600c601481819054906101000a900463ffffffff16809291906200051290620008fd565b91906101000a81548163ffffffff021916908363ffffffff160217905550506040518060a00160405280600c60149054906101000a900463ffffffff1663ffffffff1681526020016040518060400160405280600481526020017f302e3034000000000000000000000000000000000000000000000000000000008152508152602001610fa081526020016040518060400160405280600c81526020017f57686974655f6a6f7264616e000000000000000000000000000000000000000081525081526020016040518060400160405280600c81526020017f77686974655f6a6f2e706e670000000000000000000000000000000000000000815250815250600d6000600c60149054906101000a900463ffffffff1663ffffffff1681526020019081526020016000206000820151816000015560208201518160010190805190602001906200066492919062000784565b506040820151816002015560608201518160030190805190602001906200068d92919062000784565b506080820151816004019080519060200190620006ac92919062000784565b509050506200098d565b600033905090565b6000600c60009054906101000a900473ffffffffffffffffffffffffffffffffffffffff16905081600c60006101000a81548173ffffffffffffffffffffffffffffffffffffffff021916908373ffffffffffffffffffffffffffffffffffffffff1602179055508173ffffffffffffffffffffffffffffffffffffffff168173ffffffffffffffffffffffffffffffffffffffff167f8be0079c531659141344cd1fd0a4f28419497f9722a3daafe3b4186f6b6457e060405160405180910390a35050565b8280546200079290620008c7565b90600052602060002090601f016020900481019282620007b6576000855562000802565b82601f10620007d157805160ff191683800117855562000802565b8280016001018555821562000802579182015b8281111562000801578251825591602001919060010190620007e4565b5b50905062000811919062000815565b5090565b5b808211156200083057600081600090555060010162000816565b5090565b6200083f8162000883565b82525050565b6200085081620008b7565b82525050565b60006040820190506200086d600083018562000834565b6200087c602083018462000845565b9392505050565b6000620008908262000897565b9050919050565b600073ffffffffffffffffffffffffffffffffffffffff82169050919050565b600063ffffffff82169050919050565b60006002820490506001821680620008e057607f821691505b60208210811415620008f757620008f66200095e565b5b50919050565b60006200090a82620008b7565b915063ffffffff8214156200092457620009236200092f565b5b600182019050919050565b7f4e487b7100000000000000000000000000000000000000000000000000000000600052601160045260246000fd5b7f4e487b7100000000000000000000000000000000000000000000000000000000600052602260045260246000fd5b614ce7806200099d6000396000f3fe608060405234801561001057600080fd5b506004361061023d5760003560e01c8063b44875361161013b578063e48ff5e1116100b8578063f22a36751161007c578063f22a3675146106d9578063f25650f6146106f5578063f2fde38b14610729578063f736333514610745578063f9ce1b9f146107615761023d565b8063e48ff5e114610621578063e985e9c51461063d578063eeea74371461066d578063f10846121461069f578063f1d861ec146106bb5761023d565b8063c87b56dd116100ff578063c87b56dd14610581578063cc86afbe146105b1578063d645ddf6146105cd578063de3f7fb1146105e9578063dfef0990146106055761023d565b8063b4487536146104ca578063b54015f4146104e8578063b88d4fde14610518578063bc85f64b14610534578063c80d35e0146105655761023d565b806353806995116101c9578063715018a61161018d578063715018a61461044a5780638da5cb5b1461045457806395d89b4114610472578063a22cb46514610490578063aa46a400146104ac5761023d565b806353806995146103945780635902f169146103b05780636352211e146103cc5780636eb75dad146103fc57806370a082311461041a5761023d565b8063222586811161021057806322258681146102dc57806323b872dd146102f85780632d72c84e146103145780632fb21c281461034857806342842e0e146103785761023d565b806301ffc9a71461024257806306fdde0314610272578063081812fc14610290578063095ea7b3146102c0575b600080fd5b61025c6004803603810190610257919061386a565b610792565b6040516102699190614460565b60405180910390f35b61027a610874565b604051610287919061447b565b60405180910390f35b6102aa60048036038101906102a59190613abe565b610906565b6040516102b79190614392565b60405180910390f35b6102da60048036038101906102d5919061382e565b61098b565b005b6102f660048036038101906102f19190613a13565b610aa3565b005b610312600480360381019061030d9190613728565b610c2c565b005b61032e60048036038101906103299190613abe565b610c8c565b60405161033f959493929190614738565b60405180910390f35b610362600480360381019061035d9190613b3b565b610e5a565b60405161036f9190614392565b60405180910390f35b610392600480360381019061038d9190613728565b610e8d565b005b6103ae60048036038101906103a99190613ae7565b610ead565b005b6103ca60048036038101906103c59190613b3b565b61119a565b005b6103e660048036038101906103e19190613abe565b611233565b6040516103f39190614392565b60405180910390f35b6104046112e5565b60405161041191906147a0565b60405180910390f35b610434600480360381019061042f91906136c3565b6112fb565b604051610441919061471d565b60405180910390f35b6104526113b3565b005b61045c61143b565b6040516104699190614392565b60405180910390f35b61047a611465565b604051610487919061447b565b60405180910390f35b6104aa60048036038101906104a591906137f2565b6114f7565b005b6104b4611678565b6040516104c191906147a0565b60405180910390f35b6104d261168e565b6040516104df91906147a0565b60405180910390f35b61050260048036038101906104fd9190613b3b565b6116a4565b60405161050f9190614460565b60405180910390f35b610532600480360381019061052d9190613777565b6116c4565b005b61054e60048036038101906105499190613b3b565b611726565b60405161055c9291906144cd565b60405180910390f35b61057f600480360381019061057a9190613abe565b6117d2565b005b61059b60048036038101906105969190613abe565b6118a7565b6040516105a8919061447b565b60405180910390f35b6105cb60048036038101906105c69190613b3b565b6119f9565b005b6105e760048036038101906105e291906138fd565b611b04565b005b61060360048036038101906105fe9190613b3b565b611ce0565b005b61061f600480360381019061061a91906138fd565b611d55565b005b61063b60048036038101906106369190613b64565b611d65565b005b610657600480360381019061065291906136ec565b611e00565b6040516106649190614460565b60405180910390f35b61068760048036038101906106829190613abe565b611e94565b604051610696939291906143ad565b60405180910390f35b6106b960048036038101906106b49190613b3b565b611f86565b005b6106c3612248565b6040516106d091906147a0565b60405180910390f35b6106f360048036038101906106ee91906138bc565b61225e565b005b61070f600480360381019061070a9190613b3b565b6122da565b6040516107209594939291906147bb565b60405180910390f35b610743600480360381019061073e91906136c3565b6124b8565b005b61075f600480360381019061075a9190613994565b6125b0565b005b61077b60048036038101906107769190613b3b565b612687565b60405161078992919061449d565b60405180910390f35b60007f80ac58cd000000000000000000000000000000000000000000000000000000007bffffffffffffffffffffffffffffffffffffffffffffffffffffffff1916827bffffffffffffffffffffffffffffffffffffffffffffffffffffffff1916148061085d57507f5b5e139f000000000000000000000000000000000000000000000000000000007bffffffffffffffffffffffffffffffffffffffffffffffffffffffff1916827bffffffffffffffffffffffffffffffffffffffffffffffffffffffff1916145b8061086d575061086c82612753565b5b9050919050565b60606000805461088390614a98565b80601f01602080910402602001604051908101604052809291908181526020018280546108af90614a98565b80156108fc5780601f106108d1576101008083540402835291602001916108fc565b820191906000526020600020905b8154815290600101906020018083116108df57829003601f168201915b5050505050905090565b6000610911826127bd565b610950576040517f08c379a00000000000000000000000000000000000000000000000000000000081526004016109479061465d565b60405180910390fd5b6004600083815260200190815260200160002060009054906101000a900473ffffffffffffffffffffffffffffffffffffffff169050919050565b600061099682611233565b90508073ffffffffffffffffffffffffffffffffffffffff168373ffffffffffffffffffffffffffffffffffffffff161415610a07576040517f08c379a00000000000000000000000000000000000000000000000000000000081526004016109fe906146dd565b60405180910390fd5b8073ffffffffffffffffffffffffffffffffffffffff16610a26612829565b73ffffffffffffffffffffffffffffffffffffffff161480610a555750610a5481610a4f612829565b611e00565b5b610a94576040517f08c379a0000000000000000000000000000000000000000000000000000000008152600401610a8b906145bd565b60405180910390fd5b610a9e8383612831565b505050565b610aab612829565b73ffffffffffffffffffffffffffffffffffffffff16610ac961143b565b73ffffffffffffffffffffffffffffffffffffffff1614610b1f576040517f08c379a0000000000000000000000000000000000000000000000000000000008152600401610b169061467d565b60405180910390fd5b600c601481819054906101000a900463ffffffff1680929190610b4190614b13565b91906101000a81548163ffffffff021916908363ffffffff160217905550506000600c60149054906101000a900463ffffffff1663ffffffff1690506040518060a0016040528082815260200186815260200185815260200184815260200183815250600d6000838152602001908152602001600020600082015181600001556020820151816001019080519060200190610bdd929190613492565b50604082015181600201556060820151816003019080519060200190610c04929190613492565b506080820151816004019080519060200190610c21929190613492565b509050505050505050565b610c3d610c37612829565b826128ea565b610c7c576040517f08c379a0000000000000000000000000000000000000000000000000000000008152600401610c73906146fd565b60405180910390fd5b610c878383836129c8565b505050565b600d602052806000526040600020600091509050806000015490806001018054610cb590614a98565b80601f0160208091040260200160405190810160405280929190818152602001828054610ce190614a98565b8015610d2e5780601f10610d0357610100808354040283529160200191610d2e565b820191906000526020600020905b815481529060010190602001808311610d1157829003601f168201915b505050505090806002015490806003018054610d4990614a98565b80601f0160208091040260200160405190810160405280929190818152602001828054610d7590614a98565b8015610dc25780601f10610d9757610100808354040283529160200191610dc2565b820191906000526020600020905b815481529060010190602001808311610da557829003601f168201915b505050505090806004018054610dd790614a98565b80601f0160208091040260200160405190810160405280929190818152602001828054610e0390614a98565b8015610e505780601f10610e2557610100808354040283529160200191610e50565b820191906000526020600020905b815481529060010190602001808311610e3357829003601f168201915b5050505050905085565b60096020528060005260406000206000915054906101000a900473ffffffffffffffffffffffffffffffffffffffff1681565b610ea8838383604051806020016040528060008152506116c4565b505050565b6040518060400160405280600d60008581526020019081526020016000206003018054610ed990614a98565b80601f0160208091040260200160405190810160405280929190818152602001828054610f0590614a98565b8015610f525780601f10610f2757610100808354040283529160200191610f52565b820191906000526020600020905b815481529060010190602001808311610f3557829003601f168201915b505050505081526020013373ffffffffffffffffffffffffffffffffffffffff16815250600f6000600e60009054906101000a900463ffffffff1663ffffffff1663ffffffff1681526020019081526020016000206000820151816000019080519060200190610fc3929190613492565b5060208201518160010160006101000a81548173ffffffffffffffffffffffffffffffffffffffff021916908373ffffffffffffffffffffffffffffffffffffffff160217905550905050600e600081819054906101000a900463ffffffff168092919061103090614b13565b91906101000a81548163ffffffff021916908363ffffffff16021790555050611196600d6000848152602001908152602001600020600301805461107390614a98565b80601f016020809104026020016040519081016040528092919081815260200182805461109f90614a98565b80156110ec5780601f106110c1576101008083540402835291602001916110ec565b820191906000526020600020905b8154815290600101906020018083116110cf57829003601f168201915b5050505050600d6000858152602001908152602001600020600401805461111290614a98565b80601f016020809104026020016040519081016040528092919081815260200182805461113e90614a98565b801561118b5780601f106111605761010080835404028352916020019161118b565b820191906000526020600020905b81548152906001019060200180831161116e57829003601f168201915b505050505083611d55565b5050565b33600960008363ffffffff1663ffffffff16815260200190815260200160002060006101000a81548173ffffffffffffffffffffffffffffffffffffffff021916908373ffffffffffffffffffffffffffffffffffffffff1602179055506000601160008363ffffffff1663ffffffff16815260200190815260200160002060006101000a81548160ff02191690831515021790555050565b6000806002600084815260200190815260200160002060009054906101000a900473ffffffffffffffffffffffffffffffffffffffff169050600073ffffffffffffffffffffffffffffffffffffffff168173ffffffffffffffffffffffffffffffffffffffff1614156112dc576040517f08c379a00000000000000000000000000000000000000000000000000000000081526004016112d3906145fd565b60405180910390fd5b80915050919050565b600a60009054906101000a900463ffffffff1681565b60008073ffffffffffffffffffffffffffffffffffffffff168273ffffffffffffffffffffffffffffffffffffffff16141561136c576040517f08c379a0000000000000000000000000000000000000000000000000000000008152600401611363906145dd565b60405180910390fd5b600360008373ffffffffffffffffffffffffffffffffffffffff1673ffffffffffffffffffffffffffffffffffffffff168152602001908152602001600020549050919050565b6113bb612829565b73ffffffffffffffffffffffffffffffffffffffff166113d961143b565b73ffffffffffffffffffffffffffffffffffffffff161461142f576040517f08c379a00000000000000000000000000000000000000000000000000000000081526004016114269061467d565b60405180910390fd5b6114396000612c24565b565b6000600c60009054906101000a900473ffffffffffffffffffffffffffffffffffffffff16905090565b60606001805461147490614a98565b80601f01602080910402602001604051908101604052809291908181526020018280546114a090614a98565b80156114ed5780601f106114c2576101008083540402835291602001916114ed565b820191906000526020600020905b8154815290600101906020018083116114d057829003601f168201915b5050505050905090565b6114ff612829565b73ffffffffffffffffffffffffffffffffffffffff168273ffffffffffffffffffffffffffffffffffffffff16141561156d576040517f08c379a00000000000000000000000000000000000000000000000000000000081526004016115649061457d565b60405180910390fd5b806005600061157a612829565b73ffffffffffffffffffffffffffffffffffffffff1673ffffffffffffffffffffffffffffffffffffffff16815260200190815260200160002060008473ffffffffffffffffffffffffffffffffffffffff1673ffffffffffffffffffffffffffffffffffffffff16815260200190815260200160002060006101000a81548160ff0219169083151502179055508173ffffffffffffffffffffffffffffffffffffffff16611627612829565b73ffffffffffffffffffffffffffffffffffffffff167f17307eab39ab6107e8899845ad3d59bd9653f200f220920489ca2b5937696c318360405161166c9190614460565b60405180910390a35050565b600760149054906101000a900463ffffffff1681565b600c60149054906101000a900463ffffffff1681565b60116020528060005260406000206000915054906101000a900460ff1681565b6116d56116cf612829565b836128ea565b611714576040517f08c379a000000000000000000000000000000000000000000000000000000000815260040161170b906146fd565b60405180910390fd5b61172084848484612cea565b50505050565b601060205280600052604060002060009150905080600001805461174990614a98565b80601f016020809104026020016040519081016040528092919081815260200182805461177590614a98565b80156117c25780601f10611797576101008083540402835291602001916117c2565b820191906000526020600020905b8154815290600101906020018083116117a557829003601f168201915b5050505050908060010154905082565b6117da612829565b73ffffffffffffffffffffffffffffffffffffffff166117f861143b565b73ffffffffffffffffffffffffffffffffffffffff161461184e576040517f08c379a00000000000000000000000000000000000000000000000000000000081526004016118459061467d565b60405180910390fd5b600d600082815260200190815260200160002060008082016000905560018201600061187a9190613518565b60028201600090556003820160006118929190613518565b6004820160006118a29190613518565b505050565b60606118b2826127bd565b6118f1576040517f08c379a00000000000000000000000000000000000000000000000000000000081526004016118e89061463d565b60405180910390fd5b600060066000848152602001908152602001600020805461191190614a98565b80601f016020809104026020016040519081016040528092919081815260200182805461193d90614a98565b801561198a5780601f1061195f5761010080835404028352916020019161198a565b820191906000526020600020905b81548152906001019060200180831161196d57829003601f168201915b50505050509050600061199b612d46565b90506000815114156119b15781925050506119f4565b6000825111156119e65780826040516020016119ce92919061436e565b604051602081830303815290604052925050506119f4565b6119ef84612d5d565b925050505b919050565b3373ffffffffffffffffffffffffffffffffffffffff16611a1f8263ffffffff16611233565b73ffffffffffffffffffffffffffffffffffffffff1614611a3f57600080fd5b611a4e8163ffffffff16612e04565b600960008263ffffffff1663ffffffff16815260200190815260200160002060006101000a81549073ffffffffffffffffffffffffffffffffffffffff0219169055600860008263ffffffff1663ffffffff168152602001908152602001600020600080820160006101000a81549063ffffffff02191690556001820160009055600282016000611adf9190613518565b600382016000611aef9190613518565b600482016000611aff9190613518565b505050565b6007601481819054906101000a900463ffffffff1680929190611b2690614b13565b91906101000a81548163ffffffff021916908363ffffffff160217905550506000600760149054906101000a900463ffffffff1690506040518060a001604052808263ffffffff16815260200142815260200185815260200184815260200183815250600860008363ffffffff1663ffffffff16815260200190815260200160002060008201518160000160006101000a81548163ffffffff021916908363ffffffff160217905550602082015181600101556040820151816002019080519060200190611bf5929190613492565b506060820151816003019080519060200190611c12929190613492565b506080820151816004019080519060200190611c2f929190613492565b50905050611c43338263ffffffff16612e57565b33600960008363ffffffff1663ffffffff16815260200190815260200160002060006101000a81548173ffffffffffffffffffffffffffffffffffffffff021916908373ffffffffffffffffffffffffffffffffffffffff1602179055507fd3541a7229e521bbd5f9dab3a283435fe8e2ba7a6ae962cafce8cadbec96dcb03382604051611cd2929190614437565b60405180910390a150505050565b601060008263ffffffff1663ffffffff16815260200190815260200160002060008082016000611d109190613518565b600182016000905550506000601160008363ffffffff1663ffffffff16815260200190815260200160002060006101000a81548160ff02191690831515021790555050565b611d60838383611b04565b505050565b604051806040016040528083815260200182815250601060008563ffffffff1663ffffffff1681526020019081526020016000206000820151816000019080519060200190611db5929190613492565b50602082015181600101559050506001601160008563ffffffff1663ffffffff16815260200190815260200160002060006101000a81548160ff021916908315150217905550505050565b6000600560008473ffffffffffffffffffffffffffffffffffffffff1673ffffffffffffffffffffffffffffffffffffffff16815260200190815260200160002060008373ffffffffffffffffffffffffffffffffffffffff1673ffffffffffffffffffffffffffffffffffffffff16815260200190815260200160002060009054906101000a900460ff16905092915050565b600b6020528060005260406000206000915090508060000160009054906101000a900473ffffffffffffffffffffffffffffffffffffffff16908060010160009054906101000a900473ffffffffffffffffffffffffffffffffffffffff1690806002018054611f0390614a98565b80601f0160208091040260200160405190810160405280929190818152602001828054611f2f90614a98565b8015611f7c5780601f10611f5157610100808354040283529160200191611f7c565b820191906000526020600020905b815481529060010190602001808311611f5f57829003601f168201915b5050505050905083565b6000600960008363ffffffff1663ffffffff16815260200190815260200160002060009054906101000a900473ffffffffffffffffffffffffffffffffffffffff169050600a600081819054906101000a900463ffffffff1680929190611fec90614b13565b91906101000a81548163ffffffff021916908363ffffffff1602179055505061201c81338463ffffffff166129c8565b33600960008463ffffffff1663ffffffff16815260200190815260200160002060006101000a81548173ffffffffffffffffffffffffffffffffffffffff021916908373ffffffffffffffffffffffffffffffffffffffff16021790555060405180606001604052808273ffffffffffffffffffffffffffffffffffffffff1681526020013373ffffffffffffffffffffffffffffffffffffffff168152602001600860008563ffffffff1663ffffffff16815260200190815260200160002060020180546120ea90614a98565b80601f016020809104026020016040519081016040528092919081815260200182805461211690614a98565b80156121635780601f1061213857610100808354040283529160200191612163565b820191906000526020600020905b81548152906001019060200180831161214657829003601f168201915b5050505050815250600b6000600a60009054906101000a900463ffffffff1663ffffffff16815260200190815260200160002060008201518160000160006101000a81548173ffffffffffffffffffffffffffffffffffffffff021916908373ffffffffffffffffffffffffffffffffffffffff16021790555060208201518160010160006101000a81548173ffffffffffffffffffffffffffffffffffffffff021916908373ffffffffffffffffffffffffffffffffffffffff1602179055506040820151816002019080519060200190612240929190613492565b509050505050565b600e60009054906101000a900463ffffffff1681565b60005b600c60149054906101000a900463ffffffff1663ffffffff1681116122d657600d60008281526020019081526020016000206003016040516122a39190614357565b6040518091039020828051906020012014156122c3576122c2816117d2565b5b80806122ce90614aca565b915050612261565b5050565b60086020528060005260406000206000915090508060000160009054906101000a900463ffffffff169080600101549080600201805461231990614a98565b80601f016020809104026020016040519081016040528092919081815260200182805461234590614a98565b80156123925780601f1061236757610100808354040283529160200191612392565b820191906000526020600020905b81548152906001019060200180831161237557829003601f168201915b5050505050908060030180546123a790614a98565b80601f01602080910402602001604051908101604052809291908181526020018280546123d390614a98565b80156124205780601f106123f557610100808354040283529160200191612420565b820191906000526020600020905b81548152906001019060200180831161240357829003601f168201915b50505050509080600401805461243590614a98565b80601f016020809104026020016040519081016040528092919081815260200182805461246190614a98565b80156124ae5780601f10612483576101008083540402835291602001916124ae565b820191906000526020600020905b81548152906001019060200180831161249157829003601f168201915b5050505050905085565b6124c0612829565b73ffffffffffffffffffffffffffffffffffffffff166124de61143b565b73ffffffffffffffffffffffffffffffffffffffff1614612534576040517f08c379a000000000000000000000000000000000000000000000000000000000815260040161252b9061467d565b60405180910390fd5b600073ffffffffffffffffffffffffffffffffffffffff168173ffffffffffffffffffffffffffffffffffffffff1614156125a4576040517f08c379a000000000000000000000000000000000000000000000000000000000815260040161259b9061451d565b60405180910390fd5b6125ad81612c24565b50565b6000600190505b600c60149054906101000a900463ffffffff1663ffffffff168163ffffffff1611612681578380519060200120600d60008363ffffffff16815260200190815260200160002060030160405161260d9190614357565b6040518091039020141561266e5782600d60008363ffffffff168152602001908152602001600020600101908051906020019061264b929190613492565b5081600d60008363ffffffff168152602001908152602001600020600201819055505b808061267990614b13565b9150506125b7565b50505050565b600f6020528060005260406000206000915090508060000180546126aa90614a98565b80601f01602080910402602001604051908101604052809291908181526020018280546126d690614a98565b80156127235780601f106126f857610100808354040283529160200191612723565b820191906000526020600020905b81548152906001019060200180831161270657829003601f168201915b5050505050908060010160009054906101000a900473ffffffffffffffffffffffffffffffffffffffff16905082565b60007f01ffc9a7000000000000000000000000000000000000000000000000000000007bffffffffffffffffffffffffffffffffffffffffffffffffffffffff1916827bffffffffffffffffffffffffffffffffffffffffffffffffffffffff1916149050919050565b60008073ffffffffffffffffffffffffffffffffffffffff166002600084815260200190815260200160002060009054906101000a900473ffffffffffffffffffffffffffffffffffffffff1673ffffffffffffffffffffffffffffffffffffffff1614159050919050565b600033905090565b816004600083815260200190815260200160002060006101000a81548173ffffffffffffffffffffffffffffffffffffffff021916908373ffffffffffffffffffffffffffffffffffffffff160217905550808273ffffffffffffffffffffffffffffffffffffffff166128a483611233565b73ffffffffffffffffffffffffffffffffffffffff167f8c5be1e5ebec7d5bd14f71427d1e84f3dd0314c0f7b2291e5b200ac8c7c3b92560405160405180910390a45050565b60006128f5826127bd565b612934576040517f08c379a000000000000000000000000000000000000000000000000000000000815260040161292b9061459d565b60405180910390fd5b600061293f83611233565b90508073ffffffffffffffffffffffffffffffffffffffff168473ffffffffffffffffffffffffffffffffffffffff1614806129ae57508373ffffffffffffffffffffffffffffffffffffffff1661299684610906565b73ffffffffffffffffffffffffffffffffffffffff16145b806129bf57506129be8185611e00565b5b91505092915050565b8273ffffffffffffffffffffffffffffffffffffffff166129e882611233565b73ffffffffffffffffffffffffffffffffffffffff1614612a3e576040517f08c379a0000000000000000000000000000000000000000000000000000000008152600401612a359061469d565b60405180910390fd5b600073ffffffffffffffffffffffffffffffffffffffff168273ffffffffffffffffffffffffffffffffffffffff161415612aae576040517f08c379a0000000000000000000000000000000000000000000000000000000008152600401612aa59061455d565b60405180910390fd5b612ab9838383613025565b612ac4600082612831565b6001600360008573ffffffffffffffffffffffffffffffffffffffff1673ffffffffffffffffffffffffffffffffffffffff1681526020019081526020016000206000828254612b14919061499e565b925050819055506001600360008473ffffffffffffffffffffffffffffffffffffffff1673ffffffffffffffffffffffffffffffffffffffff1681526020019081526020016000206000828254612b6b9190614917565b92505081905550816002600083815260200190815260200160002060006101000a81548173ffffffffffffffffffffffffffffffffffffffff021916908373ffffffffffffffffffffffffffffffffffffffff160217905550808273ffffffffffffffffffffffffffffffffffffffff168473ffffffffffffffffffffffffffffffffffffffff167fddf252ad1be2c89b69c2b068fc378daa952ba7f163c4a11628f55a4df523b3ef60405160405180910390a4505050565b6000600c60009054906101000a900473ffffffffffffffffffffffffffffffffffffffff16905081600c60006101000a81548173ffffffffffffffffffffffffffffffffffffffff021916908373ffffffffffffffffffffffffffffffffffffffff1602179055508173ffffffffffffffffffffffffffffffffffffffff168173ffffffffffffffffffffffffffffffffffffffff167f8be0079c531659141344cd1fd0a4f28419497f9722a3daafe3b4186f6b6457e060405160405180910390a35050565b612cf58484846129c8565b612d018484848461302a565b612d40576040517f08c379a0000000000000000000000000000000000000000000000000000000008152600401612d37906144fd565b60405180910390fd5b50505050565b606060405180602001604052806000815250905090565b6060612d68826127bd565b612da7576040517f08c379a0000000000000000000000000000000000000000000000000000000008152600401612d9e906146bd565b60405180910390fd5b6000612db1612d46565b90506000815111612dd15760405180602001604052806000815250612dfc565b80612ddb846131c1565b604051602001612dec92919061436e565b6040516020818303038152906040525b915050919050565b612e0d8161336e565b6000600660008381526020019081526020016000208054612e2d90614a98565b905014612e5457600660008281526020019081526020016000206000612e539190613518565b5b50565b600073ffffffffffffffffffffffffffffffffffffffff168273ffffffffffffffffffffffffffffffffffffffff161415612ec7576040517f08c379a0000000000000000000000000000000000000000000000000000000008152600401612ebe9061461d565b60405180910390fd5b612ed0816127bd565b15612f10576040517f08c379a0000000000000000000000000000000000000000000000000000000008152600401612f079061453d565b60405180910390fd5b612f1c60008383613025565b6001600360008473ffffffffffffffffffffffffffffffffffffffff1673ffffffffffffffffffffffffffffffffffffffff1681526020019081526020016000206000828254612f6c9190614917565b92505081905550816002600083815260200190815260200160002060006101000a81548173ffffffffffffffffffffffffffffffffffffffff021916908373ffffffffffffffffffffffffffffffffffffffff160217905550808273ffffffffffffffffffffffffffffffffffffffff16600073ffffffffffffffffffffffffffffffffffffffff167fddf252ad1be2c89b69c2b068fc378daa952ba7f163c4a11628f55a4df523b3ef60405160405180910390a45050565b505050565b600061304b8473ffffffffffffffffffffffffffffffffffffffff1661347f565b156131b4578373ffffffffffffffffffffffffffffffffffffffff1663150b7a02613074612829565b8786866040518563ffffffff1660e01b815260040161309694939291906143eb565b602060405180830381600087803b1580156130b057600080fd5b505af19250505080156130e157506040513d601f19601f820116820180604052508101906130de9190613893565b60015b613164573d8060008114613111576040519150601f19603f3d011682016040523d82523d6000602084013e613116565b606091505b5060008151141561315c576040517f08c379a0000000000000000000000000000000000000000000000000000000008152600401613153906144fd565b60405180910390fd5b805181602001fd5b63150b7a0260e01b7bffffffffffffffffffffffffffffffffffffffffffffffffffffffff1916817bffffffffffffffffffffffffffffffffffffffffffffffffffffffff1916149150506131b9565b600190505b949350505050565b60606000821415613209576040518060400160405280600181526020017f30000000000000000000000000000000000000000000000000000000000000008152509050613369565b600082905060005b6000821461323b57808061322490614aca565b915050600a82613234919061496d565b9150613211565b60008167ffffffffffffffff81111561327d577f4e487b7100000000000000000000000000000000000000000000000000000000600052604160045260246000fd5b6040519080825280601f01601f1916602001820160405280156132af5781602001600182028036833780820191505090505b5090505b60008514613362576001826132c8919061499e565b9150600a856132d79190614b40565b60306132e39190614917565b60f81b81838151811061331f577f4e487b7100000000000000000000000000000000000000000000000000000000600052603260045260246000fd5b60200101907effffffffffffffffffffffffffffffffffffffffffffffffffffffffffffff1916908160001a905350600a8561335b919061496d565b94506132b3565b8093505050505b919050565b600061337982611233565b905061338781600084613025565b613392600083612831565b6001600360008373ffffffffffffffffffffffffffffffffffffffff1673ffffffffffffffffffffffffffffffffffffffff16815260200190815260200160002060008282546133e2919061499e565b925050819055506002600083815260200190815260200160002060006101000a81549073ffffffffffffffffffffffffffffffffffffffff021916905581600073ffffffffffffffffffffffffffffffffffffffff168273ffffffffffffffffffffffffffffffffffffffff167fddf252ad1be2c89b69c2b068fc378daa952ba7f163c4a11628f55a4df523b3ef60405160405180910390a45050565b600080823b905060008111915050919050565b82805461349e90614a98565b90600052602060002090601f0160209004810192826134c05760008555613507565b82601f106134d957805160ff1916838001178555613507565b82800160010185558215613507579182015b828111156135065782518255916020019190600101906134eb565b5b5090506135149190613558565b5090565b50805461352490614a98565b6000825580601f106135365750613555565b601f0160209004906000526020600020908101906135549190613558565b5b50565b5b80821115613571576000816000905550600101613559565b5090565b600061358861358384614854565b614823565b9050828152602081018484840111156135a057600080fd5b6135ab848285614a56565b509392505050565b60006135c66135c184614884565b614823565b9050828152602081018484840111156135de57600080fd5b6135e9848285614a56565b509392505050565b60008135905061360081614c3e565b92915050565b60008135905061361581614c55565b92915050565b60008135905061362a81614c6c565b92915050565b60008151905061363f81614c6c565b92915050565b600082601f83011261365657600080fd5b8135613666848260208601613575565b91505092915050565b600082601f83011261368057600080fd5b81356136908482602086016135b3565b91505092915050565b6000813590506136a881614c83565b92915050565b6000813590506136bd81614c9a565b92915050565b6000602082840312156136d557600080fd5b60006136e3848285016135f1565b91505092915050565b600080604083850312156136ff57600080fd5b600061370d858286016135f1565b925050602061371e858286016135f1565b9150509250929050565b60008060006060848603121561373d57600080fd5b600061374b868287016135f1565b935050602061375c868287016135f1565b925050604061376d86828701613699565b9150509250925092565b6000806000806080858703121561378d57600080fd5b600061379b878288016135f1565b94505060206137ac878288016135f1565b93505060406137bd87828801613699565b925050606085013567ffffffffffffffff8111156137da57600080fd5b6137e687828801613645565b91505092959194509250565b6000806040838503121561380557600080fd5b6000613813858286016135f1565b925050602061382485828601613606565b9150509250929050565b6000806040838503121561384157600080fd5b600061384f858286016135f1565b925050602061386085828601613699565b9150509250929050565b60006020828403121561387c57600080fd5b600061388a8482850161361b565b91505092915050565b6000602082840312156138a557600080fd5b60006138b384828501613630565b91505092915050565b6000602082840312156138ce57600080fd5b600082013567ffffffffffffffff8111156138e857600080fd5b6138f48482850161366f565b91505092915050565b60008060006060848603121561391257600080fd5b600084013567ffffffffffffffff81111561392c57600080fd5b6139388682870161366f565b935050602084013567ffffffffffffffff81111561395557600080fd5b6139618682870161366f565b925050604084013567ffffffffffffffff81111561397e57600080fd5b61398a8682870161366f565b9150509250925092565b6000806000606084860312156139a957600080fd5b600084013567ffffffffffffffff8111156139c357600080fd5b6139cf8682870161366f565b935050602084013567ffffffffffffffff8111156139ec57600080fd5b6139f88682870161366f565b9250506040613a0986828701613699565b9150509250925092565b60008060008060808587031215613a2957600080fd5b600085013567ffffffffffffffff811115613a4357600080fd5b613a4f8782880161366f565b9450506020613a6087828801613699565b935050604085013567ffffffffffffffff811115613a7d57600080fd5b613a898782880161366f565b925050606085013567ffffffffffffffff811115613aa657600080fd5b613ab28782880161366f565b91505092959194509250565b600060208284031215613ad057600080fd5b6000613ade84828501613699565b91505092915050565b60008060408385031215613afa57600080fd5b6000613b0885828601613699565b925050602083013567ffffffffffffffff811115613b2557600080fd5b613b318582860161366f565b9150509250929050565b600060208284031215613b4d57600080fd5b6000613b5b848285016136ae565b91505092915050565b600080600060608486031215613b7957600080fd5b6000613b87868287016136ae565b935050602084013567ffffffffffffffff811115613ba457600080fd5b613bb08682870161366f565b9250506040613bc186828701613699565b9150509250925092565b613bd4816149d2565b82525050565b613be3816149e4565b82525050565b6000613bf4826148c9565b613bfe81856148df565b9350613c0e818560208601614a65565b613c1781614c2d565b840191505092915050565b60008154613c2f81614a98565b613c3981866148f0565b94506001821660008114613c545760018114613c6557613c98565b60ff19831686528186019350613c98565b613c6e856148b4565b60005b83811015613c9057815481890152600182019150602081019050613c71565b838801955050505b50505092915050565b6000613cac826148d4565b613cb681856148fb565b9350613cc6818560208601614a65565b613ccf81614c2d565b840191505092915050565b6000613ce5826148d4565b613cef818561490c565b9350613cff818560208601614a65565b80840191505092915050565b6000613d186032836148fb565b91507f4552433732313a207472616e7366657220746f206e6f6e20455243373231526560008301527f63656976657220696d706c656d656e74657200000000000000000000000000006020830152604082019050919050565b6000613d7e6026836148fb565b91507f4f776e61626c653a206e6577206f776e657220697320746865207a65726f206160008301527f64647265737300000000000000000000000000000000000000000000000000006020830152604082019050919050565b6000613de4601c836148fb565b91507f4552433732313a20746f6b656e20616c7265616479206d696e746564000000006000830152602082019050919050565b6000613e246024836148fb565b91507f4552433732313a207472616e7366657220746f20746865207a65726f2061646460008301527f72657373000000000000000000000000000000000000000000000000000000006020830152604082019050919050565b6000613e8a6019836148fb565b91507f4552433732313a20617070726f766520746f2063616c6c6572000000000000006000830152602082019050919050565b6000613eca602c836148fb565b91507f4552433732313a206f70657261746f7220717565727920666f72206e6f6e657860008301527f697374656e7420746f6b656e00000000000000000000000000000000000000006020830152604082019050919050565b6000613f306038836148fb565b91507f4552433732313a20617070726f76652063616c6c6572206973206e6f74206f7760008301527f6e6572206e6f7220617070726f76656420666f7220616c6c00000000000000006020830152604082019050919050565b6000613f96602a836148fb565b91507f4552433732313a2062616c616e636520717565727920666f7220746865207a6560008301527f726f2061646472657373000000000000000000000000000000000000000000006020830152604082019050919050565b6000613ffc6029836148fb565b91507f4552433732313a206f776e657220717565727920666f72206e6f6e657869737460008301527f656e7420746f6b656e00000000000000000000000000000000000000000000006020830152604082019050919050565b60006140626020836148fb565b91507f4552433732313a206d696e7420746f20746865207a65726f20616464726573736000830152602082019050919050565b60006140a26031836148fb565b91507f45524337323155524953746f726167653a2055524920717565727920666f722060008301527f6e6f6e6578697374656e7420746f6b656e0000000000000000000000000000006020830152604082019050919050565b6000614108602c836148fb565b91507f4552433732313a20617070726f76656420717565727920666f72206e6f6e657860008301527f697374656e7420746f6b656e00000000000000000000000000000000000000006020830152604082019050919050565b600061416e6020836148fb565b91507f4f776e61626c653a2063616c6c6572206973206e6f7420746865206f776e65726000830152602082019050919050565b60006141ae6029836148fb565b91507f4552433732313a207472616e73666572206f6620746f6b656e2074686174206960008301527f73206e6f74206f776e00000000000000000000000000000000000000000000006020830152604082019050919050565b6000614214602f836148fb565b91507f4552433732314d657461646174613a2055524920717565727920666f72206e6f60008301527f6e6578697374656e7420746f6b656e00000000000000000000000000000000006020830152604082019050919050565b600061427a6021836148fb565b91507f4552433732313a20617070726f76616c20746f2063757272656e74206f776e6560008301527f72000000000000000000000000000000000000000000000000000000000000006020830152604082019050919050565b60006142e06031836148fb565b91507f4552433732313a207472616e736665722063616c6c6572206973206e6f74206f60008301527f776e6572206e6f7220617070726f7665640000000000000000000000000000006020830152604082019050919050565b61434281614a3c565b82525050565b61435181614a46565b82525050565b60006143638284613c22565b915081905092915050565b600061437a8285613cda565b91506143868284613cda565b91508190509392505050565b60006020820190506143a76000830184613bcb565b92915050565b60006060820190506143c26000830186613bcb565b6143cf6020830185613bcb565b81810360408301526143e18184613ca1565b9050949350505050565b60006080820190506144006000830187613bcb565b61440d6020830186613bcb565b61441a6040830185614339565b818103606083015261442c8184613be9565b905095945050505050565b600060408201905061444c6000830185613bcb565b6144596020830184614348565b9392505050565b60006020820190506144756000830184613bda565b92915050565b600060208201905081810360008301526144958184613ca1565b905092915050565b600060408201905081810360008301526144b78185613ca1565b90506144c66020830184613bcb565b9392505050565b600060408201905081810360008301526144e78185613ca1565b90506144f66020830184614339565b9392505050565b6000602082019050818103600083015261451681613d0b565b9050919050565b6000602082019050818103600083015261453681613d71565b9050919050565b6000602082019050818103600083015261455681613dd7565b9050919050565b6000602082019050818103600083015261457681613e17565b9050919050565b6000602082019050818103600083015261459681613e7d565b9050919050565b600060208201905081810360008301526145b681613ebd565b9050919050565b600060208201905081810360008301526145d681613f23565b9050919050565b600060208201905081810360008301526145f681613f89565b9050919050565b6000602082019050818103600083015261461681613fef565b9050919050565b6000602082019050818103600083015261463681614055565b9050919050565b6000602082019050818103600083015261465681614095565b9050919050565b60006020820190508181036000830152614676816140fb565b9050919050565b6000602082019050818103600083015261469681614161565b9050919050565b600060208201905081810360008301526146b6816141a1565b9050919050565b600060208201905081810360008301526146d681614207565b9050919050565b600060208201905081810360008301526146f68161426d565b9050919050565b60006020820190508181036000830152614716816142d3565b9050919050565b60006020820190506147326000830184614339565b92915050565b600060a08201905061474d6000830188614339565b818103602083015261475f8187613ca1565b905061476e6040830186614339565b81810360608301526147808185613ca1565b905081810360808301526147948184613ca1565b90509695505050505050565b60006020820190506147b56000830184614348565b92915050565b600060a0820190506147d06000830188614348565b6147dd6020830187614339565b81810360408301526147ef8186613ca1565b905081810360608301526148038185613ca1565b905081810360808301526148178184613ca1565b90509695505050505050565b6000604051905081810181811067ffffffffffffffff8211171561484a57614849614bfe565b5b8060405250919050565b600067ffffffffffffffff82111561486f5761486e614bfe565b5b601f19601f8301169050602081019050919050565b600067ffffffffffffffff82111561489f5761489e614bfe565b5b601f19601f8301169050602081019050919050565b60008190508160005260206000209050919050565b600081519050919050565b600081519050919050565b600082825260208201905092915050565b600081905092915050565b600082825260208201905092915050565b600081905092915050565b600061492282614a3c565b915061492d83614a3c565b9250827fffffffffffffffffffffffffffffffffffffffffffffffffffffffffffffffff0382111561496257614961614b71565b5b828201905092915050565b600061497882614a3c565b915061498383614a3c565b92508261499357614992614ba0565b5b828204905092915050565b60006149a982614a3c565b91506149b483614a3c565b9250828210156149c7576149c6614b71565b5b828203905092915050565b60006149dd82614a1c565b9050919050565b60008115159050919050565b60007fffffffff0000000000000000000000000000000000000000000000000000000082169050919050565b600073ffffffffffffffffffffffffffffffffffffffff82169050919050565b6000819050919050565b600063ffffffff82169050919050565b82818337600083830152505050565b60005b83811015614a83578082015181840152602081019050614a68565b83811115614a92576000848401525b50505050565b60006002820490506001821680614ab057607f821691505b60208210811415614ac457614ac3614bcf565b5b50919050565b6000614ad582614a3c565b91507fffffffffffffffffffffffffffffffffffffffffffffffffffffffffffffffff821415614b0857614b07614b71565b5b600182019050919050565b6000614b1e82614a46565b915063ffffffff821415614b3557614b34614b71565b5b600182019050919050565b6000614b4b82614a3c565b9150614b5683614a3c565b925082614b6657614b65614ba0565b5b828206905092915050565b7f4e487b7100000000000000000000000000000000000000000000000000000000600052601160045260246000fd5b7f4e487b7100000000000000000000000000000000000000000000000000000000600052601260045260246000fd5b7f4e487b7100000000000000000000000000000000000000000000000000000000600052602260045260246000fd5b7f4e487b7100000000000000000000000000000000000000000000000000000000600052604160045260246000fd5b6000601f19601f8301169050919050565b614c47816149d2565b8114614c5257600080fd5b50565b614c5e816149e4565b8114614c6957600080fd5b50565b614c75816149f0565b8114614c8057600080fd5b50565b614c8c81614a3c565b8114614c9757600080fd5b50565b614ca381614a46565b8114614cae57600080fd5b5056fea26469706673582212208a711abbe2c805b872828d71be24112c5af8ee7cc3069387f7ff676d683bad7064736f6c63430008000033",
  "immutableReferences": {},
  "source": "// SPDX-License-Identifier: MIT\r\npragma solidity >=0.4.22 <0.9.0;\r\n\r\nimport \"./DoBuyNFT.sol\";\r\n// import \"./SafeMath.sol\";\r\nimport \"@openzeppelin/contracts/access/Ownable.sol\";\r\n\r\ncontract MarketNFT is DoBuyNFT, Ownable {\r\n    // using SafeMath for uint256;\r\n    // using SafeMath32 for uint32;\r\n    // using SafeMath16 for uint16;\r\n\r\n    /// @dev Market Ids\r\n    uint32 public _MarketIds;\r\n\r\n    //  \r\n    mapping (uint256 => MarketList) public _MarketList;\r\n    // mapping (uint256 => address) public _MarketToOwner;\r\n\r\n    /// @dev Product Counts\r\n    uint32 public ProductCounts;\r\n    \r\n    /// @dev Product Transaction\r\n    struct ProductTrans {\r\n        string name_product;\r\n        address whobuy;\r\n    }\r\n\r\n    //    \r\n    mapping (uint32 => ProductTrans) public ProductBuy;\r\n\r\n    /// @dev Market \r\n    struct MarketList {\r\n        uint256 _ids; // serial number\r\n        string price_ETH; // Price of ETH\r\n        uint256 price_DoBuy; // Price of DoBuy\r\n        string name; // names\r\n        string img_url; // IMAGE URL\r\n    }\r\n\r\n    /// @dev Trade\r\n    struct TradeList {\r\n        string price_ETH; // Price of ETH\r\n        uint256 price_DoBuy; // Price of DoBuy\r\n    }\r\n    \r\n    //   \r\n    mapping(uint32 => TradeList) public TradeSell;\r\n\r\n    //    \r\n    mapping(uint32 => bool) public _selling;\r\n\r\n    constructor() {\r\n        _MarketList[_MarketIds] = MarketList(_MarketIds, \"0\", 0, \"NFT SHOP\", \"DoBuy.png\");\r\n        _MarketIds++;\r\n        _MarketList[_MarketIds] = MarketList(_MarketIds, \"0.04\", 4000, \"White_jordan\", \"white_jo.png\");\r\n        // _MarketIds++;\r\n        // _MarketList[_MarketIds] = MarketList(_MarketIds, \"0.05\", 5000, \"Yellow_jordan\", \"yellow_jo.png\");\r\n        // _MarketIds++;\r\n        // _MarketList[_MarketIds] = MarketList(_MarketIds, \"0.08\", 8000, \"Descente\", \"dessa.png\");\r\n        // _MarketIds++;\r\n        // _MarketList[_MarketIds] = MarketList(_MarketIds, \"2\", 200000, \"RollsUmbrella\", \"rose.png\");\r\n        // _MarketIds++;\r\n        // _MarketList[_MarketIds] = MarketList(_MarketIds, \"30\", 3000000, \"GucciBag\", \"gucci.jpg\");\r\n        // _MarketIds++;\r\n        // _MarketList[_MarketIds] = MarketList(_MarketIds, \"0.4\", 400000, \"Razer\", \"razer.jpg\");\r\n        // _MarketIds++;\r\n        // _MarketList[_MarketIds] = MarketList(_MarketIds, \"0.2\", 200000, \"MacBook\", \"notebook.jpg\");\r\n        // _MarketIds++;\r\n        // _MarketList[_MarketIds] = MarketList(_MarketIds, \"0.15\", 150000, \"Ipad\", \"ipad.jpg\");\r\n        // _MarketIds++;\r\n        // _MarketList[_MarketIds] = MarketList(_MarketIds, \"0.012\", 1200, \"Potato\", \"potato.jpg\");\r\n        // _MarketIds++;\r\n        // _MarketList[_MarketIds] = MarketList(_MarketIds, \"0.025\", 2500, \"Banana\", \"banana.jpg\");\r\n        // _MarketIds++;\r\n        // _MarketList[_MarketIds] = MarketList(_MarketIds, \"0.01\", 1000, \"Apple\", \"apple.jpg\");\r\n    }\r\n\r\n    /**\r\n    *  @dev MarketList  \r\n    *  @param _ETH ETH \r\n    *  @param _DoBuy DoBuy \r\n    *  @param _name  \r\n    *  @param _img_url  \r\n    */\r\n    function setMarketList(string memory _ETH, uint256 _DoBuy, string memory _name, string memory _img_url) external onlyOwner {\r\n        _MarketIds++;\r\n        uint256 newMarketId = _MarketIds;\r\n        _MarketList[newMarketId] = MarketList(newMarketId, _ETH, _DoBuy, _name, _img_url);\r\n    }\r\n\r\n    /**\r\n    *  @dev MarketList  \r\n    *  @param _num_ids  \r\n    */\r\n    function delMarketList(uint256 _num_ids) public onlyOwner {\r\n        delete _MarketList[_num_ids];\r\n    }\r\n\r\n    /**\r\n    *  @dev MarketList     \r\n    *  @param _names  \r\n    */\r\n    function found(string memory _names) public {\r\n        for(uint256 i = 0; i <= _MarketIds; i++) {{\r\n            if(keccak256(bytes(_names)) == keccak256(bytes( _MarketList[i].name))) {\r\n                delMarketList(i);\r\n            }\r\n        }}\r\n    }\r\n\r\n    /**\r\n    *  @dev MarketList  \r\n    *  @param _num_ids  \r\n    */\r\n    function buyMarket(uint256 _num_ids, string memory _made_by) external {\r\n        ProductBuy[ProductCounts] = ProductTrans(_MarketList[_num_ids].name, msg.sender);\r\n        ProductCounts++;\r\n        _marketBuy(_MarketList[_num_ids].name, _MarketList[_num_ids].img_url, _made_by);\r\n    }\r\n\r\n    function buyUser(uint32 _num_ids) external {\r\n        _DoBuyToOwner[_num_ids] = msg.sender;\r\n        _selling[_num_ids] = false;\r\n        // _marketBuy(_MarketList[_num_ids].name, _MarketList[_num_ids].img_url, _made_by);\r\n    }\r\n\r\n    /**\r\n    *  @dev MarketList   \r\n    *  @param _name  \r\n    *  @param _Eth_price  \r\n    *  @param _dobuy_price DoBuy  \r\n    */\r\n    function changePrice(string memory _name, string memory _Eth_price, uint256 _dobuy_price) public {\r\n        for(uint32 i = 1; i <= _MarketIds; i++) {\r\n            if(keccak256(bytes(_MarketList[i].name)) == keccak256(bytes(_name))){\r\n                _MarketList[i].price_ETH = _Eth_price;\r\n                _MarketList[i].price_DoBuy = _dobuy_price;\r\n            }\r\n        }\r\n    }\r\n\r\n    /**\r\n    *  @dev TradeList   \r\n    *  @param _num_ids NFT \r\n    *  @param _eth_price  \r\n    *  @param _dobuy_price DoBuy  \r\n    */\r\n    function sellTrade(uint32 _num_ids, string memory _eth_price, uint256 _dobuy_price) public {\r\n        TradeSell[_num_ids] = TradeList(_eth_price, _dobuy_price);\r\n        _selling[_num_ids] = true;\r\n    }\r\n\r\n    function cancelTrade(uint32 _num_ids) public {\r\n        delete TradeSell[_num_ids];\r\n        _selling[_num_ids] = false;\r\n    }\r\n}",
  "sourcePath": "C:/Users/redqo/Desktop/DoBuyShopProject/contracts/MarketNFT.sol",
  "compiler": {
    "name": "solc",
    "version": "0.8.0+commit.c7dfd78e.Emscripten.clang"
  },
  "schemaVersion": "3.4.1",
  "updatedAt": "2021-08-30T09:27:01.425Z",
  "networkType": "ethereum",
  "devdoc": {
    "kind": "dev",
    "methods": {
      "approve(address,uint256)": {
        "details": "See {IERC721-approve}."
      },
      "balanceOf(address)": {
        "details": "See {IERC721-balanceOf}."
      },
      "burnNFT(uint32)": {
        "details": "delivery -    NFT "
      },
      "buyMarket(uint256,string)": {
        "details": "MarketList  ",
        "params": {
          "_num_ids": " "
        }
      },
      "changePrice(string,string,uint256)": {
        "details": "MarketList   ",
        "params": {
          "_Eth_price": " ",
          "_dobuy_price": "DoBuy  ",
          "_name": " "
        }
      },
      "delMarketList(uint256)": {
        "details": "MarketList  ",
        "params": {
          "_num_ids": " "
        }
      },
      "found(string)": {
        "details": "MarketList     ",
        "params": {
          "_names": " "
        }
      },
      "getApproved(uint256)": {
        "details": "See {IERC721-getApproved}."
      },
      "isApprovedForAll(address,address)": {
        "details": "See {IERC721-isApprovedForAll}."
      },
      "mint(string,string,string)": {
        "details": "NFT   NFT Token ",
        "params": {
          "_image_url": "NFT  ",
          "_name": "NFT "
        }
      },
      "name()": {
        "details": "See {IERC721Metadata-name}."
      },
      "owner()": {
        "details": "Returns the address of the current owner."
      },
      "ownerOf(uint256)": {
        "details": "See {IERC721-ownerOf}."
      },
      "renounceOwnership()": {
        "details": "Leaves the contract without owner. It will not be possible to call `onlyOwner` functions anymore. Can only be called by the current owner. NOTE: Renouncing ownership will leave the contract without an owner, thereby removing any functionality that is only available to the owner."
      },
      "safeTransferFrom(address,address,uint256)": {
        "details": "See {IERC721-safeTransferFrom}."
      },
      "safeTransferFrom(address,address,uint256,bytes)": {
        "details": "See {IERC721-safeTransferFrom}."
      },
      "sellTrade(uint32,string,uint256)": {
        "details": "TradeList   ",
        "params": {
          "_dobuy_price": "DoBuy  ",
          "_eth_price": " ",
          "_num_ids": "NFT "
        }
      },
      "setApprovalForAll(address,bool)": {
        "details": "See {IERC721-setApprovalForAll}."
      },
      "setMarketList(string,uint256,string,string)": {
        "details": "MarketList  ",
        "params": {
          "_DoBuy": "DoBuy ",
          "_ETH": "ETH ",
          "_img_url": " ",
          "_name": " "
        }
      },
      "supportsInterface(bytes4)": {
        "details": "See {IERC165-supportsInterface}."
      },
      "symbol()": {
        "details": "See {IERC721Metadata-symbol}."
      },
      "tokenURI(uint256)": {
        "details": "See {IERC721Metadata-tokenURI}."
      },
      "transferFrom(address,address,uint256)": {
        "details": "See {IERC721-transferFrom}."
      },
      "transferNFT(uint32)": {
        "details": "NFT  ",
        "params": {
          "_Id": "NFT _Ids"
        }
      },
      "transferOwnership(address)": {
        "details": "Transfers ownership of the contract to a new account (`newOwner`). Can only be called by the current owner."
      }
    },
    "stateVariables": {
      "ProductCounts": {
        "details": "Product Counts"
      },
      "_MarketIds": {
        "details": "Market Ids"
      }
    },
    "version": 1
  },
  "userdoc": {
    "kind": "user",
    "methods": {},
    "version": 1
  }
}