{
  "contractName": "PongNFT",
  "abi": [
    {
      "inputs": [],
      "stateMutability": "nonpayable",
      "type": "constructor"
    },
    {
      "anonymous": false,
      "inputs": [
        {
          "indexed": true,
          "internalType": "address",
          "name": "owner",
          "type": "address"
        },
        {
          "indexed": true,
          "internalType": "address",
          "name": "approved",
          "type": "address"
        },
        {
          "indexed": true,
          "internalType": "uint256",
          "name": "tokenId",
          "type": "uint256"
        }
      ],
      "name": "Approval",
      "type": "event"
    },
    {
      "anonymous": false,
      "inputs": [
        {
          "indexed": true,
          "internalType": "address",
          "name": "owner",
          "type": "address"
        },
        {
          "indexed": true,
          "internalType": "address",
          "name": "operator",
          "type": "address"
        },
        {
          "indexed": false,
          "internalType": "bool",
          "name": "approved",
          "type": "bool"
        }
      ],
      "name": "ApprovalForAll",
      "type": "event"
    },
    {
      "anonymous": false,
      "inputs": [
        {
          "indexed": false,
          "internalType": "address",
          "name": "",
          "type": "address"
        },
        {
          "indexed": false,
          "internalType": "uint256",
          "name": "",
          "type": "uint256"
        }
      ],
      "name": "PongCreated",
      "type": "event"
    },
    {
      "anonymous": false,
      "inputs": [
        {
          "indexed": true,
          "internalType": "address",
          "name": "from",
          "type": "address"
        },
        {
          "indexed": true,
          "internalType": "address",
          "name": "to",
          "type": "address"
        },
        {
          "indexed": true,
          "internalType": "uint256",
          "name": "tokenId",
          "type": "uint256"
        }
      ],
      "name": "Transfer",
      "type": "event"
    },
    {
      "inputs": [
        {
          "internalType": "uint256",
          "name": "",
          "type": "uint256"
        }
      ],
      "name": "_Ponglist",
      "outputs": [
        {
          "internalType": "address",
          "name": "nft_owner",
          "type": "address"
        },
        {
          "internalType": "uint256",
          "name": "_Ids",
          "type": "uint256"
        },
        {
          "internalType": "uint256",
          "name": "timestamp",
          "type": "uint256"
        },
        {
          "internalType": "string",
          "name": "name",
          "type": "string"
        },
        {
          "internalType": "string",
          "name": "image_url",
          "type": "string"
        }
      ],
      "stateMutability": "view",
      "type": "function",
      "constant": true
    },
    {
      "inputs": [
        {
          "internalType": "address",
          "name": "to",
          "type": "address"
        },
        {
          "internalType": "uint256",
          "name": "tokenId",
          "type": "uint256"
        }
      ],
      "name": "approve",
      "outputs": [],
      "stateMutability": "nonpayable",
      "type": "function"
    },
    {
      "inputs": [
        {
          "internalType": "address",
          "name": "owner",
          "type": "address"
        }
      ],
      "name": "balanceOf",
      "outputs": [
        {
          "internalType": "uint256",
          "name": "",
          "type": "uint256"
        }
      ],
      "stateMutability": "view",
      "type": "function",
      "constant": true
    },
    {
      "inputs": [
        {
          "internalType": "uint256",
          "name": "tokenId",
          "type": "uint256"
        }
      ],
      "name": "getApproved",
      "outputs": [
        {
          "internalType": "address",
          "name": "",
          "type": "address"
        }
      ],
      "stateMutability": "view",
      "type": "function",
      "constant": true
    },
    {
      "inputs": [
        {
          "internalType": "address",
          "name": "owner",
          "type": "address"
        },
        {
          "internalType": "address",
          "name": "operator",
          "type": "address"
        }
      ],
      "name": "isApprovedForAll",
      "outputs": [
        {
          "internalType": "bool",
          "name": "",
          "type": "bool"
        }
      ],
      "stateMutability": "view",
      "type": "function",
      "constant": true
    },
    {
      "inputs": [],
      "name": "name",
      "outputs": [
        {
          "internalType": "string",
          "name": "",
          "type": "string"
        }
      ],
      "stateMutability": "view",
      "type": "function",
      "constant": true
    },
    {
      "inputs": [
        {
          "internalType": "uint256",
          "name": "tokenId",
          "type": "uint256"
        }
      ],
      "name": "ownerOf",
      "outputs": [
        {
          "internalType": "address",
          "name": "",
          "type": "address"
        }
      ],
      "stateMutability": "view",
      "type": "function",
      "constant": true
    },
    {
      "inputs": [
        {
          "internalType": "address",
          "name": "from",
          "type": "address"
        },
        {
          "internalType": "address",
          "name": "to",
          "type": "address"
        },
        {
          "internalType": "uint256",
          "name": "tokenId",
          "type": "uint256"
        }
      ],
      "name": "safeTransferFrom",
      "outputs": [],
      "stateMutability": "nonpayable",
      "type": "function"
    },
    {
      "inputs": [
        {
          "internalType": "address",
          "name": "from",
          "type": "address"
        },
        {
          "internalType": "address",
          "name": "to",
          "type": "address"
        },
        {
          "internalType": "uint256",
          "name": "tokenId",
          "type": "uint256"
        },
        {
          "internalType": "bytes",
          "name": "_data",
          "type": "bytes"
        }
      ],
      "name": "safeTransferFrom",
      "outputs": [],
      "stateMutability": "nonpayable",
      "type": "function"
    },
    {
      "inputs": [
        {
          "internalType": "address",
          "name": "operator",
          "type": "address"
        },
        {
          "internalType": "bool",
          "name": "approved",
          "type": "bool"
        }
      ],
      "name": "setApprovalForAll",
      "outputs": [],
      "stateMutability": "nonpayable",
      "type": "function"
    },
    {
      "inputs": [
        {
          "internalType": "bytes4",
          "name": "interfaceId",
          "type": "bytes4"
        }
      ],
      "name": "supportsInterface",
      "outputs": [
        {
          "internalType": "bool",
          "name": "",
          "type": "bool"
        }
      ],
      "stateMutability": "view",
      "type": "function",
      "constant": true
    },
    {
      "inputs": [],
      "name": "symbol",
      "outputs": [
        {
          "internalType": "string",
          "name": "",
          "type": "string"
        }
      ],
      "stateMutability": "view",
      "type": "function",
      "constant": true
    },
    {
      "inputs": [
        {
          "internalType": "uint256",
          "name": "tokenId",
          "type": "uint256"
        }
      ],
      "name": "tokenURI",
      "outputs": [
        {
          "internalType": "string",
          "name": "",
          "type": "string"
        }
      ],
      "stateMutability": "view",
      "type": "function",
      "constant": true
    },
    {
      "inputs": [
        {
          "internalType": "address",
          "name": "from",
          "type": "address"
        },
        {
          "internalType": "address",
          "name": "to",
          "type": "address"
        },
        {
          "internalType": "uint256",
          "name": "tokenId",
          "type": "uint256"
        }
      ],
      "name": "transferFrom",
      "outputs": [],
      "stateMutability": "nonpayable",
      "type": "function"
    },
    {
      "inputs": [
        {
          "internalType": "string",
          "name": "_name",
          "type": "string"
        },
        {
          "internalType": "string",
          "name": "_image_url",
          "type": "string"
        },
        {
          "internalType": "address",
          "name": "_account",
          "type": "address"
        }
      ],
      "name": "mint",
      "outputs": [],
      "stateMutability": "nonpayable",
      "type": "function"
    }
  ],
  "bytecode": "0x60806040523480156200001157600080fd5b506040518060400160405280600781526020017f506f6e674e4654000000000000000000000000000000000000000000000000008152506040518060400160405280600581526020017f50474e465400000000000000000000000000000000000000000000000000000081525081600090805190602001906200009692919062000273565b508060019080519060200190620000af92919062000273565b5050506040518060a001604052803373ffffffffffffffffffffffffffffffffffffffff168152602001620000f060076200026560201b62000f371760201c565b81526020014281526020016040518060400160405280600b81526020017f506f6e6720537472617421000000000000000000000000000000000000000000815250815260200160405180602001604052806000815250815250600860006200016460076200026560201b62000f371760201c565b815260200190815260200160002060008201518160000160006101000a81548173ffffffffffffffffffffffffffffffffffffffff021916908373ffffffffffffffffffffffffffffffffffffffff16021790555060208201518160010155604082015181600201556060820151816003019080519060200190620001eb92919062000273565b5060808201518160040190805190602001906200020a92919062000273565b509050507f84cf9cdf6bacf41915d5aa6fc808dca776f03ff09c12df98b49e64991b405207336200024760076200026560201b62000f371760201c565b6040516200025792919062000345565b60405180910390a162000415565b600081600001549050919050565b8280546200028190620003b0565b90600052602060002090601f016020900481019282620002a55760008555620002f1565b82601f10620002c057805160ff1916838001178555620002f1565b82800160010185558215620002f1579182015b82811115620002f0578251825591602001919060010190620002d3565b5b50905062000300919062000304565b5090565b5b808211156200031f57600081600090555060010162000305565b5090565b6200032e8162000372565b82525050565b6200033f81620003a6565b82525050565b60006040820190506200035c600083018562000323565b6200036b602083018462000334565b9392505050565b60006200037f8262000386565b9050919050565b600073ffffffffffffffffffffffffffffffffffffffff82169050919050565b6000819050919050565b60006002820490506001821680620003c957607f821691505b60208210811415620003e057620003df620003e6565b5b50919050565b7f4e487b7100000000000000000000000000000000000000000000000000000000600052602260045260246000fd5b612ce280620004256000396000f3fe608060405234801561001057600080fd5b50600436106100f55760003560e01c806370a0823111610097578063b88d4fde11610066578063b88d4fde14610282578063c6348e6a1461029e578063c87b56dd146102d2578063e985e9c514610302576100f5565b806370a08231146101fc578063904c57471461022c57806395d89b4114610248578063a22cb46514610266576100f5565b8063095ea7b3116100d3578063095ea7b31461017857806323b872dd1461019457806342842e0e146101b05780636352211e146101cc576100f5565b806301ffc9a7146100fa57806306fdde031461012a578063081812fc14610148575b600080fd5b610114600480360381019061010f9190611df3565b610332565b604051610121919061265a565b60405180910390f35b610132610414565b60405161013f9190612675565b60405180910390f35b610162600480360381019061015d9190611ec4565b6104a6565b60405161016f9190612569565b60405180910390f35b610192600480360381019061018d9190611db7565b61052b565b005b6101ae60048036038101906101a99190611cb1565b610643565b005b6101ca60048036038101906101c59190611cb1565b6106a3565b005b6101e660048036038101906101e19190611ec4565b6106c3565b6040516101f39190612569565b60405180910390f35b61021660048036038101906102119190611c4c565b610775565b6040516102239190612877565b60405180910390f35b61024660048036038101906102419190611e45565b61082d565b005b610250610976565b60405161025d9190612675565b60405180910390f35b610280600480360381019061027b9190611d7b565b610a08565b005b61029c60048036038101906102979190611d00565b610b89565b005b6102b860048036038101906102b39190611ec4565b610beb565b6040516102c99594939291906125f9565b60405180910390f35b6102ec60048036038101906102e79190611ec4565b610d51565b6040516102f99190612675565b60405180910390f35b61031c60048036038101906103179190611c75565b610ea3565b604051610329919061265a565b60405180910390f35b60007f80ac58cd000000000000000000000000000000000000000000000000000000007bffffffffffffffffffffffffffffffffffffffffffffffffffffffff1916827bffffffffffffffffffffffffffffffffffffffffffffffffffffffff191614806103fd57507f5b5e139f000000000000000000000000000000000000000000000000000000007bffffffffffffffffffffffffffffffffffffffffffffffffffffffff1916827bffffffffffffffffffffffffffffffffffffffffffffffffffffffff1916145b8061040d575061040c82610f45565b5b9050919050565b60606000805461042390612ad7565b80601f016020809104026020016040519081016040528092919081815260200182805461044f90612ad7565b801561049c5780601f106104715761010080835404028352916020019161049c565b820191906000526020600020905b81548152906001019060200180831161047f57829003601f168201915b5050505050905090565b60006104b182610faf565b6104f0576040517f08c379a00000000000000000000000000000000000000000000000000000000081526004016104e7906127d7565b60405180910390fd5b6004600083815260200190815260200160002060009054906101000a900473ffffffffffffffffffffffffffffffffffffffff169050919050565b6000610536826106c3565b90508073ffffffffffffffffffffffffffffffffffffffff168373ffffffffffffffffffffffffffffffffffffffff1614156105a7576040517f08c379a000000000000000000000000000000000000000000000000000000000815260040161059e90612837565b60405180910390fd5b8073ffffffffffffffffffffffffffffffffffffffff166105c661101b565b73ffffffffffffffffffffffffffffffffffffffff1614806105f557506105f4816105ef61101b565b610ea3565b5b610634576040517f08c379a000000000000000000000000000000000000000000000000000000000815260040161062b90612737565b60405180910390fd5b61063e8383611023565b505050565b61065461064e61101b565b826110dc565b610693576040517f08c379a000000000000000000000000000000000000000000000000000000000815260040161068a90612857565b60405180910390fd5b61069e8383836111ba565b505050565b6106be83838360405180602001604052806000815250610b89565b505050565b6000806002600084815260200190815260200160002060009054906101000a900473ffffffffffffffffffffffffffffffffffffffff169050600073ffffffffffffffffffffffffffffffffffffffff168173ffffffffffffffffffffffffffffffffffffffff16141561076c576040517f08c379a000000000000000000000000000000000000000000000000000000000815260040161076390612777565b60405180910390fd5b80915050919050565b60008073ffffffffffffffffffffffffffffffffffffffff168273ffffffffffffffffffffffffffffffffffffffff1614156107e6576040517f08c379a00000000000000000000000000000000000000000000000000000000081526004016107dd90612757565b60405180910390fd5b600360008373ffffffffffffffffffffffffffffffffffffffff1673ffffffffffffffffffffffffffffffffffffffff168152602001908152602001600020549050919050565b6108376007611416565b60006108436007610f37565b90506040518060a001604052803373ffffffffffffffffffffffffffffffffffffffff168152602001828152602001428152602001858152602001848152506008600083815260200190815260200160002060008201518160000160006101000a81548173ffffffffffffffffffffffffffffffffffffffff021916908373ffffffffffffffffffffffffffffffffffffffff1602179055506020820151816001015560408201518160020155606082015181600301908051906020019061090c929190611a70565b506080820151816004019080519060200190610929929190611a70565b50905050610937828261142c565b7f84cf9cdf6bacf41915d5aa6fc808dca776f03ff09c12df98b49e64991b40520733826040516109689291906125d0565b60405180910390a150505050565b60606001805461098590612ad7565b80601f01602080910402602001604051908101604052809291908181526020018280546109b190612ad7565b80156109fe5780601f106109d3576101008083540402835291602001916109fe565b820191906000526020600020905b8154815290600101906020018083116109e157829003601f168201915b5050505050905090565b610a1061101b565b73ffffffffffffffffffffffffffffffffffffffff168273ffffffffffffffffffffffffffffffffffffffff161415610a7e576040517f08c379a0000000000000000000000000000000000000000000000000000000008152600401610a75906126f7565b60405180910390fd5b8060056000610a8b61101b565b73ffffffffffffffffffffffffffffffffffffffff1673ffffffffffffffffffffffffffffffffffffffff16815260200190815260200160002060008473ffffffffffffffffffffffffffffffffffffffff1673ffffffffffffffffffffffffffffffffffffffff16815260200190815260200160002060006101000a81548160ff0219169083151502179055508173ffffffffffffffffffffffffffffffffffffffff16610b3861101b565b73ffffffffffffffffffffffffffffffffffffffff167f17307eab39ab6107e8899845ad3d59bd9653f200f220920489ca2b5937696c3183604051610b7d919061265a565b60405180910390a35050565b610b9a610b9461101b565b836110dc565b610bd9576040517f08c379a0000000000000000000000000000000000000000000000000000000008152600401610bd090612857565b60405180910390fd5b610be5848484846115fa565b50505050565b60086020528060005260406000206000915090508060000160009054906101000a900473ffffffffffffffffffffffffffffffffffffffff1690806001015490806002015490806003018054610c4090612ad7565b80601f0160208091040260200160405190810160405280929190818152602001828054610c6c90612ad7565b8015610cb95780601f10610c8e57610100808354040283529160200191610cb9565b820191906000526020600020905b815481529060010190602001808311610c9c57829003601f168201915b505050505090806004018054610cce90612ad7565b80601f0160208091040260200160405190810160405280929190818152602001828054610cfa90612ad7565b8015610d475780601f10610d1c57610100808354040283529160200191610d47565b820191906000526020600020905b815481529060010190602001808311610d2a57829003601f168201915b5050505050905085565b6060610d5c82610faf565b610d9b576040517f08c379a0000000000000000000000000000000000000000000000000000000008152600401610d92906127b7565b60405180910390fd5b6000600660008481526020019081526020016000208054610dbb90612ad7565b80601f0160208091040260200160405190810160405280929190818152602001828054610de790612ad7565b8015610e345780601f10610e0957610100808354040283529160200191610e34565b820191906000526020600020905b815481529060010190602001808311610e1757829003601f168201915b505050505090506000610e45611656565b9050600081511415610e5b578192505050610e9e565b600082511115610e90578082604051602001610e78929190612545565b60405160208183030381529060405292505050610e9e565b610e998461166d565b925050505b919050565b6000600560008473ffffffffffffffffffffffffffffffffffffffff1673ffffffffffffffffffffffffffffffffffffffff16815260200190815260200160002060008373ffffffffffffffffffffffffffffffffffffffff1673ffffffffffffffffffffffffffffffffffffffff16815260200190815260200160002060009054906101000a900460ff16905092915050565b600081600001549050919050565b60007f01ffc9a7000000000000000000000000000000000000000000000000000000007bffffffffffffffffffffffffffffffffffffffffffffffffffffffff1916827bffffffffffffffffffffffffffffffffffffffffffffffffffffffff1916149050919050565b60008073ffffffffffffffffffffffffffffffffffffffff166002600084815260200190815260200160002060009054906101000a900473ffffffffffffffffffffffffffffffffffffffff1673ffffffffffffffffffffffffffffffffffffffff1614159050919050565b600033905090565b816004600083815260200190815260200160002060006101000a81548173ffffffffffffffffffffffffffffffffffffffff021916908373ffffffffffffffffffffffffffffffffffffffff160217905550808273ffffffffffffffffffffffffffffffffffffffff16611096836106c3565b73ffffffffffffffffffffffffffffffffffffffff167f8c5be1e5ebec7d5bd14f71427d1e84f3dd0314c0f7b2291e5b200ac8c7c3b92560405160405180910390a45050565b60006110e782610faf565b611126576040517f08c379a000000000000000000000000000000000000000000000000000000000815260040161111d90612717565b60405180910390fd5b6000611131836106c3565b90508073ffffffffffffffffffffffffffffffffffffffff168473ffffffffffffffffffffffffffffffffffffffff1614806111a057508373ffffffffffffffffffffffffffffffffffffffff16611188846104a6565b73ffffffffffffffffffffffffffffffffffffffff16145b806111b157506111b08185610ea3565b5b91505092915050565b8273ffffffffffffffffffffffffffffffffffffffff166111da826106c3565b73ffffffffffffffffffffffffffffffffffffffff1614611230576040517f08c379a0000000000000000000000000000000000000000000000000000000008152600401611227906127f7565b60405180910390fd5b600073ffffffffffffffffffffffffffffffffffffffff168273ffffffffffffffffffffffffffffffffffffffff1614156112a0576040517f08c379a0000000000000000000000000000000000000000000000000000000008152600401611297906126d7565b60405180910390fd5b6112ab838383611714565b6112b6600082611023565b6001600360008573ffffffffffffffffffffffffffffffffffffffff1673ffffffffffffffffffffffffffffffffffffffff168152602001908152602001600020600082825461130691906129ed565b925050819055506001600360008473ffffffffffffffffffffffffffffffffffffffff1673ffffffffffffffffffffffffffffffffffffffff168152602001908152602001600020600082825461135d9190612966565b92505081905550816002600083815260200190815260200160002060006101000a81548173ffffffffffffffffffffffffffffffffffffffff021916908373ffffffffffffffffffffffffffffffffffffffff160217905550808273ffffffffffffffffffffffffffffffffffffffff168473ffffffffffffffffffffffffffffffffffffffff167fddf252ad1be2c89b69c2b068fc378daa952ba7f163c4a11628f55a4df523b3ef60405160405180910390a4505050565b6001816000016000828254019250508190555050565b600073ffffffffffffffffffffffffffffffffffffffff168273ffffffffffffffffffffffffffffffffffffffff16141561149c576040517f08c379a000000000000000000000000000000000000000000000000000000000815260040161149390612797565b60405180910390fd5b6114a581610faf565b156114e5576040517f08c379a00000000000000000000000000000000000000000000000000000000081526004016114dc906126b7565b60405180910390fd5b6114f160008383611714565b6001600360008473ffffffffffffffffffffffffffffffffffffffff1673ffffffffffffffffffffffffffffffffffffffff16815260200190815260200160002060008282546115419190612966565b92505081905550816002600083815260200190815260200160002060006101000a81548173ffffffffffffffffffffffffffffffffffffffff021916908373ffffffffffffffffffffffffffffffffffffffff160217905550808273ffffffffffffffffffffffffffffffffffffffff16600073ffffffffffffffffffffffffffffffffffffffff167fddf252ad1be2c89b69c2b068fc378daa952ba7f163c4a11628f55a4df523b3ef60405160405180910390a45050565b6116058484846111ba565b61161184848484611719565b611650576040517f08c379a000000000000000000000000000000000000000000000000000000000815260040161164790612697565b60405180910390fd5b50505050565b606060405180602001604052806000815250905090565b606061167882610faf565b6116b7576040517f08c379a00000000000000000000000000000000000000000000000000000000081526004016116ae90612817565b60405180910390fd5b60006116c1611656565b905060008151116116e1576040518060200160405280600081525061170c565b806116eb846118b0565b6040516020016116fc929190612545565b6040516020818303038152906040525b915050919050565b505050565b600061173a8473ffffffffffffffffffffffffffffffffffffffff16611a5d565b156118a3578373ffffffffffffffffffffffffffffffffffffffff1663150b7a0261176361101b565b8786866040518563ffffffff1660e01b81526004016117859493929190612584565b602060405180830381600087803b15801561179f57600080fd5b505af19250505080156117d057506040513d601f19601f820116820180604052508101906117cd9190611e1c565b60015b611853573d8060008114611800576040519150601f19603f3d011682016040523d82523d6000602084013e611805565b606091505b5060008151141561184b576040517f08c379a000000000000000000000000000000000000000000000000000000000815260040161184290612697565b60405180910390fd5b805181602001fd5b63150b7a0260e01b7bffffffffffffffffffffffffffffffffffffffffffffffffffffffff1916817bffffffffffffffffffffffffffffffffffffffffffffffffffffffff1916149150506118a8565b600190505b949350505050565b606060008214156118f8576040518060400160405280600181526020017f30000000000000000000000000000000000000000000000000000000000000008152509050611a58565b600082905060005b6000821461192a57808061191390612b09565b915050600a8261192391906129bc565b9150611900565b60008167ffffffffffffffff81111561196c577f4e487b7100000000000000000000000000000000000000000000000000000000600052604160045260246000fd5b6040519080825280601f01601f19166020018201604052801561199e5781602001600182028036833780820191505090505b5090505b60008514611a51576001826119b791906129ed565b9150600a856119c69190612b52565b60306119d29190612966565b60f81b818381518110611a0e577f4e487b7100000000000000000000000000000000000000000000000000000000600052603260045260246000fd5b60200101907effffffffffffffffffffffffffffffffffffffffffffffffffffffffffffff1916908160001a905350600a85611a4a91906129bc565b94506119a2565b8093505050505b919050565b600080823b905060008111915050919050565b828054611a7c90612ad7565b90600052602060002090601f016020900481019282611a9e5760008555611ae5565b82601f10611ab757805160ff1916838001178555611ae5565b82800160010185558215611ae5579182015b82811115611ae4578251825591602001919060010190611ac9565b5b509050611af29190611af6565b5090565b5b80821115611b0f576000816000905550600101611af7565b5090565b6000611b26611b21846128c3565b612892565b905082815260208101848484011115611b3e57600080fd5b611b49848285612a95565b509392505050565b6000611b64611b5f846128f3565b612892565b905082815260208101848484011115611b7c57600080fd5b611b87848285612a95565b509392505050565b600081359050611b9e81612c50565b92915050565b600081359050611bb381612c67565b92915050565b600081359050611bc881612c7e565b92915050565b600081519050611bdd81612c7e565b92915050565b600082601f830112611bf457600080fd5b8135611c04848260208601611b13565b91505092915050565b600082601f830112611c1e57600080fd5b8135611c2e848260208601611b51565b91505092915050565b600081359050611c4681612c95565b92915050565b600060208284031215611c5e57600080fd5b6000611c6c84828501611b8f565b91505092915050565b60008060408385031215611c8857600080fd5b6000611c9685828601611b8f565b9250506020611ca785828601611b8f565b9150509250929050565b600080600060608486031215611cc657600080fd5b6000611cd486828701611b8f565b9350506020611ce586828701611b8f565b9250506040611cf686828701611c37565b9150509250925092565b60008060008060808587031215611d1657600080fd5b6000611d2487828801611b8f565b9450506020611d3587828801611b8f565b9350506040611d4687828801611c37565b925050606085013567ffffffffffffffff811115611d6357600080fd5b611d6f87828801611be3565b91505092959194509250565b60008060408385031215611d8e57600080fd5b6000611d9c85828601611b8f565b9250506020611dad85828601611ba4565b9150509250929050565b60008060408385031215611dca57600080fd5b6000611dd885828601611b8f565b9250506020611de985828601611c37565b9150509250929050565b600060208284031215611e0557600080fd5b6000611e1384828501611bb9565b91505092915050565b600060208284031215611e2e57600080fd5b6000611e3c84828501611bce565b91505092915050565b600080600060608486031215611e5a57600080fd5b600084013567ffffffffffffffff811115611e7457600080fd5b611e8086828701611c0d565b935050602084013567ffffffffffffffff811115611e9d57600080fd5b611ea986828701611c0d565b9250506040611eba86828701611b8f565b9150509250925092565b600060208284031215611ed657600080fd5b6000611ee484828501611c37565b91505092915050565b611ef681612a21565b82525050565b611f0581612a33565b82525050565b6000611f1682612923565b611f208185612939565b9350611f30818560208601612aa4565b611f3981612c3f565b840191505092915050565b6000611f4f8261292e565b611f59818561294a565b9350611f69818560208601612aa4565b611f7281612c3f565b840191505092915050565b6000611f888261292e565b611f92818561295b565b9350611fa2818560208601612aa4565b80840191505092915050565b6000611fbb60328361294a565b91507f4552433732313a207472616e7366657220746f206e6f6e20455243373231526560008301527f63656976657220696d706c656d656e74657200000000000000000000000000006020830152604082019050919050565b6000612021601c8361294a565b91507f4552433732313a20746f6b656e20616c7265616479206d696e746564000000006000830152602082019050919050565b600061206160248361294a565b91507f4552433732313a207472616e7366657220746f20746865207a65726f2061646460008301527f72657373000000000000000000000000000000000000000000000000000000006020830152604082019050919050565b60006120c760198361294a565b91507f4552433732313a20617070726f766520746f2063616c6c6572000000000000006000830152602082019050919050565b6000612107602c8361294a565b91507f4552433732313a206f70657261746f7220717565727920666f72206e6f6e657860008301527f697374656e7420746f6b656e00000000000000000000000000000000000000006020830152604082019050919050565b600061216d60388361294a565b91507f4552433732313a20617070726f76652063616c6c6572206973206e6f74206f7760008301527f6e6572206e6f7220617070726f76656420666f7220616c6c00000000000000006020830152604082019050919050565b60006121d3602a8361294a565b91507f4552433732313a2062616c616e636520717565727920666f7220746865207a6560008301527f726f2061646472657373000000000000000000000000000000000000000000006020830152604082019050919050565b600061223960298361294a565b91507f4552433732313a206f776e657220717565727920666f72206e6f6e657869737460008301527f656e7420746f6b656e00000000000000000000000000000000000000000000006020830152604082019050919050565b600061229f60208361294a565b91507f4552433732313a206d696e7420746f20746865207a65726f20616464726573736000830152602082019050919050565b60006122df60318361294a565b91507f45524337323155524953746f726167653a2055524920717565727920666f722060008301527f6e6f6e6578697374656e7420746f6b656e0000000000000000000000000000006020830152604082019050919050565b6000612345602c8361294a565b91507f4552433732313a20617070726f76656420717565727920666f72206e6f6e657860008301527f697374656e7420746f6b656e00000000000000000000000000000000000000006020830152604082019050919050565b60006123ab60298361294a565b91507f4552433732313a207472616e73666572206f6620746f6b656e2074686174206960008301527f73206e6f74206f776e00000000000000000000000000000000000000000000006020830152604082019050919050565b6000612411602f8361294a565b91507f4552433732314d657461646174613a2055524920717565727920666f72206e6f60008301527f6e6578697374656e7420746f6b656e00000000000000000000000000000000006020830152604082019050919050565b600061247760218361294a565b91507f4552433732313a20617070726f76616c20746f2063757272656e74206f776e6560008301527f72000000000000000000000000000000000000000000000000000000000000006020830152604082019050919050565b60006124dd60318361294a565b91507f4552433732313a207472616e736665722063616c6c6572206973206e6f74206f60008301527f776e6572206e6f7220617070726f7665640000000000000000000000000000006020830152604082019050919050565b61253f81612a8b565b82525050565b60006125518285611f7d565b915061255d8284611f7d565b91508190509392505050565b600060208201905061257e6000830184611eed565b92915050565b60006080820190506125996000830187611eed565b6125a66020830186611eed565b6125b36040830185612536565b81810360608301526125c58184611f0b565b905095945050505050565b60006040820190506125e56000830185611eed565b6125f26020830184612536565b9392505050565b600060a08201905061260e6000830188611eed565b61261b6020830187612536565b6126286040830186612536565b818103606083015261263a8185611f44565b9050818103608083015261264e8184611f44565b90509695505050505050565b600060208201905061266f6000830184611efc565b92915050565b6000602082019050818103600083015261268f8184611f44565b905092915050565b600060208201905081810360008301526126b081611fae565b9050919050565b600060208201905081810360008301526126d081612014565b9050919050565b600060208201905081810360008301526126f081612054565b9050919050565b60006020820190508181036000830152612710816120ba565b9050919050565b60006020820190508181036000830152612730816120fa565b9050919050565b6000602082019050818103600083015261275081612160565b9050919050565b60006020820190508181036000830152612770816121c6565b9050919050565b600060208201905081810360008301526127908161222c565b9050919050565b600060208201905081810360008301526127b081612292565b9050919050565b600060208201905081810360008301526127d0816122d2565b9050919050565b600060208201905081810360008301526127f081612338565b9050919050565b600060208201905081810360008301526128108161239e565b9050919050565b6000602082019050818103600083015261283081612404565b9050919050565b600060208201905081810360008301526128508161246a565b9050919050565b60006020820190508181036000830152612870816124d0565b9050919050565b600060208201905061288c6000830184612536565b92915050565b6000604051905081810181811067ffffffffffffffff821117156128b9576128b8612c10565b5b8060405250919050565b600067ffffffffffffffff8211156128de576128dd612c10565b5b601f19601f8301169050602081019050919050565b600067ffffffffffffffff82111561290e5761290d612c10565b5b601f19601f8301169050602081019050919050565b600081519050919050565b600081519050919050565b600082825260208201905092915050565b600082825260208201905092915050565b600081905092915050565b600061297182612a8b565b915061297c83612a8b565b9250827fffffffffffffffffffffffffffffffffffffffffffffffffffffffffffffffff038211156129b1576129b0612b83565b5b828201905092915050565b60006129c782612a8b565b91506129d283612a8b565b9250826129e2576129e1612bb2565b5b828204905092915050565b60006129f882612a8b565b9150612a0383612a8b565b925082821015612a1657612a15612b83565b5b828203905092915050565b6000612a2c82612a6b565b9050919050565b60008115159050919050565b60007fffffffff0000000000000000000000000000000000000000000000000000000082169050919050565b600073ffffffffffffffffffffffffffffffffffffffff82169050919050565b6000819050919050565b82818337600083830152505050565b60005b83811015612ac2578082015181840152602081019050612aa7565b83811115612ad1576000848401525b50505050565b60006002820490506001821680612aef57607f821691505b60208210811415612b0357612b02612be1565b5b50919050565b6000612b1482612a8b565b91507fffffffffffffffffffffffffffffffffffffffffffffffffffffffffffffffff821415612b4757612b46612b83565b5b600182019050919050565b6000612b5d82612a8b565b9150612b6883612a8b565b925082612b7857612b77612bb2565b5b828206905092915050565b7f4e487b7100000000000000000000000000000000000000000000000000000000600052601160045260246000fd5b7f4e487b7100000000000000000000000000000000000000000000000000000000600052601260045260246000fd5b7f4e487b7100000000000000000000000000000000000000000000000000000000600052602260045260246000fd5b7f4e487b7100000000000000000000000000000000000000000000000000000000600052604160045260246000fd5b6000601f19601f8301169050919050565b612c5981612a21565b8114612c6457600080fd5b50565b612c7081612a33565b8114612c7b57600080fd5b50565b612c8781612a3f565b8114612c9257600080fd5b50565b612c9e81612a8b565b8114612ca957600080fd5b5056fea2646970667358221220a329dbeea465e1976d8518b3514213127cc4026141deb3a8caf87962c265e60b64736f6c63430008000033",
  "immutableReferences": {},
  "source": "// SPDX-License-Identifier: MIT\npragma solidity >=0.4.22 <0.9.0;\n\n\n// import \"@openzeppelin/contracts/token/ERC721/presets/ERC721PresetMinterPauserAutoId.sol\";\nimport \"@openzeppelin/contracts/token/ERC721/extensions/ERC721URIStorage.sol\";\nimport \"@openzeppelin/contracts/utils/Counters.sol\";\n\n\ncontract PongNFT is ERC721URIStorage {\n  using Counters for Counters.Counter;\n  Counters.Counter private _tokenIds;\n\n  struct NFTcard {\n    address nft_owner; // NFT owner\n    uint256 _Ids; // NFT serial number\n    uint256 timestamp; // Time Created\n    string name; // NFT names\n    string image_url; // IMAGE URL\n  }\n\n  //  \n  mapping (uint256 => NFTcard) public _Ponglist;\n  event PongCreated (address , uint256);\n\n  constructor() ERC721(\"PongNFT\", \"PGNFT\") {\n    _Ponglist[_tokenIds.current()] = NFTcard(msg.sender, _tokenIds.current(), block.timestamp, \"Pong Strat!\", \"\");\n    emit PongCreated(msg.sender, _tokenIds.current());\n  }\n\n  /**\n   *  @notice make NFT\n   *  @dev NFT   NFT Token \n   */\n  function mint(string memory _name, string memory _image_url, address _account) public {\n    _tokenIds.increment();\n    uint256 newItemId = _tokenIds.current();\n    _Ponglist[newItemId] = NFTcard(msg.sender, newItemId, block.timestamp, _name, _image_url);\n    _mint(_account, newItemId);\n    emit PongCreated(msg.sender, newItemId);\n  }\n}\n",
  "sourcePath": "C:/Users/redqo/Desktop/PongNFT/contracts/PongNFT.sol",
  "compiler": {
    "name": "solc",
    "version": "0.8.0+commit.c7dfd78e.Emscripten.clang"
  },
  "schemaVersion": "3.4.1",
  "updatedAt": "2021-08-17T07:37:10.135Z",
  "networkType": "ethereum",
  "devdoc": {
    "kind": "dev",
    "methods": {
      "approve(address,uint256)": {
        "details": "See {IERC721-approve}."
      },
      "balanceOf(address)": {
        "details": "See {IERC721-balanceOf}."
      },
      "getApproved(uint256)": {
        "details": "See {IERC721-getApproved}."
      },
      "isApprovedForAll(address,address)": {
        "details": "See {IERC721-isApprovedForAll}."
      },
      "mint(string,string,address)": {
        "details": "NFT   NFT Token "
      },
      "name()": {
        "details": "See {IERC721Metadata-name}."
      },
      "ownerOf(uint256)": {
        "details": "See {IERC721-ownerOf}."
      },
      "safeTransferFrom(address,address,uint256)": {
        "details": "See {IERC721-safeTransferFrom}."
      },
      "safeTransferFrom(address,address,uint256,bytes)": {
        "details": "See {IERC721-safeTransferFrom}."
      },
      "setApprovalForAll(address,bool)": {
        "details": "See {IERC721-setApprovalForAll}."
      },
      "supportsInterface(bytes4)": {
        "details": "See {IERC165-supportsInterface}."
      },
      "symbol()": {
        "details": "See {IERC721Metadata-symbol}."
      },
      "tokenURI(uint256)": {
        "details": "See {IERC721Metadata-tokenURI}."
      },
      "transferFrom(address,address,uint256)": {
        "details": "See {IERC721-transferFrom}."
      }
    },
    "version": 1
  },
  "userdoc": {
    "kind": "user",
    "methods": {
      "mint(string,string,address)": {
        "notice": "make NFT"
      }
    },
    "version": 1
  }
}